:020000040800F2
:10E00000008002208D370208559D0208559D0208A8
:10E01000559D0208559D0208559D0208000000000C
:10E02000000000000000000000000000B1F3010843
:10E03000559D02080000000057F40108B7F40108DC
:10E04000559D0208559D0208559D0208559D0208E0
:10E05000559D0208559D0208559D0208559D0208D0
:10E06000559D0208559D0208559D0208559D0208C0
:10E07000559D0208559D0208559D0208559D0208B0
:10E08000559D0208559D0208559D0208BD040208D1
:10E09000A9030208559D0208C1040208559D020803
:10E0A000559D0208559D0208559D0208559D020880
:10E0B000559D0208559D020800000000559D02086C
:10E0C000559D0208559D0208559D0208559D020860
:10E0D000559D0208559D0208559D0208559D020850
:10E0E000559D0208559D0208000000000000000038
:10E0F0000000000000000000000000000000000020
:10E1000000000000559D020800000000559D020817
:10E11000559D020800000000559D02080000000007
:10E12000559D0208559D0208559D0208559D0208FF
:10E13000559D0208559D0208559D020800000000EB
:10E14000559D0208559D0208559D0208559D0208DF
:10E15000559D0208559D0208559D0208559D0208CF
:10E16000559D0208559D0208559D020800000000BB
:10E1700000000000559D02080000000000000000A3
:10E18000559D0208559D0208559D0208559D02089F
:10E19000559D0208000000002DE9F04F85B0039165
:10E1A0000778A7F10903042B044607F07F0200F16A
:10E1B0000100F5D9202AF3D02B2F04BF677804463D
:10E1C0002D2F72D09FED427B8DED007B4FF000082C
:10E1D0004FF000098FB34FF0000E4FF0000ADFF848
:10E1E00000B1754619E018F0D1FE804689463046E8
:10E1F00018F066FE42464B4618F016FD5246804621
:10E2000089465B46DDE9000135B318F0E9FFCDE949
:10E210000001AE4614F8017F7FB1A7F13006092E48
:10E2200052465B4640464946DDD9C5B92E2F16D128
:10E2300014F8017F0125002FEFD142464B46DDE95E
:10E24000000118F0A3FE80468946039B40464946DC
:10E250001C6005B0BDE8F08F4FF0010EDAE7BEF1AB
:10E26000000F29D042464B46DDE9000118F08EFE32
:10E2700007F0DF07452F80468946E6D10399601CE9
:10E280000A221BF069FC16490246002019F0DEF94B
:10E2900002460B464046494618F078FE80468946BD
:10E2A0004046494605B0BDE8F08F9FED0B7B67788F
:10E2B0008DED007B013489E7DFF828904FF00008EE
:10E2C0004046494605B0BDE8F08F00BFAFF300807F
:10E2D000000000000000F03F000000000000F0BF60
:10E2E000000024400000F87F2DE9F84F1646002377
:10E2F000002204460D4619F0BBF8002840F09D802E
:10E30000002200232046294619F0A8F828B130221F
:10E31000002332707370BDE8F88F2046294619F04B
:10E32000B3FF19F0E3F87BA3D3E900238146294624
:10E33000204619F09DF8002800F08680B9F1000F02
:10E34000C0F2BE804A4600206F4919F07FF90246AC
:10E350000B462046294618F043FF04460D4666A1A9
:10E36000D1E9000101274FF0000822462B4618F0A2
:10E370000DFE0022654B18F057FC19F0A3F9002F91
:10E38000CC464FF0FF3AC1464FF0000840F385807D
:10E39000DFF888E15E4C0122AEF1700945F6F32505
:10E3A0004FF02E0BA94208BFA0424FF0300309D313
:10E3B000001B61EB0501A94208BFA04203F1010364
:10E3C000F6D2DBB2337050EA010306F1010409D141
:10E3D000BA4210DACE4502F101020CD026467EE8A0
:10E3E0000245DFE7BA4204BF86F801B0B41CCE454F
:10E3F00002F10102F2D1B8F1000F0DD02246302116
:10E4000002F8011BC2F1010353442344002BF7DC43
:10E410002AEAEA7301331C44BCF1010F4CD0652396
:10E42000BCF1000F2370C5BF2B236370611CA11CBE
:10E430006046BDE8F84F0DF019BA05F100431D46DE
:10E440002D23337001365BE72DA3D3E9002320464B
:10E45000294619F02BF800287FF470AFB9F10E0FA0
:10E4600009F101073DDDA9F10E08424600202649C9
:10E4700019F0ECF802460B462046294618F0B0FE8B
:10E480000022224B18F0D0FB19F01CF9002FA9F143
:10E490000F0A4FF0010C3FF77BAF334630222E249A
:10E4A00003F8022B74707FEA090618D01E4403F8A3
:10E4B000012BB342FBD16BE700232370BDE8F88F3B
:10E4C000C9F100020020104919F0C0F802460B46BD
:10E4D0002046294618F05AFD04460D463FE71E46E1
:10E4E00056E7C9F10E0200200749C84619F0AEF8F8
:10E4F0004FF0010939E700BF0000901EC4BCD642AE
:10E5000050EFE2D6E41A4B44000024400000E03F04
:10E5100000407A108DEDB5A0F7C6B03ED0A6020837
:10E5200070B54FF0FF3006F0B1FA04466FF07F404F
:10E5300006F0ACFA0646204618F0B2FC00220C4B5E
:10E5400018F024FD044630460D4618F0A9FC06A339
:10E55000D3E9002318F044FE02460B462046294624
:10E5600018F062FB70BD00BF0000E0DFFFFF6F43EB
:10E570000000F03D000000002DE9F843044600F1E2
:10E580006C060CF067FF07460CF06AFF304611F08E
:10E5900093FD2368C51A304611F08EFD237DC11707
:10E5A000C4E90001042B40D8DFE803F04693617B07
:10E5B000030003232375284618F082FC6BA3D3E9DC
:10E5C00000238046894618F071FF48B169A3D3E95A
:10E5D00000234046494618F04BFF002840F0A38036
:10E5E00066A3D3E900234046494618F05FFF48B1CF
:10E5F0004046494663A3D3E9002318F039FF0028B9
:10E6000040F095802269E368013200212261217582
:10E61000202B0CD1A3686FEA1322D2B2D9B2914257
:10E6200000F08E8023690133236100232375FB07EB
:10E6300000D462B6BDE8F883284618F041FC53A325
:10E64000D3E900238046894618F030FF0028EED039
:10E65000404649464FA3D3E9002318F009FF00289C
:10E66000E5D0002301222275A360E360DFE728469E
:10E6700018F026FC3DA3D3E900238046894618F014
:10E6800015FF40B1404649463AA3D3E9002318F0AC
:10E69000EFFE0028CBD123690022013323612275CC
:10E6A000C5E7284618F00CFC30A3D3E900238046C8
:10E6B000894618F0FBFE0028EDD0404649462DA3C0
:10E6C000D3E9002318F0D4FE0028E4D004232375F6
:10E6D000ADE7284618F0F4FB30A3D3E900238046C9
:10E6E000894618F0E3FE38B12EA3D3E90023404653
:10E6F000494618F0BDFE98B900221B4B40464946DA
:10E7000018F0D4FE0028C6D04046494614A3D3E9E9
:10E71000002318F0ADFE0028BDD00223237586E744
:10E720000323237583E7E3680133E36070E7E3685D
:10E73000A268012199400A430133E360A26067E7C0
:10E740006FEA1362D2B2C3F3074393427FF46AAF16
:10E7500084F8CC30A369984767E700BFAFF3008027
:10E76000000000000018A54000209C409A9999994B
:10E7700099197C4033333333331385409A999999EF
:10E78000991995406666666666A69F40000000007F
:10E790000020BC40000000000018C5400000000040
:10E7A0000020AC40000000000018B5400000000050
:10E7B000294B1B68002B70B506460CBF182005209E
:10E7C0000D4609F0D5F8002E044639DD234B1868B4
:10E7D00018F076FB1EA3D3E9002318F0D7FB002224
:10E7E000002318F021FA18F081FE236820EAE07176
:10E7F000B1F5806FA8BF4FF48061DB682046984771
:10E8000023681749D3F8803091FBF6F120469847EA
:10E81000002D14DDA5F11406012EB8BF01263046E7
:10E820000DF00CFE23682046DB6800219847A81BEA
:10E830000128B8BF0120BDE870400DF0FFBD70BDDC
:10E8400003680021DB68BDE870401847AFF3008023
:10E850001010101010101040480600200802002070
:10E8600040420F000000000038B5154B1B68002B1C
:10E8700004460CBF1820052009F07AF8054620460A
:10E8800018F01EFB0CA3D3E9002318F07FFB002235
:10E89000002318F0C9F918F029FE2B6820EAE0716E
:10E8A000B1F5007FDB68A8BF4FF400712846984798
:10E8B000044B1C6038BD00BF101010101010004039
:10E8C000480600200802002030B52D4B8DB01A6894
:10E8D0000092009A120205D4009A42F400020092BB
:10E8E000009A1A60274A284B126801921B6802930B
:10E8F0000EF05AFB18F0E4FACDE90401019B9BB23B
:10E900000193029B9BB20293DDE904011AA3D3E9B0
:10E91000002318F03BFB1D4B0022CDE90401CDE99B
:10E9200006230298019BC01A18F0BAFACDE9080133
:10E93000DDE90445019818F0B3FA02460B4620467B
:10E94000294618F06FF9CDE90A01DDE90601DDE994
:10E950000823DDE90A4518F043FC22462B4618F04F
:10E9600015FB00220A4B18F05FF918F0E7FD039041
:10E9700003980DB030BD00BF9A9999999999F13FCC
:10E9800008030450A875FF1FCA75FF1F00005440FC
:10E9900000003E40000000002DE9F04F2DED028BFD
:10E9A000044683B0C06818F08BFA80462069894617
:10E9B00018F086FA824660698B4618F081FA0246A2
:10E9C00001F1004306460F464046494619F008FB50
:10E9D00018F0D4FDE062054619F0B6F9019028461A
:10E9E00019F066F9019B0546184618F07BFA424675
:10E9F0004B4618F0CBFA80462846894618F072FA42
:10EA000032463B4618F0C2FA02460B46404649469B
:10EA100018F008F902460B465046594619F0E0FA3C
:10EA200018F0ACFD002208EE100A002330463946EB
:10EA300018F03CFD28B3B5EEC08AF1EE10FA1CDDEB
:10EA400011A7D7E9006718EE100A18F04BFA024632
:10EA50000B463046394618F0E5F832463B4618F08A
:10EA6000E3F818F08BFDA062E38843F00203E38033
:10EA700003B0BDEC028BBDE8F08F05A7D7E90067B6
:10EA8000E1E784ED0A8AEFE7EA2E4454FB21F93FDF
:10EA9000EA2E4454FB21F9BF08B50EF0B7F9DFEDBB
:10EAA0000C7A07EE100A67EE277A17EE900A18F034
:10EAB00019FA05A3D3E9002318F092FB18F016FD0C
:10EAC00008BD00BFAFF30080EA2E4454FB2119407B
:10EAD0000000B4430000000008B50EF0ABF9DFED14
:10EAE0000C7A07EE100A67EE277A17EE900A18F0F4
:10EAF000F9F905A3D3E9002318F072FB18F0F6FC2E
:10EB000008BD00BFAFF30080EA2E4454FB2119403A
:10EB10000000B44300000000494A21F00043934242
:10EB20002DE9704304460D464BDC464A93420E469F
:10EB30000EDC3FA3D3E9002318F076F80022424B05
:10EB400018F0B4FC00284CD020462946BDE870835C
:10EB50003E4A93423BDCB3F1804F42DD18F08EFF1A
:10EB60002246804689462B462046294618F00EFA52
:10EB70000022354B18F058F819F044FE02460B46B7
:10EB80004046494618F050F802460B4600202E49F0
:10EB900018F026FB424604460D464B464046494681
:10EBA00018F042F802460B462046294618F03CF879
:10EBB00002F06AF8002EC9DC01F100431946BDE8F5
:10EBC000708302460B4618F02FF8BDE8708318F0EA
:10EBD00055FF02F059F818A3D3E9002318F024F8E0
:10EBE000E8E722462B462046294618F0CFF9804612
:10EBF00089462046294618F041FF002204460D466A
:10EC0000114B4046494618F00FF819F0FBFD002261
:10EC10000D4B18F009F802460B464046494618F0DD
:10EC2000DFFA22462B4617F0FFFF00F0C5FAC1E7D6
:10EC30009C7500883CE4377EEF39FAFE422EE63FB1
:10EC4000FFFFEF7FFFFF2F3E0000F03F0000B041CD
:10EC50002DE9F84FC44B21F000469E4204460D4674
:10EC60008A460EDDC14B9E4200F3AC8000F0A780C7
:10EC7000BAF1000F40F3EA809FA1D1E90001BDE89D
:10EC8000F88FBB4B9E4200F3B580A3F1DE739E422A
:10EC900040F3A0804FF0FF3B22462B4620462946FA
:10ECA00018F074F902460B468046894618F06EF952
:10ECB00093A3D3E9002306460F4618F067F992A301
:10ECC000D3E9002317F0B0FF32463B4618F05EF957
:10ECD0008FA3D3E9002317F0A7FF32463B4618F075
:10ECE00055F98DA3D3E9002317F09EFF32463B462A
:10ECF00018F04CF98AA3D3E9002317F095FF3246A8
:10ED00003B4618F043F988A3D3E9002317F08CFFA2
:10ED100042464B4618F03AF985A3D3E900238046D2
:10ED200089463046394618F031F983A3D3E90023E8
:10ED300017F078FF32463B4618F028F980A3D3E954
:10ED4000002317F06FFF32463B4618F01FF97EA3F1
:10ED5000D3E9002317F066FF32463B4618F016F958
:10ED60007BA3D3E9002317F05DFF32463B4618F042
:10ED70000DF9BBF1FF3F02460B466CD040464946B9
:10ED800017F052FF22462B4618F000F9794E7A4BC5
:10ED90004FEACB0B5E449B44DBE9002317F042FFB4
:10EDA00022462B4617F03EFF02460B46D6E90001ED
:10EDB00017F038FFBAF1000F43DBBDE8F88F0028E9
:10EDC0003FF456AF22462B462046294617F02CFF2B
:10EDD000BDE8F88F60A3D3E9002317F025FF0022D8
:10EDE000664B18F063FB00283FF454AF20462946D9
:10EDF000BDE8F88F18F042FE614B9E4204460D4676
:10EE000039DCA3F550239E425EDC02460B4617F028
:10EE10000BFF0022594B17F005FF002206460F4654
:10EE20004FF080432046294617F0FEFE02460B466F
:10EE30003046394618F0D4F94FF0000B04460D4621
:10EE40002AE701F100431946BDE8F88F44A1D1E952
:10EE50000001BDE8F88F4046494617F0E5FE22461E
:10EE60002B4618F093F802460B462046294617F029
:10EE7000D9FEBDE8F88F434B9E421ADC0022424B7C
:10EE800017F0D0FE002206460F463F4B204629468B
:10EE900018F07CF80022394B17F0C6FE02460B46EC
:10EEA0003046394618F09CF94FF0020B04460D46E7
:10EEB000F2E602460B460020344918F091F94FF073
:10EEC000030B04460D46E7E600222C4B17F0AAFE82
:10EED000002206460F46294B2046294617F0A4FE7D
:10EEE00002460B463046394618F07AF94FF0010BCE
:10EEF00004460D46D0E600BF182D4454FB21F93FCF
:10EF000011DA22E33AAD903FEB0D76244B7BA93F1B
:10EF1000513DD0A0660DB13F6E204CC5CD45B73FE9
:10EF2000FF8300922449C23F0D5555555555D53F95
:10EF30002F6C6A2C44B4A2BF9AFDDE522DDEAD3F89
:10EF40006D9A74AFF2B0B33F711623FEC671BC3F29
:10EF5000C4EB98999999C93F9C7500883CE4377E29
:10EF6000182D4454FB21F9BFFFFF0F440000F07F30
:10EF7000FFFFDB3FE0A6020800A702080000F03F09
:10EF8000FFFFF23FFF7F03400000F83F0000F0BFAB
:10EF90002DE9F843C1F30A59A9F2FF35132D0246B2
:10EFA0000B460C4606468846074622DC002D50DB01
:10EFB000DFF8F09049FA05F901EA090E5EEA060663
:10EFC0001CD036A3D3E9002317F02EFE0022002325
:10EFD00018F06CFA48B1002C04DD4FF4801343FAAA
:10EFE00005F5A84428EA0904002721463846BDE86B
:10EFF000F883332D06DDB5F5806F3DD010461946F8
:10F00000BDE8F883A9F213494FF0FF3E2EFA09F943
:10F0100010EA090FF2D021A3D3E9002317F004FE70
:10F020000022002318F042FA0028DED0002C09DD6F
:10F03000142D2BD00127C5F1340507FA05F5AE19BB
:10F0400028BFB844444626EA090721463846BDE8A9
:10F05000F88312A3D3E9002317F0E6FD0022002372
:10F0600018F024FA0028C0D0002C0BDB54EA060765
:10F0700006D00027084CB8E717F0D6FDBDE8F883A6
:10F080003C46B2E700274FF00044AEE704F1010828
:10F09000D8E700BFAFF300800000F03F9C75008808
:10F0A0003CE4377EFFFF0F002DE9F041C1F30A5722
:10F0B000A7F2FF35132D02460B460C46884606463E
:10F0C0001CDC002D3FDB3A4F2F41864601EA070C3E
:10F0D0005CEA0E0E17D034A3D3E9002317F0A4FD89
:10F0E0000022002318F0E2F920B1002C3FDB28EACF
:10F0F0000704002621463046BDE8F081332D06DDA9
:10F10000B5F5806F2FD010461946BDE8F081A7F203
:10F1100013474FF0FF3E2EFA07F73842F3D022A3F1
:10F12000D3E9002317F080FD0022002318F0BEF978
:10F130000028DFD0002C20DB444626EA07062146C3
:10F140003046BDE8F08118A3D3E9002317F06CFD29
:10F150000022002318F0AAF90028CBD0002C17DBDE
:10F1600000263446C6E717F05FFDBDE8F0814FF496
:10F17000801343FA05F5A844B9E7142D10D00123F4
:10F18000C5F1340503FA05F5AE1928BF9844D3E755
:10F1900024F00042074B324318BF1C460026A9E763
:10F1A00004F10108C8E700BF9C7500883CE4377E85
:10F1B000FFFF0F000000F0BF2DE9F04FD84B994240
:10F1C00087B0804689460E4613DCD64B21F00044BA
:10F1D0009C4218DD0022D44B18F040F9002879D069
:10F1E000002200230020D14917F0FAFF07B0BDE844
:10F1F000F08FCF4B99422FDD42464B4617F014FD5E
:10F2000007B0BDE8F08FCB4B9C4270DDCA4B1E446B
:10F210009E427ED80022C94B4046494617F004FD65
:10F220004FEA215AAAF2FF3ABAF1000F04460D46FE
:10F230000E4640F3DE8142464B4617F0F3FC024691
:10F240000B460020BD4917F0EDFC22462B4617F077
:10F25000C7FFCDE902010BE0B94B9E42DADD9FED1D
:10F260009A7B8DED027B4FEA265A4446AAF2FF3A7A
:10F27000B44BC6F313069E4246F07F5500F3E78079
:10F2800045F44015204629460022AC4B17F0CAFC35
:10F29000002204460D46AC4B17F078FE22462B4662
:10F2A00017F074FEA046CDE90401A946CDE900019E
:10F2B000002E3AD1002200232046294618F0CEF82D
:10F2C000002800F0CE80BAF1000F40F074810020D9
:10F2D000002195E742464B464046314617F0A2FCD6
:10F2E00002460B4617F07CFF07B0BDE8F08F002206
:10F2F000964B17F099FC0022002318F0D7F800284D
:10F3000000F0CC80924B9C4200F3C88040464946B6
:10F3100076E700228C4B17F039FE42464B4617F039
:10F3200035FECDE900014FF0000A00224FF0804386
:10F330004046494617F078FC02460B46404649468F
:10F3400017F04EFF02460B4606460F4617F01EFE0C
:10F350005FA3D3E9002304460D4617F017FE5EA312
:10F36000D3E9002317F060FC22462B4617F00EFE6F
:10F370005BA3D3E9002317F057FC22462B4617F076
:10F3800005FE59A3D3E9002317F04EFC22462B4675
:10F3900017F0FCFD56A3D3E9002317F045FC2246E5
:10F3A0002B4617F0F3FD54A3D3E9002317F03CFCE0
:10F3B00022462B4617F0EAFD51A3D3E9002317F0AC
:10F3C00033FC22462B4617F0E1FD04460D46BAF108
:10F3D000000F00F0BF80504617F072FD4AA3D3E93A
:10F3E000002382468B4617F0D1FDDDE90023CDE9ED
:10F3F00004012046294617F017FC32463B4617F019
:10F40000C5FD43A3D3E9002304460D4650465946A3
:10F4100017F0BCFDDDE9022317F006FC02460B469F
:10F420002046294617F000FC02460B46DDE90001A4
:10F4300017F0F8FB42464B4617F0F4FB02460B462A
:10F44000DDE9040117F0EEFB07B0BDE8F08F45F4ED
:10F450000015C6F5801620462946B6100AF1010AA5
:10F4600012E72DA3D3E900232046294617F08EFD8D
:10F4700002460B460020314917F0D4FBDDE9042396
:10F4800017F084FD06460F46BAF1000F73D102460D
:10F490000B462046294617F0C5FBB1E642464B46CF
:10F4A0004046494617F072FD0022274B17F06EFDCB
:10F4B00002460B464046494617F0B4FB07B0BDE88C
:10F4C000F08F00BFAFF300800000000000000000DC
:10F4D00044523EDF12F1C23F9FC678D0099AC33F23
:10F4E000DE03CB966446C73FAF788E1DC571CC3F17
:10F4F000599322942449D23F04FA97999999D93F74
:10F50000935555555555E53F0000E0FE422EE63F28
:10F51000763C7935EF39EA3D555555555555E53F1A
:10F520007982DA3FFFFFEF3F0000F0BF000050C3D9
:10F53000FFFFEF7FFFFF1F3E3C412D400000F03FEB
:10F54000FFFF3F439DA006000000E03F0000504346
:10F55000FFFF8F3CDDE9004522462B4617F064FB98
:10F5600032463B4617F012FD02460B46204629461E
:10F5700017F058FB9CE7504617F0A2FC23A3D3E9F1
:10F58000002382468B4617F001FD22A3D3E9002316
:10F59000804689465046594617F0F8FCDDE90223BB
:10F5A00017F042FB02460B463046394617F03AFB4D
:10F5B00022462B46DCE7504617F082FC15A3D3E920
:10F5C000002306460F4617F0E1FCDDE9022317F0A1
:10F5D0002BFB0EA3D3E9002304460D4630463946E3
:10F5E00017F0D4FC02460B462046294617F01CFBB8
:10F5F00006E60022044B17F015FB02460B46404678
:10F60000494617F00FFB20E60000F03F0000E0FE47
:10F61000422EE63F763C7935EF39EA3D00000000A6
:10F6200008B518F0B1FD04A3D3E9002317F0D8FD05
:10F6300008BD00BFAFF30080EF39FAFE422EE63F6F
:10F640002DE9F043DFF8B4808BB004460D4601F09D
:10F65000F3F898F90030013306460F462BD02246C6
:10F660002B462046294617F02BFF814618BB204623
:10F67000294618F003FA1FA3D3E9002317F016FF59
:10F68000C8B1194A98F90030CDF820900321CDE98E
:10F690000445CDE902458DE806008BB9134B4FF0C8
:10F6A0006042CDE90623684619F03AFF70B1089B25
:10F6B0009BB9DDE90667304639460BB0BDE8F083FB
:10F6C0000B490020022BCDE90601ECD11AF0A6F877
:10F6D00022230360089B002BEBD01AF09FF8089BB5
:10F6E0000360E6E7AFF300802CBC0208FFFFEF47A2
:10F6F0000000F07F7DF8B98FCE33864006040020ED
:10F700002DE9F043DFF8E4808BB004460D4601F0AC
:10F7100043F998F90030013306460F4633D02046AE
:10F72000294619F0F7FE70B32CA3D3E90023204635
:10F73000294617F0BBFE814650BB2AA3D3E900231C
:10F740002046294617F094FEE8B198F90030204A87
:10F75000CDF82090002600270421022BCDE9044596
:10F76000CDE90245CDE906678DE8060029D0684657
:10F7700019F0D6FE28B3089B1BB11AF04FF8089B6E
:10F780000360DDE90667304639460BB0BDE8F0831B
:10F790000F4A98F90030019203210022CDE9044577
:10F7A000CDE90245009108922BB90A4B4FF0604217
:10F7B000CDE90623DBE708490020022BCDE906014D
:10F7C000D5D11AF02BF822230360D4E7AFF30080E1
:10F7D00034BC0208FFFFEF470000F07FEF39FAFE6C
:10F7E000422E864051302DD5104987C00604002096
:10F7F0002DE9F04FDFF80C938DB006460F46144606
:10F800001D4601F0C5FC99F90080B8F1FF3FCDE934
:10F81000000136D022462B462046294617F050FEDE
:10F82000834670BB32463B463046394617F048FEA9
:10F830008246002840F0A28030463946002200234C
:10F8400017F00CFE10B3002200232046294617F0C3
:10F8500005FE834600286AD09FEDA17B0122A44BC0
:10F86000CDF828A00292CDE90467CDE906458DEDDB
:10F87000087B0393B8F1000F45D09FED9B7B8DED86
:10F88000007BDDE900010DB0BDE8F08FDDE900018E
:10F8900019F040FE8046002800F08D804FF0000AED
:10F8A0004FF0000BDDE9000152465B4617F0D6FD34
:10F8B0000028E6D03046394619F02CFE0028E0D06A
:10F8C0002046294619F026FE0028DAD099F90030A2
:10F8D000874A039204210022022BCDE90467CDE977
:10F8E0000645CDE908AB02910A9203D002A819F0AF
:10F8F00017FE68B919F092FF2223036008E09FED1C
:10F90000787B8DED087B02A819F00AFE002830D024
:10F910000A9B1BB119F082FF0A9B03609DED087BD7
:10F920008DED007BDDE900010DB0BDE8F08F2046D4
:10F93000294619F0EFFD0028A3D00022002320461D
:10F94000294617F095FD00289BD099F90030684AA8
:10F95000CDF828B00121CDE90467CDE90645029133
:10F960000392002BCBD063490020022BCDE9080184
:10F97000C9D119F053FF21230360C9E700220023F6
:10F980002046294617F06AFD00283FF47AAF5A4B0B
:10F990005749CDF828B000220120B8F1020FCDE977
:10F9A00004670290CDE90645CDE908230391AAD169
:10F9B000CDE9002365E73046394619F0ABFD002854
:10F9C0003FF46CAF2046294619F0A4FD00283FF40F
:10F9D00065AFDDE900231046194617F071FD0028D8
:10F9E0005FD1032399F900800293414B0A90CDE93E
:10F9F0000467CDE906450393B8F1000F2BD1DFF87A
:10FA000008B14FF0604A0022002330463946CDE964
:10FA100008AB17F02DFD00283FF468AF0022374BEC
:10FA20002046294617F0B2FA04460D4619F080FD2B
:10FA300002460B462046294617F010FD70BB304B9E
:10FA400099F900804FF06042CDE90823B8F1020F28
:10FA50007FF44CAF4EE7DFF8B4B04FF0000A00225D
:10FA6000002330463946CDE908AB17F001FD0028E8
:10FA7000ECD00022214B2046294617F087FA044695
:10FA80000D4619F055FD02460B462046294617F053
:10FA9000E5FC18B9174B0022CDE9082399F900803D
:10FAA000D4E799F90090124BCDF828800122CDE9D6
:10FAB0000467CDE9064502920393B9F1000F3FF4C4
:10FAC0001EAF002200231046194617F089FBB9F13A
:10FAD000020FCDE908013FF44CAF14E7AFF300800B
:10FAE0000000000000000000000000000000F03FE7
:10FAF0004CBC02080000F0FF0000F03F0000E03FB7
:10FB0000FFFFEFC706040020FFFFEF470000F07F74
:10FB10002DE9F84FC44E21F00043B34204460D4690
:10FB20000DDD03F1404303F58013034340F0B9803A
:10FB3000002940F3408100200021BDE8F88FBB4E32
:10FB4000B34240F3A6800029C0F2788102460B46FA
:10FB50000020B74917F066F80022B64B17F016FAE6
:10FB600004460D4618F04EFE95A3D3E900238946BE
:10FB700080462946204617F009FA93A3D3E90023CB
:10FB800017F052F822462B4617F000FA90A3D3E95B
:10FB9000002317F047F822462B4617F0F7F98EA3FB
:10FBA000D3E9002317F040F822462B4617F0EEF970
:10FBB0008BA3D3E9002317F035F822462B4617F024
:10FBC000E5F989A3D3E9002317F02EF822462B4646
:10FBD00017F0DCF986A3D3E9002382468B46204642
:10FBE000294617F0D3F984A3D3E9002317F01AF8B4
:10FBF00022462B4617F0CAF981A3D3E9002317F058
:10FC000013F822462B4617F0C1F97FA3D3E900234E
:10FC100017F008F822462B4617F0B8F90022844B5B
:10FC200017F002F802460B465046594617F0D8FA2C
:10FC300042464B4617F0AAF9002682468B463246CA
:10FC40004B463046494617F0A1F902460B4620467E
:10FC5000294616F0E7FF324604460D464B4640461D
:10FC6000494616F0E1FF02460B462046294617F0AA
:10FC7000B7FA02460B465046594616F0D5FF3246B3
:10FC80004B4616F0D1FF02460B4616F0CDFFBDE8FD
:10FC9000F88F694A93420EDC5DA1D1E90001BDE80D
:10FCA000F88F02460B4616F0BDFF02460B4617F0D2
:10FCB00097FABDE8F88F02460B4617F067F940A3A4
:10FCC000D3E9002306460F4617F060F93EA3D3E9B7
:10FCD000002316F0A9FF32463B4617F057F93CA324
:10FCE000D3E9002316F09EFF32463B4617F04EF94B
:10FCF00039A3D3E9002316F097FF32463B4617F0AD
:10FD000045F937A3D3E9002316F08CFF32463B4672
:10FD100017F03CF934A3D3E9002316F085FF3246EF
:10FD20003B4617F033F932A3D3E9002380468946D6
:10FD30003046394617F02AF92FA3D3E9002316F0ED
:10FD400071FF32463B4617F021F92DA3D3E900237A
:10FD500016F06AFF32463B4617F018F92AA3D3E99A
:10FD6000002316F05FFF32463B4617F00FF90022E2
:10FD70002F4B16F059FF02460B464046494617F0F6
:10FD80002FFA22462B4617F001F902460B4622A114
:10FD9000D1E9000116F046FF02460B4620462946EF
:10FDA00016F040FF02460B4619A1D1E9000116F0FA
:10FDB00039FFBDE8F88F1AA1D1E90001BDE8F88F3D
:10FDC00009F7FD0DE13D023F88B20175E0EF493FC3
:10FDD0003B8F68B52882A43F5544880E55C1C93F62
:10FDE0007D6FEB0312D6D43F555555555555C53F3C
:10FDF00082922EB1C5B8B33F59018D1B6C06E63F08
:10FE0000C88A599CE52A00404B2D8A1C273A03409A
:10FE1000182D4454FB21F93F075C143326A6913C6E
:10FE2000182D4454FB210940FFFFEF3FFFFFDF3F48
:10FE30000000F03F0000E03F0000603C00225C4B0F
:10FE400016F0F2FE00225B4B17F0A0F840A3D3E9B6
:10FE5000002304460D4617F099F83FA3D3E9002389
:10FE600016F0E2FE22462B4617F090F83CA3D3E9A9
:10FE7000002316F0D7FE22462B4617F087F83AA348
:10FE8000D3E9002316F0D0FE22462B4617F07EF869
:10FE900037A3D3E9002316F0C5FE22462B4617F000
:10FEA00075F835A3D3E9002316F0BEFE22462B4693
:10FEB00017F06CF8804689462046294618F0A2FCC7
:10FEC0002FA3D3E9002306460F462046294617F004
:10FED0005DF82DA3D3E9002316F0A4FE22462B469D
:10FEE00017F054F82AA3D3E9002316F09DFE22460A
:10FEF0002B4617F04BF828A3D3E9002316F092FE07
:10FF000022462B4617F042F80022294B16F08CFEB1
:10FF100002460B464046494617F062F932463B46D8
:10FF200017F034F81EA3D3E9002316F07BFE324607
:10FF30003B4616F079FE02460B4616F075FE024669
:10FF40000B4619A1D1E9000116F06CFEBDE8F88F4F
:10FF500009F7FD0DE13D023F88B20175E0EF493F31
:10FF60003B8F68B52882A43F5544880E55C1C93FD0
:10FF70007D6FEB0312D6D43F555555555555C53FAA
:10FF800082922EB1C5B8B33F59018D1B6C06E63F76
:10FF9000C88A599CE52A00404B2D8A1C273A034009
:10FFA000075C143326A6913C182D4454FB210940CC
:10FFB0000000F03F0000E03F434A91422DE9F84342
:10FFC00004460D4639DD414A914209DD02F179527C
:10FFD000914240DD02460B4616F026FEBDE8F8834E
:10FFE00001F1404202F58012024330D0B1F1804F5E
:10FFF0003ADC0022364B16F015FE02460B4604464C
:020000040801F1
:100000000D4616F011FE224606460F462B462046A8
:10001000294616F0BBFF02460B463046394616F01D
:1000200003FE18F0EFFB0B4602462946204616F069
:10003000FBFDBDE8F843FFF7BFB802460B4616F0DC
:10004000F1FD02460B4617F0CBF8BDE8F88300201F
:100050000021BDE8F88300F017FE19A3D3E90023BF
:1000600016F0E2FDBDE8F88302460B4616F08EFF5F
:100070000022174B16F0D6FD18F0C4FB224680462E
:1000800089462B462046294616F0CEFD42460646B6
:100090000F464B462046294616F0C6FD02460B4643
:1000A00000200B4917F09CF80B46024639463046B3
:1000B00016F0B8FDBDE8F84300F0E6BDAFF30080F0
:1000C000EF39FAFE422EE63FFFFFEF3FFFFFAF4161
:1000D0000000F03F000000002DE9F047BE4B21F08A
:1000E0000048984584B004460D4612DD08F14048AA
:1000F00008F58018034658EA030321D002460B4650
:1001000016F090FD02460B4617F06AF804B0BDE801
:10011000F087B24B98458A4629DCB8F1795F80F2C6
:10012000658191A3D3E9002316F07EFD0022AC4B3C
:1001300017F0BCF9D8B12046294604B0BDE8F087D5
:100140008BA3D3E9002316F021FF8BA3D3E900236F
:1001500006460F462046294616F018FF02460B4673
:100160003046394616F060FD04B0BDE8F087204601
:10017000294617F083FC02460B460020984916F0EA
:1001800051FD0022974B16F001FF7DA3D3E9002318
:1001900004460D4616F0FAFE7BA3D3E9002316F0C1
:1001A00043FD22462B4616F0F1FE79A3D3E9002346
:1001B00016F038FD22462B4616F0E8FE76A3D3E96A
:1001C000002316F031FD22462B4616F0DFFE74A305
:1001D000D3E9002316F026FD22462B4616F0D6FE64
:1001E00071A3D3E9002316F01FFD22462B4616F01B
:1001F000CDFE6FA3D3E90023CDE9000120462946B7
:1002000016F0C4FE6CA3D3E9002316F00BFD2246C2
:100210002B4616F0BBFE6AA3D3E9002316F004FDBB
:1002200022462B4616F0B2FE67A3D3E9002316F050
:10023000F9FC22462B4616F0A9FE694B002216F067
:10024000F3FCCDE902012046294618F0DBFA664BA3
:10025000984506460F4666DCDDE90223DDE900012C
:1002600016F0BEFF3246CDE900013B463046394626
:1002700016F0DAFC02460B46DDE9000116F086FEB8
:100280004FF00008CDE9000142463B464046394662
:1002900016F07CFE02460B462046294616F0C2FCAC
:1002A000424604460D463B463046394616F0BCFCF5
:1002B00002460B462046294616F092FF02460B46A0
:1002C00016F0B2FC02460B462BA1D1E9000116F054
:1002D000A9FC02460B46DDE9000116F0A3FC4246EC
:1002E00004460D463B464046394616F09DFC024604
:1002F0000B4637A1D1E9000116F094FC02460B46EB
:100300002046294616F08EFC02460B4630A1D1E964
:10031000000116F087FCBAF1000F3FF7F7AE01F1CC
:1003200000431946F2E6DDE90223DDE9000116F09B
:1003300057FF32463B4616F029FE32463B4616F042
:1003400073FC02460B4616F06FFC0BA3D3E90023A7
:1003500016F068FC02460B4605A1D1E9000116F033
:1003600061FCD8E7AFF300809C7500883CE4377EE1
:10037000182D4454FB21F93F075C143326A6913C09
:1003800009F7FD0DE13D023F88B20175E0EF493FFD
:100390003B8F68B52882A43F5544880E55C1C93F9C
:1003A0007D6FEB0312D6D43F555555555555C53F76
:1003B00082922EB1C5B8B33F59018D1B6C06E63F42
:1003C000C88A599CE52A00404B2D8A1C273A0340D5
:1003D000182D4454FB21E93FFFFFEF3FFFFFDF3FB4
:1003E0000000F03F0000E03F3233EF3F02460B4693
:1003F00016F0CCFD37A3D3E9002306460F4616F0CE
:10040000C5FD36A3D3E9002316F00EFC32463B4669
:1004100016F0BCFD33A3D3E9002316F003FC3246EB
:100420003B4616F0B3FD31A3D3E9002316F0FCFBE5
:1004300032463B4616F0AAFD2EA3D3E9002316F060
:10044000F1FB32463B4616F0A1FD2CA3D3E9002375
:1004500016F0EAFB32463B4616F098FD29A3D3E995
:100460000023804689463046394616F08FFD27A383
:10047000D3E9002316F0D6FB32463B4616F086FD44
:1004800024A3D3E9002316F0CFFB32463B4616F0F7
:100490007DFD22A3D3E9002316F0C4FB32463B4680
:1004A00016F074FD00220A4B16F0BEFB02460B4606
:1004B0004046494616F094FE22462B4616F066FD4D
:1004C00022462B4616F0B0FB04B0BDE8F08700BF13
:1004D0000000F03F09F7FD0DE13D023F88B20175D4
:1004E000E0EF493F3B8F68B52882A43F5544880E12
:1004F00055C1C93F7D6FEB0312D6D43F55555555B5
:100500005555C53F82922EB1C5B8B33F59018D1BD9
:100510006C06E63FC88A599CE52A00404B2D8A1C90
:10052000273A0340000000002DE9F84F1D465342D2
:10053000134325F0004ADFF8E0E14AEAD37373453C
:10054000144606460F4647D8C0F1000848EA00089E
:1005500021F0004343EAD878F0458B463CD805F1BA
:10056000404808F5801858EA020850D04FEAA578AC
:1005700008F0020848EAD17850EA030134D052EA80
:100580000A023CD0F24557D0734538D0A3EB0A039A
:100590001B153C2B42DC002D70DB22462B463046DF
:1005A000394616F01DFE17F069FAFEF751FBB8F157
:1005B000010F5FD0B8F1020F4ED0B8F1000F62D03A
:1005C00043A3D3E9002316F02DFB43A3D3E9002373
:1005D00016F028FBBDE8F88F32463B4620462946F8
:1005E00016F022FBBDE8F88FB8F1020F1AD0B8F16F
:1005F000030F10D13AA1D1E90001BDE8F88FBBF19A
:10060000000F14DB38A1D1E90001BDE8F88FBDE887
:10061000F84FFEF71DBB3946BDE8F88F32A1D1E98E
:100620000001C4E72CA1D1E90001BDE8F88F30A199
:10063000D1E90001BDE8F88F534526D0B8F1020F8B
:10064000F0D0B8F1030FD5D0B8F1010F4FF0000092
:1006500029D00021BDE8F88F1DA3D3E9002316F0AF
:10066000E1FA02460B461CA1D1E9000116F0DAFAC4
:10067000BDE8F88F01F10041BDE8F88F3C338CDA1A
:100680000020002193E7BDE8F88FB8F1020F18D0E1
:10069000B8F1030F10D0B8F1010F08D016A1D1E9BD
:1006A0000001BDE8F88F4FF00041BDE8F88F14A1BC
:1006B000D1E90001BDE8F88F13A1D1E90001BDE83F
:1006C000F88F13A1D1E90001BDE8F88FAFF30080E6
:1006D000075C143326A6A13C182D4454FB21094085
:1006E000182D4454FB2109C0182D4454FB21F93F17
:1006F000182D4454FB21F9BF182D4454FB21E93F28
:10070000182D4454FB21E9BFD221337F7CD902C08C
:10071000D221337F7CD902400000F07F000000002E
:1007200043422DE9F047034321F000463E4A46EAA2
:10073000D373934204460D4613D896423DD03B4BAB
:100740009E428A4617DC36A3D3E9002316F06CFAE2
:100750000022002316F0AAFEA8B320462946BDE8D1
:10076000F08702460B4616F05DFA02460B4616F07D
:1007700037FDBDE8F0872E4B9E42354624DD3346DB
:100780000246314616F050FA224606460F462B46E0
:100790000020254916F046FA02460B4630463946F7
:1007A00016F01EFDFEF708FD0022224B16F0EEFBB0
:1007B000BAF1000F2FDBBDE8F0870022002316F00E
:1007C0000FFDBDE8F087354622462B4620462946D8
:1007D00016F02AFA22462B4606460F4616F0D6FB9E
:1007E0002246804689462B4600200F4916F01AFA09
:1007F00002460B464046494616F0F2FC32463B465E
:1008000016F012FAFEF7D8FC00220A4B16F0BEFBD7
:10081000BAF1000FCFDA01F100431946BDE8F087C5
:100820009C7500883CE4377E0000F03FFFFF2F3EC0
:10083000FFFFDF3F0000E03F2DE9F8434E4B21F082
:1008400000449C4206460F461BDC4C4B9C4222DD7A
:100850004B4B9C4263DD4B4B9C427BDD4A4B9C42A5
:1008600046DD01339C4240D041A3D3E9002310462A
:10087000194616F08BFB06460F4630463946BDE852
:10088000F88302460B4616F081FB06460F463046BB
:100890003946BDE8F88317F0F1F802F0B1FC002208
:1008A0003A4B8046894616F0BFF9B4F1725F0646AE
:1008B0000F46ECDB42464B464046494616F066FB87
:1008C00032463B4604460D463046394616F0ACF9F2
:1008D00002460B462046294616F082FC00222B4B8E
:1008E00016F0A2F906460F46D1E7294B9842BBD82D
:1008F0003046394617F0C2F80022264B16F046FB68
:1009000000F04AF8002204460D46224B16F03EFB4A
:1009100022462B4616F03AFB06460F46B7E717F07D
:10092000ADF800F039F800221A4B06460F4616F0D3
:100930002DFB32463B4604460D460020154916F075
:100940004FFC02460B462046294616F06DF9064636
:100950000F469CE717F092F800F01EF800220D4BAE
:1009600016F014FB06460F4691E700BFAFF3008078
:100970009C7500883CE4377EFFFFEF7F422ED63F18
:10098000FFFF3540412E8640CD3386400000F03FCA
:100990007DF8B98F0000E03F2DE9F04FB04E21F017
:1009A0000042B24283B004460D464FEAD1770DD9DA
:1009B000AC4EB24225D9C1F31303034340F0EC809F
:1009C0000FB10020002103B0BDE8F08FA64B9A4282
:1009D00000F2CB80A54B9A4200F2DC808AA3D3E9D7
:1009E000002316F021F90022A14B16F05FFD00282C
:1009F00000F006812046294600229D4B16F014F98E
:100A0000E1E783A3D3E9002316F050FD002840F06E
:100A1000C88081A3D3E900232046294616F028FD8B
:100A20000028CED1934E7EA3D3E9002306EBC70660
:100A30002046294616F0AAFAD6E9002316F0F4F863
:100A400016F054FD064616F03BFA77A3D3E90023CF
:100A50008046894616F09AFA02460B4620462946F9
:100A600016F0E0F872A3D3E90023CDE90001404677
:100A7000494616F08BFA82468B4652465B46DDE9C4
:100A8000000116F0CFF804460D4622462B462046BC
:100A9000294616F07BFA68A3D3E9002380468946ED
:100AA00016F074FA66A3D3E9002316F0BBF84246A9
:100AB0004B4616F06BFA64A3D3E9002316F0B4F8A2
:100AC00042464B4616F062FA61A3D3E9002316F0C2
:100AD000A9F842464B4616F059FA5FA3D3E9002322
:100AE00016F0A2F842464B4616F050FA02460B4664
:100AF0002046294616F096F880468946002E58D0A2
:100B00002046294642464B4616F040FA42460446E5
:100B10000D464B4600204FF0804116F083F8024608
:100B20000B462046294616F05BFB02460B46504614
:100B3000594616F077F8DDE9002316F073F80B46F6
:100B400002464B49002016F06DF86FF47F739E4209
:100B500051DA06F57A7601EB065100224FF0B873B0
:100B600016F014FA03B0BDE8F08F434B9A423FF6FB
:100B700059AF424BFC002344D3E9002316F052F84E
:100B80003F4BC7F101062344CDE90001D3E900AB97
:100B9000F61B72E7002678E702460B4616F044F88B
:100BA00011E719A3D3E900231046194616F0EEF910
:100BB00009E702460B462046294616F0E7F90022CF
:100BC00006460F464FF080434046494616F02AF845
:100BD00002460B463046394616F002FB22462B46AB
:100BE00016F020F802460B460020214916F01AF8AC
:100BF00003B0BDE8F08F01EB065103B0BDE8F08F04
:100C0000064642E7AFF300809C7500883CE4377EDF
:100C1000EF39FAFE422E864051302DD5104987C05B
:100C2000FE822B654715F73F0000E0FE422EE63FAF
:100C3000763C7935EF39EA3DD0A4BE726937663E1D
:100C4000F16BD2C541BDBB3E2CDE25AF6A56113FCC
:100C500093BDBE166CC1663F3E5555555555C53FB3
:100C6000412E8640FFFFEF7F422ED63FFFFF2F3EF3
:100C70000000F03F20A70208B1A2F03F30A7020811
:100C800040A70208000000002DE9F04FB1F5801FD9
:100C900085B006460F460B465ADA024621F000445C
:100CA000224300F0F8800029C0F27A810022D64B5E
:100CB00016F06CF9D54A0B46934206460F466FF084
:100CC000350C4ADCC3F3130505F5152E0EF6647ECC
:100CD0000EF4801E8EF07F5282F440121C1542EA00
:100CE0000507A4F2FF3464440022C94B304639465C
:100CF00004EB1E5415F096FFAB1CC3F31303022B39
:100D000082468B464FF0000230DC002316F0A6FB33
:100D1000002800F0C980002C00F04B81204616F01E
:100D2000CFF8A5A3D3E9002306460F4616F02EF907
:100D3000A3A3D3E9002304460D463046394616F0F6
:100D400025F902460B462046294615F06DFF0AE0BC
:100D5000AE4A93424FF0000CB4DD32463B4630467B
:100D6000394615F061FF05B0BDE8F08F4FF08043C4
:100D700015F05AFF02460B465046594616F030FA17
:100D8000064620460F4616F09BF83246CDE9000194
:100D90003B4630463946CDE9026716F0F7F8024681
:100DA0000B468046894616F0F1F887A3D3E9002365
:100DB00006460F4616F0EAF885A3D3E9002315F09E
:100DC00033FF32463B4616F0E1F883A3D3E9002314
:100DD00015F02AFF32463B4616F0D8F880A3D3E937
:100DE000002315F021FF42464B4616F0CFF87EA3B4
:100DF000D3E90023804689463046394616F0C6F8C6
:100E00007BA3D3E9002315F00FFF32463B4616F0D3
:100E1000BDF879A3D3E9002315F006FF32463B461F
:100E200016F0B4F80B4602464946404615F0FCFE63
:100E3000A5F5C223C5F5D725A3F27A4351351D4345
:100E4000002D8046894656DD0022724B5046594699
:100E500016F09CF852465B4616F098F806460F4688
:100E6000002C68D132463B464046494615F0DCFE30
:100E7000DDE9022316F08AF802460B463046394671
:100E800015F0D0FE02460B465046594615F0CAFEF4
:100E900005B0BDE8F08F0022002300205E4916F067
:100EA0009FF905B0BDE8F08F55A3D3E90023504664
:100EB000594616F06BF802460B460020554915F0CE
:100EC000B1FE524606460F465B465046594616F05E
:100ED0005DF802460B463046394616F057F806468E
:100EE0000F46002C40F09A8002460B465046594669
:100EF00015F098FE37E7002C00F0A4802EA3D3E96C
:100F00000023DDE9000116F041F842464B46044655
:100F10000D465046594615F085FEDDE9022316F0D0
:100F200035F827A3D3E9002306460F46DDE9000183
:100F300016F02CF821E020A3D3E90023DDE900011D
:100F400016F024F832463B4604460D4640464946D4
:100F500015F06AFEDDE9022316F018F818A3D3E9AC
:100F6000002380468946DDE9000116F00FF80246AD
:100F70000B464046494615F057FE02460B463046A2
:100F8000394615F04FFE52465B4615F04BFE0246C1
:100F90000B462046294615F045FE05B0BDE8F08F0A
:100FA00002460B4615F03EFE0022002316F018F90B
:100FB000D9E600200021D6E60000E0FE422EE63F02
:100FC000763C7935EF39EA3D44523EDF12F1C23FBB
:100FD000DE03CB966446C73F599322942449D23FFF
:100FE000935555555555E53F9FC678D0099AC33F4F
:100FF000AF788E1DC571CC3F04FA97999999D93F66
:10100000555555555555D53F00005043FFFFEF7FCF
:101010000000F03F0000E03F000050C3204615F004
:101020004FFF0FA3D3E900238046894615F0AEFF9A
:101030000DA3D3E9002304460D464046494615F06A
:10104000A5FF9AE702460B465046594615F0EAFDC1
:10105000DDE9022315F09AFF14E700BFAFF300802B
:101060000000E0FE422EE63F763C7935EF39EA3D5E
:10107000B1F5801F2DE9F84304460D460B461ADAF8
:10108000024621F00046324359D000295FDB00229E
:101090003B4B15F07BFF3B4A0D462B4693420446E3
:1010A0006FF035010CDD22462B462046294615F00F
:1010B000BBFDBDE8F883334A93424FF00001F2DCF8
:1010C0001815A0F2FF3008444FEAD0794844C3F322
:1010D000130815F0F5FEC9F57F73033348EA03558D
:1010E00006460F4620462946FFF7CEFD1EA3D3E94C
:1010F0000023804689463046394615F047FF1CA339
:10110000D3E9002304460D464046494615F03EFF0C
:1011100002460B462046294615F086FD16A3D3E964
:10112000002304460D463046394615F02FFF02468F
:101130000B462046294615F077FDBDE8F8830022CE
:1011400000230020104916F04BF8BDE8F883024652
:101150000B4615F067FD0022002316F041F8BDE8AC
:10116000F88300BFAFF30080362BF111F3FE593D39
:101170000EE526157BCBDB3F00609F501344D33F29
:1011800000005043FFFFEF7F000050C3000000004D
:101190002DE9F04F23F0004757EA020493B037D00F
:1011A000674C21F00046A64283460D4629DC9A464C
:1011B000964625D0A74224DC614CA74279D0002D69
:1011C00080468946CDE9002377DB0024BEF1000F7D
:1011D0002CD15B4B9F4200F08B805A4B9F4261D0D9
:1011E000BAF1804F00F0C383574B9A451ED1002DB2
:1011F0001CDB4046494613B0BDE8F04F17F002BB78
:1012000058B106F1404606F5801656EA0B0306D1A2
:101210004C49002013B0BDE8F08FB742CCDD4B48FD
:1012200013B0BDE8F04F18F07DB9002440464946A0
:1012300016F024FCBBF1000F19D126B1414B25F06B
:1012400040429A4213D1BAF1000FC0F2CA83002D76
:10125000E0DA06F1404606F5801656EA040300F08F
:10126000A584012CD6D101F100431946D2E7ED0F38
:10127000013D54EA05034ED0354B9F426EDD03F12C
:1012800004739F4240F3FE83324B9E424EDDBAF11F
:10129000000F4EDD28A3D3E900231046194615F0B0
:1012A00075FEB7E7BAF1000FC0F2528440464946D6
:1012B000B0E7BEF1000F82D0A3E7274B9F4228DCA6
:1012C000A3F154739F4280DD3B15A3F2FF33142B2F
:1012D00040F35484C3F134032EFA03F202FA03F309
:1012E0009E457FF472AF02F00102C2F102046DE785
:1012F00006F1404303F5801353EA0B0388D0154BE6
:101300009E4240F33B83BAF1000F12DBDDE900019E
:1013100080E702245AE742464B461046194615F02C
:1013200081FC02460B4615F05BFF73E7BAF1000F34
:10133000B0DB002000216DE79C7500883CE4377E1F
:101340000000F07F0000F03F0000E03F90BA02088C
:101350000000E041FFFFEF3FFFFF3F43B6F5801F76
:101360004FF0000205DAD84B15F010FE6FF0340292
:101370000E463315D54FC6F31306A3F2FF331344BD
:1013800046F07F5ABE421A460D934AF4401A40F383
:101390002F83CF4B9E4240F30D849FEDB57B8DEDA7
:1013A000087B8DED0E7B9FEDB47B13468DED067BA8
:1013B00001330D93AAF5801A0027DDE90623514673
:1013C000CDE90A0115F02EFCDDE9062380468946A9
:1013D000DDE90A0115F028FC02460B460020BD4954
:1013E00015F0FEFE0A460146CDE9101213464946A5
:1013F0000246404615F0CAFD4FEA6A0343F0005327
:101400008C46834603F50023CDE904BCDA468B46BF
:10141000D9190023CDE902AB0293DDE902AB00202C
:1014200006460F4602460B465046594615F0AEFD9D
:1014300002460B464046494615F0F4FBDDE906231B
:10144000804689463046394615F0ECFB02460B468D
:10145000DDE90A0115F0E6FB52465B4615F096FD04
:1014600002460B464046494615F0DCFBDDE91023F9
:1014700015F08CFDDDE90467CDE9060132463B46F7
:101480003046394615F082FD7DA3D3E90023064698
:101490000F4615F07BFD7CA3D3E9002315F0C4FBB8
:1014A00032463B4615F072FD79A3D3E9002315F0CF
:1014B000BBFB32463B4615F069FD77A3D3E9002319
:1014C00015F0B2FB32463B4615F060FD74A3D3E93C
:1014D000002315F0A9FB32463B4615F057FD72A3D9
:1014E000D3E9002315F0A0FB3246804689463B46EF
:1014F0003046394615F04AFD02460B4640464946FD
:1015000015F044FD524606460F465B46DDE90401F0
:1015100015F08AFBDDE9062315F038FD32463B461F
:1015200015F082FB5246804689465B465046594636
:1015300015F02CFD0022684BCDE90A0115F074FB73
:1015400042464B4615F070FB02980F46064632465F
:101550003B465046594615F019FD002282468B46FF
:101560005D4B3046394615F05DFBDDE90A2315F089
:1015700059FB02460B464046494615F053FBDDE950
:10158000042315F003FD3246804689463B46DDE9DB
:10159000060115F0FBFC02460B464046494615F095
:1015A00043FB8046894602460B4650465946CDE9E4
:1015B00004AB15F039FBDDE902AB3DA3D3E9002311
:1015C00050460F4615F0E2FCDDE90423CDE90201A7
:1015D0003946504615F026FB02460B464046494622
:1015E00015F020FB34A3D3E9002315F0CFFC34A37E
:1015F000D3E90023804689465046394615F0C6FC9B
:1016000002460B464046494615F00EFBDDE90E2327
:1016100015F00AFB80460D98894615F051FC4246AC
:1016200006460F464B46DDE9020115F0FDFADDE9FD
:10163000082315F0F9FA32463B4615F0F5FA324622
:101640003B4650468B4615F0EDFADDE9082315F0D0
:10165000E9FADDE9022315F0E5FA02460B464046B9
:10166000494615F0DFFA8046894637E0AFF300803F
:101670000000000000000000000000000000F03F3B
:10168000EF4E454A287ECA3F65DBC9934A86CD3F67
:1016900001411DA96074D13F4D268F515555D53F4D
:1016A000FFAB6FDBB66DDB3F033333333333E33FE5
:1016B000000000E009C7EE3FFD033ADC09C7EE3F3A
:1016C000F5015B14E02F3EBE000040438E980300FE
:1016D00079B60B000000F03F00000840013C54EADE
:1016E000050300F079819FEDC87B8DED047BDDE97A
:1016F00000120B461446CDE9023400230293DDE9C3
:10170000024508462B461146224615F08BFA5246F2
:101710005B4615F03BFCDDE9002306460F464046DC
:10172000494615F033FC02460B463046394615F063
:101730007BFA2246804689462B4650465946CDE9DB
:10174000008915F023FC0B46024606460F4640462C
:10175000494615F069FAC64B994204460D468A4639
:1017600040F3168101F13F4303F5E003034340F0EA
:10177000F781A7A3D3E90023DDE9000115F054FAAE
:101780003246804689463B462046294615F04AFAAD
:1017900002460B464046494615F088FE002840F0B8
:1017A000DF81A8464FEA28534FF48012A3F2FE339C
:1017B00042FA03F35344C3F30A52AE4DA2F2FF328E
:1017C0001541C3F3130423EA05010020C2F1140BF1
:1017D00044F48014BAF1000F02460B4644FA0BFBA6
:1017E00030463946B8BFCBF1000B15F01BFA024664
:1017F0000B4606460F46DDE9000115F015FA4FEAE3
:101800000B5A0D46002484A3D3E900232046294621
:1018100015F0BCFB3246804689463B4620462946A9
:1018200015F000FA02460B46DDE9000115F0FAF961
:101830007BA3D3E9002315F0A9FB7BA3D3E9002305
:1018400006460F462046294615F0A0FB02460B46E9
:101850003046394615F0E8F906460F4602460B4673
:101860004046494615F0E0F942464B4604460D46CF
:1018700015F0D8F902460B463046394615F0D2F934
:101880002246804689462B462046294615F07EFB97
:1018900067A3D3E9002306460F4615F077FB66A33E
:1018A000D3E9002315F0BEF932463B4615F06EFB36
:1018B00063A3D3E9002315F0B7F932463B4615F090
:1018C00065FB61A3D3E9002315F0ACF932463B4632
:1018D00015F05CFB5EA3D3E9002315F0A5F93246B1
:1018E0003B4615F053FB02460B462046294615F0B1
:1018F00099F906460F4602460B462046294615F042
:1019000045FB0022CDE900014FF0804330463946C7
:1019100015F088F902460B46DDE9000115F060FC80
:10192000424606460F464B462046294615F02EFBFA
:1019300042464B4615F078F902460B46304639468A
:1019400015F070F922462B4615F06CF902460B464D
:101950000020494915F066F98A44BAF5801FC0F2A3
:1019600039815146DDE9042315F010FB52E442466B
:101970004B464046494615F009FB4BE4BAF1000FCF
:10198000BFF6D7ACDDE90034184604F1004141E46C
:101990003A4B21F00048984540F3FF80384B0B4408
:1019A00003430CD132463B4615F03CF902460B4648
:1019B000DDE9000115F066FD00283FF4F3AEDDE936
:1019C000040125A3D3E9002315F0E0FA22A3D3E90B
:1019D000002315F0DBFA1DE49FED217B8DED047BE8
:1019E00085E602460B460020234915F0F9FB2EE45C
:1019F0009FED1D7B8DED087B8DED0E7B9FED027BBA
:101A000000278DED067BD8E4000000000000F03FC9
:101A1000FE822B654715973C00000000432EE63FF1
:101A2000EF39FAFE422EE63F396CA80C615C20BE0D
:101A3000D0A4BE726937663EF16BD2C541BDBB3ED4
:101A40002CDE25AF6A56113F93BDBE166CC1663FB2
:101A50003E5555555555C53F59F3F8C21F6EA50162
:101A6000000000000000F0BF0000000000000000C7
:101A7000FFFF8F40FFFF0F000000F03FFFCB9040C3
:101A800000346F3F684B9E427FF750AC674B9E42DD
:101A90003FF7FDAB0022654B15F0C4F852A3D3E924
:101AA000002306460F4615F071FA51A3D3E900232F
:101AB000804689463046394615F068FA002282464B
:101AC0008B465B4B3046394615F060FA02460B46B2
:101AD00049A1D1E9000115F0A5F832463B4615F0C1
:101AE00055FA02460B460020524915F09BF8324643
:101AF000CDE902013B463046394615F047FA024629
:101B00000B46DDE9020115F041FA3DA3D3E90023BC
:101B100015F03CFA02460B465046594615F082F83D
:101B200002460B4606460F464046494615F07CF8ED
:101B300042464B46002082468B4615F073F802461B
:101B40000B463046394615F06DF880468946C5E5A6
:101B500042464B460020354915F042FBFFF75ABB81
:101B6000DDE9040128A3D3E9002315F00FFA26A329
:101B7000D3E9002315F00AFAFFF74CBBBEF1000FC2
:101B80007FF453ABC3F1140347FA03F202FA03F3F1
:101B90009F4223D07446FFF720BB264B98453FF762
:101BA00001AEDDE90223924693462BE602460B4640
:101BB000FFF7B3BB9FED167B8DED087B9FED167B8A
:101BC0008DED0E7B9FED167B4FF480278DED067B10
:101BD000FFF7F3BB5A4601F04FFDC3E602F00102E6
:101BE000C2F10204FFF7F9BA000000604715F73FA1
:101BF00044DF5DF80BAE543E555555555555D53F10
:101C0000FE822B654715F73F9C7500883CE4377EC4
:101C10000000004003B8E23F06D0CF43EBFD4C3E4E
:101C2000000000000000F83FFEFFEF3F0000F03F23
:101C30000000D03F0000E03F2DE9F0479C4B21F031
:101C400000479F4290B08046894640F38E80994B72
:101C50009F420C46924626DC00298BA3D3E9002341
:101C600040F3B08114F0DEFF934B9F4204460D46D3
:101C700000F0908086A3D3E9002314F0D3FF02463E
:101C80000B46CAE900232046294614F0CBFF80A367
:101C9000D3E9002314F0C6FF0125CAE90201284652
:101CA00010B0BDE8F087854B9F4240F39080844B95
:101CB0009F4265DC3D15A5F21645A7EB0553194675
:101CC0001F46064615F012FC15F0FAF880468946C4
:101CD00042464B4630463946CDE90A8914F0A2FF08
:101CE0000022784B15F052F98946804615F0FEFB2C
:101CF00015F0E6F806460F4632463B464046494652
:101D0000CDE90C6714F08EFF00226E4B15F03EF902
:101D100000220023CDE90E0115F0A0FB002800F001
:101D20006F81002330463946002215F097FB0028CA
:101D300014BF01230223644A019202212A46009122
:101D40000AA8514600F08CFB002C054614DADAF89C
:101D50000420DAF80C3002F1004203F1004345425E
:101D6000CAF80420CAF80C3006E000200021C2E9BD
:101D70000089C2E902010025284610B0BDE8F087BD
:101D800002460B4614F04EFF0025CAE90201CAE9DB
:101D90000001F1E740A3D3E9002314F043FF40A37F
:101DA000D3E900230D46044614F03CFF02460B46DF
:101DB000CAE900232946204614F034FF38A3D3E9AA
:101DC000002314F02FFF0125CAE90201D4E715F022
:101DD00055FE35A3D3E900238046894615F0D6F891
:101DE00000223A4B14F020FF15F080FB054615F059
:101DF00067F825A3D3E90023CDE9060115F0C6F85D
:101E000002460B464046494614F00CFF20A3D3E996
:101E10000023CDE90201DDE9060115F0B7F81F2D19
:101E200080468946CDE9048954DC294B6A1E53F863
:101E300022309F424ED002460B46DDE9020114F0EB
:101E4000F1FE80468946CAE9008942464B46DDE9F3
:101E5000020114F0E7FEDDE9042314F0E3FE002C98
:101E6000CAE9020188DA09F1004401F100436D4238
:101E7000CAF80080CAF80440CAF80800CAF80C3052
:101E80007AE700BFAFF3008000004054FB21F93F28
:101E90003163621A61B4D03D0000601A61B4D03D74
:101EA0007370032E8A19A33B83C8C96D305FE43F6A
:101EB000FB21E93F7BD90240FB21F93FFB2139415E
:101EC000FFFFEF7F00007041E8BC02080000E03F28
:101ED00068BC0208DDE90423DDE9020114F0A2FE7A
:101EE0003F15C1F30A53FB1A80468946102BCAE9F5
:101EF0000089AADD58A3D3E90023DDE9060115F026
:101F000045F88046894602460B46DDE9020114F099
:101F100089FE02460B46DDE90201CDE9082314F0F3
:101F200081FE42464B4614F07DFE4DA3D3E90023CB
:101F300080468946DDE9060115F028F842464B4601
:101F400014F070FE0B46CDE904010246DDE90801FC
:101F500014F068FEC1F30A53FF1A80468946312FF8
:101F6000CAE900896CDD41A3D3E90023DDE906015C
:101F700015F00CF8DDE9088906460F4602460B46C7
:101F80004046494614F04EFE02460B46404649463E
:101F9000CDE9022314F046FE32463B4614F042FEE1
:101FA00034A3D3E9002306460F46DDE9060114F009
:101FB000EDFF32463B4614F035FE02460B46CDE9B6
:101FC00004233AE714F030FE274B9F4204460D46A7
:101FD00018D01FA3D3E9002314F026FE02460B46B7
:101FE000CAE900232946204614F01CFE18A3D3E9B1
:101FF000002314F019FE4FF0FF35CAE90201BBE6D9
:10200000032398E614A3D3E9002314F00DFE14A3D0
:10201000D3E900230D46044614F006FE02460B46A3
:10202000CAE900232946204614F0FCFD0CA3D3E99D
:10203000002314F0F9FD4FF0FF35CAE902019BE6D9
:102040009DED087B8DED027BFFE600BFAFF30080C6
:102050003163621A61B4D03D0000601A61B4D03DB2
:102060007370032E8A19A33BFB21F93F0000002E59
:102070008A19A33BC14920259A837B3900000000BF
:10208000594A2DE9F84F21F00048904506460F4681
:102090002BDC564B0029B4BF554D564D98454FF09B
:1020A000000410DC544B984570DC4DA3D3E90023A9
:1020B00014F0BAFD0022514B15F0F8F9D8B13046B2
:1020C0003946BDE8F88F4E4B98457CDD4D4B984521
:1020D00044DD013398453ED03046394640A3D3E92C
:1020E000002314F053FFBDE8F88F02460B4614F0AE
:1020F0009BFDBDE8F88F3046394615F0BFFC01F076
:102100007FF806460F4632463B463046394614F0C5
:102110008BFD324682468B463B463046394614F0AC
:1021200035FF002280468946344B3046394614F04C
:102130007BFD02460B464046494615F051F80246E3
:102140000B465046594614F06DFD22462B4614F0BE
:102150001DFFBDE8F88F2C4B9842BDD8304639465C
:1021600015F08CFC0022234B14F010FFFEF714FC3A
:1021700006460F4602460B462046294614F006FF47
:1021800032463B4614F002FFBDE8F88F15F076FCAE
:1021900001F036F81D4B984506460F46B3DD002288
:1021A000164B14F041FD02460B463046394615F0F9
:1021B00017F832463B4614F037FD22462B4614F002
:1021C000E5FEBDE8F88F15F059FCFEF7E5FB024689
:1021D0000B462046294614F0D9FEBDE8F88F00BF13
:1021E0003374AC3C1F7BAC7FFFFFEF7FFFFF3540BC
:1021F0000000E0BF0000E03FFFFF2F3E0000F03F87
:10220000412E8640CD3386407DF8B98FFFFFEF3FEA
:102210002DE9F04F21F00048B8F1795F85B006460E
:102220000F4692469B466BDA15F060F9002800F0E5
:10223000EA8032463B463046394614F0A7FE74A386
:10224000D3E9002304460D4614F0A0FE72A3D3E99F
:10225000002314F0E9FC22462B4614F097FE70A3ED
:10226000D3E9002314F0DEFC22462B4614F08EFE48
:102270006DA3D3E9002314F0D7FC22462B4614F0BB
:1022800085FE6BA3D3E9002314F0CCFC22462B4639
:1022900014F07CFE68A3D3E9002314F0C5FC2246A9
:1022A0002B4614F073FECDE900010022664B204658
:1022B000294614F06BFEDDE900238046894620465E
:1022C000294614F063FE524604460D465B463046EE
:1022D000394614F05BFE02460B462046294614F0B0
:1022E000A1FC02460B464046494614F09BFC0246C0
:1022F0000B460020554914F095FC05B0BDE8F08F61
:1023000002460B4614F042FE41A3D3E900230446E3
:102310000D4614F03BFE40A3D3E9002314F084FCE7
:1023200022462B4614F032FE3DA3D3E9002314F0DD
:1023300079FC22462B4614F029FE3BA3D3E9002367
:1023400014F072FC22462B4614F020FE38A3D3E989
:10235000002314F067FC22462B4614F017FE36A328
:10236000D3E9002314F060FC2B46224614F00EFE45
:10237000374B9845CDE9000197DD364B984539DC60
:10238000A8F500130022002030499046994614F029
:1023900049FCCDE9020100222B4B2046294614F0CE
:1023A000F5FD42464B4614F03DFCDDE90023804636
:1023B00089462046294614F0E9FD524604460D465A
:1023C0005B463046394614F0E1FD02460B46204696
:1023D000294614F027FC02460B464046494614F0B5
:1023E00021FC02460B46DDE9020114F01BFC05B09E
:1023F000BDE8F08F9FED127B4FF000088DED027B62
:10240000DFF85490C7E71149002005B0BDE8F08F10
:10241000D43888BEE9FAA8BDC4B1B4BD9EEE213E51
:10242000AD529C804F7E923E9015CB19A001FA3E92
:102430007751C1166CC1563F4C5555555555A53F62
:10244000000000000000E73F0000E03F0000F03F18
:102450003233D33F0000E93F0000D23F00000000CC
:102460002DE9F04FADF51B7D9F4CA49E9F4D54F878
:10247000264007942646D41E85FB0475E417C4EB5A
:10248000A50424EAE4741D460A93631CA3EB8303AA
:10249000013D02EBC30306932B460B940395651B8A
:1024A000F418049008911AD42C4400260027013413
:1024B0000DF18808DDF8949208E059F8250014F031
:1024C000FFFC0135A542E8E8020108D0002DF4DA4E
:1024D000013530463946A542E8E80201F6D1079BAE
:1024E000002BC0F2DF83079B03F1010B0A9B22A99B
:1024F000DB001A4601EB03090093049B0DF5E47A17
:1025000019460AEBCB0B01EB0208039B002BC0F230
:10251000F582049C4D460026002775E90223F4E865
:10252000020114F033FD02460B463046394614F0E2
:102530007BFB444506460F46EFD1EAE80267DA45E1
:1025400009F10809E1D107990098049C009101F173
:102550008043013B9B0020441A1F83460EA802447F
:1025600003440C920D93009A9AA901EBC203002A2E
:1025700053E9284529DD0DF5E47A0AEBC2080DF18F
:10258000340900225A4B2046294614F0FFFC14F06F
:10259000ADFF14F095FC0022564B06460F4614F092
:1025A000F5FC02460B462046294614F03BFB14F08E
:1025B0009DFF78E9022349F8040F3946304614F0AC
:1025C00033FBD04504460D46DBD1DDF8189020469C
:1025D00029464A4601F050F800224FF07F53044646
:1025E0000D4614F0D3FCFCF75FFD0022424B14F0C3
:1025F000CDFC02460B462046294614F013FB0D463F
:10260000044614F073FF804614F05AFC0B46024651
:102610002946204614F006FB4B46002B06460F4683
:1026200040F3F980009A0EA9013AC9F1180351F854
:10263000225045FA03F101FA03F30EA8EB1A40F811
:102640002230C9F11705884443FA05F5002D6DDDE8
:10265000009B002B08F1010840F36F820E9C002CB8
:1026600040F01683009B012B40F38F820EAA0123BA
:1026700052F8044F002C00F08382581C0EAAC4F1BB
:10268000807442F82340009A824219DD0EAA0EACF3
:1026900052F820106FF07F42511A44F82010009930
:1026A000023399420CDD1046009A0EA901EB830318
:1026B00001EB82011A68821A43F8042B8B42F9D18C
:1026C000069B002B1ADD069B012B4FF0010440F006
:1026D0003C82009B5A1E0EAB0EA953F82230C3F366
:1026E000160341F822303CE288C10208ABAAAA2AAC
:1026F0000000703E0000704100002040022D15D106
:1027000032463B460020924914F08CFA06460F46AA
:10271000069A8F49002000F0AFFF02460B46304674
:10272000394614F07FFA022506460F4600220023A0
:102730003046394614F092FE002800F03782009AA5
:10274000079B501E83420FDC02F18043013B0EAA1F
:102750000D9C02EB8303002253F80419A34242EAC2
:102760000102F9D1002A67D1079B0EAA013B52F85A
:102770002330002B40F018820C9A012352F80419E0
:1027800001330029FAD0009AD31802F1010A9A45C0
:1027900009933DDC009B0A990B9A0B4409990AEBBB
:1027A0000208994622AB08F1804803EBC9098B184F
:1027B000A59A08F1FF3802EB880872AA02EBCA0A50
:1027C000A59A02EB8303009358F8040F14F078FBEA
:1027D000039B002BE9E802014FF000064FF00007D1
:1027E00011DB049C4D4675E90223F4E8020114F064
:1027F000CDFB02460B463046394614F015FA5C45CF
:1028000006460F46EFD1009B9845EAE80267DBD108
:10281000099B0093A7E606D1009B0EAA013B52F844
:102820002350ED1512E700224A4B14F035FE002824
:1028300040F06E81054679E70EA9039551F82030E6
:102840000699CDF8248018390246009006916BB99C
:1028500000F18043013B0EA800EB830353F8040909
:10286000013A18390028F9D000920691069A3849A1
:10287000002000F001FF009B002B04460D46C0F233
:10288000F781DA0072A901EB020B06920EAA02EBA5
:102890008306DFF8C4904FF000080BF108070436F8
:1028A00056F8040D14F00CFB22462B4614F06EFB78
:1028B0004B4667E9020142462046294614F066FB72
:1028C0000EAB9E4204460D46EAD14AACDDF81C90A0
:1028D00004944FF0000AB9F1000FC0F22B81DFF829
:1028E0007C805D4618A1D1E9000100260027002464
:1028F00003E0544510DCF8E80201F5E8022314F087
:1029000045FB02460B463046394614F08DF901343A
:10291000A14506460F46ECDA049B03EBCA03ABF174
:10292000080BC3E9006770AB9B450AF1010AD2D1DD
:10293000A49B049C032B00F28980DFE803F0C58E82
:102940008E1100BFAFF3008000000040FB21F93F73
:102950000000F03F0000E03F0000703E68A7020862
:10296000009B002B40F38181069A04EB020ADAE90E
:10297000008902F1080525440DF5987B1AED027BCC
:1029800042464B4651EC170B8DED047B14F04CF98D
:1029900006460F4602460B46DDE9040114F042F9F3
:1029A00042464B4614F040F965E902015D45B046E8
:1029B000B9466AE90267E1D1009B012B40F35581DA
:1029C000069BE518D5E9008903F1080B04EB0B0A17
:1029D00015ED027B42464B4651EC170B8DED007B0B
:1029E00014F022F906460F4602460B46DDE90001C7
:1029F00014F018F94B46424614F016F96AE9020140
:102A00004EAB5345B046B94665E90267E0D10020B8
:102A1000002104EB0B0575E9022314F005F9AA4522
:102A2000F9D1039B002B00F00A816268E368089FDC
:102A30002568A4683D6002F1004203F1004301F102
:102A400000417A60FB60BC6038617961099B03F0EA
:102A500007000DF51B7DBDE8F08F069D0835254468
:102A60000020002175E9022314F0DEF8A542F9D117
:102A7000039B002B00F0D280089E024601F1004328
:102A800086E80C000B460246D4E9000114F0CAF8AF
:102A9000009B002B0BDD4CAD0124F5E8022314F064
:102AA000C3F8009B0134A342F7DA039B13B101F191
:102AB00000431946089BC3E90201099B03F0070084
:102AC0000DF51B7DBDE8F08F069D08350020002127
:102AD000254475E9022314F0A7F8AC42F9D1039B11
:102AE00013B101F100431946089BC3E90001099B9A
:102AF00003F007000DF51B7DBDE8F08F00260027D1
:102B0000EAE80267DA4509F108097FF4FEAC1AE544
:102B1000009B002B08F10108C8BF02253FF79EADBE
:102B200032463B460020614914F07CF802250646F7
:102B30000F46FBE500260027EEE6069B002B27DD6F
:102B40000024069B012B3FF4C4AD022B09D1009B4E
:102B50005A1E0EAB0EA953F82230C3F3150341F8E9
:102B60002230022D7FF4E2AD32463B4600204F4931
:102B700014F058F806460F46002C3FF4D7ADC7E5D1
:102B80000099013399427FF473AD069B002BD8DC8A
:102B9000022D7FF4CBAD32463B460020434914F072
:102BA00041F806460F46C1E50123ECE53946069F8C
:102BB00003957A423046CDF8248000F05DFD002276
:102BC0003B4B04460D4614F067FC002843D000221E
:102BD000384B2046294614F0D9F914F087FC0646F4
:102BE00014F06EF90022324B14F0D0F902460B4675
:102BF0002046294614F016F814F078FC00990B468C
:102C000001331A4600933B46183306930B460EA930
:102C100041F82300134641F8236027E6089B02464B
:102C2000C3E900010B46D4E9000113F0FBFF009B50
:102C3000002B3FF730AF089BC3E902013DE7D4E921
:102C40000067D4E90223089DC5E90401C5E90067CE
:102C5000C5E90223FAE62946204614F047FC009A0B
:102C60000EA941F8220001E64AAC00200021D8E676
:102C7000A49B032B3FF6EAAE01A252F823F000BF5B
:102C80009F2C0108972C0108972C0108692C01083A
:102C900001200023F2E4002000214AACE8E60020F5
:102CA00000211CE70A9BDB0000934CE40000F03F8E
:102CB000000070410000703E2DE9F04F21F0004609
:102CC000B6F1795F85B004460D469046994604DA20
:102CD00014F00CFC002800F0858022462B4620468C
:102CE000294614F053F906460F4602460B46204685
:102CF000294614F04BF941A3D3E9002382468B46C1
:102D00003046394614F042F93EA3D3E9002313F0CC
:102D100089FF32463B4614F039F93CA3D3E900233E
:102D200013F082FF32463B4614F030F939A3D3E961
:102D3000002313F077FF32463B4614F027F937A300
:102D4000D3E9002313F070FF0E9BCDE900019BB384
:102D50000022294B4046494614F018F9DDE90023CA
:102D6000CDE902015046594614F010F902460B46CF
:102D7000DDE9020113F056FF32463B4614F006F936
:102D800042464B4613F04EFF19A3D3E900230646F3
:102D90000F465046594614F0F9F802460B463046A5
:102DA000394613F041FF02460B462046294613F0F0
:102DB00039FF05B0BDE8F08F02460B463046394674
:102DC00014F0E4F80AA3D3E9002313F02BFF5246D2
:102DD0005B4614F0DBF822462B4613F025FF05B0C6
:102DE000BDE8F08F2046294605B0BDE8F08F00BF52
:102DF000495555555555C53F0000E03F7CD5CF5A44
:102E00003AD9E53DEB9C2B8AE6E55A3E7DFEB1576B
:102E1000E31DC73ED561C119A0012A3FA6F81011D4
:102E20001111813F000000002DE9F04FBE4C21F050
:102E3000004687B0A64282468B460F46CDE9002366
:102E40001BDC14F053FB002837D153461E43109B64
:102E50000133334300F0B381109B012B00F0C88194
:102E600052465B460020B14914F0BAF904460D46BB
:102E70002046294607B0BDE8F08FAD4B9E421CDDD1
:102E80000029C0F2A98152465B4687A1D1E9000121
:102E900013F0C8FEDDE9002304460D4684A1D1E904
:102EA000000113F0BFFE9FED847B22462B468DED83
:102EB000007B13F0B9FE82468B4652465B46504675
:102EC000594614F063F802460B468046894614F0D2
:102ED0005DF8424604460D464B465046594614F0AE
:102EE00055F877A3D3E90023CDE90201204629460E
:102EF00014F04CF874A3D3E9002313F095FE224696
:102F00002B4614F043F872A3D3E9002313F08CFE90
:102F100022462B4614F03AF86FA3D3E9002313F0AE
:102F200083FE22462B4614F031F86DA3D3E900232B
:102F300013F07AFE22462B4614F028F86AA3D3E950
:102F4000002313F071FE42464B4614F01FF868A3AD
:102F5000D3E90023CDE904012046294614F016F8F0
:102F600065A3D3E9002313F05FFE22462B4614F03D
:102F70000DF863A3D3E9002313F056FE22462B4637
:102F800014F004F860A3D3E9002313F04DFE2246A9
:102F90002B4613F0FBFF5EA3D3E9002313F044FE9E
:102FA00022462B4613F0F2FF5BA3D3E9002313F074
:102FB0003BFE02460B46DDE9040113F035FEDDE978
:102FC000022313F0E3FFDDE9004522462B4613F010
:102FD0002BFE42464B4613F0D9FF02460B462046D5
:102FE000294613F021FE4EA3D3E9002304460D46E3
:102FF000DDE9020113F0CAFF22462B4613F014FE4E
:103000000B460246804689465046594613F00CFE50
:10301000474B9E4204460D4600F38E80109B012BC9
:103020003BD002460B460020404914F0D9F800245A
:1030300006460F462046294652465B46CDE90067C4
:10304000CDE90201009413F0EDFDDDE900AB02468D
:103050000B464046494613F0E5FD52465B4613F0E9
:1030600095FF524604460D465B46DDE9020113F02A
:103070008DFF00222F4B13F0D7FD02460B46204652
:10308000294613F0D1FD32463B4613F07FFF5246EE
:103090005B4613F0C9FD04460D462046294607B09D
:1030A000BDE8F08FAFF30080182D4454FB21E93FB9
:1030B000075C143326A6813C0000000000000000DD
:1030C000D47ABF74702AFB3EE9A7F0320FB8123FE2
:1030D00068108D1AF726303F1583E0FEC8DB573F96
:1030E00093846EE9E326823FFE41B31BBAA1AB3F56
:1030F000735360DBCB75F3BEA69237A0887E143F76
:103100000165F2F2D844433F280356C9226D6D3F52
:1031100037D60684F464963F7AFE10111111C13F30
:10312000635555555555D53FFFFF2F3E0000F0BF65
:103130002794E53F0000F03F109813F0C1FE2246AF
:10314000CDE900012B462046294613F01FFFDDE99B
:103150000023CDE902012046294613F065FD024611
:103160000B46DDE9020114F03BF842464B4613F0F2
:1031700059FD02460B465046594613F053FD024690
:103180000B4613F051FD02460B46DDE9000113F03A
:1031900049FD0446B81700F00200C0F101000D46D9
:1031A00013F08EFE02460B462046294613F0EEFE33
:1031B00004460D462046294607B0BDE8F08F50462C
:1031C000594614F05BFC02460B4600200A4914F0F5
:1031D00007F804460D4660E7DDE9004501F10041CE
:1031E000224605F1004382468B46CDE900234AE69C
:1031F00054465D4651E700BF0000F03F000000006C
:103200002DE9F04FD24A21F00043934285B0824627
:103210008B460C462DD9CF4A93421AD8002C80F207
:103220001681B5A3D3E900235046594613F0FCFCA0
:103230000022002314F01CF9C0B9B1A3D3E9002384
:103240005046594613F0A2FE02460B460020C249E2
:1032500008E1C24A934240F2D0800346C1F3130210
:10326000134340F0F481002980F2C4800020BC495F
:10327000C0E0BC4A934200F22981BB4A934240F22B
:10328000DE80002301930022B84B5046594613F0CC
:103290007DFE06460F4602460B465046594613F041
:1032A00075FE99A3D3E9002304460D4613F06EFE84
:1032B00097A3D3E9002313F0B7FC22462B4613F063
:1032C00065FE95A3D3E9002313F0ACFC22462B4600
:1032D00013F05CFE92A3D3E9002313F0A5FC224671
:1032E0002B4613F053FE90A3D3E9002313F09AFC6E
:1032F00022462B4613F04AFE00229D4B13F094FC0D
:103300008046894602460B463046394613F03EFE5B
:1033100002460B460020974913F084FC06460246FD
:103320000B460F464046494613F07CFC3246804629
:1033300089463B465046594613F028FE02460B4646
:1033400000208D4913F06EFC02460B46404649466C
:1033500013F046FF22462B4613F018FE019E02464C
:103360000B46002E38D0DDE9026732463B4613F0AB
:1033700059FC52465B4613F009FE32463B4613F0B9
:1033800051FC2B46224613F04DFC019B01330646AF
:103390000F4600F00F81019B012B00F0F180019B93
:1033A0000133392B39D8019B132B40F31281019C37
:1033B000C4F57F75033500222B0513F035FC02465A
:1033C0000B465046594613F02DFC0022684B13F073
:1033D0002BFC01EB04510DE05046594613F0D6FD8D
:1033E00022462B4613F01EFC02460B465046594619
:1033F00013F018FC05B0BDE8F08F4DA3D3E900230E
:1034000014F054F800283FF409AF4BA3D3E900238C
:103410001046194613F0BAFDECE752465B4613F02E
:1034200001FC02460B460020514913F0FBFB019AB8
:103430004F4B01EB0251002213F0F4FBDAE73EA3FD
:10344000D3E9002313F0F0FB02460B46CAE72CA396
:10345000D3E900235046594613F098FD0B464349E3
:103460000246002013F0E0FB14F040F8019013F046
:1034700027FD33A3D3E9002306460F4613F086FD4C
:1034800002460B465046594613F0CCFB2EA3D3E917
:103490000023804689463046394613F077FD0646BC
:1034A0000F4632463B464046494613F0BBFB0246B8
:1034B0000B4682468B464046494613F0B3FB3246E4
:1034C0003B4613F0AFFBCDE90201DCE62B4A934209
:1034D00000F2958000291AA3D3E90023C0F2AC8042
:1034E00013F0A0FB012380468946019316A7D7E974
:1034F0000067D6E7AFF3008059F3F8C21F6EA5014D
:10350000FE822B654715F73F2DC3096EB7FD8ABEB6
:103510003952E686CACFD03EB7DBAA9E19CE143FF9
:103520008555FE19A0015A3FF41011111111A13F48
:10353000EF39FAFE422E86409C7500883CE4377EC7
:103540000000E0FE422EE63F763C7935EF39EA3D59
:1035500079684340412E86400000E0BFFFFFEF7FC7
:103560000000F0BF422ED63FFFFF8F3C0000E03F3F
:103570000000F03F0000084000001840B1A2F03FFA
:103580000022394B5046594613F072FF002844D0B0
:10359000504659460022354B13F046FB02460B4677
:1035A0003046394613F03EFB00224FF0404313F003
:1035B000EDFC1FE702460B465046594613F032FB1E
:1035C00000222A4B13F0E2FC0022284B13F02AFBC6
:1035D00010E7019C4FF400132341C3F17F5752467B
:1035E0005B4613F01FFB002607F5401702460B460B
:1035F0003046394613F016FB01EB0451FAE616A3E8
:10360000D3E9002313F0C2FC002C02460B464FF016
:103610000000FFF61CAE154924E732463B465046F3
:10362000594613F0FFFA02460B4613F0FDFA00224A
:103630000F4B13F0F9FADDE613F0F6FA4FF0FF3313
:1036400080468946019306A7D7E9006729E7024625
:103650000B4613F0E9FACDE6FE822B654715F73FDE
:10366000763C7935EF39EABD0000D0BF0000E03F7D
:103670000000F03F00000000F8B5C1F30A56044610
:103680000D460B4617460EBB21F00043034386460A
:1036900025D00022344B13F079FC344A974204467B
:1036A0000D460B462ADBC1F30A56363E3E4440F235
:1036B000FE72964228DC002E12DD23F0FF4323F435
:1036C000E00343EA065520462946F8BD40F2FF7262
:1036D0009642EBD102460B4613F0A6FAF8BDF8BDB0
:1036E00016F1350F1DDA4CF250339F4222462B461D
:1036F00025DC19A1D1E9000116F082F816A3D3E95F
:10370000002313F043FCF8BD22462B4614A1D1E957
:10371000000116F075F812A3D3E9002313F036FC6C
:10372000F8BD23F0FF4323F4E003363643EA0655A1
:103730002046294600220E4B13F028FCF8BD08A1B4
:10374000D1E9000116F05CF805A3D3E9002313F0DA
:103750001DFCF8BDAFF3008059F3F8C21F6EA50140
:103760009C7500883CE4377E00005043B03CFFFF6E
:103770000000903C10B5054C237833B9044B13B1CD
:103780000448AFF300800123237010BDC004002063
:103790000000000048C302080C4B43B10C480D491F
:1037A00010B5AFF300800C48036823B910BD0A4878
:1037B000036833B97047094B002BF7D0BDE81040C0
:1037C0001847064B002BF5D0184700BF000000003B
:1037D00048C30208C4040020300400200000000098
:1037E000154B002B08BF134B9D46A3F5803A0021D3
:1037F0008B460F461348144A121A07F033F90F4B41
:10380000002B00D098470E4B002B00D0984700208B
:10381000002104000D000D48002802D00C480EF0D5
:103820001BF816F05BF9200029000DF0F5FF0EF0F3
:103830000FF800BF00000800008002200000000018
:103840000918020838040020C03300205918020863
:1038500000000000F0B5214D2C6883B014B1204663
:1038600003B0F0BD4FF49C700DF0F8FF4FF0FF3146
:103870000646032001F042FC00B204F079F84FF054
:10388000FF310746022001F039FC00B204F070F865
:103890003946024606F1DC0730460AF075FD23463C
:1038A0002246384601210AF00BFC4FF0FF3101207F
:1038B00001F024FC00B204F05BF898244FF0050EF0
:1038C00002468DE810403B46314606F1E40007F021
:1038D00003FD344620462E6003B0F0BDDC0400201A
:1038E0002DE9F04104460F46FFF7B4FF00F1E4056F
:1038F0000646284607F00EFD082C0BD0A4F109035C
:10390000012B15D93A46214610230D20BDE8F04180
:1039100003F012BFD6F8E43028469B6A9847022885
:10392000F0DCD6F8E43028465B6A04219847E9E7E2
:10393000D6F8E43028469B6A98470528E2DCD6F89A
:10394000E43028465B6A08219847DBE710B52DED87
:10395000028BFFF77FFF00F1E404204609F02CFA08
:1039600007EE900A2046F8EEE78A09F033FA07EEF0
:10397000900A2046B8EEE78A09F03AFA68EE087A2B
:1039800007EE100AE8EEA87AB8EEC77AE7EE077AF3
:10399000F5EE407AF1EE10FAB1EEE78A03D517EEB4
:1039A000900A14F0B7FDFDEEC87ABDEC028B17EE5D
:1039B000900A10BD08B503281CD8DFE800F0140DEC
:1039C0000602BDE80840FFF7C1BFFFF743FFBDE8AF
:1039D0000840E43009F00CBAFFF73CFFBDE80840AE
:1039E000E43009F0F7B9FFF735FFBDE80840E430EF
:1039F00009F0E2B9002008BD08B550B1012806D190
:103A0000FFF728FFBDE80840E430FBF765B8002069
:103A100008BDFFF71FFFBDE80840E430FBF73CB8E6
:103A200010B50446FFF716FF2146E430BDE810400C
:103A300008F0DABF08B501F089FCFBF7F1FDBDE83D
:103A4000084001F0EDB900BF08B501F07FFCFBF7BD
:103A500057FEBDE8084001F0E3B900BF08B501F02A
:103A600075FC14F081F8BDE8084001F0D9B900BF39
:103A700008B501F06BFC14F089FCBDE8084001F0CA
:103A8000CFB900BF08B501F061FCFBF7D9FDBDE877
:103A9000084001F0C5B900BF08B501F057FC14F0AB
:103AA000A1FABDE8084001F0BBB900BF08B501F0BC
:103AB0004DFCFBF731F8BDE8084001F0B1B900BF9B
:103AC00008B501F043FC14F0E1F9BDE8084001F04D
