:020000040800F2
:10E000000080022091390208599F0208599F020896
:10E01000599F0208599F0208599F020800000000FA
:10E02000000000000000000000000000B5F501083D
:10E03000599F0208000000005BF60108BBF60108CA
:10E04000599F0208599F0208599F0208599F0208C8
:10E05000599F0208599F0208599F0208599F0208B8
:10E06000599F0208599F0208599F0208599F0208A8
:10E07000599F0208599F0208599F0208599F020898
:10E08000599F0208599F0208599F0208C1060208B9
:10E09000AD050208599F0208C5060208599F0208EB
:10E0A000599F0208599F0208599F0208599F020868
:10E0B000599F0208599F020800000000599F02085A
:10E0C000599F0208599F0208599F0208599F020848
:10E0D000599F0208599F0208599F0208599F020838
:10E0E000599F0208599F020800000000000000002C
:10E0F0000000000000000000000000000000000020
:10E1000000000000599F020800000000599F02080B
:10E11000599F020800000000599F020800000000FB
:10E12000599F0208599F0208599F0208599F0208E7
:10E13000599F0208599F0208599F020800000000D9
:10E14000599F0208599F0208599F0208599F0208C7
:10E15000599F0208599F0208599F0208599F0208B7
:10E16000599F0208599F0208599F020800000000A9
:10E1700000000000599F020800000000000000009D
:10E18000599F0208599F0208599F0208599F020887
:10E19000599F0208000000002DE9F04F85B003915F
:10E1A0000778A7F10903042B044607F07F0200F16A
:10E1B0000100F5D9202AF3D02B2F04BF677804463D
:10E1C0002D2F72D09FED427B8DED007B4FF000082C
:10E1D0004FF000098FB34FF0000E4FF0000ADFF848
:10E1E00000B1754619E018F0D3FF804689463046E5
:10E1F00018F068FF42464B4618F018FE524680461B
:10E2000089465B46DDE9000135B319F0EBF8CDE94D
:10E210000001AE4614F8017F7FB1A7F13006092E48
:10E2200052465B4640464946DDD9C5B92E2F16D128
:10E2300014F8017F0125002FEFD142464B46DDE95E
:10E24000000118F0A5FF80468946039B40464946D9
:10E250001C6005B0BDE8F08F4FF0010EDAE7BEF1AB
:10E26000000F29D042464B46DDE9000118F090FF2F
:10E2700007F0DF07452F80468946E6D10399601CE9
:10E280000A221BF06BFD16490246002019F0E0FA45
:10E2900002460B464046494618F07AFF80468946BA
:10E2A0004046494605B0BDE8F08F9FED0B7B67788F
:10E2B0008DED007B013489E7DFF828904FF00008EE
:10E2C0004046494605B0BDE8F08F00BFAFF300807F
:10E2D000000000000000F03F000000000000F0BF60
:10E2E000000024400000F87F2DE9F84F1646002377
:10E2F000002204460D4619F0BDF9002840F09D802B
:10E30000002200232046294619F0AAF928B130221C
:10E31000002332707370BDE8F88F204629461AF04A
:10E32000B5F819F0E5F97BA3D3E900238146294626
:10E33000204619F09FF9002800F08680B9F1000FFF
:10E34000C0F2BE804A4600206F4919F081FA0246A9
:10E350000B462046294619F045F804460D4666A1AD
:10E36000D1E9000101274FF0000822462B4618F0A2
:10E370000FFF0022654B18F059FD19F0A5FA002F88
:10E38000CC464FF0FF3AC1464FF0000840F385807D
:10E39000DFF888E15E4C0122AEF1700945F6F32505
:10E3A0004FF02E0BA94208BFA0424FF0300309D313
:10E3B000001B61EB0501A94208BFA04203F1010364
:10E3C000F6D2DBB2337050EA010306F1010409D141
:10E3D000BA4210DACE4502F101020CD026467EE8A0
:10E3E0000245DFE7BA4204BF86F801B0B41CCE454F
:10E3F00002F10102F2D1B8F1000F0DD02246302116
:10E4000002F8011BC2F1010353442344002BF7DC43
:10E410002AEAEA7301331C44BCF1010F4CD0652396
:10E42000BCF1000F2370C5BF2B236370611CA11CBE
:10E430006046BDE8F84F0DF01BBB05F100431D46DB
:10E440002D23337001365BE72DA3D3E9002320464B
:10E45000294619F02DF900287FF470AFB9F10E0F9D
:10E4600009F101073DDDA9F10E08424600202649C9
:10E4700019F0EEF902460B462046294618F0B2FF85
:10E480000022224B18F0D2FC19F01EFA002FA9F13D
:10E490000F0A4FF0010C3FF77BAF334630222E249A
:10E4A00003F8022B74707FEA090618D01E4403F8A3
:10E4B000012BB342FBD16BE700232370BDE8F88F3B
:10E4C000C9F100020020104919F0C2F902460B46BA
:10E4D0002046294618F05CFE04460D463FE71E46DE
:10E4E00056E7C9F10E0200200749C84619F0B0F9F5
:10E4F0004FF0010939E700BF0000901EC4BCD642AE
:10E5000050EFE2D6E41A4B44000024400000E03F04
:10E5100000407A108DEDB5A0F7C6B03EF8A802080D
:10E5200070B54FF0FF3006F0B1FA04466FF07F404F
:10E5300006F0ACFA0646204618F0B4FD00220C4B5B
:10E5400018F026FE044630460D4618F0ABFD06A333
:10E55000D3E9002318F046FF02460B462046294621
:10E5600018F064FC70BD00BF0000E0DFFFFF6F43E8
:10E570000000F03D000000002DE9F843044600F1E2
:10E580006C060DF069F807460DF06CF8304611F096
:10E5900095FE2368C51A304611F090FE237DC11701
:10E5A000C4E90001042B40D8DFE803F04693617B07
:10E5B000030003232375284618F084FD6BA3D3E9D9
:10E5C00000238046894619F073F848B169A3D3E95E
:10E5D00000234046494619F04DF8002840F0A3803A
:10E5E00066A3D3E900234046494619F061F848B1D3
:10E5F0004046494663A3D3E9002319F03BF80028BD
:10E6000040F095802269E368013200212261217582
:10E61000202B0CD1A3686FEA1322D2B2D9B2914257
:10E6200000F08E8023690133236100232375FB07EB
:10E6300000D462B6BDE8F883284618F043FD53A322
:10E64000D3E900238046894619F032F80028EED03D
:10E65000404649464FA3D3E9002319F00BF80028A0
:10E66000E5D0002301222275A360E360DFE728469E
:10E6700018F028FD3DA3D3E900238046894619F010
:10E6800017F840B1404649463AA3D3E9002318F0B1
:10E69000F1FF0028CBD123690022013323612275C9
:10E6A000C5E7284618F00EFD30A3D3E900238046C5
:10E6B000894618F0FDFF0028EDD0404649462DA3BD
:10E6C000D3E9002318F0D6FF0028E4D004232375F3
:10E6D000ADE7284618F0F6FC30A3D3E900238046C6
:10E6E000894618F0E5FF38B12EA3D3E90023404650
:10E6F000494618F0BFFF98B900221B4B40464946D7
:10E7000018F0D6FF0028C6D04046494614A3D3E9E6
:10E71000002318F0AFFF0028BDD00223237586E741
:10E720000323237583E7E3680133E36070E7E3685D
:10E73000A268012199400A430133E360A26067E7C0
:10E740006FEA1362D2B2C3F3074393427FF46AAF16
:10E7500084F8CC30A369984767E700BFAFF3008027
:10E76000000000000018A54000209C409A9999994B
:10E7700099197C4033333333331385409A999999EF
:10E78000991995406666666666A69F40000000007F
:10E790000020BC40000000000018C5400000000040
:10E7A0000020AC40000000000018B5400000000050
:10E7B000294B70B5064618680D4609F061FF002820
:10E7C0003DDB09F0D5F8002E044639DD234B1868EF
:10E7D00018F078FC1EA3D3E9002318F0D9FC00221E
:10E7E000002318F023FB18F083FF236820EAE07170
:10E7F000B1F5806FA8BF4FF48061DB682046984771
:10E8000023681749D3F8803091FBF6F120469847EA
:10E81000002D14DDA5F11406012EB8BF01263046E7
:10E820000DF00EFF23682046DB6800219847A81BE7
:10E830000128B8BF0120BDE870400DF001BF70BDD8
:10E8400003680021DB68BDE870401847AFF3008023
:10E850001010101010101040480600200802002070
:10E8600040420F000000000038B5154B1B68002B1C
:10E8700004460CBF1820052009F07AF8054620460A
:10E8800018F020FC0CA3D3E9002318F081FC00222F
:10E89000002318F0CBFA18F02BFF2B6820EAE07168
:10E8A000B1F5007FDB68A8BF4FF400712846984798
:10E8B000044B1C6038BD00BF101010101010004039
:10E8C000480600200802002030B52D4B8DB01A6894
:10E8D0000092009A120205D4009A42F400020092BB
:10E8E000009A1A60274A284B126801921B6802930B
:10E8F0000EF05CFC18F0E6FBCDE90401019B9BB235
:10E900000193029B9BB20293DDE904011AA3D3E9B0
:10E91000002318F03DFC1D4B0022CDE90401CDE998
:10E9200006230298019BC01A18F0BCFBCDE9080130
:10E93000DDE90445019818F0B5FB02460B46204678
:10E94000294618F071FACDE90A01DDE90601DDE991
:10E950000823DDE90A4518F045FD22462B4618F04C
:10E9600017FC00220A4B18F061FA18F0E9FE039038
:10E9700003980DB030BD00BF9A9999999999F13FCC
:10E9800008030450A875FF1FCA75FF1F00005440FC
:10E9900000003E40000000002DE9F04F2DED028BFD
:10E9A000044683B0C06818F08DFB80462069894614
:10E9B00018F088FB824660698B4618F083FB02469C
:10E9C00001F1004306460F464046494619F00AFC4D
:10E9D00018F0D6FEE062054619F0B8FA0190284614
:10E9E00019F068FA019B0546184618F07DFB42466F
:10E9F0004B4618F0CDFB80462846894618F074FB3C
:10EA000032463B4618F0C4FB02460B464046494698
:10EA100018F00AFA02460B465046594619F0E2FB36
:10EA200018F0AEFE002208EE100A002330463946E8
:10EA300018F03EFE28B3B5EEC08AF1EE10FA1CDDE8
:10EA400011A7D7E9006718EE100A18F04DFB02462F
:10EA50000B463046394618F0E7F932463B4618F087
:10EA6000E5F918F08DFEA062E38843F00203E3802D
:10EA700003B0BDEC028BBDE8F08F05A7D7E90067B6
:10EA8000E1E784ED0A8AEFE7EA2E4454FB21F93FDF
:10EA9000EA2E4454FB21F9BF08B50EF0B9FADFEDB8
:10EAA0000C7A07EE100A67EE277A17EE900A18F034
:10EAB0001BFB05A3D3E9002318F094FC18F018FE03
:10EAC00008BD00BFAFF30080EA2E4454FB2119407B
:10EAD0000000B4430000000008B50EF0ADFADFED11
:10EAE0000C7A07EE100A67EE277A17EE900A18F0F4
:10EAF000FBFA05A3D3E9002318F074FC18F0F8FD25
:10EB000008BD00BFAFF30080EA2E4454FB2119403A
:10EB10000000B44300000000494A21F00043934242
:10EB20002DE9704304460D464BDC464A93420E469F
:10EB30000EDC3FA3D3E9002318F078F90022424B02
:10EB400018F0B6FD00284CD020462946BDE8708359
:10EB50003E4A93423BDCB3F1804F42DD19F090F81E
:10EB60002246804689462B462046294618F010FB4F
:10EB70000022354B18F05AF919F046FF02460B46B1
:10EB80004046494618F052F902460B4600202E49ED
:10EB900018F028FC424604460D464B46404649467E
:10EBA00018F044F902460B462046294618F03EF973
:10EBB00002F06AF8002EC9DC01F100431946BDE8F5
:10EBC000708302460B4618F031F9BDE8708319F0E6
:10EBD00057F802F059F818A3D3E9002318F026F9E2
:10EBE000E8E722462B462046294618F0D1FA80460F
:10EBF00089462046294619F043F8002204460D466E
:10EC0000114B4046494618F011F919F0FDFE00225B
:10EC10000D4B18F00BF902460B464046494618F0DA
:10EC2000E1FB22462B4618F001F900F0C5FAC1E7D6
:10EC30009C7500883CE4377EEF39FAFE422EE63FB1
:10EC4000FFFFEF7FFFFF2F3E0000F03F0000B041CD
:10EC50002DE9F84FC44B21F000469E4204460D4674
:10EC60008A460EDDC14B9E4200F3AC8000F0A780C7
:10EC7000BAF1000F40F3EA809FA1D1E90001BDE89D
:10EC8000F88FBB4B9E4200F3B580A3F1DE739E422A
:10EC900040F3A0804FF0FF3B22462B4620462946FA
:10ECA00018F076FA02460B468046894618F070FA4C
:10ECB00093A3D3E9002306460F4618F069FA92A3FE
:10ECC000D3E9002318F0B2F832463B4618F060FA58
:10ECD0008FA3D3E9002318F0A9F832463B4618F079
:10ECE00057FA8DA3D3E9002318F0A0F832463B462B
:10ECF00018F04EFA8AA3D3E9002318F097F83246A9
:10ED00003B4618F045FA88A3D3E9002318F08EF8A3
:10ED100042464B4618F03CFA85A3D3E900238046CF
:10ED200089463046394618F033FA83A3D3E90023E5
:10ED300018F07AF832463B4618F02AFA80A3D3E955
:10ED4000002318F071F832463B4618F021FA7EA3F2
:10ED5000D3E9002318F068F832463B4618F018FA59
:10ED60007BA3D3E9002318F05FF832463B4618F046
:10ED70000FFABBF1FF3F02460B466CD040464946B6
:10ED800018F054F822462B4618F002FA794E7A4BC6
:10ED90004FEACB0B5E449B44DBE9002318F044F8B8
:10EDA00022462B4618F040F802460B46D6E90001F1
:10EDB00018F03AF8BAF1000F43DBBDE8F88F0028ED
:10EDC0003FF456AF22462B462046294618F02EF82F
:10EDD000BDE8F88F60A3D3E9002318F027F80022DC
:10EDE000664B18F065FC00283FF454AF20462946D6
:10EDF000BDE8F88F18F044FF614B9E4204460D4673
:10EE000039DCA3F550239E425EDC02460B4618F027
:10EE10000DF80022594B18F007F8002206460F465D
:10EE20004FF080432046294618F000F802460B4672
:10EE30003046394618F0D6FA4FF0000B04460D461E
:10EE40002AE701F100431946BDE8F88F44A1D1E952
:10EE50000001BDE8F88F4046494617F0E7FF22461B
:10EE60002B4618F095F902460B462046294617F026
:10EE7000DBFFBDE8F88F434B9E421ADC0022424B79
:10EE800017F0D2FF002206460F463F4B2046294688
:10EE900018F07EF90022394B17F0C8FF02460B46E6
:10EEA0003046394618F09EFA4FF0020B04460D46E4
:10EEB000F2E602460B460020344918F093FA4FF070
:10EEC000030B04460D46E7E600222C4B17F0ACFF7F
:10EED000002206460F46294B2046294617F0A6FF7A
:10EEE00002460B463046394618F07CFA4FF0010BCB
:10EEF00004460D46D0E600BF182D4454FB21F93FCF
:10EF000011DA22E33AAD903FEB0D76244B7BA93F1B
:10EF1000513DD0A0660DB13F6E204CC5CD45B73FE9
:10EF2000FF8300922449C23F0D5555555555D53F95
:10EF30002F6C6A2C44B4A2BF9AFDDE522DDEAD3F89
:10EF40006D9A74AFF2B0B33F711623FEC671BC3F29
:10EF5000C4EB98999999C93F9C7500883CE4377E29
:10EF6000182D4454FB21F9BFFFFF0F440000F07F30
:10EF7000FFFFDB3F08A9020828A902080000F03FB4
:10EF8000FFFFF23FFF7F03400000F83F0000F0BFAB
:10EF90002DE9F843C1F30A59A9F2FF35132D0246B2
:10EFA0000B460C4606468846074622DC002D50DB01
:10EFB000DFF8F09049FA05F901EA090E5EEA060663
:10EFC0001CD036A3D3E9002317F030FF0022002322
:10EFD00018F06EFB48B1002C04DD4FF4801343FAA7
:10EFE00005F5A84428EA0904002721463846BDE86B
:10EFF000F883332D06DDB5F5806F3DD010461946F8
:10F00000BDE8F883A9F213494FF0FF3E2EFA09F943
:10F0100010EA090FF2D021A3D3E9002317F006FF6D
:10F020000022002318F044FB0028DED0002C09DD6C
:10F03000142D2BD00127C5F1340507FA05F5AE19BB
:10F0400028BFB844444626EA090721463846BDE8A9
:10F05000F88312A3D3E9002317F0E8FE002200236F
:10F0600018F026FB0028C0D0002C0BDB54EA060762
:10F0700006D00027084CB8E717F0D8FEBDE8F883A3
:10F080003C46B2E700274FF00044AEE704F1010828
:10F09000D8E700BFAFF300800000F03F9C75008808
:10F0A0003CE4377EFFFF0F002DE9F041C1F30A5722
:10F0B000A7F2FF35132D02460B460C46884606463E
:10F0C0001CDC002D3FDB3A4F2F41864601EA070C3E
:10F0D0005CEA0E0E17D034A3D3E9002317F0A6FE86
:10F0E0000022002318F0E4FA20B1002C3FDB28EACC
:10F0F0000704002621463046BDE8F081332D06DDA9
:10F10000B5F5806F2FD010461946BDE8F081A7F203
:10F1100013474FF0FF3E2EFA07F73842F3D022A3F1
:10F12000D3E9002317F082FE0022002318F0C0FA72
:10F130000028DFD0002C20DB444626EA07062146C3
:10F140003046BDE8F08118A3D3E9002317F06EFE26
:10F150000022002318F0ACFA0028CBD0002C17DBDB
:10F1600000263446C6E717F061FEBDE8F0814FF493
:10F17000801343FA05F5A844B9E7142D10D00123F4
:10F18000C5F1340503FA05F5AE1928BF9844D3E755
:10F1900024F00042074B324318BF1C460026A9E763
:10F1A00004F10108C8E700BF9C7500883CE4377E85
:10F1B000FFFF0F000000F0BF2DE9F04FD84B994240
:10F1C00087B0804689460E4613DCD64B21F00044BA
:10F1D0009C4218DD0022D44B18F042FA002879D066
:10F1E000002200230020D14918F0FCF807B0BDE848
:10F1F000F08FCF4B99422FDD42464B4617F016FE5B
:10F2000007B0BDE8F08FCB4B9C4270DDCA4B1E446B
:10F210009E427ED80022C94B4046494617F006FE62
:10F220004FEA215AAAF2FF3ABAF1000F04460D46FE
:10F230000E4640F3DE8142464B4617F0F5FD02468E
:10F240000B460020BD4917F0EFFD22462B4618F073
:10F25000C9F8CDE902010BE0B94B9E42DADD9FED22
:10F260009A7B8DED027B4FEA265A4446AAF2FF3A7A
:10F27000B44BC6F313069E4246F07F5500F3E78079
:10F2800045F44015204629460022AC4B17F0CCFD32
:10F29000002204460D46AC4B17F07AFF22462B465F
:10F2A00017F076FFA046CDE90401A946CDE900019B
:10F2B000002E3AD1002200232046294618F0D0F92A
:10F2C000002800F0CE80BAF1000F40F074810020D9
:10F2D000002195E742464B464046314617F0A4FDD3
:10F2E00002460B4618F07EF807B0BDE8F08F00220A
:10F2F000964B17F09BFD0022002318F0D9F9002847
:10F3000000F0CC80924B9C4200F3C88040464946B6
:10F3100076E700228C4B17F03BFF42464B4617F036
:10F3200037FFCDE900014FF0000A00224FF0804383
:10F330004046494617F07AFD02460B46404649468C
:10F3400018F050F802460B4606460F4617F020FF0D
:10F350005FA3D3E9002304460D4617F019FF5EA30F
:10F36000D3E9002317F062FD22462B4617F010FF69
:10F370005BA3D3E9002317F059FD22462B4617F073
:10F3800007FF59A3D3E9002317F050FD22462B466F
:10F3900017F0FEFE56A3D3E9002317F047FD2246DF
:10F3A0002B4617F0F5FE54A3D3E9002317F03EFDDA
:10F3B00022462B4617F0ECFE51A3D3E9002317F0A9
:10F3C00035FD22462B4617F0E3FE04460D46BAF102
:10F3D000000F00F0BF80504617F074FE4AA3D3E937
:10F3E000002382468B4617F0D3FEDDE90023CDE9EA
:10F3F00004012046294617F019FD32463B4617F016
:10F40000C7FE43A3D3E9002304460D4650465946A0
:10F4100017F0BEFEDDE9022317F008FD02460B4699
:10F420002046294617F002FD02460B46DDE90001A1
:10F4300017F0FAFC42464B4617F0F6FC02460B4624
:10F44000DDE9040117F0F0FC07B0BDE8F08F45F4EA
:10F450000015C6F5801620462946B6100AF1010AA5
:10F4600012E72DA3D3E900232046294617F090FE8A
:10F4700002460B460020314917F0D6FCDDE9042393
:10F4800017F086FE06460F46BAF1000F73D102460A
:10F490000B462046294617F0C7FCB1E642464B46CC
:10F4A0004046494617F074FE0022274B17F070FEC5
:10F4B00002460B464046494617F0B6FC07B0BDE889
:10F4C000F08F00BFAFF300800000000000000000DC
:10F4D00044523EDF12F1C23F9FC678D0099AC33F23
:10F4E000DE03CB966446C73FAF788E1DC571CC3F17
:10F4F000599322942449D23F04FA97999999D93F74
:10F50000935555555555E53F0000E0FE422EE63F28
:10F51000763C7935EF39EA3D555555555555E53F1A
:10F520007982DA3FFFFFEF3F0000F0BF000050C3D9
:10F53000FFFFEF7FFFFF1F3E3C412D400000F03FEB
:10F54000FFFF3F439DA006000000E03F0000504346
:10F55000FFFF8F3CDDE9004522462B4617F066FC95
:10F5600032463B4617F014FE02460B46204629461B
:10F5700017F05AFC9CE7504617F0A4FD23A3D3E9EB
:10F58000002382468B4617F003FE22A3D3E9002313
:10F59000804689465046594617F0FAFDDDE90223B8
:10F5A00017F044FC02460B463046394617F03CFC47
:10F5B00022462B46DCE7504617F084FD15A3D3E91D
:10F5C000002306460F4617F0E3FDDDE9022317F09E
:10F5D0002DFC0EA3D3E9002304460D4630463946E0
:10F5E00017F0D6FD02460B462046294617F01EFCB2
:10F5F00006E60022044B17F017FC02460B46404675
:10F60000494617F011FC20E60000F03F0000E0FE44
:10F61000422EE63F763C7935EF39EA3D00000000A6
:10F6200008B518F0B3FE04A3D3E9002317F0DAFEFF
:10F6300008BD00BFAFF30080EF39FAFE422EE63F6F
:10F640002DE9F043DFF8B4808BB004460D4601F09D
:10F65000F3F898F90030013306460F462BD02246C6
:10F660002B462046294618F02DF8814618BB204627
:10F67000294618F005FB1FA3D3E9002318F018F85A
:10F68000C8B1194A98F90030CDF820900321CDE98E
:10F690000445CDE902458DE806008BB9134B4FF0C8
:10F6A0006042CDE9062368461AF03CF870B1089B29
:10F6B0009BB9DDE90667304639460BB0BDE8F083FB
:10F6C0000B490020022BCDE90601ECD11AF0A8F974
:10F6D00022230360089B002BEBD01AF0A1F9089BB2
:10F6E0000360E6E7AFF3008054BE0208FFFFEF4778
:10F6F0000000F07F7DF8B98FCE33864006040020ED
:10F700002DE9F043DFF8E4808BB004460D4601F0AC
:10F7100043F998F90030013306460F4633D02046AE
:10F72000294619F0F9FF70B32CA3D3E90023204632
:10F73000294617F0BDFF814650BB2AA3D3E9002319
:10F740002046294617F096FFE8B198F90030204A84
:10F75000CDF82090002600270421022BCDE9044596
:10F76000CDE90245CDE906678DE8060029D0684657
:10F7700019F0D8FF28B3089B1BB11AF051F9089B68
:10F780000360DDE90667304639460BB0BDE8F0831B
:10F790000F4A98F90030019203210022CDE9044577
:10F7A000CDE90245009108922BB90A4B4FF0604217
:10F7B000CDE90623DBE708490020022BCDE906014D
:10F7C000D5D11AF02DF922230360D4E7AFF30080DE
:10F7D0005CBE0208FFFFEF470000F07FEF39FAFE42
:10F7E000422E864051302DD5104987C00604002096
:10F7F0002DE9F04FDFF80C938DB006460F46144606
:10F800001D4601F0C5FC99F90080B8F1FF3FCDE934
:10F81000000136D022462B462046294617F052FFDB
:10F82000834670BB32463B463046394617F04AFFA6
:10F830008246002840F0A28030463946002200234C
:10F8400017F00EFF10B3002200232046294617F0C0
:10F8500007FF834600286AD09FEDA17B0122A44BBD
:10F86000CDF828A00292CDE90467CDE906458DEDDB
:10F87000087B0393B8F1000F45D09FED9B7B8DED86
:10F88000007BDDE900010DB0BDE8F08FDDE900018E
:10F8900019F042FF8046002800F08D804FF0000AEA
:10F8A0004FF0000BDDE9000152465B4617F0D8FE31
:10F8B0000028E6D03046394619F02EFF0028E0D067
:10F8C0002046294619F028FF0028DAD099F900309F
:10F8D000874A039204210022022BCDE90467CDE977
:10F8E0000645CDE908AB02910A9203D002A819F0AF
:10F8F00019FF68B91AF094F82223036008E09FED1D
:10F90000787B8DED087B02A819F00CFF002830D021
:10F910000A9B1BB11AF084F80A9B03609DED087BDB
:10F920008DED007BDDE900010DB0BDE8F08F2046D4
:10F93000294619F0F1FE0028A3D00022002320461A
:10F94000294617F097FE00289BD099F90030684AA5
:10F95000CDF828B00121CDE90467CDE90645029133
:10F960000392002BCBD063490020022BCDE9080184
:10F97000C9D11AF055F821230360C9E700220023FA
:10F980002046294617F06CFE00283FF47AAF5A4B08
:10F990005749CDF828B000220120B8F1020FCDE977
:10F9A00004670290CDE90645CDE908230391AAD169
:10F9B000CDE9002365E73046394619F0ADFE002851
:10F9C0003FF46CAF2046294619F0A6FE00283FF40C
:10F9D00065AFDDE900231046194617F073FE0028D5
:10F9E0005FD1032399F900800293414B0A90CDE93E
:10F9F0000467CDE906450393B8F1000F2BD1DFF87A
:10FA000008B14FF0604A0022002330463946CDE964
:10FA100008AB17F02FFE00283FF468AF0022374BE9
:10FA20002046294617F0B4FB04460D4619F082FE25
:10FA300002460B462046294617F012FE70BB304B9B
:10FA400099F900804FF06042CDE90823B8F1020F28
:10FA50007FF44CAF4EE7DFF8B4B04FF0000A00225D
:10FA6000002330463946CDE908AB17F003FE0028E5
:10FA7000ECD00022214B2046294617F089FB044692
:10FA80000D4619F057FE02460B462046294617F050
:10FA9000E7FD18B9174B0022CDE9082399F900803A
:10FAA000D4E799F90090124BCDF828800122CDE9D6
:10FAB0000467CDE9064502920393B9F1000F3FF4C4
:10FAC0001EAF002200231046194617F08BFCB9F137
:10FAD000020FCDE908013FF44CAF14E7AFF300800B
:10FAE0000000000000000000000000000000F03FE7
:10FAF00074BE02080000F0FF0000F03F0000E03F8D
:10FB0000FFFFEFC706040020FFFFEF470000F07F74
:10FB10002DE9F84FC44E21F00043B34204460D4690
:10FB20000DDD03F1404303F58013034340F0B9803A
:10FB3000002940F3408100200021BDE8F88FBB4E32
:10FB4000B34240F3A6800029C0F2788102460B46FA
:10FB50000020B74917F068F90022B64B17F018FBE0
:10FB600004460D4618F050FF95A3D3E900238946BB
:10FB700080462946204617F00BFB93A3D3E90023C8
:10FB800017F054F922462B4617F002FB90A3D3E955
:10FB9000002317F049F922462B4617F0F9FA8EA3F5
:10FBA000D3E9002317F042F922462B4617F0F0FA6A
:10FBB0008BA3D3E9002317F037F922462B4617F021
:10FBC000E7FA89A3D3E9002317F030F922462B4640
:10FBD00017F0DEFA86A3D3E9002382468B4620463F
:10FBE000294617F0D5FA84A3D3E9002317F01CF9AE
:10FBF00022462B4617F0CCFA81A3D3E9002317F055
:10FC000015F922462B4617F0C3FA7FA3D3E9002348
:10FC100017F00AF922462B4617F0BAFA0022844B55
:10FC200017F004F902460B465046594617F0DAFB26
:10FC300042464B4617F0ACFA002682468B463246C7
:10FC40004B463046494617F0A3FA02460B4620467B
:10FC5000294617F0E9F8324604460D464B46404621
:10FC6000494617F0E3F802460B462046294617F0AE
:10FC7000B9FB02460B465046594617F0D7F83246B4
:10FC80004B4617F0D3F802460B4617F0CFF8BDE805
:10FC9000F88F694A93420EDC5DA1D1E90001BDE80D
:10FCA000F88F02460B4617F0BFF802460B4617F0D6
:10FCB00099FBBDE8F88F02460B4617F069FA40A39E
:10FCC000D3E9002306460F4617F062FA3EA3D3E9B4
:10FCD000002317F0ABF832463B4617F059FA3CA325
:10FCE000D3E9002317F0A0F832463B4617F050FA4C
:10FCF00039A3D3E9002317F099F832463B4617F0B1
:10FD000047FA37A3D3E9002317F08EF832463B4673
:10FD100017F03EFA34A3D3E9002317F087F83246F0
:10FD20003B4617F035FA32A3D3E9002380468946D3
:10FD30003046394617F02CFA2FA3D3E9002317F0E9
:10FD400073F832463B4617F023FA2DA3D3E900237C
:10FD500017F06CF832463B4617F01AFA2AA3D3E99B
:10FD6000002317F061F832463B4617F011FA0022E3
:10FD70002F4B17F05BF802460B464046494617F0FA
:10FD800031FB22462B4617F003FA02460B4622A10E
:10FD9000D1E9000117F048F802460B4620462946F3
:10FDA00017F042F802460B4619A1D1E9000117F0FD
:10FDB0003BF8BDE8F88F1AA1D1E90001BDE8F88F42
:10FDC00009F7FD0DE13D023F88B20175E0EF493FC3
:10FDD0003B8F68B52882A43F5544880E55C1C93F62
:10FDE0007D6FEB0312D6D43F555555555555C53F3C
:10FDF00082922EB1C5B8B33F59018D1B6C06E63F08
:10FE0000C88A599CE52A00404B2D8A1C273A03409A
:10FE1000182D4454FB21F93F075C143326A6913C6E
:10FE2000182D4454FB210940FFFFEF3FFFFFDF3F48
:10FE30000000F03F0000E03F0000603C00225C4B0F
:10FE400016F0F4FF00225B4B17F0A2F940A3D3E9B0
:10FE5000002304460D4617F09BF93FA3D3E9002386
:10FE600016F0E4FF22462B4617F092F93CA3D3E9A3
:10FE7000002316F0D9FF22462B4617F089F93AA342
:10FE8000D3E9002316F0D2FF22462B4617F080F963
:10FE900037A3D3E9002316F0C7FF22462B4617F0FD
:10FEA00077F935A3D3E9002316F0C0FF22462B468D
:10FEB00017F06EF9804689462046294618F0A4FDC1
:10FEC0002FA3D3E9002306460F462046294617F004
:10FED0005FF92DA3D3E9002316F0A6FF22462B4697
:10FEE00017F056F92AA3D3E9002316F09FFF224604
:10FEF0002B4617F04DF928A3D3E9002316F094FF01
:10FF000022462B4617F044F90022294B16F08EFFAB
:10FF100002460B464046494617F064FA32463B46D5
:10FF200017F036F91EA3D3E9002316F07DFF324601
:10FF30003B4616F07BFF02460B4616F077FF024663
:10FF40000B4619A1D1E9000116F06EFFBDE8F88F4C
:10FF500009F7FD0DE13D023F88B20175E0EF493F31
:10FF60003B8F68B52882A43F5544880E55C1C93FD0
:10FF70007D6FEB0312D6D43F555555555555C53FAA
:10FF800082922EB1C5B8B33F59018D1B6C06E63F76
:10FF9000C88A599CE52A00404B2D8A1C273A034009
:10FFA000075C143326A6913C182D4454FB210940CC
:10FFB0000000F03F0000E03F434A91422DE9F84342
:10FFC00004460D4639DD414A914209DD02F179527C
:10FFD000914240DD02460B4616F028FFBDE8F8834B
:10FFE00001F1404202F58012024330D0B1F1804F5E
:10FFF0003ADC0022364B16F017FF02460B46044649
:020000040801F1
:100000000D4616F013FF224606460F462B462046A5
:10001000294617F0BDF802460B463046394616F021
:1000200005FF18F0F1FC0B4602462946204616F063
:10003000FDFEBDE8F843FFF7BFB802460B4616F0D9
:10004000F3FE02460B4617F0CDF9BDE8F883002019
:100050000021BDE8F88300F017FE19A3D3E90023BF
:1000600016F0E4FEBDE8F88302460B4617F090F860
:100070000022174B16F0D8FE18F0C6FC2246804628
:1000800089462B462046294616F0D0FE42460646B3
:100090000F464B462046294616F0C8FE02460B4640
:1000A00000200B4917F09EF90B46024639463046B0
:1000B00016F0BAFEBDE8F84300F0E6BDAFF30080ED
:1000C000EF39FAFE422EE63FFFFFEF3FFFFFAF4161
:1000D0000000F03F000000002DE9F047BE4B21F08A
:1000E0000048984584B004460D4612DD08F14048AA
:1000F00008F58018034658EA030321D002460B4650
:1001000016F092FE02460B4617F06CF904B0BDE8FB
:10011000F087B24B98458A4629DCB8F1795F80F2C6
:10012000658191A3D3E9002316F080FE0022AC4B39
:1001300017F0BEFAD8B12046294604B0BDE8F087D2
:100140008BA3D3E9002317F023F88BA3D3E9002373
:1001500006460F462046294617F01AF802460B4677
:100160003046394616F062FE04B0BDE8F0872046FE
:10017000294617F085FD02460B460020984916F0E7
:1001800053FE0022974B17F003F87DA3D3E9002319
:1001900004460D4616F0FCFF7BA3D3E9002316F0BE
:1001A00045FE22462B4616F0F3FF79A3D3E9002340
:1001B00016F03AFE22462B4616F0EAFF76A3D3E964
:1001C000002316F033FE22462B4616F0E1FF74A3FF
:1001D000D3E9002316F028FE22462B4616F0D8FF5E
:1001E00071A3D3E9002316F021FE22462B4616F018
:1001F000CFFF6FA3D3E90023CDE9000120462946B4
:1002000016F0C6FF6CA3D3E9002316F00DFE2246BC
:100210002B4616F0BDFF6AA3D3E9002316F006FEB5
:1002200022462B4616F0B4FF67A3D3E9002316F04D
:10023000FBFD22462B4616F0ABFF694B002216F061
:10024000F5FDCDE902012046294618F0DDFB664B9D
:10025000984506460F4666DCDDE90223DDE900012C
:1002600017F0C0F83246CDE900013B46304639462A
:1002700016F0DCFD02460B46DDE9000116F088FFB2
:100280004FF00008CDE9000142463B464046394662
:1002900016F07EFF02460B462046294616F0C4FDA6
:1002A000424604460D463B463046394616F0BEFDF2
:1002B00002460B462046294617F094F802460B46A4
:1002C00016F0B4FD02460B462BA1D1E9000116F051
:1002D000ABFD02460B46DDE9000116F0A5FD4246E6
:1002E00004460D463B464046394616F09FFD024601
:1002F0000B4637A1D1E9000116F096FD02460B46E8
:100300002046294616F090FD02460B4630A1D1E961
:10031000000116F089FDBAF1000F3FF7F7AE01F1C9
:1003200000431946F2E6DDE90223DDE9000117F09A
:1003300059F832463B4616F02BFF32463B4616F044
:1003400075FD02460B4616F071FD0BA3D3E90023A1
:1003500016F06AFD02460B4605A1D1E9000116F030
:1003600063FDD8E7AFF300809C7500883CE4377EDE
:10037000182D4454FB21F93F075C143326A6913C09
:1003800009F7FD0DE13D023F88B20175E0EF493FFD
:100390003B8F68B52882A43F5544880E55C1C93F9C
:1003A0007D6FEB0312D6D43F555555555555C53F76
:1003B00082922EB1C5B8B33F59018D1B6C06E63F42
:1003C000C88A599CE52A00404B2D8A1C273A0340D5
:1003D000182D4454FB21E93FFFFFEF3FFFFFDF3FB4
:1003E0000000F03F0000E03F3233EF3F02460B4693
:1003F00016F0CEFE37A3D3E9002306460F4616F0CB
:10040000C7FE36A3D3E9002316F010FD32463B4663
:1004100016F0BEFE33A3D3E9002316F005FD3246E5
:100420003B4616F0B5FE31A3D3E9002316F0FEFCDF
:1004300032463B4616F0ACFE2EA3D3E9002316F05D
:10044000F3FC32463B4616F0A3FE2CA3D3E900236F
:1004500016F0ECFC32463B4616F09AFE29A3D3E98F
:100460000023804689463046394616F091FE27A380
:10047000D3E9002316F0D8FC32463B4616F088FE3E
:1004800024A3D3E9002316F0D1FC32463B4616F0F4
:100490007FFE22A3D3E9002316F0C6FC32463B467A
:1004A00016F076FE00220A4B16F0C0FC02460B4600
:1004B0004046494616F096FF22462B4616F068FE47
:1004C00022462B4616F0B2FC04B0BDE8F08700BF10
:1004D0000000F03F09F7FD0DE13D023F88B20175D4
:1004E000E0EF493F3B8F68B52882A43F5544880E12
:1004F00055C1C93F7D6FEB0312D6D43F55555555B5
:100500005555C53F82922EB1C5B8B33F59018D1BD9
:100510006C06E63FC88A599CE52A00404B2D8A1C90
:10052000273A0340000000002DE9F84F1D465342D2
:10053000134325F0004ADFF8E0E14AEAD37373453C
:10054000144606460F4647D8C0F1000848EA00089E
:1005500021F0004343EAD878F0458B463CD805F1BA
:10056000404808F5801858EA020850D04FEAA578AC
:1005700008F0020848EAD17850EA030134D052EA80
:100580000A023CD0F24557D0734538D0A3EB0A039A
:100590001B153C2B42DC002D70DB22462B463046DF
:1005A000394616F01FFF17F06BFBFEF751FBB8F151
:1005B000010F5FD0B8F1020F4ED0B8F1000F62D03A
:1005C00043A3D3E9002316F02FFC43A3D3E9002370
:1005D00016F02AFCBDE8F88F32463B4620462946F5
:1005E00016F024FCBDE8F88FB8F1020F1AD0B8F16C
:1005F000030F10D13AA1D1E90001BDE8F88FBBF19A
:10060000000F14DB38A1D1E90001BDE8F88FBDE887
:10061000F84FFEF71DBB3946BDE8F88F32A1D1E98E
:100620000001C4E72CA1D1E90001BDE8F88F30A199
:10063000D1E90001BDE8F88F534526D0B8F1020F8B
:10064000F0D0B8F1030FD5D0B8F1010F4FF0000092
:1006500029D00021BDE8F88F1DA3D3E9002316F0AF
:10066000E3FB02460B461CA1D1E9000116F0DCFBBE
:10067000BDE8F88F01F10041BDE8F88F3C338CDA1A
:100680000020002193E7BDE8F88FB8F1020F18D0E1
:10069000B8F1030F10D0B8F1010F08D016A1D1E9BD
:1006A0000001BDE8F88F4FF00041BDE8F88F14A1BC
:1006B000D1E90001BDE8F88F13A1D1E90001BDE83F
:1006C000F88F13A1D1E90001BDE8F88FAFF30080E6
:1006D000075C143326A6A13C182D4454FB21094085
:1006E000182D4454FB2109C0182D4454FB21F93F17
:1006F000182D4454FB21F9BF182D4454FB21E93F28
:10070000182D4454FB21E9BFD221337F7CD902C08C
:10071000D221337F7CD902400000F07F000000002E
:1007200043422DE9F047034321F000463E4A46EAA2
:10073000D373934204460D4613D896423DD03B4BAB
:100740009E428A4617DC36A3D3E9002316F06EFBDF
:100750000022002316F0ACFFA8B320462946BDE8CE
:10076000F08702460B4616F05FFB02460B4616F07A
:1007700039FEBDE8F0872E4B9E42354624DD3346D8
:100780000246314616F052FB224606460F462B46DD
:100790000020254916F048FB02460B4630463946F4
:1007A00016F020FEFEF708FD0022224B16F0F0FCAA
:1007B000BAF1000F2FDBBDE8F0870022002316F00E
:1007C00011FEBDE8F087354622462B4620462946D5
:1007D00016F02CFB22462B4606460F4616F0D8FC98
:1007E0002246804689462B4600200F4916F01CFB06
:1007F00002460B464046494616F0F4FD32463B465B
:1008000016F014FBFEF7D8FC00220A4B16F0C0FCD1
:10081000BAF1000FCFDA01F100431946BDE8F087C5
:100820009C7500883CE4377E0000F03FFFFF2F3EC0
:10083000FFFFDF3F0000E03F2DE9F8434E4B21F082
:1008400000449C4206460F461BDC4C4B9C4222DD7A
:100850004B4B9C4263DD4B4B9C427BDD4A4B9C42A5
:1008600046DD01339C4240D041A3D3E9002310462A
:10087000194616F08DFC06460F4630463946BDE84F
:10088000F88302460B4616F083FC06460F463046B8
:100890003946BDE8F88317F0F3F902F0B1FC002205
:1008A0003A4B8046894616F0C1FAB4F1725F0646AB
:1008B0000F46ECDB42464B464046494616F068FC84
:1008C00032463B4604460D463046394616F0AEFAEF
:1008D00002460B462046294616F084FD00222B4B8B
:1008E00016F0A4FA06460F46D1E7294B9842BBD82A
:1008F0003046394617F0C4F90022264B16F048FC62
:1009000000F04AF8002204460D46224B16F040FC47
:1009100022462B4616F03CFC06460F46B7E717F07A
:10092000AFF900F039F800221A4B06460F4616F0D0
:100930002FFC32463B4604460D460020154916F072
:1009400051FD02460B462046294616F06FFA064630
:100950000F469CE717F094F900F01EF800220D4BAB
:1009600016F016FC06460F4691E700BFAFF3008075
:100970009C7500883CE4377EFFFFEF7F422ED63F18
:10098000FFFF3540412E8640CD3386400000F03FCA
:100990007DF8B98F0000E03F2DE9F04FB04E21F017
:1009A0000042B24283B004460D464FEAD1770DD9DA
:1009B000AC4EB24225D9C1F31303034340F0EC809F
:1009C0000FB10020002103B0BDE8F08FA64B9A4282
:1009D00000F2CB80A54B9A4200F2DC808AA3D3E9D7
:1009E000002316F023FA0022A14B16F061FE002826
:1009F00000F006812046294600229D4B16F016FA8B
:100A0000E1E783A3D3E9002316F052FE002840F06B
:100A1000C88081A3D3E900232046294616F02AFE88
:100A20000028CED1934E7EA3D3E9002306EBC70660
:100A30002046294616F0ACFBD6E9002316F0F6F95D
:100A400016F056FE064616F03DFB77A3D3E90023C9
:100A50008046894616F09CFB02460B4620462946F6
:100A600016F0E2F972A3D3E90023CDE90001404674
:100A7000494616F08DFB82468B4652465B46DDE9C1
:100A8000000116F0D1F904460D4622462B462046B9
:100A9000294616F07DFB68A3D3E9002380468946EA
:100AA00016F076FB66A3D3E9002316F0BDF94246A3
:100AB0004B4616F06DFB64A3D3E9002316F0B6F99C
:100AC00042464B4616F064FB61A3D3E9002316F0BF
:100AD000ABF942464B4616F05BFB5FA3D3E900231C
:100AE00016F0A4F942464B4616F052FB02460B465E
:100AF0002046294616F098F980468946002E58D09F
:100B00002046294642464B4616F042FB42460446E2
:100B10000D464B4600204FF0804116F085F9024605
:100B20000B462046294616F05DFC02460B46504611
:100B3000594616F079F9DDE9002316F075F90B46F0
:100B400002464B49002016F06FF96FF47F739E4206
:100B500051DA06F57A7601EB065100224FF0B873B0
:100B600016F016FB03B0BDE8F08F434B9A423FF6F8
:100B700059AF424BFC002344D3E9002316F054F94B
:100B80003F4BC7F101062344CDE90001D3E900AB97
:100B9000F61B72E7002678E702460B4616F046F988
:100BA00011E719A3D3E900231046194616F0F0FA0D
:100BB00009E702460B462046294616F0E9FA0022CC
:100BC00006460F464FF080434046494616F02CF942
:100BD00002460B463046394616F004FC22462B46A8
:100BE00016F022F902460B460020214916F01CF9A6
:100BF00003B0BDE8F08F01EB065103B0BDE8F08F04
:100C0000064642E7AFF300809C7500883CE4377EDF
:100C1000EF39FAFE422E864051302DD5104987C05B
:100C2000FE822B654715F73F0000E0FE422EE63FAF
:100C3000763C7935EF39EA3DD0A4BE726937663E1D
:100C4000F16BD2C541BDBB3E2CDE25AF6A56113FCC
:100C500093BDBE166CC1663F3E5555555555C53FB3
:100C6000412E8640FFFFEF7F422ED63FFFFF2F3EF3
:100C70000000F03F48A90208B1A2F03F58A90208BD
:100C800068A90208000000002DE9F04FB1F5801FAF
:100C900085B006460F460B465ADA024621F000445C
:100CA000224300F0F8800029C0F27A810022D64B5E
:100CB00016F06EFAD54A0B46934206460F466FF081
:100CC000350C4ADCC3F3130505F5152E0EF6647ECC
:100CD0000EF4801E8EF07F5282F440121C1542EA00
:100CE0000507A4F2FF3464440022C94B304639465C
:100CF00004EB1E5416F098F8AB1CC3F31303022B3D
:100D000082468B464FF0000230DC002316F0A8FC30
:100D1000002800F0C980002C00F04B81204616F01E
:100D2000D1F9A5A3D3E9002306460F4616F030FA01
:100D3000A3A3D3E9002304460D463046394616F0F6
:100D400027FA02460B462046294616F06FF80AE0BD
:100D5000AE4A93424FF0000CB4DD32463B4630467B
:100D6000394616F063F805B0BDE8F08F4FF08043C8
:100D700016F05CF802460B465046594616F032FB18
:100D8000064620460F4616F09DF93246CDE9000191
:100D90003B4630463946CDE9026716F0F9F902467E
:100DA0000B468046894616F0F3F987A3D3E9002362
:100DB00006460F4616F0ECF985A3D3E9002316F09A
:100DC00035F832463B4616F0E3F983A3D3E9002316
:100DD00016F02CF832463B4616F0DAF980A3D3E938
:100DE000002316F023F842464B4616F0D1F97EA3B5
:100DF000D3E90023804689463046394616F0C8F9C3
:100E00007BA3D3E9002316F011F832463B4616F0D7
:100E1000BFF979A3D3E9002316F008F832463B4620
:100E200016F0B6F90B4602464946404615F0FEFF5D
:100E3000A5F5C223C5F5D725A3F27A4351351D4345
:100E4000002D8046894656DD0022724B5046594699
:100E500016F09EF952465B4616F09AF906460F4682
:100E6000002C68D132463B464046494615F0DEFF2D
:100E7000DDE9022316F08CF902460B46304639466E
:100E800015F0D2FF02460B465046594615F0CCFFEE
:100E900005B0BDE8F08F0022002300205E4916F067
:100EA000A1FA05B0BDE8F08F55A3D3E90023504661
:100EB000594616F06DF902460B460020554915F0CB
:100EC000B3FF524606460F465B465046594616F05B
:100ED0005FF902460B463046394616F059F9064688
:100EE0000F46002C40F09A8002460B465046594669
:100EF00015F09AFF37E7002C00F0A4802EA3D3E969
:100F00000023DDE9000116F043F942464B46044652
:100F10000D465046594615F087FFDDE9022316F0CD
:100F200037F927A3D3E9002306460F46DDE9000180
:100F300016F02EF921E020A3D3E90023DDE900011A
:100F400016F026F932463B4604460D4640464946D1
:100F500015F06CFFDDE9022316F01AF918A3D3E9A6
:100F6000002380468946DDE9000116F011F90246AA
:100F70000B464046494615F059FF02460B4630469F
:100F8000394615F051FF52465B4615F04DFF0246BB
:100F90000B462046294615F047FF05B0BDE8F08F07
:100FA00002460B4615F040FF0022002316F01AFA05
:100FB000D9E600200021D6E60000E0FE422EE63F02
:100FC000763C7935EF39EA3D44523EDF12F1C23FBB
:100FD000DE03CB966446C73F599322942449D23FFF
:100FE000935555555555E53F9FC678D0099AC33F4F
:100FF000AF788E1DC571CC3F04FA97999999D93F66
:10100000555555555555D53F00005043FFFFEF7FCF
:101010000000F03F0000E03F000050C3204616F003
:1010200051F80FA3D3E900238046894616F0B0F8A3
:101030000DA3D3E9002304460D464046494616F069
:10104000A7F89AE702460B465046594615F0ECFEC3
:10105000DDE9022316F09CF814E700BFAFF300802F
:101060000000E0FE422EE63F763C7935EF39EA3D5E
:10107000B1F5801F2DE9F84304460D460B461ADAF8
:10108000024621F00046324359D000295FDB00229E
:101090003B4B16F07DF83B4A0D462B4693420446E7
:1010A0006FF035010CDD22462B462046294615F00F
:1010B000BDFEBDE8F883334A93424FF00001F2DCF5
:1010C0001815A0F2FF3008444FEAD0794844C3F322
:1010D000130815F0F7FFC9F57F73033348EA03558A
:1010E00006460F4620462946FFF7CEFD1EA3D3E94C
:1010F0000023804689463046394616F049F81CA33D
:10110000D3E9002304460D464046494616F040F810
:1011100002460B462046294615F088FE16A3D3E961
:10112000002304460D463046394616F031F8024693
:101130000B462046294615F079FEBDE8F8830022CB
:1011400000230020104916F04DF9BDE8F88302464F
:101150000B4615F069FE0022002316F043F9BDE8A6
:10116000F88300BFAFF30080362BF111F3FE593D39
:101170000EE526157BCBDB3F00609F501344D33F29
:1011800000005043FFFFEF7F000050C3000000004D
:101190002DE9F04F23F0004757EA020493B037D00F
:1011A000674C21F00046A64283460D4629DC9A464C
:1011B000964625D0A74224DC614CA74279D0002D69
:1011C00080468946CDE9002377DB0024BEF1000F7D
:1011D0002CD15B4B9F4200F08B805A4B9F4261D0D9
:1011E000BAF1804F00F0C383574B9A451ED1002DB2
:1011F0001CDB4046494613B0BDE8F04F17F004BC75
:1012000058B106F1404606F5801656EA0B0306D1A2
:101210004C49002013B0BDE8F08FB742CCDD4B48FD
:1012200013B0BDE8F04F18F07FBA0024404649469D
:1012300016F026FDBBF1000F19D126B1414B25F068
:1012400040429A4213D1BAF1000FC0F2CA83002D76
:10125000E0DA06F1404606F5801656EA040300F08F
:10126000A584012CD6D101F100431946D2E7ED0F38
:10127000013D54EA05034ED0354B9F426EDD03F12C
:1012800004739F4240F3FE83324B9E424EDDBAF11F
:10129000000F4EDD28A3D3E900231046194615F0B0
:1012A00077FFB7E7BAF1000FC0F2528440464946D3
:1012B000B0E7BEF1000F82D0A3E7274B9F4228DCA6
:1012C000A3F154739F4280DD3B15A3F2FF33142B2F
:1012D00040F35484C3F134032EFA03F202FA03F309
:1012E0009E457FF472AF02F00102C2F102046DE785
:1012F00006F1404303F5801353EA0B0388D0154BE6
:101300009E4240F33B83BAF1000F12DBDDE900019E
:1013100080E702245AE742464B461046194615F02C
:1013200083FD02460B4616F05DF873E7BAF1000F35
:10133000B0DB002000216DE79C7500883CE4377E1F
:101340000000F07F0000F03F0000E03FB8BC020862
:101350000000E041FFFFEF3FFFFF3F43B6F5801F76
:101360004FF0000205DAD84B15F012FF6FF034028F
:101370000E463315D54FC6F31306A3F2FF331344BD
:1013800046F07F5ABE421A460D934AF4401A40F383
:101390002F83CF4B9E4240F30D849FEDB57B8DEDA7
:1013A000087B8DED0E7B9FEDB47B13468DED067BA8
:1013B00001330D93AAF5801A0027DDE90623514673
:1013C000CDE90A0115F030FDDDE9062380468946A6
:1013D000DDE90A0115F02AFD02460B460020BD4951
:1013E00016F000F80A460146CDE9101213464946A8
:1013F0000246404615F0CCFE4FEA6A0343F0005324
:101400008C46834603F50023CDE904BCDA468B46BF
:10141000D9190023CDE902AB0293DDE902AB00202C
:1014200006460F4602460B465046594615F0B0FE9A
:1014300002460B464046494615F0F6FCDDE9062318
:10144000804689463046394615F0EEFC02460B468A
:10145000DDE90A0115F0E8FC52465B4615F098FEFE
:1014600002460B464046494615F0DEFCDDE91023F6
:1014700015F08EFEDDE90467CDE9060132463B46F4
:101480003046394615F084FE7DA3D3E90023064695
:101490000F4615F07DFE7CA3D3E9002315F0C6FCB2
:1014A00032463B4615F074FE79A3D3E9002315F0CC
:1014B000BDFC32463B4615F06BFE77A3D3E9002313
:1014C00015F0B4FC32463B4615F062FE74A3D3E936
:1014D000002315F0ABFC32463B4615F059FE72A3D3
:1014E000D3E9002315F0A2FC3246804689463B46EC
:1014F0003046394615F04CFE02460B4640464946FA
:1015000015F046FE524606460F465B46DDE90401ED
:1015100015F08CFCDDE9062315F03AFE32463B4619
:1015200015F084FC5246804689465B465046594633
:1015300015F02EFE0022684BCDE90A0115F076FC6D
:1015400042464B4615F072FC02980F46064632465C
:101550003B465046594615F01BFE002282468B46FC
:101560005D4B3046394615F05FFCDDE90A2315F086
:101570005BFC02460B464046494615F055FCDDE94A
:10158000042315F005FE3246804689463B46DDE9D8
:10159000060115F0FDFD02460B464046494615F092
:1015A00045FC8046894602460B4650465946CDE9E1
:1015B00004AB15F03BFCDDE902AB3DA3D3E900230E
:1015C00050460F4615F0E4FDDDE90423CDE90201A4
:1015D0003946504615F028FC02460B46404649461F
:1015E00015F022FC34A3D3E9002315F0D1FD34A378
:1015F000D3E90023804689465046394615F0C8FD98
:1016000002460B464046494615F010FCDDE90E2324
:1016100015F00CFC80460D98894615F053FD4246A6
:1016200006460F464B46DDE9020115F0FFFBDDE9FA
:10163000082315F0FBFB32463B4615F0F7FB32461C
:101640003B4650468B4615F0EFFBDDE9082315F0CD
:10165000EBFBDDE9022315F0E7FB02460B464046B3
:10166000494615F0E1FB8046894637E0AFF300803C
:101670000000000000000000000000000000F03F3B
:10168000EF4E454A287ECA3F65DBC9934A86CD3F67
:1016900001411DA96074D13F4D268F515555D53F4D
:1016A000FFAB6FDBB66DDB3F033333333333E33FE5
:1016B000000000E009C7EE3FFD033ADC09C7EE3F3A
:1016C000F5015B14E02F3EBE000040438E980300FE
:1016D00079B60B000000F03F00000840013C54EADE
:1016E000050300F079819FEDC87B8DED047BDDE97A
:1016F00000120B461446CDE9023400230293DDE9C3
:10170000024508462B461146224615F08DFB5246EF
:101710005B4615F03DFDDDE9002306460F464046D9
:10172000494615F035FD02460B463046394615F060
:101730007DFB2246804689462B4650465946CDE9D8
:10174000008915F025FD0B46024606460F46404629
:10175000494615F06BFBC64B994204460D468A4636
:1017600040F3168101F13F4303F5E003034340F0EA
:10177000F781A7A3D3E90023DDE9000115F056FBAB
:101780003246804689463B462046294615F04CFBAA
:1017900002460B464046494615F08AFF002840F0B5
:1017A000DF81A8464FEA28534FF48012A3F2FE339C
:1017B00042FA03F35344C3F30A52AE4DA2F2FF328E
:1017C0001541C3F3130423EA05010020C2F1140BF1
:1017D00044F48014BAF1000F02460B4644FA0BFBA6
:1017E00030463946B8BFCBF1000B15F01DFB024661
:1017F0000B4606460F46DDE9000115F017FB4FEAE0
:101800000B5A0D46002484A3D3E900232046294621
:1018100015F0BEFC3246804689463B4620462946A6
:1018200015F002FB02460B46DDE9000115F0FCFA5B
:101830007BA3D3E9002315F0ABFC7BA3D3E9002302
:1018400006460F462046294615F0A2FC02460B46E6
:101850003046394615F0EAFA06460F4602460B4670
:101860004046494615F0E2FA42464B4604460D46CC
:1018700015F0DAFA02460B463046394615F0D4FA2E
:101880002246804689462B462046294615F080FC94
:1018900067A3D3E9002306460F4615F079FC66A33B
:1018A000D3E9002315F0C0FA32463B4615F070FC30
:1018B00063A3D3E9002315F0B9FA32463B4615F08D
:1018C00067FC61A3D3E9002315F0AEFA32463B462C
:1018D00015F05EFC5EA3D3E9002315F0A7FA3246AB
:1018E0003B4615F055FC02460B462046294615F0AE
:1018F0009BFA06460F4602460B462046294615F03F
:1019000047FC0022CDE900014FF0804330463946C4
:1019100015F08AFA02460B46DDE9000115F062FD7A
:10192000424606460F464B462046294615F030FCF7
:1019300042464B4615F07AFA02460B463046394687
:1019400015F072FA22462B4615F06EFA02460B4647
:101950000020494915F068FA8A44BAF5801FC0F2A0
:1019600039815146DDE9042315F012FC52E4424668
:101970004B464046494615F00BFC4BE4BAF1000FCC
:10198000BFF6D7ACDDE90034184604F1004141E46C
:101990003A4B21F00048984540F3FF80384B0B4408
:1019A00003430CD132463B4615F03EFA02460B4645
:1019B000DDE9000115F068FE00283FF4F3AEDDE933
:1019C000040125A3D3E9002315F0E2FB22A3D3E908
:1019D000002315F0DDFB1DE49FED217B8DED047BE5
:1019E00085E602460B460020234915F0FBFC2EE459
:1019F0009FED1D7B8DED087B8DED0E7B9FED027BBA
:101A000000278DED067BD8E4000000000000F03FC9
:101A1000FE822B654715973C00000000432EE63FF1
:101A2000EF39FAFE422EE63F396CA80C615C20BE0D
:101A3000D0A4BE726937663EF16BD2C541BDBB3ED4
:101A40002CDE25AF6A56113F93BDBE166CC1663FB2
:101A50003E5555555555C53F59F3F8C21F6EA50162
:101A6000000000000000F0BF0000000000000000C7
:101A7000FFFF8F40FFFF0F000000F03FFFCB9040C3
:101A800000346F3F684B9E427FF750AC674B9E42DD
:101A90003FF7FDAB0022654B15F0C6F952A3D3E921
:101AA000002306460F4615F073FB51A3D3E900232C
:101AB000804689463046394615F06AFB0022824648
:101AC0008B465B4B3046394615F062FB02460B46AF
:101AD00049A1D1E9000115F0A7F932463B4615F0BE
:101AE00057FB02460B460020524915F09DF932463D
:101AF000CDE902013B463046394615F049FB024626
:101B00000B46DDE9020115F043FB3DA3D3E90023B9
:101B100015F03EFB02460B465046594615F084F937
:101B200002460B4606460F464046494615F07EF9EA
:101B300042464B46002082468B4615F075F9024618
:101B40000B463046394615F06FF980468946C5E5A3
:101B500042464B460020354915F044FCFFF75ABB7E
:101B6000DDE9040128A3D3E9002315F011FB26A326
:101B7000D3E9002315F00CFBFFF74CBBBEF1000FBF
:101B80007FF453ABC3F1140347FA03F202FA03F3F1
:101B90009F4223D07446FFF720BB264B98453FF762
:101BA00001AEDDE90223924693462BE602460B4640
:101BB000FFF7B3BB9FED167B8DED087B9FED167B8A
:101BC0008DED0E7B9FED167B4FF480278DED067B10
:101BD000FFF7F3BB5A4601F04FFDC3E602F00102E6
:101BE000C2F10204FFF7F9BA000000604715F73FA1
:101BF00044DF5DF80BAE543E555555555555D53F10
:101C0000FE822B654715F73F9C7500883CE4377EC4
:101C10000000004003B8E23F06D0CF43EBFD4C3E4E
:101C2000000000000000F83FFEFFEF3F0000F03F23
:101C30000000D03F0000E03F2DE9F0479C4B21F031
:101C400000479F4290B08046894640F38E80994B72
:101C50009F420C46924626DC00298BA3D3E9002341
:101C600040F3B08115F0E0F8934B9F4204460D46D7
:101C700000F0908086A3D3E9002315F0D5F8024642
:101C80000B46CAE900232046294615F0CDF880A36B
:101C9000D3E9002315F0C8F80125CAE90201284656
:101CA00010B0BDE8F087854B9F4240F39080844B95
:101CB0009F4265DC3D15A5F21645A7EB0553194675
:101CC0001F46064615F014FD15F0FCF980468946BE
:101CD00042464B4630463946CDE90A8915F0A4F80C
:101CE0000022784B15F054FA8946804615F000FD25
:101CF00015F0E8F906460F4632463B46404649464F
:101D0000CDE90C6715F090F800226E4B15F040FA03
:101D100000220023CDE90E0115F0A2FC002800F0FE
:101D20006F81002330463946002215F099FC0028C7
:101D300014BF01230223644A019202212A46009122
:101D40000AA8514600F08CFB002C054614DADAF89C
:101D50000420DAF80C3002F1004203F1004345425E
:101D6000CAF80420CAF80C3006E000200021C2E9BD
:101D70000089C2E902010025284610B0BDE8F087BD
:101D800002460B4615F050F80025CAE90201CAE9DF
:101D90000001F1E740A3D3E9002315F045F840A383
:101DA000D3E900230D46044615F03EF802460B46E3
:101DB000CAE900232946204615F036F838A3D3E9AE
:101DC000002315F031F80125CAE90201D4E715F026
:101DD00057FF35A3D3E900238046894615F0D8F98B
:101DE00000223A4B15F022F815F082FC054615F05A
:101DF00069F925A3D3E90023CDE9060115F0C8F957
:101E000002460B464046494615F00EF820A3D3E99A
:101E10000023CDE90201DDE9060115F0B9F91F2D16
:101E200080468946CDE9048954DC294B6A1E53F863
:101E300022309F424ED002460B46DDE9020114F0EB
:101E4000F3FF80468946CAE9008942464B46DDE9F0
:101E5000020114F0E9FFDDE9042314F0E5FF002C92
:101E6000CAE9020188DA09F1004401F100436D4238
:101E7000CAF80080CAF80440CAF80800CAF80C3052
:101E80007AE700BFAFF3008000004054FB21F93F28
:101E90003163621A61B4D03D0000601A61B4D03D74
:101EA0007370032E8A19A33B83C8C96D305FE43F6A
:101EB000FB21E93F7BD90240FB21F93FFB2139415E
:101EC000FFFFEF7F0000704110BF02080000E03FFD
:101ED00090BE0208DDE90423DDE9020114F0A4FF4D
:101EE0003F15C1F30A53FB1A80468946102BCAE9F5
:101EF0000089AADD58A3D3E90023DDE9060115F026
:101F000047F98046894602460B46DDE9020114F096
:101F10008BFF02460B46DDE90201CDE9082314F0F0
:101F200083FF42464B4614F07FFF4DA3D3E90023C5
:101F300080468946DDE9060115F02AF942464B46FE
:101F400014F072FF0B46CDE904010246DDE90801F9
:101F500014F06AFFC1F30A53FF1A80468946312FF5
:101F6000CAE900896CDD41A3D3E90023DDE906015C
:101F700015F00EF9DDE9088906460F4602460B46C4
:101F80004046494614F050FF02460B46404649463B
:101F9000CDE9022314F048FF32463B4614F044FFDB
:101FA00034A3D3E9002306460F46DDE9060115F008
:101FB000EFF832463B4614F037FF02460B46CDE9B8
:101FC00004233AE714F032FF274B9F4204460D46A4
:101FD00018D01FA3D3E9002314F028FF02460B46B4
:101FE000CAE900232946204614F01EFF18A3D3E9AE
:101FF000002314F01BFF4FF0FF35CAE90201BBE6D6
:10200000032398E614A3D3E9002314F00FFF14A3CD
:10201000D3E900230D46044614F008FF02460B46A0
:10202000CAE900232946204614F0FEFE0CA3D3E99A
:10203000002314F0FBFE4FF0FF35CAE902019BE6D6
:102040009DED087B8DED027BFFE600BFAFF30080C6
:102050003163621A61B4D03D0000601A61B4D03DB2
:102060007370032E8A19A33BFB21F93F0000002E59
:102070008A19A33BC14920259A837B3900000000BF
:10208000594A2DE9F84F21F00048904506460F4681
:102090002BDC564B0029B4BF554D564D98454FF09B
:1020A000000410DC544B984570DC4DA3D3E90023A9
:1020B00014F0BCFE0022514B15F0FAFAD8B13046AC
:1020C0003946BDE8F88F4E4B98457CDD4D4B984521
:1020D00044DD013398453ED03046394640A3D3E92C
:1020E000002315F055F8BDE8F88F02460B4614F0B2
:1020F0009DFEBDE8F88F3046394615F0C1FD01F070
:102100007FF806460F4632463B463046394614F0C5
:102110008DFE324682468B463B463046394615F0A8
:1021200037F8002280468946344B3046394614F051
:102130007DFE02460B464046494615F053F90246DD
:102140000B465046594614F06FFE22462B4615F0BA
:102150001FF8BDE8F88F2C4B9842BDD83046394661
:1021600015F08EFD0022234B15F012F8FEF714FC3B
:1021700006460F4602460B462046294615F008F84B
:1021800032463B4615F004F8BDE8F88F15F078FDAF
:1021900001F036F81D4B984506460F46B3DD002288
:1021A000164B14F043FE02460B463046394615F0F6
:1021B00019F932463B4614F039FE22462B4614F0FC
:1021C000E7FFBDE8F88F15F05BFDFEF7E5FB024683
:1021D0000B462046294614F0DBFFBDE8F88F00BF10
:1021E0003374AC3C1F7BAC7FFFFFEF7FFFFF3540BC
:1021F0000000E0BF0000E03FFFFF2F3E0000F03F87
:10220000412E8640CD3386407DF8B98FFFFFEF3FEA
:102210002DE9F04F21F00048B8F1795F85B006460E
:102220000F4692469B466BDA15F062FA002800F0E2
:10223000EA8032463B463046394614F0A9FF74A383
:10224000D3E9002304460D4614F0A2FF72A3D3E99C
:10225000002314F0EBFD22462B4614F099FF70A3E7
:10226000D3E9002314F0E0FD22462B4614F090FF42
:102270006DA3D3E9002314F0D9FD22462B4614F0B8
:1022800087FF6BA3D3E9002314F0CEFD22462B4633
:1022900014F07EFF68A3D3E9002314F0C7FD2246A3
:1022A0002B4614F075FFCDE900010022664B204655
:1022B000294614F06DFFDDE900238046894620465B
:1022C000294614F065FF524604460D465B463046EB
:1022D000394614F05DFF02460B462046294614F0AD
:1022E000A3FD02460B464046494614F09DFD0246BA
:1022F0000B460020554914F097FD05B0BDE8F08F5E
:1023000002460B4614F044FF41A3D3E900230446E0
:102310000D4614F03DFF40A3D3E9002314F086FDE1
:1023200022462B4614F034FF3DA3D3E9002314F0DA
:102330007BFD22462B4614F02BFF3BA3D3E9002361
:1023400014F074FD22462B4614F022FF38A3D3E983
:10235000002314F069FD22462B4614F019FF36A322
:10236000D3E9002314F062FD2B46224614F010FF3F
:10237000374B9845CDE9000197DD364B984539DC60
:10238000A8F500130022002030499046994614F029
:102390004BFDCDE9020100222B4B2046294614F0CB
:1023A000F7FE42464B4614F03FFDDDE90023804630
:1023B00089462046294614F0EBFE524604460D4657
:1023C0005B463046394614F0E3FE02460B46204693
:1023D000294614F029FD02460B464046494614F0B2
:1023E00023FD02460B46DDE9020114F01DFD05B098
:1023F000BDE8F08F9FED127B4FF000088DED027B62
:10240000DFF85490C7E71149002005B0BDE8F08F10
:10241000D43888BEE9FAA8BDC4B1B4BD9EEE213E51
:10242000AD529C804F7E923E9015CB19A001FA3E92
:102430007751C1166CC1563F4C5555555555A53F62
:10244000000000000000E73F0000E03F0000F03F18
:102450003233D33F0000E93F0000D23F00000000CC
:102460002DE9F04FADF51B7D9F4CA49E9F4D54F878
:10247000264007942646D41E85FB0475E417C4EB5A
:10248000A50424EAE4741D460A93631CA3EB8303AA
:10249000013D02EBC30306932B460B940395651B8A
:1024A000F418049008911AD42C4400260027013413
:1024B0000DF18808DDF8949208E059F8250014F031
:1024C00001FE0135A542E8E8020108D0002DF4DA4A
:1024D000013530463946A542E8E80201F6D1079BAE
:1024E000002BC0F2DF83079B03F1010B0A9B22A99B
:1024F000DB001A4601EB03090093049B0DF5E47A17
:1025000019460AEBCB0B01EB0208039B002BC0F230
:10251000F582049C4D460026002775E90223F4E865
:10252000020114F035FE02460B463046394614F0DF
:102530007DFC444506460F46EFD1EAE80267DA45DE
:1025400009F10809E1D107990098049C009101F173
:102550008043013B9B0020441A1F83460EA802447F
:1025600003440C920D93009A9AA901EBC203002A2E
:1025700053E9284529DD0DF5E47A0AEBC2080DF18F
:10258000340900225A4B2046294614F001FE15F06A
:10259000AFF814F097FD0022564B06460F4614F094
:1025A000F7FD02460B462046294614F03DFC15F087
:1025B0009FF878E9022349F8040F3946304614F0B1
:1025C00035FCD04504460D46DBD1DDF81890204699
:1025D00029464A4601F050F800224FF07F53044646
:1025E0000D4614F0D5FDFCF75FFD0022424B14F0C0
:1025F000CFFD02460B462046294614F015FC0D4639
:10260000044615F075F8804614F05CFD0B46024652
:102610002946204614F008FC4B46002B06460F4680
:1026200040F3F980009A0EA9013AC9F1180351F854
:10263000225045FA03F101FA03F30EA8EB1A40F811
:102640002230C9F11705884443FA05F5002D6DDDE8
:10265000009B002B08F1010840F36F820E9C002CB8
:1026600040F01683009B012B40F38F820EAA0123BA
:1026700052F8044F002C00F08382581C0EAAC4F1BB
:10268000807442F82340009A824219DD0EAA0EACF3
:1026900052F820106FF07F42511A44F82010009930
:1026A000023399420CDD1046009A0EA901EB830318
:1026B00001EB82011A68821A43F8042B8B42F9D18C
:1026C000069B002B1ADD069B012B4FF0010440F006
:1026D0003C82009B5A1E0EAB0EA953F82230C3F366
:1026E000160341F822303CE2B0C30208ABAAAA2A82
:1026F0000000703E0000704100002040022D15D106
:1027000032463B460020924914F08EFB06460F46A7
:10271000069A8F49002000F0AFFF02460B46304674
:10272000394614F081FB022506460F46002200239D
:102730003046394614F094FF002800F03782009AA2
:10274000079B501E83420FDC02F18043013B0EAA1F
:102750000D9C02EB8303002253F80419A34242EAC2
:102760000102F9D1002A67D1079B0EAA013B52F85A
:102770002330002B40F018820C9A012352F80419E0
:1027800001330029FAD0009AD31802F1010A9A45C0
:1027900009933DDC009B0A990B9A0B4409990AEBBB
:1027A0000208994622AB08F1804803EBC9098B184F
:1027B000A59A08F1FF3802EB880872AA02EBCA0A50
:1027C000A59A02EB8303009358F8040F14F07AFCE7
:1027D000039B002BE9E802014FF000064FF00007D1
:1027E00011DB049C4D4675E90223F4E8020114F064
:1027F000CFFC02460B463046394614F017FB5C45C9
:1028000006460F46EFD1009B9845EAE80267DBD108
:10281000099B0093A7E606D1009B0EAA013B52F844
:102820002350ED1512E700224A4B14F037FF002821
:1028300040F06E81054679E70EA9039551F82030E6
:102840000699CDF8248018390246009006916BB99C
:1028500000F18043013B0EA800EB830353F8040909
:10286000013A18390028F9D000920691069A3849A1
:10287000002000F001FF009B002B04460D46C0F233
:10288000F781DA0072A901EB020B06920EAA02EBA5
:102890008306DFF8C4904FF000080BF108070436F8
:1028A00056F8040D14F00EFC22462B4614F070FC72
:1028B0004B4667E9020142462046294614F068FC6F
:1028C0000EAB9E4204460D46EAD14AACDDF81C90A0
:1028D00004944FF0000AB9F1000FC0F22B81DFF829
:1028E0007C805D4618A1D1E9000100260027002464
:1028F00003E0544510DCF8E80201F5E8022314F087
:1029000047FC02460B463046394614F08FFA013434
:10291000A14506460F46ECDA049B03EBCA03ABF174
:10292000080BC3E9006770AB9B450AF1010AD2D1DD
:10293000A49B049C032B00F28980DFE803F0C58E82
:102940008E1100BFAFF3008000000040FB21F93F73
:102950000000F03F0000E03F0000703E90A9020838
:10296000009B002B40F38181069A04EB020ADAE90E
:10297000008902F1080525440DF5987B1AED027BCC
:1029800042464B4651EC170B8DED047B14F04EFA8A
:1029900006460F4602460B46DDE9040114F044FAF0
:1029A00042464B4614F042FA65E902015D45B046E5
:1029B000B9466AE90267E1D1009B012B40F35581DA
:1029C000069BE518D5E9008903F1080B04EB0B0A17
:1029D00015ED027B42464B4651EC170B8DED007B0B
:1029E00014F024FA06460F4602460B46DDE90001C4
:1029F00014F01AFA4B46424614F018FA6AE902013A
:102A00004EAB5345B046B94665E90267E0D10020B8
:102A1000002104EB0B0575E9022314F007FAAA451F
:102A2000F9D1039B002B00F00A816268E368089FDC
:102A30002568A4683D6002F1004203F1004301F102
:102A400000417A60FB60BC6038617961099B03F0EA
:102A500007000DF51B7DBDE8F08F069D0835254468
:102A60000020002175E9022314F0E0F9A542F9D114
:102A7000039B002B00F0D280089E024601F1004328
:102A800086E80C000B460246D4E9000114F0CCF9AC
:102A9000009B002B0BDD4CAD0124F5E8022314F064
:102AA000C5F9009B0134A342F7DA039B13B101F18E
:102AB00000431946089BC3E90201099B03F0070084
:102AC0000DF51B7DBDE8F08F069D08350020002127
:102AD000254475E9022314F0A9F9AC42F9D1039B0E
:102AE00013B101F100431946089BC3E90001099B9A
:102AF00003F007000DF51B7DBDE8F08F00260027D1
:102B0000EAE80267DA4509F108097FF4FEAC1AE544
:102B1000009B002B08F10108C8BF02253FF79EADBE
:102B200032463B460020614914F07EF902250646F4
:102B30000F46FBE500260027EEE6069B002B27DD6F
:102B40000024069B012B3FF4C4AD022B09D1009B4E
:102B50005A1E0EAB0EA953F82230C3F3150341F8E9
:102B60002230022D7FF4E2AD32463B4600204F4931
:102B700014F05AF906460F46002C3FF4D7ADC7E5CE
:102B80000099013399427FF473AD069B002BD8DC8A
:102B9000022D7FF4CBAD32463B460020434914F072
:102BA00043F906460F46C1E50123ECE53946069F89
:102BB00003957A423046CDF8248000F05DFD002276
:102BC0003B4B04460D4614F069FD002843D000221B
:102BD000384B2046294614F0DBFA14F089FD0646EE
:102BE00014F070FA0022324B14F0D2FA02460B466F
:102BF0002046294614F018F914F07AFD00990B4686
:102C000001331A4600933B46183306930B460EA930
:102C100041F82300134641F8236027E6089B02464B
:102C2000C3E900010B46D4E9000114F0FDF8009B54
:102C3000002B3FF730AF089BC3E902013DE7D4E921
:102C40000067D4E90223089DC5E90401C5E90067CE
:102C5000C5E90223FAE62946204614F049FD009A08
:102C60000EA941F8220001E64AAC00200021D8E676
:102C7000A49B032B3FF6EAAE01A252F823F000BF5B
:102C80009F2C0108972C0108972C0108692C01083A
:102C900001200023F2E4002000214AACE8E60020F5
:102CA00000211CE70A9BDB0000934CE40000F03F8E
:102CB000000070410000703E2DE9F04F21F0004609
:102CC000B6F1795F85B004460D469046994604DA20
:102CD00014F00EFD002800F0858022462B46204689
:102CE000294614F055FA06460F4602460B46204682
:102CF000294614F04DFA41A3D3E9002382468B46BE
:102D00003046394614F044FA3EA3D3E9002314F0C8
:102D10008BF832463B4614F03BFA3CA3D3E9002340
:102D200014F084F832463B4614F032FA39A3D3E962
:102D3000002314F079F832463B4614F029FA37A301
:102D4000D3E9002314F072F80E9BCDE900019BB388
:102D50000022294B4046494614F01AFADDE90023C7
:102D6000CDE902015046594614F012FA02460B46CC
:102D7000DDE9020114F058F832463B4614F008FA37
:102D800042464B4614F050F819A3D3E900230646F7
:102D90000F465046594614F0FBF902460B463046A2
:102DA000394614F043F802460B462046294614F0F3
:102DB0003BF805B0BDE8F08F02460B463046394679
:102DC00014F0E6F90AA3D3E9002314F02DF85246D3
:102DD0005B4614F0DDF922462B4614F027F805B0C7
:102DE000BDE8F08F2046294605B0BDE8F08F00BF52
:102DF000495555555555C53F0000E03F7CD5CF5A44
:102E00003AD9E53DEB9C2B8AE6E55A3E7DFEB1576B
:102E1000E31DC73ED561C119A0012A3FA6F81011D4
:102E20001111813F000000002DE9F04FBE4C21F050
:102E3000004687B0A64282468B460F46CDE9002366
:102E40001BDC14F055FC002837D153461E43109B61
:102E50000133334300F0B381109B012B00F0C88194
:102E600052465B460020B14914F0BCFA04460D46B8
:102E70002046294607B0BDE8F08FAD4B9E421CDDD1
:102E80000029C0F2A98152465B4687A1D1E9000121
:102E900013F0CAFFDDE9002304460D4684A1D1E901
:102EA000000113F0C1FF9FED847B22462B468DED80
:102EB000007B13F0BBFF82468B4652465B46504672
:102EC000594614F065F902460B468046894614F0CF
:102ED0005FF9424604460D464B465046594614F0AB
:102EE00057F977A3D3E90023CDE90201204629460B
:102EF00014F04EF974A3D3E9002313F097FF224690
:102F00002B4614F045F972A3D3E9002313F08EFF8A
:102F100022462B4614F03CF96FA3D3E9002313F0AB
:102F200085FF22462B4614F033F96DA3D3E9002325
:102F300013F07CFF22462B4614F02AF96AA3D3E94A
:102F4000002313F073FF42464B4614F021F968A3A7
:102F5000D3E90023CDE904012046294614F018F9ED
:102F600065A3D3E9002313F061FF22462B4614F03A
:102F70000FF963A3D3E9002313F058FF22462B4631
:102F800014F006F960A3D3E9002313F04FFF2246A3
:102F90002B4614F0FDF85EA3D3E9002313F046FF9F
:102FA00022462B4614F0F4F85BA3D3E9002313F078
:102FB0003DFF02460B46DDE9040113F037FFDDE972
:102FC000022314F0E5F8DDE9004522462B4613F014
:102FD0002DFF42464B4614F0DBF802460B462046D6
:102FE000294613F023FF4EA3D3E9002304460D46E0
:102FF000DDE9020114F0CCF822462B4613F016FF4F
:103000000B460246804689465046594613F00EFF4D
:10301000474B9E4204460D4600F38E80109B012BC9
:103020003BD002460B460020404914F0DBF9002457
:1030300006460F462046294652465B46CDE90067C4
:10304000CDE90201009413F0EFFEDDE900AB02468A
:103050000B464046494613F0E7FE52465B4614F0E5
:1030600097F8524604460D465B46DDE9020114F02E
:103070008FF800222F4B13F0D9FE02460B46204654
:10308000294613F0D3FE32463B4614F081F85246EF
:103090005B4613F0CBFE04460D462046294607B09A
:1030A000BDE8F08FAFF30080182D4454FB21E93FB9
:1030B000075C143326A6813C0000000000000000DD
:1030C000D47ABF74702AFB3EE9A7F0320FB8123FE2
:1030D00068108D1AF726303F1583E0FEC8DB573F96
:1030E00093846EE9E326823FFE41B31BBAA1AB3F56
:1030F000735360DBCB75F3BEA69237A0887E143F76
:103100000165F2F2D844433F280356C9226D6D3F52
:1031100037D60684F464963F7AFE10111111C13F30
:10312000635555555555D53FFFFF2F3E0000F0BF65
:103130002794E53F0000F03F109813F0C3FF2246AC
:10314000CDE900012B462046294614F021F8DDE99F
:103150000023CDE902012046294613F067FE02460E
:103160000B46DDE9020114F03DF942464B4613F0EF
:103170005BFE02460B465046594613F055FE02468A
:103180000B4613F053FE02460B46DDE9000113F037
:103190004BFE0446B81700F00200C0F101000D46D6
:1031A00013F090FF02460B462046294613F0F0FF2D
:1031B00004460D462046294607B0BDE8F08F50462C
:1031C000594614F05DFD02460B4600200A4914F0F2
:1031D00009F904460D4660E7DDE9004501F10041CB
:1031E000224605F1004382468B46CDE900234AE69C
:1031F00054465D4651E700BF0000F03F000000006C
:103200002DE9F04FD24A21F00043934285B0824627
:103210008B460C462DD9CF4A93421AD8002C80F207
:103220001681B5A3D3E900235046594613F0FEFD9D
:103230000022002314F01EFAC0B9B1A3D3E9002381
:103240005046594613F0A4FF02460B460020C249DF
:1032500008E1C24A934240F2D0800346C1F3130210
:10326000134340F0F481002980F2C4800020BC495F
:10327000C0E0BC4A934200F22981BB4A934240F22B
:10328000DE80002301930022B84B5046594613F0CC
:103290007FFF06460F4602460B465046594613F03E
:1032A00077FF99A3D3E9002304460D4613F070FF7E
:1032B00097A3D3E9002313F0B9FD22462B4613F060
:1032C00067FF95A3D3E9002313F0AEFD22462B46FA
:1032D00013F05EFF92A3D3E9002313F0A7FD22466B
:1032E0002B4613F055FF90A3D3E9002313F09CFD68
:1032F00022462B4613F04CFF00229D4B13F096FD07
:103300008046894602460B463046394613F040FF58
:1033100002460B460020974913F086FD06460246FA
:103320000B460F464046494613F07EFD3246804626
:1033300089463B465046594613F02AFF02460B4643
:1033400000208D4913F070FD02460B464046494669
:1033500014F048F822462B4613F01AFF019E02464D
:103360000B46002E38D0DDE9026732463B4613F0AB
:103370005BFD52465B4613F00BFF32463B4613F0B3
:1033800053FD2B46224613F04FFD019B01330646A9
:103390000F4600F00F81019B012B00F0F180019B93
:1033A0000133392B39D8019B132B40F31281019C37
:1033B000C4F57F75033500222B0513F037FD024657
:1033C0000B465046594613F02FFD0022684B13F070
:1033D0002DFD01EB04510DE05046594613F0D8FE87
:1033E00022462B4613F020FD02460B465046594616
:1033F00013F01AFD05B0BDE8F08F4DA3D3E900230B
:1034000014F056F900283FF409AF4BA3D3E9002389
:103410001046194613F0BCFEECE752465B4613F02B
:1034200003FD02460B460020514913F0FDFC019AB2
:103430004F4B01EB0251002213F0F6FCDAE73EA3FA
:10344000D3E9002313F0F2FC02460B46CAE72CA393
:10345000D3E900235046594613F09AFE0B464349E0
:103460000246002013F0E2FC14F042F9019013F040
:1034700029FE33A3D3E9002306460F4613F088FE46
:1034800002460B465046594613F0CEFC2EA3D3E914
:103490000023804689463046394613F079FE0646B9
:1034A0000F4632463B464046494613F0BDFC0246B5
:1034B0000B4682468B464046494613F0B5FC3246E1
:1034C0003B4613F0B1FCCDE90201DCE62B4A934206
:1034D00000F2958000291AA3D3E90023C0F2AC8042
:1034E00013F0A2FC012380468946019316A7D7E971
:1034F0000067D6E7AFF3008059F3F8C21F6EA5014D
:10350000FE822B654715F73F2DC3096EB7FD8ABEB6
:103510003952E686CACFD03EB7DBAA9E19CE143FF9
:103520008555FE19A0015A3FF41011111111A13F48
:10353000EF39FAFE422E86409C7500883CE4377EC7
:103540000000E0FE422EE63F763C7935EF39EA3D59
:1035500079684340412E86400000E0BFFFFFEF7FC7
:103560000000F0BF422ED63FFFFF8F3C0000E03F3F
:103570000000F03F0000084000001840B1A2F03FFA
:103580000022394B5046594614F074F8002844D0B4
:10359000504659460022354B13F048FC02460B4674
:1035A0003046394613F040FC00224FF0404313F000
:1035B000EFFD1FE702460B465046594613F034FC18
:1035C00000222A4B13F0E4FD0022284B13F02CFCC0
:1035D00010E7019C4FF400132341C3F17F5752467B
:1035E0005B4613F021FC002607F5401702460B4608
:1035F0003046394613F018FC01EB0451FAE616A3E5
:10360000D3E9002313F0C4FD002C02460B464FF013
:103610000000FFF61CAE154924E732463B465046F3
:10362000594613F001FC02460B4613F0FFFB002243
:103630000F4B13F0FBFBDDE613F0F8FB4FF0FF330D
:1036400080468946019306A7D7E9006729E7024625
:103650000B4613F0EBFBCDE6FE822B654715F73FDB
:10366000763C7935EF39EABD0000D0BF0000E03F7D
:103670000000F03F00000000F8B5C1F30A56044610
:103680000D460B4617460EBB21F00043034386460A
:1036900025D00022344B13F07BFD344A9742044678
:1036A0000D460B462ADBC1F30A56363E3E4440F235
:1036B000FE72964228DC002E12DD23F0FF4323F435
:1036C000E00343EA065520462946F8BD40F2FF7262
:1036D0009642EBD102460B4613F0A8FBF8BDF8BDAD
:1036E00016F1350F1DDA4CF250339F4222462B461D
:1036F00025DC19A1D1E9000116F084F916A3D3E95C
:10370000002313F045FDF8BD22462B4614A1D1E954
:10371000000116F077F912A3D3E9002313F038FD66
:10372000F8BD23F0FF4323F4E003363643EA0655A1
:103730002046294600220E4B13F02AFDF8BD08A1B1
:10374000D1E9000116F05EF905A3D3E9002313F0D7
:103750001FFDF8BDAFF3008059F3F8C21F6EA5013D
:103760009C7500883CE4377E00005043B03CFFFF6E
:103770000000903C10B5054C237833B9044B13B1CD
:103780000448AFF300800123237010BDC004002063
:103790000000000070C502080C4B43B10C480D49F5
:1037A00010B5AFF300800C48036823B910BD0A4878
:1037B000036833B97047094B002BF7D0BDE81040C0
:1037C0001847064B002BF5D0184700BF000000003B
:1037D00070C50208C404002030040020000000006E
:1037E000154B002B08BF134B9D46A3F5803A0021D3
:1037F0008B460F461348144A121A07F007FA0F4B6C
:10380000002B00D098470E4B002B00D0984700208B
:10381000002104000D000D48002802D00C480EF0D5
:103820001DF916F05DFA200029000EF0F7F80EF0F1
:1038300011F900BF00000800008002200000000015
:103840000D1A020838040020C03300205D1A020857
:1038500000000000F0B5214D2C6883B014B1204663
:1038600003B0F0BD4FF49C700EF0FAF84FF0FF314A
:103870000646032001F042FC00B204F079F84FF054
:10388000FF310746022001F039FC00B204F070F865
:103890003946024606F1DC0730460AF077FE234639
:1038A0002246384601210AF00DFD4FF0FF3101207C
:1038B00001F024FC00B204F05BF898244FF0050EF0
:1038C00002468DE810403B46314606F1E40007F021
:1038D00005FE344620462E6003B0F0BDDC04002017
:1038E0002DE9F04104460F46FFF7B4FF00F1E4056F
:1038F0000646284607F010FE082C0BD0A4F1090359
:10390000012B15D93A46214610230D20BDE8F04180
:1039100003F012BFD6F8E43028469B6A9847022885
:10392000F0DCD6F8E43028465B6A04219847E9E7E2
:10393000D6F8E43028469B6A98470528E2DCD6F89A
:10394000E43028465B6A08219847DBE710B52DED87
:10395000028BFFF77FFF00F1E404204609F02EFB05
:1039600007EE900A2046F8EEE78A09F035FB07EEED
:10397000900A2046B8EEE78A09F03CFB68EE087A28
:1039800007EE100AE8EEA87AB8EEC77AE7EE077AF3
:10399000F5EE407AF1EE10FAB1EEE78A03D517EEB4
:1039A000900A14F0B9FEFDEEC87ABDEC028B17EE5A
:1039B000900A10BD08B503281CD8DFE800F0140DEC
:1039C0000602BDE80840FFF7C1BFFFF743FFBDE8AF
:1039D0000840E43009F00EBBFFF73CFFBDE80840AB
:1039E000E43009F0F9BAFFF735FFBDE80840E430EC
:1039F00009F0E4BA002008BD08B550B1012806D18D
:103A0000FFF728FFBDE80840E430FBF765B8002069
:103A100008BDFFF71FFFBDE80840E430FBF73CB8E6
:103A200010B50446FFF716FF2146E430BDE810400C
:103A300009F0DCB808B501F089FCFBF7F1FDBDE841
:103A4000084001F0EDB900BF08B501F07FFCFBF7BD
:103A500057FEBDE8084001F0E3B900BF08B501F02A
:103A600075FC14F083F9BDE8084001F0D9B900BF36
:103A700008B501F06BFC14F08BFDBDE8084001F0C7
:103A8000CFB900BF08B501F061FCFBF7D9FDBDE877
:103A9000084001F0C5B900BF08B501F057FC14F0AB
:103AA000A3FBBDE8084001F0BBB900BF08B501F0B9
:103AB0004DFCFBF731F8BDE8084001F0B1B900BF9B
:103AC00008B501F043FC14F0E3FABDE8084001F04A
