:020000040800F2
:10E000000080022059370208219D0208219D020844
:10E01000219D0208219D0208219D020800000000A8
:10E020000000000000000000000000007DF3010877
:10E03000219D02080000000023F4010883F4010878
:10E04000219D0208219D0208219D0208219D0208B0
:10E05000219D0208219D0208219D0208219D0208A0
:10E06000219D0208219D0208219D0208219D020890
:10E07000219D0208219D0208219D0208219D020880
:10E08000219D0208219D0208219D020889040208A1
:10E0900075030208219D02088D040208219D0208D3
:10E0A000219D0208219D0208219D0208219D020850
:10E0B000219D0208219D020800000000219D020808
:10E0C000219D0208219D0208219D0208219D020830
:10E0D000219D0208219D0208219D0208219D020820
:10E0E000219D0208219D02080000000000000000A0
:10E0F0000000000000000000000000000000000020
:10E1000000000000219D020800000000219D02087F
:10E11000219D020800000000219D0208000000006F
:10E12000219D0208219D0208219D0208219D0208CF
:10E13000219D0208219D0208219D02080000000087
:10E14000219D0208219D0208219D0208219D0208AF
:10E15000219D0208219D0208219D0208219D02089F
:10E16000219D0208219D0208219D02080000000057
:10E1700000000000219D02080000000000000000D7
:10E18000219D0208219D0208219D0208219D02086F
:10E19000219D0208000000002DE9F04F85B0039199
:10E1A0000778A7F10903042B044607F07F0200F16A
:10E1B0000100F5D9202AF3D02B2F04BF677804463D
:10E1C0002D2F72D09FED427B8DED007B4FF000082C
:10E1D0004FF000098FB34FF0000E4FF0000ADFF848
:10E1E00000B1754619E018F0B7FE80468946304602
:10E1F00018F04CFE42464B4618F0FCFC5246804656
:10E2000089465B46DDE9000135B318F0CFFFCDE963
:10E210000001AE4614F8017F7FB1A7F13006092E48
:10E2200052465B4640464946DDD9C5B92E2F16D128
:10E2300014F8017F0125002FEFD142464B46DDE95E
:10E24000000118F089FE80468946039B40464946F6
:10E250001C6005B0BDE8F08F4FF0010EDAE7BEF1AB
:10E26000000F29D042464B46DDE9000118F074FE4C
:10E2700007F0DF07452F80468946E6D10399601CE9
:10E280000A221BF04FFC16490246002019F0C4F97F
:10E2900002460B464046494618F05EFE80468946D7
:10E2A0004046494605B0BDE8F08F9FED0B7B67788F
:10E2B0008DED007B013489E7DFF828904FF00008EE
:10E2C0004046494605B0BDE8F08F00BFAFF300807F
:10E2D000000000000000F03F000000000000F0BF60
:10E2E000000024400000F87F2DE9F84F1646002377
:10E2F000002204460D4619F0A1F8002840F09D8048
:10E30000002200232046294619F08EF828B1302239
:10E31000002332707370BDE8F88F2046294619F04B
:10E3200099FF19F0C9F87BA3D3E900238146294658
:10E33000204619F083F8002800F08680B9F1000F1C
:10E34000C0F2BE804A4600206F4919F065F90246C6
:10E350000B462046294618F029FF04460D4666A1C3
:10E36000D1E9000101274FF0000822462B4618F0A2
:10E37000F3FD0022654B18F03DFC19F089F9002FE0
:10E38000CC464FF0FF3AC1464FF0000840F385807D
:10E39000DFF888E15E4C0122AEF1700945F6F32505
:10E3A0004FF02E0BA94208BFA0424FF0300309D313
:10E3B000001B61EB0501A94208BFA04203F1010364
:10E3C000F6D2DBB2337050EA010306F1010409D141
:10E3D000BA4210DACE4502F101020CD026467EE8A0
:10E3E0000245DFE7BA4204BF86F801B0B41CCE454F
:10E3F00002F10102F2D1B8F1000F0DD02246302116
:10E4000002F8011BC2F1010353442344002BF7DC43
:10E410002AEAEA7301331C44BCF1010F4CD0652396
:10E42000BCF1000F2370C5BF2B236370611CA11CBE
:10E430006046BDE8F84F0DF0FFB905F100431D46F9
:10E440002D23337001365BE72DA3D3E9002320464B
:10E45000294619F011F800287FF470AFB9F10E0FBA
:10E4600009F101073DDDA9F10E08424600202649C9
:10E4700019F0D2F802460B462046294618F096FEBF
:10E480000022224B18F0B6FB19F002F9002FA9F177
:10E490000F0A4FF0010C3FF77BAF334630222E249A
:10E4A00003F8022B74707FEA090618D01E4403F8A3
:10E4B000012BB342FBD16BE700232370BDE8F88F3B
:10E4C000C9F100020020104919F0A6F802460B46D7
:10E4D0002046294618F040FD04460D463FE71E46FB
:10E4E00056E7C9F10E0200200749C84619F094F812
:10E4F0004FF0010939E700BF0000901EC4BCD642AE
:10E5000050EFE2D6E41A4B44000024400000E03F04
:10E5100000407A108DEDB5A0F7C6B03EB0A6020857
:10E5200070B54FF0FF3006F0B1FA04466FF07F404F
:10E5300006F0ACFA0646204618F098FC00220C4B78
:10E5400018F00AFD044630460D4618F08FFC06A36D
:10E55000D3E9002318F02AFE02460B46204629463E
:10E5600018F048FB70BD00BF0000E0DFFFFF6F4305
:10E570000000F03D000000002DE9F843044600F1E2
:10E580006C060CF04DFF07460CF050FF304611F0C2
:10E5900079FD2368C51A304611F074FD237DC1173B
:10E5A000C4E90001042B40D8DFE803F04693617B07
:10E5B000030003232375284618F068FC6BA3D3E9F6
:10E5C00000238046894618F057FF48B169A3D3E974
:10E5D00000234046494618F031FF002840F0A38050
:10E5E00066A3D3E900234046494618F045FF48B1E9
:10E5F0004046494663A3D3E9002318F01FFF0028D3
:10E6000040F095802269E368013200212261217582
:10E61000202B0CD1A3686FEA1322D2B2D9B2914257
:10E6200000F08E8023690133236100232375FB07EB
:10E6300000D462B6BDE8F883284618F027FC53A33F
:10E64000D3E900238046894618F016FF0028EED053
:10E65000404649464FA3D3E9002318F0EFFE0028B7
:10E66000E5D0002301222275A360E360DFE728469E
:10E6700018F00CFC3DA3D3E900238046894618F02E
:10E68000FBFE40B1404649463AA3D3E9002318F0C7
:10E69000D5FE0028CBD123690022013323612275E6
:10E6A000C5E7284618F0F2FB30A3D3E900238046E3
:10E6B000894618F0E1FE0028EDD0404649462DA3DA
:10E6C000D3E9002318F0BAFE0028E4D00423237510
:10E6D000ADE7284618F0DAFB30A3D3E900238046E3
:10E6E000894618F0C9FE38B12EA3D3E9002340466D
:10E6F000494618F0A3FE98B900221B4B40464946F4
:10E7000018F0BAFE0028C6D04046494614A3D3E903
:10E71000002318F093FE0028BDD00223237586E75E
:10E720000323237583E7E3680133E36070E7E3685D
:10E73000A268012199400A430133E360A26067E7C0
:10E740006FEA1362D2B2C3F3074393427FF46AAF16
:10E7500084F8CC30A369984767E700BFAFF3008027
:10E76000000000000018A54000209C409A9999994B
:10E7700099197C4033333333331385409A999999EF
:10E78000991995406666666666A69F40000000007F
:10E790000020BC40000000000018C5400000000040
:10E7A0000020AC40000000000018B5400000000050
:10E7B000294B1B68002B70B506460CBF182005209E
:10E7C0000D4609F0CFF8002E044639DD234B1868BA
:10E7D00018F05CFB1EA3D3E9002318F0BDFB002258
:10E7E000002318F007FA18F067FE236820EAE071AA
:10E7F000B1F5806FA8BF4FF48061DB682046984771
:10E8000023681749D3F8803091FBF6F120469847EA
:10E81000002D14DDA5F11406012EB8BF01263046E7
:10E820000DF0F2FD23682046DB6800219847A81B05
:10E830000128B8BF0120BDE870400DF0E5BD70BDF6
:10E8400003680021DB68BDE870401847AFF3008023
:10E850001010101010101040480600200802002070
:10E8600040420F000000000038B5154B1B68002B1C
:10E8700004460CBF1820052009F074F80546204610
:10E8800018F004FB0CA3D3E9002318F065FB002269
:10E89000002318F0AFF918F00FFE2B6820EAE071A2
:10E8A000B1F5007FDB68A8BF4FF400712846984798
:10E8B000044B1C6038BD00BF101010101010004039
:10E8C000480600200802002030B52D4B8DB01A6894
:10E8D0000092009A120205D4009A42F400020092BB
:10E8E000009A1A60274A284B126801921B6802930B
:10E8F0000EF040FB18F0CAFACDE90401019B9BB26F
:10E900000193029B9BB20293DDE904011AA3D3E9B0
:10E91000002318F021FB1D4B0022CDE90401CDE9B5
:10E9200006230298019BC01A18F0A0FACDE908014D
:10E93000DDE90445019818F099FA02460B46204695
:10E94000294618F055F9CDE90A01DDE90601DDE9AE
:10E950000823DDE90A4518F029FC22462B4618F069
:10E96000FBFA00220A4B18F045F918F0CDFD039090
:10E9700003980DB030BD00BF9A9999999999F13FCC
:10E9800008030450A875FF1FCA75FF1F00005440FC
:10E9900000003E40000000002DE9F04F2DED028BFD
:10E9A000044683B0C06818F071FA80462069894631
:10E9B00018F06CFA824660698B4618F067FA0246D6
:10E9C00001F1004306460F464046494619F0EEFA6B
:10E9D00018F0BAFDE062054619F09CF9019028464E
:10E9E00019F04CF9019B0546184618F061FA4246A9
:10E9F0004B4618F0B1FA80462846894618F058FA76
:10EA000032463B4618F0A8FA02460B4640464946B5
:10EA100018F0EEF802460B465046594619F0C6FA71
:10EA200018F092FD002208EE100A00233046394605
:10EA300018F022FD28B3B5EEC08AF1EE10FA1CDD05
:10EA400011A7D7E9006718EE100A18F031FA02464C
:10EA50000B463046394618F0CBF832463B4618F0A4
:10EA6000C9F818F071FDA062E38843F00203E38067
:10EA700003B0BDEC028BBDE8F08F05A7D7E90067B6
:10EA8000E1E784ED0A8AEFE7EA2E4454FB21F93FDF
:10EA9000EA2E4454FB21F9BF08B50EF09DF9DFEDD5
:10EAA0000C7A07EE100A67EE277A17EE900A18F034
:10EAB000FFF905A3D3E9002318F078FB18F0FCFC5C
:10EAC00008BD00BFAFF30080EA2E4454FB2119407B
:10EAD0000000B4430000000008B50EF091F9DFED2E
:10EAE0000C7A07EE100A67EE277A17EE900A18F0F4
:10EAF000DFF905A3D3E9002318F058FB18F0DCFC7C
:10EB000008BD00BFAFF30080EA2E4454FB2119403A
:10EB10000000B44300000000494A21F00043934242
:10EB20002DE9704304460D464BDC464A93420E469F
:10EB30000EDC3FA3D3E9002318F05CF80022424B1F
:10EB400018F09AFC00284CD020462946BDE8708376
:10EB50003E4A93423BDCB3F1804F42DD18F074FF34
:10EB60002246804689462B462046294618F0F4F96D
:10EB70000022354B18F03EF819F02AFE02460B46EB
:10EB80004046494618F036F802460B4600202E490A
:10EB900018F00CFB424604460D464B46404649469B
:10EBA00018F028F802460B462046294618F022F8AD
:10EBB00002F06AF8002EC9DC01F100431946BDE8F5
:10EBC000708302460B4618F015F8BDE8708318F004
:10EBD0003BFF02F059F818A3D3E9002318F00AF814
:10EBE000E8E722462B462046294618F0B5F980462C
:10EBF00089462046294618F027FF002204460D4684
:10EC0000114B4046494617F0F5FF19F0E1FD00228F
:10EC10000D4B17F0EFFF02460B464046494618F0F1
:10EC2000C5FA22462B4617F0E5FF00F0C5FAC1E70A
:10EC30009C7500883CE4377EEF39FAFE422EE63FB1
:10EC4000FFFFEF7FFFFF2F3E0000F03F0000B041CD
:10EC50002DE9F84FC44B21F000469E4204460D4674
:10EC60008A460EDDC14B9E4200F3AC8000F0A780C7
:10EC7000BAF1000F40F3EA809FA1D1E90001BDE89D
:10EC8000F88FBB4B9E4200F3B580A3F1DE739E422A
:10EC900040F3A0804FF0FF3B22462B4620462946FA
:10ECA00018F05AF902460B468046894618F054F986
:10ECB00093A3D3E9002306460F4618F04DF992A31B
:10ECC000D3E9002317F096FF32463B4618F044F98B
:10ECD0008FA3D3E9002317F08DFF32463B4618F08F
:10ECE0003BF98DA3D3E9002317F084FF32463B465E
:10ECF00018F032F98AA3D3E9002317F07BFF3246DC
:10ED00003B4618F029F988A3D3E9002317F072FFD6
:10ED100042464B4618F020F985A3D3E900238046EC
:10ED200089463046394618F017F983A3D3E9002302
:10ED300017F05EFF32463B4618F00EF980A3D3E988
:10ED4000002317F055FF32463B4618F005F97EA325
:10ED5000D3E9002317F04CFF32463B4618F0FCF88D
:10ED60007BA3D3E9002317F043FF32463B4618F05C
:10ED7000F3F8BBF1FF3F02460B466CD040464946D4
:10ED800017F038FF22462B4618F0E6F8794E7A4BFA
:10ED90004FEACB0B5E449B44DBE9002317F028FFCE
:10EDA00022462B4617F024FF02460B46D6E9000107
:10EDB00017F01EFFBAF1000F43DBBDE8F88F002803
:10EDC0003FF456AF22462B462046294617F012FF45
:10EDD000BDE8F88F60A3D3E9002317F00BFF0022F2
:10EDE000664B18F049FB00283FF454AF20462946F3
:10EDF000BDE8F88F18F028FE614B9E4204460D4690
:10EE000039DCA3F550239E425EDC02460B4617F028
:10EE1000F1FE0022594B17F0EBFE002206460F468A
:10EE20004FF080432046294617F0E4FE02460B4689
:10EE30003046394618F0BAF94FF0000B04460D463B
:10EE40002AE701F100431946BDE8F88F44A1D1E952
:10EE50000001BDE8F88F4046494617F0CBFE224638
:10EE60002B4618F079F802460B462046294617F043
:10EE7000BFFEBDE8F88F434B9E421ADC0022424B96
:10EE800017F0B6FE002206460F463F4B20462946A5
:10EE900018F062F80022394B17F0ACFE02460B4620
:10EEA0003046394618F082F94FF0020B04460D4601
:10EEB000F2E602460B460020344918F077F94FF08D
:10EEC000030B04460D46E7E600222C4B17F090FE9C
:10EED000002206460F46294B2046294617F08AFE97
:10EEE00002460B463046394618F060F94FF0010BE8
:10EEF00004460D46D0E600BF182D4454FB21F93FCF
:10EF000011DA22E33AAD903FEB0D76244B7BA93F1B
:10EF1000513DD0A0660DB13F6E204CC5CD45B73FE9
:10EF2000FF8300922449C23F0D5555555555D53F95
:10EF30002F6C6A2C44B4A2BF9AFDDE522DDEAD3F89
:10EF40006D9A74AFF2B0B33F711623FEC671BC3F29
:10EF5000C4EB98999999C93F9C7500883CE4377E29
:10EF6000182D4454FB21F9BFFFFF0F440000F07F30
:10EF7000FFFFDB3FC0A60208E0A602080000F03F4A
:10EF8000FFFFF23FFF7F03400000F83F0000F0BFAB
:10EF90002DE9F843C1F30A59A9F2FF35132D0246B2
:10EFA0000B460C4606468846074622DC002D50DB01
:10EFB000DFF8F09049FA05F901EA090E5EEA060663
:10EFC0001CD036A3D3E9002317F014FE002200233F
:10EFD00018F052FA48B1002C04DD4FF4801343FAC4
:10EFE00005F5A84428EA0904002721463846BDE86B
:10EFF000F883332D06DDB5F5806F3DD010461946F8
:10F00000BDE8F883A9F213494FF0FF3E2EFA09F943
:10F0100010EA090FF2D021A3D3E9002317F0EAFD8B
:10F020000022002318F028FA0028DED0002C09DD89
:10F03000142D2BD00127C5F1340507FA05F5AE19BB
:10F0400028BFB844444626EA090721463846BDE8A9
:10F05000F88312A3D3E9002317F0CCFD002200238C
:10F0600018F00AFA0028C0D0002C0BDB54EA06077F
:10F0700006D00027084CB8E717F0BCFDBDE8F883C0
:10F080003C46B2E700274FF00044AEE704F1010828
:10F09000D8E700BFAFF300800000F03F9C75008808
:10F0A0003CE4377EFFFF0F002DE9F041C1F30A5722
:10F0B000A7F2FF35132D02460B460C46884606463E
:10F0C0001CDC002D3FDB3A4F2F41864601EA070C3E
:10F0D0005CEA0E0E17D034A3D3E9002317F08AFDA3
:10F0E0000022002318F0C8F920B1002C3FDB28EAE9
:10F0F0000704002621463046BDE8F081332D06DDA9
:10F10000B5F5806F2FD010461946BDE8F081A7F203
:10F1100013474FF0FF3E2EFA07F73842F3D022A3F1
:10F12000D3E9002317F066FD0022002318F0A4F9AC
:10F130000028DFD0002C20DB444626EA07062146C3
:10F140003046BDE8F08118A3D3E9002317F052FD43
:10F150000022002318F090F90028CBD0002C17DBF8
:10F1600000263446C6E717F045FDBDE8F0814FF4B0
:10F17000801343FA05F5A844B9E7142D10D00123F4
:10F18000C5F1340503FA05F5AE1928BF9844D3E755
:10F1900024F00042074B324318BF1C460026A9E763
:10F1A00004F10108C8E700BF9C7500883CE4377E85
:10F1B000FFFF0F000000F0BF2DE9F04FD84B994240
:10F1C00087B0804689460E4613DCD64B21F00044BA
:10F1D0009C4218DD0022D44B18F026F9002879D083
:10F1E000002200230020D14917F0E0FF07B0BDE85E
:10F1F000F08FCF4B99422FDD42464B4617F0FAFC79
:10F2000007B0BDE8F08FCB4B9C4270DDCA4B1E446B
:10F210009E427ED80022C94B4046494617F0EAFC80
:10F220004FEA215AAAF2FF3ABAF1000F04460D46FE
:10F230000E4640F3DE8142464B4617F0D9FC0246AB
:10F240000B460020BD4917F0D3FC22462B4617F091
:10F25000ADFFCDE902010BE0B94B9E42DADD9FED37
:10F260009A7B8DED027B4FEA265A4446AAF2FF3A7A
:10F27000B44BC6F313069E4246F07F5500F3E78079
:10F2800045F44015204629460022AC4B17F0B0FC4F
:10F29000002204460D46AC4B17F05EFE22462B467C
:10F2A00017F05AFEA046CDE90401A946CDE90001B8
:10F2B000002E3AD1002200232046294618F0B4F847
:10F2C000002800F0CE80BAF1000F40F074810020D9
:10F2D000002195E742464B464046314617F088FCF0
:10F2E00002460B4617F062FF07B0BDE8F08F002220
:10F2F000964B17F07FFC0022002318F0BDF8002881
:10F3000000F0CC80924B9C4200F3C88040464946B6
:10F3100076E700228C4B17F01FFE42464B4617F053
:10F320001BFECDE900014FF0000A00224FF08043A0
:10F330004046494617F05EFC02460B4640464946A9
:10F3400017F034FF02460B4606460F4617F004FE40
:10F350005FA3D3E9002304460D4617F0FDFD5EA32D
:10F36000D3E9002317F046FC22462B4617F0F4FDA4
:10F370005BA3D3E9002317F03DFC22462B4617F090
:10F38000EBFD59A3D3E9002317F034FC22462B46AA
:10F3900017F0E2FD56A3D3E9002317F02BFC224619
:10F3A0002B4617F0D9FD54A3D3E9002317F022FC14
:10F3B00022462B4617F0D0FD51A3D3E9002317F0C6
:10F3C00019FC22462B4617F0C7FD04460D46BAF13C
:10F3D000000F00F0BF80504617F058FD4AA3D3E954
:10F3E000002382468B4617F0B7FDDDE90023CDE907
:10F3F00004012046294617F0FDFB32463B4617F034
:10F40000ABFD43A3D3E9002304460D4650465946BD
:10F4100017F0A2FDDDE9022317F0ECFB02460B46D4
:10F420002046294617F0E6FB02460B46DDE90001BF
:10F4300017F0DEFB42464B4617F0DAFB02460B465E
:10F44000DDE9040117F0D4FB07B0BDE8F08F45F407
:10F450000015C6F5801620462946B6100AF1010AA5
:10F4600012E72DA3D3E900232046294617F074FDA7
:10F4700002460B460020314917F0BAFBDDE90423B0
:10F4800017F06AFD06460F46BAF1000F73D1024627
:10F490000B462046294617F0ABFBB1E642464B46E9
:10F4A0004046494617F058FD0022274B17F054FDFF
:10F4B00002460B464046494617F09AFB07B0BDE8A6
:10F4C000F08F00BFAFF300800000000000000000DC
:10F4D00044523EDF12F1C23F9FC678D0099AC33F23
:10F4E000DE03CB966446C73FAF788E1DC571CC3F17
:10F4F000599322942449D23F04FA97999999D93F74
:10F50000935555555555E53F0000E0FE422EE63F28
:10F51000763C7935EF39EA3D555555555555E53F1A
:10F520007982DA3FFFFFEF3F0000F0BF000050C3D9
:10F53000FFFFEF7FFFFF1F3E3C412D400000F03FEB
:10F54000FFFF3F439DA006000000E03F0000504346
:10F55000FFFF8F3CDDE9004522462B4617F04AFBB2
:10F5600032463B4617F0F8FC02460B462046294639
:10F5700017F03EFB9CE7504617F088FC23A3D3E925
:10F58000002382468B4617F0E7FC22A3D3E9002331
:10F59000804689465046594617F0DEFCDDE90223D5
:10F5A00017F028FB02460B463046394617F020FB81
:10F5B00022462B46DCE7504617F068FC15A3D3E93A
:10F5C000002306460F4617F0C7FCDDE9022317F0BB
:10F5D00011FB0EA3D3E9002304460D4630463946FD
:10F5E00017F0BAFC02460B462046294617F002FBEC
:10F5F00006E60022044B17F0FBFA02460B46404693
:10F60000494617F0F5FA20E60000F03F0000E0FE62
:10F61000422EE63F763C7935EF39EA3D00000000A6
:10F6200008B518F097FD04A3D3E9002317F0BEFD39
:10F6300008BD00BFAFF30080EF39FAFE422EE63F6F
:10F640002DE9F043DFF8B4808BB004460D4601F09D
:10F65000F3F898F90030013306460F462BD02246C6
:10F660002B462046294617F011FF814618BB20463D
:10F67000294618F0E9F91FA3D3E9002317F0FCFE8F
:10F68000C8B1194A98F90030CDF820900321CDE98E
:10F690000445CDE902458DE806008BB9134B4FF0C8
:10F6A0006042CDE90623684619F020FF70B1089B3F
:10F6B0009BB9DDE90667304639460BB0BDE8F083FB
:10F6C0000B490020022BCDE90601ECD11AF08CF891
:10F6D00022230360089B002BEBD01AF085F8089BCF
:10F6E0000360E6E7AFF300800CBC0208FFFFEF47C2
:10F6F0000000F07F7DF8B98FCE33864006040020ED
:10F700002DE9F043DFF8E4808BB004460D4601F0AC
:10F7100043F998F90030013306460F4633D02046AE
:10F72000294619F0DDFE70B32CA3D3E9002320464F
:10F73000294617F0A1FE814650BB2AA3D3E9002336
:10F740002046294617F07AFEE8B198F90030204AA1
:10F75000CDF82090002600270421022BCDE9044596
:10F76000CDE90245CDE906678DE8060029D0684657
:10F7700019F0BCFE28B3089B1BB11AF035F8089BA2
:10F780000360DDE90667304639460BB0BDE8F0831B
:10F790000F4A98F90030019203210022CDE9044577
:10F7A000CDE90245009108922BB90A4B4FF0604217
:10F7B000CDE90623DBE708490020022BCDE906014D
:10F7C000D5D11AF011F822230360D4E7AFF30080FB
:10F7D00014BC0208FFFFEF470000F07FEF39FAFE8C
:10F7E000422E864051302DD5104987C00604002096
:10F7F0002DE9F04FDFF80C938DB006460F46144606
:10F800001D4601F0C5FC99F90080B8F1FF3FCDE934
:10F81000000136D022462B462046294617F036FEF8
:10F82000834670BB32463B463046394617F02EFEC3
:10F830008246002840F0A28030463946002200234C
:10F8400017F0F2FD10B3002200232046294617F0DE
:10F85000EBFD834600286AD09FEDA17B0122A44BDB
:10F86000CDF828A00292CDE90467CDE906458DEDDB
:10F87000087B0393B8F1000F45D09FED9B7B8DED86
:10F88000007BDDE900010DB0BDE8F08FDDE900018E
:10F8900019F026FE8046002800F08D804FF0000A07
:10F8A0004FF0000BDDE9000152465B4617F0BCFD4E
:10F8B0000028E6D03046394619F012FE0028E0D084
:10F8C0002046294619F00CFE0028DAD099F90030BC
:10F8D000874A039204210022022BCDE90467CDE977
:10F8E0000645CDE908AB02910A9203D002A819F0AF
:10F8F000FDFD68B919F078FF2223036008E09FED51
:10F90000787B8DED087B02A819F0F0FD002830D03F
:10F910000A9B1BB119F068FF0A9B03609DED087BF1
:10F920008DED007BDDE900010DB0BDE8F08F2046D4
:10F93000294619F0D5FD0028A3D000220023204637
:10F94000294617F07BFD00289BD099F90030684AC2
:10F95000CDF828B00121CDE90467CDE90645029133
:10F960000392002BCBD063490020022BCDE9080184
:10F97000C9D119F039FF21230360C9E70022002310
:10F980002046294617F050FD00283FF47AAF5A4B25
:10F990005749CDF828B000220120B8F1020FCDE977
:10F9A00004670290CDE90645CDE908230391AAD169
:10F9B000CDE9002365E73046394619F091FD00286E
:10F9C0003FF46CAF2046294619F08AFD00283FF429
:10F9D00065AFDDE900231046194617F057FD0028F2
:10F9E0005FD1032399F900800293414B0A90CDE93E
:10F9F0000467CDE906450393B8F1000F2BD1DFF87A
:10FA000008B14FF0604A0022002330463946CDE964
:10FA100008AB17F013FD00283FF468AF0022374B06
:10FA20002046294617F098FA04460D4619F066FD5F
:10FA300002460B462046294617F0F6FC70BB304BB9
:10FA400099F900804FF06042CDE90823B8F1020F28
:10FA50007FF44CAF4EE7DFF8B4B04FF0000A00225D
:10FA6000002330463946CDE908AB17F0E7FC002803
:10FA7000ECD00022214B2046294617F06DFA0446AF
:10FA80000D4619F03BFD02460B462046294617F06D
:10FA9000CBFC18B9174B0022CDE9082399F9008057
:10FAA000D4E799F90090124BCDF828800122CDE9D6
:10FAB0000467CDE9064502920393B9F1000F3FF4C4
:10FAC0001EAF002200231046194617F06FFBB9F154
:10FAD000020FCDE908013FF44CAF14E7AFF300800B
:10FAE0000000000000000000000000000000F03FE7
:10FAF0002CBC02080000F0FF0000F03F0000E03FD7
:10FB0000FFFFEFC706040020FFFFEF470000F07F74
:10FB10002DE9F84FC44E21F00043B34204460D4690
:10FB20000DDD03F1404303F58013034340F0B9803A
:10FB3000002940F3408100200021BDE8F88FBB4E32
:10FB4000B34240F3A6800029C0F2788102460B46FA
:10FB50000020B74917F04CF80022B64B17F0FCF91B
:10FB600004460D4618F034FE95A3D3E900238946D8
:10FB700080462946204617F0EFF993A3D3E90023E6
:10FB800017F038F822462B4617F0E6F990A3D3E990
:10FB9000002317F02DF822462B4617F0DDF98EA32F
:10FBA000D3E9002317F026F822462B4617F0D4F9A4
:10FBB0008BA3D3E9002317F01BF822462B4617F03E
:10FBC000CBF989A3D3E9002317F014F822462B467A
:10FBD00017F0C2F986A3D3E9002382468B4620465C
:10FBE000294617F0B9F984A3D3E9002317F000F8E8
:10FBF00022462B4617F0B0F981A3D3E9002316F073
:10FC0000F9FF22462B4617F0A7F97FA3D3E900237B
:10FC100016F0EEFF22462B4617F09EF90022844B89
:10FC200016F0E8FF02460B465046594617F0BEFA5A
:10FC300042464B4617F090F9002682468B463246E4
:10FC40004B463046494617F087F902460B46204698
:10FC5000294616F0CDFF324604460D464B46404637
:10FC6000494616F0C7FF02460B462046294617F0C4
:10FC70009DFA02460B465046594616F0BBFF3246E7
:10FC80004B4616F0B7FF02460B4616F0B3FFBDE831
:10FC9000F88F694A93420EDC5DA1D1E90001BDE80D
:10FCA000F88F02460B4616F0A3FF02460B4617F0EC
:10FCB0007DFABDE8F88F02460B4617F04DF940A3D8
:10FCC000D3E9002306460F4617F046F93EA3D3E9D1
:10FCD000002316F08FFF32463B4617F03DF93CA358
:10FCE000D3E9002316F084FF32463B4617F034F97F
:10FCF00039A3D3E9002316F07DFF32463B4617F0C7
:10FD00002BF937A3D3E9002316F072FF32463B46A6
:10FD100017F022F934A3D3E9002316F06BFF324623
:10FD20003B4617F019F932A3D3E9002380468946F0
:10FD30003046394617F010F92FA3D3E9002316F007
:10FD400057FF32463B4617F007F92DA3D3E90023AE
:10FD500016F050FF32463B4617F0FEF82AA3D3E9CF
:10FD6000002316F045FF32463B4617F0F5F8002217
:10FD70002F4B16F03FFF02460B464046494617F010
:10FD800015FA22462B4617F0E7F802460B4622A149
:10FD9000D1E9000116F02CFF02460B462046294609
:10FDA00016F026FF02460B4619A1D1E9000116F014
:10FDB0001FFFBDE8F88F1AA1D1E90001BDE8F88F57
:10FDC00009F7FD0DE13D023F88B20175E0EF493FC3
:10FDD0003B8F68B52882A43F5544880E55C1C93F62
:10FDE0007D6FEB0312D6D43F555555555555C53F3C
:10FDF00082922EB1C5B8B33F59018D1B6C06E63F08
:10FE0000C88A599CE52A00404B2D8A1C273A03409A
:10FE1000182D4454FB21F93F075C143326A6913C6E
:10FE2000182D4454FB210940FFFFEF3FFFFFDF3F48
:10FE30000000F03F0000E03F0000603C00225C4B0F
:10FE400016F0D8FE00225B4B17F086F840A3D3E9EA
:10FE5000002304460D4617F07FF83FA3D3E90023A3
:10FE600016F0C8FE22462B4617F076F83CA3D3E9DD
:10FE7000002316F0BDFE22462B4617F06DF83AA37C
:10FE8000D3E9002316F0B6FE22462B4617F064F89D
:10FE900037A3D3E9002316F0ABFE22462B4617F01A
:10FEA0005BF835A3D3E9002316F0A4FE22462B46C7
:10FEB00017F052F8804689462046294618F088FCFB
:10FEC0002FA3D3E9002306460F462046294617F004
:10FED00043F82DA3D3E9002316F08AFE22462B46D1
:10FEE00017F03AF82AA3D3E9002316F083FE22463E
:10FEF0002B4617F031F828A3D3E9002316F078FE3B
:10FF000022462B4617F028F80022294B16F072FEE5
:10FF100002460B464046494617F048F932463B46F2
:10FF200017F01AF81EA3D3E9002316F061FE32463B
:10FF30003B4616F05FFE02460B4616F05BFE02469D
:10FF40000B4619A1D1E9000116F052FEBDE8F88F69
:10FF500009F7FD0DE13D023F88B20175E0EF493F31
:10FF60003B8F68B52882A43F5544880E55C1C93FD0
:10FF70007D6FEB0312D6D43F555555555555C53FAA
:10FF800082922EB1C5B8B33F59018D1B6C06E63F76
:10FF9000C88A599CE52A00404B2D8A1C273A034009
:10FFA000075C143326A6913C182D4454FB210940CC
:10FFB0000000F03F0000E03F434A91422DE9F84342
:10FFC00004460D4639DD414A914209DD02F179527C
:10FFD000914240DD02460B4616F00CFEBDE8F88368
:10FFE00001F1404202F58012024330D0B1F1804F5E
:10FFF0003ADC0022364B16F0FBFD02460B46044667
:020000040801F1
:100000000D4616F0F7FD224606460F462B462046C3
:10001000294616F0A1FF02460B463046394616F037
:10002000E9FD18F0D5FB0B4602462946204616F09E
:10003000E1FDBDE8F843FFF7BFB802460B4616F0F6
:10004000D7FD02460B4617F0B1F8BDE8F883002053
:100050000021BDE8F88300F017FE19A3D3E90023BF
:1000600016F0C8FDBDE8F88302460B4616F074FF93
:100070000022174B16F0BCFD18F0AAFB2246804662
:1000800089462B462046294616F0B4FD42460646D0
:100090000F464B462046294616F0ACFD02460B465D
:1000A00000200B4917F082F80B46024639463046CD
:1000B00016F09EFDBDE8F84300F0E6BDAFF300800A
:1000C000EF39FAFE422EE63FFFFFEF3FFFFFAF4161
:1000D0000000F03F000000002DE9F047BE4B21F08A
:1000E0000048984584B004460D4612DD08F14048AA
:1000F00008F58018034658EA030321D002460B4650
:1001000016F076FD02460B4617F050F804B0BDE835
:10011000F087B24B98458A4629DCB8F1795F80F2C6
:10012000658191A3D3E9002316F064FD0022AC4B56
:1001300017F0A2F9D8B12046294604B0BDE8F087EF
:100140008BA3D3E9002316F007FF8BA3D3E9002389
:1001500006460F462046294616F0FEFE02460B468E
:100160003046394616F046FD04B0BDE8F08720461B
:10017000294617F069FC02460B460020984916F004
:1001800037FD0022974B16F0E7FE7DA3D3E900234D
:1001900004460D4616F0E0FE7BA3D3E9002316F0DB
:1001A00029FD22462B4616F0D7FE79A3D3E900237A
:1001B00016F01EFD22462B4616F0CEFE76A3D3E99E
:1001C000002316F017FD22462B4616F0C5FE74A339
:1001D000D3E9002316F00CFD22462B4616F0BCFE98
:1001E00071A3D3E9002316F005FD22462B4616F035
:1001F000B3FE6FA3D3E90023CDE9000120462946D1
:1002000016F0AAFE6CA3D3E9002316F0F1FC2246F7
:100210002B4616F0A1FE6AA3D3E9002316F0EAFCF0
:1002200022462B4616F098FE67A3D3E9002316F06A
:10023000DFFC22462B4616F08FFE694B002216F09B
:10024000D9FCCDE902012046294618F0C1FA664BD7
:10025000984506460F4666DCDDE90223DDE900012C
:1002600016F0A4FF3246CDE900013B463046394640
:1002700016F0C0FC02460B46DDE9000116F06CFEEC
:100280004FF00008CDE9000142463B464046394662
:1002900016F062FE02460B462046294616F0A8FCE0
:1002A000424604460D463B463046394616F0A2FC0F
:1002B00002460B462046294616F078FF02460B46BA
:1002C00016F098FC02460B462BA1D1E9000116F06E
:1002D0008FFC02460B46DDE9000116F089FC424620
:1002E00004460D463B464046394616F083FC02461E
:1002F0000B4637A1D1E9000116F07AFC02460B4605
:100300002046294616F074FC02460B4630A1D1E97E
:10031000000116F06DFCBAF1000F3FF7F7AE01F1E6
:1003200000431946F2E6DDE90223DDE9000116F09B
:100330003DFF32463B4616F00FFE32463B4616F076
:1003400059FC02460B4616F055FC0BA3D3E90023DB
:1003500016F04EFC02460B4605A1D1E9000116F04D
:1003600047FCD8E7AFF300809C7500883CE4377EFB
:10037000182D4454FB21F93F075C143326A6913C09
:1003800009F7FD0DE13D023F88B20175E0EF493FFD
:100390003B8F68B52882A43F5544880E55C1C93F9C
:1003A0007D6FEB0312D6D43F555555555555C53F76
:1003B00082922EB1C5B8B33F59018D1B6C06E63F42
:1003C000C88A599CE52A00404B2D8A1C273A0340D5
:1003D000182D4454FB21E93FFFFFEF3FFFFFDF3FB4
:1003E0000000F03F0000E03F3233EF3F02460B4693
:1003F00016F0B2FD37A3D3E9002306460F4616F0E8
:10040000ABFD36A3D3E9002316F0F4FB32463B469E
:1004100016F0A2FD33A3D3E9002316F0E9FB324620
:100420003B4616F099FD31A3D3E9002316F0E2FB19
:1004300032463B4616F090FD2EA3D3E9002316F07A
:10044000D7FB32463B4616F087FD2CA3D3E90023A9
:1004500016F0D0FB32463B4616F07EFD29A3D3E9C9
:100460000023804689463046394616F075FD27A39D
:10047000D3E9002316F0BCFB32463B4616F06CFD78
:1004800024A3D3E9002316F0B5FB32463B4616F011
:1004900063FD22A3D3E9002316F0AAFB32463B46B4
:1004A00016F05AFD00220A4B16F0A4FB02460B463A
:1004B0004046494616F07AFE22462B4616F04CFD81
:1004C00022462B4616F096FB04B0BDE8F08700BF2D
:1004D0000000F03F09F7FD0DE13D023F88B20175D4
:1004E000E0EF493F3B8F68B52882A43F5544880E12
:1004F00055C1C93F7D6FEB0312D6D43F55555555B5
:100500005555C53F82922EB1C5B8B33F59018D1BD9
:100510006C06E63FC88A599CE52A00404B2D8A1C90
:10052000273A0340000000002DE9F84F1D465342D2
:10053000134325F0004ADFF8E0E14AEAD37373453C
:10054000144606460F4647D8C0F1000848EA00089E
:1005500021F0004343EAD878F0458B463CD805F1BA
:10056000404808F5801858EA020850D04FEAA578AC
:1005700008F0020848EAD17850EA030134D052EA80
:100580000A023CD0F24557D0734538D0A3EB0A039A
:100590001B153C2B42DC002D70DB22462B463046DF
:1005A000394616F003FE17F04FFAFEF751FBB8F18B
:1005B000010F5FD0B8F1020F4ED0B8F1000F62D03A
:1005C00043A3D3E9002316F013FB43A3D3E900238D
:1005D00016F00EFBBDE8F88F32463B462046294612
:1005E00016F008FBBDE8F88FB8F1020F1AD0B8F189
:1005F000030F10D13AA1D1E90001BDE8F88FBBF19A
:10060000000F14DB38A1D1E90001BDE8F88FBDE887
:10061000F84FFEF71DBB3946BDE8F88F32A1D1E98E
:100620000001C4E72CA1D1E90001BDE8F88F30A199
:10063000D1E90001BDE8F88F534526D0B8F1020F8B
:10064000F0D0B8F1030FD5D0B8F1010F4FF0000092
:1006500029D00021BDE8F88F1DA3D3E9002316F0AF
:10066000C7FA02460B461CA1D1E9000116F0C0FAF8
:10067000BDE8F88F01F10041BDE8F88F3C338CDA1A
:100680000020002193E7BDE8F88FB8F1020F18D0E1
:10069000B8F1030F10D0B8F1010F08D016A1D1E9BD
:1006A0000001BDE8F88F4FF00041BDE8F88F14A1BC
:1006B000D1E90001BDE8F88F13A1D1E90001BDE83F
:1006C000F88F13A1D1E90001BDE8F88FAFF30080E6
:1006D000075C143326A6A13C182D4454FB21094085
:1006E000182D4454FB2109C0182D4454FB21F93F17
:1006F000182D4454FB21F9BF182D4454FB21E93F28
:10070000182D4454FB21E9BFD221337F7CD902C08C
:10071000D221337F7CD902400000F07F000000002E
:1007200043422DE9F047034321F000463E4A46EAA2
:10073000D373934204460D4613D896423DD03B4BAB
:100740009E428A4617DC36A3D3E9002316F052FAFC
:100750000022002316F090FEA8B320462946BDE8EB
:10076000F08702460B4616F043FA02460B4616F097
:100770001DFDBDE8F0872E4B9E42354624DD3346F5
:100780000246314616F036FA224606460F462B46FA
:100790000020254916F02CFA02460B463046394611
:1007A00016F004FDFEF708FD0022224B16F0D4FBE4
:1007B000BAF1000F2FDBBDE8F0870022002316F00E
:1007C000F5FCBDE8F087354622462B4620462946F3
:1007D00016F010FA22462B4606460F4616F0BCFBD2
:1007E0002246804689462B4600200F4916F000FA23
:1007F00002460B464046494616F0D8FC32463B4678
:1008000016F0F8F9FEF7D8FC00220A4B16F0A4FB0C
:10081000BAF1000FCFDA01F100431946BDE8F087C5
:100820009C7500883CE4377E0000F03FFFFF2F3EC0
:10083000FFFFDF3F0000E03F2DE9F8434E4B21F082
:1008400000449C4206460F461BDC4C4B9C4222DD7A
:100850004B4B9C4263DD4B4B9C427BDD4A4B9C42A5
:1008600046DD01339C4240D041A3D3E9002310462A
:10087000194616F071FB06460F4630463946BDE86C
:10088000F88302460B4616F067FB06460F463046D5
:100890003946BDE8F88317F0D7F802F0B1FC002222
:1008A0003A4B8046894616F0A5F9B4F1725F0646C8
:1008B0000F46ECDB42464B464046494616F04CFBA1
:1008C00032463B4604460D463046394616F092F90C
:1008D00002460B462046294616F068FC00222B4BA8
:1008E00016F088F906460F46D1E7294B9842BBD847
:1008F0003046394617F0A8F80022264B16F02CFB9C
:1009000000F04AF8002204460D46224B16F024FB64
:1009100022462B4616F020FB06460F46B7E717F097
:1009200093F800F039F800221A4B06460F4616F0ED
:1009300013FB32463B4604460D460020154916F08F
:1009400035FC02460B462046294616F053F906466A
:100950000F469CE717F078F800F01EF800220D4BC8
:1009600016F0FAFA06460F4691E700BFAFF3008093
:100970009C7500883CE4377EFFFFEF7F422ED63F18
:10098000FFFF3540412E8640CD3386400000F03FCA
:100990007DF8B98F0000E03F2DE9F04FB04E21F017
:1009A0000042B24283B004460D464FEAD1770DD9DA
:1009B000AC4EB24225D9C1F31303034340F0EC809F
:1009C0000FB10020002103B0BDE8F08FA64B9A4282
:1009D00000F2CB80A54B9A4200F2DC808AA3D3E9D7
:1009E000002316F007F90022A14B16F045FD002860
:1009F00000F006812046294600229D4B16F0FAF8A9
:100A0000E1E783A3D3E9002316F036FD002840F088
:100A1000C88081A3D3E900232046294616F00EFDA5
:100A20000028CED1934E7EA3D3E9002306EBC70660
:100A30002046294616F090FAD6E9002316F0DAF897
:100A400016F03AFD064616F021FA77A3D3E9002303
:100A50008046894616F080FA02460B462046294613
:100A600016F0C6F872A3D3E90023CDE90001404691
:100A7000494616F071FA82468B4652465B46DDE9DE
:100A8000000116F0B5F804460D4622462B462046D6
:100A9000294616F061FA68A3D3E900238046894607
:100AA00016F05AFA66A3D3E9002316F0A1F84246DD
:100AB0004B4616F051FA64A3D3E9002316F09AF8D6
:100AC00042464B4616F048FA61A3D3E9002316F0DC
:100AD0008FF842464B4616F03FFA5FA3D3E9002356
:100AE00016F088F842464B4616F036FA02460B4698
:100AF0002046294616F07CF880468946002E58D0BC
:100B00002046294642464B4616F026FA42460446FF
:100B10000D464B4600204FF0804116F069F8024622
:100B20000B462046294616F041FB02460B4650462E
:100B3000594616F05DF8DDE9002316F059F80B462A
:100B400002464B49002016F053F86FF47F739E4223
:100B500051DA06F57A7601EB065100224FF0B873B0
:100B600016F0FAF903B0BDE8F08F434B9A423FF616
:100B700059AF424BFC002344D3E9002316F038F868
:100B80003F4BC7F101062344CDE90001D3E900AB97
:100B9000F61B72E7002678E702460B4616F02AF8A5
:100BA00011E719A3D3E900231046194616F0D4F92A
:100BB00009E702460B462046294616F0CDF90022E9
:100BC00006460F464FF080434046494616F010F85F
:100BD00002460B463046394616F0E8FA22462B46C6
:100BE00016F006F802460B460020214916F000F8E0
:100BF00003B0BDE8F08F01EB065103B0BDE8F08F04
:100C0000064642E7AFF300809C7500883CE4377EDF
:100C1000EF39FAFE422E864051302DD5104987C05B
:100C2000FE822B654715F73F0000E0FE422EE63FAF
:100C3000763C7935EF39EA3DD0A4BE726937663E1D
:100C4000F16BD2C541BDBB3E2CDE25AF6A56113FCC
:100C500093BDBE166CC1663F3E5555555555C53FB3
:100C6000412E8640FFFFEF7F422ED63FFFFF2F3EF3
:100C70000000F03F00A70208B1A2F03F10A7020851
:100C800020A70208000000002DE9F04FB1F5801FF9
:100C900085B006460F460B465ADA024621F000445C
:100CA000224300F0F8800029C0F27A810022D64B5E
:100CB00016F052F9D54A0B46934206460F466FF09E
:100CC000350C4ADCC3F3130505F5152E0EF6647ECC
:100CD0000EF4801E8EF07F5282F440121C1542EA00
:100CE0000507A4F2FF3464440022C94B304639465C
:100CF00004EB1E5415F07CFFAB1CC3F31303022B53
:100D000082468B464FF0000230DC002316F08CFB4D
:100D1000002800F0C980002C00F04B81204616F01E
:100D2000B5F8A5A3D3E9002306460F4616F014F93B
:100D3000A3A3D3E9002304460D463046394616F0F6
:100D40000BF902460B462046294615F053FF0AE0F0
:100D5000AE4A93424FF0000CB4DD32463B4630467B
:100D6000394615F047FF05B0BDE8F08F4FF08043DE
:100D700015F040FF02460B465046594616F016FA4B
:100D8000064620460F4616F081F83246CDE90001AE
:100D90003B4630463946CDE9026716F0DDF802469B
:100DA0000B468046894616F0D7F887A3D3E900237F
:100DB00006460F4616F0D0F885A3D3E9002315F0B8
:100DC00019FF32463B4616F0C7F883A3D3E9002348
:100DD00015F010FF32463B4616F0BEF880A3D3E96B
:100DE000002315F007FF42464B4616F0B5F87EA3E8
:100DF000D3E90023804689463046394616F0ACF8E0
:100E00007BA3D3E9002315F0F5FE32463B4616F0EE
:100E1000A3F879A3D3E9002315F0ECFE32463B4654
:100E200016F09AF80B4602464946404615F0E2FE97
:100E3000A5F5C223C5F5D725A3F27A4351351D4345
:100E4000002D8046894656DD0022724B5046594699
:100E500016F082F852465B4616F07EF806460F46BC
:100E6000002C68D132463B464046494615F0C2FE4A
:100E7000DDE9022316F070F802460B46304639468B
:100E800015F0B6FE02460B465046594615F0B0FE28
:100E900005B0BDE8F08F0022002300205E4916F067
:100EA00085F905B0BDE8F08F55A3D3E9002350467E
:100EB000594616F051F802460B460020554915F0E8
:100EC00097FE524606460F465B465046594616F078
:100ED00043F802460B463046394616F03DF80646C2
:100EE0000F46002C40F09A8002460B465046594669
:100EF00015F07EFE37E7002C00F0A4802EA3D3E986
:100F00000023DDE9000116F027F842464B4604466F
:100F10000D465046594615F06BFEDDE9022316F0EA
:100F20001BF827A3D3E9002306460F46DDE900019D
:100F300016F012F821E020A3D3E90023DDE9000137
:100F400016F00AF832463B4604460D4640464946EE
:100F500015F050FEDDE9022315F0FEFF18A3D3E9DA
:100F6000002380468946DDE9000115F0F5FF0246C1
:100F70000B464046494615F03DFE02460B463046BC
:100F8000394615F035FE52465B4615F031FE0246F5
:100F90000B462046294615F02BFE05B0BDE8F08F24
:100FA00002460B4615F024FE0022002316F0FEF840
:100FB000D9E600200021D6E60000E0FE422EE63F02
:100FC000763C7935EF39EA3D44523EDF12F1C23FBB
:100FD000DE03CB966446C73F599322942449D23FFF
:100FE000935555555555E53F9FC678D0099AC33F4F
:100FF000AF788E1DC571CC3F04FA97999999D93F66
:10100000555555555555D53F00005043FFFFEF7FCF
:101010000000F03F0000E03F000050C3204615F004
:1010200035FF0FA3D3E900238046894615F094FFCE
:101030000DA3D3E9002304460D464046494615F06A
:101040008BFF9AE702460B465046594615F0D0FDF5
:10105000DDE9022315F080FF14E700BFAFF3008045
:101060000000E0FE422EE63F763C7935EF39EA3D5E
:10107000B1F5801F2DE9F84304460D460B461ADAF8
:10108000024621F00046324359D000295FDB00229E
:101090003B4B15F061FF3B4A0D462B4693420446FD
:1010A0006FF035010CDD22462B462046294615F00F
:1010B000A1FDBDE8F883334A93424FF00001F2DC12
:1010C0001815A0F2FF3008444FEAD0794844C3F322
:1010D000130815F0DBFEC9F57F73033348EA0355A7
:1010E00006460F4620462946FFF7CEFD1EA3D3E94C
:1010F0000023804689463046394615F02DFF1CA353
:10110000D3E9002304460D464046494615F024FF26
:1011100002460B462046294615F06CFD16A3D3E97E
:10112000002304460D463046394615F015FF0246A9
:101130000B462046294615F05DFDBDE8F8830022E8
:1011400000230020104916F031F8BDE8F88302466C
:101150000B4615F04DFD0022002316F027F8BDE8E0
:10116000F88300BFAFF30080362BF111F3FE593D39
:101170000EE526157BCBDB3F00609F501344D33F29
:1011800000005043FFFFEF7F000050C3000000004D
:101190002DE9F04F23F0004757EA020493B037D00F
:1011A000674C21F00046A64283460D4629DC9A464C
:1011B000964625D0A74224DC614CA74279D0002D69
:1011C00080468946CDE9002377DB0024BEF1000F7D
:1011D0002CD15B4B9F4200F08B805A4B9F4261D0D9
:1011E000BAF1804F00F0C383574B9A451ED1002DB2
:1011F0001CDB4046494613B0BDE8F04F17F0E8BA93
:1012000058B106F1404606F5801656EA0B0306D1A2
:101210004C49002013B0BDE8F08FB742CCDD4B48FD
:1012200013B0BDE8F04F18F063B9002440464946BA
:1012300016F00AFCBBF1000F19D126B1414B25F085
:1012400040429A4213D1BAF1000FC0F2CA83002D76
:10125000E0DA06F1404606F5801656EA040300F08F
:10126000A584012CD6D101F100431946D2E7ED0F38
:10127000013D54EA05034ED0354B9F426EDD03F12C
:1012800004739F4240F3FE83324B9E424EDDBAF11F
:10129000000F4EDD28A3D3E900231046194615F0B0
:1012A0005BFEB7E7BAF1000FC0F2528440464946F0
:1012B000B0E7BEF1000F82D0A3E7274B9F4228DCA6
:1012C000A3F154739F4280DD3B15A3F2FF33142B2F
:1012D00040F35484C3F134032EFA03F202FA03F309
:1012E0009E457FF472AF02F00102C2F102046DE785
:1012F00006F1404303F5801353EA0B0388D0154BE6
:101300009E4240F33B83BAF1000F12DBDDE900019E
:1013100080E702245AE742464B461046194615F02C
:1013200067FC02460B4615F041FF73E7BAF1000F68
:10133000B0DB002000216DE79C7500883CE4377E1F
:101340000000F07F0000F03F0000E03F70BA0208AC
:101350000000E041FFFFEF3FFFFF3F43B6F5801F76
:101360004FF0000205DAD84B15F0F6FD6FF03402AD
:101370000E463315D54FC6F31306A3F2FF331344BD
:1013800046F07F5ABE421A460D934AF4401A40F383
:101390002F83CF4B9E4240F30D849FEDB57B8DEDA7
:1013A000087B8DED0E7B9FEDB47B13468DED067BA8
:1013B00001330D93AAF5801A0027DDE90623514673
:1013C000CDE90A0115F014FCDDE9062380468946C3
:1013D000DDE90A0115F00EFC02460B460020BD496E
:1013E00015F0E4FE0A460146CDE9101213464946BF
:1013F0000246404615F0B0FD4FEA6A0343F0005341
:101400008C46834603F50023CDE904BCDA468B46BF
:10141000D9190023CDE902AB0293DDE902AB00202C
:1014200006460F4602460B465046594615F094FDB7
:1014300002460B464046494615F0DAFBDDE9062335
:10144000804689463046394615F0D2FB02460B46A7
:10145000DDE90A0115F0CCFB52465B4615F07CFD38
:1014600002460B464046494615F0C2FBDDE9102313
:1014700015F072FDDDE90467CDE9060132463B4611
:101480003046394615F068FD7DA3D3E900230646B2
:101490000F4615F061FD7CA3D3E9002315F0AAFBEC
:1014A00032463B4615F058FD79A3D3E9002315F0E9
:1014B000A1FB32463B4615F04FFD77A3D3E900234D
:1014C00015F098FB32463B4615F046FD74A3D3E970
:1014D000002315F08FFB32463B4615F03DFD72A30D
:1014E000D3E9002315F086FB3246804689463B4609
:1014F0003046394615F030FD02460B464046494617
:1015000015F02AFD524606460F465B46DDE904010A
:1015100015F070FBDDE9062315F01EFD32463B4653
:1015200015F068FB5246804689465B465046594650
:1015300015F012FD0022684BCDE90A0115F05AFBA7
:1015400042464B4615F056FB02980F460646324679
:101550003B465046594615F0FFFC002282468B461A
:101560005D4B3046394615F043FBDDE90A2315F0A3
:101570003FFB02460B464046494615F039FBDDE984
:10158000042315F0E9FC3246804689463B46DDE9F6
:10159000060115F0E1FC02460B464046494615F0AF
:1015A00029FB8046894602460B4650465946CDE9FE
:1015B00004AB15F01FFBDDE902AB3DA3D3E900232B
:1015C00050460F4615F0C8FCDDE90423CDE90201C1
:1015D0003946504615F00CFB02460B46404649463C
:1015E00015F006FB34A3D3E9002315F0B5FC34A3B2
:1015F000D3E90023804689465046394615F0ACFCB5
:1016000002460B464046494615F0F4FADDE90E2342
:1016100015F0F0FA80460D98894615F037FC4246E1
:1016200006460F464B46DDE9020115F0E3FADDE917
:10163000082315F0DFFA32463B4615F0DBFA324656
:101640003B4650468B4615F0D3FADDE9082315F0EA
:10165000CFFADDE9022315F0CBFA02460B464046ED
:10166000494615F0C5FA8046894637E0AFF3008059
:101670000000000000000000000000000000F03F3B
:10168000EF4E454A287ECA3F65DBC9934A86CD3F67
:1016900001411DA96074D13F4D268F515555D53F4D
:1016A000FFAB6FDBB66DDB3F033333333333E33FE5
:1016B000000000E009C7EE3FFD033ADC09C7EE3F3A
:1016C000F5015B14E02F3EBE000040438E980300FE
:1016D00079B60B000000F03F00000840013C54EADE
:1016E000050300F079819FEDC87B8DED047BDDE97A
:1016F00000120B461446CDE9023400230293DDE9C3
:10170000024508462B461146224615F071FA52460C
:101710005B4615F021FCDDE9002306460F464046F6
:10172000494615F019FC02460B463046394615F07D
:1017300061FA2246804689462B4650465946CDE9F5
:10174000008915F009FC0B46024606460F46404646
:10175000494615F04FFAC64B994204460D468A4653
:1017600040F3168101F13F4303F5E003034340F0EA
:10177000F781A7A3D3E90023DDE9000115F03AFAC8
:101780003246804689463B462046294615F030FAC7
:1017900002460B464046494615F06EFE002840F0D2
:1017A000DF81A8464FEA28534FF48012A3F2FE339C
:1017B00042FA03F35344C3F30A52AE4DA2F2FF328E
:1017C0001541C3F3130423EA05010020C2F1140BF1
:1017D00044F48014BAF1000F02460B4644FA0BFBA6
:1017E00030463946B8BFCBF1000B15F001FA02467E
:1017F0000B4606460F46DDE9000115F0FBF94FEAFE
:101800000B5A0D46002484A3D3E900232046294621
:1018100015F0A2FB3246804689463B4620462946C3
:1018200015F0E6F902460B46DDE9000115F0E0F996
:101830007BA3D3E9002315F08FFB7BA3D3E900231F
:1018400006460F462046294615F086FB02460B4603
:101850003046394615F0CEF906460F4602460B468D
:101860004046494615F0C6F942464B4604460D46E9
:1018700015F0BEF902460B463046394615F0B8F968
:101880002246804689462B462046294615F064FBB1
:1018900067A3D3E9002306460F4615F05DFB66A358
:1018A000D3E9002315F0A4F932463B4615F054FB6A
:1018B00063A3D3E9002315F09DF932463B4615F0AA
:1018C0004BFB61A3D3E9002315F092F932463B4666
:1018D00015F042FB5EA3D3E9002315F08BF93246E5
:1018E0003B4615F039FB02460B462046294615F0CB
:1018F0007FF906460F4602460B462046294615F05C
:101900002BFB0022CDE900014FF0804330463946E1
:1019100015F06EF902460B46DDE9000115F046FCB4
:10192000424606460F464B462046294615F014FB14
:1019300042464B4615F05EF902460B4630463946A4
:1019400015F056F922462B4615F052F902460B4681
:101950000020494915F04CF98A44BAF5801FC0F2BD
:1019600039815146DDE9042315F0F6FA52E4424686
:101970004B464046494615F0EFFA4BE4BAF1000FEA
:10198000BFF6D7ACDDE90034184604F1004141E46C
:101990003A4B21F00048984540F3FF80384B0B4408
:1019A00003430CD132463B4615F022F902460B4662
:1019B000DDE9000115F04CFD00283FF4F3AEDDE950
:1019C000040125A3D3E9002315F0C6FA22A3D3E925
:1019D000002315F0C1FA1DE49FED217B8DED047B02
:1019E00085E602460B460020234915F0DFFB2EE476
:1019F0009FED1D7B8DED087B8DED0E7B9FED027BBA
:101A000000278DED067BD8E4000000000000F03FC9
:101A1000FE822B654715973C00000000432EE63FF1
:101A2000EF39FAFE422EE63F396CA80C615C20BE0D
:101A3000D0A4BE726937663EF16BD2C541BDBB3ED4
:101A40002CDE25AF6A56113F93BDBE166CC1663FB2
:101A50003E5555555555C53F59F3F8C21F6EA50162
:101A6000000000000000F0BF0000000000000000C7
:101A7000FFFF8F40FFFF0F000000F03FFFCB9040C3
:101A800000346F3F684B9E427FF750AC674B9E42DD
:101A90003FF7FDAB0022654B15F0AAF852A3D3E93E
:101AA000002306460F4615F057FA51A3D3E9002349
:101AB000804689463046394615F04EFA0022824665
:101AC0008B465B4B3046394615F046FA02460B46CC
:101AD00049A1D1E9000115F08BF832463B4615F0DB
:101AE0003BFA02460B460020524915F081F8324677
:101AF000CDE902013B463046394615F02DFA024643
:101B00000B46DDE9020115F027FA3DA3D3E90023D6
:101B100015F022FA02460B465046594615F068F871
:101B200002460B4606460F464046494615F062F807
:101B300042464B46002082468B4615F059F8024635
:101B40000B463046394615F053F880468946C5E5C0
:101B500042464B460020354915F028FBFFF75ABB9B
:101B6000DDE9040128A3D3E9002315F0F5F926A344
:101B7000D3E9002315F0F0F9FFF74CBBBEF1000FDD
:101B80007FF453ABC3F1140347FA03F202FA03F3F1
:101B90009F4223D07446FFF720BB264B98453FF762
:101BA00001AEDDE90223924693462BE602460B4640
:101BB000FFF7B3BB9FED167B8DED087B9FED167B8A
:101BC0008DED0E7B9FED167B4FF480278DED067B10
:101BD000FFF7F3BB5A4601F04FFDC3E602F00102E6
:101BE000C2F10204FFF7F9BA000000604715F73FA1
:101BF00044DF5DF80BAE543E555555555555D53F10
:101C0000FE822B654715F73F9C7500883CE4377EC4
:101C10000000004003B8E23F06D0CF43EBFD4C3E4E
:101C2000000000000000F83FFEFFEF3F0000F03F23
:101C30000000D03F0000E03F2DE9F0479C4B21F031
:101C400000479F4290B08046894640F38E80994B72
:101C50009F420C46924626DC00298BA3D3E9002341
:101C600040F3B08114F0C4FF934B9F4204460D46ED
:101C700000F0908086A3D3E9002314F0B9FF024658
:101C80000B46CAE900232046294614F0B1FF80A381
:101C9000D3E9002314F0ACFF0125CAE9020128466C
:101CA00010B0BDE8F087854B9F4240F39080844B95
:101CB0009F4265DC3D15A5F21645A7EB0553194675
:101CC0001F46064615F0F8FB15F0E0F880468946F9
:101CD00042464B4630463946CDE90A8914F088FF22
:101CE0000022784B15F038F98946804615F0E4FB60
:101CF00015F0CCF806460F4632463B46404649466C
:101D0000CDE90C6714F074FF00226E4B15F024F936
:101D100000220023CDE90E0115F086FB002800F01B
:101D20006F81002330463946002215F07DFB0028E4
:101D300014BF01230223644A019202212A46009122
:101D40000AA8514600F08CFB002C054614DADAF89C
:101D50000420DAF80C3002F1004203F1004345425E
:101D6000CAF80420CAF80C3006E000200021C2E9BD
:101D70000089C2E902010025284610B0BDE8F087BD
:101D800002460B4614F034FF0025CAE90201CAE9F5
:101D90000001F1E740A3D3E9002314F029FF40A399
:101DA000D3E900230D46044614F022FF02460B46F9
:101DB000CAE900232946204614F01AFF38A3D3E9C4
:101DC000002314F015FF0125CAE90201D4E715F03C
:101DD0003BFE35A3D3E900238046894615F0BCF8C5
:101DE00000223A4B14F006FF15F066FB054615F08D
:101DF0004DF825A3D3E90023CDE9060115F0ACF891
:101E000002460B464046494614F0F2FE20A3D3E9B1
:101E10000023CDE90201DDE9060115F09DF81F2D33
:101E200080468946CDE9048954DC294B6A1E53F863
:101E300022309F424ED002460B46DDE9020114F0EB
:101E4000D7FE80468946CAE9008942464B46DDE90D
:101E5000020114F0CDFEDDE9042314F0C9FE002CCC
:101E6000CAE9020188DA09F1004401F100436D4238
:101E7000CAF80080CAF80440CAF80800CAF80C3052
:101E80007AE700BFAFF3008000004054FB21F93F28
:101E90003163621A61B4D03D0000601A61B4D03D74
:101EA0007370032E8A19A33B83C8C96D305FE43F6A
:101EB000FB21E93F7BD90240FB21F93FFB2139415E
:101EC000FFFFEF7F00007041C8BC02080000E03F48
:101ED00048BC0208DDE90423DDE9020114F088FEB4
:101EE0003F15C1F30A53FB1A80468946102BCAE9F5
:101EF0000089AADD58A3D3E90023DDE9060115F026
:101F00002BF88046894602460B46DDE9020114F0B3
:101F10006FFE02460B46DDE90201CDE9082314F00D
:101F200067FE42464B4614F063FE4DA3D3E90023FF
:101F300080468946DDE9060115F00EF842464B461B
:101F400014F056FE0B46CDE904010246DDE9080116
:101F500014F04EFEC1F30A53FF1A80468946312F12
:101F6000CAE900896CDD41A3D3E90023DDE906015C
:101F700014F0F2FFDDE9088906460F4602460B46DB
:101F80004046494614F034FE02460B464046494658
:101F9000CDE9022314F02CFE32463B4614F028FE15
:101FA00034A3D3E9002306460F46DDE9060114F009
:101FB000D3FF32463B4614F01BFE02460B46CDE9EA
:101FC00004233AE714F016FE274B9F4204460D46C1
:101FD00018D01FA3D3E9002314F00CFE02460B46D1
:101FE000CAE900232946204614F002FE18A3D3E9CB
:101FF000002314F0FFFD4FF0FF35CAE90201BBE6F4
:10200000032398E614A3D3E9002314F0F3FD14A3EB
:10201000D3E900230D46044614F0ECFD02460B46BE
:10202000CAE900232946204614F0E2FD0CA3D3E9B7
:10203000002314F0DFFD4FF0FF35CAE902019BE6F3
:102040009DED087B8DED027BFFE600BFAFF30080C6
:102050003163621A61B4D03D0000601A61B4D03DB2
:102060007370032E8A19A33BFB21F93F0000002E59
:102070008A19A33BC14920259A837B3900000000BF
:10208000594A2DE9F84F21F00048904506460F4681
:102090002BDC564B0029B4BF554D564D98454FF09B
:1020A000000410DC544B984570DC4DA3D3E90023A9
:1020B00014F0A0FD0022514B15F0DEF9D8B13046E6
:1020C0003946BDE8F88F4E4B98457CDD4D4B984521
:1020D00044DD013398453ED03046394640A3D3E92C
:1020E000002314F039FFBDE8F88F02460B4614F0C8
:1020F00081FDBDE8F88F3046394615F0A5FC01F0AA
:102100007FF806460F4632463B463046394614F0C5
:1021100071FD324682468B463B463046394614F0C6
:102120001BFF002280468946344B3046394614F066
:1021300061FD02460B464046494615F037F8024617
:102140000B465046594614F053FD22462B4614F0D8
:1021500003FFBDE8F88F2C4B9842BDD83046394676
:1021600015F072FC0022234B14F0F6FEFEF714FC6F
:1021700006460F4602460B462046294614F0ECFE62
:1021800032463B4614F0E8FEBDE8F88F15F05CFCE3
:1021900001F036F81D4B984506460F46B3DD002288
:1021A000164B14F027FD02460B463046394614F014
:1021B000FDFF32463B4614F01DFD22462B4614F02F
:1021C000CBFEBDE8F88F15F03FFCFEF7E5FB0246BD
:1021D0000B462046294614F0BFFEBDE8F88F00BF2D
:1021E0003374AC3C1F7BAC7FFFFFEF7FFFFF3540BC
:1021F0000000E0BF0000E03FFFFF2F3E0000F03F87
:10220000412E8640CD3386407DF8B98FFFFFEF3FEA
:102210002DE9F04F21F00048B8F1795F85B006460E
:102220000F4692469B466BDA15F046F9002800F0FF
:10223000EA8032463B463046394614F08DFE74A3A0
:10224000D3E9002304460D4614F086FE72A3D3E9B9
:10225000002314F0CFFC22462B4614F07DFE70A321
:10226000D3E9002314F0C4FC22462B4614F074FE7C
:102270006DA3D3E9002314F0BDFC22462B4614F0D5
:102280006BFE6BA3D3E9002314F0B2FC22462B466D
:1022900014F062FE68A3D3E9002314F0ABFC2246DD
:1022A0002B4614F059FECDE900010022664B204672
:1022B000294614F051FEDDE9002380468946204678
:1022C000294614F049FE524604460D465B46304608
:1022D000394614F041FE02460B462046294614F0CA
:1022E00087FC02460B464046494614F081FC0246F4
:1022F0000B460020554914F07BFC05B0BDE8F08F7B
:1023000002460B4614F028FE41A3D3E900230446FD
:102310000D4614F021FE40A3D3E9002314F06AFC1B
:1023200022462B4614F018FE3DA3D3E9002314F0F7
:102330005FFC22462B4614F00FFE3BA3D3E900239B
:1023400014F058FC22462B4614F006FE38A3D3E9BD
:10235000002314F04DFC22462B4614F0FDFD36A35D
:10236000D3E9002314F046FC2B46224614F0F4FD7A
:10237000374B9845CDE9000197DD364B984539DC60
:10238000A8F500130022002030499046994614F029
:102390002FFCCDE9020100222B4B2046294614F0E8
:1023A000DBFD42464B4614F023FCDDE9002380466A
:1023B00089462046294614F0CFFD524604460D4674
:1023C0005B463046394614F0C7FD02460B462046B0
:1023D000294614F00DFC02460B464046494614F0CF
:1023E00007FC02460B46DDE9020114F001FC05B0D2
:1023F000BDE8F08F9FED127B4FF000088DED027B62
:10240000DFF85490C7E71149002005B0BDE8F08F10
:10241000D43888BEE9FAA8BDC4B1B4BD9EEE213E51
:10242000AD529C804F7E923E9015CB19A001FA3E92
:102430007751C1166CC1563F4C5555555555A53F62
:10244000000000000000E73F0000E03F0000F03F18
:102450003233D33F0000E93F0000D23F00000000CC
:102460002DE9F04FADF51B7D9F4CA49E9F4D54F878
:10247000264007942646D41E85FB0475E417C4EB5A
:10248000A50424EAE4741D460A93631CA3EB8303AA
:10249000013D02EBC30306932B460B940395651B8A
:1024A000F418049008911AD42C4400260027013413
:1024B0000DF18808DDF8949208E059F8250014F031
:1024C000E5FC0135A542E8E8020108D0002DF4DA68
:1024D000013530463946A542E8E80201F6D1079BAE
:1024E000002BC0F2DF83079B03F1010B0A9B22A99B
:1024F000DB001A4601EB03090093049B0DF5E47A17
:1025000019460AEBCB0B01EB0208039B002BC0F230
:10251000F582049C4D460026002775E90223F4E865
:10252000020114F019FD02460B463046394614F0FC
:1025300061FB444506460F46EFD1EAE80267DA45FB
:1025400009F10809E1D107990098049C009101F173
:102550008043013B9B0020441A1F83460EA802447F
:1025600003440C920D93009A9AA901EBC203002A2E
:1025700053E9284529DD0DF5E47A0AEBC2080DF18F
:10258000340900225A4B2046294614F0E5FC14F089
:1025900093FF14F07BFC0022564B06460F4614F0C6
:1025A000DBFC02460B462046294614F021FB14F0C2
:1025B00083FF78E9022349F8040F3946304614F0C6
:1025C00019FBD04504460D46DBD1DDF818902046B6
:1025D00029464A4601F050F800224FF07F53044646
:1025E0000D4614F0B9FCFCF75FFD0022424B14F0DD
:1025F000B3FC02460B462046294614F0F9FA0D4674
:10260000044614F059FF804614F040FC0B46024685
:102610002946204614F0ECFA4B46002B06460F469E
:1026200040F3F980009A0EA9013AC9F1180351F854
:10263000225045FA03F101FA03F30EA8EB1A40F811
:102640002230C9F11705884443FA05F5002D6DDDE8
:10265000009B002B08F1010840F36F820E9C002CB8
:1026600040F01683009B012B40F38F820EAA0123BA
:1026700052F8044F002C00F08382581C0EAAC4F1BB
:10268000807442F82340009A824219DD0EAA0EACF3
:1026900052F820106FF07F42511A44F82010009930
:1026A000023399420CDD1046009A0EA901EB830318
:1026B00001EB82011A68821A43F8042B8B42F9D18C
:1026C000069B002B1ADD069B012B4FF0010440F006
:1026D0003C82009B5A1E0EAB0EA953F82230C3F366
:1026E000160341F822303CE268C10208ABAAAA2ACC
:1026F0000000703E0000704100002040022D15D106
:1027000032463B460020924914F072FA06460F46C4
:10271000069A8F49002000F0AFFF02460B46304674
:10272000394614F065FA022506460F4600220023BA
:102730003046394614F078FE002800F03782009ABF
:10274000079B501E83420FDC02F18043013B0EAA1F
:102750000D9C02EB8303002253F80419A34242EAC2
:102760000102F9D1002A67D1079B0EAA013B52F85A
:102770002330002B40F018820C9A012352F80419E0
:1027800001330029FAD0009AD31802F1010A9A45C0
:1027900009933DDC009B0A990B9A0B4409990AEBBB
:1027A0000208994622AB08F1804803EBC9098B184F
:1027B000A59A08F1FF3802EB880872AA02EBCA0A50
:1027C000A59A02EB8303009358F8040F14F05EFB04
:1027D000039B002BE9E802014FF000064FF00007D1
:1027E00011DB049C4D4675E90223F4E8020114F064
:1027F000B3FB02460B463046394614F0FBF95C4504
:1028000006460F46EFD1009B9845EAE80267DBD108
:10281000099B0093A7E606D1009B0EAA013B52F844
:102820002350ED1512E700224A4B14F01BFE00283E
:1028300040F06E81054679E70EA9039551F82030E6
:102840000699CDF8248018390246009006916BB99C
:1028500000F18043013B0EA800EB830353F8040909
:10286000013A18390028F9D000920691069A3849A1
:10287000002000F001FF009B002B04460D46C0F233
:10288000F781DA0072A901EB020B06920EAA02EBA5
:102890008306DFF8C4904FF000080BF108070436F8
:1028A00056F8040D14F0F2FA22462B4614F054FBAD
:1028B0004B4667E9020142462046294614F04CFB8C
:1028C0000EAB9E4204460D46EAD14AACDDF81C90A0
:1028D00004944FF0000AB9F1000FC0F22B81DFF829
:1028E0007C805D4618A1D1E9000100260027002464
:1028F00003E0544510DCF8E80201F5E8022314F087
:102900002BFB02460B463046394614F073F901346E
:10291000A14506460F46ECDA049B03EBCA03ABF174
:10292000080BC3E9006770AB9B450AF1010AD2D1DD
:10293000A49B049C032B00F28980DFE803F0C58E82
:102940008E1100BFAFF3008000000040FB21F93F73
:102950000000F03F0000E03F0000703E48A7020882
:10296000009B002B40F38181069A04EB020ADAE90E
:10297000008902F1080525440DF5987B1AED027BCC
:1029800042464B4651EC170B8DED047B14F032F9A7
:1029900006460F4602460B46DDE9040114F028F90D
:1029A00042464B4614F026F965E902015D45B04602
:1029B000B9466AE90267E1D1009B012B40F35581DA
:1029C000069BE518D5E9008903F1080B04EB0B0A17
:1029D00015ED027B42464B4651EC170B8DED007B0B
:1029E00014F008F906460F4602460B46DDE90001E1
:1029F00014F0FEF84B46424614F0FCF86AE9020176
:102A00004EAB5345B046B94665E90267E0D10020B8
:102A1000002104EB0B0575E9022314F0EBF8AA453D
:102A2000F9D1039B002B00F00A816268E368089FDC
:102A30002568A4683D6002F1004203F1004301F102
:102A400000417A60FB60BC6038617961099B03F0EA
:102A500007000DF51B7DBDE8F08F069D0835254468
:102A60000020002175E9022314F0C4F8A542F9D131
:102A7000039B002B00F0D280089E024601F1004328
:102A800086E80C000B460246D4E9000114F0B0F8C9
:102A9000009B002B0BDD4CAD0124F5E8022314F064
:102AA000A9F8009B0134A342F7DA039B13B101F1AB
:102AB00000431946089BC3E90201099B03F0070084
:102AC0000DF51B7DBDE8F08F069D08350020002127
:102AD000254475E9022314F08DF8AC42F9D1039B2B
:102AE00013B101F100431946089BC3E90001099B9A
:102AF00003F007000DF51B7DBDE8F08F00260027D1
:102B0000EAE80267DA4509F108097FF4FEAC1AE544
:102B1000009B002B08F10108C8BF02253FF79EADBE
:102B200032463B460020614914F062F80225064611
:102B30000F46FBE500260027EEE6069B002B27DD6F
:102B40000024069B012B3FF4C4AD022B09D1009B4E
:102B50005A1E0EAB0EA953F82230C3F3150341F8E9
:102B60002230022D7FF4E2AD32463B4600204F4931
:102B700014F03EF806460F46002C3FF4D7ADC7E5EB
:102B80000099013399427FF473AD069B002BD8DC8A
:102B9000022D7FF4CBAD32463B460020434914F072
:102BA00027F806460F46C1E50123ECE53946069FA6
:102BB00003957A423046CDF8248000F05DFD002276
:102BC0003B4B04460D4614F04DFC002843D0002238
:102BD000384B2046294614F0BFF914F06DFC064628
:102BE00014F054F90022324B14F0B6F902460B46A9
:102BF0002046294613F0FCFF14F05EFC00990B46BA
:102C000001331A4600933B46183306930B460EA930
:102C100041F82300134641F8236027E6089B02464B
:102C2000C3E900010B46D4E9000113F0E1FF009B6A
:102C3000002B3FF730AF089BC3E902013DE7D4E921
:102C40000067D4E90223089DC5E90401C5E90067CE
:102C5000C5E90223FAE62946204614F02DFC009A25
:102C60000EA941F8220001E64AAC00200021D8E676
:102C7000A49B032B3FF6EAAE01A252F823F000BF5B
:102C80009F2C0108972C0108972C0108692C01083A
:102C900001200023F2E4002000214AACE8E60020F5
:102CA00000211CE70A9BDB0000934CE40000F03F8E
:102CB000000070410000703E2DE9F04F21F0004609
:102CC000B6F1795F85B004460D469046994604DA20
:102CD00014F0F2FB002800F0858022462B462046A7
:102CE000294614F039F906460F4602460B4620469F
:102CF000294614F031F941A3D3E9002382468B46DB
:102D00003046394614F028F93EA3D3E9002313F0E6
:102D10006FFF32463B4614F01FF93CA3D3E9002372
:102D200013F068FF32463B4614F016F939A3D3E995
:102D3000002313F05DFF32463B4614F00DF937A334
:102D4000D3E9002313F056FF0E9BCDE900019BB39E
:102D50000022294B4046494614F0FEF8DDE90023E5
:102D6000CDE902015046594614F0F6F802460B46EA
:102D7000DDE9020113F03CFF32463B4614F0ECF86B
:102D800042464B4613F034FF19A3D3E9002306460D
:102D90000F465046594614F0DFF802460B463046BF
:102DA000394613F027FF02460B462046294613F00A
:102DB0001FFF05B0BDE8F08F02460B46304639468E
:102DC00014F0CAF80AA3D3E9002313F011FF524606
:102DD0005B4614F0C1F822462B4613F00BFF05B0FA
:102DE000BDE8F08F2046294605B0BDE8F08F00BF52
:102DF000495555555555C53F0000E03F7CD5CF5A44
:102E00003AD9E53DEB9C2B8AE6E55A3E7DFEB1576B
:102E1000E31DC73ED561C119A0012A3FA6F81011D4
:102E20001111813F000000002DE9F04FBE4C21F050
:102E3000004687B0A64282468B460F46CDE9002366
:102E40001BDC14F039FB002837D153461E43109B7E
:102E50000133334300F0B381109B012B00F0C88194
:102E600052465B460020B14914F0A0F904460D46D5
:102E70002046294607B0BDE8F08FAD4B9E421CDDD1
:102E80000029C0F2A98152465B4687A1D1E9000121
:102E900013F0AEFEDDE9002304460D4684A1D1E91E
:102EA000000113F0A5FE9FED847B22462B468DED9D
:102EB000007B13F09FFE82468B4652465B4650468F
:102EC000594614F049F802460B468046894614F0EC
:102ED00043F8424604460D464B465046594614F0C8
:102EE0003BF877A3D3E90023CDE902012046294628
:102EF00014F032F874A3D3E9002313F07BFE2246CA
:102F00002B4614F029F872A3D3E9002313F072FEC4
:102F100022462B4614F020F86FA3D3E9002313F0C8
:102F200069FE22462B4614F017F86DA3D3E900235F
:102F300013F060FE22462B4614F00EF86AA3D3E984
:102F4000002313F057FE42464B4614F005F868A3E1
:102F5000D3E90023CDE904012046294613F0FCFF04
:102F600065A3D3E9002313F045FE22462B4613F058
:102F7000F3FF63A3D3E9002313F03CFE22462B4664
:102F800013F0EAFF60A3D3E9002313F033FE2246D7
:102F90002B4613F0E1FF5EA3D3E9002313F02AFED2
:102FA00022462B4613F0D8FF5BA3D3E9002313F08E
:102FB00021FE02460B46DDE9040113F01BFEDDE9AC
:102FC000022313F0C9FFDDE9004522462B4613F02A
:102FD00011FE42464B4613F0BFFF02460B46204609
:102FE000294613F007FE4EA3D3E9002304460D46FD
:102FF000DDE9020113F0B0FF22462B4613F0FAFD83
:103000000B460246804689465046594613F0F2FD6B
:10301000474B9E4204460D4600F38E80109B012BC9
:103020003BD002460B460020404914F0BFF8002474
:1030300006460F462046294652465B46CDE90067C4
:10304000CDE90201009413F0D3FDDDE900AB0246A7
:103050000B464046494613F0CBFD52465B4613F003
:103060007BFF524604460D465B46DDE9020113F044
:1030700073FF00222F4B13F0BDFD02460B46204686
:10308000294613F0B7FD32463B4613F065FF524622
:103090005B4613F0AFFD04460D462046294607B0B7
:1030A000BDE8F08FAFF30080182D4454FB21E93FB9
:1030B000075C143326A6813C0000000000000000DD
:1030C000D47ABF74702AFB3EE9A7F0320FB8123FE2
:1030D00068108D1AF726303F1583E0FEC8DB573F96
:1030E00093846EE9E326823FFE41B31BBAA1AB3F56
:1030F000735360DBCB75F3BEA69237A0887E143F76
:103100000165F2F2D844433F280356C9226D6D3F52
:1031100037D60684F464963F7AFE10111111C13F30
:10312000635555555555D53FFFFF2F3E0000F0BF65
:103130002794E53F0000F03F109813F0A7FE2246C9
:10314000CDE900012B462046294613F005FFDDE9B5
:103150000023CDE902012046294613F04BFD02462B
:103160000B46DDE9020114F021F842464B4613F00C
:103170003FFD02460B465046594613F039FD0246C4
:103180000B4613F037FD02460B46DDE9000113F054
:103190002FFD0446B81700F00200C0F101000D46F3
:1031A00013F074FE02460B462046294613F0D4FE67
:1031B00004460D462046294607B0BDE8F08F50462C
:1031C000594614F041FC02460B4600200A4913F010
:1031D000EDFF04460D4660E7DDE9004501F10041E1
:1031E000224605F1004382468B46CDE900234AE69C
:1031F00054465D4651E700BF0000F03F000000006C
:103200002DE9F04FD24A21F00043934285B0824627
:103210008B460C462DD9CF4A93421AD8002C80F207
:103220001681B5A3D3E900235046594613F0E2FCBA
:103230000022002314F002F9C0B9B1A3D3E900239E
:103240005046594613F088FE02460B460020C249FC
:1032500008E1C24A934240F2D0800346C1F3130210
:10326000134340F0F481002980F2C4800020BC495F
:10327000C0E0BC4A934200F22981BB4A934240F22B
:10328000DE80002301930022B84B5046594613F0CC
:1032900063FE06460F4602460B465046594613F05B
:1032A0005BFE99A3D3E9002304460D4613F054FEB8
:1032B00097A3D3E9002313F09DFC22462B4613F07D
:1032C0004BFE95A3D3E9002313F092FC22462B4634
:1032D00013F042FE92A3D3E9002313F08BFC2246A5
:1032E0002B4613F039FE90A3D3E9002313F080FCA2
:1032F00022462B4613F030FE00229D4B13F07AFC41
:103300008046894602460B463046394613F024FE75
:1033100002460B460020974913F06AFC0646024617
:103320000B460F464046494613F062FC3246804643
:1033300089463B465046594613F00EFE02460B4660
:1033400000208D4913F054FC02460B464046494686
:1033500013F02CFF22462B4613F0FEFD019E024681
:103360000B46002E38D0DDE9026732463B4613F0AB
:103370003FFC52465B4613F0EFFD32463B4613F0EE
:1033800037FC2B46224613F033FC019B01330646E3
:103390000F4600F00F81019B012B00F0F180019B93
:1033A0000133392B39D8019B132B40F31281019C37
:1033B000C4F57F75033500222B0513F01BFC024674
:1033C0000B465046594613F013FC0022684B13F08D
:1033D00011FC01EB04510DE05046594613F0BCFDC1
:1033E00022462B4613F004FC02460B465046594633
:1033F00013F0FEFB05B0BDE8F08F4DA3D3E9002329
:1034000014F03AF800283FF409AF4BA3D3E90023A6
:103410001046194613F0A0FDECE752465B4613F048
:10342000E7FB02460B460020514913F0E1FB019AED
:103430004F4B01EB0251002213F0DAFBDAE73EA317
:10344000D3E9002313F0D6FB02460B46CAE72CA3B0
:10345000D3E900235046594613F07EFD0B464349FD
:103460000246002013F0C6FB14F026F8019013F07A
:103470000DFD33A3D3E9002306460F4613F06CFD80
:1034800002460B465046594613F0B2FB2EA3D3E931
:103490000023804689463046394613F05DFD0646D6
:1034A0000F4632463B464046494613F0A1FB0246D2
:1034B0000B4682468B464046494613F099FB3246FE
:1034C0003B4613F095FBCDE90201DCE62B4A934223
:1034D00000F2958000291AA3D3E90023C0F2AC8042
:1034E00013F086FB012380468946019316A7D7E98E
:1034F0000067D6E7AFF3008059F3F8C21F6EA5014D
:10350000FE822B654715F73F2DC3096EB7FD8ABEB6
:103510003952E686CACFD03EB7DBAA9E19CE143FF9
:103520008555FE19A0015A3FF41011111111A13F48
:10353000EF39FAFE422E86409C7500883CE4377EC7
:103540000000E0FE422EE63F763C7935EF39EA3D59
:1035500079684340412E86400000E0BFFFFFEF7FC7
:103560000000F0BF422ED63FFFFF8F3C0000E03F3F
:103570000000F03F0000084000001840B1A2F03FFA
:103580000022394B5046594613F058FF002844D0CA
:10359000504659460022354B13F02CFB02460B4691
:1035A0003046394613F024FB00224FF0404313F01D
:1035B000D3FC1FE702460B465046594613F018FB52
:1035C00000222A4B13F0C8FC0022284B13F010FBFA
:1035D00010E7019C4FF400132341C3F17F5752467B
:1035E0005B4613F005FB002607F5401702460B4625
:1035F0003046394613F0FCFA01EB0451FAE616A303
:10360000D3E9002313F0A8FC002C02460B464FF030
:103610000000FFF61CAE154924E732463B465046F3
:10362000594613F0E5FA02460B4613F0E3FA00227E
:103630000F4B13F0DFFADDE613F0DCFA4FF0FF3347
:1036400080468946019306A7D7E9006729E7024625
:103650000B4613F0CFFACDE6FE822B654715F73FF8
:10366000763C7935EF39EABD0000D0BF0000E03F7D
:103670000000F03F00000000F8B5C1F30A56044610
:103680000D460B4617460EBB21F00043034386460A
:1036900025D00022344B13F05FFC344A9742044695
:1036A0000D460B462ADBC1F30A56363E3E4440F235
:1036B000FE72964228DC002E12DD23F0FF4323F435
:1036C000E00343EA065520462946F8BD40F2FF7262
:1036D0009642EBD102460B4613F08CFAF8BDF8BDCA
:1036E00016F1350F1DDA4CF250339F4222462B461D
:1036F00025DC19A1D1E9000116F068F816A3D3E979
:10370000002313F029FCF8BD22462B4614A1D1E971
:10371000000116F05BF812A3D3E9002313F01CFCA0
:10372000F8BD23F0FF4323F4E003363643EA0655A1
:103730002046294600220E4B13F00EFCF8BD08A1CE
:10374000D1E9000116F042F805A3D3E9002313F0F4
:1037500003FCF8BDAFF3008059F3F8C21F6EA5015A
:103760009C7500883CE4377E00005043B03CFFFF6E
:103770000000903C10B5054C237833B9044B13B1CD
:103780000448AFF300800123237010BDC004002063
:103790000000000028C302080C4B43B10C480D493F
:1037A00010B5AFF300800C48036823B910BD0A4878
:1037B000036833B97047094B002BF7D0BDE81040C0
:1037C0001847064B002BF5D0184700BF000000003B
:1037D00028C30208C40400203004002000000000B8
:1037E000154B002B08BF134B9D46A3F5803A0021D3
:1037F0008B460F461348144A121A07F019F90F4B5B
:10380000002B00D098470E4B002B00D0984700208B
:10381000002104000D000D48002802D00C480EF0D5
:1038200001F816F041F9200029000DF0DBFF0DF042
:10383000F5FF00BF0000080000800220000000002B
:10384000D517020838040020C033002025180208CC
:1038500000000000F0B5214D2C6883B014B1204663
:1038600003B0F0BD4FF49C700DF0DEFF4FF0FF3160
:103870000646032001F042FC00B204F073F84FF05A
:10388000FF310746022001F039FC00B204F06AF86B
:103890003946024606F1DC0730460AF05BFD234656
:1038A0002246384601210AF0F1FB4FF0FF3101209A
:1038B00001F024FC00B204F055F898244FF0050EF6
:1038C00002468DE810403B46314606F1E40007F021
:1038D000E9FC344620462E6003B0F0BDDC04002035
:1038E0002DE9F04104460F46FFF7B4FF00F1E4056F
:1038F0000646284607F0F4FC082C0BD0A4F1090377
:10390000012B15D93A46214610230D20BDE8F04180
:1039100003F00CBFD6F8E43028469B6A984702288B
:10392000F0DCD6F8E43028465B6A04219847E9E7E2
:10393000D6F8E43028469B6A98470528E2DCD6F89A
:10394000E43028465B6A08219847DBE710B52DED87
:10395000028BFFF77FFF00F1E404204609F012FA22
:1039600007EE900A2046F8EEE78A09F019FA07EE0A
:10397000900A2046B8EEE78A09F020FA68EE087A45
:1039800007EE100AE8EEA87AB8EEC77AE7EE077AF3
:10399000F5EE407AF1EE10FAB1EEE78A03D517EEB4
:1039A000900A14F09DFDFDEEC87ABDEC028B17EE77
:1039B000900A10BD08B503281CD8DFE800F0140DEC
:1039C0000602BDE80840FFF7C1BFFFF743FFBDE8AF
:1039D0000840E43009F0F2B9FFF73CFFBDE80840C9
:1039E000E43009F0DDB9FFF735FFBDE80840E43009
:1039F00009F0C8B9002008BD08B550B1012806D1AA
:103A0000FFF728FFBDE80840E430FBF765B8002069
:103A100008BDFFF71FFFBDE80840E430FBF73CB8E6
:103A200010B50446FFF716FF2146E430BDE810400C
:103A300008F0C0BF08B501F089FCFBF7F1FDBDE857
:103A4000084001F0EDB900BF08B501F07FFCFBF7BD
:103A500057FEBDE8084001F0E3B900BF08B501F02A
:103A600075FC14F067F8BDE8084001F0D9B900BF53
:103A700008B501F06BFC14F06FFCBDE8084001F0E4
:103A8000CFB900BF08B501F061FCFBF7D9FDBDE877
:103A9000084001F0C5B900BF08B501F057FC14F0AB
:103AA00087FABDE8084001F0BBB900BF08B501F0D6
:103AB0004DFCFBF731F8BDE8084001F0B1B900BF9B
:103AC00008B501F043FC14F0C7F9BDE8084001F067
