:020000040800F2
:10E00000008002202D380208F59D0208F59D0208C7
:10E01000F59D0208F59D0208F59D0208000000002C
:10E0200000000000000000000000000051F40108A2
:10E03000F59D020800000000F7F4010857F50108FB
:10E04000F59D0208F59D0208F59D0208F59D020860
:10E05000F59D0208F59D0208F59D0208F59D020850
:10E06000F59D0208F59D0208F59D0208F59D020840
:10E07000F59D0208F59D0208F59D0208F59D020830
:10E08000F59D0208F59D0208F59D02085D05020850
:10E0900049040208F59D020861050208F59D020881
:10E0A000F59D0208F59D0208F59D0208F59D020800
:10E0B000F59D0208F59D020800000000F59D02088C
:10E0C000F59D0208F59D0208F59D0208F59D0208E0
:10E0D000F59D0208F59D0208F59D0208F59D0208D0
:10E0E000F59D0208F59D02080000000000000000F8
:10E0F0000000000000000000000000000000000020
:10E1000000000000F59D020800000000F59D0208D7
:10E11000F59D020800000000F59D020800000000C7
:10E12000F59D0208F59D0208F59D0208F59D02087F
:10E13000F59D0208F59D0208F59D0208000000000B
:10E14000F59D0208F59D0208F59D0208F59D02085F
:10E15000F59D0208F59D0208F59D0208F59D02084F
:10E16000F59D0208F59D0208F59D020800000000DB
:10E1700000000000F59D0208000000000000000003
:10E18000F59D0208F59D0208F59D0208F59D02081F
:10E19000F59D0208000000002DE9F04F85B00391C5
:10E1A0000778A7F10903042B044607F07F0200F16A
:10E1B0000100F5D9202AF3D02B2F04BF677804463D
:10E1C0002D2F72D09FED427B8DED007B4FF000082C
:10E1D0004FF000098FB34FF0000E4FF0000ADFF848
:10E1E00000B1754619E018F021FF80468946304697
:10E1F00018F0B6FE42464B4618F066FD5246804681
:10E2000089465B46DDE9000135B319F039F8CDE9FF
:10E210000001AE4614F8017F7FB1A7F13006092E48
:10E2200052465B4640464946DDD9C5B92E2F16D128
:10E2300014F8017F0125002FEFD142464B46DDE95E
:10E24000000118F0F3FE80468946039B404649468C
:10E250001C6005B0BDE8F08F4FF0010EDAE7BEF1AB
:10E26000000F29D042464B46DDE9000118F0DEFEE2
:10E2700007F0DF07452F80468946E6D10399601CE9
:10E280000A221BF0B9FC16490246002019F02EFAAA
:10E2900002460B464046494618F0C8FE804689466D
:10E2A0004046494605B0BDE8F08F9FED0B7B67788F
:10E2B0008DED007B013489E7DFF828904FF00008EE
:10E2C0004046494605B0BDE8F08F00BFAFF300807F
:10E2D000000000000000F03F000000000000F0BF60
:10E2E000000024400000F87F2DE9F84F1646002377
:10E2F000002204460D4619F00BF9002840F09D80DD
:10E30000002200232046294619F0F8F828B13022CF
:10E31000002332707370BDE8F88F204629461AF04A
:10E3200003F819F033F97BA3D3E90023814629468A
:10E33000204619F0EDF8002800F08680B9F1000FB2
:10E34000C0F2BE804A4600206F4919F0CFF902465C
:10E350000B462046294618F093FF04460D4666A159
:10E36000D1E9000101274FF0000822462B4618F0A2
:10E370005DFE0022654B18F0A7FC19F0F3F9002FA1
:10E38000CC464FF0FF3AC1464FF0000840F385807D
:10E39000DFF888E15E4C0122AEF1700945F6F32505
:10E3A0004FF02E0BA94208BFA0424FF0300309D313
:10E3B000001B61EB0501A94208BFA04203F1010364
:10E3C000F6D2DBB2337050EA010306F1010409D141
:10E3D000BA4210DACE4502F101020CD026467EE8A0
:10E3E0000245DFE7BA4204BF86F801B0B41CCE454F
:10E3F00002F10102F2D1B8F1000F0DD02246302116
:10E4000002F8011BC2F1010353442344002BF7DC43
:10E410002AEAEA7301331C44BCF1010F4CD0652396
:10E42000BCF1000F2370C5BF2B236370611CA11CBE
:10E430006046BDE8F84F0DF069BA05F100431D468E
:10E440002D23337001365BE72DA3D3E9002320464B
:10E45000294619F07BF800287FF470AFB9F10E0F50
:10E4600009F101073DDDA9F10E08424600202649C9
:10E4700019F03CF902460B462046294618F000FFE9
:10E480000022224B18F020FC19F06CF9002FA9F1A2
:10E490000F0A4FF0010C3FF77BAF334630222E249A
:10E4A00003F8022B74707FEA090618D01E4403F8A3
:10E4B000012BB342FBD16BE700232370BDE8F88F3B
:10E4C000C9F100020020104919F010F902460B466C
:10E4D0002046294618F0AAFD04460D463FE71E4691
:10E4E00056E7C9F10E0200200749C84619F0FEF8A8
:10E4F0004FF0010939E700BF0000901EC4BCD642AE
:10E5000050EFE2D6E41A4B44000024400000E03F04
:10E5100000407A108DEDB5A0F7C6B03E78A702088E
:10E5200070B54FF0FF3006F0B1FA04466FF07F404F
:10E5300006F0ACFA0646204618F002FD00220C4B0D
:10E5400018F074FD044630460D4618F0F9FC06A399
:10E55000D3E9002318F094FE02460B4620462946D4
:10E5600018F0B2FB70BD00BF0000E0DFFFFF6F439B
:10E570000000F03D000000002DE9F843044600F1E2
:10E580006C060CF0B7FF07460CF0BAFF304611F0EE
:10E59000E3FD2368C51A304611F0DEFD237DC11767
:10E5A000C4E90001042B40D8DFE803F04693617B07
:10E5B000030003232375284618F0D2FC6BA3D3E98C
:10E5C00000238046894618F0C1FF48B169A3D3E90A
:10E5D00000234046494618F09BFF002840F0A380E6
:10E5E00066A3D3E900234046494618F0AFFF48B17F
:10E5F0004046494663A3D3E9002318F089FF002869
:10E6000040F095802269E368013200212261217582
:10E61000202B0CD1A3686FEA1322D2B2D9B2914257
:10E6200000F08E8023690133236100232375FB07EB
:10E6300000D462B6BDE8F883284618F091FC53A3D5
:10E64000D3E900238046894618F080FF0028EED0E9
:10E65000404649464FA3D3E9002318F059FF00284C
:10E66000E5D0002301222275A360E360DFE728469E
:10E6700018F076FC3DA3D3E900238046894618F0C4
:10E6800065FF40B1404649463AA3D3E9002318F05C
:10E690003FFF0028CBD1236900220133236122757B
:10E6A000C5E7284618F05CFC30A3D3E90023804678
:10E6B000894618F04BFF0028EDD0404649462DA36F
:10E6C000D3E9002318F024FF0028E4D004232375A5
:10E6D000ADE7284618F044FC30A3D3E90023804678
:10E6E000894618F033FF38B12EA3D3E90023404602
:10E6F000494618F00DFF98B900221B4B4046494689
:10E7000018F024FF0028C6D04046494614A3D3E998
:10E71000002318F0FDFE0028BDD00223237586E7F4
:10E720000323237583E7E3680133E36070E7E3685D
:10E73000A268012199400A430133E360A26067E7C0
:10E740006FEA1362D2B2C3F3074393427FF46AAF16
:10E7500084F8CC30A369984767E700BFAFF3008027
:10E76000000000000018A54000209C409A9999994B
:10E7700099197C4033333333331385409A999999EF
:10E78000991995406666666666A69F40000000007F
:10E790000020BC40000000000018C5400000000040
:10E7A0000020AC40000000000018B5400000000050
:10E7B000294B1B68002B70B506460CBF182005209E
:10E7C0000D4609F0CFF8002E044639DD234B1868BA
:10E7D00018F0C6FB1EA3D3E9002318F027FC002283
:10E7E000002318F071FA18F0D1FE236820EAE071D6
:10E7F000B1F5806FA8BF4FF48061DB682046984771
:10E8000023681749D3F8803091FBF6F120469847EA
:10E81000002D14DDA5F11406012EB8BF01263046E7
:10E820000DF05CFE23682046DB6800219847A81B9A
:10E830000128B8BF0120BDE870400DF04FBE70BD8B
:10E8400003680021DB68BDE870401847AFF3008023
:10E850001010101010101040480600200802002070
:10E8600040420F000000000038B5154B1B68002B1C
:10E8700004460CBF1820052009F074F80546204610
:10E8800018F06EFB0CA3D3E9002318F0CFFB002295
:10E89000002318F019FA18F079FE2B6820EAE071CD
:10E8A000B1F5007FDB68A8BF4FF400712846984798
:10E8B000044B1C6038BD00BF101010101010004039
:10E8C000480600200802002030B52D4B8DB01A6894
:10E8D0000092009A120205D4009A42F400020092BB
:10E8E000009A1A60274A284B126801921B6802930B
:10E8F0000EF0AAFB18F034FBCDE90401019B9BB29A
:10E900000193029B9BB20293DDE904011AA3D3E9B0
:10E91000002318F08BFB1D4B0022CDE90401CDE94B
:10E9200006230298019BC01A18F00AFBCDE90801E2
:10E93000DDE90445019818F003FB02460B4620462A
:10E94000294618F0BFF9CDE90A01DDE90601DDE944
:10E950000823DDE90A4518F093FC22462B4618F0FF
:10E9600065FB00220A4B18F0AFF918F037FE039050
:10E9700003980DB030BD00BF9A9999999999F13FCC
:10E9800008030450A875FF1FCA75FF1F00005440FC
:10E9900000003E40000000002DE9F04F2DED028BFD
:10E9A000044683B0C06818F0DBFA804620698946C7
:10E9B00018F0D6FA824660698B4618F0D1FA024602
:10E9C00001F1004306460F464046494619F058FB00
:10E9D00018F024FEE062054619F006FA0190284678
:10E9E00019F0B6F9019B0546184618F0CBFA4246D5
:10E9F0004B4618F01BFB80462846894618F0C2FAA1
:10EA000032463B4618F012FB02460B46404649464A
:10EA100018F058F902460B465046594619F030FB9B
:10EA200018F0FCFD002208EE100A0023304639469B
:10EA300018F08CFD28B3B5EEC08AF1EE10FA1CDD9B
:10EA400011A7D7E9006718EE100A18F09BFA0246E2
:10EA50000B463046394618F035F932463B4618F039
:10EA600033F918F0DBFDA062E38843F00203E38092
:10EA700003B0BDEC028BBDE8F08F05A7D7E90067B6
:10EA8000E1E784ED0A8AEFE7EA2E4454FB21F93FDF
:10EA9000EA2E4454FB21F9BF08B50EF007FADFED6A
:10EAA0000C7A07EE100A67EE277A17EE900A18F034
:10EAB00069FA05A3D3E9002318F0E2FB18F066FD1C
:10EAC00008BD00BFAFF30080EA2E4454FB2119407B
:10EAD0000000B4430000000008B50EF0FBF9DFEDC4
:10EAE0000C7A07EE100A67EE277A17EE900A18F0F4
:10EAF00049FA05A3D3E9002318F0C2FB18F046FD3C
:10EB000008BD00BFAFF30080EA2E4454FB2119403A
:10EB10000000B44300000000494A21F00043934242
:10EB20002DE9704304460D464BDC464A93420E469F
:10EB30000EDC3FA3D3E9002318F0C6F80022424BB5
:10EB400018F004FD00284CD020462946BDE870830B
:10EB50003E4A93423BDCB3F1804F42DD18F0DEFFCA
:10EB60002246804689462B462046294618F05EFA02
:10EB70000022354B18F0A8F819F094FE02460B4617
:10EB80004046494618F0A0F802460B4600202E49A0
:10EB900018F076FB424604460D464B464046494631
:10EBA00018F092F802460B462046294618F08CF8D9
:10EBB00002F06AF8002EC9DC01F100431946BDE8F5
:10EBC000708302460B4618F07FF8BDE8708318F09A
:10EBD000A5FF02F059F818A3D3E9002318F074F840
:10EBE000E8E722462B462046294618F01FFA8046C1
:10EBF00089462046294618F091FF002204460D461A
:10EC0000114B4046494618F05FF819F04BFE0022C0
:10EC10000D4B18F059F802460B464046494618F08D
:10EC20002FFB22462B4618F04FF800F0C5FAC1E73B
:10EC30009C7500883CE4377EEF39FAFE422EE63FB1
:10EC4000FFFFEF7FFFFF2F3E0000F03F0000B041CD
:10EC50002DE9F84FC44B21F000469E4204460D4674
:10EC60008A460EDDC14B9E4200F3AC8000F0A780C7
:10EC7000BAF1000F40F3EA809FA1D1E90001BDE89D
:10EC8000F88FBB4B9E4200F3B580A3F1DE739E422A
:10EC900040F3A0804FF0FF3B22462B4620462946FA
:10ECA00018F0C4F902460B468046894618F0BEF9B2
:10ECB00093A3D3E9002306460F4618F0B7F992A3B1
:10ECC000D3E9002318F000F832463B4618F0AEF9BD
:10ECD0008FA3D3E9002317F0F7FF32463B4618F025
:10ECE000A5F98DA3D3E9002317F0EEFF32463B468A
:10ECF00018F09CF98AA3D3E9002317F0E5FF324608
:10ED00003B4618F093F988A3D3E9002317F0DCFF02
:10ED100042464B4618F08AF985A3D3E90023804682
:10ED200089463046394618F081F983A3D3E9002398
:10ED300017F0C8FF32463B4618F078F980A3D3E9B4
:10ED4000002317F0BFFF32463B4618F06FF97EA351
:10ED5000D3E9002317F0B6FF32463B4618F066F9B8
:10ED60007BA3D3E9002317F0ADFF32463B4618F0F2
:10ED70005DF9BBF1FF3F02460B466CD04046494669
:10ED800017F0A2FF22462B4618F050F9794E7A4B25
:10ED90004FEACB0B5E449B44DBE9002317F092FF64
:10EDA00022462B4617F08EFF02460B46D6E900019D
:10EDB00017F088FFBAF1000F43DBBDE8F88F002899
:10EDC0003FF456AF22462B462046294617F07CFFDB
:10EDD000BDE8F88F60A3D3E9002317F075FF002288
:10EDE000664B18F0B3FB00283FF454AF2046294689
:10EDF000BDE8F88F18F092FE614B9E4204460D4626
:10EE000039DCA3F550239E425EDC02460B4617F028
:10EE10005BFF0022594B17F055FF002206460F46B4
:10EE20004FF080432046294617F04EFF02460B461E
:10EE30003046394618F024FA4FF0000B04460D46D0
:10EE40002AE701F100431946BDE8F88F44A1D1E952
:10EE50000001BDE8F88F4046494617F035FF2246CD
:10EE60002B4618F0E3F802460B462046294617F0D9
:10EE700029FFBDE8F88F434B9E421ADC0022424B2B
:10EE800017F020FF002206460F463F4B204629463A
:10EE900018F0CCF80022394B17F016FF02460B464B
:10EEA0003046394618F0ECF94FF0020B04460D4697
:10EEB000F2E602460B460020344918F0E1F94FF023
:10EEC000030B04460D46E7E600222C4B17F0FAFE32
:10EED000002206460F46294B2046294617F0F4FE2D
:10EEE00002460B463046394618F0CAF94FF0010B7E
:10EEF00004460D46D0E600BF182D4454FB21F93FCF
:10EF000011DA22E33AAD903FEB0D76244B7BA93F1B
:10EF1000513DD0A0660DB13F6E204CC5CD45B73FE9
:10EF2000FF8300922449C23F0D5555555555D53F95
:10EF30002F6C6A2C44B4A2BF9AFDDE522DDEAD3F89
:10EF40006D9A74AFF2B0B33F711623FEC671BC3F29
:10EF5000C4EB98999999C93F9C7500883CE4377E29
:10EF6000182D4454FB21F9BFFFFF0F440000F07F30
:10EF7000FFFFDB3F88A70208A8A702080000F03FB8
:10EF8000FFFFF23FFF7F03400000F83F0000F0BFAB
:10EF90002DE9F843C1F30A59A9F2FF35132D0246B2
:10EFA0000B460C4606468846074622DC002D50DB01
:10EFB000DFF8F09049FA05F901EA090E5EEA060663
:10EFC0001CD036A3D3E9002317F07EFE00220023D5
:10EFD00018F0BCFA48B1002C04DD4FF4801343FA5A
:10EFE00005F5A84428EA0904002721463846BDE86B
:10EFF000F883332D06DDB5F5806F3DD010461946F8
:10F00000BDE8F883A9F213494FF0FF3E2EFA09F943
:10F0100010EA090FF2D021A3D3E9002317F054FE20
:10F020000022002318F092FA0028DED0002C09DD1F
:10F03000142D2BD00127C5F1340507FA05F5AE19BB
:10F0400028BFB844444626EA090721463846BDE8A9
:10F05000F88312A3D3E9002317F036FE0022002321
:10F0600018F074FA0028C0D0002C0BDB54EA060715
:10F0700006D00027084CB8E717F026FEBDE8F88355
:10F080003C46B2E700274FF00044AEE704F1010828
:10F09000D8E700BFAFF300800000F03F9C75008808
:10F0A0003CE4377EFFFF0F002DE9F041C1F30A5722
:10F0B000A7F2FF35132D02460B460C46884606463E
:10F0C0001CDC002D3FDB3A4F2F41864601EA070C3E
:10F0D0005CEA0E0E17D034A3D3E9002317F0F4FD39
:10F0E0000022002318F032FA20B1002C3FDB28EA7E
:10F0F0000704002621463046BDE8F081332D06DDA9
:10F10000B5F5806F2FD010461946BDE8F081A7F203
:10F1100013474FF0FF3E2EFA07F73842F3D022A3F1
:10F12000D3E9002317F0D0FD0022002318F00EFAD7
:10F130000028DFD0002C20DB444626EA07062146C3
:10F140003046BDE8F08118A3D3E9002317F0BCFDD9
:10F150000022002318F0FAF90028CBD0002C17DB8E
:10F1600000263446C6E717F0AFFDBDE8F0814FF446
:10F17000801343FA05F5A844B9E7142D10D00123F4
:10F18000C5F1340503FA05F5AE1928BF9844D3E755
:10F1900024F00042074B324318BF1C460026A9E763
:10F1A00004F10108C8E700BF9C7500883CE4377E85
:10F1B000FFFF0F000000F0BF2DE9F04FD84B994240
:10F1C00087B0804689460E4613DCD64B21F00044BA
:10F1D0009C4218DD0022D44B18F090F9002879D019
:10F1E000002200230020D14918F04AF807B0BDE8FA
:10F1F000F08FCF4B99422FDD42464B4617F064FD0E
:10F2000007B0BDE8F08FCB4B9C4270DDCA4B1E446B
:10F210009E427ED80022C94B4046494617F054FD15
:10F220004FEA215AAAF2FF3ABAF1000F04460D46FE
:10F230000E4640F3DE8142464B4617F043FD024640
:10F240000B460020BD4917F03DFD22462B4618F025
:10F2500017F8CDE902010BE0B94B9E42DADD9FEDD4
:10F260009A7B8DED027B4FEA265A4446AAF2FF3A7A
:10F27000B44BC6F313069E4246F07F5500F3E78079
:10F2800045F44015204629460022AC4B17F01AFDE4
:10F29000002204460D46AC4B17F0C8FE22462B4612
:10F2A00017F0C4FEA046CDE90401A946CDE900014E
:10F2B000002E3AD1002200232046294618F01EF9DC
:10F2C000002800F0CE80BAF1000F40F074810020D9
:10F2D000002195E742464B464046314617F0F2FC86
:10F2E00002460B4617F0CCFF07B0BDE8F08F0022B6
:10F2F000964B17F0E9FC0022002318F027F90028AC
:10F3000000F0CC80924B9C4200F3C88040464946B6
:10F3100076E700228C4B17F089FE42464B4617F0E9
:10F3200085FECDE900014FF0000A00224FF0804336
:10F330004046494617F0C8FC02460B46404649463F
:10F3400017F09EFF02460B4606460F4617F06EFE6C
:10F350005FA3D3E9002304460D4617F067FE5EA3C2
:10F36000D3E9002317F0B0FC22462B4617F05EFECF
:10F370005BA3D3E9002317F0A7FC22462B4617F026
:10F3800055FE59A3D3E9002317F09EFC22462B46D5
:10F3900017F04CFE56A3D3E9002317F095FC224644
:10F3A0002B4617F043FE54A3D3E9002317F08CFC3F
:10F3B00022462B4617F03AFE51A3D3E9002317F05B
:10F3C00083FC22462B4617F031FE04460D46BAF167
:10F3D000000F00F0BF80504617F0C2FD4AA3D3E9EA
:10F3E000002382468B4617F021FEDDE90023CDE99C
:10F3F00004012046294617F067FC32463B4617F0C9
:10F4000015FE43A3D3E9002304460D465046594652
:10F4100017F00CFEDDE9022317F056FC02460B46FE
:10F420002046294617F050FC02460B46DDE9000154
:10F4300017F048FC42464B4617F044FC02460B4688
:10F44000DDE9040117F03EFC07B0BDE8F08F45F49C
:10F450000015C6F5801620462946B6100AF1010AA5
:10F4600012E72DA3D3E900232046294617F0DEFD3D
:10F4700002460B460020314917F024FCDDE9042345
:10F4800017F0D4FD06460F46BAF1000F73D10246BD
:10F490000B462046294617F015FCB1E642464B467E
:10F4A0004046494617F0C2FD0022274B17F0BEFD2B
:10F4B00002460B464046494617F004FC07B0BDE83B
:10F4C000F08F00BFAFF300800000000000000000DC
:10F4D00044523EDF12F1C23F9FC678D0099AC33F23
:10F4E000DE03CB966446C73FAF788E1DC571CC3F17
:10F4F000599322942449D23F04FA97999999D93F74
:10F50000935555555555E53F0000E0FE422EE63F28
:10F51000763C7935EF39EA3D555555555555E53F1A
:10F520007982DA3FFFFFEF3F0000F0BF000050C3D9
:10F53000FFFFEF7FFFFF1F3E3C412D400000F03FEB
:10F54000FFFF3F439DA006000000E03F0000504346
:10F55000FFFF8F3CDDE9004522462B4617F0B4FB48
:10F5600032463B4617F062FD02460B4620462946CE
:10F5700017F0A8FB9CE7504617F0F2FC23A3D3E951
:10F58000002382468B4617F051FD22A3D3E90023C6
:10F59000804689465046594617F048FDDDE902236A
:10F5A00017F092FB02460B463046394617F08AFBAD
:10F5B00022462B46DCE7504617F0D2FC15A3D3E9D0
:10F5C000002306460F4617F031FDDDE9022317F050
:10F5D0007BFB0EA3D3E9002304460D463046394693
:10F5E00017F024FD02460B462046294617F06CFB17
:10F5F00006E60022044B17F065FB02460B46404628
:10F60000494617F05FFB20E60000F03F0000E0FEF7
:10F61000422EE63F763C7935EF39EA3D00000000A6
:10F6200008B518F001FE04A3D3E9002317F028FE63
:10F6300008BD00BFAFF30080EF39FAFE422EE63F6F
:10F640002DE9F043DFF8B4808BB004460D4601F09D
:10F65000F3F898F90030013306460F462BD02246C6
:10F660002B462046294617F07BFF814618BB2046D3
:10F67000294618F053FA1FA3D3E9002317F066FFB9
:10F68000C8B1194A98F90030CDF820900321CDE98E
:10F690000445CDE902458DE806008BB9134B4FF0C8
:10F6A0006042CDE90623684619F08AFF70B1089BD5
:10F6B0009BB9DDE90667304639460BB0BDE8F083FB
:10F6C0000B490020022BCDE90601ECD11AF0F6F827
:10F6D00022230360089B002BEBD01AF0EFF8089B65
:10F6E0000360E6E7AFF30080D4BC0208FFFFEF47FA
:10F6F0000000F07F7DF8B98FCE33864006040020ED
:10F700002DE9F043DFF8E4808BB004460D4601F0AC
:10F7100043F998F90030013306460F4633D02046AE
:10F72000294619F047FF70B32CA3D3E900232046E4
:10F73000294617F00BFF814650BB2AA3D3E90023CB
:10F740002046294617F0E4FEE8B198F90030204A37
:10F75000CDF82090002600270421022BCDE9044596
:10F76000CDE90245CDE906678DE8060029D0684657
:10F7700019F026FF28B3089B1BB11AF09FF8089BCD
:10F780000360DDE90667304639460BB0BDE8F0831B
:10F790000F4A98F90030019203210022CDE9044577
:10F7A000CDE90245009108922BB90A4B4FF0604217
:10F7B000CDE90623DBE708490020022BCDE906014D
:10F7C000D5D11AF07BF822230360D4E7AFF3008091
:10F7D000DCBC0208FFFFEF470000F07FEF39FAFEC4
:10F7E000422E864051302DD5104987C00604002096
:10F7F0002DE9F04FDFF80C938DB006460F46144606
:10F800001D4601F0C5FC99F90080B8F1FF3FCDE934
:10F81000000136D022462B462046294617F0A0FE8E
:10F82000834670BB32463B463046394617F098FE59
:10F830008246002840F0A28030463946002200234C
:10F8400017F05CFE10B3002200232046294617F073
:10F8500055FE834600286AD09FEDA17B0122A44B70
:10F86000CDF828A00292CDE90467CDE906458DEDDB
:10F87000087B0393B8F1000F45D09FED9B7B8DED86
:10F88000007BDDE900010DB0BDE8F08FDDE900018E
:10F8900019F090FE8046002800F08D804FF0000A9D
:10F8A0004FF0000BDDE9000152465B4617F026FEE3
:10F8B0000028E6D03046394619F07CFE0028E0D01A
:10F8C0002046294619F076FE0028DAD099F9003052
:10F8D000874A039204210022022BCDE90467CDE977
:10F8E0000645CDE908AB02910A9203D002A819F0AF
:10F8F00067FE68B919F0E2FF2223036008E09FED7C
:10F90000787B8DED087B02A819F05AFE002830D0D4
:10F910000A9B1BB119F0D2FF0A9B03609DED087B87
:10F920008DED007BDDE900010DB0BDE8F08F2046D4
:10F93000294619F03FFE0028A3D0002200232046CC
:10F94000294617F0E5FD00289BD099F90030684A58
:10F95000CDF828B00121CDE90467CDE90645029133
:10F960000392002BCBD063490020022BCDE9080184
:10F97000C9D119F0A3FF21230360C9E700220023A6
:10F980002046294617F0BAFD00283FF47AAF5A4BBB
:10F990005749CDF828B000220120B8F1020FCDE977
:10F9A00004670290CDE90645CDE908230391AAD169
:10F9B000CDE9002365E73046394619F0FBFD002804
:10F9C0003FF46CAF2046294619F0F4FD00283FF4BF
:10F9D00065AFDDE900231046194617F0C1FD002888
:10F9E0005FD1032399F900800293414B0A90CDE93E
:10F9F0000467CDE906450393B8F1000F2BD1DFF87A
:10FA000008B14FF0604A0022002330463946CDE964
:10FA100008AB17F07DFD00283FF468AF0022374B9C
:10FA20002046294617F002FB04460D4619F0D0FD8A
:10FA300002460B462046294617F060FD70BB304B4E
:10FA400099F900804FF06042CDE90823B8F1020F28
:10FA50007FF44CAF4EE7DFF8B4B04FF0000A00225D
:10FA6000002330463946CDE908AB17F051FD002898
:10FA7000ECD00022214B2046294617F0D7FA044645
:10FA80000D4619F0A5FD02460B462046294617F003
:10FA900035FD18B9174B0022CDE9082399F90080EC
:10FAA000D4E799F90090124BCDF828800122CDE9D6
:10FAB0000467CDE9064502920393B9F1000F3FF4C4
:10FAC0001EAF002200231046194617F0D9FBB9F1EA
:10FAD000020FCDE908013FF44CAF14E7AFF300800B
:10FAE0000000000000000000000000000000F03FE7
:10FAF000F4BC02080000F0FF0000F03F0000E03F0F
:10FB0000FFFFEFC706040020FFFFEF470000F07F74
:10FB10002DE9F84FC44E21F00043B34204460D4690
:10FB20000DDD03F1404303F58013034340F0B9803A
:10FB3000002940F3408100200021BDE8F88FBB4E32
:10FB4000B34240F3A6800029C0F2788102460B46FA
:10FB50000020B74917F0B6F80022B64B17F066FA46
:10FB600004460D4618F09EFE95A3D3E9002389466E
:10FB700080462946204617F059FA93A3D3E900237B
:10FB800017F0A2F822462B4617F050FA90A3D3E9BB
:10FB9000002317F097F822462B4617F047FA8EA35A
:10FBA000D3E9002317F090F822462B4617F03EFACF
:10FBB0008BA3D3E9002317F085F822462B4617F0D4
:10FBC00035FA89A3D3E9002317F07EF822462B46A5
:10FBD00017F02CFA86A3D3E9002382468B462046F1
:10FBE000294617F023FA84A3D3E9002317F06AF813
:10FBF00022462B4617F01AFA81A3D3E9002317F007
:10FC000063F822462B4617F011FA7FA3D3E90023AD
:10FC100017F058F822462B4617F008FA0022844BBA
:10FC200017F052F802460B465046594617F028FB8B
:10FC300042464B4617F0FAF9002682468B4632467A
:10FC40004B463046494617F0F1F902460B4620462E
:10FC5000294617F037F8324604460D464B464046D3
:10FC6000494617F031F802460B462046294617F060
:10FC700007FB02460B465046594617F025F8324618
:10FC80004B4617F021F802460B4617F01DF8BDE869
:10FC9000F88F694A93420EDC5DA1D1E90001BDE80D
:10FCA000F88F02460B4617F00DF802460B4617F088
:10FCB000E7FABDE8F88F02460B4617F0B7F940A304
:10FCC000D3E9002306460F4617F0B0F93EA3D3E967
:10FCD000002316F0F9FF32463B4617F0A7F93CA384
:10FCE000D3E9002316F0EEFF32463B4617F09EF9AB
:10FCF00039A3D3E9002316F0E7FF32463B4617F05D
:10FD000095F937A3D3E9002316F0DCFF32463B46D2
:10FD100017F08CF934A3D3E9002316F0D5FF32464F
:10FD20003B4617F083F932A3D3E900238046894686
:10FD30003046394617F07AF92FA3D3E9002316F09D
:10FD4000C1FF32463B4617F071F92DA3D3E90023DA
:10FD500016F0BAFF32463B4617F068F92AA3D3E9FA
:10FD6000002316F0AFFF32463B4617F05FF9002242
:10FD70002F4B16F0A9FF02460B464046494617F0A6
:10FD80007FFA22462B4617F051F902460B4622A174
:10FD9000D1E9000116F096FF02460B46204629469F
:10FDA00016F090FF02460B4619A1D1E9000116F0AA
:10FDB00089FFBDE8F88F1AA1D1E90001BDE8F88FED
:10FDC00009F7FD0DE13D023F88B20175E0EF493FC3
:10FDD0003B8F68B52882A43F5544880E55C1C93F62
:10FDE0007D6FEB0312D6D43F555555555555C53F3C
:10FDF00082922EB1C5B8B33F59018D1B6C06E63F08
:10FE0000C88A599CE52A00404B2D8A1C273A03409A
:10FE1000182D4454FB21F93F075C143326A6913C6E
:10FE2000182D4454FB210940FFFFEF3FFFFFDF3F48
:10FE30000000F03F0000E03F0000603C00225C4B0F
:10FE400016F042FF00225B4B17F0F0F840A3D3E915
:10FE5000002304460D4617F0E9F83FA3D3E9002339
:10FE600016F032FF22462B4617F0E0F83CA3D3E908
:10FE7000002316F027FF22462B4617F0D7F83AA3A7
:10FE8000D3E9002316F020FF22462B4617F0CEF8C8
:10FE900037A3D3E9002316F015FF22462B4617F0AF
:10FEA000C5F835A3D3E9002316F00EFF22462B46F2
:10FEB00017F0BCF8804689462046294618F0F2FC27
:10FEC0002FA3D3E9002306460F462046294617F004
:10FED000ADF82DA3D3E9002316F0F4FE22462B46FD
:10FEE00017F0A4F82AA3D3E9002316F0EDFE22466A
:10FEF0002B4617F09BF828A3D3E9002316F0E2FE67
:10FF000022462B4617F092F80022294B16F0DCFE11
:10FF100002460B464046494617F0B2F932463B4688
:10FF200017F084F81EA3D3E9002316F0CBFE324667
:10FF30003B4616F0C9FE02460B4616F0C5FE0246C9
:10FF40000B4619A1D1E9000116F0BCFEBDE8F88FFF
:10FF500009F7FD0DE13D023F88B20175E0EF493F31
:10FF60003B8F68B52882A43F5544880E55C1C93FD0
:10FF70007D6FEB0312D6D43F555555555555C53FAA
:10FF800082922EB1C5B8B33F59018D1B6C06E63F76
:10FF9000C88A599CE52A00404B2D8A1C273A034009
:10FFA000075C143326A6913C182D4454FB210940CC
:10FFB0000000F03F0000E03F434A91422DE9F84342
:10FFC00004460D4639DD414A914209DD02F179527C
:10FFD000914240DD02460B4616F076FEBDE8F883FE
:10FFE00001F1404202F58012024330D0B1F1804F5E
:10FFF0003ADC0022364B16F065FE02460B460446FC
:020000040801F1
:100000000D4616F061FE224606460F462B46204658
:10001000294617F00BF802460B463046394616F0D3
:1000200053FE18F03FFC0B4602462946204616F0C8
:100030004BFEBDE8F843FFF7BFB802460B4616F08B
:1000400041FE02460B4617F01BF9BDE8F88300207D
:100050000021BDE8F88300F017FE19A3D3E90023BF
:1000600016F032FEBDE8F88302460B4616F0DEFFBE
:100070000022174B16F026FE18F014FC224680468C
:1000800089462B462046294616F01EFE4246064665
:100090000F464B462046294616F016FE02460B46F2
:1000A00000200B4917F0ECF80B4602463946304663
:1000B00016F008FEBDE8F84300F0E6BDAFF300809F
:1000C000EF39FAFE422EE63FFFFFEF3FFFFFAF4161
:1000D0000000F03F000000002DE9F047BE4B21F08A
:1000E0000048984584B004460D4612DD08F14048AA
:1000F00008F58018034658EA030321D002460B4650
:1001000016F0E0FD02460B4617F0BAF804B0BDE861
:10011000F087B24B98458A4629DCB8F1795F80F2C6
:10012000658191A3D3E9002316F0CEFD0022AC4BEC
:1001300017F00CFAD8B12046294604B0BDE8F08784
:100140008BA3D3E9002316F071FF8BA3D3E900231F
:1001500006460F462046294616F068FF02460B4623
:100160003046394616F0B0FD04B0BDE8F0872046B1
:10017000294617F0D3FC02460B460020984916F09A
:10018000A1FD0022974B16F051FF7DA3D3E9002378
:1001900004460D4616F04AFF7BA3D3E9002316F070
:1001A00093FD22462B4616F041FF79A3D3E90023A5
:1001B00016F088FD22462B4616F038FF76A3D3E9C9
:1001C000002316F081FD22462B4616F02FFF74A364
:1001D000D3E9002316F076FD22462B4616F026FFC3
:1001E00071A3D3E9002316F06FFD22462B4616F0CB
:1001F0001DFF6FA3D3E90023CDE900012046294666
:1002000016F014FF6CA3D3E9002316F05BFD224621
:100210002B4616F00BFF6AA3D3E9002316F054FD1A
:1002200022462B4616F002FF67A3D3E9002316F0FF
:1002300049FD22462B4616F0F9FE694B002216F0C6
:1002400043FDCDE902012046294618F02BFB664B01
:10025000984506460F4666DCDDE90223DDE900012C
:1002600017F00EF83246CDE900013B4630463946DC
:1002700016F02AFD02460B46DDE9000116F0D6FE17
:100280004FF00008CDE9000142463B464046394662
:1002900016F0CCFE02460B462046294616F012FD0B
:1002A000424604460D463B463046394616F00CFDA4
:1002B00002460B462046294616F0E2FF02460B4650
:1002C00016F002FD02460B462BA1D1E9000116F003
:1002D000F9FC02460B46DDE9000116F0F3FC42464C
:1002E00004460D463B464046394616F0EDFC0246B4
:1002F0000B4637A1D1E9000116F0E4FC02460B469B
:100300002046294616F0DEFC02460B4630A1D1E914
:10031000000116F0D7FCBAF1000F3FF7F7AE01F17C
:1003200000431946F2E6DDE90223DDE9000116F09B
:10033000A7FF32463B4616F079FE32463B4616F0A2
:10034000C3FC02460B4616F0BFFC0BA3D3E9002307
:1003500016F0B8FC02460B4605A1D1E9000116F0E3
:10036000B1FCD8E7AFF300809C7500883CE4377E91
:10037000182D4454FB21F93F075C143326A6913C09
:1003800009F7FD0DE13D023F88B20175E0EF493FFD
:100390003B8F68B52882A43F5544880E55C1C93F9C
:1003A0007D6FEB0312D6D43F555555555555C53F76
:1003B00082922EB1C5B8B33F59018D1B6C06E63F42
:1003C000C88A599CE52A00404B2D8A1C273A0340D5
:1003D000182D4454FB21E93FFFFFEF3FFFFFDF3FB4
:1003E0000000F03F0000E03F3233EF3F02460B4693
:1003F00016F01CFE37A3D3E9002306460F4616F07D
:1004000015FE36A3D3E9002316F05EFC32463B46C8
:1004100016F00CFE33A3D3E9002316F053FC32464A
:100420003B4616F003FE31A3D3E9002316F04CFC43
:1004300032463B4616F0FAFD2EA3D3E9002316F010
:1004400041FC32463B4616F0F1FD2CA3D3E90023D4
:1004500016F03AFC32463B4616F0E8FD29A3D3E9F4
:100460000023804689463046394616F0DFFD27A333
:10047000D3E9002316F026FC32463B4616F0D6FDA3
:1004800024A3D3E9002316F01FFC32463B4616F0A6
:10049000CDFD22A3D3E9002316F014FC32463B46DF
:1004A00016F0C4FD00220A4B16F00EFC02460B4665
:1004B0004046494616F0E4FE22462B4616F0B6FDAD
:1004C00022462B4616F000FC04B0BDE8F08700BFC2
:1004D0000000F03F09F7FD0DE13D023F88B20175D4
:1004E000E0EF493F3B8F68B52882A43F5544880E12
:1004F00055C1C93F7D6FEB0312D6D43F55555555B5
:100500005555C53F82922EB1C5B8B33F59018D1BD9
:100510006C06E63FC88A599CE52A00404B2D8A1C90
:10052000273A0340000000002DE9F84F1D465342D2
:10053000134325F0004ADFF8E0E14AEAD37373453C
:10054000144606460F4647D8C0F1000848EA00089E
:1005500021F0004343EAD878F0458B463CD805F1BA
:10056000404808F5801858EA020850D04FEAA578AC
:1005700008F0020848EAD17850EA030134D052EA80
:100580000A023CD0F24557D0734538D0A3EB0A039A
:100590001B153C2B42DC002D70DB22462B463046DF
:1005A000394616F06DFE17F0B9FAFEF751FBB8F1B7
:1005B000010F5FD0B8F1020F4ED0B8F1000F62D03A
:1005C00043A3D3E9002316F07DFB43A3D3E9002323
:1005D00016F078FBBDE8F88F32463B4620462946A8
:1005E00016F072FBBDE8F88FB8F1020F1AD0B8F11F
:1005F000030F10D13AA1D1E90001BDE8F88FBBF19A
:10060000000F14DB38A1D1E90001BDE8F88FBDE887
:10061000F84FFEF71DBB3946BDE8F88F32A1D1E98E
:100620000001C4E72CA1D1E90001BDE8F88F30A199
:10063000D1E90001BDE8F88F534526D0B8F1020F8B
:10064000F0D0B8F1030FD5D0B8F1010F4FF0000092
:1006500029D00021BDE8F88F1DA3D3E9002316F0AF
:1006600031FB02460B461CA1D1E9000116F02AFB22
:10067000BDE8F88F01F10041BDE8F88F3C338CDA1A
:100680000020002193E7BDE8F88FB8F1020F18D0E1
:10069000B8F1030F10D0B8F1010F08D016A1D1E9BD
:1006A0000001BDE8F88F4FF00041BDE8F88F14A1BC
:1006B000D1E90001BDE8F88F13A1D1E90001BDE83F
:1006C000F88F13A1D1E90001BDE8F88FAFF30080E6
:1006D000075C143326A6A13C182D4454FB21094085
:1006E000182D4454FB2109C0182D4454FB21F93F17
:1006F000182D4454FB21F9BF182D4454FB21E93F28
:10070000182D4454FB21E9BFD221337F7CD902C08C
:10071000D221337F7CD902400000F07F000000002E
:1007200043422DE9F047034321F000463E4A46EAA2
:10073000D373934204460D4613D896423DD03B4BAB
:100740009E428A4617DC36A3D3E9002316F0BCFA92
:100750000022002316F0FAFEA8B320462946BDE881
:10076000F08702460B4616F0ADFA02460B4616F02D
:1007700087FDBDE8F0872E4B9E42354624DD33468B
:100780000246314616F0A0FA224606460F462B4690
:100790000020254916F096FA02460B4630463946A7
:1007A00016F06EFDFEF708FD0022224B16F03EFC0F
:1007B000BAF1000F2FDBBDE8F0870022002316F00E
:1007C0005FFDBDE8F087354622462B462046294688
:1007D00016F07AFA22462B4606460F4616F026FCFD
:1007E0002246804689462B4600200F4916F06AFAB9
:1007F00002460B464046494616F042FD32463B460D
:1008000016F062FAFEF7D8FC00220A4B16F00EFC36
:10081000BAF1000FCFDA01F100431946BDE8F087C5
:100820009C7500883CE4377E0000F03FFFFF2F3EC0
:10083000FFFFDF3F0000E03F2DE9F8434E4B21F082
:1008400000449C4206460F461BDC4C4B9C4222DD7A
:100850004B4B9C4263DD4B4B9C427BDD4A4B9C42A5
:1008600046DD01339C4240D041A3D3E9002310462A
:10087000194616F0DBFB06460F4630463946BDE802
:10088000F88302460B4616F0D1FB06460F4630466B
:100890003946BDE8F88317F041F902F0B1FC0022B7
:1008A0003A4B8046894616F00FFAB4F1725F06465D
:1008B0000F46ECDB42464B464046494616F0B6FB37
:1008C00032463B4604460D463046394616F0FCF9A2
:1008D00002460B462046294616F0D2FC00222B4B3E
:1008E00016F0F2F906460F46D1E7294B9842BBD8DD
:1008F0003046394617F012F90022264B16F096FBC7
:1009000000F04AF8002204460D46224B16F08EFBFA
:1009100022462B4616F08AFB06460F46B7E717F02D
:10092000FDF800F039F800221A4B06460F4616F083
:100930007DFB32463B4604460D460020154916F025
:100940009FFC02460B462046294616F0BDF9064696
:100950000F469CE717F0E2F800F01EF800220D4B5E
:1009600016F064FB06460F4691E700BFAFF3008028
:100970009C7500883CE4377EFFFFEF7F422ED63F18
:10098000FFFF3540412E8640CD3386400000F03FCA
:100990007DF8B98F0000E03F2DE9F04FB04E21F017
:1009A0000042B24283B004460D464FEAD1770DD9DA
:1009B000AC4EB24225D9C1F31303034340F0EC809F
:1009C0000FB10020002103B0BDE8F08FA64B9A4282
:1009D00000F2CB80A54B9A4200F2DC808AA3D3E9D7
:1009E000002316F071F90022A14B16F0AFFD00288C
:1009F00000F006812046294600229D4B16F064F93E
:100A0000E1E783A3D3E9002316F0A0FD002840F01E
:100A1000C88081A3D3E900232046294616F078FD3B
:100A20000028CED1934E7EA3D3E9002306EBC70660
:100A30002046294616F0FAFAD6E9002316F044F9C2
:100A400016F0A4FD064616F08BFA77A3D3E900232F
:100A50008046894616F0EAFA02460B4620462946A9
:100A600016F030F972A3D3E90023CDE90001404626
:100A7000494616F0DBFA82468B4652465B46DDE974
:100A8000000116F01FF904460D4622462B4620466B
:100A9000294616F0CBFA68A3D3E90023804689469D
:100AA00016F0C4FA66A3D3E9002316F00BF9424608
:100AB0004B4616F0BBFA64A3D3E9002316F004F901
:100AC00042464B4616F0B2FA61A3D3E9002316F072
:100AD000F9F842464B4616F0A9FA5FA3D3E9002382
:100AE00016F0F2F842464B4616F0A0FA02460B46C4
:100AF0002046294616F0E6F880468946002E58D052
:100B00002046294642464B4616F090FA4246044695
:100B10000D464B4600204FF0804116F0D3F80246B8
:100B20000B462046294616F0ABFB02460B465046C4
:100B3000594616F0C7F8DDE9002316F0C3F80B4656
:100B400002464B49002016F0BDF86FF47F739E42B9
:100B500051DA06F57A7601EB065100224FF0B873B0
:100B600016F064FA03B0BDE8F08F434B9A423FF6AB
:100B700059AF424BFC002344D3E9002316F0A2F8FE
:100B80003F4BC7F101062344CDE90001D3E900AB97
:100B9000F61B72E7002678E702460B4616F094F83B
:100BA00011E719A3D3E900231046194616F03EFABF
:100BB00009E702460B462046294616F037FA00227E
:100BC00006460F464FF080434046494616F07AF8F5
:100BD00002460B463046394616F052FB22462B465B
:100BE00016F070F802460B460020214916F06AF80C
:100BF00003B0BDE8F08F01EB065103B0BDE8F08F04
:100C0000064642E7AFF300809C7500883CE4377EDF
:100C1000EF39FAFE422E864051302DD5104987C05B
:100C2000FE822B654715F73F0000E0FE422EE63FAF
:100C3000763C7935EF39EA3DD0A4BE726937663E1D
:100C4000F16BD2C541BDBB3E2CDE25AF6A56113FCC
:100C500093BDBE166CC1663F3E5555555555C53FB3
:100C6000412E8640FFFFEF7F422ED63FFFFF2F3EF3
:100C70000000F03FC8A70208B1A2F03FD8A70208C1
:100C8000E8A70208000000002DE9F04FB1F5801F31
:100C900085B006460F460B465ADA024621F000445C
:100CA000224300F0F8800029C0F27A810022D64B5E
:100CB00016F0BCF9D54A0B46934206460F466FF034
:100CC000350C4ADCC3F3130505F5152E0EF6647ECC
:100CD0000EF4801E8EF07F5282F440121C1542EA00
:100CE0000507A4F2FF3464440022C94B304639465C
:100CF00004EB1E5415F0E6FFAB1CC3F31303022BE9
:100D000082468B464FF0000230DC002316F0F6FBE3
:100D1000002800F0C980002C00F04B81204616F01E
:100D20001FF9A5A3D3E9002306460F4616F07EF966
:100D3000A3A3D3E9002304460D463046394616F0F6
:100D400075F902460B462046294615F0BDFF0AE01C
:100D5000AE4A93424FF0000CB4DD32463B4630467B
:100D6000394615F0B1FF05B0BDE8F08F4FF0804374
:100D700015F0AAFF02460B465046594616F080FA77
:100D8000064620460F4616F0EBF83246CDE9000144
:100D90003B4630463946CDE9026716F047F9024630
:100DA0000B468046894616F041F987A3D3E9002314
:100DB00006460F4616F03AF985A3D3E9002315F04D
:100DC00083FF32463B4616F031F983A3D3E9002373
:100DD00015F07AFF32463B4616F028F980A3D3E996
:100DE000002315F071FF42464B4616F01FF97EA313
:100DF000D3E90023804689463046394616F016F975
:100E00007BA3D3E9002315F05FFF32463B4616F083
:100E10000DF979A3D3E9002315F056FF32463B467E
:100E200016F004F90B4602464946404615F04CFFC1
:100E3000A5F5C223C5F5D725A3F27A4351351D4345
:100E4000002D8046894656DD0022724B5046594699
:100E500016F0ECF852465B4616F0E8F806460F46E8
:100E6000002C68D132463B464046494615F02CFFDF
:100E7000DDE9022316F0DAF802460B463046394621
:100E800015F020FF02460B465046594615F01AFF52
:100E900005B0BDE8F08F0022002300205E4916F067
:100EA000EFF905B0BDE8F08F55A3D3E90023504614
:100EB000594616F0BBF802460B460020554915F07E
:100EC00001FF524606460F465B465046594616F00D
:100ED000ADF802460B463046394616F0A7F80646EE
:100EE0000F46002C40F09A8002460B465046594669
:100EF00015F0E8FE37E7002C00F0A4802EA3D3E91C
:100F00000023DDE9000116F091F842464B46044605
:100F10000D465046594615F0D5FEDDE9022316F080
:100F200085F827A3D3E9002306460F46DDE9000133
:100F300016F07CF821E020A3D3E90023DDE90001CD
:100F400016F074F832463B4604460D464046494684
:100F500015F0BAFEDDE9022316F068F818A3D3E90C
:100F6000002380468946DDE9000116F05FF802465D
:100F70000B464046494615F0A7FE02460B46304652
:100F8000394615F09FFE52465B4615F09BFE024621
:100F90000B462046294615F095FE05B0BDE8F08FBA
:100FA00002460B4615F08EFE0022002316F068F96B
:100FB000D9E600200021D6E60000E0FE422EE63F02
:100FC000763C7935EF39EA3D44523EDF12F1C23FBB
:100FD000DE03CB966446C73F599322942449D23FFF
:100FE000935555555555E53F9FC678D0099AC33F4F
:100FF000AF788E1DC571CC3F04FA97999999D93F66
:10100000555555555555D53F00005043FFFFEF7FCF
:101010000000F03F0000E03F000050C3204615F004
:101020009FFF0FA3D3E900238046894615F0FEFFFA
:101030000DA3D3E9002304460D464046494615F06A
:10104000F5FF9AE702460B465046594615F03AFE20
:10105000DDE9022315F0EAFF14E700BFAFF30080DB
:101060000000E0FE422EE63F763C7935EF39EA3D5E
:10107000B1F5801F2DE9F84304460D460B461ADAF8
:10108000024621F00046324359D000295FDB00229E
:101090003B4B15F0CBFF3B4A0D462B469342044693
:1010A0006FF035010CDD22462B462046294615F00F
:1010B0000BFEBDE8F883334A93424FF00001F2DCA7
:1010C0001815A0F2FF3008444FEAD0794844C3F322
:1010D000130815F045FFC9F57F73033348EA03553C
:1010E00006460F4620462946FFF7CEFD1EA3D3E94C
:1010F0000023804689463046394615F097FF1CA3E9
:10110000D3E9002304460D464046494615F08EFFBC
:1011100002460B462046294615F0D6FD16A3D3E914
:10112000002304460D463046394615F07FFF02463F
:101130000B462046294615F0C7FDBDE8F88300227E
:1011400000230020104916F09BF8BDE8F883024602
:101150000B4615F0B7FD0022002316F091F8BDE80C
:10116000F88300BFAFF30080362BF111F3FE593D39
:101170000EE526157BCBDB3F00609F501344D33F29
:1011800000005043FFFFEF7F000050C3000000004D
:101190002DE9F04F23F0004757EA020493B037D00F
:1011A000674C21F00046A64283460D4629DC9A464C
:1011B000964625D0A74224DC614CA74279D0002D69
:1011C00080468946CDE9002377DB0024BEF1000F7D
:1011D0002CD15B4B9F4200F08B805A4B9F4261D0D9
:1011E000BAF1804F00F0C383574B9A451ED1002DB2
:1011F0001CDB4046494613B0BDE8F04F17F052BB28
:1012000058B106F1404606F5801656EA0B0306D1A2
:101210004C49002013B0BDE8F08FB742CCDD4B48FD
:1012200013B0BDE8F04F18F0CDB900244046494650
:1012300016F074FCBBF1000F19D126B1414B25F01B
:1012400040429A4213D1BAF1000FC0F2CA83002D76
:10125000E0DA06F1404606F5801656EA040300F08F
:10126000A584012CD6D101F100431946D2E7ED0F38
:10127000013D54EA05034ED0354B9F426EDD03F12C
:1012800004739F4240F3FE83324B9E424EDDBAF11F
:10129000000F4EDD28A3D3E900231046194615F0B0
:1012A000C5FEB7E7BAF1000FC0F252844046494686
:1012B000B0E7BEF1000F82D0A3E7274B9F4228DCA6
:1012C000A3F154739F4280DD3B15A3F2FF33142B2F
:1012D00040F35484C3F134032EFA03F202FA03F309
:1012E0009E457FF472AF02F00102C2F102046DE785
:1012F00006F1404303F5801353EA0B0388D0154BE6
:101300009E4240F33B83BAF1000F12DBDDE900019E
:1013100080E702245AE742464B461046194615F02C
:10132000D1FC02460B4615F0ABFF73E7BAF1000F94
:10133000B0DB002000216DE79C7500883CE4377E1F
:101340000000F07F0000F03F0000E03F38BB0208E3
:101350000000E041FFFFEF3FFFFF3F43B6F5801F76
:101360004FF0000205DAD84B15F060FE6FF0340242
:101370000E463315D54FC6F31306A3F2FF331344BD
:1013800046F07F5ABE421A460D934AF4401A40F383
:101390002F83CF4B9E4240F30D849FEDB57B8DEDA7
:1013A000087B8DED0E7B9FEDB47B13468DED067BA8
:1013B00001330D93AAF5801A0027DDE90623514673
:1013C000CDE90A0115F07EFCDDE906238046894659
:1013D000DDE90A0115F078FC02460B460020BD4904
:1013E00015F04EFF0A460146CDE910121346494654
:1013F0000246404615F01AFE4FEA6A0343F00053D6
:101400008C46834603F50023CDE904BCDA468B46BF
:10141000D9190023CDE902AB0293DDE902AB00202C
:1014200006460F4602460B465046594615F0FEFD4D
:1014300002460B464046494615F044FCDDE90623CA
:10144000804689463046394615F03CFC02460B463C
:10145000DDE90A0115F036FC52465B4615F0E6FD63
:1014600002460B464046494615F02CFCDDE91023A8
:1014700015F0DCFDDDE90467CDE9060132463B46A7
:101480003046394615F0D2FD7DA3D3E90023064648
:101490000F4615F0CBFD7CA3D3E9002315F014FC17
:1014A00032463B4615F0C2FD79A3D3E9002315F07F
:1014B0000BFC32463B4615F0B9FD77A3D3E9002378
:1014C00015F002FC32463B4615F0B0FD74A3D3E99B
:1014D000002315F0F9FB32463B4615F0A7FD72A339
:1014E000D3E9002315F0F0FB3246804689463B469F
:1014F0003046394615F09AFD02460B4640464946AD
:1015000015F094FD524606460F465B46DDE90401A0
:1015100015F0DAFBDDE9062315F088FD32463B467F
:1015200015F0D2FB5246804689465B4650465946E6
:1015300015F07CFD0022684BCDE90A0115F0C4FBD3
:1015400042464B4615F0C0FB02980F46064632460F
:101550003B465046594615F069FD002282468B46AF
:101560005D4B3046394615F0ADFBDDE90A2315F039
:10157000A9FB02460B464046494615F0A3FBDDE9B0
:10158000042315F053FD3246804689463B46DDE98B
:10159000060115F04BFD02460B464046494615F044
:1015A00093FB8046894602460B4650465946CDE994
:1015B00004AB15F089FBDDE902AB3DA3D3E90023C1
:1015C00050460F4615F032FDDDE90423CDE9020156
:1015D0003946504615F076FB02460B4640464946D2
:1015E00015F070FB34A3D3E9002315F01FFD34A3DD
:1015F000D3E90023804689465046394615F016FD4A
:1016000002460B464046494615F05EFBDDE90E23D7
:1016100015F05AFB80460D98894615F0A1FC42460C
:1016200006460F464B46DDE9020115F04DFBDDE9AC
:10163000082315F049FB32463B4615F045FB324680
:101640003B4650468B4615F03DFBDDE9082315F07F
:1016500039FBDDE9022315F035FB02460B46404617
:10166000494615F02FFB8046894637E0AFF30080EE
:101670000000000000000000000000000000F03F3B
:10168000EF4E454A287ECA3F65DBC9934A86CD3F67
:1016900001411DA96074D13F4D268F515555D53F4D
:1016A000FFAB6FDBB66DDB3F033333333333E33FE5
:1016B000000000E009C7EE3FFD033ADC09C7EE3F3A
:1016C000F5015B14E02F3EBE000040438E980300FE
:1016D00079B60B000000F03F00000840013C54EADE
:1016E000050300F079819FEDC87B8DED047BDDE97A
:1016F00000120B461446CDE9023400230293DDE9C3
:10170000024508462B461146224615F0DBFA5246A2
:101710005B4615F08BFCDDE9002306460F4640468C
:10172000494615F083FC02460B463046394615F013
:10173000CBFA2246804689462B4650465946CDE98B
:10174000008915F073FC0B46024606460F464046DC
:10175000494615F0B9FAC64B994204460D468A46E9
:1017600040F3168101F13F4303F5E003034340F0EA
:10177000F781A7A3D3E90023DDE9000115F0A4FA5E
:101780003246804689463B462046294615F09AFA5D
:1017900002460B464046494615F0D8FE002840F068
:1017A000DF81A8464FEA28534FF48012A3F2FE339C
:1017B00042FA03F35344C3F30A52AE4DA2F2FF328E
:1017C0001541C3F3130423EA05010020C2F1140BF1
:1017D00044F48014BAF1000F02460B4644FA0BFBA6
:1017E00030463946B8BFCBF1000B15F06BFA024614
:1017F0000B4606460F46DDE9000115F065FA4FEA93
:101800000B5A0D46002484A3D3E900232046294621
:1018100015F00CFC3246804689463B462046294658
:1018200015F050FA02460B46DDE9000115F04AFAC0
:101830007BA3D3E9002315F0F9FB7BA3D3E90023B5
:1018400006460F462046294615F0F0FB02460B4699
:101850003046394615F038FA06460F4602460B4622
:101860004046494615F030FA42464B4604460D467E
:1018700015F028FA02460B463046394615F022FA92
:101880002246804689462B462046294615F0CEFB47
:1018900067A3D3E9002306460F4615F0C7FB66A3EE
:1018A000D3E9002315F00EFA32463B4615F0BEFB95
:1018B00063A3D3E9002315F007FA32463B4615F03F
:1018C000B5FB61A3D3E9002315F0FCF932463B4692
:1018D00015F0ACFB5EA3D3E9002315F0F5F9324611
:1018E0003B4615F0A3FB02460B462046294615F061
:1018F000E9F906460F4602460B462046294615F0F2
:1019000095FB0022CDE900014FF080433046394677
:1019100015F0D8F902460B46DDE9000115F0B0FCE0
:10192000424606460F464B462046294615F07EFBAA
:1019300042464B4615F0C8F902460B46304639463A
:1019400015F0C0F922462B4615F0BCF902460B46AD
:101950000020494915F0B6F98A44BAF5801FC0F253
:1019600039815146DDE9042315F060FB52E442461B
:101970004B464046494615F059FB4BE4BAF1000F7F
:10198000BFF6D7ACDDE90034184604F1004141E46C
:101990003A4B21F00048984540F3FF80384B0B4408
:1019A00003430CD132463B4615F08CF902460B46F8
:1019B000DDE9000115F0B6FD00283FF4F3AEDDE9E6
:1019C000040125A3D3E9002315F030FB22A3D3E9BA
:1019D000002315F02BFB1DE49FED217B8DED047B97
:1019E00085E602460B460020234915F049FC2EE40B
:1019F0009FED1D7B8DED087B8DED0E7B9FED027BBA
:101A000000278DED067BD8E4000000000000F03FC9
:101A1000FE822B654715973C00000000432EE63FF1
:101A2000EF39FAFE422EE63F396CA80C615C20BE0D
:101A3000D0A4BE726937663EF16BD2C541BDBB3ED4
:101A40002CDE25AF6A56113F93BDBE166CC1663FB2
:101A50003E5555555555C53F59F3F8C21F6EA50162
:101A6000000000000000F0BF0000000000000000C7
:101A7000FFFF8F40FFFF0F000000F03FFFCB9040C3
:101A800000346F3F684B9E427FF750AC674B9E42DD
:101A90003FF7FDAB0022654B15F014F952A3D3E9D3
:101AA000002306460F4615F0C1FA51A3D3E90023DF
:101AB000804689463046394615F0B8FA00228246FB
:101AC0008B465B4B3046394615F0B0FA02460B4662
:101AD00049A1D1E9000115F0F5F832463B4615F071
:101AE000A5FA02460B460020524915F0EBF83246A3
:101AF000CDE902013B463046394615F097FA0246D9
:101B00000B46DDE9020115F091FA3DA3D3E900236C
:101B100015F08CFA02460B465046594615F0D2F89D
:101B200002460B4606460F464046494615F0CCF89D
:101B300042464B46002082468B4615F0C3F80246CB
:101B40000B463046394615F0BDF880468946C5E556
:101B500042464B460020354915F092FBFFF75ABB31
:101B6000DDE9040128A3D3E9002315F05FFA26A3D9
:101B7000D3E9002315F05AFAFFF74CBBBEF1000F72
:101B80007FF453ABC3F1140347FA03F202FA03F3F1
:101B90009F4223D07446FFF720BB264B98453FF762
:101BA00001AEDDE90223924693462BE602460B4640
:101BB000FFF7B3BB9FED167B8DED087B9FED167B8A
:101BC0008DED0E7B9FED167B4FF480278DED067B10
:101BD000FFF7F3BB5A4601F04FFDC3E602F00102E6
:101BE000C2F10204FFF7F9BA000000604715F73FA1
:101BF00044DF5DF80BAE543E555555555555D53F10
:101C0000FE822B654715F73F9C7500883CE4377EC4
:101C10000000004003B8E23F06D0CF43EBFD4C3E4E
:101C2000000000000000F83FFEFFEF3F0000F03F23
:101C30000000D03F0000E03F2DE9F0479C4B21F031
:101C400000479F4290B08046894640F38E80994B72
:101C50009F420C46924626DC00298BA3D3E9002341
:101C600040F3B08115F02EF8934B9F4204460D4689
:101C700000F0908086A3D3E9002315F023F80246F4
:101C80000B46CAE900232046294615F01BF880A31D
:101C9000D3E9002315F016F80125CAE90201284608
:101CA00010B0BDE8F087854B9F4240F39080844B95
:101CB0009F4265DC3D15A5F21645A7EB0553194675
:101CC0001F46064615F062FC15F04AF98046894623
:101CD00042464B4630463946CDE90A8914F0F2FFB8
:101CE0000022784B15F0A2F98946804615F04EFC8B
:101CF00015F036F906460F4632463B464046494601
:101D0000CDE90C6714F0DEFF00226E4B15F08EF962
:101D100000220023CDE90E0115F0F0FB002800F0B1
:101D20006F81002330463946002215F0E7FB00287A
:101D300014BF01230223644A019202212A46009122
:101D40000AA8514600F08CFB002C054614DADAF89C
:101D50000420DAF80C3002F1004203F1004345425E
:101D6000CAF80420CAF80C3006E000200021C2E9BD
:101D70000089C2E902010025284610B0BDE8F087BD
:101D800002460B4614F09EFF0025CAE90201CAE98B
:101D90000001F1E740A3D3E9002314F093FF40A32F
:101DA000D3E900230D46044614F08CFF02460B468F
:101DB000CAE900232946204614F084FF38A3D3E95A
:101DC000002314F07FFF0125CAE90201D4E715F0D2
:101DD000A5FE35A3D3E900238046894615F026F9F0
:101DE00000223A4B14F070FF15F0D0FB054615F0B9
:101DF000B7F825A3D3E90023CDE9060115F016F9BC
:101E000002460B464046494614F05CFF20A3D3E946
:101E10000023CDE90201DDE9060115F007F91F2DC8
:101E200080468946CDE9048954DC294B6A1E53F863
:101E300022309F424ED002460B46DDE9020114F0EB
:101E400041FF80468946CAE9008942464B46DDE9A2
:101E5000020114F037FFDDE9042314F033FF002CF6
:101E6000CAE9020188DA09F1004401F100436D4238
:101E7000CAF80080CAF80440CAF80800CAF80C3052
:101E80007AE700BFAFF3008000004054FB21F93F28
:101E90003163621A61B4D03D0000601A61B4D03D74
:101EA0007370032E8A19A33B83C8C96D305FE43F6A
:101EB000FB21E93F7BD90240FB21F93FFB2139415E
:101EC000FFFFEF7F0000704190BD02080000E03F7F
:101ED00010BD0208DDE90423DDE9020114F0F2FE81
:101EE0003F15C1F30A53FB1A80468946102BCAE9F5
:101EF0000089AADD58A3D3E90023DDE9060115F026
:101F000095F88046894602460B46DDE9020114F049
:101F1000D9FE02460B46DDE90201CDE9082314F0A3
:101F2000D1FE42464B4614F0CDFE4DA3D3E900232B
:101F300080468946DDE9060115F078F842464B46B1
:101F400014F0C0FE0B46CDE904010246DDE90801AC
:101F500014F0B8FEC1F30A53FF1A80468946312FA8
:101F6000CAE900896CDD41A3D3E90023DDE906015C
:101F700015F05CF8DDE9088906460F4602460B4677
:101F80004046494614F09EFE02460B4640464946EE
:101F9000CDE9022314F096FE32463B4614F092FE41
:101FA00034A3D3E9002306460F46DDE9060115F008
:101FB0003DF832463B4614F085FE02460B46CDE91D
:101FC00004233AE714F080FE274B9F4204460D4657
:101FD00018D01FA3D3E9002314F076FE02460B4667
:101FE000CAE900232946204614F06CFE18A3D3E961
:101FF000002314F069FE4FF0FF35CAE90201BBE689
:10200000032398E614A3D3E9002314F05DFE14A380
:10201000D3E900230D46044614F056FE02460B4653
:10202000CAE900232946204614F04CFE0CA3D3E94C
:10203000002314F049FE4FF0FF35CAE902019BE688
:102040009DED087B8DED027BFFE600BFAFF30080C6
:102050003163621A61B4D03D0000601A61B4D03DB2
:102060007370032E8A19A33BFB21F93F0000002E59
:102070008A19A33BC14920259A837B3900000000BF
:10208000594A2DE9F84F21F00048904506460F4681
:102090002BDC564B0029B4BF554D564D98454FF09B
:1020A000000410DC544B984570DC4DA3D3E90023A9
:1020B00014F00AFE0022514B15F048FAD8B1304610
:1020C0003946BDE8F88F4E4B98457CDD4D4B984521
:1020D00044DD013398453ED03046394640A3D3E92C
:1020E000002314F0A3FFBDE8F88F02460B4614F05E
:1020F000EBFDBDE8F88F3046394615F00FFD01F0D5
:102100007FF806460F4632463B463046394614F0C5
:10211000DBFD324682468B463B463046394614F05C
:1021200085FF002280468946344B3046394614F0FC
:10213000CBFD02460B464046494615F0A1F8024643
:102140000B465046594614F0BDFD22462B4614F06E
:102150006DFFBDE8F88F2C4B9842BDD8304639460C
:1021600015F0DCFC0022234B14F060FFFEF714FC9A
:1021700006460F4602460B462046294614F056FFF7
:1021800032463B4614F052FFBDE8F88F15F0C6FC0E
:1021900001F036F81D4B984506460F46B3DD002288
:1021A000164B14F091FD02460B463046394615F0A9
:1021B00067F832463B4614F087FD22462B4614F062
:1021C00035FFBDE8F88F15F0A9FCFEF7E5FB0246E8
:1021D0000B462046294614F029FFBDE8F88F00BFC2
:1021E0003374AC3C1F7BAC7FFFFFEF7FFFFF3540BC
:1021F0000000E0BF0000E03FFFFF2F3E0000F03F87
:10220000412E8640CD3386407DF8B98FFFFFEF3FEA
:102210002DE9F04F21F00048B8F1795F85B006460E
:102220000F4692469B466BDA15F0B0F9002800F095
:10223000EA8032463B463046394614F0F7FE74A336
:10224000D3E9002304460D4614F0F0FE72A3D3E94F
:10225000002314F039FD22462B4614F0E7FE70A34C
:10226000D3E9002314F02EFD22462B4614F0DEFEA7
:102270006DA3D3E9002314F027FD22462B4614F06A
:10228000D5FE6BA3D3E9002314F01CFD22462B4698
:1022900014F0CCFE68A3D3E9002314F015FD224608
:1022A0002B4614F0C3FECDE900010022664B204608
:1022B000294614F0BBFEDDE900238046894620460E
:1022C000294614F0B3FE524604460D465B4630469E
:1022D000394614F0ABFE02460B462046294614F060
:1022E000F1FC02460B464046494614F0EBFC024620
:1022F0000B460020554914F0E5FC05B0BDE8F08F11
:1023000002460B4614F092FE41A3D3E90023044693
:102310000D4614F08BFE40A3D3E9002314F0D4FC47
:1023200022462B4614F082FE3DA3D3E9002314F08D
:10233000C9FC22462B4614F079FE3BA3D3E90023C7
:1023400014F0C2FC22462B4614F070FE38A3D3E9E9
:10235000002314F0B7FC22462B4614F067FE36A388
:10236000D3E9002314F0B0FC2B46224614F05EFEA5
:10237000374B9845CDE9000197DD364B984539DC60
:10238000A8F500130022002030499046994614F029
:1023900099FCCDE9020100222B4B2046294614F07E
:1023A00045FE42464B4614F08DFCDDE90023804695
:1023B00089462046294614F039FE524604460D4609
:1023C0005B463046394614F031FE02460B46204645
:1023D000294614F077FC02460B464046494614F065
:1023E00071FC02460B46DDE9020114F06BFC05B0FE
:1023F000BDE8F08F9FED127B4FF000088DED027B62
:10240000DFF85490C7E71149002005B0BDE8F08F10
:10241000D43888BEE9FAA8BDC4B1B4BD9EEE213E51
:10242000AD529C804F7E923E9015CB19A001FA3E92
:102430007751C1166CC1563F4C5555555555A53F62
:10244000000000000000E73F0000E03F0000F03F18
:102450003233D33F0000E93F0000D23F00000000CC
:102460002DE9F04FADF51B7D9F4CA49E9F4D54F878
:10247000264007942646D41E85FB0475E417C4EB5A
:10248000A50424EAE4741D460A93631CA3EB8303AA
:10249000013D02EBC30306932B460B940395651B8A
:1024A000F418049008911AD42C4400260027013413
:1024B0000DF18808DDF8949208E059F8250014F031
:1024C0004FFD0135A542E8E8020108D0002DF4DAFD
:1024D000013530463946A542E8E80201F6D1079BAE
:1024E000002BC0F2DF83079B03F1010B0A9B22A99B
:1024F000DB001A4601EB03090093049B0DF5E47A17
:1025000019460AEBCB0B01EB0208039B002BC0F230
:10251000F582049C4D460026002775E90223F4E865
:10252000020114F083FD02460B463046394614F092
:10253000CBFB444506460F46EFD1EAE80267DA4591
:1025400009F10809E1D107990098049C009101F173
:102550008043013B9B0020441A1F83460EA802447F
:1025600003440C920D93009A9AA901EBC203002A2E
:1025700053E9284529DD0DF5E47A0AEBC2080DF18F
:10258000340900225A4B2046294614F04FFD14F01E
:10259000FDFF14F0E5FC0022564B06460F4614F0F2
:1025A00045FD02460B462046294614F08BFB14F0ED
:1025B000EDFF78E9022349F8040F3946304614F05C
:1025C00083FBD04504460D46DBD1DDF8189020464C
:1025D00029464A4601F050F800224FF07F53044646
:1025E0000D4614F023FDFCF75FFD0022424B14F072
:1025F0001DFD02460B462046294614F063FB0D469E
:10260000044614F0C3FF804614F0AAFC0B460246B1
:102610002946204614F056FB4B46002B06460F4633
:1026200040F3F980009A0EA9013AC9F1180351F854
:10263000225045FA03F101FA03F30EA8EB1A40F811
:102640002230C9F11705884443FA05F5002D6DDDE8
:10265000009B002B08F1010840F36F820E9C002CB8
:1026600040F01683009B012B40F38F820EAA0123BA
:1026700052F8044F002C00F08382581C0EAAC4F1BB
:10268000807442F82340009A824219DD0EAA0EACF3
:1026900052F820106FF07F42511A44F82010009930
:1026A000023399420CDD1046009A0EA901EB830318
:1026B00001EB82011A68821A43F8042B8B42F9D18C
:1026C000069B002B1ADD069B012B4FF0010440F006
:1026D0003C82009B5A1E0EAB0EA953F82230C3F366
:1026E000160341F822303CE230C20208ABAAAA2A03
:1026F0000000703E0000704100002040022D15D106
:1027000032463B460020924914F0DCFA06460F465A
:10271000069A8F49002000F0AFFF02460B46304674
:10272000394614F0CFFA022506460F460022002350
:102730003046394614F0E2FE002800F03782009A55
:10274000079B501E83420FDC02F18043013B0EAA1F
:102750000D9C02EB8303002253F80419A34242EAC2
:102760000102F9D1002A67D1079B0EAA013B52F85A
:102770002330002B40F018820C9A012352F80419E0
:1027800001330029FAD0009AD31802F1010A9A45C0
:1027900009933DDC009B0A990B9A0B4409990AEBBB
:1027A0000208994622AB08F1804803EBC9098B184F
:1027B000A59A08F1FF3802EB880872AA02EBCA0A50
:1027C000A59A02EB8303009358F8040F14F0C8FB9A
:1027D000039B002BE9E802014FF000064FF00007D1
:1027E00011DB049C4D4675E90223F4E8020114F064
:1027F0001DFC02460B463046394614F065FA5C452E
:1028000006460F46EFD1009B9845EAE80267DBD108
:10281000099B0093A7E606D1009B0EAA013B52F844
:102820002350ED1512E700224A4B14F085FE0028D4
:1028300040F06E81054679E70EA9039551F82030E6
:102840000699CDF8248018390246009006916BB99C
:1028500000F18043013B0EA800EB830353F8040909
:10286000013A18390028F9D000920691069A3849A1
:10287000002000F001FF009B002B04460D46C0F233
:10288000F781DA0072A901EB020B06920EAA02EBA5
:102890008306DFF8C4904FF000080BF108070436F8
:1028A00056F8040D14F05CFB22462B4614F0BEFBD8
:1028B0004B4667E9020142462046294614F0B6FB22
:1028C0000EAB9E4204460D46EAD14AACDDF81C90A0
:1028D00004944FF0000AB9F1000FC0F22B81DFF829
:1028E0007C805D4618A1D1E9000100260027002464
:1028F00003E0544510DCF8E80201F5E8022314F087
:1029000095FB02460B463046394614F0DDF901349A
:10291000A14506460F46ECDA049B03EBCA03ABF174
:10292000080BC3E9006770AB9B450AF1010AD2D1DD
:10293000A49B049C032B00F28980DFE803F0C58E82
:102940008E1100BFAFF3008000000040FB21F93F73
:102950000000F03F0000E03F0000703E10A80208B9
:10296000009B002B40F38181069A04EB020ADAE90E
:10297000008902F1080525440DF5987B1AED027BCC
:1029800042464B4651EC170B8DED047B14F09CF93D
:1029900006460F4602460B46DDE9040114F092F9A3
:1029A00042464B4614F090F965E902015D45B04698
:1029B000B9466AE90267E1D1009B012B40F35581DA
:1029C000069BE518D5E9008903F1080B04EB0B0A17
:1029D00015ED027B42464B4651EC170B8DED007B0B
:1029E00014F072F906460F4602460B46DDE9000177
:1029F00014F068F94B46424614F066F96AE90201A0
:102A00004EAB5345B046B94665E90267E0D10020B8
:102A1000002104EB0B0575E9022314F055F9AA45D2
:102A2000F9D1039B002B00F00A816268E368089FDC
:102A30002568A4683D6002F1004203F1004301F102
:102A400000417A60FB60BC6038617961099B03F0EA
:102A500007000DF51B7DBDE8F08F069D0835254468
:102A60000020002175E9022314F02EF9A542F9D1C6
:102A7000039B002B00F0D280089E024601F1004328
:102A800086E80C000B460246D4E9000114F01AF95E
:102A9000009B002B0BDD4CAD0124F5E8022314F064
:102AA00013F9009B0134A342F7DA039B13B101F140
:102AB00000431946089BC3E90201099B03F0070084
:102AC0000DF51B7DBDE8F08F069D08350020002127
:102AD000254475E9022314F0F7F8AC42F9D1039BC1
:102AE00013B101F100431946089BC3E90001099B9A
:102AF00003F007000DF51B7DBDE8F08F00260027D1
:102B0000EAE80267DA4509F108097FF4FEAC1AE544
:102B1000009B002B08F10108C8BF02253FF79EADBE
:102B200032463B460020614914F0CCF802250646A7
:102B30000F46FBE500260027EEE6069B002B27DD6F
:102B40000024069B012B3FF4C4AD022B09D1009B4E
:102B50005A1E0EAB0EA953F82230C3F3150341F8E9
:102B60002230022D7FF4E2AD32463B4600204F4931
:102B700014F0A8F806460F46002C3FF4D7ADC7E581
:102B80000099013399427FF473AD069B002BD8DC8A
:102B9000022D7FF4CBAD32463B460020434914F072
:102BA00091F806460F46C1E50123ECE53946069F3C
:102BB00003957A423046CDF8248000F05DFD002276
:102BC0003B4B04460D4614F0B7FC002843D00022CE
:102BD000384B2046294614F029FA14F0D7FC064653
:102BE00014F0BEF90022324B14F020FA02460B46D4
:102BF0002046294614F066F814F0C8FC00990B46EC
:102C000001331A4600933B46183306930B460EA930
:102C100041F82300134641F8236027E6089B02464B
:102C2000C3E900010B46D4E9000114F04BF8009B06
:102C3000002B3FF730AF089BC3E902013DE7D4E921
:102C40000067D4E90223089DC5E90401C5E90067CE
:102C5000C5E90223FAE62946204614F097FC009ABB
:102C60000EA941F8220001E64AAC00200021D8E676
:102C7000A49B032B3FF6EAAE01A252F823F000BF5B
:102C80009F2C0108972C0108972C0108692C01083A
:102C900001200023F2E4002000214AACE8E60020F5
:102CA00000211CE70A9BDB0000934CE40000F03F8E
:102CB000000070410000703E2DE9F04F21F0004609
:102CC000B6F1795F85B004460D469046994604DA20
:102CD00014F05CFC002800F0858022462B4620463C
:102CE000294614F0A3F906460F4602460B46204635
:102CF000294614F09BF941A3D3E9002382468B4671
:102D00003046394614F092F93EA3D3E9002313F07C
:102D1000D9FF32463B4614F089F93CA3D3E900239E
:102D200013F0D2FF32463B4614F080F939A3D3E9C1
:102D3000002313F0C7FF32463B4614F077F937A360
:102D4000D3E9002313F0C0FF0E9BCDE900019BB334
:102D50000022294B4046494614F068F9DDE900237A
:102D6000CDE902015046594614F060F902460B467F
:102D7000DDE9020113F0A6FF32463B4614F056F996
:102D800042464B4613F09EFF19A3D3E900230646A3
:102D90000F465046594614F049F902460B46304654
:102DA000394613F091FF02460B462046294613F0A0
:102DB00089FF05B0BDE8F08F02460B463046394624
:102DC00014F034F90AA3D3E9002313F07BFF524631
:102DD0005B4614F02BF922462B4613F075FF05B025
:102DE000BDE8F08F2046294605B0BDE8F08F00BF52
:102DF000495555555555C53F0000E03F7CD5CF5A44
:102E00003AD9E53DEB9C2B8AE6E55A3E7DFEB1576B
:102E1000E31DC73ED561C119A0012A3FA6F81011D4
:102E20001111813F000000002DE9F04FBE4C21F050
:102E3000004687B0A64282468B460F46CDE9002366
:102E40001BDC14F0A3FB002837D153461E43109B14
:102E50000133334300F0B381109B012B00F0C88194
:102E600052465B460020B14914F00AFA04460D466A
:102E70002046294607B0BDE8F08FAD4B9E421CDDD1
:102E80000029C0F2A98152465B4687A1D1E9000121
:102E900013F018FFDDE9002304460D4684A1D1E9B3
:102EA000000113F00FFF9FED847B22462B468DED32
:102EB000007B13F009FF82468B4652465B46504624
:102EC000594614F0B3F802460B468046894614F082
:102ED000ADF8424604460D464B465046594614F05E
:102EE000A5F877A3D3E90023CDE9020120462946BE
:102EF00014F09CF874A3D3E9002313F0E5FE2246F6
:102F00002B4614F093F872A3D3E9002313F0DCFEF0
:102F100022462B4614F08AF86FA3D3E9002313F05E
:102F2000D3FE22462B4614F081F86DA3D3E900238B
:102F300013F0CAFE22462B4614F078F86AA3D3E9B0
:102F4000002313F0C1FE42464B4614F06FF868A30D
:102F5000D3E90023CDE904012046294614F066F8A0
:102F600065A3D3E9002313F0AFFE22462B4614F0ED
:102F70005DF863A3D3E9002313F0A6FE22462B4697
:102F800014F054F860A3D3E9002313F09DFE224609
:102F90002B4614F04BF85EA3D3E9002313F094FE04
:102FA00022462B4614F042F85BA3D3E9002313F02A
:102FB0008BFE02460B46DDE9040113F085FEDDE9D8
:102FC000022314F033F8DDE9004522462B4613F0C6
:102FD0007BFE42464B4614F029F802460B4620463B
:102FE000294613F071FE4EA3D3E9002304460D4693
:102FF000DDE9020114F01AF822462B4613F064FEB4
:103000000B460246804689465046594613F05CFE00
:10301000474B9E4204460D4600F38E80109B012BC9
:103020003BD002460B460020404914F029F9002409
:1030300006460F462046294652465B46CDE90067C4
:10304000CDE90201009413F03DFEDDE900AB02463C
:103050000B464046494613F035FE52465B4613F098
:10306000E5FF524604460D465B46DDE9020113F0DA
:10307000DDFF00222F4B13F027FE02460B462046B1
:10308000294613F021FE32463B4613F0CFFF52464D
:103090005B4613F019FE04460D462046294607B04C
:1030A000BDE8F08FAFF30080182D4454FB21E93FB9
:1030B000075C143326A6813C0000000000000000DD
:1030C000D47ABF74702AFB3EE9A7F0320FB8123FE2
:1030D00068108D1AF726303F1583E0FEC8DB573F96
:1030E00093846EE9E326823FFE41B31BBAA1AB3F56
:1030F000735360DBCB75F3BEA69237A0887E143F76
:103100000165F2F2D844433F280356C9226D6D3F52
:1031100037D60684F464963F7AFE10111111C13F30
:10312000635555555555D53FFFFF2F3E0000F0BF65
:103130002794E53F0000F03F109813F011FF22465E
:10314000CDE900012B462046294613F06FFFDDE94B
:103150000023CDE902012046294613F0B5FD0246C1
:103160000B46DDE9020114F08BF842464B4613F0A2
:10317000A9FD02460B465046594613F0A3FD0246F0
:103180000B4613F0A1FD02460B46DDE9000113F0EA
:1031900099FD0446B81700F00200C0F101000D4689
:1031A00013F0DEFE02460B462046294613F03EFF92
:1031B00004460D462046294607B0BDE8F08F50462C
:1031C000594614F0ABFC02460B4600200A4914F0A5
:1031D00057F804460D4660E7DDE9004501F100417E
:1031E000224605F1004382468B46CDE900234AE69C
:1031F00054465D4651E700BF0000F03F000000006C
:103200002DE9F04FD24A21F00043934285B0824627
:103210008B460C462DD9CF4A93421AD8002C80F207
:103220001681B5A3D3E900235046594613F04CFD4F
:103230000022002314F06CF9C0B9B1A3D3E9002334
:103240005046594613F0F2FE02460B460020C24992
:1032500008E1C24A934240F2D0800346C1F3130210
:10326000134340F0F481002980F2C4800020BC495F
:10327000C0E0BC4A934200F22981BB4A934240F22B
:10328000DE80002301930022B84B5046594613F0CC
:10329000CDFE06460F4602460B465046594613F0F1
:1032A000C5FE99A3D3E9002304460D4613F0BEFEE4
:1032B00097A3D3E9002313F007FD22462B4613F012
:1032C000B5FE95A3D3E9002313F0FCFC22462B4660
:1032D00013F0ACFE92A3D3E9002313F0F5FC2246D1
:1032E0002B4613F0A3FE90A3D3E9002313F0EAFCCE
:1032F00022462B4613F09AFE00229D4B13F0E4FC6D
:103300008046894602460B463046394613F08EFE0B
:1033100002460B460020974913F0D4FC06460246AD
:103320000B460F464046494613F0CCFC32468046D9
:1033300089463B465046594613F078FE02460B46F6
:1033400000208D4913F0BEFC02460B46404649461C
:1033500013F096FF22462B4613F068FE019E0246AC
:103360000B46002E38D0DDE9026732463B4613F0AB
:10337000A9FC52465B4613F059FE32463B4613F019
:10338000A1FC2B46224613F09DFC019B013306460F
:103390000F4600F00F81019B012B00F0F180019B93
:1033A0000133392B39D8019B132B40F31281019C37
:1033B000C4F57F75033500222B0513F085FC02460A
:1033C0000B465046594613F07DFC0022684B13F023
:1033D0007BFC01EB04510DE05046594613F026FEEC
:1033E00022462B4613F06EFC02460B4650465946C9
:1033F00013F068FC05B0BDE8F08F4DA3D3E90023BE
:1034000014F0A4F800283FF409AF4BA3D3E900233C
:103410001046194613F00AFEECE752465B4613F0DD
:1034200051FC02460B460020514913F04BFC019A17
:103430004F4B01EB0251002213F044FCDAE73EA3AC
:10344000D3E9002313F040FC02460B46CAE72CA345
:10345000D3E900235046594613F0E8FD0B46434993
:103460000246002013F030FC14F090F8019013F0A5
:1034700077FD33A3D3E9002306460F4613F0D6FDAC
:1034800002460B465046594613F01CFC2EA3D3E9C6
:103490000023804689463046394613F0C7FD06466C
:1034A0000F4632463B464046494613F00BFC024667
:1034B0000B4682468B464046494613F003FC324693
:1034C0003B4613F0FFFBCDE90201DCE62B4A9342B9
:1034D00000F2958000291AA3D3E90023C0F2AC8042
:1034E00013F0F0FB012380468946019316A7D7E924
:1034F0000067D6E7AFF3008059F3F8C21F6EA5014D
:10350000FE822B654715F73F2DC3096EB7FD8ABEB6
:103510003952E686CACFD03EB7DBAA9E19CE143FF9
:103520008555FE19A0015A3FF41011111111A13F48
:10353000EF39FAFE422E86409C7500883CE4377EC7
:103540000000E0FE422EE63F763C7935EF39EA3D59
:1035500079684340412E86400000E0BFFFFFEF7FC7
:103560000000F0BF422ED63FFFFF8F3C0000E03F3F
:103570000000F03F0000084000001840B1A2F03FFA
:103580000022394B5046594613F0C2FF002844D060
:10359000504659460022354B13F096FB02460B4627
:1035A0003046394613F08EFB00224FF0404313F0B3
:1035B0003DFD1FE702460B465046594613F082FB7D
:1035C00000222A4B13F032FD0022284B13F07AFB25
:1035D00010E7019C4FF400132341C3F17F5752467B
:1035E0005B4613F06FFB002607F5401702460B46BB
:1035F0003046394613F066FB01EB0451FAE616A398
:10360000D3E9002313F012FD002C02460B464FF0C5
:103610000000FFF61CAE154924E732463B465046F3
:10362000594613F04FFB02460B4613F04DFB0022A8
:103630000F4B13F049FBDDE613F046FB4FF0FF3371
:1036400080468946019306A7D7E9006729E7024625
:103650000B4613F039FBCDE6FE822B654715F73F8D
:10366000763C7935EF39EABD0000D0BF0000E03F7D
:103670000000F03F00000000F8B5C1F30A56044610
:103680000D460B4617460EBB21F00043034386460A
:1036900025D00022344B13F0C9FC344A974204462B
:1036A0000D460B462ADBC1F30A56363E3E4440F235
:1036B000FE72964228DC002E12DD23F0FF4323F435
:1036C000E00343EA065520462946F8BD40F2FF7262
:1036D0009642EBD102460B4613F0F6FAF8BDF8BD60
:1036E00016F1350F1DDA4CF250339F4222462B461D
:1036F00025DC19A1D1E9000116F0D2F816A3D3E90F
:10370000002313F093FCF8BD22462B4614A1D1E907
:10371000000116F0C5F812A3D3E9002313F086FCCC
:10372000F8BD23F0FF4323F4E003363643EA0655A1
:103730002046294600220E4B13F078FCF8BD08A164
:10374000D1E9000116F0ACF805A3D3E9002313F08A
:103750006DFCF8BDAFF3008059F3F8C21F6EA501F0
:103760009C7500883CE4377E00005043B03CFFFF6E
:103770000000903C10B5054C237833B9044B13B1CD
:103780000448AFF300800123237010BDC004002063
:1037900000000000F0C302080C4B43B10C480D4977
:1037A00010B5AFF300800C48036823B910BD0A4878
:1037B000036833B97047094B002BF7D0BDE81040C0
:1037C0001847064B002BF5D0184700BF000000003B
:1037D000F0C30208C40400203004002000000000F0
:1037E000154B002B08BF134B9D46A3F5803A0021D3
:1037F0008B460F461348144A121A07F085F90F4BEF
:10380000002B00D098470E4B002B00D0984700208B
:10381000002104000D000D48002802D00C480EF0D5
:103820006BF816F0ABF9200029000EF045F80EF009
:103830005FF800BF000008000080022000000000C8
:10384000A918020838040020C0330020F918020823
:1038500000000000F0B5214D2C6883B014B1204663
:1038600003B0F0BD4FF49C700EF048F84FF0FF31FC
:103870000646032001F042FC00B204F073F84FF05A
:10388000FF310746022001F039FC00B204F06AF86B
:103890003946024606F1DC0730460AF0C5FD2346EC
:1038A0002246384601210AF05BFC4FF0FF3101202F
:1038B00001F024FC00B204F055F898244FF0050EF6
:1038C00002468DE810403B46314606F1E40007F021
:1038D00055FD344620462E6003B0F0BDDC040020C8
:1038E0002DE9F04104460F46FFF7B4FF00F1E4056F
:1038F0000646284607F060FD082C0BD0A4F109030A
:10390000012B15D93A46214610230D20BDE8F04180
:1039100003F00CBFD6F8E43028469B6A984702288B
:10392000F0DCD6F8E43028465B6A04219847E9E7E2
:10393000D6F8E43028469B6A98470528E2DCD6F89A
:10394000E43028465B6A08219847DBE710B52DED87
:10395000028BFFF77FFF00F1E404204609F07CFAB8
:1039600007EE900A2046F8EEE78A09F083FA07EEA0
:10397000900A2046B8EEE78A09F08AFA68EE087ADB
:1039800007EE100AE8EEA87AB8EEC77AE7EE077AF3
:10399000F5EE407AF1EE10FAB1EEE78A03D517EEB4
:1039A000900A14F007FEFDEEC87ABDEC028B17EE0C
:1039B000900A10BD08B503281CD8DFE800F0140DEC
:1039C0000602BDE80840FFF7C1BFFFF743FFBDE8AF
:1039D0000840E43009F05CBAFFF73CFFBDE808405E
:1039E000E43009F047BAFFF735FFBDE80840E4309E
:1039F00009F032BA002008BD08B550B1012806D13F
:103A0000FFF728FFBDE80840E430FBF765B8002069
:103A100008BDFFF71FFFBDE80840E430FBF73CB8E6
:103A200010B50446FFF716FF2146E430BDE810400C
:103A300009F02AB808B501F089FCFBF7F1FDBDE8F3
:103A4000084001F0EDB900BF08B501F07FFCFBF7BD
:103A500057FEBDE8084001F0E3B900BF08B501F02A
:103A600075FC14F0D1F8BDE8084001F0D9B900BFE9
:103A700008B501F06BFC14F0D9FCBDE8084001F07A
:103A8000CFB900BF08B501F061FCFBF7D9FDBDE877
:103A9000084001F0C5B900BF08B501F057FC14F0AB
:103AA000F1FABDE8084001F0BBB900BF08B501F06C
:103AB0004DFCFBF731F8BDE8084001F0B1B900BF9B
:103AC00008B501F043FC14F031FABDE8084001F0FC
