:020000040800F2
:10E000000080022029390208F19E0208F19E0208D0
:10E01000F19E0208F19E0208F19E02080000000035
:10E020000000000000000000000000004DF50108A5
:10E03000F19E020800000000F3F5010853F6010804
:10E04000F19E0208F19E0208F19E0208F19E02086C
:10E05000F19E0208F19E0208F19E0208F19E02085C
:10E06000F19E0208F19E0208F19E0208F19E02084C
:10E07000F19E0208F19E0208F19E0208F19E02083C
:10E08000F19E0208F19E0208F19E0208590602085C
:10E0900045050208F19E02085D060208F19E02088D
:10E0A000F19E0208F19E0208F19E0208F19E02080C
:10E0B000F19E0208F19E020800000000F19E020895
:10E0C000F19E0208F19E0208F19E0208F19E0208EC
:10E0D000F19E0208F19E0208F19E0208F19E0208DC
:10E0E000F19E0208F19E02080000000000000000FE
:10E0F0000000000000000000000000000000000020
:10E1000000000000F19E020800000000F19E0208DD
:10E11000F19E020800000000F19E020800000000CD
:10E12000F19E0208F19E0208F19E0208F19E02088B
:10E13000F19E0208F19E0208F19E02080000000014
:10E14000F19E0208F19E0208F19E0208F19E02086B
:10E15000F19E0208F19E0208F19E0208F19E02085B
:10E16000F19E0208F19E0208F19E020800000000E4
:10E1700000000000F19E0208000000000000000006
:10E18000F19E0208F19E0208F19E0208F19E02082B
:10E19000F19E0208000000002DE9F04F85B00391C8
:10E1A0000778A7F10903042B044607F07F0200F16A
:10E1B0000100F5D9202AF3D02B2F04BF677804463D
:10E1C0002D2F72D09FED427B8DED007B4FF000082C
:10E1D0004FF000098FB34FF0000E4FF0000ADFF848
:10E1E00000B1754619E018F09FFF80468946304619
:10E1F00018F034FF42464B4618F0E4FD5246804684
:10E2000089465B46DDE9000135B319F0B7F8CDE981
:10E210000001AE4614F8017F7FB1A7F13006092E48
:10E2200052465B4640464946DDD9C5B92E2F16D128
:10E2300014F8017F0125002FEFD142464B46DDE95E
:10E24000000118F071FF80468946039B404649460D
:10E250001C6005B0BDE8F08F4FF0010EDAE7BEF1AB
:10E26000000F29D042464B46DDE9000118F05CFF63
:10E2700007F0DF07452F80468946E6D10399601CE9
:10E280000A221BF037FD16490246002019F0ACFAAD
:10E2900002460B464046494618F046FF80468946EE
:10E2A0004046494605B0BDE8F08F9FED0B7B67788F
:10E2B0008DED007B013489E7DFF828904FF00008EE
:10E2C0004046494605B0BDE8F08F00BFAFF300807F
:10E2D000000000000000F03F000000000000F0BF60
:10E2E000000024400000F87F2DE9F84F1646002377
:10E2F000002204460D4619F089F9002840F09D805F
:10E30000002200232046294619F076F928B1302250
:10E31000002332707370BDE8F88F204629461AF04A
:10E3200081F819F0B1F97BA3D3E90023814629468E
:10E33000204619F06BF9002800F08680B9F1000F33
:10E34000C0F2BE804A4600206F4919F04DFA0246DD
:10E350000B462046294619F011F804460D4666A1E1
:10E36000D1E9000101274FF0000822462B4618F0A2
:10E37000DBFE0022654B18F025FD19F071FA002F25
:10E38000CC464FF0FF3AC1464FF0000840F385807D
:10E39000DFF888E15E4C0122AEF1700945F6F32505
:10E3A0004FF02E0BA94208BFA0424FF0300309D313
:10E3B000001B61EB0501A94208BFA04203F1010364
:10E3C000F6D2DBB2337050EA010306F1010409D141
:10E3D000BA4210DACE4502F101020CD026467EE8A0
:10E3E0000245DFE7BA4204BF86F801B0B41CCE454F
:10E3F00002F10102F2D1B8F1000F0DD02246302116
:10E4000002F8011BC2F1010353442344002BF7DC43
:10E410002AEAEA7301331C44BCF1010F4CD0652396
:10E42000BCF1000F2370C5BF2B236370611CA11CBE
:10E430006046BDE8F84F0DF0E7BA05F100431D4610
:10E440002D23337001365BE72DA3D3E9002320464B
:10E45000294619F0F9F800287FF470AFB9F10E0FD2
:10E4600009F101073DDDA9F10E08424600202649C9
:10E4700019F0BAF902460B462046294618F07EFFED
:10E480000022224B18F09EFC19F0EAF9002FA9F1A6
:10E490000F0A4FF0010C3FF77BAF334630222E249A
:10E4A00003F8022B74707FEA090618D01E4403F8A3
:10E4B000012BB342FBD16BE700232370BDE8F88F3B
:10E4C000C9F100020020104919F08EF902460B46EE
:10E4D0002046294618F028FE04460D463FE71E4612
:10E4E00056E7C9F10E0200200749C84619F07CF929
:10E4F0004FF0010939E700BF0000901EC4BCD642AE
:10E5000050EFE2D6E41A4B44000024400000E03F04
:10E5100000407A108DEDB5A0F7C6B03E78A802088D
:10E5200070B54FF0FF3006F0B1FA04466FF07F404F
:10E5300006F0ACFA0646204618F080FD00220C4B8F
:10E5400018F0F2FD044630460D4618F077FD06A39C
:10E55000D3E9002318F012FF02460B462046294655
:10E5600018F030FC70BD00BF0000E0DFFFFF6F431C
:10E570000000F03D000000002DE9F843044600F1E2
:10E580006C060DF035F807460DF038F8304611F0FE
:10E5900061FE2368C51A304611F05CFE237DC11769
:10E5A000C4E90001042B40D8DFE803F04693617B07
:10E5B000030003232375284618F050FD6BA3D3E90D
:10E5C00000238046894619F03FF848B169A3D3E992
:10E5D00000234046494619F019F8002840F0A3806E
:10E5E00066A3D3E900234046494619F02DF848B107
:10E5F0004046494663A3D3E9002319F007F80028F1
:10E6000040F095802269E368013200212261217582
:10E61000202B0CD1A3686FEA1322D2B2D9B2914257
:10E6200000F08E8023690133236100232375FB07EB
:10E6300000D462B6BDE8F883284618F00FFD53A356
:10E64000D3E900238046894618F0FEFF0028EED06B
:10E65000404649464FA3D3E9002318F0D7FF0028CE
:10E66000E5D0002301222275A360E360DFE728469E
:10E6700018F0F4FC3DA3D3E900238046894618F046
:10E68000E3FF40B1404649463AA3D3E9002318F0DE
:10E69000BDFF0028CBD123690022013323612275FD
:10E6A000C5E7284618F0DAFC30A3D3E900238046FA
:10E6B000894618F0C9FF0028EDD0404649462DA3F1
:10E6C000D3E9002318F0A2FF0028E4D00423237527
:10E6D000ADE7284618F0C2FC30A3D3E900238046FA
:10E6E000894618F0B1FF38B12EA3D3E90023404684
:10E6F000494618F08BFF98B900221B4B404649460B
:10E7000018F0A2FF0028C6D04046494614A3D3E91A
:10E71000002318F07BFF0028BDD00223237586E775
:10E720000323237583E7E3680133E36070E7E3685D
:10E73000A268012199400A430133E360A26067E7C0
:10E740006FEA1362D2B2C3F3074393427FF46AAF16
:10E7500084F8CC30A369984767E700BFAFF3008027
:10E76000000000000018A54000209C409A9999994B
:10E7700099197C4033333333331385409A999999EF
:10E78000991995406666666666A69F40000000007F
:10E790000020BC40000000000018C5400000000040
:10E7A0000020AC40000000000018B5400000000050
:10E7B000294B1B68002B70B506460CBF182005209E
:10E7C0000D4609F0D5F8002E044639DD234B1868B4
:10E7D00018F044FC1EA3D3E9002318F0A5FC002286
:10E7E000002318F0EFFA18F04FFF236820EAE071D9
:10E7F000B1F5806FA8BF4FF48061DB682046984771
:10E8000023681749D3F8803091FBF6F120469847EA
:10E81000002D14DDA5F11406012EB8BF01263046E7
:10E820000DF0DAFE23682046DB6800219847A81B1C
:10E830000128B8BF0120BDE870400DF0CDBE70BD0D
:10E8400003680021DB68BDE870401847AFF3008023
:10E850001010101010101040480600200802002070
:10E8600040420F000000000038B5154B1B68002B1C
:10E8700004460CBF1820052009F07AF8054620460A
:10E8800018F0ECFB0CA3D3E9002318F04DFC002298
:10E89000002318F097FA18F0F7FE2B6820EAE071D1
:10E8A000B1F5007FDB68A8BF4FF400712846984798
:10E8B000044B1C6038BD00BF101010101010004039
:10E8C000480600200802002030B52D4B8DB01A6894
:10E8D0000092009A120205D4009A42F400020092BB
:10E8E000009A1A60274A284B126801921B6802930B
:10E8F0000EF028FC18F0B2FBCDE90401019B9BB29D
:10E900000193029B9BB20293DDE904011AA3D3E9B0
:10E91000002318F009FC1D4B0022CDE90401CDE9CC
:10E9200006230298019BC01A18F088FBCDE9080164
:10E93000DDE90445019818F081FB02460B462046AC
:10E94000294618F03DFACDE90A01DDE90601DDE9C5
:10E950000823DDE90A4518F011FD22462B4618F080
:10E96000E3FB00220A4B18F02DFA18F0B5FE0390D5
:10E9700003980DB030BD00BF9A9999999999F13FCC
:10E9800008030450A875FF1FCA75FF1F00005440FC
:10E9900000003E40000000002DE9F04F2DED028BFD
:10E9A000044683B0C06818F059FB80462069894648
:10E9B00018F054FB824660698B4618F04FFB024604
:10E9C00001F1004306460F464046494619F0D6FB82
:10E9D00018F0A2FEE062054619F084FA019028467C
:10E9E00019F034FA019B0546184618F049FB4246D7
:10E9F0004B4618F099FB80462846894618F040FBA4
:10EA000032463B4618F090FB02460B4640464946CC
:10EA100018F0D6F902460B465046594619F0AEFB9F
:10EA200018F07AFE002208EE100A0023304639461C
:10EA300018F00AFE28B3B5EEC08AF1EE10FA1CDD1C
:10EA400011A7D7E9006718EE100A18F019FB024663
:10EA50000B463046394618F0B3F932463B4618F0BB
:10EA6000B1F918F059FEA062E38843F00203E38095
:10EA700003B0BDEC028BBDE8F08F05A7D7E90067B6
:10EA8000E1E784ED0A8AEFE7EA2E4454FB21F93FDF
:10EA9000EA2E4454FB21F9BF08B50EF085FADFEDEC
:10EAA0000C7A07EE100A67EE277A17EE900A18F034
:10EAB000E7FA05A3D3E9002318F060FC18F0E4FDA1
:10EAC00008BD00BFAFF30080EA2E4454FB2119407B
:10EAD0000000B4430000000008B50EF079FADFED45
:10EAE0000C7A07EE100A67EE277A17EE900A18F0F4
:10EAF000C7FA05A3D3E9002318F040FC18F0C4FDC1
:10EB000008BD00BFAFF30080EA2E4454FB2119403A
:10EB10000000B44300000000494A21F00043934242
:10EB20002DE9704304460D464BDC464A93420E469F
:10EB30000EDC3FA3D3E9002318F044F90022424B36
:10EB400018F082FD00284CD020462946BDE870838D
:10EB50003E4A93423BDCB3F1804F42DD19F05CF852
:10EB60002246804689462B462046294618F0DCFA84
:10EB70000022354B18F026F919F012FF02460B4619
:10EB80004046494618F01EF902460B4600202E4921
:10EB900018F0F4FB424604460D464B4640464946B3
:10EBA00018F010F902460B462046294618F00AF9DB
:10EBB00002F06AF8002EC9DC01F100431946BDE8F5
:10EBC000708302460B4618F0FDF8BDE8708319F01B
:10EBD00023F802F059F818A3D3E9002318F0F2F84B
:10EBE000E8E722462B462046294618F09DFA804643
:10EBF00089462046294619F00FF8002204460D46A2
:10EC0000114B4046494618F0DDF819F0C9FE0022C4
:10EC10000D4B18F0D7F802460B464046494618F00F
:10EC2000ADFB22462B4618F0CDF800F0C5FAC1E73F
:10EC30009C7500883CE4377EEF39FAFE422EE63FB1
:10EC4000FFFFEF7FFFFF2F3E0000F03F0000B041CD
:10EC50002DE9F84FC44B21F000469E4204460D4674
:10EC60008A460EDDC14B9E4200F3AC8000F0A780C7
:10EC7000BAF1000F40F3EA809FA1D1E90001BDE89D
:10EC8000F88FBB4B9E4200F3B580A3F1DE739E422A
:10EC900040F3A0804FF0FF3B22462B4620462946FA
:10ECA00018F042FA02460B468046894618F03CFAB4
:10ECB00093A3D3E9002306460F4618F035FA92A332
:10ECC000D3E9002318F07EF832463B4618F02CFAC0
:10ECD0008FA3D3E9002318F075F832463B4618F0AD
:10ECE00023FA8DA3D3E9002318F06CF832463B4693
:10ECF00018F01AFA8AA3D3E9002318F063F8324611
:10ED00003B4618F011FA88A3D3E9002318F05AF80B
:10ED100042464B4618F008FA85A3D3E90023804603
:10ED200089463046394618F0FFF983A3D3E900231A
:10ED300018F046F832463B4618F0F6F980A3D3E9BE
:10ED4000002318F03DF832463B4618F0EDF97EA35B
:10ED5000D3E9002318F034F832463B4618F0E4F9C2
:10ED60007BA3D3E9002318F02BF832463B4618F07A
:10ED7000DBF9BBF1FF3F02460B466CD040464946EB
:10ED800018F020F822462B4618F0CEF9794E7A4B2F
:10ED90004FEACB0B5E449B44DBE9002318F010F8EC
:10EDA00022462B4618F00CF802460B46D6E9000125
:10EDB00018F006F8BAF1000F43DBBDE8F88F002821
:10EDC0003FF456AF22462B462046294617F0FAFF5D
:10EDD000BDE8F88F60A3D3E9002317F0F3FF00220A
:10EDE000664B18F031FC00283FF454AF204629460A
:10EDF000BDE8F88F18F010FF614B9E4204460D46A7
:10EE000039DCA3F550239E425EDC02460B4617F028
:10EE1000D9FF0022594B17F0D3FF002206460F46B8
:10EE20004FF080432046294617F0CCFF02460B46A0
:10EE30003046394618F0A2FA4FF0000B04460D4652
:10EE40002AE701F100431946BDE8F88F44A1D1E952
:10EE50000001BDE8F88F4046494617F0B3FF22464F
:10EE60002B4618F061F902460B462046294617F05A
:10EE7000A7FFBDE8F88F434B9E421ADC0022424BAD
:10EE800017F09EFF002206460F463F4B20462946BC
:10EE900018F04AF90022394B17F094FF02460B464E
:10EEA0003046394618F06AFA4FF0020B04460D4618
:10EEB000F2E602460B460020344918F05FFA4FF0A4
:10EEC000030B04460D46E7E600222C4B17F078FFB3
:10EED000002206460F46294B2046294617F072FFAE
:10EEE00002460B463046394618F048FA4FF0010BFF
:10EEF00004460D46D0E600BF182D4454FB21F93FCF
:10EF000011DA22E33AAD903FEB0D76244B7BA93F1B
:10EF1000513DD0A0660DB13F6E204CC5CD45B73FE9
:10EF2000FF8300922449C23F0D5555555555D53F95
:10EF30002F6C6A2C44B4A2BF9AFDDE522DDEAD3F89
:10EF40006D9A74AFF2B0B33F711623FEC671BC3F29
:10EF5000C4EB98999999C93F9C7500883CE4377E29
:10EF6000182D4454FB21F9BFFFFF0F440000F07F30
:10EF7000FFFFDB3F88A80208A8A802080000F03FB6
:10EF8000FFFFF23FFF7F03400000F83F0000F0BFAB
:10EF90002DE9F843C1F30A59A9F2FF35132D0246B2
:10EFA0000B460C4606468846074622DC002D50DB01
:10EFB000DFF8F09049FA05F901EA090E5EEA060663
:10EFC0001CD036A3D3E9002317F0FCFE0022002357
:10EFD00018F03AFB48B1002C04DD4FF4801343FADB
:10EFE00005F5A84428EA0904002721463846BDE86B
:10EFF000F883332D06DDB5F5806F3DD010461946F8
:10F00000BDE8F883A9F213494FF0FF3E2EFA09F943
:10F0100010EA090FF2D021A3D3E9002317F0D2FEA2
:10F020000022002318F010FB0028DED0002C09DDA0
:10F03000142D2BD00127C5F1340507FA05F5AE19BB
:10F0400028BFB844444626EA090721463846BDE8A9
:10F05000F88312A3D3E9002317F0B4FE00220023A3
:10F0600018F0F2FA0028C0D0002C0BDB54EA060797
:10F0700006D00027084CB8E717F0A4FEBDE8F883D7
:10F080003C46B2E700274FF00044AEE704F1010828
:10F09000D8E700BFAFF300800000F03F9C75008808
:10F0A0003CE4377EFFFF0F002DE9F041C1F30A5722
:10F0B000A7F2FF35132D02460B460C46884606463E
:10F0C0001CDC002D3FDB3A4F2F41864601EA070C3E
:10F0D0005CEA0E0E17D034A3D3E9002317F072FEBA
:10F0E0000022002318F0B0FA20B1002C3FDB28EA00
:10F0F0000704002621463046BDE8F081332D06DDA9
:10F10000B5F5806F2FD010461946BDE8F081A7F203
:10F1100013474FF0FF3E2EFA07F73842F3D022A3F1
:10F12000D3E9002317F04EFE0022002318F08CFADA
:10F130000028DFD0002C20DB444626EA07062146C3
:10F140003046BDE8F08118A3D3E9002317F03AFE5A
:10F150000022002318F078FA0028CBD0002C17DB0F
:10F1600000263446C6E717F02DFEBDE8F0814FF4C7
:10F17000801343FA05F5A844B9E7142D10D00123F4
:10F18000C5F1340503FA05F5AE1928BF9844D3E755
:10F1900024F00042074B324318BF1C460026A9E763
:10F1A00004F10108C8E700BF9C7500883CE4377E85
:10F1B000FFFF0F000000F0BF2DE9F04FD84B994240
:10F1C00087B0804689460E4613DCD64B21F00044BA
:10F1D0009C4218DD0022D44B18F00EFA002879D09A
:10F1E000002200230020D14918F0C8F807B0BDE87C
:10F1F000F08FCF4B99422FDD42464B4617F0E2FD90
:10F2000007B0BDE8F08FCB4B9C4270DDCA4B1E446B
:10F210009E427ED80022C94B4046494617F0D2FD97
:10F220004FEA215AAAF2FF3ABAF1000F04460D46FE
:10F230000E4640F3DE8142464B4617F0C1FD0246C2
:10F240000B460020BD4917F0BBFD22462B4618F0A7
:10F2500095F8CDE902010BE0B94B9E42DADD9FED56
:10F260009A7B8DED027B4FEA265A4446AAF2FF3A7A
:10F27000B44BC6F313069E4246F07F5500F3E78079
:10F2800045F44015204629460022AC4B17F098FD66
:10F29000002204460D46AC4B17F046FF22462B4693
:10F2A00017F042FFA046CDE90401A946CDE90001CF
:10F2B000002E3AD1002200232046294618F09CF95E
:10F2C000002800F0CE80BAF1000F40F074810020D9
:10F2D000002195E742464B464046314617F070FD07
:10F2E00002460B4618F04AF807B0BDE8F08F00223E
:10F2F000964B17F067FD0022002318F0A5F90028AF
:10F3000000F0CC80924B9C4200F3C88040464946B6
:10F3100076E700228C4B17F007FF42464B4617F06A
:10F3200003FFCDE900014FF0000A00224FF08043B7
:10F330004046494617F046FD02460B4640464946C0
:10F3400018F01CF802460B4606460F4617F0ECFE76
:10F350005FA3D3E9002304460D4617F0E5FE5EA344
:10F36000D3E9002317F02EFD22462B4617F0DCFED2
:10F370005BA3D3E9002317F025FD22462B4617F0A7
:10F38000D3FE59A3D3E9002317F01CFD22462B46D8
:10F3900017F0CAFE56A3D3E9002317F013FD224647
:10F3A0002B4617F0C1FE54A3D3E9002317F00AFD42
:10F3B00022462B4617F0B8FE51A3D3E9002317F0DD
:10F3C00001FD22462B4617F0AFFE04460D46BAF16A
:10F3D000000F00F0BF80504617F040FE4AA3D3E96B
:10F3E000002382468B4617F09FFEDDE90023CDE91E
:10F3F00004012046294617F0E5FC32463B4617F04B
:10F4000093FE43A3D3E9002304460D4650465946D4
:10F4100017F08AFEDDE9022317F0D4FC02460B4602
:10F420002046294617F0CEFC02460B46DDE90001D6
:10F4300017F0C6FC42464B4617F0C2FC02460B468C
:10F44000DDE9040117F0BCFC07B0BDE8F08F45F41E
:10F450000015C6F5801620462946B6100AF1010AA5
:10F4600012E72DA3D3E900232046294617F05CFEBE
:10F4700002460B460020314917F0A2FCDDE90423C7
:10F4800017F052FE06460F46BAF1000F73D102463E
:10F490000B462046294617F093FCB1E642464B4600
:10F4A0004046494617F040FE0022274B17F03CFE2D
:10F4B00002460B464046494617F082FC07B0BDE8BD
:10F4C000F08F00BFAFF300800000000000000000DC
:10F4D00044523EDF12F1C23F9FC678D0099AC33F23
:10F4E000DE03CB966446C73FAF788E1DC571CC3F17
:10F4F000599322942449D23F04FA97999999D93F74
:10F50000935555555555E53F0000E0FE422EE63F28
:10F51000763C7935EF39EA3D555555555555E53F1A
:10F520007982DA3FFFFFEF3F0000F0BF000050C3D9
:10F53000FFFFEF7FFFFF1F3E3C412D400000F03FEB
:10F54000FFFF3F439DA006000000E03F0000504346
:10F55000FFFF8F3CDDE9004522462B4617F032FCC9
:10F5600032463B4617F0E0FD02460B462046294650
:10F5700017F026FC9CE7504617F070FD23A3D3E953
:10F58000002382468B4617F0CFFD22A3D3E9002348
:10F59000804689465046594617F0C6FDDDE90223EC
:10F5A00017F010FC02460B463046394617F008FCAF
:10F5B00022462B46DCE7504617F050FD15A3D3E951
:10F5C000002306460F4617F0AFFDDDE9022317F0D2
:10F5D000F9FB0EA3D3E9002304460D463046394615
:10F5E00017F0A2FD02460B462046294617F0EAFB1B
:10F5F00006E60022044B17F0E3FB02460B464046AA
:10F60000494617F0DDFB20E60000F03F0000E0FE79
:10F61000422EE63F763C7935EF39EA3D00000000A6
:10F6200008B518F07FFE04A3D3E9002317F0A6FE67
:10F6300008BD00BFAFF30080EF39FAFE422EE63F6F
:10F640002DE9F043DFF8B4808BB004460D4601F09D
:10F65000F3F898F90030013306460F462BD02246C6
:10F660002B462046294617F0F9FF814618BB204655
:10F67000294618F0D1FA1FA3D3E9002317F0E4FFBD
:10F68000C8B1194A98F90030CDF820900321CDE98E
:10F690000445CDE902458DE806008BB9134B4FF0C8
:10F6A0006042CDE9062368461AF008F870B1089B5D
:10F6B0009BB9DDE90667304639460BB0BDE8F083FB
:10F6C0000B490020022BCDE90601ECD11AF074F9A8
:10F6D00022230360089B002BEBD01AF06DF9089BE6
:10F6E0000360E6E7AFF30080D4BD0208FFFFEF47F9
:10F6F0000000F07F7DF8B98FCE33864006040020ED
:10F700002DE9F043DFF8E4808BB004460D4601F0AC
:10F7100043F998F90030013306460F4633D02046AE
:10F72000294619F0C5FF70B32CA3D3E90023204666
:10F73000294617F089FF814650BB2AA3D3E900234D
:10F740002046294617F062FFE8B198F90030204AB8
:10F75000CDF82090002600270421022BCDE9044596
:10F76000CDE90245CDE906678DE8060029D0684657
:10F7700019F0A4FF28B3089B1BB11AF01DF9089BD0
:10F780000360DDE90667304639460BB0BDE8F0831B
:10F790000F4A98F90030019203210022CDE9044577
:10F7A000CDE90245009108922BB90A4B4FF0604217
:10F7B000CDE90623DBE708490020022BCDE906014D
:10F7C000D5D11AF0F9F822230360D4E7AFF3008013
:10F7D000DCBD0208FFFFEF470000F07FEF39FAFEC3
:10F7E000422E864051302DD5104987C00604002096
:10F7F0002DE9F04FDFF80C938DB006460F46144606
:10F800001D4601F0C5FC99F90080B8F1FF3FCDE934
:10F81000000136D022462B462046294617F01EFF0F
:10F82000834670BB32463B463046394617F016FFDA
:10F830008246002840F0A28030463946002200234C
:10F8400017F0DAFE10B3002200232046294617F0F5
:10F85000D3FE834600286AD09FEDA17B0122A44BF2
:10F86000CDF828A00292CDE90467CDE906458DEDDB
:10F87000087B0393B8F1000F45D09FED9B7B8DED86
:10F88000007BDDE900010DB0BDE8F08FDDE900018E
:10F8900019F00EFF8046002800F08D804FF0000A1E
:10F8A0004FF0000BDDE9000152465B4617F0A4FE65
:10F8B0000028E6D03046394619F0FAFE0028E0D09C
:10F8C0002046294619F0F4FE0028DAD099F90030D4
:10F8D000874A039204210022022BCDE90467CDE977
:10F8E0000645CDE908AB02910A9203D002A819F0AF
:10F8F000E5FE68B91AF060F82223036008E09FED86
:10F90000787B8DED087B02A819F0D8FE002830D056
:10F910000A9B1BB11AF050F80A9B03609DED087B0F
:10F920008DED007BDDE900010DB0BDE8F08F2046D4
:10F93000294619F0BDFE0028A3D00022002320464E
:10F94000294617F063FE00289BD099F90030684AD9
:10F95000CDF828B00121CDE90467CDE90645029133
:10F960000392002BCBD063490020022BCDE9080184
:10F97000C9D11AF021F821230360C9E7002200232E
:10F980002046294617F038FE00283FF47AAF5A4B3C
:10F990005749CDF828B000220120B8F1020FCDE977
:10F9A00004670290CDE90645CDE908230391AAD169
:10F9B000CDE9002365E73046394619F079FE002885
:10F9C0003FF46CAF2046294619F072FE00283FF440
:10F9D00065AFDDE900231046194617F03FFE002809
:10F9E0005FD1032399F900800293414B0A90CDE93E
:10F9F0000467CDE906450393B8F1000F2BD1DFF87A
:10FA000008B14FF0604A0022002330463946CDE964
:10FA100008AB17F0FBFD00283FF468AF0022374B1E
:10FA20002046294617F080FB04460D4619F04EFE8D
:10FA300002460B462046294617F0DEFD70BB304BD0
:10FA400099F900804FF06042CDE90823B8F1020F28
:10FA50007FF44CAF4EE7DFF8B4B04FF0000A00225D
:10FA6000002330463946CDE908AB17F0CFFD00281A
:10FA7000ECD00022214B2046294617F055FB0446C6
:10FA80000D4619F023FE02460B462046294617F084
:10FA9000B3FD18B9174B0022CDE9082399F900806E
:10FAA000D4E799F90090124BCDF828800122CDE9D6
:10FAB0000467CDE9064502920393B9F1000F3FF4C4
:10FAC0001EAF002200231046194617F057FCB9F16B
:10FAD000020FCDE908013FF44CAF14E7AFF300800B
:10FAE0000000000000000000000000000000F03FE7
:10FAF000F4BD02080000F0FF0000F03F0000E03F0E
:10FB0000FFFFEFC706040020FFFFEF470000F07F74
:10FB10002DE9F84FC44E21F00043B34204460D4690
:10FB20000DDD03F1404303F58013034340F0B9803A
:10FB3000002940F3408100200021BDE8F88FBB4E32
:10FB4000B34240F3A6800029C0F2788102460B46FA
:10FB50000020B74917F034F90022B64B17F0E4FA49
:10FB600004460D4618F01CFF95A3D3E900238946EF
:10FB700080462946204617F0D7FA93A3D3E90023FD
:10FB800017F020F922462B4617F0CEFA90A3D3E9BE
:10FB9000002317F015F922462B4617F0C5FA8EA35D
:10FBA000D3E9002317F00EF922462B4617F0BCFAD2
:10FBB0008BA3D3E9002317F003F922462B4617F055
:10FBC000B3FA89A3D3E9002317F0FCF822462B46A9
:10FBD00017F0AAFA86A3D3E9002382468B46204673
:10FBE000294617F0A1FA84A3D3E9002317F0E8F817
:10FBF00022462B4617F098FA81A3D3E9002317F089
:10FC0000E1F822462B4617F08FFA7FA3D3E90023B1
:10FC100017F0D6F822462B4617F086FA0022844BBE
:10FC200017F0D0F802460B465046594617F0A6FB8F
:10FC300042464B4617F078FA002682468B463246FB
:10FC40004B463046494617F06FFA02460B462046AF
:10FC5000294617F0B5F8324604460D464B46404655
:10FC6000494617F0AFF802460B462046294617F0E2
:10FC700085FB02460B465046594617F0A3F832461C
:10FC80004B4617F09FF802460B4617F09BF8BDE86D
:10FC9000F88F694A93420EDC5DA1D1E90001BDE80D
:10FCA000F88F02460B4617F08BF802460B4617F00A
:10FCB00065FBBDE8F88F02460B4617F035FA40A306
:10FCC000D3E9002306460F4617F02EFA3EA3D3E9E8
:10FCD000002317F077F832463B4617F025FA3CA38D
:10FCE000D3E9002317F06CF832463B4617F01CFAB4
:10FCF00039A3D3E9002317F065F832463B4617F0E5
:10FD000013FA37A3D3E9002317F05AF832463B46DB
:10FD100017F00AFA34A3D3E9002317F053F8324658
:10FD20003B4617F001FA32A3D3E900238046894607
:10FD30003046394617F0F8F92FA3D3E9002317F01E
:10FD40003FF832463B4617F0EFF92DA3D3E90023E5
:10FD500017F038F832463B4617F0E6F92AA3D3E904
:10FD6000002317F02DF832463B4617F0DDF900224C
:10FD70002F4B17F027F802460B464046494617F02E
:10FD8000FDFA22462B4617F0CFF902460B4622A178
:10FD9000D1E9000117F014F802460B462046294627
:10FDA00017F00EF802460B4619A1D1E9000117F031
:10FDB00007F8BDE8F88F1AA1D1E90001BDE8F88F76
:10FDC00009F7FD0DE13D023F88B20175E0EF493FC3
:10FDD0003B8F68B52882A43F5544880E55C1C93F62
:10FDE0007D6FEB0312D6D43F555555555555C53F3C
:10FDF00082922EB1C5B8B33F59018D1B6C06E63F08
:10FE0000C88A599CE52A00404B2D8A1C273A03409A
:10FE1000182D4454FB21F93F075C143326A6913C6E
:10FE2000182D4454FB210940FFFFEF3FFFFFDF3F48
:10FE30000000F03F0000E03F0000603C00225C4B0F
:10FE400016F0C0FF00225B4B17F06EF940A3D3E918
:10FE5000002304460D4617F067F93FA3D3E90023BA
:10FE600016F0B0FF22462B4617F05EF93CA3D3E90B
:10FE7000002316F0A5FF22462B4617F055F93AA3AA
:10FE8000D3E9002316F09EFF22462B4617F04CF9CB
:10FE900037A3D3E9002316F093FF22462B4617F031
:10FEA00043F935A3D3E9002316F08CFF22462B46F5
:10FEB00017F03AF9804689462046294618F070FD29
:10FEC0002FA3D3E9002306460F462046294617F004
:10FED0002BF92DA3D3E9002316F072FF22462B46FF
:10FEE00017F022F92AA3D3E9002316F06BFF22466C
:10FEF0002B4617F019F928A3D3E9002316F060FF69
:10FF000022462B4617F010F90022294B16F05AFF13
:10FF100002460B464046494617F030FA32463B4609
:10FF200017F002F91EA3D3E9002316F049FF324669
:10FF30003B4616F047FF02460B4616F043FF0246CB
:10FF40000B4619A1D1E9000116F03AFFBDE8F88F80
:10FF500009F7FD0DE13D023F88B20175E0EF493F31
:10FF60003B8F68B52882A43F5544880E55C1C93FD0
:10FF70007D6FEB0312D6D43F555555555555C53FAA
:10FF800082922EB1C5B8B33F59018D1B6C06E63F76
:10FF9000C88A599CE52A00404B2D8A1C273A034009
:10FFA000075C143326A6913C182D4454FB210940CC
:10FFB0000000F03F0000E03F434A91422DE9F84342
:10FFC00004460D4639DD414A914209DD02F179527C
:10FFD000914240DD02460B4616F0F4FEBDE8F88380
:10FFE00001F1404202F58012024330D0B1F1804F5E
:10FFF0003ADC0022364B16F0E3FE02460B4604467E
:020000040801F1
:100000000D4616F0DFFE224606460F462B462046DA
:10001000294617F089F802460B463046394616F055
:10002000D1FE18F0BDFC0B4602462946204616F0CC
:10003000C9FEBDE8F843FFF7BFB802460B4616F00D
:10004000BFFE02460B4617F099F9BDE8F883002081
:100050000021BDE8F88300F017FE19A3D3E90023BF
:1000600016F0B0FEBDE8F88302460B4617F05CF8C8
:100070000022174B16F0A4FE18F092FC2246804690
:1000800089462B462046294616F09CFE42460646E7
:100090000F464B462046294616F094FE02460B4674
:1000A00000200B4917F06AF90B46024639463046E4
:1000B00016F086FEBDE8F84300F0E6BDAFF3008021
:1000C000EF39FAFE422EE63FFFFFEF3FFFFFAF4161
:1000D0000000F03F000000002DE9F047BE4B21F08A
:1000E0000048984584B004460D4612DD08F14048AA
:1000F00008F58018034658EA030321D002460B4650
:1001000016F05EFE02460B4617F038F904B0BDE863
:10011000F087B24B98458A4629DCB8F1795F80F2C6
:10012000658191A3D3E9002316F04CFE0022AC4B6D
:1001300017F08AFAD8B12046294604B0BDE8F08706
:100140008BA3D3E9002316F0EFFF8BA3D3E90023A1
:1001500006460F462046294616F0E6FF02460B46A5
:100160003046394616F02EFE04B0BDE8F087204632
:10017000294617F051FD02460B460020984916F01B
:100180001FFE0022974B16F0CFFF7DA3D3E900237B
:1001900004460D4616F0C8FF7BA3D3E9002316F0F2
:1001A00011FE22462B4616F0BFFF79A3D3E90023A8
:1001B00016F006FE22462B4616F0B6FF76A3D3E9CC
:1001C000002316F0FFFD22462B4616F0ADFF74A368
:1001D000D3E9002316F0F4FD22462B4616F0A4FFC7
:1001E00071A3D3E9002316F0EDFD22462B4616F04D
:1001F0009BFF6FA3D3E90023CDE9000120462946E8
:1002000016F092FF6CA3D3E9002316F0D9FD224625
:100210002B4616F089FF6AA3D3E9002316F0D2FD1E
:1002200022462B4616F080FF67A3D3E9002316F081
:10023000C7FD22462B4616F077FF694B002216F0C9
:10024000C1FDCDE902012046294618F0A9FB664B05
:10025000984506460F4666DCDDE90223DDE900012C
:1002600017F08CF83246CDE900013B46304639465E
:1002700016F0A8FD02460B46DDE9000116F054FF1A
:100280004FF00008CDE9000142463B464046394662
:1002900016F04AFF02460B462046294616F090FD0E
:1002A000424604460D463B463046394616F08AFD26
:1002B00002460B462046294617F060F802460B46D8
:1002C00016F080FD02460B462BA1D1E9000116F085
:1002D00077FD02460B46DDE9000116F071FD42464E
:1002E00004460D463B464046394616F06BFD024635
:1002F0000B4637A1D1E9000116F062FD02460B461C
:100300002046294616F05CFD02460B4630A1D1E995
:10031000000116F055FDBAF1000F3FF7F7AE01F1FD
:1003200000431946F2E6DDE90223DDE9000117F09A
:1003300025F832463B4616F0F7FE32463B4616F0AD
:1003400041FD02460B4616F03DFD0BA3D3E9002309
:1003500016F036FD02460B4605A1D1E9000116F064
:100360002FFDD8E7AFF300809C7500883CE4377E12
:10037000182D4454FB21F93F075C143326A6913C09
:1003800009F7FD0DE13D023F88B20175E0EF493FFD
:100390003B8F68B52882A43F5544880E55C1C93F9C
:1003A0007D6FEB0312D6D43F555555555555C53F76
:1003B00082922EB1C5B8B33F59018D1B6C06E63F42
:1003C000C88A599CE52A00404B2D8A1C273A0340D5
:1003D000182D4454FB21E93FFFFFEF3FFFFFDF3FB4
:1003E0000000F03F0000E03F3233EF3F02460B4693
:1003F00016F09AFE37A3D3E9002306460F4616F0FF
:1004000093FE36A3D3E9002316F0DCFC32463B46CC
:1004100016F08AFE33A3D3E9002316F0D1FC32464E
:100420003B4616F081FE31A3D3E9002316F0CAFC47
:1004300032463B4616F078FE2EA3D3E9002316F091
:10044000BFFC32463B4616F06FFE2CA3D3E90023D7
:1004500016F0B8FC32463B4616F066FE29A3D3E9F7
:100460000023804689463046394616F05DFE27A3B4
:10047000D3E9002316F0A4FC32463B4616F054FEA6
:1004800024A3D3E9002316F09DFC32463B4616F028
:100490004BFE22A3D3E9002316F092FC32463B46E2
:1004A00016F042FE00220A4B16F08CFC02460B4668
:1004B0004046494616F062FF22462B4616F034FEAF
:1004C00022462B4616F07EFC04B0BDE8F08700BF44
:1004D0000000F03F09F7FD0DE13D023F88B20175D4
:1004E000E0EF493F3B8F68B52882A43F5544880E12
:1004F00055C1C93F7D6FEB0312D6D43F55555555B5
:100500005555C53F82922EB1C5B8B33F59018D1BD9
:100510006C06E63FC88A599CE52A00404B2D8A1C90
:10052000273A0340000000002DE9F84F1D465342D2
:10053000134325F0004ADFF8E0E14AEAD37373453C
:10054000144606460F4647D8C0F1000848EA00089E
:1005500021F0004343EAD878F0458B463CD805F1BA
:10056000404808F5801858EA020850D04FEAA578AC
:1005700008F0020848EAD17850EA030134D052EA80
:100580000A023CD0F24557D0734538D0A3EB0A039A
:100590001B153C2B42DC002D70DB22462B463046DF
:1005A000394616F0EBFE17F037FBFEF751FBB8F1BA
:1005B000010F5FD0B8F1020F4ED0B8F1000F62D03A
:1005C00043A3D3E9002316F0FBFB43A3D3E90023A5
:1005D00016F0F6FBBDE8F88F32463B46204629462A
:1005E00016F0F0FBBDE8F88FB8F1020F1AD0B8F1A1
:1005F000030F10D13AA1D1E90001BDE8F88FBBF19A
:10060000000F14DB38A1D1E90001BDE8F88FBDE887
:10061000F84FFEF71DBB3946BDE8F88F32A1D1E98E
:100620000001C4E72CA1D1E90001BDE8F88F30A199
:10063000D1E90001BDE8F88F534526D0B8F1020F8B
:10064000F0D0B8F1030FD5D0B8F1010F4FF0000092
:1006500029D00021BDE8F88F1DA3D3E9002316F0AF
:10066000AFFB02460B461CA1D1E9000116F0A8FB26
:10067000BDE8F88F01F10041BDE8F88F3C338CDA1A
:100680000020002193E7BDE8F88FB8F1020F18D0E1
:10069000B8F1030F10D0B8F1010F08D016A1D1E9BD
:1006A0000001BDE8F88F4FF00041BDE8F88F14A1BC
:1006B000D1E90001BDE8F88F13A1D1E90001BDE83F
:1006C000F88F13A1D1E90001BDE8F88FAFF30080E6
:1006D000075C143326A6A13C182D4454FB21094085
:1006E000182D4454FB2109C0182D4454FB21F93F17
:1006F000182D4454FB21F9BF182D4454FB21E93F28
:10070000182D4454FB21E9BFD221337F7CD902C08C
:10071000D221337F7CD902400000F07F000000002E
:1007200043422DE9F047034321F000463E4A46EAA2
:10073000D373934204460D4613D896423DD03B4BAB
:100740009E428A4617DC36A3D3E9002316F03AFB13
:100750000022002316F078FFA8B320462946BDE802
:10076000F08702460B4616F02BFB02460B4616F0AE
:1007700005FEBDE8F0872E4B9E42354624DD33460C
:100780000246314616F01EFB224606460F462B4611
:100790000020254916F014FB02460B463046394628
:1007A00016F0ECFDFEF708FD0022224B16F0BCFC13
:1007B000BAF1000F2FDBBDE8F0870022002316F00E
:1007C000DDFDBDE8F087354622462B46204629460A
:1007D00016F0F8FA22462B4606460F4616F0A4FC01
:1007E0002246804689462B4600200F4916F0E8FA3B
:1007F00002460B464046494616F0C0FD32463B468F
:1008000016F0E0FAFEF7D8FC00220A4B16F08CFC3A
:10081000BAF1000FCFDA01F100431946BDE8F087C5
:100820009C7500883CE4377E0000F03FFFFF2F3EC0
:10083000FFFFDF3F0000E03F2DE9F8434E4B21F082
:1008400000449C4206460F461BDC4C4B9C4222DD7A
:100850004B4B9C4263DD4B4B9C427BDD4A4B9C42A5
:1008600046DD01339C4240D041A3D3E9002310462A
:10087000194616F059FC06460F4630463946BDE883
:10088000F88302460B4616F04FFC06460F463046EC
:100890003946BDE8F88317F0BFF902F0B1FC002239
:1008A0003A4B8046894616F08DFAB4F1725F0646DF
:1008B0000F46ECDB42464B464046494616F034FCB8
:1008C00032463B4604460D463046394616F07AFA23
:1008D00002460B462046294616F050FD00222B4BBF
:1008E00016F070FA06460F46D1E7294B9842BBD85E
:1008F0003046394617F090F90022264B16F014FCCA
:1009000000F04AF8002204460D46224B16F00CFC7B
:1009100022462B4616F008FC06460F46B7E717F0AE
:100920007BF900F039F800221A4B06460F4616F004
:10093000FBFB32463B4604460D460020154916F0A7
:100940001DFD02460B462046294616F03BFA064698
:100950000F469CE717F060F900F01EF800220D4BDF
:1009600016F0E2FB06460F4691E700BFAFF30080AA
:100970009C7500883CE4377EFFFFEF7F422ED63F18
:10098000FFFF3540412E8640CD3386400000F03FCA
:100990007DF8B98F0000E03F2DE9F04FB04E21F017
:1009A0000042B24283B004460D464FEAD1770DD9DA
:1009B000AC4EB24225D9C1F31303034340F0EC809F
:1009C0000FB10020002103B0BDE8F08FA64B9A4282
:1009D00000F2CB80A54B9A4200F2DC808AA3D3E9D7
:1009E000002316F0EFF90022A14B16F02DFE00288F
:1009F00000F006812046294600229D4B16F0E2F9C0
:100A0000E1E783A3D3E9002316F01EFE002840F09F
:100A1000C88081A3D3E900232046294616F0F6FDBD
:100A20000028CED1934E7EA3D3E9002306EBC70660
:100A30002046294616F078FBD6E9002316F0C2F9C5
:100A400016F022FE064616F009FB77A3D3E9002331
:100A50008046894616F068FB02460B46204629462A
:100A600016F0AEF972A3D3E90023CDE900014046A8
:100A7000494616F059FB82468B4652465B46DDE9F5
:100A8000000116F09DF904460D4622462B462046ED
:100A9000294616F049FB68A3D3E90023804689461E
:100AA00016F042FB66A3D3E9002316F089F942460B
:100AB0004B4616F039FB64A3D3E9002316F082F904
:100AC00042464B4616F030FB61A3D3E9002316F0F3
:100AD00077F942464B4616F027FB5FA3D3E9002384
:100AE00016F070F942464B4616F01EFB02460B46C6
:100AF0002046294616F064F980468946002E58D0D3
:100B00002046294642464B4616F00EFB4246044616
:100B10000D464B4600204FF0804116F051F9024639
:100B20000B462046294616F029FC02460B46504645
:100B3000594616F045F9DDE9002316F041F90B4658
:100B400002464B49002016F03BF96FF47F739E423A
:100B500051DA06F57A7601EB065100224FF0B873B0
:100B600016F0E2FA03B0BDE8F08F434B9A423FF62D
:100B700059AF424BFC002344D3E9002316F020F97F
:100B80003F4BC7F101062344CDE90001D3E900AB97
:100B9000F61B72E7002678E702460B4616F012F9BC
:100BA00011E719A3D3E900231046194616F0BCFA41
:100BB00009E702460B462046294616F0B5FA002200
:100BC00006460F464FF080434046494616F0F8F877
:100BD00002460B463046394616F0D0FB22462B46DD
:100BE00016F0EEF802460B460020214916F0E8F810
:100BF00003B0BDE8F08F01EB065103B0BDE8F08F04
:100C0000064642E7AFF300809C7500883CE4377EDF
:100C1000EF39FAFE422E864051302DD5104987C05B
:100C2000FE822B654715F73F0000E0FE422EE63FAF
:100C3000763C7935EF39EA3DD0A4BE726937663E1D
:100C4000F16BD2C541BDBB3E2CDE25AF6A56113FCC
:100C500093BDBE166CC1663F3E5555555555C53FB3
:100C6000412E8640FFFFEF7F422ED63FFFFF2F3EF3
:100C70000000F03FC8A80208B1A2F03FD8A80208BF
:100C8000E8A80208000000002DE9F04FB1F5801F30
:100C900085B006460F460B465ADA024621F000445C
:100CA000224300F0F8800029C0F27A810022D64B5E
:100CB00016F03AFAD54A0B46934206460F466FF0B5
:100CC000350C4ADCC3F3130505F5152E0EF6647ECC
:100CD0000EF4801E8EF07F5282F440121C1542EA00
:100CE0000507A4F2FF3464440022C94B304639465C
:100CF00004EB1E5416F064F8AB1CC3F31303022B71
:100D000082468B464FF0000230DC002316F074FC64
:100D1000002800F0C980002C00F04B81204616F01E
:100D20009DF9A5A3D3E9002306460F4616F0FCF96A
:100D3000A3A3D3E9002304460D463046394616F0F6
:100D4000F3F902460B462046294616F03BF80AE026
:100D5000AE4A93424FF0000CB4DD32463B4630467B
:100D6000394616F02FF805B0BDE8F08F4FF08043FC
:100D700016F028F802460B465046594616F0FEFA81
:100D8000064620460F4616F069F93246CDE90001C5
:100D90003B4630463946CDE9026716F0C5F90246B2
:100DA0000B468046894616F0BFF987A3D3E9002396
:100DB00006460F4616F0B8F985A3D3E9002316F0CE
:100DC00001F832463B4616F0AFF983A3D3E900237E
:100DD00015F0F8FF32463B4616F0A6F980A3D3E99A
:100DE000002315F0EFFF42464B4616F09DF97EA317
:100DF000D3E90023804689463046394616F094F9F7
:100E00007BA3D3E9002315F0DDFF32463B4616F005
:100E10008BF979A3D3E9002315F0D4FF32463B4682
:100E200016F082F90B4602464946404615F0CAFFC5
:100E3000A5F5C223C5F5D725A3F27A4351351D4345
:100E4000002D8046894656DD0022724B5046594699
:100E500016F06AF952465B4616F066F906460F46EA
:100E6000002C68D132463B464046494615F0AAFF61
:100E7000DDE9022316F058F902460B4630463946A2
:100E800015F09EFF02460B465046594615F098FF56
:100E900005B0BDE8F08F0022002300205E4916F067
:100EA0006DFA05B0BDE8F08F55A3D3E90023504695
:100EB000594616F039F902460B460020554915F0FF
:100EC0007FFF524606460F465B465046594616F08F
:100ED0002BF902460B463046394616F025F90646F0
:100EE0000F46002C40F09A8002460B465046594669
:100EF00015F066FF37E7002C00F0A4802EA3D3E99D
:100F00000023DDE9000116F00FF942464B46044686
:100F10000D465046594615F053FFDDE9022316F001
:100F200003F927A3D3E9002306460F46DDE90001B4
:100F300016F0FAF821E020A3D3E90023DDE900014F
:100F400016F0F2F832463B4604460D464046494606
:100F500015F038FFDDE9022316F0E6F818A3D3E90F
:100F6000002380468946DDE9000116F0DDF80246DF
:100F70000B464046494615F025FF02460B463046D3
:100F8000394615F01DFF52465B4615F019FF024623
:100F90000B462046294615F013FF05B0BDE8F08F3B
:100FA00002460B4615F00CFF0022002316F0E6F96E
:100FB000D9E600200021D6E60000E0FE422EE63F02
:100FC000763C7935EF39EA3D44523EDF12F1C23FBB
:100FD000DE03CB966446C73F599322942449D23FFF
:100FE000935555555555E53F9FC678D0099AC33F4F
:100FF000AF788E1DC571CC3F04FA97999999D93F66
:10100000555555555555D53F00005043FFFFEF7FCF
:101010000000F03F0000E03F000050C3204616F003
:101020001DF80FA3D3E900238046894616F07CF80B
:101030000DA3D3E9002304460D464046494616F069
:1010400073F89AE702460B465046594615F0B8FE2B
:10105000DDE9022316F068F814E700BFAFF3008063
:101060000000E0FE422EE63F763C7935EF39EA3D5E
:10107000B1F5801F2DE9F84304460D460B461ADAF8
:10108000024621F00046324359D000295FDB00229E
:101090003B4B16F049F83B4A0D462B46934204461B
:1010A0006FF035010CDD22462B462046294615F00F
:1010B00089FEBDE8F883334A93424FF00001F2DC29
:1010C0001815A0F2FF3008444FEAD0794844C3F322
:1010D000130815F0C3FFC9F57F73033348EA0355BE
:1010E00006460F4620462946FFF7CEFD1EA3D3E94C
:1010F0000023804689463046394616F015F81CA371
:10110000D3E9002304460D464046494616F00CF844
:1011100002460B462046294615F054FE16A3D3E995
:10112000002304460D463046394615F0FDFF0246C1
:101130000B462046294615F045FEBDE8F8830022FF
:1011400000230020104916F019F9BDE8F883024683
:101150000B4615F035FE0022002316F00FF9BDE80E
:10116000F88300BFAFF30080362BF111F3FE593D39
:101170000EE526157BCBDB3F00609F501344D33F29
:1011800000005043FFFFEF7F000050C3000000004D
:101190002DE9F04F23F0004757EA020493B037D00F
:1011A000674C21F00046A64283460D4629DC9A464C
:1011B000964625D0A74224DC614CA74279D0002D69
:1011C00080468946CDE9002377DB0024BEF1000F7D
:1011D0002CD15B4B9F4200F08B805A4B9F4261D0D9
:1011E000BAF1804F00F0C383574B9A451ED1002DB2
:1011F0001CDB4046494613B0BDE8F04F17F0D0BBAA
:1012000058B106F1404606F5801656EA0B0306D1A2
:101210004C49002013B0BDE8F08FB742CCDD4B48FD
:1012200013B0BDE8F04F18F04BBA002440464946D1
:1012300016F0F2FCBBF1000F19D126B1414B25F09D
:1012400040429A4213D1BAF1000FC0F2CA83002D76
:10125000E0DA06F1404606F5801656EA040300F08F
:10126000A584012CD6D101F100431946D2E7ED0F38
:10127000013D54EA05034ED0354B9F426EDD03F12C
:1012800004739F4240F3FE83324B9E424EDDBAF11F
:10129000000F4EDD28A3D3E900231046194615F0B0
:1012A00043FFB7E7BAF1000FC0F252844046494607
:1012B000B0E7BEF1000F82D0A3E7274B9F4228DCA6
:1012C000A3F154739F4280DD3B15A3F2FF33142B2F
:1012D00040F35484C3F134032EFA03F202FA03F309
:1012E0009E457FF472AF02F00102C2F102046DE785
:1012F00006F1404303F5801353EA0B0388D0154BE6
:101300009E4240F33B83BAF1000F12DBDDE900019E
:1013100080E702245AE742464B461046194615F02C
:101320004FFD02460B4616F029F873E7BAF1000F9D
:10133000B0DB002000216DE79C7500883CE4377E1F
:101340000000F07F0000F03F0000E03F38BC0208E2
:101350000000E041FFFFEF3FFFFF3F43B6F5801F76
:101360004FF0000205DAD84B15F0DEFE6FF03402C4
:101370000E463315D54FC6F31306A3F2FF331344BD
:1013800046F07F5ABE421A460D934AF4401A40F383
:101390002F83CF4B9E4240F30D849FEDB57B8DEDA7
:1013A000087B8DED0E7B9FEDB47B13468DED067BA8
:1013B00001330D93AAF5801A0027DDE90623514673
:1013C000CDE90A0115F0FCFCDDE9062380468946DB
:1013D000DDE90A0115F0F6FC02460B460020BD4986
:1013E00015F0CCFF0A460146CDE9101213464946D6
:1013F0000246404615F098FE4FEA6A0343F0005358
:101400008C46834603F50023CDE904BCDA468B46BF
:10141000D9190023CDE902AB0293DDE902AB00202C
:1014200006460F4602460B465046594615F07CFECE
:1014300002460B464046494615F0C2FCDDE906234C
:10144000804689463046394615F0BAFC02460B46BE
:10145000DDE90A0115F0B4FC52465B4615F064FE66
:1014600002460B464046494615F0AAFCDDE910232A
:1014700015F05AFEDDE90467CDE9060132463B4628
:101480003046394615F050FE7DA3D3E900230646C9
:101490000F4615F049FE7CA3D3E9002315F092FC1A
:1014A00032463B4615F040FE79A3D3E9002315F000
:1014B00089FC32463B4615F037FE77A3D3E900237B
:1014C00015F080FC32463B4615F02EFE74A3D3E99E
:1014D000002315F077FC32463B4615F025FE72A33B
:1014E000D3E9002315F06EFC3246804689463B4620
:1014F0003046394615F018FE02460B46404649462E
:1015000015F012FE524606460F465B46DDE9040121
:1015100015F058FCDDE9062315F006FE32463B4681
:1015200015F050FC5246804689465B465046594667
:1015300015F0FAFD0022684BCDE90A0115F042FCD6
:1015400042464B4615F03EFC02980F460646324690
:101550003B465046594615F0E7FD002282468B4631
:101560005D4B3046394615F02BFCDDE90A2315F0BA
:1015700027FC02460B464046494615F021FCDDE9B2
:10158000042315F0D1FD3246804689463B46DDE90D
:10159000060115F0C9FD02460B464046494615F0C6
:1015A00011FC8046894602460B4650465946CDE915
:1015B00004AB15F007FCDDE902AB3DA3D3E9002342
:1015C00050460F4615F0B0FDDDE90423CDE90201D8
:1015D0003946504615F0F4FB02460B464046494654
:1015E00015F0EEFB34A3D3E9002315F09DFD34A3E1
:1015F000D3E90023804689465046394615F094FDCC
:1016000002460B464046494615F0DCFBDDE90E2359
:1016100015F0D8FB80460D98894615F01FFD42460F
:1016200006460F464B46DDE9020115F0CBFBDDE92E
:10163000082315F0C7FB32463B4615F0C3FB324684
:101640003B4650468B4615F0BBFBDDE9082315F001
:10165000B7FBDDE9022315F0B3FB02460B4640461B
:10166000494615F0ADFB8046894637E0AFF3008070
:101670000000000000000000000000000000F03F3B
:10168000EF4E454A287ECA3F65DBC9934A86CD3F67
:1016900001411DA96074D13F4D268F515555D53F4D
:1016A000FFAB6FDBB66DDB3F033333333333E33FE5
:1016B000000000E009C7EE3FFD033ADC09C7EE3F3A
:1016C000F5015B14E02F3EBE000040438E980300FE
:1016D00079B60B000000F03F00000840013C54EADE
:1016E000050300F079819FEDC87B8DED047BDDE97A
:1016F00000120B461446CDE9023400230293DDE9C3
:10170000024508462B461146224615F059FB524623
:101710005B4615F009FDDDE9002306460F4640460D
:10172000494615F001FD02460B463046394615F094
:1017300049FB2246804689462B4650465946CDE90C
:10174000008915F0F1FC0B46024606460F4640465E
:10175000494615F037FBC64B994204460D468A466A
:1017600040F3168101F13F4303F5E003034340F0EA
:10177000F781A7A3D3E90023DDE9000115F022FBDF
:101780003246804689463B462046294615F018FBDE
:1017900002460B464046494615F056FF002840F0E9
:1017A000DF81A8464FEA28534FF48012A3F2FE339C
:1017B00042FA03F35344C3F30A52AE4DA2F2FF328E
:1017C0001541C3F3130423EA05010020C2F1140BF1
:1017D00044F48014BAF1000F02460B4644FA0BFBA6
:1017E00030463946B8BFCBF1000B15F0E9FA024696
:1017F0000B4606460F46DDE9000115F0E3FA4FEA15
:101800000B5A0D46002484A3D3E900232046294621
:1018100015F08AFC3246804689463B4620462946DA
:1018200015F0CEFA02460B46DDE9000115F0C8FAC4
:101830007BA3D3E9002315F077FC7BA3D3E9002336
:1018400006460F462046294615F06EFC02460B461A
:101850003046394615F0B6FA06460F4602460B46A4
:101860004046494615F0AEFA42464B4604460D4600
:1018700015F0A6FA02460B463046394615F0A0FA96
:101880002246804689462B462046294615F04CFCC8
:1018900067A3D3E9002306460F4615F045FC66A36F
:1018A000D3E9002315F08CFA32463B4615F03CFC98
:1018B00063A3D3E9002315F085FA32463B4615F0C1
:1018C00033FC61A3D3E9002315F07AFA32463B4694
:1018D00015F02AFC5EA3D3E9002315F073FA324613
:1018E0003B4615F021FC02460B462046294615F0E2
:1018F00067FA06460F4602460B462046294615F073
:1019000013FC0022CDE900014FF0804330463946F8
:1019100015F056FA02460B46DDE9000115F02EFDE2
:10192000424606460F464B462046294615F0FCFB2C
:1019300042464B4615F046FA02460B4630463946BB
:1019400015F03EFA22462B4615F03AFA02460B46AF
:101950000020494915F034FA8A44BAF5801FC0F2D4
:1019600039815146DDE9042315F0DEFB52E442469D
:101970004B464046494615F0D7FB4BE4BAF1000F01
:10198000BFF6D7ACDDE90034184604F1004141E46C
:101990003A4B21F00048984540F3FF80384B0B4408
:1019A00003430CD132463B4615F00AFA02460B4679
:1019B000DDE9000115F034FE00283FF4F3AEDDE967
:1019C000040125A3D3E9002315F0AEFB22A3D3E93C
:1019D000002315F0A9FB1DE49FED217B8DED047B19
:1019E00085E602460B460020234915F0C7FC2EE48D
:1019F0009FED1D7B8DED087B8DED0E7B9FED027BBA
:101A000000278DED067BD8E4000000000000F03FC9
:101A1000FE822B654715973C00000000432EE63FF1
:101A2000EF39FAFE422EE63F396CA80C615C20BE0D
:101A3000D0A4BE726937663EF16BD2C541BDBB3ED4
:101A40002CDE25AF6A56113F93BDBE166CC1663FB2
:101A50003E5555555555C53F59F3F8C21F6EA50162
:101A6000000000000000F0BF0000000000000000C7
:101A7000FFFF8F40FFFF0F000000F03FFFCB9040C3
:101A800000346F3F684B9E427FF750AC674B9E42DD
:101A90003FF7FDAB0022654B15F092F952A3D3E955
:101AA000002306460F4615F03FFB51A3D3E9002360
:101AB000804689463046394615F036FB002282467C
:101AC0008B465B4B3046394615F02EFB02460B46E3
:101AD00049A1D1E9000115F073F932463B4615F0F2
:101AE00023FB02460B460020524915F069F93246A5
:101AF000CDE902013B463046394615F015FB02465A
:101B00000B46DDE9020115F00FFB3DA3D3E90023ED
:101B100015F00AFB02460B465046594615F050F99F
:101B200002460B4606460F464046494615F04AF91E
:101B300042464B46002082468B4615F041F902464C
:101B40000B463046394615F03BF980468946C5E5D7
:101B500042464B460020354915F010FCFFF75ABBB2
:101B6000DDE9040128A3D3E9002315F0DDFA26A35B
:101B7000D3E9002315F0D8FAFFF74CBBBEF1000FF4
:101B80007FF453ABC3F1140347FA03F202FA03F3F1
:101B90009F4223D07446FFF720BB264B98453FF762
:101BA00001AEDDE90223924693462BE602460B4640
:101BB000FFF7B3BB9FED167B8DED087B9FED167B8A
:101BC0008DED0E7B9FED167B4FF480278DED067B10
:101BD000FFF7F3BB5A4601F04FFDC3E602F00102E6
:101BE000C2F10204FFF7F9BA000000604715F73FA1
:101BF00044DF5DF80BAE543E555555555555D53F10
:101C0000FE822B654715F73F9C7500883CE4377EC4
:101C10000000004003B8E23F06D0CF43EBFD4C3E4E
:101C2000000000000000F83FFEFFEF3F0000F03F23
:101C30000000D03F0000E03F2DE9F0479C4B21F031
:101C400000479F4290B08046894640F38E80994B72
:101C50009F420C46924626DC00298BA3D3E9002341
:101C600040F3B08115F0ACF8934B9F4204460D460B
:101C700000F0908086A3D3E9002315F0A1F8024676
:101C80000B46CAE900232046294615F099F880A39F
:101C9000D3E9002315F094F80125CAE9020128468A
:101CA00010B0BDE8F087854B9F4240F39080844B95
:101CB0009F4265DC3D15A5F21645A7EB0553194675
:101CC0001F46064615F0E0FC15F0C8F98046894627
:101CD00042464B4630463946CDE90A8915F070F840
:101CE0000022784B15F020FA8946804615F0CCFC8E
:101CF00015F0B4F906460F4632463B464046494683
:101D0000CDE90C6715F05CF800226E4B15F00CFA6B
:101D100000220023CDE90E0115F06EFC002800F032
:101D20006F81002330463946002215F065FC0028FB
:101D300014BF01230223644A019202212A46009122
:101D40000AA8514600F08CFB002C054614DADAF89C
:101D50000420DAF80C3002F1004203F1004345425E
:101D6000CAF80420CAF80C3006E000200021C2E9BD
:101D70000089C2E902010025284610B0BDE8F087BD
:101D800002460B4615F01CF80025CAE90201CAE913
:101D90000001F1E740A3D3E9002315F011F840A3B7
:101DA000D3E900230D46044615F00AF802460B4617
:101DB000CAE900232946204615F002F838A3D3E9E2
:101DC000002314F0FDFF0125CAE90201D4E715F054
:101DD00023FF35A3D3E900238046894615F0A4F9F3
:101DE00000223A4B14F0EEFF15F04EFC054615F0BC
:101DF00035F925A3D3E90023CDE9060115F094F9BF
:101E000002460B464046494614F0DAFF20A3D3E9C8
:101E10000023CDE90201DDE9060115F085F91F2D4A
:101E200080468946CDE9048954DC294B6A1E53F863
:101E300022309F424ED002460B46DDE9020114F0EB
:101E4000BFFF80468946CAE9008942464B46DDE924
:101E5000020114F0B5FFDDE9042314F0B1FF002CFA
:101E6000CAE9020188DA09F1004401F100436D4238
:101E7000CAF80080CAF80440CAF80800CAF80C3052
:101E80007AE700BFAFF3008000004054FB21F93F28
:101E90003163621A61B4D03D0000601A61B4D03D74
:101EA0007370032E8A19A33B83C8C96D305FE43F6A
:101EB000FB21E93F7BD90240FB21F93FFB2139415E
:101EC000FFFFEF7F0000704190BE02080000E03F7E
:101ED00010BE0208DDE90423DDE9020114F070FF01
:101EE0003F15C1F30A53FB1A80468946102BCAE9F5
:101EF0000089AADD58A3D3E90023DDE9060115F026
:101F000013F98046894602460B46DDE9020114F0CA
:101F100057FF02460B46DDE90201CDE9082314F024
:101F20004FFF42464B4614F04BFF4DA3D3E900232D
:101F300080468946DDE9060115F0F6F842464B4633
:101F400014F03EFF0B46CDE904010246DDE908012D
:101F500014F036FFC1F30A53FF1A80468946312F29
:101F6000CAE900896CDD41A3D3E90023DDE906015C
:101F700015F0DAF8DDE9088906460F4602460B46F9
:101F80004046494614F01CFF02460B46404649466F
:101F9000CDE9022314F014FF32463B4614F010FF43
:101FA00034A3D3E9002306460F46DDE9060115F008
:101FB000BBF832463B4614F003FF02460B46CDE920
:101FC00004233AE714F0FEFE274B9F4204460D46D9
:101FD00018D01FA3D3E9002314F0F4FE02460B46E9
:101FE000CAE900232946204614F0EAFE18A3D3E9E3
:101FF000002314F0E7FE4FF0FF35CAE90201BBE60B
:10200000032398E614A3D3E9002314F0DBFE14A302
:10201000D3E900230D46044614F0D4FE02460B46D5
:10202000CAE900232946204614F0CAFE0CA3D3E9CE
:10203000002314F0C7FE4FF0FF35CAE902019BE60A
:102040009DED087B8DED027BFFE600BFAFF30080C6
:102050003163621A61B4D03D0000601A61B4D03DB2
:102060007370032E8A19A33BFB21F93F0000002E59
:102070008A19A33BC14920259A837B3900000000BF
:10208000594A2DE9F84F21F00048904506460F4681
:102090002BDC564B0029B4BF554D564D98454FF09B
:1020A000000410DC544B984570DC4DA3D3E90023A9
:1020B00014F088FE0022514B15F0C6FAD8B1304614
:1020C0003946BDE8F88F4E4B98457CDD4D4B984521
:1020D00044DD013398453ED03046394640A3D3E92C
:1020E000002315F021F8BDE8F88F02460B4614F0E6
:1020F00069FEBDE8F88F3046394615F08DFD01F0D8
:102100007FF806460F4632463B463046394614F0C5
:1021100059FE324682468B463B463046394615F0DC
:1021200003F8002280468946344B3046394614F085
:1021300049FE02460B464046494615F01FF9024645
:102140000B465046594614F03BFE22462B4614F0EF
:10215000EBFFBDE8F88F2C4B9842BDD8304639468E
:1021600015F05AFD0022234B14F0DEFFFEF714FC9D
:1021700006460F4602460B462046294614F0D4FF79
:1021800032463B4614F0D0FFBDE8F88F15F044FD11
:1021900001F036F81D4B984506460F46B3DD002288
:1021A000164B14F00FFE02460B463046394615F02A
:1021B000E5F832463B4614F005FE22462B4614F065
:1021C000B3FFBDE8F88F15F027FDFEF7E5FB0246EB
:1021D0000B462046294614F0A7FFBDE8F88F00BF44
:1021E0003374AC3C1F7BAC7FFFFFEF7FFFFF3540BC
:1021F0000000E0BF0000E03FFFFF2F3E0000F03F87
:10220000412E8640CD3386407DF8B98FFFFFEF3FEA
:102210002DE9F04F21F00048B8F1795F85B006460E
:102220000F4692469B466BDA15F02EFA002800F016
:10223000EA8032463B463046394614F075FF74A3B7
:10224000D3E9002304460D4614F06EFF72A3D3E9D0
:10225000002314F0B7FD22462B4614F065FF70A34F
:10226000D3E9002314F0ACFD22462B4614F05CFFAA
:102270006DA3D3E9002314F0A5FD22462B4614F0EC
:1022800053FF6BA3D3E9002314F09AFD22462B469B
:1022900014F04AFF68A3D3E9002314F093FD22460B
:1022A0002B4614F041FFCDE900010022664B204689
:1022B000294614F039FFDDE900238046894620468F
:1022C000294614F031FF524604460D465B4630461F
:1022D000394614F029FF02460B462046294614F0E1
:1022E0006FFD02460B464046494614F069FD024622
:1022F0000B460020554914F063FD05B0BDE8F08F92
:1023000002460B4614F010FF41A3D3E90023044614
:102310000D4614F009FF40A3D3E9002314F052FD49
:1023200022462B4614F000FF3DA3D3E9002314F00E
:1023300047FD22462B4614F0F7FE3BA3D3E90023CA
:1023400014F040FD22462B4614F0EEFE38A3D3E9EC
:10235000002314F035FD22462B4614F0E5FE36A38B
:10236000D3E9002314F02EFD2B46224614F0DCFEA8
:10237000374B9845CDE9000197DD364B984539DC60
:10238000A8F500130022002030499046994614F029
:1023900017FDCDE9020100222B4B2046294614F0FF
:1023A000C3FE42464B4614F00BFDDDE90023804698
:1023B00089462046294614F0B7FE524604460D468B
:1023C0005B463046394614F0AFFE02460B462046C7
:1023D000294614F0F5FC02460B464046494614F0E7
:1023E000EFFC02460B46DDE9020114F0E9FC05B002
:1023F000BDE8F08F9FED127B4FF000088DED027B62
:10240000DFF85490C7E71149002005B0BDE8F08F10
:10241000D43888BEE9FAA8BDC4B1B4BD9EEE213E51
:10242000AD529C804F7E923E9015CB19A001FA3E92
:102430007751C1166CC1563F4C5555555555A53F62
:10244000000000000000E73F0000E03F0000F03F18
:102450003233D33F0000E93F0000D23F00000000CC
:102460002DE9F04FADF51B7D9F4CA49E9F4D54F878
:10247000264007942646D41E85FB0475E417C4EB5A
:10248000A50424EAE4741D460A93631CA3EB8303AA
:10249000013D02EBC30306932B460B940395651B8A
:1024A000F418049008911AD42C4400260027013413
:1024B0000DF18808DDF8949208E059F8250014F031
:1024C000CDFD0135A542E8E8020108D0002DF4DA7F
:1024D000013530463946A542E8E80201F6D1079BAE
:1024E000002BC0F2DF83079B03F1010B0A9B22A99B
:1024F000DB001A4601EB03090093049B0DF5E47A17
:1025000019460AEBCB0B01EB0208039B002BC0F230
:10251000F582049C4D460026002775E90223F4E865
:10252000020114F001FE02460B463046394614F013
:1025300049FC444506460F46EFD1EAE80267DA4512
:1025400009F10809E1D107990098049C009101F173
:102550008043013B9B0020441A1F83460EA802447F
:1025600003440C920D93009A9AA901EBC203002A2E
:1025700053E9284529DD0DF5E47A0AEBC2080DF18F
:10258000340900225A4B2046294614F0CDFD15F09F
:102590007BF814F063FD0022564B06460F4614F0FC
:1025A000C3FD02460B462046294614F009FC15F0EF
:1025B0006BF878E9022349F8040F3946304614F0E5
:1025C00001FCD04504460D46DBD1DDF818902046CD
:1025D00029464A4601F050F800224FF07F53044646
:1025E0000D4614F0A1FDFCF75FFD0022424B14F0F4
:1025F0009BFD02460B462046294614F0E1FB0D46A2
:10260000044615F041F8804614F028FD0B460246BA
:102610002946204614F0D4FB4B46002B06460F46B5
:1026200040F3F980009A0EA9013AC9F1180351F854
:10263000225045FA03F101FA03F30EA8EB1A40F811
:102640002230C9F11705884443FA05F5002D6DDDE8
:10265000009B002B08F1010840F36F820E9C002CB8
:1026600040F01683009B012B40F38F820EAA0123BA
:1026700052F8044F002C00F08382581C0EAAC4F1BB
:10268000807442F82340009A824219DD0EAA0EACF3
:1026900052F820106FF07F42511A44F82010009930
:1026A000023399420CDD1046009A0EA901EB830318
:1026B00001EB82011A68821A43F8042B8B42F9D18C
:1026C000069B002B1ADD069B012B4FF0010440F006
:1026D0003C82009B5A1E0EAB0EA953F82230C3F366
:1026E000160341F822303CE230C30208ABAAAA2A02
:1026F0000000703E0000704100002040022D15D106
:1027000032463B460020924914F05AFB06460F46DB
:10271000069A8F49002000F0AFFF02460B46304674
:10272000394614F04DFB022506460F4600220023D1
:102730003046394614F060FF002800F03782009AD6
:10274000079B501E83420FDC02F18043013B0EAA1F
:102750000D9C02EB8303002253F80419A34242EAC2
:102760000102F9D1002A67D1079B0EAA013B52F85A
:102770002330002B40F018820C9A012352F80419E0
:1027800001330029FAD0009AD31802F1010A9A45C0
:1027900009933DDC009B0A990B9A0B4409990AEBBB
:1027A0000208994622AB08F1804803EBC9098B184F
:1027B000A59A08F1FF3802EB880872AA02EBCA0A50
:1027C000A59A02EB8303009358F8040F14F046FC1B
:1027D000039B002BE9E802014FF000064FF00007D1
:1027E00011DB049C4D4675E90223F4E8020114F064
:1027F0009BFC02460B463046394614F0E3FA5C4532
:1028000006460F46EFD1009B9845EAE80267DBD108
:10281000099B0093A7E606D1009B0EAA013B52F844
:102820002350ED1512E700224A4B14F003FF002855
:1028300040F06E81054679E70EA9039551F82030E6
:102840000699CDF8248018390246009006916BB99C
:1028500000F18043013B0EA800EB830353F8040909
:10286000013A18390028F9D000920691069A3849A1
:10287000002000F001FF009B002B04460D46C0F233
:10288000F781DA0072A901EB020B06920EAA02EBA5
:102890008306DFF8C4904FF000080BF108070436F8
:1028A00056F8040D14F0DAFB22462B4614F03CFCDB
:1028B0004B4667E9020142462046294614F034FCA3
:1028C0000EAB9E4204460D46EAD14AACDDF81C90A0
:1028D00004944FF0000AB9F1000FC0F22B81DFF829
:1028E0007C805D4618A1D1E9000100260027002464
:1028F00003E0544510DCF8E80201F5E8022314F087
:1029000013FC02460B463046394614F05BFA01349C
:10291000A14506460F46ECDA049B03EBCA03ABF174
:10292000080BC3E9006770AB9B450AF1010AD2D1DD
:10293000A49B049C032B00F28980DFE803F0C58E82
:102940008E1100BFAFF3008000000040FB21F93F73
:102950000000F03F0000E03F0000703E10A90208B8
:10296000009B002B40F38181069A04EB020ADAE90E
:10297000008902F1080525440DF5987B1AED027BCC
:1029800042464B4651EC170B8DED047B14F01AFABE
:1029900006460F4602460B46DDE9040114F010FA24
:1029A00042464B4614F00EFA65E902015D45B04619
:1029B000B9466AE90267E1D1009B012B40F35581DA
:1029C000069BE518D5E9008903F1080B04EB0B0A17
:1029D00015ED027B42464B4651EC170B8DED007B0B
:1029E00014F0F0F906460F4602460B46DDE90001F9
:1029F00014F0E6F94B46424614F0E4F96AE90201A4
:102A00004EAB5345B046B94665E90267E0D10020B8
:102A1000002104EB0B0575E9022314F0D3F9AA4554
:102A2000F9D1039B002B00F00A816268E368089FDC
:102A30002568A4683D6002F1004203F1004301F102
:102A400000417A60FB60BC6038617961099B03F0EA
:102A500007000DF51B7DBDE8F08F069D0835254468
:102A60000020002175E9022314F0ACF9A542F9D148
:102A7000039B002B00F0D280089E024601F1004328
:102A800086E80C000B460246D4E9000114F098F9E0
:102A9000009B002B0BDD4CAD0124F5E8022314F064
:102AA00091F9009B0134A342F7DA039B13B101F1C2
:102AB00000431946089BC3E90201099B03F0070084
:102AC0000DF51B7DBDE8F08F069D08350020002127
:102AD000254475E9022314F075F9AC42F9D1039B42
:102AE00013B101F100431946089BC3E90001099B9A
:102AF00003F007000DF51B7DBDE8F08F00260027D1
:102B0000EAE80267DA4509F108097FF4FEAC1AE544
:102B1000009B002B08F10108C8BF02253FF79EADBE
:102B200032463B460020614914F04AF90225064628
:102B30000F46FBE500260027EEE6069B002B27DD6F
:102B40000024069B012B3FF4C4AD022B09D1009B4E
:102B50005A1E0EAB0EA953F82230C3F3150341F8E9
:102B60002230022D7FF4E2AD32463B4600204F4931
:102B700014F026F906460F46002C3FF4D7ADC7E502
:102B80000099013399427FF473AD069B002BD8DC8A
:102B9000022D7FF4CBAD32463B460020434914F072
:102BA0000FF906460F46C1E50123ECE53946069FBD
:102BB00003957A423046CDF8248000F05DFD002276
:102BC0003B4B04460D4614F035FD002843D000224F
:102BD000384B2046294614F0A7FA14F055FD064656
:102BE00014F03CFA0022324B14F09EFA02460B46D7
:102BF0002046294614F0E4F814F046FD00990B46EF
:102C000001331A4600933B46183306930B460EA930
:102C100041F82300134641F8236027E6089B02464B
:102C2000C3E900010B46D4E9000114F0C9F8009B88
:102C3000002B3FF730AF089BC3E902013DE7D4E921
:102C40000067D4E90223089DC5E90401C5E90067CE
:102C5000C5E90223FAE62946204614F015FD009A3C
:102C60000EA941F8220001E64AAC00200021D8E676
:102C7000A49B032B3FF6EAAE01A252F823F000BF5B
:102C80009F2C0108972C0108972C0108692C01083A
:102C900001200023F2E4002000214AACE8E60020F5
:102CA00000211CE70A9BDB0000934CE40000F03F8E
:102CB000000070410000703E2DE9F04F21F0004609
:102CC000B6F1795F85B004460D469046994604DA20
:102CD00014F0DAFC002800F0858022462B462046BE
:102CE000294614F021FA06460F4602460B462046B6
:102CF000294614F019FA41A3D3E9002382468B46F2
:102D00003046394614F010FA3EA3D3E9002314F0FC
:102D100057F832463B4614F007FA3CA3D3E90023A8
:102D200014F050F832463B4614F0FEF939A3D3E9CB
:102D3000002314F045F832463B4614F0F5F937A36A
:102D4000D3E9002314F03EF80E9BCDE900019BB3BC
:102D50000022294B4046494614F0E6F9DDE90023FC
:102D6000CDE902015046594614F0DEF902460B4601
:102D7000DDE9020114F024F832463B4614F0D4F9A0
:102D800042464B4614F01CF819A3D3E9002306462B
:102D90000F465046594614F0C7F902460B463046D6
:102DA000394614F00FF802460B462046294614F027
:102DB00007F805B0BDE8F08F02460B4630463946AD
:102DC00014F0B2F90AA3D3E9002313F0F9FF524635
:102DD0005B4614F0A9F922462B4613F0F3FF05B029
:102DE000BDE8F08F2046294605B0BDE8F08F00BF52
:102DF000495555555555C53F0000E03F7CD5CF5A44
:102E00003AD9E53DEB9C2B8AE6E55A3E7DFEB1576B
:102E1000E31DC73ED561C119A0012A3FA6F81011D4
:102E20001111813F000000002DE9F04FBE4C21F050
:102E3000004687B0A64282468B460F46CDE9002366
:102E40001BDC14F021FC002837D153461E43109B95
:102E50000133334300F0B381109B012B00F0C88194
:102E600052465B460020B14914F088FA04460D46EC
:102E70002046294607B0BDE8F08FAD4B9E421CDDD1
:102E80000029C0F2A98152465B4687A1D1E9000121
:102E900013F096FFDDE9002304460D4684A1D1E935
:102EA000000113F08DFF9FED847B22462B468DEDB4
:102EB000007B13F087FF82468B4652465B465046A6
:102EC000594614F031F902460B468046894614F003
:102ED0002BF9424604460D464B465046594614F0DF
:102EE00023F977A3D3E90023CDE90201204629463F
:102EF00014F01AF974A3D3E9002313F063FF2246F8
:102F00002B4614F011F972A3D3E9002313F05AFFF2
:102F100022462B4614F008F96FA3D3E9002313F0DF
:102F200051FF22462B4614F0FFF86DA3D3E900238E
:102F300013F048FF22462B4614F0F6F86AA3D3E9B3
:102F4000002313F03FFF42464B4614F0EDF868A310
:102F5000D3E90023CDE904012046294614F0E4F822
:102F600065A3D3E9002313F02DFF22462B4614F06E
:102F7000DBF863A3D3E9002313F024FF22462B469A
:102F800014F0D2F860A3D3E9002313F01BFF22460C
:102F90002B4614F0C9F85EA3D3E9002313F012FF07
:102FA00022462B4614F0C0F85BA3D3E9002313F0AC
:102FB00009FF02460B46DDE9040113F003FFDDE9DA
:102FC000022314F0B1F8DDE9004522462B4613F048
:102FD000F9FE42464B4614F0A7F802460B4620463F
:102FE000294613F0EFFE4EA3D3E9002304460D4615
:102FF000DDE9020114F098F822462B4613F0E2FEB8
:103000000B460246804689465046594613F0DAFE82
:10301000474B9E4204460D4600F38E80109B012BC9
:103020003BD002460B460020404914F0A7F900248B
:1030300006460F462046294652465B46CDE90067C4
:10304000CDE90201009413F0BBFEDDE900AB0246BE
:103050000B464046494613F0B3FE52465B4614F019
:1030600063F8524604460D465B46DDE9020114F062
:103070005BF800222F4B13F0A5FE02460B462046BC
:10308000294613F09FFE32463B4614F04DF8524657
:103090005B4613F097FE04460D462046294607B0CE
:1030A000BDE8F08FAFF30080182D4454FB21E93FB9
:1030B000075C143326A6813C0000000000000000DD
:1030C000D47ABF74702AFB3EE9A7F0320FB8123FE2
:1030D00068108D1AF726303F1583E0FEC8DB573F96
:1030E00093846EE9E326823FFE41B31BBAA1AB3F56
:1030F000735360DBCB75F3BEA69237A0887E143F76
:103100000165F2F2D844433F280356C9226D6D3F52
:1031100037D60684F464963F7AFE10111111C13F30
:10312000635555555555D53FFFFF2F3E0000F0BF65
:103130002794E53F0000F03F109813F08FFF2246E0
:10314000CDE900012B462046294613F0EDFFDDE9CD
:103150000023CDE902012046294613F033FE024642
:103160000B46DDE9020114F009F942464B4613F023
:1031700027FE02460B465046594613F021FE0246F2
:103180000B4613F01FFE02460B46DDE9000113F06B
:1031900017FE0446B81700F00200C0F101000D460A
:1031A00013F05CFF02460B462046294613F0BCFF95
:1031B00004460D462046294607B0BDE8F08F50462C
:1031C000594614F029FD02460B4600200A4914F026
:1031D000D5F804460D4660E7DDE9004501F1004100
:1031E000224605F1004382468B46CDE900234AE69C
:1031F00054465D4651E700BF0000F03F000000006C
:103200002DE9F04FD24A21F00043934285B0824627
:103210008B460C462DD9CF4A93421AD8002C80F207
:103220001681B5A3D3E900235046594613F0CAFDD1
:103230000022002314F0EAF9C0B9B1A3D3E90023B6
:103240005046594613F070FF02460B460020C24913
:1032500008E1C24A934240F2D0800346C1F3130210
:10326000134340F0F481002980F2C4800020BC495F
:10327000C0E0BC4A934200F22981BB4A934240F22B
:10328000DE80002301930022B84B5046594613F0CC
:103290004BFF06460F4602460B465046594613F072
:1032A00043FF99A3D3E9002304460D4613F03CFFE6
:1032B00097A3D3E9002313F085FD22462B4613F094
:1032C00033FF95A3D3E9002313F07AFD22462B4662
:1032D00013F02AFF92A3D3E9002313F073FD2246D3
:1032E0002B4613F021FF90A3D3E9002313F068FDD0
:1032F00022462B4613F018FF00229D4B13F062FD6F
:103300008046894602460B463046394613F00CFF8C
:1033100002460B460020974913F052FD064602462E
:103320000B460F464046494613F04AFD324680465A
:1033300089463B465046594613F0F6FE02460B4678
:1033400000208D4913F03CFD02460B46404649469D
:1033500014F014F822462B4613F0E6FE019E0246B6
:103360000B46002E38D0DDE9026732463B4613F0AB
:1033700027FD52465B4613F0D7FE32463B4613F01C
:103380001FFD2B46224613F01BFD019B0133064611
:103390000F4600F00F81019B012B00F0F180019B93
:1033A0000133392B39D8019B132B40F31281019C37
:1033B000C4F57F75033500222B0513F003FD02468B
:1033C0000B465046594613F0FBFC0022684B13F0A5
:1033D000F9FC01EB04510DE05046594613F0A4FEF0
:1033E00022462B4613F0ECFC02460B46504659464B
:1033F00013F0E6FC05B0BDE8F08F4DA3D3E9002340
:1034000014F022F900283FF409AF4BA3D3E90023BD
:103410001046194613F088FEECE752465B4613F05F
:10342000CFFC02460B460020514913F0C9FC019A1B
:103430004F4B01EB0251002213F0C2FCDAE73EA32E
:10344000D3E9002313F0BEFC02460B46CAE72CA3C7
:10345000D3E900235046594613F066FE0B46434914
:103460000246002013F0AEFC14F00EF9019013F0A8
:10347000F5FD33A3D3E9002306460F4613F054FEAF
:1034800002460B465046594613F09AFC2EA3D3E948
:103490000023804689463046394613F045FE0646ED
:1034A0000F4632463B464046494613F089FC0246E9
:1034B0000B4682468B464046494613F081FC324615
:1034C0003B4613F07DFCCDE90201DCE62B4A93423A
:1034D00000F2958000291AA3D3E90023C0F2AC8042
:1034E00013F06EFC012380468946019316A7D7E9A5
:1034F0000067D6E7AFF3008059F3F8C21F6EA5014D
:10350000FE822B654715F73F2DC3096EB7FD8ABEB6
:103510003952E686CACFD03EB7DBAA9E19CE143FF9
:103520008555FE19A0015A3FF41011111111A13F48
:10353000EF39FAFE422E86409C7500883CE4377EC7
:103540000000E0FE422EE63F763C7935EF39EA3D59
:1035500079684340412E86400000E0BFFFFFEF7FC7
:103560000000F0BF422ED63FFFFF8F3C0000E03F3F
:103570000000F03F0000084000001840B1A2F03FFA
:103580000022394B5046594614F040F8002844D0E8
:10359000504659460022354B13F014FC02460B46A8
:1035A0003046394613F00CFC00224FF0404313F034
:1035B000BBFD1FE702460B465046594613F000FC80
:1035C00000222A4B13F0B0FD0022284B13F0F8FB29
:1035D00010E7019C4FF400132341C3F17F5752467B
:1035E0005B4613F0EDFB002607F5401702460B463D
:1035F0003046394613F0E4FB01EB0451FAE616A31A
:10360000D3E9002313F090FD002C02460B464FF047
:103610000000FFF61CAE154924E732463B465046F3
:10362000594613F0CDFB02460B4613F0CBFB0022AC
:103630000F4B13F0C7FBDDE613F0C4FB4FF0FF3375
:1036400080468946019306A7D7E9006729E7024625
:103650000B4613F0B7FBCDE6FE822B654715F73F0F
:10366000763C7935EF39EABD0000D0BF0000E03F7D
:103670000000F03F00000000F8B5C1F30A56044610
:103680000D460B4617460EBB21F00043034386460A
:1036900025D00022344B13F047FD344A97420446AC
:1036A0000D460B462ADBC1F30A56363E3E4440F235
:1036B000FE72964228DC002E12DD23F0FF4323F435
:1036C000E00343EA065520462946F8BD40F2FF7262
:1036D0009642EBD102460B4613F074FBF8BDF8BDE1
:1036E00016F1350F1DDA4CF250339F4222462B461D
:1036F00025DC19A1D1E9000116F050F916A3D3E990
:10370000002313F011FDF8BD22462B4614A1D1E988
:10371000000116F043F912A3D3E9002313F004FDCE
:10372000F8BD23F0FF4323F4E003363643EA0655A1
:103730002046294600220E4B13F0F6FCF8BD08A1E6
:10374000D1E9000116F02AF905A3D3E9002313F00B
:10375000EBFCF8BDAFF3008059F3F8C21F6EA50172
:103760009C7500883CE4377E00005043B03CFFFF6E
:103770000000903C10B5054C237833B9044B13B1CD
:103780000448AFF300800123237010BDC004002063
:1037900000000000F0C402080C4B43B10C480D4976
:1037A00010B5AFF300800C48036823B910BD0A4878
:1037B000036833B97047094B002BF7D0BDE81040C0
:1037C0001847064B002BF5D0184700BF000000003B
:1037D000F0C40208C40400203004002000000000EF
:1037E000154B002B08BF134B9D46A3F5803A0021D3
:1037F0008B460F461348144A121A07F0D3F90F4BA1
:10380000002B00D098470E4B002B00D0984700208B
:10381000002104000D000D48002802D00C480EF0D5
:10382000E9F816F029FA200029000EF0C3F80EF08E
:10383000DDF800BF0000080000800220000000004A
:10384000A519020838040020C0330020F519020829
:1038500000000000F0B5214D2C6883B014B1204663
:1038600003B0F0BD4FF49C700EF0C6F84FF0FF317E
:103870000646032001F042FC00B204F079F84FF054
:10388000FF310746022001F039FC00B204F070F865
:103890003946024606F1DC0730460AF043FE23466D
:1038A0002246384601210AF0D9FC4FF0FF310120B1
:1038B00001F024FC00B204F05BF898244FF0050EF0
:1038C00002468DE810403B46314606F1E40007F021
:1038D000D1FD344620462E6003B0F0BDDC0400204C
:1038E0002DE9F04104460F46FFF7B4FF00F1E4056F
:1038F0000646284607F0DCFD082C0BD0A4F109038E
:10390000012B15D93A46214610230D20BDE8F04180
:1039100003F012BFD6F8E43028469B6A9847022885
:10392000F0DCD6F8E43028465B6A04219847E9E7E2
:10393000D6F8E43028469B6A98470528E2DCD6F89A
:10394000E43028465B6A08219847DBE710B52DED87
:10395000028BFFF77FFF00F1E404204609F0FAFA3A
:1039600007EE900A2046F8EEE78A09F001FB07EE21
:10397000900A2046B8EEE78A09F008FB68EE087A5C
:1039800007EE100AE8EEA87AB8EEC77AE7EE077AF3
:10399000F5EE407AF1EE10FAB1EEE78A03D517EEB4
:1039A000900A14F085FEFDEEC87ABDEC028B17EE8E
:1039B000900A10BD08B503281CD8DFE800F0140DEC
:1039C0000602BDE80840FFF7C1BFFFF743FFBDE8AF
:1039D0000840E43009F0DABAFFF73CFFBDE80840E0
:1039E000E43009F0C5BAFFF735FFBDE80840E43020
:1039F00009F0B0BA002008BD08B550B1012806D1C1
:103A0000FFF728FFBDE80840E430FBF765B8002069
:103A100008BDFFF71FFFBDE80840E430FBF73CB8E6
:103A200010B50446FFF716FF2146E430BDE810400C
:103A300009F0A8B808B501F089FCFBF7F1FDBDE875
:103A4000084001F0EDB900BF08B501F07FFCFBF7BD
:103A500057FEBDE8084001F0E3B900BF08B501F02A
:103A600075FC14F04FF9BDE8084001F0D9B900BF6A
:103A700008B501F06BFC14F057FDBDE8084001F0FB
:103A8000CFB900BF08B501F061FCFBF7D9FDBDE877
:103A9000084001F0C5B900BF08B501F057FC14F0AB
:103AA0006FFBBDE8084001F0BBB900BF08B501F0ED
:103AB0004DFCFBF731F8BDE8084001F0B1B900BF9B
:103AC00008B501F043FC14F0AFFABDE8084001F07E
