:020000040800F2
:10E0000000800220791C0208F9810208F9810208C7
:10E01000F9810208F9810208F98102080000000074
:10E0200000000000000000000000000081D801088E
:10E03000F98102080000000027D9010887D90108EA
:10E04000F9810208F9810208F9810208F9810208C0
:10E05000F9810208F9810208F9810208F9810208B0
:10E06000F9810208F9810208F9810208F9810208A0
:10E07000F9810208F9810208F9810208F981020890
:10E08000F9810208F9810208F98102088DE9010885
:10E0900079E80108F981020891E90108F98102088B
:10E0A000F9810208F9810208F9810208F981020860
:10E0B000F9810208F981020800000000F9810208D4
:10E0C000F9810208F9810208F9810208F981020840
:10E0D000F9810208F9810208F9810208F981020830
:10E0E000F9810208F9810208000000000000000028
:10E0F0000000000000000000000000000000000020
:10E1000000000000F981020800000000F981020807
:10E11000F981020800000000F981020800000000F7
:10E12000F9810208F9810208F9810208F9810208DF
:10E13000F9810208F9810208F98102080000000053
:10E14000F9810208F9810208F9810208F9810208BF
:10E15000F9810208F9810208F9810208F9810208AF
:10E16000F9810208F9810208F98102080000000023
:10E1700000000000F981020800000000000000001B
:10E18000F9810208F9810208F9810208F98102087F
:10E19000F9810208000000002DE9F04F0378202BE0
:10E1A00083B00446894603D114F8013F202BFBD0ED
:10E1B0002B2B08BF013494F800E0BEF12D0F00F0C6
:10E1C00086809FED577BBEF1300F8DED007B00F018
:10E1D0008A80BEF1000F00F09D80002600274FF0DE
:10E1E000000ADFF84CB14FF000081CE017F044F9CA
:10E1F00006460F46284617F0D9F832463B4616F039
:10E2000089FF524606460F465B46DDE90001B8F13C
:10E21000000F03D017F05AFACDE9000114F801EF0E
:10E22000BEF1000F14D0AEF13005092D52465B4609
:10E2300030463946DAD9B8F1000F18D1BEF12E0FA9
:10E2400015D114F801EF4FF00108BEF1000FEAD12B
:10E2500032463B46DDE9000117F00EF906460F464F
:10E26000C9F800403046394603B0BDE8F08F0EF0E3
:10E27000DF0EBEF1450F08D02378202B03D114F810
:10E28000013F202BFBD0002B41D1DDE9002330469C
:10E29000394617F0F1F8237806460F46002BDFD0F9
:10E2A0004946601C0A2219F0A9FE214902460020B5
:10E2B00017F042FC02460B463046394617F0DCF8B0
:10E2C00006460F463046394603B0BDE8F08F94F855
:10E2D00001E09FED157BBEF1300F8DED007B04F169
:10E2E00001047FF476AF637843F02003782B7FF44A
:10E2F00074AF10224946204619F080FE17F056F8F8
:10E30000DDE9002317F0B8F806460F46AAE7002615
:10E31000084FA7E7002600279AE700BFAFF3008069
:10E32000000000000000F03F000000000000F0BF0F
:10E33000000024400000F87F2DE9F04F002383B057
:10E340001446002206460F4617F008FB002876D137
:10E35000002200233046394617F0F6FA30B1302259
:10E3600000232270637003B0BDE8F08F3046394659
:10E3700018F0DCF917F030FB4CA3D3E90023054675
:10E3800001903946304617F0FDFA00285ED1019A17
:10E390004549002017F0D0FB02460B46304639466F
:10E3A00017F094F9012506460F46DFF8FC904FF070
:10E3B000000A4FF000083946304617F00DFB00F117
:10E3C00030032370834616F0F1FF02460B463046B9
:10E3D000394616F09DFE4B46424617F04DF8013D7A
:10E3E00004BF2E23637006460F4614BF0134023467
:10E3F000BAF1000F06D1BBF1000F0CBFDA464FF0A7
:10E40000010AD8E70AF1010ABAF1100FD3DD002D95
:10E41000D1DC14F8013C302B04F1FF3403D114F8A3
:10E42000013D302BFBD001982E2B08BF04F1FF34A7
:10E43000012827D10023637003B0BDE8F08F07F1F6
:10E4400000431F462D232370013481E714A3D3E931
:10E4500000233046394617F081FA002897D0002D66
:10E4600018DD2A460020104917F066FB0B460246CD
:10E470003946304617F02AF90123013506460F4682
:10E48000019392E76523A11C637003B0BDE8F04FD0
:10E490000BF05CBD0125019587E700BFAFF300805D
:10E4A00050EFE2D6E41A4B44000024408DEDB5A0B5
:10E4B000F7C6B03E0000000070B54FF0FF3005F029
:10E4C00035FD04466FF07F4005F030FD06462046DE
:10E4D00016F05CFF00220C4B16F0CEFF04463046CF
:10E4E0000D4616F053FF06A3D3E9002317F0EEF80C
:10E4F00002460B462046294616F00CFE70BD00BFB2
:10E500000000E0DFFFFF6F430000F03D000000006F
:10E510002DE9F843044600F17C060BF039FB074671
:10E520000BF03CFB304610F02FF82369C51A30463B
:10E5300010F02AF894F82430C117C4E90401042B20
:10E5400042D8DFE803F0499965800300032384F88B
:10E550002430284616F02AFF6EA3D3E90023804614
:10E56000894617F019FA48B16CA3D3E90023404655
:10E57000494617F0F3F9002840F0AA8069A3D3E9CF
:10E5800000234046494617F007FA48B1404649463D
:10E5900066A3D3E9002317F0E1F9002840F09C803E
:10E5A000226AE36901320021226284F82410202BC0
:10E5B0000DD1A3696FEA1322D2B2D9B2914200F011
:10E5C0009480236A01332362002384F82430FB07FC
:10E5D00000D462B6BDE8F883284616F0E7FE55A3DE
:10E5E000D3E900238046894617F0D6F90028EED0FB
:10E5F0004046494651A3D3E9002317F0AFF900285C
:10E60000E5D00023012284F82420A361E361DEE742
:10E61000284616F0CBFE3FA3D3E900238046894667
:10E6200017F0BAF940B1404649463CA3D3E900236C
:10E6300017F094F90028CAD1236A0022013323621B
:10E6400084F82420C3E7284616F0B0FE31A3D3E9AE
:10E6500000238046894617F09FF90028ECD04046F9
:10E6600049462EA3D3E9002317F078F90028E3D018
:10E67000042384F82430AAE7284616F097FE31A335
:10E68000D3E900238046894617F086F938B12FA3D5
:10E69000D3E900234046494617F060F9A0B90022AB
:10E6A0001B4B4046494617F077F90028C4D0404636
:10E6B000494615A3D3E9002317F050F90028BBD031
:10E6C000022384F8243082E7032384F824307EE791
:10E6D000E3690133E3616AE7E369A26901219940D3
:10E6E0000A430133E361A26161E76FEA1362D2B2C8
:10E6F000C3F3074393427FF464AF84F8DC30A36A2A
:10E70000984761E7AFF30080000000000018A540C3
:10E7100000209C409A99999999197C40333333335E
:10E72000331385409A99999999199540666666665A
:10E7300066A69F40000000000020BC4000000000D2
:10E740000018C540000000000020AC4000000000A0
:10E750000018B5400000000030B52D4B8DB01A6890
:10E760000092009A120205D4009A42F4000200922C
:10E77000009A1A60274A284B126801921B6802937C
:10E780000DF05EF816F012FECDE90401019B9BB27C
:10E790000193029B9BB20293DDE904011AA3D3E922
:10E7A000002316F069FE1D4B0022CDE90401CDE9DE
:10E7B00006230298019BC01A16F0E8FDCDE9080176
:10E7C000DDE90445019816F0E1FD02460B462046BE
:10E7D000294616F09DFCCDE90A01DDE90601DDE9D7
:10E7E0000823DDE90A4516F071FF22462B4616F094
:10E7F00043FE00220A4B16F08DFC17F015F903902A
:10E8000003980DB030BD00BF9A9999999999F13F3D
:10E8100008030450A875FF1FCA75FF1F000054406D
:10E8200000003E400000000008B50CF021FEDFEDC6
:10E830000C7A07EE100A67EE277A17EE900A16F0A8
:10E84000C7FD05A3D3E9002316F040FF17F0C4F875
:10E8500008BD00BFAFF30080EA2E4454FB211940ED
:10E860000000B4430000000008B50CF015FEDFED19
:10E870000C7A07EE100A67EE277A17EE900A16F068
:10E88000A7FD05A3D3E9002316F020FF17F0A4F895
:10E8900008BD00BFAFF30080EA2E4454FB211940AD
:10E8A0000000B44300000000494A21F000439342B5
:10E8B0002DE9704304460D464BDC464A93420E4612
:10E8C0000EDC3FA3D3E9002316F024FC0022424BC8
:10E8D00017F062F800284CD020462946BDE8708326
:10E8E0003E4A93423BDCB3F1804F42DD17F018FB08
:10E8F0002246804689462B462046294616F0BCFD16
:10E900000022354B16F006FC18F0CEF902460B46F5
:10E910004046494616F0FEFB02460B4600202E49B3
:10E9200016F0D4FE424604460D464B464046494644
:10E9300016F0F0FB02460B462046294616F0EAFB8D
:10E9400002F06AF8002EC9DC01F100431946BDE867
:10E95000708302460B4616F0DDFBBDE8708317F0AE
:10E96000DFFA02F059F818A3D3E9002316F0D2FB1E
:10E97000E8E722462B462046294616F07DFD8046D4
:10E9800089462046294617F0CBFA002204460D4658
:10E99000114B4046494616F0BDFB18F085F90022A0
:10E9A0000D4B16F0B7FB02460B464046494616F0A3
:10E9B0008DFE22462B4616F0ADFB00F0C5FAC1E7EE
:10E9C0009C7500883CE4377EEF39FAFE422EE63F24
:10E9D000FFFFEF7FFFFF2F3E0000F03F0000B04140
:10E9E0002DE9F84FC44B21F000469E4204460D46E7
:10E9F0008A460EDDC14B9E4200F3AC8000F0A7803A
:10EA0000BAF1000F40F3EA809FA1D1E90001BDE80F
:10EA1000F88FBB4B9E4200F3B580A3F1DE739E429C
:10EA200040F3A0804FF0FF3B22462B46204629466C
:10EA300016F022FD02460B468046894616F01CFD64
:10EA400093A3D3E9002306460F4616F015FD92A3C3
:10EA5000D3E9002316F05EFB32463B4616F00CFD70
:10EA60008FA3D3E9002316F055FB32463B4616F040
:10EA700003FD8DA3D3E9002316F04CFB32463B4641
:10EA800016F0FAFC8AA3D3E9002316F043FB3246C2
:10EA90003B4616F0F1FC88A3D3E9002316F03AFBBD
:10EAA00042464B4616F0E8FC85A3D3E90023804696
:10EAB00089463046394616F0DFFC83A3D3E90023AC
:10EAC00016F026FB32463B4616F0D6FC80A3D3E96F
:10EAD000002316F01DFB32463B4616F0CDFC7EA30C
:10EAE000D3E9002316F014FB32463B4616F0C4FC73
:10EAF0007BA3D3E9002316F00BFB32463B4616F00E
:10EB0000BBFCBBF1FF3F02460B466CD0404649467A
:10EB100016F000FB22462B4616F0AEFC794E7A4BDF
:10EB20004FEACB0B5E449B44DBE9002316F0F0FA7E
:10EB300022462B4616F0ECFA02460B46D6E90001B7
:10EB400016F0E6FABAF1000F43DBBDE8F88F0028B3
:10EB50003FF456AF22462B462046294616F0DAFAF5
:10EB6000BDE8F88F60A3D3E9002316F0D3FA0022A2
:10EB7000664B16F011FF00283FF454AF204629469B
:10EB8000BDE8F88F17F0CCF9614B9E4204460D4664
:10EB900039DCA3F550239E425EDC02460B4616F09C
:10EBA000B9FA0022594B16F0B3FA002206460F4676
:10EBB0004FF080432046294616F0ACFA02460B4639
:10EBC0003046394616F082FD4FF0000B04460D46E4
:10EBD0002AE701F100431946BDE8F88F44A1D1E9C5
:10EBE0000001BDE8F88F4046494616F093FA2246E8
:10EBF0002B4616F041FC02460B462046294616F0ED
:10EC000087FABDE8F88F434B9E421ADC0022424B44
:10EC100016F07EFA002206460F463F4B2046294654
:10EC200016F02AFC0022394B16F074FA02460B4605
:10EC30003046394616F04AFD4FF0020B04460D46A9
:10EC4000F2E602460B460020344916F03FFD4FF035
:10EC5000030B04460D46E7E600222C4B16F058FA4B
:10EC6000002206460F46294B2046294616F052FA46
:10EC700002460B463046394616F028FD4FF0010B90
:10EC800004460D46D0E600BF182D4454FB21F93F41
:10EC900011DA22E33AAD903FEB0D76244B7BA93F8E
:10ECA000513DD0A0660DB13F6E204CC5CD45B73F5C
:10ECB000FF8300922449C23F0D5555555555D53F08
:10ECC0002F6C6A2C44B4A2BF9AFDDE522DDEAD3FFC
:10ECD0006D9A74AFF2B0B33F711623FEC671BC3F9C
:10ECE000C4EB98999999C93F9C7500883CE4377E9C
:10ECF000182D4454FB21F9BFFFFF0F440000F07FA3
:10ED0000FFFFDB3FC08A0208E08A02080000F03FF4
:10ED1000FFFFF23FFF7F03400000F83F0000F0BF1D
:10ED20002DE9F843C1F30A59A9F2FF35132D024624
:10ED30000B460C4606468846074622DC002D50DB73
:10ED4000DFF8F09049FA05F901EA090E5EEA0606D5
:10ED50001CD036A3D3E9002316F0DCF900220023EF
:10ED600016F01AFE48B1002C04DD4FF4801343FA6C
:10ED700005F5A84428EA0904002721463846BDE8DD
:10ED8000F883332D06DDB5F5806F3DD0104619466A
:10ED9000BDE8F883A9F213494FF0FF3E2EFA09F9B6
:10EDA00010EA090FF2D021A3D3E9002316F0B2F93B
:10EDB0000022002316F0F0FD0028DED0002C09DD33
:10EDC000142D2BD00127C5F1340507FA05F5AE192E
:10EDD00028BFB844444626EA090721463846BDE81C
:10EDE000F88312A3D3E9002316F094F9002200233C
:10EDF00016F0D2FD0028C0D0002C0BDB54EA060729
:10EE000006D00027084CB8E716F084F9BDE8F8836F
:10EE10003C46B2E700274FF00044AEE704F101089A
:10EE2000D8E700BFAFF300800000F03F9C7500887A
:10EE30003CE4377EFFFF0F002DE9F041C1F30A5794
:10EE4000A7F2FF35132D02460B460C4688460646B0
:10EE50001CDC002D3FDB3A4F2F41864601EA070CB0
:10EE60005CEA0E0E17D034A3D3E9002316F052F952
:10EE70000022002316F090FD20B1002C3FDB28EA91
:10EE80000704002621463046BDE8F081332D06DD1B
:10EE9000B5F5806F2FD010461946BDE8F081A7F276
:10EEA00013474FF0FF3E2EFA07F73842F3D022A364
:10EEB000D3E9002316F02EF90022002316F06CFD92
:10EEC0000028DFD0002C20DB444626EA0706214636
:10EED0003046BDE8F08118A3D3E9002316F01AF9F3
:10EEE0000022002316F058FD0028CBD0002C17DBA1
:10EEF00000263446C6E716F00DF9BDE8F0814FF460
:10EF0000801343FA05F5A844B9E7142D10D0012366
:10EF1000C5F1340503FA05F5AE1928BF9844D3E7C7
:10EF200024F00042074B324318BF1C460026A9E7D5
:10EF300004F10108C8E700BF9C7500883CE4377EF7
:10EF4000FFFF0F000000F0BF2DE9F04FD84B9942B2
:10EF500087B0804689460E4613DCD64B21F000442C
:10EF60009C4218DD0022D44B16F0EEFC002879D02C
:10EF7000002200230020D14916F0A8FB07B0BDE80D
:10EF8000F08FCF4B99422FDD42464B4616F0C2F828
:10EF900007B0BDE8F08FCB4B9C4270DDCA4B1E44DE
:10EFA0009E427ED80022C94B4046494616F0B2F830
:10EFB0004FEA215AAAF2FF3ABAF1000F04460D4671
:10EFC0000E4640F3DE8142464B4616F0A1F802465B
:10EFD0000B460020BD4916F09BF822462B4616F042
:10EFE00075FBCDE902010BE0B94B9E42DADD9FEDE6
:10EFF0009A7B8DED027B4FEA265A4446AAF2FF3AED
:10F00000B44BC6F313069E4246F07F5500F3E780EB
:10F0100045F44015204629460022AC4B16F078F8FE
:10F02000002204460D46AC4B16F026FA22462B462B
:10F0300016F022FAA046CDE90401A946CDE9000167
:10F04000002E3AD1002200232046294616F07CFCEF
:10F05000002800F0CE80BAF1000F40F0748100204B
:10F06000002195E742464B464046314616F050F89F
:10F0700002460B4616F02AFB07B0BDE8F08F0022CF
:10F08000964B16F047F80022002316F085FC002866
:10F0900000F0CC80924B9C4200F3C8804046494629
:10F0A00076E700228C4B16F0E7F942464B4616F005
:10F0B000E3F9CDE900014FF0000A00224FF0804350
:10F0C0004046494616F026F802460B464046494659
:10F0D00016F0FCFA02460B4606460F4616F0CCF92F
:10F0E0005FA3D3E9002304460D4616F0C5F95EA3DD
:10F0F000D3E9002316F00EF822462B4616F0BCF991
:10F100005BA3D3E9002316F005F822462B4616F040
:10F11000B3F959A3D3E9002315F0FCFF22462B468F
:10F1200016F0AAF956A3D3E9002315F0F3FF2246FF
:10F130002B4616F0A1F954A3D3E9002315F0EAFFFA
:10F1400022462B4616F098F951A3D3E9002315F077
:10F15000E1FF22462B4616F08FF904460D46BAF120
:10F16000000F00F0BF80504616F020F94AA3D3E903
:10F17000002382468B4616F07FF9DDE90023CDE9B6
:10F1800004012046294615F0C5FF32463B4616F0DD
:10F1900073F943A3D3E9002304460D46504659466C
:10F1A00016F06AF9DDE9022315F0B4FF02460B46BA
:10F1B0002046294615F0AEFF02460B46DDE9000168
:10F1C00015F0A6FF42464B4615F0A2FF02460B463D
:10F1D000DDE9040115F09CFF07B0BDE8F08F45F4B0
:10F1E0000015C6F5801620462946B6100AF1010A18
:10F1F00012E72DA3D3E900232046294616F03CF957
:10F2000002460B460020314915F082FFDDE9042358
:10F2100016F032F906460F46BAF1000F73D10246D6
:10F220000B462046294615F073FFB1E642464B4691
:10F230004046494616F020F90022274B16F01CF9EB
:10F2400002460B464046494615F062FF07B0BDE84E
:10F25000F08F00BFAFF3008000000000000000004E
:10F2600044523EDF12F1C23F9FC678D0099AC33F95
:10F27000DE03CB966446C73FAF788E1DC571CC3F89
:10F28000599322942449D23F04FA97999999D93FE6
:10F29000935555555555E53F0000E0FE422EE63F9B
:10F2A000763C7935EF39EA3D555555555555E53F8D
:10F2B0007982DA3FFFFFEF3F0000F0BF000050C34C
:10F2C000FFFFEF7FFFFF1F3E3C412D400000F03F5E
:10F2D000FFFF3F439DA006000000E03F00005043B9
:10F2E000FFFF8F3CDDE9004522462B4615F012FF5B
:10F2F00032463B4616F0C0F802460B4620462946E9
:10F3000015F006FF9CE7504616F050F823A3D3E90A
:10F31000002382468B4616F0AFF822A3D3E90023E0
:10F32000804689465046594616F0A6F8DDE9022384
:10F3300015F0F0FE02460B463046394615F0E8FE61
:10F3400022462B46DCE7504616F030F815A3D3E9E9
:10F35000002306460F4616F08FF8DDE9022315F06C
:10F36000D9FE0EA3D3E9002304460D4630463946A4
:10F3700016F082F802460B462046294615F0CAFED2
:10F3800006E60022044B15F0C3FE02460B4640463B
:10F39000494615F0BDFE20E60000F03F0000E0FE0B
:10F3A000422EE63F763C7935EF39EA3D0000000019
:10F3B00008B517F03BF904A3D3E9002316F086F94A
:10F3C00008BD00BFAFF30080EF39FAFE422EE63FE2
:10F3D0002DE9F043DFF8B4808BB004460D4601F010
:10F3E000F3F898F90030013306460F462BD0224639
:10F3F0002B462046294616F0D9FA814618BB2046EE
:10F40000294616F08DFD1FA3D3E9002316F0C4FA98
:10F41000C8B1194A98F90030CDF820900321CDE900
:10F420000445CDE902458DE806008BB9134B4FF03A
:10F430006042CDE90623684618F0C4FA70B1089B13
:10F440009BB9DDE90667304639460BB0BDE8F0836D
:10F450000B490020022BCDE90601ECD118F030FC5D
:10F4600022230360089B002BEBD018F029FC089B9B
:10F470000360E6E7AFF30080A89D0208FFFFEF47B7
:10F480000000F07F7DF8B98FCE3386400204002063
:10F490002DE9F043DFF8E4808BB004460D4601F01F
:10F4A00043F998F90030013306460F4633D0204621
:10F4B000294618F081FA70B32CA3D3E90023204623
:10F4C000294616F069FA814650BB2AA3D3E90023E6
:10F4D0002046294616F042FAE8B198F90030204A51
:10F4E000CDF82090002600270421022BCDE9044509
:10F4F000CDE90245CDE906678DE8060029D06846CA
:10F5000018F060FA28B3089B1BB118F0D9FB089BD0
:10F510000360DDE90667304639460BB0BDE8F0838D
:10F520000F4A98F90030019203210022CDE90445E9
:10F53000CDE90245009108922BB90A4B4FF0604289
:10F54000CDE90623DBE708490020022BCDE90601BF
:10F55000D5D118F0B5FB22230360D4E7AFF30080C8
:10F56000B09D0208FFFFEF470000F07FEF39FAFE81
:10F57000422E864051302DD5104987C0020400200C
:10F580002DE9F04FDFF80C938DB006460F46144678
:10F590001D4601F0C5FC99F90080B8F1FF3FCDE9A7
:10F5A000000136D022462B462046294616F0FEF9A9
:10F5B000834670BB32463B463046394616F0F6F974
:10F5C0008246002840F0A2803046394600220023BF
:10F5D00016F0BAF910B3002200232046294616F08F
:10F5E000B3F9834600286AD09FEDA17B0122A44B8A
:10F5F000CDF828A00292CDE90467CDE906458DED4E
:10F60000087B0393B8F1000F45D09FED9B7B8DEDF8
:10F61000007BDDE900010DB0BDE8F08FDDE9000100
:10F6200018F0CAF98046002800F08D804FF0000ADB
:10F630004FF0000BDDE9000152465B4616F084F9FD
:10F640000028E6D03046394618F0B6F90028E0D058
:10F650002046294618F0B0F90028DAD099F9003090
:10F66000874A039204210022022BCDE90467CDE9E9
:10F670000645CDE908AB02910A9203D002A818F022
:10F68000A1F968B918F01CFB2223036008E09FED84
:10F69000787B8DED087B02A818F094F9002830D013
:10F6A0000A9B1BB118F00CFB0A9B03609DED087BC5
:10F6B0008DED007BDDE900010DB0BDE8F08F204647
:10F6C000294618F079F90028A3D00022002320460B
:10F6D000294616F043F900289BD099F90030684A72
:10F6E000CDF828B00121CDE90467CDE906450291A6
:10F6F0000392002BCBD063490020022BCDE90801F7
:10F70000C9D118F0DDFA21230360C9E700220023E4
:10F710002046294616F018F900283FF47AAF5A4BD4
:10F720005749CDF828B000220120B8F1020FCDE9E9
:10F7300004670290CDE90645CDE908230391AAD1DB
:10F74000CDE9002365E73046394618F035F9002841
:10F750003FF46CAF2046294618F02EF900283FF4FC
:10F7600065AFDDE900231046194616F01FF90028A1
:10F770005FD1032399F900800293414B0A90CDE9B0
:10F780000467CDE906450393B8F1000F2BD1DFF8EC
:10F7900008B14FF0604A0022002330463946CDE9D7
:10F7A00008AB16F0DBF800283FF468AF0022374BB7
:10F7B0002046294615F060FE04460D4618F00AF969
:10F7C00002460B462046294616F0BEF870BB304B69
:10F7D00099F900804FF06042CDE90823B8F1020F9B
:10F7E0007FF44CAF4EE7DFF8B4B04FF0000A0022D0
:10F7F000002330463946CDE908AB16F0AFF80028B3
:10F80000ECD00022214B2046294615F035FE044657
:10F810000D4618F0DFF802460B462046294616F042
:10F8200093F818B9174B0022CDE9082399F9008005
:10F83000D4E799F90090124BCDF828800122CDE948
:10F840000467CDE9064502920393B9F1000F3FF436
:10F850001EAF002200231046194615F037FFB9F1FC
:10F86000020FCDE908013FF44CAF14E7AFF300807D
:10F870000000000000000000000000000000F03F59
:10F88000C89D02080000F0FF0000F03F0000E03FCC
:10F89000FFFFEFC702040020FFFFEF470000F07FEB
:10F8A0002DE9F84FC44E21F00043B34204460D4603
:10F8B0000DDD03F1404303F58013034340F0B980AD
:10F8C000002940F3408100200021BDE8F88FBB4EA5
:10F8D000B34240F3A6800029C0F2788102460B466D
:10F8E0000020B74915F014FC0022B64B15F0C4FDFA
:10F8F00004460D4617F0D8F995A3D3E900238946AD
:10F9000080462946204615F0B7FD93A3D3E900238E
:10F9100015F000FC22462B4615F0AEFD90A3D3E96E
:10F92000002315F0F5FB22462B4615F0A5FD8EA30E
:10F93000D3E9002315F0EEFB22462B4615F09CFD83
:10F940008BA3D3E9002315F0E3FB22462B4615F0E9
:10F9500093FD89A3D3E9002315F0DCFB22462B4657
:10F9600015F08AFD86A3D3E9002382468B46204604
:10F97000294615F081FD84A3D3E9002315F0C8FBC7
:10F9800022462B4615F078FD81A3D3E9002315F01C
:10F99000C1FB22462B4615F06FFD7FA3D3E9002360
:10F9A00015F0B6FB22462B4615F066FD0022844B6F
:10F9B00015F0B0FB02460B465046594615F086FE40
:10F9C00042464B4615F058FD002682468B4632468D
:10F9D0004B463046494615F04FFD02460B46204641
:10F9E000294615F095FB324604460D464B464046E7
:10F9F000494615F08FFB02460B462046294615F076
:10FA000065FE02460B465046594615F083FB3246CA
:10FA10004B4615F07FFB02460B4615F07BFBBDE81D
:10FA2000F88F694A93420EDC5DA1D1E90001BDE87F
:10FA3000F88F02460B4615F06BFB02460B4615F09D
:10FA400045FEBDE8F88F02460B4615F015FD40A3B4
:10FA5000D3E9002306460F4615F00EFD3EA3D3E979
:10FA6000002315F057FB32463B4615F005FD3CA33D
:10FA7000D3E9002315F04CFB32463B4615F0FCFC65
:10FA800039A3D3E9002315F045FB32463B4615F078
:10FA9000F3FC37A3D3E9002315F03AFB32463B468B
:10FAA00015F0EAFC34A3D3E9002315F033FB32460A
:10FAB0003B4615F0E1FC32A3D3E90023804689469A
:10FAC0003046394615F0D8FC2FA3D3E9002315F0B2
:10FAD0001FFB32463B4615F0CFFC2DA3D3E9002394
:10FAE00015F018FB32463B4615F0C6FC2AA3D3E9B5
:10FAF000002315F00DFB32463B4615F0BDFC0022FD
:10FB00002F4B15F007FB02460B464046494615F0C1
:10FB1000DDFD22462B4615F0AFFC02460B4622A126
:10FB2000D1E9000115F0F4FA02460B4620462946B9
:10FB300015F0EEFA02460B4619A1D1E9000115F0C5
:10FB4000E7FABDE8F88F1AA1D1E90001BDE8F88F06
:10FB500009F7FD0DE13D023F88B20175E0EF493F35
:10FB60003B8F68B52882A43F5544880E55C1C93FD4
:10FB70007D6FEB0312D6D43F555555555555C53FAE
:10FB800082922EB1C5B8B33F59018D1B6C06E63F7A
:10FB9000C88A599CE52A00404B2D8A1C273A03400D
:10FBA000182D4454FB21F93F075C143326A6913CE1
:10FBB000182D4454FB210940FFFFEF3FFFFFDF3FBB
:10FBC0000000F03F0000E03F0000603C00225C4B82
:10FBD00015F0A0FA00225B4B15F04EFC40A3D3E9D0
:10FBE000002304460D4615F047FC3FA3D3E900234C
:10FBF00015F090FA22462B4615F03EFC3CA3D3E9C3
:10FC0000002315F085FA22462B4615F035FC3AA361
:10FC1000D3E9002315F07EFA22462B4615F02CFC82
:10FC200037A3D3E9002315F073FA22462B4615F0CB
:10FC300023FC35A3D3E9002315F06CFA22462B46AA
:10FC400015F01AFC804689462046294617F02CF804
:10FC50002FA3D3E9002306460F462046294615F078
:10FC60000BFC2DA3D3E9002315F052FA22462B46B4
:10FC700015F002FC2AA3D3E9002315F04BFA224623
:10FC80002B4615F0F9FB28A3D3E9002315F040FA21
:10FC900022462B4615F0F0FB0022294B15F03AFACC
:10FCA00002460B464046494615F010FD32463B469B
:10FCB00015F0E2FB1EA3D3E9002315F029FA324622
:10FCC0003B4615F027FA02460B4615F023FA02468A
:10FCD0000B4619A1D1E9000115F01AFABDE8F88F19
:10FCE00009F7FD0DE13D023F88B20175E0EF493FA4
:10FCF0003B8F68B52882A43F5544880E55C1C93F43
:10FD00007D6FEB0312D6D43F555555555555C53F1C
:10FD100082922EB1C5B8B33F59018D1B6C06E63FE8
:10FD2000C88A599CE52A00404B2D8A1C273A03407B
:10FD3000075C143326A6913C182D4454FB2109403E
:10FD40000000F03F0000E03F434A91422DE9F843B4
:10FD500004460D4639DD414A914209DD02F17952EE
:10FD6000914240DD02460B4615F0D4F9BDE8F88318
:10FD700001F1404202F58012024330D0B1F1804FD0
:10FD80003ADC0022364B15F0C3F902460B46044616
:10FD90000D4615F0BFF9224606460F462B46204673
:10FDA000294615F069FB02460B463046394615F0E8
:10FDB000B1F916F079FF0B4602462946204615F0A8
:10FDC000A9F9BDE8F843FFF7BFB802460B4615F0A6
:10FDD0009FF902460B4615F079FCBDE8F883002038
:10FDE0000021BDE8F88300F017FE19A3D3E9002332
:10FDF00015F090F9BDE8F88302460B4615F03CFB80
:10FE00000022174B15F084F916F04EFF224680466B
:10FE100089462B462046294615F07CF9424606467F
:10FE20000F464B462046294615F074F902460B460C
:10FE300000200B4915F04AFC0B4602463946304675
:10FE400015F066F9BDE8F84300F0E6BDAFF30080B9
:10FE5000EF39FAFE422EE63FFFFFEF3FFFFFAF41D3
:10FE60000000F03F000000002DE9F047BE4B21F0FC
:10FE70000048984584B004460D4612DD08F140481C
:10FE800008F58018034658EA030321D002460B46C2
:10FE900015F03EF902460B4615F018FC04B0BDE81B
:10FEA000F087B24B98458A4629DCB8F1795F80F239
:10FEB000658191A3D3E9002315F02CF90022AC4B06
:10FEC00015F06AFDD8B12046294604B0BDE8F08798
:10FED0008BA3D3E9002315F0CFFA8BA3D3E900233A
:10FEE00006460F462046294615F0C6FA02460B463E
:10FEF0003046394615F00EF904B0BDE8F0872046CB
:10FF0000294616F00DF802460B460020984915F0D8
:10FF1000FFF80022974B15F0AFFA7DA3D3E9002339
:10FF200004460D4615F0A8FA7BA3D3E9002315F08B
:10FF3000F1F822462B4615F09FFA79A3D3E9002366
:10FF400015F0E6F822462B4615F096FA76A3D3E98B
:10FF5000002315F0DFF822462B4615F08DFA74A326
:10FF6000D3E9002315F0D4F822462B4615F084FA85
:10FF700071A3D3E9002315F0CDF822462B4615F0E6
:10FF80007BFA6FA3D3E90023CDE90001204629467F
:10FF900015F072FA6CA3D3E9002315F0B9F82246E4
:10FFA0002B4615F069FA6AA3D3E9002315F0B2F8DD
:10FFB00022462B4615F060FA67A3D3E9002315F01B
:10FFC000A7F822462B4615F057FA694B002215F088
:10FFD000A1F8CDE902012046294616F065FE664BE0
:10FFE000984506460F4666DCDDE90223DDE900019F
:10FFF00015F06CFB3246CDE900013B4630463946F0
:020000040801F1
:1000000015F088F802460B46DDE9000115F034FAD8
:100010004FF00008CDE9000142463B4640463946D4
:1000200015F02AFA02460B462046294615F070F8CC
:10003000424604460D463B463046394615F06AF8BE
:1000400002460B462046294615F040FB02460B4669
:1000500015F060F802460B462BA1D1E9000115F01E
:1000600057F802460B46DDE9000115F051F842460B
:1000700004460D463B464046394615F04BF80246CD
:100080000B4637A1D1E9000115F042F802460B46B4
:100090002046294615F03CF802460B4630A1D1E92E
:1000A000000115F035F8BAF1000F3FF7F7AE01F196
:1000B00000431946F2E6DDE90223DDE9000115F00F
:1000C00005FB32463B4615F0D7F932463B4615F064
:1000D00021F802460B4615F01DF80BA3D3E90023C7
:1000E00015F016F802460B4605A1D1E9000115F0FE
:1000F0000FF8D8E7AFF300809C7500883CE4377EAA
:10010000182D4454FB21F93F075C143326A6913C7B
:1001100009F7FD0DE13D023F88B20175E0EF493F6F
:100120003B8F68B52882A43F5544880E55C1C93F0E
:100130007D6FEB0312D6D43F555555555555C53FE8
:1001400082922EB1C5B8B33F59018D1B6C06E63FB4
:10015000C88A599CE52A00404B2D8A1C273A034047
:10016000182D4454FB21E93FFFFFEF3FFFFFDF3F26
:100170000000F03F0000E03F3233EF3F02460B4605
:1001800015F07AF937A3D3E9002306460F4615F098
:1001900073F936A3D3E9002314F0BCFF32463B4683
:1001A00015F06AF933A3D3E9002314F0B1FF324606
:1001B0003B4615F061F931A3D3E9002314F0AAFFFF
:1001C00032463B4615F058F92EA3D3E9002314F02C
:1001D0009FFF32463B4615F04FF92CA3D3E900238D
:1001E00014F098FF32463B4615F046F929A3D3E9AF
:1001F0000023804689463046394615F03DF927A34D
:10020000D3E9002314F084FF32463B4615F034F95D
:1002100024A3D3E9002314F07DFF32463B4615F0BA
:100220002BF922A3D3E9002314F072FF32463B4698
:1002300015F022F900220A4B14F06CFF02460B461F
:100240004046494615F042FA22462B4615F014F96D
:1002500022462B4614F05EFF04B0BDE8F08700BFD5
:100260000000F03F09F7FD0DE13D023F88B2017546
:10027000E0EF493F3B8F68B52882A43F5544880E84
:1002800055C1C93F7D6FEB0312D6D43F5555555527
:100290005555C53F82922EB1C5B8B33F59018D1B4C
:1002A0006C06E63FC88A599CE52A00404B2D8A1C03
:1002B000273A0340000000002DE9F84F1D46534245
:1002C000134325F0004ADFF8E0E14AEAD3737345AF
:1002D000144606460F4647D8C0F1000848EA000811
:1002E00021F0004343EAD878F0458B463CD805F12D
:1002F000404808F5801858EA020850D04FEAA5781F
:1003000008F0020848EAD17850EA030134D052EAF2
:100310000A023CD0F24557D0734538D0A3EB0A030C
:100320001B153C2B42DC002D70DB22462B46304651
:10033000394615F0CBF915F0F3FDFEF751FBB8F196
:10034000010F5FD0B8F1020F4ED0B8F1000F62D0AC
:1003500043A3D3E9002314F0DBFE43A3D3E9002336
:1003600014F0D6FEBDE8F88F32463B4620462946BB
:1003700014F0D0FEBDE8F88FB8F1020F1AD0B8F132
:10038000030F10D13AA1D1E90001BDE8F88FBBF10C
:10039000000F14DB38A1D1E90001BDE8F88FBDE8FA
:1003A000F84FFEF71DBB3946BDE8F88F32A1D1E901
:1003B0000001C4E72CA1D1E90001BDE8F88F30A10C
:1003C000D1E90001BDE8F88F534526D0B8F1020FFE
:1003D000F0D0B8F1030FD5D0B8F1010F4FF0000005
:1003E00029D00021BDE8F88F1DA3D3E9002314F024
:1003F0008FFE02460B461CA1D1E9000114F088FED5
:10040000BDE8F88F01F10041BDE8F88F3C338CDA8C
:100410000020002193E7BDE8F88FB8F1020F18D053
:10042000B8F1030F10D0B8F1010F08D016A1D1E92F
:100430000001BDE8F88F4FF00041BDE8F88F14A12E
:10044000D1E90001BDE8F88F13A1D1E90001BDE8B1
:10045000F88F13A1D1E90001BDE8F88FAFF3008058
:10046000075C143326A6A13C182D4454FB210940F7
:10047000182D4454FB2109C0182D4454FB21F93F89
:10048000182D4454FB21F9BF182D4454FB21E93F9A
:10049000182D4454FB21E9BFD221337F7CD902C0FF
:1004A000D221337F7CD902400000F07F00000000A1
:1004B00043422DE9F047034321F000463E4A46EA15
:1004C000D373934204460D4613D896423DD03B4B1E
:1004D0009E428A4617DC36A3D3E9002314F01AFEA5
:1004E0000022002315F058FAA8B320462946BDE89B
:1004F000F08702460B4614F00BFE02460B4615F041
:10050000E5F8BDE8F0872E4B9E42354624DD3346A4
:100510000246314614F0FEFD224606460F462B46A3
:100520000020254914F0F4FD02460B4630463946BA
:1005300015F0CCF8FEF708FD0022224B14F09CFFCA
:10054000BAF1000F2FDBBDE8F0870022002315F081
:10055000BDF8BDE8F087354622462B4620462946A1
:1005600014F0D8FD22462B4606460F4614F084FFB1
:100570002246804689462B4600200F4914F0C8FDCC
:1005800002460B464046494615F0A0F832463B4627
:1005900014F0C0FDFEF7D8FC00220A4B14F06CFFEB
:1005A000BAF1000FCFDA01F100431946BDE8F08738
:1005B0009C7500883CE4377E0000F03FFFFF2F3E33
:1005C000FFFFDF3F0000E03F2DE9F8434E4B21F0F5
:1005D00000449C4206460F461BDC4C4B9C4222DDED
:1005E0004B4B9C4263DD4B4B9C427BDD4A4B9C4218
:1005F00046DD01339C4240D041A3D3E9002310469D
:10060000194614F039FF06460F4630463946BDE814
:10061000F88302460B4614F02FFF06460F4630467D
:100620003946BDE8F88315F07BFC02F0B1FC0022EE
:100630003A4B8046894614F06DFDB4F1725F064670
:100640000F46ECDB42464B464046494614F014FF49
:1006500032463B4604460D463046394614F05AFDB4
:1006600002460B462046294615F030F800222B4B57
:1006700014F050FD06460F46D1E7294B9842BBD8EF
:100680003046394615F04CFC0022264B14F0F4FE9F
:1006900000F04AF8002204460D46224B14F0ECFE0E
:1006A00022462B4614F0E8FE06460F46B7E715F043
:1006B00037FC00F039F800221A4B06460F4614F0BA
:1006C000DBFE32463B4604460D460020154914F039
:1006D000FDFF02460B462046294614F01BFD064648
:1006E0000F469CE715F01CFC00F01EF800220D4B95
:1006F00014F0C2FE06460F4691E700BFAFF300803C
:100700009C7500883CE4377EFFFFEF7F422ED63F8A
:10071000FFFF3540412E8640CD3386400000F03F3C
:100720007DF8B98F0000E03F2DE9F04FB04E21F089
:100730000042B24283B004460D464FEAD1770DD94C
:10074000AC4EB24225D9C1F31303034340F0EC8011
:100750000FB10020002103B0BDE8F08FA64B9A42F4
:1007600000F2CB80A54B9A4200F2DC808AA3D3E949
:10077000002314F0CFFC0022A14B15F00DF9002846
:1007800000F006812046294600229D4B14F0C2FC51
:10079000E1E783A3D3E9002315F0FEF8002840F039
:1007A000C88081A3D3E900232046294615F0D6F856
:1007B0000028CED1934E7EA3D3E9002306EBC706D3
:1007C0002046294614F058FED6E9002314F0A2FC76
:1007D00015F002F9064614F0E9FD77A3D3E90023EA
:1007E0008046894614F048FE02460B4620462946BC
:1007F00014F08EFC72A3D3E90023CDE9000140463A
:10080000494614F039FE82468B4652465B46DDE986
:10081000000114F07DFC04460D4622462B4620467E
:10082000294614F029FE68A3D3E9002380468946AF
:1008300014F022FE66A3D3E9002314F069FC4246BB
:100840004B4614F019FE64A3D3E9002314F062FCB4
:1008500042464B4614F010FE61A3D3E9002314F086
:1008600057FC42464B4614F007FE5FA3D3E9002332
:1008700014F050FC42464B4614F0FEFD02460B4677
:100880002046294614F044FC80468946002E58D064
:100890002046294642464B4614F0EEFD42460446A9
:1008A0000D464B4600204FF0804114F031FC0246CB
:1008B0000B462046294614F009FF02460B465046D7
:1008C000594614F025FCDDE9002314F021FC0B4609
:1008D00002464B49002014F01BFC6FF47F739E42CC
:1008E00051DA06F57A7601EB065100224FF0B87323
:1008F00014F0C2FD03B0BDE8F08F434B9A423FF6BF
:1009000059AF424BFC002344D3E9002314F000FC10
:100910003F4BC7F101062344CDE90001D3E900AB09
:10092000F61B72E7002678E702460B4614F0F2FB4E
:1009300011E719A3D3E900231046194614F09CFDD2
:1009400009E702460B462046294614F095FD002291
:1009500006460F464FF080434046494614F0D8FB08
:1009600002460B463046394614F0B0FE22462B466E
:1009700014F0CEFB02460B460020214914F0C8FBC0
:1009800003B0BDE8F08F01EB065103B0BDE8F08F76
:10099000064642E7AFF300809C7500883CE4377E52
:1009A000EF39FAFE422E864051302DD5104987C0CE
:1009B000FE822B654715F73F0000E0FE422EE63F22
:1009C000763C7935EF39EA3DD0A4BE726937663E90
:1009D000F16BD2C541BDBB3E2CDE25AF6A56113F3F
:1009E00093BDBE166CC1663F3E5555555555C53F26
:1009F000412E8640FFFFEF7F422ED63FFFFF2F3E66
:100A00000000F03F008B0208B1A2F03F108B0208FB
:100A1000208B0208000000002DE9F04FB1F5801F87
:100A200085B006460F460B465ADA024621F00044CE
:100A3000224300F0F8800029C0F27A810022D64BD0
:100A400014F01AFDD54A0B46934206460F466FF046
:100A5000350C4ADCC3F3130505F5152E0EF6647E3E
:100A60000EF4801E8EF07F5282F440121C1542EA72
:100A70000507A4F2FF3464440022C94B30463946CE
:100A800004EB1E5414F044FBAB1CC3F31303022B02
:100A900082468B464FF0000230DC002314F054FFF6
:100AA000002800F0C980002C00F04B81204614F093
:100AB0007DFCA5A3D3E9002306460F4614F0DCFC19
:100AC000A3A3D3E9002304460D463046394614F06B
:100AD000D3FC02460B462046294614F01BFB0AE0D5
:100AE000AE4A93424FF0000CB4DD32463B463046EE
:100AF000394614F00FFB05B0BDE8F08F4FF080438E
:100B000014F008FB02460B465046594614F0DEFD31
:100B1000064620460F4614F049FC3246CDE9000156
:100B20003B4630463946CDE9026714F0A5FC024643
:100B30000B468046894614F09FFC87A3D3E9002327
:100B400006460F4614F098FC85A3D3E9002314F061
:100B5000E1FA32463B4614F08FFC83A3D3E900232D
:100B600014F0D8FA32463B4614F086FC80A3D3E951
:100B7000002314F0CFFA42464B4614F07DFC7EA3CE
:100B8000D3E90023804689463046394614F074FC88
:100B90007BA3D3E9002314F0BDFA32463B4614F0A0
:100BA0006BFC79A3D3E9002314F0B4FA32463B4638
:100BB00014F062FC0B4602464946404614F0AAFA7D
:100BC000A5F5C223C5F5D725A3F27A4351351D43B8
:100BD000002D8046894656DD0022724B504659460C
:100BE00014F04AFC52465B4614F046FC06460F469B
:100BF000002C68D132463B464046494614F08AFAFA
:100C0000DDE9022314F038FC02460B463046394633
:100C100014F07EFA02460B465046594614F078FA14
:100C200005B0BDE8F08F0022002300205E4914F0DB
:100C30004DFD05B0BDE8F08F55A3D3E90023504624
:100C4000594614F019FC02460B460020554914F091
:100C50005FFA524606460F465B465046594614F028
:100C60000BFC02460B463046394614F005FC06469E
:100C70000F46002C40F09A8002460B4650465946DB
:100C800014F046FA37E7002C00F0A4802EA3D3E935
:100C90000023DDE9000114F0EFFB42464B46044619
:100CA0000D465046594614F033FADDE9022314F09C
:100CB000E3FB27A3D3E9002306460F46DDE9000145
:100CC00014F0DAFB21E020A3D3E90023DDE90001E1
:100CD00014F0D2FB32463B4604460D464046494698
:100CE00014F018FADDE9022314F0C6FB18A3D3E9C7
:100CF000002380468946DDE9000114F0BDFB024671
:100D00000B464046494614F005FA02460B4630466B
:100D1000394614F0FDF952465B4614F0F9F90246E3
:100D20000B462046294614F0F3F905B0BDE8F08FD4
:100D300002460B4614F0ECF90022002314F0C6FC26
:100D4000D9E600200021D6E60000E0FE422EE63F74
:100D5000763C7935EF39EA3D44523EDF12F1C23F2D
:100D6000DE03CB966446C73F599322942449D23F71
:100D7000935555555555E53F9FC678D0099AC33FC1
:100D8000AF788E1DC571CC3F04FA97999999D93FD8
:100D9000555555555555D53F00005043FFFFEF7F42
:100DA0000000F03F0000E03F000050C3204614F078
:100DB000FDFA0FA3D3E900238046894614F05CFBBB
:100DC0000DA3D3E9002304460D464046494614F0DE
:100DD00053FB9AE702460B465046594614F098F9E1
:100DE000DDE9022314F048FB14E700BFAFF30080F5
:100DF0000000E0FE422EE63F763C7935EF39EA3DD1
:100E0000B1F5801F2DE9F84304460D460B461ADA6A
:100E1000024621F00046324359D000295FDB002210
:100E20003B4B14F029FB3B4A0D462B4693420446AC
:100E30006FF035010CDD22462B462046294614F082
:100E400069F9BDE8F883334A93424FF00001F2DCC0
:100E50001815A0F2FF3008444FEAD0794844C3F394
:100E6000130814F0A3FAC9F57F73033348EA035556
:100E700006460F4620462946FFF7CEFD1EA3D3E9BE
:100E80000023804689463046394614F0F5FA1CA303
:100E9000D3E9002304460D464046494614F0ECFAD7
:100EA00002460B462046294614F034F916A3D3E92E
:100EB000002304460D463046394614F0DDFA02465A
:100EC0000B462046294614F025F9BDE8F883002298
:100ED00000230020104914F0F9FBBDE8F883024616
:100EE0000B4614F015F90022002314F0EFFBBDE8C7
:100EF000F88300BFAFF30080362BF111F3FE593DAC
:100F00000EE526157BCBDB3F00609F501344D33F9B
:100F100000005043FFFFEF7F000050C300000000BF
:100F20002DE9F04F23F0004757EA020493B037D081
:100F3000674C21F00046A64283460D4629DC9A46BE
:100F4000964625D0A74224DC614CA74279D0002DDB
:100F500080468946CDE9002377DB0024BEF1000FEF
:100F60002CD15B4B9F4200F08B805A4B9F4261D04B
:100F7000BAF1804F00F0C383574B9A451ED1002D24
:100F80001CDB4046494613B0BDE8F04F15F08CBE5F
:100F900058B106F1404606F5801656EA0B0306D115
:100FA0004C49002013B0BDE8F08FB742CCDD4B4870
:100FB00013B0BDE8F04F16F007BD00244046494687
:100FC00014F0AEFFBBF1000F19D126B1414B25F053
:100FD00040429A4213D1BAF1000FC0F2CA83002DE9
:100FE000E0DA06F1404606F5801656EA040300F002
:100FF000A584012CD6D101F100431946D2E7ED0FAB
:10100000013D54EA05034ED0354B9F426EDD03F19E
:1010100004739F4240F3FE83324B9E424EDDBAF191
:10102000000F4EDD28A3D3E900231046194614F023
:1010300023FAB7E7BAF1000FC0F25284404649469E
:10104000B0E7BEF1000F82D0A3E7274B9F4228DC18
:10105000A3F154739F4280DD3B15A3F2FF33142BA1
:1010600040F35484C3F134032EFA03F202FA03F37B
:101070009E457FF472AF02F00102C2F102046DE7F7
:1010800006F1404303F5801353EA0B0388D0154B58
:101090009E4240F33B83BAF1000F12DBDDE9000111
:1010A00080E702245AE742464B461046194614F0A0
:1010B0002FF802460B4614F009FB73E7BAF1000F54
:1010C000B0DB002000216DE79C7500883CE4377E92
:1010D0000000F07F0000F03F0000E03FEC9B0208C2
:1010E0000000E041FFFFEF3FFFFF3F43B6F5801FE9
:1010F0004FF0000205DAD84B14F0BEF96FF034025D
:101100000E463315D54FC6F31306A3F2FF3313442F
:1011100046F07F5ABE421A460D934AF4401A40F3F5
:101120002F83CF4B9E4240F30D849FEDB57B8DED19
:10113000087B8DED0E7B9FEDB47B13468DED067B1A
:1011400001330D93AAF5801A0027DDE906235146E5
:10115000CDE90A0113F0DCFFDDE90623804689466C
:10116000DDE90A0113F0D6FF02460B460020BD4917
:1011700014F0ACFA0A460146CDE91012134649466E
:101180000246404614F078F94FEA6A0343F00053F0
:101190008C46834603F50023CDE904BCDA468B4632
:1011A000D9190023CDE902AB0293DDE902AB00209F
:1011B00006460F4602460B465046594614F05CF967
:1011C00002460B464046494613F0A2FFDDE90623DE
:1011D000804689463046394613F09AFF02460B4650
:1011E000DDE90A0113F094FF52465B4614F044F91E
:1011F00002460B464046494613F08AFFDDE91023BC
:1012000014F03AF9DDE90467CDE9060132463B46C0
:101210003046394614F030F97DA3D3E90023064661
:101220000F4614F029F97CA3D3E9002313F072FFD1
:1012300032463B4614F020F979A3D3E9002313F09A
:1012400069FF32463B4614F017F977A3D3E9002330
:1012500013F060FF32463B4614F00EF974A3D3E955
:10126000002313F057FF32463B4614F005F972A3F2
:10127000D3E9002313F04EFF3246804689463B46B1
:101280003046394614F0F8F802460B4640464946C7
:1012900014F0F2F8524606460F465B46DDE90401BB
:1012A00013F038FFDDE9062314F0E6F832463B463A
:1012B00013F030FF5246804689465B4650465946F9
:1012C00014F0DAF80022684BCDE90A0113F022FF8E
:1012D00042464B4613F01EFF02980F460646324622
:1012E0003B465046594614F0C7F8002282468B46CA
:1012F0005D4B3046394613F00BFFDDE90A2313F04E
:1013000007FF02460B464046494613F001FFDDE960
:10131000042314F0B1F83246804689463B46DDE9A5
:10132000060114F0A9F802460B464046494613F060
:10133000F1FE8046894602460B4650465946CDE9A5
:1013400004AB13F0E7FEDDE902AB3DA3D3E90023D4
:1013500050460F4614F090F8DDE90423CDE9020170
:101360003946504613F0D4FE02460B4640464946E5
:1013700013F0CEFE34A3D3E9002314F07DF834A398
:10138000D3E90023804689465046394614F074F864
:1013900002460B464046494613F0BCFEDDE90E23EB
:1013A00013F0B8FE80460D98894613F0FFFF4246C1
:1013B00006460F464B46DDE9020113F0ABFEDDE9C0
:1013C000082313F0A7FE32463B4613F0A3FE324635
:1013D0003B4650468B4613F09BFEDDE9082313F095
:1013E00097FEDDE9022313F093FE02460B464046CA
:1013F000494613F08DFE8046894637E0AFF3008002
:101400000000000000000000000000000000F03FAD
:10141000EF4E454A287ECA3F65DBC9934A86CD3FD9
:1014200001411DA96074D13F4D268F515555D53FBF
:10143000FFAB6FDBB66DDB3F033333333333E33F57
:10144000000000E009C7EE3FFD033ADC09C7EE3FAC
:10145000F5015B14E02F3EBE000040438E98030070
:1014600079B60B000000F03F00000840013C54EA50
:10147000050300F079819FEDC87B8DED047BDDE9EC
:1014800000120B461446CDE9023400230293DDE935
:10149000024508462B461146224613F039FE5246B5
:1014A0005B4613F0E9FFDDE9002306460F464046A0
:1014B000494613F0E1FF02460B463046394613F029
:1014C00029FE2246804689462B4650465946CDE99C
:1014D000008913F0D1FF0B46024606460F464046F0
:1014E000494613F017FEC64B994204460D468A46FC
:1014F00040F3168101F13F4303F5E003034340F05D
:10150000F781A7A3D3E90023DDE9000113F002FE70
:101510003246804689463B462046294613F0F8FD70
:1015200002460B464046494614F036FA002840F081
:10153000DF81A8464FEA28534FF48012A3F2FE330E
:1015400042FA03F35344C3F30A52AE4DA2F2FF3200
:101550001541C3F3130423EA05010020C2F1140B63
:1015600044F48014BAF1000F02460B4644FA0BFB18
:1015700030463946B8BFCBF1000B13F0C9FD024627
:101580000B4606460F46DDE9000113F0C3FD4FEAA6
:101590000B5A0D46002484A3D3E900232046294694
:1015A00013F06AFF3246804689463B46204629466C
:1015B00013F0AEFD02460B46DDE9000113F0A8FD75
:1015C0007BA3D3E9002313F057FF7BA3D3E90023C8
:1015D00006460F462046294613F04EFF02460B46AC
:1015E0003046394613F096FD06460F4602460B4636
:1015F0004046494613F08EFD42464B4604460D4692
:1016000013F086FD02460B463046394613F080FD46
:101610002246804689462B462046294613F02CFF59
:1016200067A3D3E9002306460F4613F025FF66A300
:10163000D3E9002313F06CFD32463B4613F01CFF48
:1016400063A3D3E9002313F065FD32463B4613F054
:1016500013FF61A3D3E9002313F05AFD32463B4642
:1016600013F00AFF5EA3D3E9002313F053FD3246C3
:101670003B4613F001FF02460B462046294613F075
:1016800047FD06460F4602460B462046294613F004
:10169000F3FE0022CDE900014FF080433046394689
:1016A00013F036FD02460B46DDE9000114F00EF89A
:1016B000424606460F464B462046294613F0DCFEBE
:1016C00042464B4613F026FD02460B46304639464D
:1016D00013F01EFD22462B4613F01AFD02460B4660
:1016E0000020494913F014FD8A44BAF5801FC0F266
:1016F00039815146DDE9042313F0BEFE52E442462F
:101700004B464046494613F0B7FE4BE4BAF1000F92
:10171000BFF6D7ACDDE90034184604F1004141E4DE
:101720003A4B21F00048984540F3FF80384B0B447A
:1017300003430CD132463B4613F0EAFC02460B460B
:10174000DDE9000114F014F900283FF4F3AEDDE9FF
:10175000040125A3D3E9002313F08EFE22A3D3E9CD
:10176000002313F089FE1DE49FED217B8DED047BAA
:1017700085E602460B460020234913F0A7FF2EE41E
:101780009FED1D7B8DED087B8DED0E7B9FED027B2C
:1017900000278DED067BD8E4000000000000F03F3C
:1017A000FE822B654715973C00000000432EE63F64
:1017B000EF39FAFE422EE63F396CA80C615C20BE80
:1017C000D0A4BE726937663EF16BD2C541BDBB3E47
:1017D0002CDE25AF6A56113F93BDBE166CC1663F25
:1017E0003E5555555555C53F59F3F8C21F6EA501D5
:1017F000000000000000F0BF00000000000000003A
:10180000FFFF8F40FFFF0F000000F03FFFCB904035
:1018100000346F3F684B9E427FF750AC674B9E424F
:101820003FF7FDAB0022654B13F072FC52A3D3E9E6
:10183000002306460F4613F01FFE51A3D3E90023F1
:10184000804689463046394613F016FE002282460D
:101850008B465B4B3046394613F00EFE02460B4674
:1018600049A1D1E9000113F053FC32463B4613F085
:1018700003FE02460B460020524913F049FC324653
:10188000CDE902013B463046394613F0F5FD0246EC
:101890000B46DDE9020113F0EFFD3DA3D3E9002380
:1018A00013F0EAFD02460B465046594613F030FC51
:1018B00002460B4606460F464046494613F02AFCB0
:1018C00042464B46002082468B4613F021FC0246DE
:1018D0000B463046394613F01BFC80468946C5E569
:1018E00042464B460020354913F0F0FEFFF75ABB45
:1018F000DDE9040128A3D3E9002313F0BDFD26A3ED
:10190000D3E9002313F0B8FDFFF74CBBBEF1000F85
:101910007FF453ABC3F1140347FA03F202FA03F363
:101920009F4223D07446FFF720BB264B98453FF7D4
:1019300001AEDDE90223924693462BE602460B46B2
:10194000FFF7B3BB9FED167B8DED087B9FED167BFC
:101950008DED0E7B9FED167B4FF480278DED067B82
:10196000FFF7F3BB5A4601F04FFDC3E602F0010258
:10197000C2F10204FFF7F9BA000000604715F73F13
:1019800044DF5DF80BAE543E555555555555D53F82
:10199000FE822B654715F73F9C7500883CE4377E37
:1019A0000000004003B8E23F06D0CF43EBFD4C3EC1
:1019B000000000000000F83FFEFFEF3F0000F03F96
:1019C0000000D03F0000E03F2DE9F0479C4B21F0A4
:1019D00000479F4290B08046894640F38E80994BE5
:1019E0009F420C46924626DC00298BA3D3E90023B4
:1019F00040F3B08113F08CFB934B9F4204460D469D
:101A000000F0908086A3D3E9002313F081FB024607
:101A10000B46CAE900232046294613F079FB80A330
:101A2000D3E9002313F074FB0125CAE9020128461B
:101A300010B0BDE8F087854B9F4240F39080844B07
:101A40009F4265DC3D15A5F21645A7EB05531946E7
:101A50001F46064613F0C0FF13F0A8FC80468946D7
:101A600042464B4630463946CDE90A8913F050FBD1
:101A70000022784B13F000FD8946804613F0ACFF3E
:101A800013F094FC06460F4632463B464046494614
:101A9000CDE90C6713F03CFB00226E4B13F0ECFC1D
:101AA00000220023CDE90E0113F04EFF002800F0C4
:101AB0006F81002330463946002213F045FF00288D
:101AC00014BF01230223644A019202212A46009195
:101AD0000AA8514600F08CFB002C054614DADAF80F
:101AE0000420DAF80C3002F1004203F100434542D1
:101AF000CAF80420CAF80C3006E000200021C2E930
:101B00000089C2E902010025284610B0BDE8F0872F
:101B100002460B4613F0FCFA0025CAE90201CAE9A5
:101B20000001F1E740A3D3E9002313F0F1FA40A349
:101B3000D3E900230D46044613F0EAFA02460B46A9
:101B4000CAE900232946204613F0E2FA38A3D3E974
:101B5000002313F0DDFA0125CAE90201D4E714F0ED
:101B6000DFF935A3D3E900238046894613F084FCCE
:101B700000223A4B13F0CEFA13F02EFF054613F075
:101B800015FC25A3D3E90023CDE9060113F074FC6D
:101B900002460B464046494613F0BAFA20A3D3E961
:101BA0000023CDE90201DDE9060113F065FC1F2DDC
:101BB00080468946CDE9048954DC294B6A1E53F8D6
:101BC00022309F424ED002460B46DDE9020113F05F
:101BD0009FFA80468946CAE9008942464B46DDE9BC
:101BE000020113F095FADDE9042313F091FA002CB9
:101BF000CAE9020188DA09F1004401F100436D42AB
:101C0000CAF80080CAF80440CAF80800CAF80C30C4
:101C10007AE700BFAFF3008000004054FB21F93F9A
:101C20003163621A61B4D03D0000601A61B4D03DE6
:101C30007370032E8A19A33B83C8C96D305FE43FDC
:101C4000FB21E93F7BD90240FB21F93FFB213941D0
:101C5000FFFFEF7F00007041649E02080000E03F3C
:101C6000E49D0208DDE90423DDE9020113F050FAE6
:101C70003F15C1F30A53FB1A80468946102BCAE967
:101C80000089AADD58A3D3E90023DDE9060113F09A
:101C9000F3FB8046894602460B46DDE9020113F05C
:101CA00037FA02460B46DDE90201CDE9082313F0BD
:101CB0002FFA42464B4613F02BFA4DA3D3E90023EB
:101CC00080468946DDE9060113F0D6FB42464B46C5
:101CD00013F01EFA0B46CDE904010246DDE90801C6
:101CE00013F016FAC1F30A53FF1A80468946312FC2
:101CF000CAE900896CDD41A3D3E90023DDE90601CF
:101D000013F0BAFBDDE9088906460F4602460B468A
:101D10004046494613F0FCF902460B464046494608
:101D2000CDE9022313F0F4F932463B4613F0F0F903
:101D300034A3D3E9002306460F46DDE9060113F07C
:101D40009BFB32463B4613F0E3F902460B46CDE9D6
:101D500004233AE713F0DEF9274B9F4204460D4671
:101D600018D01FA3D3E9002313F0D4F902460B4681
:101D7000CAE900232946204613F0CAF918A3D3E97B
:101D8000002313F0C7F94FF0FF35CAE90201BBE6A3
:101D9000032398E614A3D3E9002313F0BBF914A39B
:101DA000D3E900230D46044613F0B4F902460B466E
:101DB000CAE900232946204613F0AAF90CA3D3E967
:101DC000002313F0A7F94FF0FF35CAE902019BE6A3
:101DD0009DED087B8DED027BFFE600BFAFF3008039
:101DE0003163621A61B4D03D0000601A61B4D03D25
:101DF0007370032E8A19A33BFB21F93F0000002ECC
:101E00008A19A33BC14920259A837B390000000031
:101E1000594A2DE9F84F21F00048904506460F46F3
:101E20002BDC564B0029B4BF554D564D98454FF00D
:101E3000000410DC544B984570DC4DA3D3E900231B
:101E400013F068F90022514B13F0A6FDD8B13046CB
:101E50003946BDE8F88F4E4B98457CDD4D4B984593
:101E600044DD013398453ED03046394640A3D3E99E
:101E7000002313F001FBBDE8F88F02460B4613F078
:101E800049F9BDE8F88F3046394614F049F801F0B9
:101E90007FF806460F4632463B463046394613F039
:101EA00039F9324682468B463B463046394613F076
:101EB000E3FA002280468946344B3046394613F017
:101EC00029F902460B464046494613F0FFFB0246FD
:101ED0000B465046594613F01BF922462B4613F089
:101EE000CBFABDE8F88F2C4B9842BDD83046394626
:101EF00014F016F80022234B13F0BEFAFEF714FC80
:101F000006460F4602460B462046294613F0B4FA11
:101F100032463B4613F0B0FABDE8F88F14F000F8F3
:101F200001F036F81D4B984506460F46B3DD0022FA
:101F3000164B13F0EFF802460B463046394613F0C5
:101F4000C5FB32463B4613F0E5F822462B4613F01C
:101F500093FABDE8F88F13F0E3FFFEF7E5FB0246C6
:101F60000B462046294613F087FABDE8F88F00BFDC
:101F70003374AC3C1F7BAC7FFFFFEF7FFFFF35402E
:101F80000000E0BF0000E03FFFFF2F3E0000F03FF9
:101F9000412E8640CD3386407DF8B98FFFFFEF3F5D
:101FA0002DE9F04F21F00048B8F1795F85B0064681
:101FB0000F4692469B466BDA13F00EFD002800F0A8
:101FC000EA8032463B463046394613F055FA74A350
:101FD000D3E9002304460D4613F04EFA72A3D3E969
:101FE000002313F097F822462B4613F045FA70A30E
:101FF000D3E9002313F08CF822462B4613F03CFA69
:102000006DA3D3E9002313F085F822462B4613F085
:1020100033FA6BA3D3E9002313F07AF822462B4658
:1020200013F02AFA68A3D3E9002313F073F82246C9
:102030002B4613F021FACDE900010022664B204621
:10204000294613F019FADDE9002380468946204627
:10205000294613F011FA524604460D465B463046B7
:10206000394613F009FA02460B462046294613F07A
:102070004FF802460B464046494613F049F80246DF
:102080000B460020554913F043F805B0BDE8F08F2A
:1020900002460B4613F0F0F941A3D3E900230446AE
:1020A0000D4613F0E9F940A3D3E9002313F032F809
:1020B00022462B4613F0E0F93DA3D3E9002313F0A9
:1020C00027F822462B4613F0D7F93BA3D3E9002388
:1020D00013F020F822462B4613F0CEF938A3D3E9AB
:1020E000002313F015F822462B4613F0C5F936A34A
:1020F000D3E9002313F00EF82B46224613F0BCF967
:10210000374B9845CDE9000197DD364B984539DCD2
:10211000A8F500130022002030499046994612F09D
:10212000F7FFCDE9020100222B4B2046294613F090
:10213000A3F942464B4612F0EBFFDDE9002380464F
:1021400089462046294613F097F9524604460D4623
:102150005B463046394613F08FF902460B4620465F
:10216000294612F0D5FF02460B464046494612F07A
:10217000CFFF02460B46DDE9020112F0C9FF05B0B0
:10218000BDE8F08F9FED127B4FF000088DED027BD4
:10219000DFF85490C7E71149002005B0BDE8F08F83
:1021A000D43888BEE9FAA8BDC4B1B4BD9EEE213EC4
:1021B000AD529C804F7E923E9015CB19A001FA3E05
:1021C0007751C1166CC1563F4C5555555555A53FD5
:1021D000000000000000E73F0000E03F0000F03F8B
:1021E0003233D33F0000E93F0000D23F000000003F
:1021F0002DE9F04FADF51B7D9F4CA49E9F4D54F8EB
:10220000264007942646D41E85FB0475E417C4EBCC
:10221000A50424EAE4741D460A93631CA3EB83031C
:10222000013D02EBC30306932B460B940395651BFC
:10223000F418049008911AD42C4400260027013485
:102240000DF18808DDF8949208E059F8250013F0A4
:10225000ADF80135A542E8E8020108D0002DF4DA16
:10226000013530463946A542E8E80201F6D1079B20
:10227000002BC0F2DF83079B03F1010B0A9B22A90D
:10228000DB001A4601EB03090093049B0DF5E47A89
:1022900019460AEBCB0B01EB0208039B002BC0F2A3
:1022A000F582049C4D460026002775E90223F4E8D8
:1022B000020113F0E1F802460B463046394612F0AF
:1022C00029FF444506460F46EFD1EAE80267DA45A2
:1022D00009F10809E1D107990098049C009101F1E6
:1022E0008043013B9B0020441A1F83460EA80244F2
:1022F00003440C920D93009A9AA901EBC203002AA1
:1023000053E9284529DD0DF5E47A0AEBC2080DF101
:10231000340900225A4B2046294613F0ADF813F039
:102320005BFB13F043F80022564B06460F4613F0B2
:10233000A3F802460B462046294612F0E9FE13F0A8
:102340004BFB78E9022349F8040F3946304612F076
:10235000E1FED04504460D46DBD1DDF8189020465D
:1023600029464A4601F050F800224FF07F530446B8
:102370000D4613F081F8FCF75FFD0022424B13F08D
:102380007BF802460B462046294612F0C1FE0D4658
:10239000044613F021FB804613F008F80B46024672
:1023A0002946204612F0B4FE4B46002B06460F4647
:1023B00040F3F980009A0EA9013AC9F1180351F8C7
:1023C000225045FA03F101FA03F30EA8EB1A40F884
:1023D0002230C9F11705884443FA05F5002D6DDD5B
:1023E000009B002B08F1010840F36F820E9C002C2B
:1023F00040F01683009B012B40F38F820EAA01232D
:1024000052F8044F002C00F08382581C0EAAC4F12D
:10241000807442F82340009A824219DD0EAA0EAC65
:1024200052F820106FF07F42511A44F820100099A2
:10243000023399420CDD1046009A0EA901EB83038A
:1024400001EB82011A68821A43F8042B8B42F9D1FE
:10245000069B002B1ADD069B012B4FF0010440F078
:102460003C82009B5A1E0EAB0EA953F82230C3F3D8
:10247000160341F822303CE204A30208ABAAAA2AC0
:102480000000703E0000704100002040022D15D178
:1024900032463B460020924912F03AFE06460F466D
:1024A000069A8F49002000F0AFFF02460B463046E7
:1024B000394612F02DFE022506460F460022002363
:1024C0003046394613F040FA002800F03782009A6F
:1024D000079B501E83420FDC02F18043013B0EAA92
:1024E0000D9C02EB8303002253F80419A34242EA35
:1024F0000102F9D1002A67D1079B0EAA013B52F8CD
:102500002330002B40F018820C9A012352F8041952
:1025100001330029FAD0009AD31802F1010A9A4532
:1025200009933DDC009B0A990B9A0B4409990AEB2D
:102530000208994622AB08F1804803EBC9098B18C1
:10254000A59A08F1FF3802EB880872AA02EBCA0AC2
:10255000A59A02EB8303009358F8040F12F026FFAC
:10256000039B002BE9E802014FF000064FF0000743
:1025700011DB049C4D4675E90223F4E8020112F0D8
:102580007BFF02460B463046394612F0C3FD5C45E0
:1025900006460F46EFD1009B9845EAE80267DBD17B
:1025A000099B0093A7E606D1009B0EAA013B52F8B7
:1025B0002350ED1512E700224A4B13F0E3F90028EF
:1025C00040F06E81054679E70EA9039551F8203059
:1025D0000699CDF8248018390246009006916BB90F
:1025E00000F18043013B0EA800EB830353F804097C
:1025F000013A18390028F9D000920691069A384914
:10260000002000F001FF009B002B04460D46C0F2A5
:10261000F781DA0072A901EB020B06920EAA02EB17
:102620008306DFF8C4904FF000080BF1080704366A
:1026300056F8040D12F0BAFE22462B4612F01CFF8B
:102640004B4667E9020142462046294612F014FF34
:102650000EAB9E4204460D46EAD14AACDDF81C9012
:1026600004944FF0000AB9F1000FC0F22B81DFF89B
:102670007C805D4618A1D1E90001002600270024D6
:1026800003E0544510DCF8E80201F5E8022312F0FB
:10269000F3FE02460B463046394612F03BFD01344C
:1026A000A14506460F46ECDA049B03EBCA03ABF1E7
:1026B000080BC3E9006770AB9B450AF1010AD2D150
:1026C000A49B049C032B00F28980DFE803F0C58EF5
:1026D0008E1100BFAFF3008000000040FB21F93FE6
:1026E0000000F03F0000E03F0000703E488B020811
:1026F000009B002B40F38181069A04EB020ADAE981
:10270000008902F1080525440DF5987B1AED027B3E
:1027100042464B4651EC170B8DED047B12F0FAFC50
:1027200006460F4602460B46DDE9040112F0F0FCB6
:1027300042464B4612F0EEFC65E902015D45B046AB
:10274000B9466AE90267E1D1009B012B40F355814C
:10275000069BE518D5E9008903F1080B04EB0B0A89
:1027600015ED027B42464B4651EC170B8DED007B7D
:1027700012F0D0FC06460F4602460B46DDE900018A
:1027800012F0C6FC4B46424612F0C4FC6AE9020154
:102790004EAB5345B046B94665E90267E0D100202B
:1027A000002104EB0B0575E9022312F0B3FCAA45E6
:1027B000F9D1039B002B00F00A816268E368089F4F
:1027C0002568A4683D6002F1004203F1004301F175
:1027D00000417A60FB60BC6038617961099B03F05D
:1027E00007000DF51B7DBDE8F08F069D08352544DB
:1027F0000020002175E9022312F08CFCA542F9D1DA
:10280000039B002B00F0D280089E024601F100439A
:1028100086E80C000B460246D4E9000112F078FC71
:10282000009B002B0BDD4CAD0124F5E8022312F0D8
:1028300071FC009B0134A342F7DA039B13B101F151
:1028400000431946089BC3E90201099B03F00700F6
:102850000DF51B7DBDE8F08F069D08350020002199
:10286000254475E9022312F055FCAC42F9D1039BD3
:1028700013B101F100431946089BC3E90001099B0C
:1028800003F007000DF51B7DBDE8F08F0026002743
:10289000EAE80267DA4509F108097FF4FEAC1AE5B7
:1028A000009B002B08F10108C8BF02253FF79EAD31
:1028B00032463B460020614912F02AFC02250646BA
:1028C0000F46FBE500260027EEE6069B002B27DDE2
:1028D0000024069B012B3FF4C4AD022B09D1009BC1
:1028E0005A1E0EAB0EA953F82230C3F3150341F85C
:1028F0002230022D7FF4E2AD32463B4600204F49A4
:1029000012F006FC06460F46002C3FF4D7ADC7E593
:102910000099013399427FF473AD069B002BD8DCFC
:10292000022D7FF4CBAD32463B460020434912F0E6
:10293000EFFB06460F46C1E50123ECE53946069F4D
:1029400003957A423046CDF8248000F05DFD0022E8
:102950003B4B04460D4613F015F8002843D00022E7
:10296000384B2046294612F087FD13F035F806460D
:1029700012F01CFD0022324B12F07EFD02460B4687
:102980002046294612F0C4FB13F026F800990B46A6
:1029900001331A4600933B46183306930B460EA9A3
:1029A00041F82300134641F8236027E6089B0246BE
:1029B000C3E900010B46D4E9000112F0A9FB009B1A
:1029C000002B3FF730AF089BC3E902013DE7D4E994
:1029D0000067D4E90223089DC5E90401C5E9006741
:1029E000C5E90223FAE62946204612F0F5FF009ACF
:1029F0000EA941F8220001E64AAC00200021D8E6E9
:102A0000A49B032B3FF6EAAE01A252F823F000BFCD
:102A10002F2A0108272A0108272A0108F929010875
:102A200001200023F2E4002000214AACE8E6002067
:102A300000211CE70A9BDB0000934CE40000F03F00
:102A4000000070410000703E2DE9F04F21F000467B
:102A5000B6F1795F85B004460D469046994604DA92
:102A600012F0BAFF002800F0858022462B4620464F
:102A7000294612F001FD06460F4602460B46204647
:102A8000294612F0F9FC41A3D3E9002382468B4684
:102A90003046394612F0F0FC3EA3D3E9002312F091
:102AA00037FB32463B4612F0E7FC3CA3D3E9002358
:102AB00012F030FB32463B4612F0DEFC39A3D3E97C
:102AC000002312F025FB32463B4612F0D5FC37A31B
:102AD000D3E9002312F01EFB0E9BCDE900019BB34E
:102AE0000022294B4046494612F0C6FCDDE900238E
:102AF000CDE902015046594612F0BEFC02460B4693
:102B0000DDE9020112F004FB32463B4612F0B4FC50
:102B100042464B4612F0FCFA19A3D3E900230646BD
:102B20000F465046594612F0A7FC02460B46304667
:102B3000394612F0EFFA02460B462046294612F0BB
:102B4000E7FA05B0BDE8F08F02460B46304639463D
:102B500012F092FC0AA3D3E9002312F0D9FA5246EC
:102B60005B4612F089FC22462B4612F0D3FA05B0E0
:102B7000BDE8F08F2046294605B0BDE8F08F00BFC4
:102B8000495555555555C53F0000E03F7CD5CF5AB6
:102B90003AD9E53DEB9C2B8AE6E55A3E7DFEB157DE
:102BA000E31DC73ED561C119A0012A3FA6F8101147
:102BB0001111813F000000002DE9F04FBE4C21F0C3
:102BC000004687B0A64282468B460F46CDE90023D9
:102BD0001BDC12F001FF002837D153461E43109B27
:102BE0000133334300F0B381109B012B00F0C88107
:102BF00052465B460020B14912F068FD04460D467E
:102C00002046294607B0BDE8F08FAD4B9E421CDD43
:102C10000029C0F2A98152465B4687A1D1E9000193
:102C200012F076FADDE9002304460D4684A1D1E9CD
:102C3000000112F06DFA9FED847B22462B468DED4C
:102C4000007B12F067FA82468B4652465B4650463E
:102C5000594612F011FC02460B468046894612F096
:102C60000BFC424604460D464B465046594612F070
:102C700003FC77A3D3E90023CDE9020120462946CE
:102C800012F0FAFB74A3D3E9002312F043FA2246B0
:102C90002B4612F0F1FB72A3D3E9002312F03AFAAB
:102CA00022462B4612F0E8FB6FA3D3E9002312F073
:102CB00031FA22462B4612F0DFFB6DA3D3E9002345
:102CC00012F028FA22462B4612F0D6FB6AA3D3E96B
:102CD000002312F01FFA42464B4612F0CDFB68A3C8
:102CE000D3E90023CDE904012046294612F0C4FBB4
:102CF00065A3D3E9002312F00DFA22462B4612F009
:102D0000BBFB63A3D3E9002312F004FA22462B464F
:102D100012F0B2FB60A3D3E9002312F0FBF92246C4
:102D20002B4612F0A9FB5EA3D3E9002312F0F2F9BF
:102D300022462B4612F0A0FB5BA3D3E9002312F03E
:102D4000E9F902460B46DDE9040112F0E3F9DDE999
:102D5000022312F091FBDDE9004522462B4612F0DA
:102D6000D9F942464B4612F087FB02460B462046F5
:102D7000294612F0CFF94EA3D3E9002304460D46AD
:102D8000DDE9020112F078FB22462B4612F0C2F96F
:102D90000B460246804689465046594612F0BAF91B
:102DA000474B9E4204460D4600F38E80109B012B3C
:102DB0003BD002460B460020404912F087FC00241D
:102DC00006460F462046294652465B46CDE9006737
:102DD000CDE90201009412F09BF9DDE900AB024657
:102DE0000B464046494612F093F952465B4612F0B4
:102DF00043FB524604460D465B46DDE9020112F0F4
:102E00003BFB00222F4B12F085F902460B46204671
:102E1000294612F07FF932463B4612F02DFB52460E
:102E20005B4612F077F904460D462046294607B066
:102E3000BDE8F08FAFF30080182D4454FB21E93F2B
:102E4000075C143326A6813C00000000000000004F
:102E5000D47ABF74702AFB3EE9A7F0320FB8123F54
:102E600068108D1AF726303F1583E0FEC8DB573F08
:102E700093846EE9E326823FFE41B31BBAA1AB3FC8
:102E8000735360DBCB75F3BEA69237A0887E143FE8
:102E90000165F2F2D844433F280356C9226D6D3FC5
:102EA00037D60684F464963F7AFE10111111C13FA3
:102EB000635555555555D53FFFFF2F3E0000F0BFD8
:102EC0002794E53F0000F03F109812F06FFA224679
:102ED000CDE900012B462046294612F0CDFADDE966
:102EE0000023CDE902012046294612F013F90246DB
:102EF0000B46DDE9020112F0E9FB42464B4612F0B7
:102F000007F902460B465046594612F001F90246AF
:102F10000B4612F0FFF802460B46DDE9000112F005
:102F2000F7F80446B81700F00200C0F101000D46A2
:102F300012F03CFA02460B462046294612F09CFA53
:102F400004460D462046294607B0BDE8F08F50469E
:102F5000594612F0E5FF02460B4600200A4912F0DE
:102F6000B5FB04460D4660E7DDE9004501F100418F
:102F7000224605F1004382468B46CDE900234AE60E
:102F800054465D4651E700BF0000F03F00000000DE
:102F90002DE9F04FD24A21F00043934285B082469A
:102FA0008B460C462DD9CF4A93421AD8002C80F27A
:102FB0001681B5A3D3E900235046594612F0AAF86A
:102FC0000022002312F0CAFCC0B9B1A3D3E9002348
:102FD0005046594612F050FA02460B460020C249AC
:102FE00008E1C24A934240F2D0800346C1F3130283
:102FF000134340F0F481002980F2C4800020BC49D2
:10300000C0E0BC4A934200F22981BB4A934240F29D
:10301000DE80002301930022B84B5046594612F03F
:103020002BFA06460F4602460B465046594612F00A
:1030300023FA99A3D3E9002304460D4612F01CFAA3
:1030400097A3D3E9002312F065F822462B4612F02D
:1030500013FA95A3D3E9002312F05AF822462B461F
:1030600012F00AFA92A3D3E9002312F053F8224691
:103070002B4612F001FA90A3D3E9002312F048F88E
:1030800022462B4612F0F8F900229D4B12F042F82E
:103090008046894602460B463046394612F0ECF926
:1030A00002460B460020974912F032F806460246C7
:1030B0000B460F464046494612F02AF832468046F3
:1030C00089463B465046594612F0D6F902460B4611
:1030D00000208D4912F01CF802460B464046494636
:1030E00012F0F4FA22462B4612F0C6F9019E02466F
:1030F0000B46002E38D0DDE9026732463B4612F01F
:1031000007F852465B4612F0B7F932463B4611F0DB
:10311000FFFF2B46224611F0FBFF019B01330646C1
:103120000F4600F00F81019B012B00F0F180019B05
:103130000133392B39D8019B132B40F31281019CA9
:10314000C4F57F75033500222B0511F0E3FF02461D
:103150000B465046594611F0DBFF0022684B11F038
:10316000D9FF01EB04510DE05046594612F084F9A5
:1031700022462B4611F0CCFF02460B4650465946DC
:1031800011F0C6FF05B0BDE8F08F4DA3D3E90023D1
:1031900012F002FC00283FF409AF4BA3D3E900234F
:1031A0001046194612F068F9ECE752465B4611F0FA
:1031B000AFFF02460B460020514911F0A9FF019ACA
:1031C0004F4B01EB0251002211F0A2FFDAE73EA3C0
:1031D000D3E9002311F09EFF02460B46CAE72CA359
:1031E000D3E900235046594612F046F90B464349AD
:1031F0000246002011F08EFF12F0EEFB019012F05B
:10320000D5F833A3D3E9002306460F4612F034F96C
:1032100002460B465046594611F07AFF2EA3D3E9D9
:103220000023804689463046394612F025F9064685
:103230000F4632463B464046494611F069FF02467A
:103240000B4682468B464046494611F061FF3246A6
:103250003B4611F05DFFCDE90201DCE62B4A9342CB
:1032600000F2958000291AA3D3E90023C0F2AC80B4
:1032700011F04EFF012380468946019316A7D7E936
:103280000067D6E7AFF3008059F3F8C21F6EA501BF
:10329000FE822B654715F73F2DC3096EB7FD8ABE29
:1032A0003952E686CACFD03EB7DBAA9E19CE143F6C
:1032B0008555FE19A0015A3FF41011111111A13FBB
:1032C000EF39FAFE422E86409C7500883CE4377E3A
:1032D0000000E0FE422EE63F763C7935EF39EA3DCC
:1032E00079684340412E86400000E0BFFFFFEF7F3A
:1032F0000000F0BF422ED63FFFFF8F3C0000E03FB2
:103300000000F03F0000084000001840B1A2F03F6C
:103310000022394B5046594612F020FB002844D079
:10332000504659460022354B11F0F4FE02460B463A
:103330003046394611F0ECFE00224FF0404312F0C7
:103340009BF81FE702460B465046594611F0E0FE37
:1033500000222A4B12F090F80022284B11F0D8FEE0
:1033600010E7019C4FF400132341C3F17F575246ED
:103370005B4611F0CDFE002607F5401702460B46CE
:103380003046394611F0C4FE01EB0451FAE616A3AB
:10339000D3E9002312F070F8002C02460B464FF0E0
:1033A0000000FFF61CAE154924E732463B46504666
:1033B000594611F0ADFE02460B4611F0ABFE00225D
:1033C0000F4B11F0A7FEDDE611F0A4FE4FF0FF3326
:1033D00080468946019306A7D7E9006729E7024698
:1033E0000B4611F097FECDE6FE822B654715F73FA1
:1033F000763C7935EF39EABD0000D0BF0000E03FF0
:103400000000F03F00000000F8B5C1F30A56044682
:103410000D460B4617460EBB21F00043034386467C
:1034200025D00022344B12F027F8344A9742044644
:103430000D460B462ADBC1F30A56363E3E4440F2A7
:10344000FE72964228DC002E12DD23F0FF4323F4A7
:10345000E00343EA065520462946F8BD40F2FF72D4
:103460009642EBD102460B4611F054FEF8BDF8BD72
:1034700016F1350F1DDA4CF250339F4222462B468F
:1034800025DC19A1D1E9000114F00CFC16A3D3E945
:10349000002311F0F1FFF8BD22462B4614A1D1E91B
:1034A000000114F0FFFB12A3D3E9002311F0E4FFA5
:1034B000F8BD23F0FF4323F4E003363643EA065514
:1034C0002046294600220E4B11F0D6FFF8BD08A178
:1034D000D1E9000114F0E6FB05A3D3E9002311F0C4
:1034E000CBFFF8BDAFF3008059F3F8C21F6EA50102
:1034F0009C7500883CE4377E00005043B03CFFFFE1
:103500000000903C10B5054C237833B9044B13B13F
:103510000448AFF300800123237010BDB0040020E5
:1035200000000000C4A402080C4B43B10C480D4934
:1035300010B5AFF300800C48036823B910BD0A48EA
:10354000036833B97047094B002BF7D0BDE8104032
:103550001847064B002BF5D0184700BF00000000AD
:10356000C4A40208B40400202804002000000000C5
:10357000154B002B08BF134B9D46A3F5803A002145
:103580008B460F461348144A121A05F0DDFE0F4B06
:10359000002B00D098470E4B002B00D098470020FE
:1035A000002104000D000D48002802D00C480CF04A
:1035B000BBFB14F0E5FC200029000CF095FB0CF09F
:1035C000AFFB00BF000008000080022000000000E8
:1035D000D9FC010830040020682F002029FD0108D3
:1035E00000000000F0B5214D2C6883B014B12046D6
:1035F00003B0F0BD4FF496700CF098FB4FF0FF3124
:103600000646032000F090FE00B202F081FF4FF06A
:10361000FF310746022000F087FE00B202F078FF7B
:103620003946024606F1DC07304609F073F92346B5
:1036300022463846012109F00DF84FF0FF310120F4
:1036400000F072FE00B202F063FF98244FF0050E06
:1036500002468DE810403B46314606F1E40006F094
:10366000D7F9344620462E6003B0F0BDCC040020CC
:103670002DE9F04104460F46FFF7B4FF00F1E405E1
:103680000646284606F0E2F9082C0BD0A4F10903FF
:10369000012B15D93A46214610230D20BDE8F041F3
:1036A00002F016BED6F8E43028461B6A9847022876
:1036B000F0DCD6F8E4302846DB6904219847E9E7D6
:1036C000D6F8E43028461B6A98470528E2DCD6F88D
:1036D000E4302846DB6908219847DBE710B52DED7B
:1036E000028BFFF77FFF00F1E404204607F038FE6D
:1036F00007EE900A2046F8EEE78A07F041FE07EE53
:10370000900A2046B8EEE78A07F04AFE68EE087A8B
:1037100007EE100AE8EEA87AB8EEC77AE7EE077A65
:10372000F5EE407AF1EE10FAB1EEE78A03D517EE26
:10373000900A13F041F9FDEEC87ABDEC028B17EE4A
:10374000900A10BD08B503281CD8DFE800F0140D5E
:103750000602BDE80840FFF7C1BFFFF743FFBDE821
:103760000840E43007F01CBEFFF73CFFBDE808400E
:10377000E43007F005BEFFF735FFBDE80840E43050
:1037800007F0EEBD002008BD08B550B1012806D1F4
:10379000FFF728FFBDE80840E430FBF765B80020DC
:1037A00008BDFFF71FFFBDE80840E430FBF73CB859
:1037B00010B50446FFF716FF2146E430BDE810407F
:1037C00007F0DCBB08B500F09DFFFBF7F1FDBDE89D
:1037D000084000F0E1BC00BF08B500F093FFFBF724
:1037E00057FEBDE8084000F0D7BC00BF08B500F0A8
:1037F00089FF12F00BFCBDE8084000F0CDBC00BF13
:1038000008B500F07FFF13F013F8BDE8084000F0A2
:10381000C3BC00BF08B500F075FFFBF7D9FDBDE8DC
:10382000084000F0B9BC00BF08B500F06BFF12F013
:103830002BFEBDE8084000F0AFBC00BF08B500F0AB
:1038400061FFFBF731F8BDE8084000F0A5BC00BF00
:1038500008B500F057FF12F06BFDBDE8084000F01E
:103860009BBC00BF70B5049E96420C4628DB1546F3
:103870006BB1002A00EB020107DD2046A21811F807
:10388000013D00F8013B9042F9D1002070BD042AAF
:103890000FD0022A02D110F0010306D001462A46B9
:1038A000204604F0DBFC002070BD02880A80184628
:1038B00070BD10F00303F1D102680A60184670BDB4
:1038C0000846002105F040FD4FF0FF3070BD00BFFD
:1038D0000830704740B1002905DB4368994202DA9D
:1038E0000844007A70470020704700BF30B10029BB
:1038F00004DB43689942BCBF40180272704700BFA6
:10390000002B23DB002921DB70B54668B1421ADCAD
:103910005568761A1446EA1AB242A8BF3246002AFF
:1039200011DB84420D4607D0083408300844E11802
:1039300004F094FC002070BD0834E118601914F004
:1039400079FD002070BD4FF0FF3070BD4FF0FF30AB
:10395000704700BF4068704710B4141E10DB426807
:1039600094420DDC33EA230328BF1346121B0830B0
:103970009A422044A8BF1A465DF8044B05F0E4BC07
:103980005DF8044B704700BF43688B4210B400F1F0
:1039900008041846A8BF084632EA220128BF194683
:1039A0001B1A99422044A8BF19465DF8044B00F049
:1039B00099BA00BF002BBCBF43689B1A002A70B5A0
:1039C0000E4622DB44689918A1421EDC8A421CDCA8
:1039D000DBB136F0004118D059428E4213DDB342BC
:1039E00011DD0830002E00EB020516DB9C1B224681
:1039F000A919284614F01EFD324628190021BDE8F9
:103A0000704005F0A1BC002C00DA70BD22460830E1
:103A10000021BDE8704005F097BC74429A19294610
:103A2000281914F007FD224628460021BDE8704001
:103A300005F08ABC70B5044600206168490000F0BA
:103A40002FFA6668002E11DD094D04F1080100EB24
:103A50004606034611F8012B141102F00F022C5DEB
:103A6000AA5C9C71DA7102339E42F3D170BD00BF33
:103A7000908B0208002BBCBF43689B1A002A2FDBE7
:103A800070B445689C18AC4229DCA24227DC33B3F1
:103A900031F0004423D00029B8BF01EB032191FB92
:103AA000F3F603FB1616002E00F10800B8BFF61857
:103AB00002441644B242134411D0304604E0B242EC
:103AC00008460ED090420AD00146147811F8015BE6
