:020000040800F2
:10E0000000800220F9390208DD9C0208DD9C02082C
:10E01000DD9C0208DD9C0208DD9C02080000000077
:10E0200000000000000000000000000055F601089C
:10E03000DD9C020800000000FBF601085BF7010808
:10E04000DD9C0208DD9C0208DD9C0208DD9C0208C4
:10E05000DD9C0208DD9C0208DD9C0208DD9C0208B4
:10E06000DD9C0208DD9C0208DD9C0208DD9C0208A4
:10E07000DD9C0208DD9C0208DD9C0208DD9C020894
:10E08000DD9C0208DD9C0208DD9C020829070208CD
:10E0900015060208DD9C02082D070208DD9C020817
:10E0A000DD9C0208DD9C0208DD9C0208DD9C020864
:10E0B000DD9C0208DD9C020800000000DD9C0208D7
:10E0C000DD9C0208DD9C0208DD9C0208DD9C020844
:10E0D000DD9C0208DD9C0208DD9C0208DD9C020834
:10E0E000DD9C0208DD9C020800000000000000002A
:10E0F0000000000000000000000000000000000020
:10E1000000000000DD9C020800000000DD9C020809
:10E11000DD9C020800000000DD9C020800000000F9
:10E12000DD9C0208DD9C0208DD9C0208DD9C0208E3
:10E13000DD9C0208DD9C0208DD9C02080000000056
:10E14000DD9C0208DD9C0208DD9C0208DD9C0208C3
:10E15000DD9C0208DD9C0208DD9C0208DD9C0208B3
:10E16000DD9C0208DD9C0208DD9C02080000000026
:10E1700000000000DD9C020800000000000000001C
:10E18000DD9C0208DD9C0208DD9C0208DD9C020883
:10E19000DD9C0208000000002DE9F04F85B00391DE
:10E1A0000778A7F10903042B044607F07F0200F16A
:10E1B0000100F5D9202AF3D02B2F04BF677804463D
:10E1C0002D2F72D09FED427B8DED007B4FF000082C
:10E1D0004FF000098FB34FF0000E4FF0000ADFF848
:10E1E00000B1754619E018F0BFFE804689463046FA
:10E1F00018F054FE42464B4618F004FD5246804645
:10E2000089465B46DDE9000135B318F0D7FFCDE95B
:10E210000001AE4614F8017F7FB1A7F13006092E48
:10E2200052465B4640464946DDD9C5B92E2F16D128
:10E2300014F8017F0125002FEFD142464B46DDE95E
:10E24000000118F091FE80468946039B40464946EE
:10E250001C6005B0BDE8F08F4FF0010EDAE7BEF1AB
:10E26000000F29D042464B46DDE9000118F07CFE44
:10E2700007F0DF07452F80468946E6D10399601CE9
:10E280000A221BF03DFC16490246002019F0CCF989
:10E2900002460B464046494618F066FE80468946CF
:10E2A0004046494605B0BDE8F08F9FED0B7B67788F
:10E2B0008DED007B013489E7DFF828904FF00008EE
:10E2C0004046494605B0BDE8F08F00BFAFF300807F
:10E2D000000000000000F03F000000000000F0BF60
:10E2E000000024400000F87F2DE9F84F1646002377
:10E2F000002204460D4619F0A9F8002840F09D8040
:10E30000002200232046294619F096F828B1302231
:10E31000002332707370BDE8F88F2046294619F04B
:10E32000A1FF19F0D1F87BA3D3E900238146294648
:10E33000204619F08BF8002800F08680B9F1000F14
:10E34000C0F2BE804A4600206F4919F06DF90246BE
:10E350000B462046294618F031FF04460D4666A1BB
:10E36000D1E9000101274FF0000822462B4618F0A2
:10E37000FBFD0022654B18F045FC19F091F9002FC8
:10E38000CC464FF0FF3AC1464FF0000840F385807D
:10E39000DFF888E15E4C0122AEF1700945F6F32505
:10E3A0004FF02E0BA94208BFA0424FF0300309D313
:10E3B000001B61EB0501A94208BFA04203F1010364
:10E3C000F6D2DBB2337050EA010306F1010409D141
:10E3D000BA4210DACE4502F101020CD026467EE8A0
:10E3E0000245DFE7BA4204BF86F801B0B41CCE454F
:10E3F00002F10102F2D1B8F1000F0DD02246302116
:10E4000002F8011BC2F1010353442344002BF7DC43
:10E410002AEAEA7301331C44BCF1010F4CD0652396
:10E42000BCF1000F2370C5BF2B236370611CA11CBE
:10E430006046BDE8F84F0DF079BB05F100431D467D
:10E440002D23337001365BE72DA3D3E9002320464B
:10E45000294619F019F800287FF470AFB9F10E0FB2
:10E4600009F101073DDDA9F10E08424600202649C9
:10E4700019F0DAF802460B462046294618F09EFEAF
:10E480000022224B18F0BEFB19F00AF9002FA9F167
:10E490000F0A4FF0010C3FF77BAF334630222E249A
:10E4A00003F8022B74707FEA090618D01E4403F8A3
:10E4B000012BB342FBD16BE700232370BDE8F88F3B
:10E4C000C9F100020020104919F0AEF802460B46CF
:10E4D0002046294618F048FD04460D463FE71E46F3
:10E4E00056E7C9F10E0200200749C84619F09CF80A
:10E4F0004FF0010939E700BF0000901EC4BCD642AE
:10E5000050EFE2D6E41A4B44000024400000E03F04
:10E5100000407A108DEDB5A0F7C6B03EA0A4020869
:10E5200070B54FF0FF3006F095F904466FF07F406C
:10E5300006F090F90646204618F0A0FC00220C4B8D
:10E5400018F012FD044630460D4618F097FC06A35D
:10E55000D3E9002318F032FE02460B462046294636
:10E5600018F050FB70BD00BF0000E0DFFFFF6F43FD
:10E570000000F03D00000000294B70B50646186809
:10E580000D4609F04DFB00283DDB09F0D5F8002EC3
:10E59000044639DD234B186818F080FC1EA3D3E92C
:10E5A000002318F0E1FC0022002318F02BFB18F0E8
:10E5B0008BFF236820EAE071B1F5806FA8BF4FF4AC
:10E5C0008061DB682046984723681749D3F880307C
:10E5D00091FBF6F120469847002D14DDA5F11406B5
:10E5E000012EB8BF012630460EF07AF82368204687
:10E5F000DB6800219847A81B0128B8BF0120BDE8AF
:10E6000070400EF06DB870BD03680021DB68BDE896
:10E6100070401847AFF30080101010101010104019
:10E62000E40500200802002040420F000000000026
:10E6300038B5154B1B68002B04460CBF182005206D
:10E6400009F07AF80546204618F028FC0CA3D3E917
:10E65000002318F089FC0022002318F0D3FA18F0E8
:10E6600033FF2B6820EAE071B1F5007FDB68A8BFBB
:10E670004FF4007128469847044B1C6038BD00BF1A
:10E680001010101010100040E405002008020020B7
:10E6900030B52D4B8DB01A680092009A120205D445
:10E6A000009A42F400020092009A1A60274A284B0E
:10E6B000126801921B6802930EF0C8FD18F0EEFB81
:10E6C000CDE90401019B9BB20193029B9BB2029393
:10E6D000DDE904011AA3D3E9002318F045FC1D4B22
:10E6E0000022CDE90401CDE906230298019BC01A5E
:10E6F00018F0C4FBCDE90801DDE90445019818F0E4
:10E70000BDFB02460B462046294618F079FACDE9B2
:10E710000A01DDE90601DDE90823DDE90A4518F013
:10E720004DFD22462B4618F01FFC00220A4B18F024
:10E7300069FA18F0F1FE039003980DB030BD00BFE8
:10E740009A9999999999F13F08030450A875FF1F68
:10E75000CA75FF1F0000544000003E40000000004A
:10E760002DE9F04F2DED028B044683B0C06818F000
:10E7700095FB80462069894618F090FB82466069C7
:10E780008B4618F08BFB024601F1004306460F460C
:10E790004046494619F012FC18F0DEFEE0620546DC
:10E7A00019F0C0FA0190284619F070FA019B05464D
:10E7B000184618F085FB42464B4618F0D5FB8046BC
:10E7C0002846894618F07CFB32463B4618F0CCFBC5
:10E7D00002460B464046494618F012FA02460B46DE
:10E7E0005046594619F0EAFB18F0B6FE002208EE32
:10E7F000100A00233046394618F046FE28B3B5EE1D
:10E80000C08AF1EE10FA1CDD11A7D7E9006718EEF7
:10E81000100A18F055FB02460B463046394618F0F0
:10E82000EFF932463B4618F0EDF918F095FEA0627C
:10E83000E38843F00203E38003B0BDEC028BBDE844
:10E84000F08F05A7D7E90067E1E784ED0A8AEFE7D3
:10E85000EA2E4454FB21F93FEA2E4454FB21F9BF30
:10E8600008B50EF025FCDFED0C7A07EE100A67EE16
:10E87000277A17EE900A18F023FB05A3D3E90023AB
:10E8800018F09CFC18F020FE08BD00BFAFF300801C
:10E89000EA2E4454FB2119400000B443000000005C
:10E8A00008B50EF019FCDFED0C7A07EE100A67EEE2
:10E8B000277A17EE900A18F003FB05A3D3E900238B
:10E8C00018F07CFC18F000FE08BD00BFAFF300801C
:10E8D000EA2E4454FB2119400000B443000000001C
:10E8E000494A21F0004393422DE9704304460D4606
:10E8F0004BDC464A93420E460EDC3FA3D3E900238D
:10E9000018F080F90022424B18F0BEFD00284CD0D0
:10E9100020462946BDE870833E4A93423BDCB3F172
:10E92000804F42DD19F098F82246804689462B46F2
:10E930002046294618F018FB0022354B18F062F9E2
:10E9400019F04EFF02460B464046494618F05AF968
:10E9500002460B4600202E4918F030FC4246044681
:10E960000D464B464046494618F04CF902460B46C8
:10E970002046294618F046F902F06AF8002EC9DC54
:10E9800001F100431946BDE8708302460B4618F0BA
:10E9900039F9BDE8708319F05FF802F059F818A34F
:10E9A000D3E9002318F02EF9E8E722462B4620464B
:10E9B000294618F0D9FA804689462046294619F09A
:10E9C0004BF8002204460D46114B4046494618F0CC
:10E9D00019F919F005FF00220D4B18F013F9024642
:10E9E0000B464046494618F0E9FB22462B4618F0F4
:10E9F00009F900F0C5FAC1E79C7500883CE4377E50
:10EA0000EF39FAFE422EE63FFFFFEF7FFFFF2F3E7A
:10EA10000000F03F0000B0412DE9F84FC44B21F059
:10EA200000469E4204460D468A460EDDC14B9E427C
:10EA300000F3AC8000F0A780BAF1000F40F3EA8049
:10EA40009FA1D1E90001BDE8F88FBB4B9E4200F3C6
:10EA5000B580A3F1DE739E4240F3A0804FF0FF3BF0
:10EA600022462B462046294618F07EFA02460B46DF
:10EA70008046894618F078FA93A3D3E90023064626
:10EA80000F4618F071FA92A3D3E9002318F0BAF8F0
:10EA900032463B4618F068FA8FA3D3E9002318F0FA
:10EAA000B1F832463B4618F05FFA8DA3D3E9002354
:10EAB00018F0A8F832463B4618F056FA8AA3D3E974
:10EAC000002318F09FF832463B4618F04DFA88A311
:10EAD000D3E9002318F096F842464B4618F044FA62
:10EAE00085A3D3E90023804689463046394618F08D
:10EAF0003BFA83A3D3E9002318F082F832463B4661
:10EB000018F032FA80A3D3E9002318F079F83246DE
:10EB10003B4618F029FA7EA3D3E9002318F070F8D9
:10EB200032463B4618F020FA7BA3D3E9002318F0C5
:10EB300067F832463B4618F017FABBF1FF3F024632
:10EB40000B466CD04046494618F05CF822462B46EE
:10EB500018F00AFA794E7A4B4FEACB0B5E449B448D
:10EB6000DBE9002318F04CF822462B4618F048F851
:10EB700002460B46D6E9000118F042F8BAF1000F40
:10EB800043DBBDE8F88F00283FF456AF22462B4602
:10EB90002046294618F036F8BDE8F88F60A3D3E97F
:10EBA000002318F02FF80022664B18F06DFC0028A7
:10EBB0003FF454AF20462946BDE8F88F18F04CFFCB
:10EBC000614B9E4204460D4639DCA3F550239E421C
:10EBD0005EDC02460B4618F015F80022594B18F07F
:10EBE0000FF8002206460F464FF080432046294684
:10EBF00018F008F802460B463046394618F0DEFA9F
:10EC00004FF0000B04460D462AE701F10043194678
:10EC1000BDE8F88F44A1D1E90001BDE8F88F404676
:10EC2000494617F0EFFF22462B4618F09DF90246A1
:10EC30000B462046294617F0E3FFBDE8F88F434B0B
:10EC40009E421ADC0022424B17F0DAFF00220646F1
:10EC50000F463F4B2046294618F086F90022394BD3
:10EC600017F0D0FF02460B463046394618F0A6FA98
:10EC70004FF0020B04460D46F2E602460B4600201A
:10EC8000344918F09BFA4FF0030B04460D46E7E6B3
:10EC900000222C4B17F0B4FF002206460F46294BEA
:10ECA0002046294617F0AEFF02460B46304639464D
:10ECB00018F084FA4FF0010B04460D46D0E600BF71
:10ECC000182D4454FB21F93F11DA22E33AAD903F6D
:10ECD000EB0D76244B7BA93F513DD0A0660DB13F93
:10ECE0006E204CC5CD45B73FFF8300922449C23FFB
:10ECF0000D5555555555D53F2F6C6A2C44B4A2BFC0
:10ED00009AFDDE522DDEAD3F6D9A74AFF2B0B33F87
:10ED1000711623FEC671BC3FC4EB98999999C93FFF
:10ED20009C7500883CE4377E182D4454FB21F9BFC4
:10ED3000FFFF0F440000F07FFFFFDB3FB0A402089D
:10ED4000D0A402080000F03FFFFFF23FFF7F034026
:10ED50000000F83F0000F0BF2DE9F843C1F30A5965
:10ED6000A9F2FF35132D02460B460C46064688468F
:10ED7000074622DC002D50DBDFF8F09049FA05F958
:10ED800001EA090E5EEA06061CD036A3D3E9002389
:10ED900017F038FF0022002318F076FB48B1002C52
:10EDA00004DD4FF4801343FA05F5A84428EA09046A
:10EDB000002721463846BDE8F883332D06DDB5F53A
:10EDC000806F3DD010461946BDE8F883A9F213497B
:10EDD0004FF0FF3E2EFA09F910EA090FF2D021A3F5
:10EDE000D3E9002317F00EFF0022002318F04CFB9C
:10EDF0000028DED0002C09DD142D2BD00127C5F111
:10EE0000340507FA05F5AE1928BFB844444626EA8A
:10EE1000090721463846BDE8F88312A3D3E9002349
:10EE200017F0F0FE0022002318F02EFB0028C0D0BF
:10EE3000002C0BDB54EA060706D00027084CB8E785
:10EE400017F0E0FEBDE8F8833C46B2E700274FF03C
:10EE50000044AEE704F10108D8E700BFAFF300803B
:10EE60000000F03F9C7500883CE4377EFFFF0F00F8
:10EE70002DE9F041C1F30A57A7F2FF35132D0246E1
:10EE80000B460C46884606461CDC002D3FDB3A4FFD
:10EE90002F41864601EA070C5CEA0E0E17D034A318
:10EEA000D3E9002317F0AEFE0022002318F0ECFA9D
:10EEB00020B1002C3FDB28EA07040026214630461B
:10EEC000BDE8F081332D06DDB5F5806F2FD01046FB
:10EED0001946BDE8F081A7F213474FF0FF3E2EFA26
:10EEE00007F73842F3D022A3D3E9002317F08AFEB4
:10EEF0000022002318F0C8FA0028DFD0002C20DB05
:10EF0000444626EA070621463046BDE8F08118A3AC
:10EF1000D3E9002317F076FE0022002318F0B4FA9C
:10EF20000028CBD0002C17DB00263446C6E717F0AC
:10EF300069FEBDE8F0814FF4801343FA05F5A8445B
:10EF4000B9E7142D10D00123C5F1340503FA05F5F6
:10EF5000AE1928BF9844D3E724F00042074B324350
:10EF600018BF1C460026A9E704F10108C8E700BF46
:10EF70009C7500883CE4377EFFFF0F000000F0BF67
:10EF80002DE9F04FD84B994287B0804689460E460E
:10EF900013DCD64B21F000449C4218DD0022D44BF8
:10EFA00018F04AFA002879D0002200230020D14925
:10EFB00018F004F907B0BDE8F08FCF4B99422FDD70
:10EFC00042464B4617F01EFE07B0BDE8F08FCB4B14
:10EFD0009C4270DDCA4B1E449E427ED80022C94B23
:10EFE0004046494617F00EFE4FEA215AAAF2FF3A70
:10EFF000BAF1000F04460D460E4640F3DE8142464C
:10F000004B4617F0FDFD02460B460020BD4917F0A8
:10F01000F7FD22462B4618F0D1F8CDE902010BE0AE
:10F02000B94B9E42DADD9FED9A7B8DED027B4FEA74
:10F03000265A4446AAF2FF3AB44BC6F313069E4240
:10F0400046F07F5500F3E78045F4401520462946F9
:10F050000022AC4B17F0D4FD002204460D46AC4B09
:10F0600017F082FF22462B4617F07EFFA046CDE91F
:10F070000401A946CDE90001002E3AD10022002367
:10F080002046294618F0D8F9002800F0CE80BAF1C1
:10F09000000F40F074810020002195E742464B4666
:10F0A0004046314617F0ACFD02460B4618F086F894
:10F0B00007B0BDE8F08F0022964B17F0A3FD0022A9
:10F0C000002318F0E1F9002800F0CC80924B9C421C
:10F0D00000F3C8804046494676E700228C4B17F083
:10F0E00043FF42464B4617F03FFFCDE900014FF08A
:10F0F000000A00224FF080434046494617F082FD47
:10F1000002460B464046494618F058F802460B4660
:10F1100006460F4617F028FF5FA3D3E900230446F5
:10F120000D4617F021FF5EA3D3E9002317F06AFD17
:10F1300022462B4617F018FF5BA3D3E9002317F0F4
:10F1400061FD22462B4617F00FFF59A3D3E9002398
:10F1500017F058FD22462B4617F006FF56A3D3E9B9
:10F16000002317F04FFD22462B4617F0FDFE54A357
:10F17000D3E9002317F046FD22462B4617F0F4FE94
:10F1800051A3D3E9002317F03DFD22462B4617F08B
:10F19000EBFE04460D46BAF1000F00F0BF8050466A
:10F1A00017F07CFE4AA3D3E9002382468B4617F072
:10F1B000DBFEDDE90023CDE904012046294617F0F6
:10F1C00021FD32463B4617F0CFFE43A3D3E900238F
:10F1D00004460D465046594617F0C6FEDDE90223A7
:10F1E00017F010FD02460B462046294617F00AFD8F
:10F1F00002460B46DDE9000117F002FD42464B4690
:10F2000017F0FEFC02460B46DDE9040117F0F8FC9E
:10F2100007B0BDE8F08F45F40015C6F5801620460E
:10F220002946B6100AF1010A12E72DA3D3E90023FB
:10F230002046294617F098FE02460B460020314929
:10F2400017F0DEFCDDE9042317F08EFE06460F46BC
:10F25000BAF1000F73D102460B462046294617F03B
:10F26000CFFCB1E642464B464046494617F07CFE8D
:10F270000022274B17F078FE02460B4640464946CF
:10F2800017F0BEFC07B0BDE8F08F00BFAFF3008001
:10F29000000000000000000044523EDF12F1C23FB7
:10F2A0009FC678D0099AC33FDE03CB966446C73F1A
:10F2B000AF788E1DC571CC3F599322942449D23F1B
:10F2C00004FA97999999D93F935555555555E53F66
:10F2D0000000E0FE422EE63F763C7935EF39EA3D0C
:10F2E000555555555555E53F7982DA3FFFFFEF3FBC
:10F2F0000000F0BF000050C3FFFFEF7FFFFF1F3E85
:10F300003C412D400000F03FFFFF3F439DA0060021
:10F310000000E03F00005043FFFF8F3CDDE9004567
:10F3200022462B4617F06EFC32463B4617F01CFE79
:10F3300002460B462046294617F062FC9CE75046E1
:10F3400017F0ACFD23A3D3E9002382468B4617F0C8
:10F350000BFE22A3D3E90023804689465046594636
:10F3600017F002FEDDE9022317F04CFC02460B46C3
:10F370003046394617F044FC22462B46DCE750461F
:10F3800017F08CFD15A3D3E9002306460F4617F0AE
:10F39000EBFDDDE9022317F035FC0EA3D3E90023D2
:10F3A00004460D463046394617F0DEFD02460B4650
:10F3B0002046294617F026FC06E60022044B17F0EB
:10F3C0001FFC02460B464046494617F019FC20E652
:10F3D0000000F03F0000E0FE422EE63F763C79352B
:10F3E000EF39EA3D0000000008B518F0BBFE04A3A9
:10F3F000D3E9002317F0E2FE08BD00BFAFF30080A1
:10F40000EF39FAFE422EE63F2DE9F043DFF8B480F3
:10F410008BB004460D4601F0F3F898F90030013343
:10F4200006460F462BD022462B462046294618F08A
:10F4300035F8814618BB2046294618F00DFB1FA35E
:10F44000D3E9002318F020F8C8B1194A98F9003020
:10F45000CDF820900321CDE90445CDE902458DE8A2
:10F4600006008BB9134B4FF06042CDE90623684686
:10F470001AF044F870B1089B9BB9DDE90667304685
:10F4800039460BB0BDE8F0830B490020022BCDE9D3
:10F490000601ECD11AF0B0F922230360089B002B7F
:10F4A000EBD01AF0A9F9089B0360E6E7AFF3008000
:10F4B000A8BA0208FFFFEF470000F07F7DF8B98F80
:10F4C000CE338640060400202DE9F043DFF8E480C7
:10F4D0008BB004460D4601F043F998F90030013332
:10F4E00006460F4633D0204629461AF001F870B37D
:10F4F0002CA3D3E900232046294617F0C5FF8146F7
:10F5000050BB2AA3D3E900232046294617F09EFFCB
:10F51000E8B198F90030204ACDF820900026002765
:10F520000421022BCDE90445CDE90245CDE906676A
:10F530008DE8060029D0684619F0E0FF28B3089B43
:10F540001BB11AF059F9089B0360DDE906673046E4
:10F5500039460BB0BDE8F0830F4A98F900300192AC
:10F5600003210022CDE90445CDE90245009108922E
:10F570002BB90A4B4FF06042CDE90623DBE708497F
:10F580000020022BCDE90601D5D11AF035F922234E
:10F590000360D4E7AFF30080B0BA0208FFFFEF4783
:10F5A0000000F07FEF39FAFE422E864051302DD513
:10F5B000104987C0060400202DE9F04FDFF80C93B6
:10F5C0008DB006460F4614461D4601F0C5FC99F95C
:10F5D0000080B8F1FF3FCDE9000136D022462B462E
:10F5E0002046294617F05AFF834670BB32463B46F9
:10F5F0003046394617F052FF8246002840F0A2807C
:10F60000304639460022002317F016FF10B30022BF
:10F6100000232046294617F00FFF834600286AD0B2
:10F620009FEDA17B0122A44BCDF828A00292CDE949
:10F630000467CDE906458DED087B0393B8F1000F13
:10F6400045D09FED9B7B8DED007BDDE900010DB08A
:10F65000BDE8F08FDDE9000119F04AFF804600287F
:10F6600000F08D804FF0000A4FF0000BDDE9000143
:10F6700052465B4617F0E0FE0028E6D03046394699
:10F6800019F036FF0028E0D02046294619F030FF57
:10F690000028DAD099F90030874A03920421002229
:10F6A000022BCDE90467CDE90645CDE908AB02910F
:10F6B0000A9203D002A819F021FF68B91AF09CF849
:10F6C0002223036008E09FED787B8DED087B02A884
:10F6D00019F014FF002830D00A9B1BB11AF08CF8E7
:10F6E0000A9B03609DED087B8DED007BDDE9000149
:10F6F0000DB0BDE8F08F2046294619F0F9FE00282C
:10F70000A3D0002200232046294617F09FFE0028A0
:10F710009BD099F90030684ACDF828B00121CDE995
:10F720000467CDE9064502910392002BCBD06349D3
:10F730000020022BCDE90801C9D11AF05DF8212380
:10F740000360C9E7002200232046294617F074FE13
:10F7500000283FF47AAF5A4B5749CDF828B0002221
:10F760000120B8F1020FCDE904670290CDE906450A
:10F77000CDE908230391AAD1CDE9002365E73046FE
:10F78000394619F0B5FE00283FF46CAF20462946F3
:10F7900019F0AEFE00283FF465AFDDE90023104606
:10F7A000194617F07BFE00285FD1032399F90080EA
:10F7B0000293414B0A90CDE90467CDE906450393D6
:10F7C000B8F1000F2BD1DFF808B14FF0604A0022EA
:10F7D000002330463946CDE908AB17F037FE002844
:10F7E0003FF468AF0022374B2046294617F0BCFB98
:10F7F00004460D4619F08AFE02460B46204629466D
:10F8000017F01AFE70BB304B99F900804FF0604240
:10F81000CDE90823B8F1020F7FF44CAF4EE7DFF8D3
:10F82000B4B04FF0000A0022002330463946CDE93B
:10F8300008AB17F00BFE0028ECD00022214B20462D
:10F84000294617F091FB04460D4619F05FFE02466B
:10F850000B462046294617F0EFFD18B9174B00223A
:10F86000CDE9082399F90080D4E799F90090124B6B
:10F87000CDF828800122CDE90467CDE90645029242
:10F880000393B9F1000F3FF41EAF0022002310468E
:10F89000194617F093FCB9F1020FCDE908013FF4C6
:10F8A0004CAF14E7AFF30080000000000000000040
:10F8B000000000000000F03FC8BA02080000F0FF9E
:10F8C0000000F03F0000E03FFFFFEFC7060400200C
:10F8D000FFFFEF470000F07F2DE9F84FC44E21F005
:10F8E0000043B34204460D460DDD03F1404303F5EA
:10F8F0008013034340F0B980002940F34081002089
:10F900000021BDE8F88FBB4EB34240F3A68000292A
:10F91000C0F2788102460B460020B74917F070F913
:10F920000022B64B17F020FB04460D4618F058FF96
:10F9300095A3D3E90023894680462946204617F03F
:10F9400013FB93A3D3E9002317F05CF922462B465F
:10F9500017F00AFB90A3D3E9002317F051F92246D0
:10F960002B4617F001FB8EA3D3E9002317F04AF9C9
:10F9700022462B4617F0F8FA8BA3D3E9002317F0A1
:10F980003FF922462B4617F0EFFA89A3D3E900236B
:10F9900017F038F922462B4617F0E6FA86A3D3E98A
:10F9A000002382468B462046294617F0DDFA84A3C1
:10F9B000D3E9002317F024F922462B4617F0D4FA96
:10F9C00081A3D3E9002317F01DF922462B4617F037
:10F9D000CBFA7FA3D3E9002317F012F922462B4676
:10F9E00017F0C2FA0022844B17F00CF902460B46BE
:10F9F0005046594617F0E2FB42464B4617F0B4FA20
:10FA0000002682468B4632464B463046494617F022
:10FA1000ABFA02460B462046294617F0F1F832466B
:10FA200004460D464B464046494617F0EBF8024661
:10FA30000B462046294617F0C1FB02460B465046AE
:10FA4000594617F0DFF832464B4617F0DBF802460E
:10FA50000B4617F0D7F8BDE8F88F694A93420EDCE1
:10FA60005DA1D1E90001BDE8F88F02460B4617F011
:10FA7000C7F802460B4617F0A1FBBDE8F88F024617
:10FA80000B4617F071FA40A3D3E9002306460F4650
:10FA900017F06AFA3EA3D3E9002317F0B3F8324611
:10FAA0003B4617F061FA3CA3D3E9002317F0A8F80E
:10FAB00032463B4617F058FA39A3D3E9002317F032
:10FAC000A1F832463B4617F04FFA37A3D3E900239B
:10FAD00017F096F832463B4617F046FA34A3D3E9BE
:10FAE000002317F08FF832463B4617F03DFA32A359
:10FAF000D3E90023804689463046394617F034FA68
:10FB00002FA3D3E9002317F07BF832463B4617F0CA
:10FB10002BFA2DA3D3E9002317F074F832463B46A5
:10FB200017F022FA2AA3D3E9002317F069F8324626
:10FB30003B4617F019FA00222F4B17F063F80246E4
:10FB40000B464046494617F039FB22462B4617F034
:10FB50000BFA02460B4622A1D1E9000117F050F83A
:10FB600002460B462046294617F04AF802460B4645
:10FB700019A1D1E9000117F043F8BDE8F88F1AA1E7
:10FB8000D1E90001BDE8F88F09F7FD0DE13D023F25
:10FB900088B20175E0EF493F3B8F68B52882A43FEA
:10FBA0005544880E55C1C93F7D6FEB0312D6D43F33
:10FBB000555555555555C53F82922EB1C5B8B33FE1
:10FBC00059018D1B6C06E63FC88A599CE52A004006
:10FBD0004B2D8A1C273A0340182D4454FB21F93F32
:10FBE000075C143326A6913C182D4454FB21094090
:10FBF000FFFFEF3FFFFFDF3F0000F03F0000E03F6F
:10FC00000000603C00225C4B16F0FCFF00225B4BC6
:10FC100017F0AAF940A3D3E9002304460D4617F0D4
:10FC2000A3F93FA3D3E9002316F0ECFF22462B46AD
:10FC300017F09AF93CA3D3E9002316F0E1FF22461E
:10FC40002B4617F091F93AA3D3E9002316F0DAFF17
:10FC500022462B4617F088F937A3D3E9002316F084
:10FC6000CFFF22462B4617F07FF935A3D3E90023B7
:10FC700016F0C8FF22462B4617F076F980468946D3
:10FC80002046294618F0ACFD2FA3D3E900230646F1
:10FC90000F462046294617F067F92DA3D3E9002324
:10FCA00016F0AEFF22462B4617F05EF92AA3D3E9E1
:10FCB000002316F0A7FF22462B4617F055F928A37C
:10FCC000D3E9002316F09CFF22462B4617F04CF98F
:10FCD0000022294B16F096FF02460B464046494645
:10FCE00017F06CFA32463B4617F03EF91EA3D3E9F3
:10FCF000002316F085FF32463B4616F083FF02468E
:10FD00000B4616F07FFF02460B4619A1D1E9000110
:10FD100016F076FFBDE8F88F09F7FD0DE13D023FD3
:10FD200088B20175E0EF493F3B8F68B52882A43F58
:10FD30005544880E55C1C93F7D6FEB0312D6D43FA1
:10FD4000555555555555C53F82922EB1C5B8B33F4F
:10FD500059018D1B6C06E63FC88A599CE52A004074
:10FD60004B2D8A1C273A0340075C143326A6913C8E
:10FD7000182D4454FB2109400000F03F0000E03FF3
:10FD8000434A91422DE9F84304460D4639DD414A84
:10FD9000914209DD02F17952914240DD02460B4663
:10FDA00016F030FFBDE8F88301F1404202F5801201
:10FDB000024330D0B1F1804F3ADC0022364B16F0CE
:10FDC0001FFF02460B4604460D4616F01BFF224657
:10FDD00006460F462B462046294617F0C5F8024630
:10FDE0000B463046394616F00DFF18F0F9FC0B466D
:10FDF00002462946204616F005FFBDE8F843FFF706
:10FE0000BFB802460B4616F0FBFE02460B4617F043
:10FE1000D5F9BDE8F88300200021BDE8F88300F0A3
:10FE200017FE19A3D3E9002316F0ECFEBDE8F88312
:10FE300002460B4617F098F80022174B16F0E0FE2A
:10FE400018F0CEFC2246804689462B46204629469D
:10FE500016F0D8FE424606460F464B462046294637
:10FE600016F0D0FE02460B4600200B4917F0A6F90B
:10FE70000B4602463946304616F0C2FEBDE8F8434E
:10FE800000F0E6BDAFF30080EF39FAFE422EE63F08
:10FE9000FFFFEF3FFFFFAF410000F03F0000000019
:10FEA0002DE9F047BE4B21F00048984584B0044648
:10FEB0000D4612DD08F1404808F58018034658EA5F
:10FEC000030321D002460B4616F09AFE02460B466B
:10FED00017F074F904B0BDE8F087B24B98458A4634
:10FEE00029DCB8F1795F80F2658191A3D3E9002321
:10FEF00016F088FE0022AC4B17F0C6FAD8B12046A7
:10FF0000294604B0BDE8F0878BA3D3E9002317F09E
:10FF10002BF88BA3D3E9002306460F46204629463B
:10FF200017F022F802460B463046394616F06AFEB4
:10FF300004B0BDE8F0872046294617F08DFD024643
:10FF40000B460020984916F05BFE0022974B17F0F5
:10FF50000BF87DA3D3E9002304460D4617F004F8FF
:10FF60007BA3D3E9002316F04DFE22462B4616F064
:10FF7000FBFF79A3D3E9002316F042FE22462B466D
:10FF800016F0F2FF76A3D3E9002316F03BFE2246DB
:10FF90002B4616F0E9FF74A3D3E9002316F030FED8
:10FFA00022462B4616F0E0FF71A3D3E9002316F09A
:10FFB00029FE22462B4616F0D7FF6FA3D3E9002374
:10FFC000CDE900012046294616F0CEFF6CA3D3E907
:10FFD000002316F015FE22462B4616F0C5FF6AA335
:10FFE000D3E9002316F00EFE22462B4616F0BCFF86
:10FFF00067A3D3E9002316F003FE22462B4616F032
:020000040801F1
:10000000B3FF694B002216F0FDFDCDE90201204649
:10001000294618F0E5FB664B984506460F4666DC18
:10002000DDE90223DDE9000117F0C8F83246CDE929
:1000300000013B463046394616F0E4FD02460B46C9
:10004000DDE9000116F090FF4FF00008CDE9000156
:1000500042463B464046394616F086FF02460B466E
:100060002046294616F0CCFD424604460D463B4646
:100070003046394616F0C6FD02460B462046294654
:1000800017F09CF802460B4616F0BCFD02460B46E4
:100090002BA1D1E9000116F0B3FD02460B46DDE9C4
:1000A000000116F0ADFD424604460D463B46404673
:1000B000394616F0A7FD02460B4637A1D1E90001EB
:1000C00016F09EFD02460B462046294616F098FD86
:1000D00002460B4630A1D1E9000116F091FDBAF1BC
:1000E000000F3FF7F7AE01F100431946F2E6DDE9F4
:1000F0000223DDE9000117F061F832463B4616F0B5
:1001000033FF32463B4616F07DFD02460B4616F0A5
:1001100079FD0BA3D3E9002316F072FD02460B46CE
:1001200005A1D1E9000116F06BFDD8E7AFF300801F
:100130009C7500883CE4377E182D4454FB21F93F20
:10014000075C143326A6913C09F7FD0DE13D023F03
:1001500088B20175E0EF493F3B8F68B52882A43F24
:100160005544880E55C1C93F7D6FEB0312D6D43F6D
:10017000555555555555C53F82922EB1C5B8B33F1B
:1001800059018D1B6C06E63FC88A599CE52A004040
:100190004B2D8A1C273A0340182D4454FB21E93F7C
:1001A000FFFFEF3FFFFFDF3F0000F03F0000E03FB9
:1001B0003233EF3F02460B4616F0D6FE37A3D3E9A3
:1001C000002306460F4616F0CFFE36A3D3E90023E0
:1001D00016F018FD32463B4616F0C6FE33A3D3E9AF
:1001E000002316F00DFD32463B4616F0BDFE31A34E
:1001F000D3E9002316F006FD32463B4616F0B4FE66
:100200002EA3D3E9002316F0FBFC32463B4616F042
:10021000ABFE2CA3D3E9002316F0F4FC32463B4698
:1002200016F0A2FE29A3D3E9002380468946304672
:10023000394616F099FE27A3D3E9002316F0E0FC17
:1002400032463B4616F090FE24A3D3E9002316F075
:10025000D9FC32463B4616F087FE22A3D3E90023A1
:1002600016F0CEFC32463B4616F07EFE00220A4BCC
:1002700016F0C8FC02460B464046494616F09EFF63
:1002800022462B4616F070FE22462B4616F0BAFC8C
:1002900004B0BDE8F08700BF0000F03F09F7FD0D96
:1002A000E13D023F88B20175E0EF493F3B8F68B501
:1002B0002882A43F5544880E55C1C93F7D6FEB038A
:1002C00012D6D43F555555555555C53F82922EB13E
:1002D000C5B8B33F59018D1B6C06E63FC88A599CCF
:1002E000E52A00404B2D8A1C273A034000000000FD
:1002F0002DE9F84F1D465342134325F0004ADFF81D
:10030000E0E14AEAD3737345144606460F4647D8E0
:10031000C0F1000848EA000821F0004343EAD87819
:10032000F0458B463CD805F1404808F5801858EA5E
:10033000020850D04FEAA57808F0020848EAD178C0
:1003400050EA030134D052EA0A023CD0F24557D0B9
:10035000734538D0A3EB0A031B153C2B42DC002D60
:1003600070DB22462B463046394616F027FF17F041
:1003700073FBFEF751FBB8F1010F5FD0B8F1020F2C
:100380004ED0B8F1000F62D043A3D3E9002316F09A
:1003900037FC43A3D3E9002316F032FCBDE8F88F05
:1003A00032463B462046294616F02CFCBDE8F88F25
:1003B000B8F1020F1AD0B8F1030F10D13AA1D1E968
:1003C0000001BDE8F88FBBF1000F14DB38A1D1E9C3
:1003D0000001BDE8F88FBDE8F84FFEF71DBB3946B8
:1003E000BDE8F88F32A1D1E90001C4E72CA1D1E921
:1003F0000001BDE8F88F30A1D1E90001BDE8F88F18
:10040000534526D0B8F1020FF0D0B8F1030FD5D084
:10041000B8F1010F4FF0000029D00021BDE8F88F9E
:100420001DA3D3E9002316F0EBFB02460B461CA1EB
:10043000D1E9000116F0E4FBBDE8F88F01F10041BD
:10044000BDE8F88F3C338CDA0020002193E7BDE84B
:10045000F88FB8F1020F18D0B8F1030F10D0B8F12F
:10046000010F08D016A1D1E90001BDE8F88F4FF0C7
:100470000041BDE8F88F14A1D1E90001BDE8F88F73
:1004800013A1D1E90001BDE8F88F13A1D1E9000162
:10049000BDE8F88FAFF30080075C143326A6A13CBB
:1004A000182D4454FB210940182D4454FB2109C048
:1004B000182D4454FB21F93F182D4454FB21F9BF5A
:1004C000182D4454FB21E93F182D4454FB21E9BF6A
:1004D000D221337F7CD902C0D221337F7CD9024024
:1004E0000000F07F0000000043422DE9F047034385
:1004F00021F000463E4A46EAD373934204460D4635
:1005000013D896423DD03B4B9E428A4617DC36A319
:10051000D3E9002316F076FB0022002316F0B4FF87
:10052000A8B320462946BDE8F08702460B4616F0E0
:1005300067FB02460B4616F041FEBDE8F0872E4BE6
:100540009E42354624DD33460246314616F05AFBBC
:10055000224606460F462B460020254916F050FB42
:1005600002460B463046394616F028FEFEF708FDD7
:100570000022224B16F0F8FCBAF1000F2FDBBDE889
:10058000F0870022002316F019FEBDE8F0873546FB
:1005900022462B462046294616F034FB22462B469F
:1005A00006460F4616F0E0FC2246804689462B465A
:1005B00000200F4916F024FB02460B4640464946F0
:1005C00016F0FCFD32463B4616F01CFBFEF7D8FC4D
:1005D00000220A4B16F0C8FCBAF1000FCFDA01F185
:1005E00000431946BDE8F0879C7500883CE4377EDF
:1005F0000000F03FFFFF2F3EFFFFDF3F0000E03F26
:100600002DE9F8434E4B21F000449C4206460F462C
:100610001BDC4C4B9C4222DD4B4B9C4263DD4B4B25
:100620009C427BDD4A4B9C4246DD01339C4240D0DC
:1006300041A3D3E900231046194616F095FC06465F
:100640000F4630463946BDE8F88302460B4616F0A1
:100650008BFC06460F4630463946BDE8F88317F056
:10066000FBF902F0B1FC00223A4B8046894616F0B5
:10067000C9FAB4F1725F06460F46ECDB42464B46C0
:100680004046494616F070FC32463B4604460D464D
:100690003046394616F0B6FA02460B462046294641
:1006A00016F08CFD00222B4B16F0ACFA06460F46D6
:1006B000D1E7294B9842BBD83046394617F0CCF9E0
:1006C0000022264B16F050FC00F04AF800220446A7
:1006D0000D46224B16F048FC22462B4616F044FCF1
:1006E00006460F46B7E717F0B7F900F039F80022D1
:1006F0001A4B06460F4616F037FC32463B46044678
:100700000D460020154916F059FD02460B462046BD
:10071000294616F077FA06460F469CE717F09CF933
:1007200000F01EF800220D4B16F01EFC06460F4688
:1007300091E700BFAFF300809C7500883CE4377EF2
:10074000FFFFEF7F422ED63FFFFF3540412E864010
:10075000CD3386400000F03F7DF8B98F0000E03FC8
:100760002DE9F04FB04E21F00042B24283B0044672
:100770000D464FEAD1770DD9AC4EB24225D9C1F31F
:100780001303034340F0EC800FB10020002103B0BD
:10079000BDE8F08FA64B9A4200F2CB80A54B9A425F
:1007A00000F2DC808AA3D3E9002316F02BFA0022A2
:1007B000A14B16F069FE002800F00681204629466C
:1007C00000229D4B16F01EFAE1E783A3D3E9002334
:1007D00016F05AFE002840F0C88081A3D3E9002318
:1007E0002046294616F032FE0028CED1934E7EA335
:1007F000D3E9002306EBC7062046294616F0B4FBD2
:10080000D6E9002316F0FEF916F05EFE064616F055
:1008100045FB77A3D3E900238046894616F0A4FB65
:1008200002460B462046294616F0EAF972A3D3E9A0
:100830000023CDE900014046494616F095FB82466B
:100840008B4652465B46DDE9000116F0D9F90446B5
:100850000D4622462B462046294616F085FB68A306
:10086000D3E900238046894616F07EFB66A3D3E9D0
:10087000002316F0C5F942464B4616F075FB64A3FB
:10088000D3E9002316F0BEF942464B4616F06CFB46
:1008900061A3D3E9002316F0B3F942464B4616F0A4
:1008A00063FB5FA3D3E9002316F0ACF942464B4645
:1008B00016F05AFB02460B462046294616F0A0F9D0
:1008C00080468946002E58D02046294642464B464F
:1008D00016F04AFB424604460D464B4600204FF0B8
:1008E000804116F08DF902460B462046294616F047
:1008F00065FC02460B465046594616F081F9DDE983
:10090000002316F07DF90B4602464B49002016F0F5
:1009100077F96FF47F739E4251DA06F57A7601EB30
:10092000065100224FF0B87316F01EFB03B0BDE86D
:10093000F08F434B9A423FF659AF424BFC002344A1
:10094000D3E9002316F05CF93F4BC7F101062344BD
:10095000CDE90001D3E900ABF61B72E7002678E78A
:1009600002460B4616F04EF911E719A3D3E900230E
:100970001046194616F0F8FA09E702460B462046DB
:10098000294616F0F1FA002206460F464FF0804342
:100990004046494616F034F902460B463046394681
:1009A00016F00CFC22462B4616F02AF902460B469E
:1009B0000020214916F024F903B0BDE8F08F01EBC7
:1009C000065103B0BDE8F08F064642E7AFF3008062
:1009D0009C7500883CE4377EEF39FAFE422E864053
:1009E00051302DD5104987C0FE822B654715F73F42
:1009F0000000E0FE422EE63F763C7935EF39EA3DD5
:100A0000D0A4BE726937663EF16BD2C541BDBB3E14
:100A10002CDE25AF6A56113F93BDBE166CC1663FF2
:100A20003E5555555555C53F412E8640FFFFEF7F3A
:100A3000422ED63FFFFF2F3E0000F03FF0A40208F9
:100A4000B1A2F03F00A5020810A5020800000000B6
:100A50002DE9F04FB1F5801F85B006460F460B46D5
:100A60005ADA024621F00044224300F0F8800029BF
:100A7000C0F27A810022D64B16F076FAD54A0B46A0
:100A8000934206460F466FF0350C4ADCC3F313055C
:100A900005F5152E0EF6647E0EF4801E8EF07F5244
:100AA00082F440121C1542EA0507A4F2FF346444A4
:100AB0000022C94B3046394604EB1E5416F0A0F80C
:100AC000AB1CC3F31303022B82468B464FF000028C
:100AD00030DC002316F0B0FC002800F0C980002CA8
:100AE00000F04B81204616F0D9F9A5A3D3E90023E5
:100AF00006460F4616F038FAA3A3D3E900230446AE
:100B00000D463046394616F02FFA02460B4620466F
:100B1000294616F077F80AE0AE4A93424FF0000CEF
:100B2000B4DD32463B463046394616F06BF805B028
:100B3000BDE8F08F4FF0804316F064F802460B4694
:100B40005046594616F03AFB064620460F4616F028
:100B5000A5F93246CDE900013B4630463946CDE99C
:100B6000026716F001FA02460B468046894616F0E7
:100B7000FBF987A3D3E9002306460F4616F0F4F9E4
:100B800085A3D3E9002316F03DF832463B4616F024
:100B9000EBF983A3D3E9002316F034F832463B4641
:100BA00016F0E2F980A3D3E9002316F02BF84246B1
:100BB0004B4616F0D9F97EA3D3E900238046894637
:100BC0003046394616F0D0F97BA3D3E9002316F05E
:100BD00019F832463B4616F0C7F979A3D3E900234A
:100BE00016F010F832463B4616F0BEF90B460246A8
:100BF0004946404616F006F8A5F5C223C5F5D725A7
:100C0000A3F27A4351351D43002D8046894656DDB7
:100C10000022724B5046594616F0A6F952465B46E2
:100C200016F0A2F906460F46002C68D132463B4624
:100C30004046494615F0E6FFDDE9022316F094F937
:100C400002460B463046394615F0DAFF02460B469F
:100C50005046594615F0D4FF05B0BDE8F08F00228C
:100C6000002300205E4916F0A9FA05B0BDE8F08F18
:100C700055A3D3E900235046594616F075F90246AC
:100C80000B460020554915F0BBFF524606460F465D
:100C90005B465046594616F067F902460B46304609
:100CA000394616F061F906460F46002C40F09A804E
:100CB00002460B465046594615F0A2FF37E7002C76
:100CC00000F0A4802EA3D3E90023DDE9000116F093
:100CD0004BF942464B4604460D465046594615F0E0
:100CE0008FFFDDE9022316F03FF927A3D3E90023A4
:100CF00006460F46DDE9000116F036F921E020A393
:100D0000D3E90023DDE9000116F02EF932463B4617
:100D100004460D464046494615F074FFDDE90223BE
:100D200016F022F918A3D3E9002380468946DDE9AD
:100D3000000116F019F902460B464046494615F0E7
:100D400061FF02460B463046394615F059FF5246C0
:100D50005B4615F055FF02460B462046294615F026
:100D60004FFF05B0BDE8F08F02460B4615F048FF77
:100D70000022002316F022FAD9E600200021D6E650
:100D80000000E0FE422EE63F763C7935EF39EA3D41
:100D900044523EDF12F1C23FDE03CB966446C73FAA
:100DA000599322942449D23F935555555555E53FC3
:100DB0009FC678D0099AC33FAF788E1DC571CC3FCE
:100DC00004FA97999999D93F555555555555D53F99
:100DD00000005043FFFFEF7F0000F03F0000E03FC6
:100DE000000050C3204616F059F80FA3D3E90023A2
:100DF0008046894616F0B8F80DA3D3E900230446CF
:100E00000D464046494616F0AFF89AE702460B46B3
:100E10005046594615F0F4FEDDE9022316F0A4F819
:100E200014E700BFAFF300800000E0FE422EE63F73
:100E3000763C7935EF39EA3DB1F5801F2DE9F8436D
:100E400004460D460B461ADA024621F000463243AC
:100E500059D000295FDB00223B4B16F085F83B4A56
:100E60000D462B46934204466FF035010CDD2246B9
:100E70002B462046294615F0C5FEBDE8F883334AC7
:100E800093424FF00001F2DC1815A0F2FF30084445
:100E90004FEAD0794844C3F3130815F0FFFFC9F5B2
:100EA0007F73033348EA035506460F46204629461A
:100EB000FFF7CEFD1EA3D3E90023804689463046C6
:100EC000394616F051F81CA3D3E9002304460D4619
:100ED0004046494616F048F802460B462046294649
:100EE00015F090FE16A3D3E9002304460D463046C4
:100EF000394616F039F802460B462046294615F0C9
:100F000081FEBDE8F883002200230020104916F07E
:100F100055F9BDE8F88302460B4615F071FE002234
:100F2000002316F04BF9BDE8F88300BFAFF3008053
:100F3000362BF111F3FE593D0EE526157BCBDB3F39
:100F400000609F501344D33F00005043FFFFEF7FEA
:100F5000000050C3000000002DE9F04F23F00047CF
:100F600057EA020493B037D0674C21F00046A642FE
:100F700083460D4629DC9A46964625D0A74224DCB6
:100F8000614CA74279D0002D80468946CDE90023E7
:100F900077DB0024BEF1000F2CD15B4B9F4200F0A9
:100FA0008B805A4B9F4261D0BAF1804F00F0C383CF
:100FB000574B9A451ED1002D1CDB4046494613B0C5
:100FC000BDE8F04F17F00CBC58B106F1404606F5ED
:100FD000801656EA0B0306D14C49002013B0BDE839
:100FE000F08FB742CCDD4B4813B0BDE8F04F18F09E
:100FF00087BA00244046494616F02EFDBBF1000F8B
:1010000019D126B1414B25F040429A4213D1BAF191
:10101000000FC0F2CA83002DE0DA06F1404606F563
:10102000801656EA040300F0A584012CD6D101F104
:1010300000431946D2E7ED0F013D54EA05034ED0B7
:10104000354B9F426EDD03F104739F4240F3FE83F4
:10105000324B9E424EDDBAF1000F4EDD28A3D3E99C
:1010600000231046194615F07FFFB7E7BAF1000FCD
:10107000C0F2528440464946B0E7BEF1000F82D02C
:10108000A3E7274B9F4228DCA3F154739F4280DDE6
:101090003B15A3F2FF33142B40F35484C3F1340304
:1010A0002EFA03F202FA03F39E457FF472AF02F0C8
:1010B0000102C2F102046DE706F1404303F580131B
:1010C00053EA0B0388D0154B9E4240F33B83BAF1A1
:1010D000000F12DBDDE9000180E702245AE74246F7
:1010E0004B461046194615F08BFD02460B4616F08E
:1010F00065F873E7BAF1000FB0DB002000216DE75F
:101100009C7500883CE4377E0000F07F0000F03FD3
:101110000000E03F0CB902080000E041FFFFEF3F94
:10112000FFFF3F43B6F5801F4FF0000205DAD84BB2
:1011300015F01AFF6FF034020E463315D54FC6F383
:101140001306A3F2FF33134446F07F5ABE421A46F9
:101150000D934AF4401A40F32F83CF4B9E4240F345
:101160000D849FEDB57B8DED087B8DED0E7B9FEDA6
:10117000B47B13468DED067B01330D93AAF5801ADF
:101180000027DDE906235146CDE90A0115F038FDB7
:10119000DDE9062380468946DDE90A0115F032FDC6
:1011A00002460B460020BD4916F008F80A460146E3
:1011B000CDE91012134649460246404615F0D4FECA
:1011C0004FEA6A0343F000538C46834603F500233D
:1011D000CDE904BCDA468B46D9190023CDE902AB30
:1011E0000293DDE902AB002006460F4602460B469D
:1011F0005046594615F0B8FE02460B464046494651
:1012000015F0FEFCDDE90623804689463046394666
:1012100015F0F6FC02460B46DDE90A0115F0F0FC7C
:1012200052465B4615F0A0FE02460B464046494634
:1012300015F0E6FCDDE9102315F096FEDDE9046704
:10124000CDE9060132463B463046394615F08CFE64
:101250007DA3D3E9002306460F4615F085FE7CA347
:10126000D3E9002315F0CEFC32463B4615F07CFE58
:1012700079A3D3E9002315F0C5FC32463B4615F0AF
:1012800073FE77A3D3E9002315F0BCFC32463B463E
:1012900015F06AFE74A3D3E9002315F0B3FC3246BF
:1012A0003B4615F061FE72A3D3E9002315F0AAFCBA
:1012B0003246804689463B463046394615F054FE54
:1012C00002460B464046494615F04EFE524606463B
:1012D0000F465B46DDE9040115F094FCDDE90623C9
:1012E00015F042FE32463B4615F08CFC52468046D5
:1012F00089465B465046594615F036FE0022684B3B
:10130000CDE90A0115F07EFC42464B4615F07AFC09
:1013100002980F46064632463B465046594615F05F
:1013200023FE002282468B465D4B3046394615F03F
:1013300067FCDDE90A2315F063FC02460B464046D4
:10134000494615F05DFCDDE9042315F00DFE32463B
:10135000804689463B46DDE9060115F005FE02465A
:101360000B464046494615F04DFC804689460246EC
:101370000B4650465946CDE904AB15F043FCDDE978
:1013800002AB3DA3D3E9002350460F4615F0ECFD18
:10139000DDE90423CDE902013946504615F030FC61
:1013A00002460B464046494615F02AFC34A3D3E9D1
:1013B000002315F0D9FD34A3D3E9002380468946E4
:1013C0005046394615F0D0FD02460B464046494688
:1013D00015F018FCDDE90E2315F014FC80460D987D
:1013E000894615F05BFD424606460F464B46DDE951
:1013F000020115F007FCDDE9082315F003FC324675
:101400003B4615F0FFFB32463B4650468B4615F0F7
:10141000F7FBDDE9082315F0F3FBDDE9022315F006
:10142000EFFB02460B464046494615F0E9FB804675
:10143000894637E0AFF300800000000000000000A4
:10144000000000000000F03FEF4E454A287ECA3FF2
:1014500065DBC9934A86CD3F01411DA96074D13F28
:101460004D268F515555D53FFFAB6FDBB66DDB3F3A
:10147000033333333333E33F000000E009C7EE3F6B
:10148000FD033ADC09C7EE3FF5015B14E02F3EBED9
:10149000000040438E98030079B60B000000F03F37
:1014A00000000840013C54EA050300F079819FEDFB
:1014B000C87B8DED047BDDE900120B461446CDE9B7
:1014C000023400230293DDE9024508462B4611460B
:1014D000224615F095FB52465B4615F045FDDDE9C9
:1014E000002306460F464046494615F03DFD02469C
:1014F0000B463046394615F085FB22468046894624
:101500002B4650465946CDE9008915F02DFD0B4676
:10151000024606460F464046494615F073FBC64B49
:10152000994204460D468A4640F3168101F13F4335
:1015300003F5E003034340F0F781A7A3D3E90023B9
:10154000DDE9000115F05EFB3246804689463B46E8
:101550002046294615F054FB02460B4640464946B4
:1015600015F092FF002840F0DF81A8464FEA28538B
:101570004FF48012A3F2FE3342FA03F35344C3F351
:101580000A52AE4DA2F2FF321541C3F3130423EA0F
:1015900005010020C2F1140B44F48014BAF1000FCD
:1015A00002460B4644FA0BFB30463946B8BFCBF136
:1015B000000B15F025FB02460B4606460F46DDE9FB
:1015C000000115F01FFB4FEA0B5A0D46002484A3BF
:1015D000D3E900232046294615F0C6FC3246804652
:1015E00089463B462046294615F00AFB02460B4633
:1015F000DDE9000115F004FB7BA3D3E9002315F01E
:10160000B3FC7BA3D3E9002306460F4620462946B8
:1016100015F0AAFC02460B463046394615F0F2FAA0
:1016200006460F4602460B464046494615F0EAFA82
:1016300042464B4604460D4615F0E2FA02460B467A
:101640003046394615F0DCFA2246804689462B465C
:101650002046294615F088FC67A3D3E900230646F7
:101660000F4615F081FC66A3D3E9002315F0C8FAF4
:1016700032463B4615F078FC63A3D3E9002315F00E
:10168000C1FA32463B4615F06FFC61A3D3E9002353
:1016900015F0B6FA32463B4615F066FC5EA3D3E978
:1016A000002315F0AFFA32463B4615F05DFC0246CA
:1016B0000B462046294615F0A3FA06460F46024679
:1016C0000B462046294615F04FFC0022CDE90001CB
:1016D0004FF080433046394615F092FA02460B46E9
:1016E000DDE9000115F06AFD424606460F464B460D
:1016F0002046294615F038FC42464B4615F082FA42
:1017000002460B463046394615F07AFA22462B46F9
:1017100015F076FA02460B460020494915F070FA9A
:101720008A44BAF5801FC0F239815146DDE90423AD
:1017300015F01AFC52E442464B464046494615F025
:1017400013FC4BE4BAF1000FBFF6D7ACDDE900346F
:10175000184604F1004141E43A4B21F00048984515
:1017600040F3FF80384B0B4403430CD132463B46D9
:1017700015F046FA02460B46DDE9000115F070FE51
:1017800000283FF4F3AEDDE9040125A3D3E90023EB
:1017900015F0EAFB22A3D3E9002315F0E5FB1DE4D5
:1017A0009FED217B8DED047B85E602460B460020F4
:1017B000234915F003FD2EE49FED1D7B8DED087B85
:1017C0008DED0E7B9FED027B00278DED067BD8E42F
:1017D000000000000000F03FFE822B654715973C9B
:1017E00000000000432EE63FEF39FAFE422EE63FAE
:1017F000396CA80C615C20BED0A4BE726937663E0D
:10180000F16BD2C541BDBB3E2CDE25AF6A56113F00
:1018100093BDBE166CC1663F3E5555555555C53FE7
:1018200059F3F8C21F6EA501000000000000F0BFD0
:101830000000000000000000FFFF8F40FFFF0F00CE
:101840000000F03FFFCB904000346F3F684B9E425A
:101850007FF750AC674B9E423FF7FDAB0022654BD4
:1018600015F0CEF952A3D3E9002306460F4615F032
:101870007BFB51A3D3E90023804689463046394695
:1018800015F072FB002282468B465B4B3046394690
:1018900015F06AFB02460B4649A1D1E9000115F09B
:1018A000AFF932463B4615F05FFB02460B4600207F
:1018B000524915F0A5F93246CDE902013B463046C2
:1018C000394615F051FB02460B46DDE9020115F0E1
:1018D0004BFB3DA3D3E9002315F046FB02460B4624
:1018E0005046594615F08CF902460B4606460F46FF
:1018F0004046494615F086F942464B46002082464E
:101900008B4615F07DF902460B463046394615F0F8
:1019100077F980468946C5E542464B460020354961
:1019200015F04CFCFFF75ABBDDE9040128A3D3E90D
:10193000002315F019FB26A3D3E9002315F014FBAF
:10194000FFF74CBBBEF1000F7FF453ABC3F11403A0
:1019500047FA03F202FA03F39F4223D07446FFF7DB
:1019600020BB264B98453FF701AEDDE902239246A6
:1019700093462BE602460B46FFF7B3BB9FED167B63
:101980008DED087B9FED167B8DED0E7B9FED167B1D
:101990004FF480278DED067BFFF7F3BB5A4601F02D
:1019A0004FFDC3E602F00102C2F10204FFF7F9BAEB
:1019B000000000604715F73F44DF5DF80BAE543E72
:1019C000555555555555D53FFE822B654715F73F63
:1019D0009C7500883CE4377E0000004003B8E23F7D
:1019E00006D0CF43EBFD4C3E000000000000F83F66
:1019F000FEFFEF3F0000F03F0000D03F0000E03F5F
:101A00002DE9F0479C4B21F000479F4290B0804663
:101A1000894640F38E80994B9F420C46924626DCC5
:101A200000298BA3D3E9002340F3B08115F0E8F837
:101A3000934B9F4204460D4600F0908086A3D3E965
:101A4000002315F0DDF802460B46CAE900232046C4
:101A5000294615F0D5F880A3D3E9002315F0D0F876
:101A60000125CAE90201284610B0BDE8F087854B80
:101A70009F4240F39080844B9F4265DC3D15A5F268
:101A80001645A7EB055319461F46064615F01CFDE3
:101A900015F004FA8046894642464B4630463946A0
:101AA000CDE90A8915F0ACF80022784B15F05CFA04
:101AB0008946804615F008FD15F0F0F906460F46F8
:101AC00032463B4640464946CDE90C6715F098F84A
:101AD00000226E4B15F048FA00220023CDE90E01DA
:101AE00015F0AAFC002800F06F810023304639462B
:101AF000002215F0A1FC002814BF01230223644A30
:101B0000019202212A4600910AA8514600F08CFB5E
:101B1000002C054614DADAF80420DAF80C3002F169
:101B2000004203F100434542CAF80420CAF80C30D1
:101B300006E000200021C2E90089C2E90201002577
:101B4000284610B0BDE8F08702460B4615F058F85D
:101B50000025CAE90201CAE90001F1E740A3D3E97F
:101B6000002315F04DF840A3D3E900230D460446A9
:101B700015F046F802460B46CAE9002329462046DE
:101B800015F03EF838A3D3E9002315F039F8012504
:101B9000CAE90201D4E715F05FFF35A3D3E90023BA
:101BA0008046894615F0E0F900223A4B15F02AF8F4
:101BB00015F08AFC054615F071F925A3D3E9002339
:101BC000CDE9060115F0D0F902460B4640464946DC
:101BD00015F016F820A3D3E90023CDE90201DDE9D1
:101BE000060115F0C1F91F2D80468946CDE904890B
:101BF00054DC294B6A1E53F822309F424ED00246D5
:101C00000B46DDE9020114F0FBFF80468946CAE974
:101C1000008942464B46DDE9020114F0F1FFDDE99F
:101C2000042314F0EDFF002CCAE9020188DA09F15F
:101C3000004401F100436D42CAF80080CAF8044034
:101C4000CAF80800CAF80C307AE700BFAFF300808A
:101C500000004054FB21F93F3163621A61B4D03D6A
:101C60000000601A61B4D03D7370032E8A19A33B43
:101C700083C8C96D305FE43FFB21E93F7BD9024057
:101C8000FB21F93FFB213941FFFFEF7F000070414D
:101C900064BB02080000E03FE4BA0208DDE9042367
:101CA000DDE9020114F0ACFF3F15C1F30A53FB1A42
:101CB00080468946102BCAE90089AADD58A3D3E9DA
:101CC0000023DDE9060115F04FF9804689460246FA
:101CD0000B46DDE9020114F093FF02460B46DDE9F5
:101CE0000201CDE9082314F08BFF42464B4614F065
:101CF00087FF4DA3D3E9002380468946DDE906012D
:101D000015F032F942464B4614F07AFF0B46CDE906
:101D100004010246DDE9080114F072FFC1F30A5321
:101D2000FF1A80468946312FCAE900896CDD41A33C
:101D3000D3E90023DDE9060115F016F9DDE908898C
:101D400006460F4602460B464046494614F058FFE9
:101D500002460B4640464946CDE9022314F050FFA7
:101D600032463B4614F04CFF34A3D3E90023064629
:101D70000F46DDE9060115F0F7F832463B4614F050
:101D80003FFF02460B46CDE904233AE714F03AFF41
:101D9000274B9F4204460D4618D01FA3D3E90023CA
:101DA00014F030FF02460B46CAE9002329462046BC
:101DB00014F026FF18A3D3E9002314F023FF4FF0FB
:101DC000FF35CAE90201BBE6032398E614A3D3E971
:101DD000002314F017FF14A3D3E900230D46044693
:101DE00014F010FF02460B46CAE90023294620469C
:101DF00014F006FF0CA3D3E9002314F003FF4FF007
:101E0000FF35CAE902019BE69DED087B8DED027B63
:101E1000FFE600BFAFF300803163621A61B4D03DCA
:101E20000000601A61B4D03D7370032E8A19A33B81
:101E3000FB21F93F0000002E8A19A33BC149202550
:101E40009A837B3900000000594A2DE9F84F21F0B0
:101E50000048904506460F462BDC564B0029B4BF80
:101E6000554D564D98454FF0000410DC544B9845A5
:101E700070DC4DA3D3E9002314F0C4FE0022514BC3
:101E800015F002FBD8B130463946BDE8F88F4E4B0D
:101E900098457CDD4D4B984544DD013398453ED057
:101EA0003046394640A3D3E9002315F05DF8BDE87C
:101EB000F88F02460B4614F0A5FEBDE8F88F3046B9
:101EC000394615F0C9FD01F07FF806460F46324647
:101ED0003B463046394614F095FE324682468B46E4
:101EE0003B463046394615F03FF800228046894689
:101EF000344B3046394614F085FE02460B464046C8
:101F0000494615F05BF902460B465046594614F017
:101F100077FE22462B4615F027F8BDE8F88F2C4BAC
:101F20009842BDD83046394615F096FD0022234B25
:101F300015F01AF8FEF714FC06460F4602460B464B
:101F40002046294615F010F832463B4615F00CF8AD
:101F5000BDE8F88F15F080FD01F036F81D4B98456F
:101F600006460F46B3DD0022164B14F04BFE024628
:101F70000B463046394615F021F932463B4614F0FF
:101F800041FE22462B4614F0EFFFBDE8F88F15F016
:101F900063FDFEF7E5FB02460B462046294614F09A
:101FA000E3FFBDE8F88F00BF3374AC3C1F7BAC7F10
:101FB000FFFFEF7FFFFF35400000E0BF0000E03F84
:101FC000FFFF2F3E0000F03F412E8640CD3386407C
:101FD0007DF8B98FFFFFEF3F2DE9F04F21F000486A
:101FE000B8F1795F85B006460F4692469B466BDA9C
:101FF00015F06AFA002800F0EA8032463B46304687
:10200000394614F0B1FF74A3D3E9002304460D460A
:1020100014F0AAFF72A3D3E9002314F0F3FD2246C3
:102020002B4614F0A1FF70A3D3E9002314F0E8FDC0
:1020300022462B4614F098FF6DA3D3E9002314F039
:10204000E1FD22462B4614F08FFF6BA3D3E900235A
:1020500014F0D6FD22462B4614F086FF68A3D3E980
:10206000002314F0CFFD22462B4614F07DFFCDE96E
:1020700000010022664B2046294614F075FFDDE979
:102080000023804689462046294614F06DFF5246BB
:1020900004460D465B463046394614F065FF02465D
:1020A0000B462046294614F0ABFD02460B4640463F
:1020B000494614F0A5FD02460B460020554914F090
:1020C0009FFD05B0BDE8F08F02460B4614F04CFFB3
:1020D00041A3D3E9002304460D4614F045FF40A375
:1020E000D3E9002314F08EFD22462B4614F03CFF6A
:1020F0003DA3D3E9002314F083FD22462B4614F0C0
:1021000033FF3BA3D3E9002314F07CFD22462B468A
:1021100014F02AFF38A3D3E9002314F071FD2246FE
:102120002B4614F021FF36A3D3E9002314F06AFDF7
:102130002B46224614F018FF374B9845CDE9000195
:1021400097DD364B984539DCA8F5001300220020B6
:1021500030499046994614F053FDCDE90201002222
:102160002B4B2046294614F0FFFE42464B4614F006
:1021700047FDDDE90023804689462046294614F0C4
:10218000F3FE524604460D465B463046394614F08F
:10219000EBFE02460B462046294614F031FD02466E
:1021A0000B464046494614F02BFD02460B46DDE93E
:1021B000020114F025FD05B0BDE8F08F9FED127B04
:1021C0004FF000088DED027BDFF85490C7E711490E
:1021D000002005B0BDE8F08FD43888BEE9FAA8BD6C
:1021E000C4B1B4BD9EEE213EAD529C804F7E923E66
:1021F0009015CB19A001FA3E7751C1166CC1563F1C
:102200004C5555555555A53F000000000000E73FCF
:102210000000E03F0000F03F3233D33F0000E93FD1
:102220000000D23F000000002DE9F04FADF51B7D0E
:102230009F4CA49E9F4D54F8264007942646D41EDA
:1022400085FB0475E417C4EBA50424EAE4741D4679
:102250000A93631CA3EB8303013D02EBC3030693C4
:102260002B460B940395651BF418049008911AD41F
:102270002C440026002701340DF18808DDF89492E3
:1022800008E059F8250014F009FE0135A542E8E8F8
:10229000020108D0002DF4DA013530463946A54256
:1022A000E8E80201F6D1079B002BC0F2DF83079B11
:1022B00003F1010B0A9B22A9DB001A4601EB03097B
:1022C0000093049B0DF5E47A19460AEBCB0B01EB66
:1022D0000208039B002BC0F2F582049C4D460026A9
:1022E000002775E90223F4E8020114F03DFE0246DE
:1022F0000B463046394614F085FC444506460F46E9
:10230000EFD1EAE80267DA4509F10809E1D1079956
:102310000098049C009101F18043013B9B00204404
:102320001A1F83460EA8024403440C920D93009A90
:102330009AA901EBC203002A53E9284529DD0DF5CE
:10234000E47A0AEBC2080DF1340900225A4B204608
:10235000294614F009FE15F0B7F814F09FFD00228D
:10236000564B06460F4614F0FFFD02460B4620462C
:10237000294614F045FC15F0A7F878E9022349F83E
:10238000040F3946304614F03DFCD04504460D4656
:10239000DBD1DDF81890204629464A4601F050F876
:1023A00000224FF07F5304460D4614F0DDFDFCF78C
:1023B0005FFD0022424B14F0D7FD02460B4620463B
:1023C000294614F01DFC0D46044615F07DF88046A4
:1023D00014F064FD0B4602462946204614F010FC1A
:1023E0004B46002B06460F4640F3F980009A0EA993
:1023F000013AC9F1180351F8225045FA03F101FAE4
:1024000003F30EA8EB1A40F82230C9F117058844EF
:1024100043FA05F5002D6DDD009B002B08F1010846
:1024200040F36F820E9C002C40F01683009B012B22
:1024300040F38F820EAA012352F8044F002C00F0C3
:102440008382581C0EAAC4F1807442F82340009A7B
:10245000824219DD0EAA0EAC52F820106FF07F42B6
:10246000511A44F820100099023399420CDD1046AD
:10247000009A0EA901EB830301EB82011A68821A0C
:1024800043F8042B8B42F9D1069B002B1ADD069BE7
:10249000012B4FF0010440F03C82009B5A1E0EAB12
:1024A0000EA953F82230C3F3160341F822303CE260
:1024B00004C00208ABAAAA2A0000703E00007041C6
:1024C00000002040022D15D132463B4600209249A3
:1024D00014F096FB06460F46069A8F49002000F03E
:1024E000AFFF02460B463046394614F089FB022501
:1024F00006460F46002200233046394614F09CFF62
:10250000002800F03782009A079B501E83420FDCA0
:1025100002F18043013B0EAA0D9C02EB83030022D3
:1025200053F80419A34242EA0102F9D1002A67D103
:10253000079B0EAA013B52F82330002B40F0188273
:102540000C9A012352F8041901330029FAD0009A99
:10255000D31802F1010A9A4509933DDC009B0A99C0
:102560000B9A0B4409990AEB0208994622AB08F131
:10257000804803EBC9098B18A59A08F1FF3802EBD4
:10258000880872AA02EBCA0AA59A02EB8303009399
:1025900058F8040F14F082FC039B002BE9E80201B9
:1025A0004FF000064FF0000711DB049C4D4675E923
:1025B0000223F4E8020114F0D7FC02460B46304631
:1025C000394614F01FFB5C4506460F46EFD1009BD1
:1025D0009845EAE80267DBD1099B0093A7E606D19C
:1025E000009B0EAA013B52F82350ED1512E7002282
:1025F0004A4B14F03FFF002840F06E81054679E712
:102600000EA9039551F820300699CDF82480183989
:102610000246009006916BB900F18043013B0EA881
:1026200000EB830353F80409013A18390028F9D064
:1026300000920691069A3849002000F001FF009BA5
:10264000002B04460D46C0F2F781DA0072A901EBB7
:10265000020B06920EAA02EB8306DFF8C4904FF03D
:1026600000080BF10807043656F8040D14F016FCA8
:1026700022462B4614F078FC4B4667E9020142469D
:102680002046294614F070FC0EAB9E4204460D46CF
:10269000EAD14AACDDF81C9004944FF0000AB9F17D
:1026A000000FC0F22B81DFF87C805D4618A1D1E9D4
:1026B000000100260027002403E0544510DCF8E860
:1026C0000201F5E8022314F04FFC02460B463046A7
:1026D000394614F097FA0134A14506460F46ECDA64
:1026E000049B03EBCA03ABF1080BC3E9006770ABB3
:1026F0009B450AF1010AD2D1A49B049C032B00F252
:102700008980DFE803F0C58E8E1100BFAFF3008033
:1027100000000040FB21F93F0000F03F0000E03FD7
:102720000000703E38A50208009B002B40F3818119
:10273000069A04EB020ADAE9008902F10805254449
:102740000DF5987B1AED027B42464B4651EC170B78
:102750008DED047B14F056FA06460F4602460B46F2
:10276000DDE9040114F04CFA42464B4614F04AFAF3
:1027700065E902015D45B046B9466AE90267E1D103
:10278000009B012B40F35581069BE518D5E9008994
:1027900003F1080B04EB0B0A15ED027B42464B4696
:1027A00051EC170B8DED007B14F02CFA06460F460A
:1027B00002460B46DDE9000114F022FA4B46424680
:1027C00014F020FA6AE902014EAB5345B046B9460F
:1027D00065E90267E0D10020002104EB0B0575E9F3
:1027E000022314F00FFAAA45F9D1039B002B00F045
:1027F0000A816268E368089F2568A4683D6002F169
:10280000004203F1004301F100417A60FB60BC60CB
:1028100038617961099B03F007000DF51B7DBDE868
:10282000F08F069D083525440020002175E902231C
:1028300014F0E8F9A542F9D1039B002B00F0D280F7
:10284000089E024601F1004386E80C000B46024652
:10285000D4E9000114F0D4F9009B002B0BDD4CAD42
:102860000124F5E8022314F0CDF9009B0134A342C2
:10287000F7DA039B13B101F100431946089BC3E942
:102880000201099B03F007000DF51B7DBDE8F08FE9
:10289000069D083500200021254475E9022314F027
:1028A000B1F9AC42F9D1039B13B101F100431946D0
:1028B000089BC3E90001099B03F007000DF51B7D90
:1028C000BDE8F08F00260027EAE80267DA4509F143
:1028D00008097FF4FEAC1AE5009B002B08F1010803
:1028E000C8BF02253FF79EAD32463B4600206149F6
:1028F00014F086F9022506460F46FBE50026002760
:10290000EEE6069B002B27DD0024069B012B3FF4FF
:10291000C4AD022B09D1009B5A1E0EAB0EA953F871
:102920002230C3F3150341F82230022D7FF4E2ADCB
:1029300032463B4600204F4914F062F906460F46E6
:10294000002C3FF4D7ADC7E50099013399427FF4DD
:1029500073AD069B002BD8DC022D7FF4CBAD324645
:102960003B460020434914F04BF906460F46C1E5AB
:102970000123ECE53946069F03957A423046CDF8AF
:10298000248000F05DFD00223B4B04460D4614F010
:1029900071FD002843D00022384B2046294614F010
:1029A000E3FA14F091FD064614F078FA0022324B57
:1029B00014F0DAFA02460B462046294614F020F9B4
:1029C00014F082FD00990B4601331A4600933B46F2
:1029D000183306930B460EA941F82300134641F81D
:1029E000236027E6089B0246C3E900010B46D4E9B1
:1029F000000114F005F9009B002B3FF730AF089B56
:102A0000C3E902013DE7D4E90067D4E90223089D48
:102A1000C5E90401C5E90067C5E90223FAE62946CC
:102A2000204614F051FD009A0EA941F8220001E65B
:102A30004AAC00200021D8E6A49B032B3FF6EAAE67
:102A400001A252F823F000BF672A01085F2A01089B
:102A50005F2A0108312A010801200023F2E4002046
:102A600000214AACE8E6002000211CE70A9BDB00BD
:102A700000934CE40000F03F000070410000703E05
:102A80002DE9F04F21F00046B6F1795F85B004469C
:102A90000D469046994604DA14F016FD002800F021
:102AA000858022462B462046294614F05DFA0646CC
:102AB0000F4602460B462046294614F055FA41A31C
:102AC000D3E9002382468B463046394614F04CFA4F
:102AD0003EA3D3E9002314F093F832463B4614F0AA
:102AE00043FA3CA3D3E9002314F08CF832463B466A
:102AF00014F03AFA39A3D3E9002314F081F83246EE
:102B00003B4614F031FA37A3D3E9002314F07AF8E6
:102B10000E9BCDE900019BB30022294B404649465C
:102B200014F022FADDE90023CDE9020150465946AE
:102B300014F01AFA02460B46DDE9020114F060F8BF
:102B400032463B4614F010FA42464B4614F058F811
:102B500019A3D3E9002306460F465046594614F000
:102B600003FA02460B463046394614F04BF802464B
:102B70000B462046294614F043F805B0BDE8F08F17
:102B800002460B463046394614F0EEF90AA3D3E963
:102B9000002314F035F852465B4614F0E5F922465E
:102BA0002B4614F02FF805B0BDE8F08F20462946DB
:102BB00005B0BDE8F08F00BF495555555555C53F87
:102BC0000000E03F7CD5CF5A3AD9E53DEB9C2B8AFB
:102BD000E6E55A3E7DFEB157E31DC73ED561C119FA
:102BE000A0012A3FA6F810111111813F000000003A
:102BF0002DE9F04FBE4C21F0004687B0A642824638
:102C00008B460F46CDE900231BDC14F05DFC002849
:102C100037D153461E43109B0133334300F0B38139
:102C2000109B012B00F0C88152465B460020B14941
:102C300014F0C4FA04460D462046294607B0BDE804
:102C4000F08FAD4B9E421CDD0029C0F2A981524697
:102C50005B4687A1D1E9000113F0D2FFDDE9002333
:102C600004460D4684A1D1E9000113F0C9FF9FED90
:102C7000847B22462B468DED007B13F0C3FF8246FA
:102C80008B4652465B465046594614F06DF9024653
:102C90000B468046894614F067F9424604460D46C5
:102CA0004B465046594614F05FF977A3D3E9002309
:102CB000CDE902012046294614F056F974A3D3E960
:102CC000002313F09FFF22462B4614F04DF972A308
:102CD000D3E9002313F096FF22462B4614F044F963
:102CE0006FA3D3E9002313F08DFF22462B4614F087
:102CF0003BF96DA3D3E9002313F084FF22462B4652
:102D000014F032F96AA3D3E9002313F07BFF4246A3
:102D10004B4614F029F968A3D3E90023CDE9040157
:102D20002046294614F020F965A3D3E9002313F0C7
:102D300069FF22462B4614F017F963A3D3E9002359
:102D400013F060FF22462B4614F00EF960A3D3E97E
:102D5000002313F057FF22462B4614F005F95EA31B
:102D6000D3E9002313F04EFF22462B4614F0FCF863
:102D70005BA3D3E9002313F045FF02460B46DDE9D0
:102D8000040113F03FFFDDE9022314F0EDF8DDE963
:102D9000004522462B4613F035FF42464B4614F0C1
:102DA000E3F802460B462046294613F02BFF4EA3BC
:102DB000D3E9002304460D46DDE9020114F0D4F8FE
:102DC00022462B4613F01EFF0B46024680468946DC
:102DD0005046594613F016FF474B9E4204460D4697
:102DE00000F38E80109B012B3BD002460B46002047
:102DF000404914F0E3F9002406460F4620462946D0
:102E000052465B46CDE90067CDE90201009413F01C
:102E1000F7FEDDE900AB02460B464046494613F09B
:102E2000EFFE52465B4614F09FF8524604460D46AC
:102E30005B46DDE9020114F097F800222F4B13F0F6
:102E4000E1FE02460B462046294613F0DBFE3246E1
:102E50003B4614F089F852465B4613F0D3FE044615
:102E60000D462046294607B0BDE8F08FAFF300803D
:102E7000182D4454FB21E93F075C143326A6813CFE
:102E80000000000000000000D47ABF74702AFB3EEE
:102E9000E9A7F0320FB8123F68108D1AF726303FBD
:102EA0001583E0FEC8DB573F93846EE9E326823F3B
:102EB000FE41B31BBAA1AB3F735360DBCB75F3BECE
:102EC000A69237A0887E143F0165F2F2D844433FB2
:102ED000280356C9226D6D3F37D60684F464963FA9
:102EE0007AFE10111111C13F635555555555D53F07
:102EF000FFFF2F3E0000F0BF2794E53F0000F03FAA
:102F0000109813F0CBFF2246CDE900012B46204656
:102F1000294614F029F8DDE90023CDE90201204615
:102F2000294613F06FFE02460B46DDE9020114F05C
:102F300045F942464B4613F063FE02460B465046A7
:102F4000594613F05DFE02460B4613F05BFE024647
:102F50000B46DDE9000113F053FE0446B81700F0FC
:102F60000200C0F101000D4613F098FF02460B4627
:102F70002046294613F0F8FF04460D462046294610
:102F800007B0BDE8F08F5046594614F065FD024683
:102F90000B4600200A4914F011F904460D4660E77B
:102FA000DDE9004501F10041224605F1004382467A
:102FB0008B46CDE900234AE654465D4651E700BF03
:102FC0000000F03F000000002DE9F04FD24A21F050
:102FD0000043934285B082468B460C462DD9CF4A9A
:102FE00093421AD8002C80F21681B5A3D3E90023AE
:102FF0005046594613F006FE0022002314F026FA2C
:10300000C0B9B1A3D3E900235046594613F0ACFF31
:1030100002460B460020C24908E1C24A934240F2F0
:10302000D0800346C1F31302134340F0F48100291A
:1030300080F2C4800020BC49C0E0BC4A934200F248
:103040002981BB4A934240F2DE8000230193002293
:10305000B84B5046594613F087FF06460F460246C6
:103060000B465046594613F07FFF99A3D3E900233E
:1030700004460D4613F078FF97A3D3E9002313F01D
:10308000C1FD22462B4613F06FFF95A3D3E9002321
:1030900013F0B6FD22462B4613F066FF92A3D3E948
:1030A000002313F0AFFD22462B4613F05DFF90A3E3
:1030B000D3E9002313F0A4FD22462B4613F054FF5E
:1030C00000229D4B13F09EFD8046894602460B462A
:1030D0003046394613F048FF02460B460020974918
:1030E00013F08EFD064602460B460F464046494603
:1030F00013F086FD3246804689463B465046594687
:1031000013F032FF02460B4600208D4913F078FD84
:1031100002460B464046494614F050F822462B46DC
:1031200013F022FF019E02460B46002E38D0DDE947
:10313000026732463B4613F063FD52465B4613F08E
:1031400013FF32463B4613F05BFD2B46224613F03D
:1031500057FD019B013306460F4600F00F81019B8E
:10316000012B00F0F180019B0133392B39D8019BF1
:10317000132B40F31281019CC4F57F7503350022A7
:103180002B0513F03FFD02460B465046594613F0FF
:1031900037FD0022684B13F035FD01EB04510DE0C3
:1031A0005046594613F0E0FE22462B4613F028FD08
:1031B00002460B465046594613F022FD05B0BDE8C5
:1031C000F08F4DA3D3E9002314F05EF900283FF4FB
:1031D00009AF4BA3D3E900231046194613F0C4FEF0
:1031E000ECE752465B4613F00BFD02460B4600200F
:1031F000514913F005FD019A4F4B01EB025100229A
:1032000013F0FEFCDAE73EA3D3E9002313F0FAFC47
:1032100002460B46CAE72CA3D3E900235046594681
:1032200013F0A2FE0B4643490246002013F0EAFCCD
:1032300014F04AF9019013F031FE33A3D3E90023CF
:1032400006460F4613F090FE02460B46504659467E
:1032500013F0D6FC2EA3D3E90023804689463046DE
:10326000394613F081FE06460F4632463B4640463D
:10327000494613F0C5FC02460B4682468B46404643
:10328000494613F0BDFC32463B4613F0B9FCCDE98C
:103290000201DCE62B4A934200F2958000291AA332
:1032A000D3E90023C0F2AC8013F0AAFC01238046CE
:1032B0008946019316A7D7E90067D6E7AFF30080E8
:1032C00059F3F8C21F6EA501FE822B654715F73F23
:1032D0002DC3096EB7FD8ABE3952E686CACFD03EED
:1032E000B7DBAA9E19CE143F8555FE19A0015A3F9F
:1032F000F41011111111A13FEF39FAFE422E864050
:103300009C7500883CE4377E0000E0FE422EE63FDC
:10331000763C7935EF39EA3D79684340412E864065
:103320000000E0BFFFFFEF7F0000F0BF422ED63F5E
:10333000FFFF8F3C0000E03F0000F03F000008402E
:1033400000001840B1A2F03F0022394B50465946C8
:1033500014F07CF8002844D0504659460022354BE2
:1033600013F050FC02460B463046394613F048FC39
:1033700000224FF0404313F0F7FD1FE702460B46D3
:103380005046594613F03CFC00222A4B13F0ECFD4A
:103390000022284B13F034FC10E7019C4FF400137B
:1033A0002341C3F17F5752465B4613F029FC0026A8
:1033B00007F5401702460B463046394613F020FC0D
:1033C00001EB0451FAE616A3D3E9002313F0CCFD78
:1033D000002C02460B464FF00000FFF61CAE1549CC
:1033E00024E732463B465046594613F009FC024654
:1033F0000B4613F007FC00220F4B13F003FCDDE635
:1034000013F000FC4FF0FF3380468946019306A776
:10341000D7E9006729E702460B4613F0F3FBCDE638
:10342000FE822B654715F73F763C7935EF39EABDCB
:103430000000D0BF0000E03F0000F03F00000000AF
:10344000F8B5C1F30A5604460D460B4617460EBBA7
:1034500021F000430343864625D00022344B13F06D
:1034600083FD344A974204460D460B462ADBC1F3DE
:103470000A56363E3E4440F2FE72964228DC002E4A
:1034800012DD23F0FF4323F4E00343EA0655204610
:103490002946F8BD40F2FF729642EBD102460B4638
:1034A00013F0B0FBF8BDF8BD16F1350F1DDA4CF284
:1034B00050339F4222462B4625DC19A1D1E9000159
:1034C00016F08CF916A3D3E9002313F04DFDF8BDD7
:1034D00022462B4614A1D1E9000116F07FF912A370
:1034E000D3E9002313F040FDF8BD23F0FF4323F49C
:1034F000E003363643EA06552046294600220E4BA5
:1035000013F032FDF8BD08A1D1E9000116F066F90B
:1035100005A3D3E9002313F027FDF8BDAFF3008026
:1035200059F3F8C21F6EA5019C7500883CE4377EF4
:1035300000005043B03CFFFF0000903C10B5054C2C
:10354000237833B9044B13B10448AFF3008001234F
:10355000237010BDA804002000000000C4C10208B0
:103560000C4B43B10C480D4910B5AFF300800C482B
:10357000036823B910BD0A48036833B97047094B83
:10358000002BF7D0BDE810401847064B002BF5D0B4
:10359000184700BF00000000C4C10208AC040020AE
:1035A0001C04002000000000154B002B08BF134B2B
:1035B0009D46A3F5803A00218B460F461348144AD6
:1035C000121A06F08DFD0F4B002B00D098470E4BC2
:1035D000002B00D098470020002104000D000D486A
:1035E000002802D00C480EF06DFA16F065FA2000A3
:1035F00029000EF047FA0EF061FA00BF0000080043
:103600000080022000000000751A0208200400203B
:10361000C0320020C51A020800000000F0B5214D9C
:103620002C6883B014B1204603B0F0BD4FF49C70F9
:103630000EF04AFA4FF0FF310646032001F042FC3B
:1036400000B204F079F84FF0FF310746022001F094
:1036500039FC00B204F070F83946024606F1DC0786
:1036600030460AF0E3FF23462246384601210AF09D
:1036700079FE4FF0FF31012001F024FC00B204F08C
:103680005BF898244FF0050E02468DE810403B464B
:10369000314606F1E40007F083FF344620462E60F1
:1036A00003B0F0BDC40400202DE9F04104460F46EC
:1036B000FFF7B4FF00F1E4050646284607F08EFF49
:1036C000082C0BD0A4F10903012B15D93A46214649
:1036D00010230D20BDE8F04103F012BFD6F8E4300E
:1036E00028469B6A98470228F0DCD6F8E430284642
:1036F0005B6A04219847E9E7D6F8E43028469B6ADC
:1037000098470528E2DCD6F8E43028465B6A0821B1
:103710009847DBE710B52DED028BFFF77FFF00F137
:10372000E404204609F09AFC07EE900A2046F8EEE1
:10373000E78A09F0A1FC07EE900A2046B8EEE78A76
:1037400009F0A8FC68EE087A07EE100AE8EEA87AFD
:10375000B8EEC77AE7EE077AF5EE407AF1EE10FAA6
:10376000B1EEE78A03D517EE900A14F0C1FEFDEE24
:10377000C87ABDEC028B17EE900A10BD08B503287D
:103780001CD8DFE800F0140D0602BDE80840FFF782
:10379000C1BFFFF743FFBDE80840E43009F07ABC41
:1037A000FFF73CFFBDE80840E43009F065BCFFF7D7
:1037B00035FFBDE80840E43009F050BC002008BDEA
:1037C00008B550B1012806D1FFF728FFBDE8084031
:1037D000E430FBF765B8002008BDFFF71FFFBDE828
:1037E0000840E430FBF73CB810B50446FFF716FF7D
:1037F0002146E430BDE8104009F048BA08B501F0B0
:1038000089FCFBF7F1FDBDE8084001F0EDB900BF10
:1038100008B501F07FFCFBF757FEBDE8084001F05A
:10382000E3B900BF08B501F075FC14F08BF9BDE8F1
:10383000084001F0D9B900BF08B501F06BFC14F0E5
:1038400093FDBDE8084001F0CFB900BF08B501F015
:1038500061FCFBF7D9FDBDE8084001F0C5B900BF28
:1038600008B501F057FC14F0ABFBBDE8084001F0CF
:10387000BBB900BF08B501F04DFCFBF731F8BDE85E
:10388000084001F0B1B900BF08B501F043FC14F0E5
:10389000EBFABDE8084001F0A7B900BF70B5049E7F
:1038A00096420C4628DB15466BB1002A00EB02015C
:1038B00007DD2046A21811F8013D00F8013B9042B7
:1038C000F9D1002070BD042A0FD0022A02D110F0D5
:1038D000010306D001462A46204605F01DFA0020C5
:1038E00070BD02880A80184670BD10F00303F1D144
:1038F00002680A60184670BD0846002106F0F0FB19
:103900004FF0FF3070BD00BF0830704740B1002954
:1039100005DB4368994202DA0844007A70470020C8
:10392000704700BF30B1002904DB43689942BCBF37
:1039300040180272704700BF40B1002905DB4368A0
:10394000994202DA0844007A70470020704700BFAD
:10395000830705D120B1030F0CBF01200020704761
:103960000120704730B1002904DB43689942BCBF95
:1039700040180272704700BF002B23DB002921DBB7
:1039800070B54668B1421ADC5568761A1446EA1AD0
:10399000B242A8BF3246002A11DB84420D4607D04E
:1039A000083408300844E11805F0B6F9002070BD6D
:1039B0000834E118601916F0ECF9002070BD4FF0E2
:1039C000FF3070BD4FF0FF30704700BF4068704758
:1039D00010B4141E10DB426894420DDC33EA23035A
:1039E00028BF1346121B08309A422044A8BF1A462B
:1039F0005DF8044B06F074BB5DF8044B704700BFE4
:103A000043688B4210B400F108041846A8BF08466A
:103A100032EA220128BF19461B1A99422044A8BF46
:103A200019465DF8044B00F0E3BE00BF002BBCBF9D
:103A300043689B1A002A70B50E4620DB446899182B
:103A4000A1421CDC8A421ADCCBB136F0004116D010
:103A500059428E4214DDB34212DD0830002E00EBD5
:103A6000020515DB9C1B2246A919284616F091F980
:103A7000324628190021BDE8704006F031BB70BD08
:103A8000002211464FF0FF33BDE87040FFF7A0BFA2
:103A900074429A192946281916F07BF922462846BD
:103AA0000021BDE8704006F01BBB00BF0346083094
:103AB000596800F01DBE00BF70B504460020616863
:103AC000490000F097FD6668002E11DD094D04F1F4
