:020000040800F2
:10E0000000800220B1360208799C0208799C02083F
:10E01000799C0208799C0208799C020800000000A3
:10E02000000000000000000000000000D5F2010820
:10E03000799C0208000000007BF30108DBF3010873
:10E04000799C0208799C0208799C0208799C020854
:10E05000799C0208799C0208799C0208799C020844
:10E06000799C0208799C0208799C0208799C020834
:10E07000799C0208799C0208799C0208799C020824
:10E08000799C0208799C0208799C0208E103020845
:10E09000CD020208799C0208E5030208799C020877
:10E0A000799C0208799C0208799C0208799C0208F4
:10E0B000799C0208799C020800000000799C020803
:10E0C000799C0208799C0208799C0208799C0208D4
:10E0D000799C0208799C0208799C0208799C0208C4
:10E0E000799C0208799C02080000000000000000F2
:10E0F0000000000000000000000000000000000020
:10E1000000000000799C020800000000799C0208D1
:10E11000799C020800000000799C020800000000C1
:10E12000799C0208799C0208799C0208799C020873
:10E13000799C0208799C0208799C02080000000082
:10E14000799C0208799C0208799C0208799C020853
:10E15000799C0208799C0208799C0208799C020843
:10E16000799C0208799C0208799C02080000000052
:10E1700000000000799C0208000000000000000080
:10E18000799C0208799C0208799C0208799C020813
:10E19000799C0208000000002DE9F04F85B0039142
:10E1A0000778A7F10903042B044607F07F0200F16A
:10E1B0000100F5D9202AF3D02B2F04BF677804463D
:10E1C0002D2F72D09FED427B8DED007B4FF000082C
:10E1D0004FF000098FB34FF0000E4FF0000ADFF848
:10E1E00000B1754619E018F063FE80468946304656
:10E1F00018F0F8FD42464B4618F0A8FC52468046FF
:10E2000089465B46DDE9000135B318F07BFFCDE9B7
:10E210000001AE4614F8017F7FB1A7F13006092E48
:10E2200052465B4640464946DDD9C5B92E2F16D128
:10E2300014F8017F0125002FEFD142464B46DDE95E
:10E24000000118F035FE80468946039B404649464A
:10E250001C6005B0BDE8F08F4FF0010EDAE7BEF1AB
:10E26000000F29D042464B46DDE9000118F020FEA0
:10E2700007F0DF07452F80468946E6D10399601CE9
:10E280000A221BF0FBFB16490246002019F070F928
:10E2900002460B464046494618F00AFE804689462B
:10E2A0004046494605B0BDE8F08F9FED0B7B67788F
:10E2B0008DED007B013489E7DFF828904FF00008EE
:10E2C0004046494605B0BDE8F08F00BFAFF300807F
:10E2D000000000000000F03F000000000000F0BF60
:10E2E000000024400000F87F2DE9F84F1646002377
:10E2F000002204460D4619F04DF8002840F09D809C
:10E30000002200232046294619F03AF828B130228D
:10E31000002332707370BDE8F88F2046294619F04B
:10E3200045FF19F075F87BA3D3E900238146294600
:10E33000204619F02FF8002800F08680B9F1000F70
:10E34000C0F2BE804A4600206F4919F011F902461A
:10E350000B462046294618F0D5FE04460D4666A118
:10E36000D1E9000101274FF0000822462B4618F0A2
:10E370009FFD0022654B18F0E9FB19F035F9002FDD
:10E38000CC464FF0FF3AC1464FF0000840F385807D
:10E39000DFF888E15E4C0122AEF1700945F6F32505
:10E3A0004FF02E0BA94208BFA0424FF0300309D313
:10E3B000001B61EB0501A94208BFA04203F1010364
:10E3C000F6D2DBB2337050EA010306F1010409D141
:10E3D000BA4210DACE4502F101020CD026467EE8A0
:10E3E0000245DFE7BA4204BF86F801B0B41CCE454F
:10E3F00002F10102F2D1B8F1000F0DD02246302116
:10E4000002F8011BC2F1010353442344002BF7DC43
:10E410002AEAEA7301331C44BCF1010F4CD0652396
:10E42000BCF1000F2370C5BF2B236370611CA11CBE
:10E430006046BDE8F84F0DF0ABB905F100431D464D
:10E440002D23337001365BE72DA3D3E9002320464B
:10E45000294618F0BDFF00287FF470AFB9F10E0F08
:10E4600009F101073DDDA9F10E08424600202649C9
:10E4700019F07EF802460B462046294618F042FE67
:10E480000022224B18F062FB19F0AEF8002FA9F120
:10E490000F0A4FF0010C3FF77BAF334630222E249A
:10E4A00003F8022B74707FEA090618D01E4403F8A3
:10E4B000012BB342FBD16BE700232370BDE8F88F3B
:10E4C000C9F100020020104919F052F802460B462B
:10E4D0002046294618F0ECFC04460D463FE71E4650
:10E4E00056E7C9F10E0200200749C84619F040F866
:10E4F0004FF0010939E700BF0000901EC4BCD642AE
:10E5000050EFE2D6E41A4B44000024400000E03F04
:10E5100000407A108DEDB5A0F7C6B03E08A60208FF
:10E5200070B54FF0FF3006F0B1FA04466FF07F404F
:10E5300006F0ACFA0646204618F044FC00220C4BCC
:10E5400018F0B6FC044630460D4618F03BFC06A316
:10E55000D3E9002318F0D6FD02460B462046294693
:10E5600018F0F4FA70BD00BF0000E0DFFFFF6F435A
:10E570000000F03D000000002DE9F843044600F1E2
:10E580006C060CF0F9FE07460CF0FCFE304611F06C
:10E5900025FD2368C51A304611F020FD237DC117E3
:10E5A000C4E90001042B40D8DFE803F04693617B07
:10E5B000030003232375284618F014FC6BA3D3E94A
:10E5C00000238046894618F003FF48B169A3D3E9C8
:10E5D00000234046494618F0DDFE002840F0A380A5
:10E5E00066A3D3E900234046494618F0F1FE48B13E
:10E5F0004046494663A3D3E9002318F0CBFE002828
:10E6000040F095802269E368013200212261217582
:10E61000202B0CD1A3686FEA1322D2B2D9B2914257
:10E6200000F08E8023690133236100232375FB07EB
:10E6300000D462B6BDE8F883284618F0D3FB53A394
:10E64000D3E900238046894618F0C2FE0028EED0A8
:10E65000404649464FA3D3E9002318F09BFE00280B
:10E66000E5D0002301222275A360E360DFE728469E
:10E6700018F0B8FB3DA3D3E900238046894618F083
:10E68000A7FE40B1404649463AA3D3E9002318F01B
:10E6900081FE0028CBD1236900220133236122753A
:10E6A000C5E7284618F09EFB30A3D3E90023804637
:10E6B000894618F08DFE0028EDD0404649462DA32E
:10E6C000D3E9002318F066FE0028E4D00423237564
:10E6D000ADE7284618F086FB30A3D3E90023804637
:10E6E000894618F075FE38B12EA3D3E900234046C1
:10E6F000494618F04FFE98B900221B4B4046494648
:10E7000018F066FE0028C6D04046494614A3D3E957
:10E71000002318F03FFE0028BDD00223237586E7B2
:10E720000323237583E7E3680133E36070E7E3685D
:10E73000A268012199400A430133E360A26067E7C0
:10E740006FEA1362D2B2C3F3074393427FF46AAF16
:10E7500084F8CC30A369984767E700BFAFF3008027
:10E76000000000000018A54000209C409A9999994B
:10E7700099197C4033333333331385409A999999EF
:10E78000991995406666666666A69F40000000007F
:10E790000020BC40000000000018C5400000000040
:10E7A0000020AC40000000000018B5400000000050
:10E7B000294B1B68002B70B506460CBF182005209E
:10E7C0000D4609F0C9F8002E044639DD234B1868C0
:10E7D00018F008FB1EA3D3E9002318F069FB002200
:10E7E000002318F0B3F918F013FE236820EAE07153
:10E7F000B1F5806FA8BF4FF48061DB682046984771
:10E8000023681749D3F8803091FBF6F120469847EA
:10E81000002D14DDA5F11406012EB8BF01263046E7
:10E820000DF09EFD23682046DB6800219847A81B59
:10E830000128B8BF0120BDE870400DF091BD70BD4A
:10E8400003680021DB68BDE870401847AFF3008023
:10E850001010101010101040480600200802002070
:10E8600040420F000000000038B5154B1B68002B1C
:10E8700004460CBF1820052009F06EF80546204616
:10E8800018F0B0FA0CA3D3E9002318F011FB002212
:10E89000002318F05BF918F0BBFD2B6820EAE0714B
:10E8A000B1F5007FDB68A8BF4FF400712846984798
:10E8B000044B1C6038BD00BF101010101010004039
:10E8C000480600200802002030B52D4B8DB01A6894
:10E8D0000092009A120205D4009A42F400020092BB
:10E8E000009A1A60274A284B126801921B6802930B
:10E8F0000EF0ECFA18F076FACDE90401019B9BB218
:10E900000193029B9BB20293DDE904011AA3D3E9B0
:10E91000002318F0CDFA1D4B0022CDE90401CDE90A
:10E9200006230298019BC01A18F04CFACDE90801A1
:10E93000DDE90445019818F045FA02460B462046E9
:10E94000294618F001F9CDE90A01DDE90601DDE902
:10E950000823DDE90A4518F0D5FB22462B4618F0BE
:10E96000A7FA00220A4B18F0F1F818F079FD03908D
:10E9700003980DB030BD00BF9A9999999999F13FCC
:10E9800008030450A875FF1FCA75FF1F00005440FC
:10E9900000003E40000000002DE9F04F2DED028BFD
:10E9A000044683B0C06818F01DFA80462069894685
:10E9B00018F018FA824660698B4618F013FA02467E
:10E9C00001F1004306460F464046494619F09AFABF
:10E9D00018F066FDE062054619F048F901902846F6
:10E9E00019F0F8F8019B0546184618F00DFA424652
:10E9F0004B4618F05DFA80462846894618F004FA1E
:10EA000032463B4618F054FA02460B464046494609
:10EA100018F09AF802460B465046594619F072FA19
:10EA200018F03EFD002208EE100A00233046394659
:10EA300018F0CEFC28B3B5EEC08AF1EE10FA1CDD5A
:10EA400011A7D7E9006718EE100A18F0DDF90246A1
:10EA50000B463046394618F077F832463B4618F0F8
:10EA600075F818F01DFDA062E38843F00203E3800F
:10EA700003B0BDEC028BBDE8F08F05A7D7E90067B6
:10EA8000E1E784ED0A8AEFE7EA2E4454FB21F93FDF
:10EA9000EA2E4454FB21F9BF08B50EF049F9DFED29
:10EAA0000C7A07EE100A67EE277A17EE900A18F034
:10EAB000ABF905A3D3E9002318F024FB18F0A8FC58
:10EAC00008BD00BFAFF30080EA2E4454FB2119407B
:10EAD0000000B4430000000008B50EF03DF9DFED82
:10EAE0000C7A07EE100A67EE277A17EE900A18F0F4
:10EAF0008BF905A3D3E9002318F004FB18F088FC78
:10EB000008BD00BFAFF30080EA2E4454FB2119403A
:10EB10000000B44300000000494A21F00043934242
:10EB20002DE9704304460D464BDC464A93420E469F
:10EB30000EDC3FA3D3E9002318F008F80022424B73
:10EB400018F046FC00284CD020462946BDE87083CA
:10EB50003E4A93423BDCB3F1804F42DD18F020FF88
:10EB60002246804689462B462046294618F0A0F9C1
:10EB70000022354B17F0EAFF19F0D6FD02460B468E
:10EB80004046494617F0E2FF02460B4600202E4958
:10EB900018F0B8FA424604460D464B4640464946F0
:10EBA00017F0D4FF02460B462046294617F0CEFF49
:10EBB00002F06AF8002EC9DC01F100431946BDE8F5
:10EBC000708302460B4617F0C1FFBDE8708318F052
:10EBD000E7FE02F059F818A3D3E9002317F0B6FFB7
:10EBE000E8E722462B462046294618F061F9804680
:10EBF00089462046294618F0D3FE002204460D46D9
:10EC0000114B4046494617F0A1FF19F08DFD002237
:10EC10000D4B17F09BFF02460B464046494618F045
:10EC200071FA22462B4617F091FF00F0C5FAC1E7B2
:10EC30009C7500883CE4377EEF39FAFE422EE63FB1
:10EC4000FFFFEF7FFFFF2F3E0000F03F0000B041CD
:10EC50002DE9F84FC44B21F000469E4204460D4674
:10EC60008A460EDDC14B9E4200F3AC8000F0A780C7
:10EC7000BAF1000F40F3EA809FA1D1E90001BDE89D
:10EC8000F88FBB4B9E4200F3B580A3F1DE739E422A
:10EC900040F3A0804FF0FF3B22462B4620462946FA
:10ECA00018F006F902460B468046894618F000F92E
:10ECB00093A3D3E9002306460F4618F0F9F892A370
:10ECC000D3E9002317F042FF32463B4618F0F0F834
:10ECD0008FA3D3E9002317F039FF32463B4618F0E3
:10ECE000E7F88DA3D3E9002317F030FF32463B4607
:10ECF00018F0DEF88AA3D3E9002317F027FF324685
:10ED00003B4618F0D5F888A3D3E9002317F01EFF7F
:10ED100042464B4618F0CCF885A3D3E90023804641
:10ED200089463046394618F0C3F883A3D3E9002357
:10ED300017F00AFF32463B4618F0BAF880A3D3E931
:10ED4000002317F001FF32463B4618F0B1F87EA3CE
:10ED5000D3E9002317F0F8FE32463B4618F0A8F836
:10ED60007BA3D3E9002317F0EFFE32463B4618F0B1
:10ED70009FF8BBF1FF3F02460B466CD04046494628
:10ED800017F0E4FE22462B4618F092F8794E7A4BA3
:10ED90004FEACB0B5E449B44DBE9002317F0D4FE23
:10EDA00022462B4617F0D0FE02460B46D6E900015C
:10EDB00017F0CAFEBAF1000F43DBBDE8F88F002858
:10EDC0003FF456AF22462B462046294617F0BEFE9A
:10EDD000BDE8F88F60A3D3E9002317F0B7FE002247
:10EDE000664B18F0F5FA00283FF454AF2046294648
:10EDF000BDE8F88F18F0D4FD614B9E4204460D46E5
:10EE000039DCA3F550239E425EDC02460B4617F028
:10EE10009DFE0022594B17F097FE002206460F4632
:10EE20004FF080432046294617F090FE02460B46DD
:10EE30003046394618F066F94FF0000B04460D468F
:10EE40002AE701F100431946BDE8F88F44A1D1E952
:10EE50000001BDE8F88F4046494617F077FE22468C
:10EE60002B4618F025F802460B462046294617F097
:10EE70006BFEBDE8F88F434B9E421ADC0022424BEA
:10EE800017F062FE002206460F463F4B20462946F9
:10EE900018F00EF80022394B17F058FE02460B46C8
:10EEA0003046394618F02EF94FF0020B04460D4655
:10EEB000F2E602460B460020344918F023F94FF0E1
:10EEC000030B04460D46E7E600222C4B17F03CFEF0
:10EED000002206460F46294B2046294617F036FEEB
:10EEE00002460B463046394618F00CF94FF0010B3C
:10EEF00004460D46D0E600BF182D4454FB21F93FCF
:10EF000011DA22E33AAD903FEB0D76244B7BA93F1B
:10EF1000513DD0A0660DB13F6E204CC5CD45B73FE9
:10EF2000FF8300922449C23F0D5555555555D53F95
:10EF30002F6C6A2C44B4A2BF9AFDDE522DDEAD3F89
:10EF40006D9A74AFF2B0B33F711623FEC671BC3F29
:10EF5000C4EB98999999C93F9C7500883CE4377E29
:10EF6000182D4454FB21F9BFFFFF0F440000F07F30
:10EF7000FFFFDB3F18A6020838A602080000F03F9A
:10EF8000FFFFF23FFF7F03400000F83F0000F0BFAB
:10EF90002DE9F843C1F30A59A9F2FF35132D0246B2
:10EFA0000B460C4606468846074622DC002D50DB01
:10EFB000DFF8F09049FA05F901EA090E5EEA060663
:10EFC0001CD036A3D3E9002317F0C0FD0022002394
:10EFD00018F0FEF948B1002C04DD4FF4801343FA19
:10EFE00005F5A84428EA0904002721463846BDE86B
:10EFF000F883332D06DDB5F5806F3DD010461946F8
:10F00000BDE8F883A9F213494FF0FF3E2EFA09F943
:10F0100010EA090FF2D021A3D3E9002317F096FDDF
:10F020000022002318F0D4F90028DED0002C09DDDE
:10F03000142D2BD00127C5F1340507FA05F5AE19BB
:10F0400028BFB844444626EA090721463846BDE8A9
:10F05000F88312A3D3E9002317F078FD00220023E0
:10F0600018F0B6F90028C0D0002C0BDB54EA0607D4
:10F0700006D00027084CB8E717F068FDBDE8F88314
:10F080003C46B2E700274FF00044AEE704F1010828
:10F09000D8E700BFAFF300800000F03F9C75008808
:10F0A0003CE4377EFFFF0F002DE9F041C1F30A5722
:10F0B000A7F2FF35132D02460B460C46884606463E
:10F0C0001CDC002D3FDB3A4F2F41864601EA070C3E
:10F0D0005CEA0E0E17D034A3D3E9002317F036FDF7
:10F0E0000022002318F074F920B1002C3FDB28EA3D
:10F0F0000704002621463046BDE8F081332D06DDA9
:10F10000B5F5806F2FD010461946BDE8F081A7F203
:10F1100013474FF0FF3E2EFA07F73842F3D022A3F1
:10F12000D3E9002317F012FD0022002318F050F954
:10F130000028DFD0002C20DB444626EA07062146C3
:10F140003046BDE8F08118A3D3E9002317F0FEFC98
:10F150000022002318F03CF90028CBD0002C17DB4C
:10F1600000263446C6E717F0F1FCBDE8F0814FF405
:10F17000801343FA05F5A844B9E7142D10D00123F4
:10F18000C5F1340503FA05F5AE1928BF9844D3E755
:10F1900024F00042074B324318BF1C460026A9E763
:10F1A00004F10108C8E700BF9C7500883CE4377E85
:10F1B000FFFF0F000000F0BF2DE9F04FD84B994240
:10F1C00087B0804689460E4613DCD64B21F00044BA
:10F1D0009C4218DD0022D44B18F0D2F8002879D0D8
:10F1E000002200230020D14917F08CFF07B0BDE8B2
:10F1F000F08FCF4B99422FDD42464B4617F0A6FCCD
:10F2000007B0BDE8F08FCB4B9C4270DDCA4B1E446B
:10F210009E427ED80022C94B4046494617F096FCD4
:10F220004FEA215AAAF2FF3ABAF1000F04460D46FE
:10F230000E4640F3DE8142464B4617F085FC0246FF
:10F240000B460020BD4917F07FFC22462B4617F0E5
:10F2500059FFCDE902010BE0B94B9E42DADD9FED8B
:10F260009A7B8DED027B4FEA265A4446AAF2FF3A7A
:10F27000B44BC6F313069E4246F07F5500F3E78079
:10F2800045F44015204629460022AC4B17F05CFCA3
:10F29000002204460D46AC4B17F00AFE22462B46D0
:10F2A00017F006FEA046CDE90401A946CDE900010C
:10F2B000002E3AD1002200232046294618F060F89B
:10F2C000002800F0CE80BAF1000F40F074810020D9
:10F2D000002195E742464B464046314617F034FC44
:10F2E00002460B4617F00EFF07B0BDE8F08F002274
:10F2F000964B17F02BFC0022002318F069F8002829
:10F3000000F0CC80924B9C4200F3C88040464946B6
:10F3100076E700228C4B17F0CBFD42464B4617F0A8
:10F32000C7FDCDE900014FF0000A00224FF08043F5
:10F330004046494617F00AFC02460B4640464946FD
:10F3400017F0E0FE02460B4606460F4617F0B0FDEA
:10F350005FA3D3E9002304460D4617F0A9FD5EA381
:10F36000D3E9002317F0F2FB22462B4617F0A0FD4D
:10F370005BA3D3E9002317F0E9FB22462B4617F0E5
:10F3800097FD59A3D3E9002317F0E0FB22462B4653
:10F3900017F08EFD56A3D3E9002317F0D7FB2246C2
:10F3A0002B4617F085FD54A3D3E9002317F0CEFBBD
:10F3B00022462B4617F07CFD51A3D3E9002317F01A
:10F3C000C5FB22462B4617F073FD04460D46BAF1E5
:10F3D000000F00F0BF80504617F004FD4AA3D3E9A8
:10F3E000002382468B4617F063FDDDE90023CDE95B
:10F3F00004012046294617F0A9FB32463B4617F088
:10F4000057FD43A3D3E9002304460D465046594611
:10F4100017F04EFDDDE9022317F098FB02460B467C
:10F420002046294617F092FB02460B46DDE9000113
:10F4300017F08AFB42464B4617F086FB02460B4606
:10F44000DDE9040117F080FB07B0BDE8F08F45F45B
:10F450000015C6F5801620462946B6100AF1010AA5
:10F4600012E72DA3D3E900232046294617F020FDFB
:10F4700002460B460020314917F066FBDDE9042304
:10F4800017F016FD06460F46BAF1000F73D102467B
:10F490000B462046294617F057FBB1E642464B463D
:10F4A0004046494617F004FD0022274B17F000FDA7
:10F4B00002460B464046494617F046FB07B0BDE8FA
:10F4C000F08F00BFAFF300800000000000000000DC
:10F4D00044523EDF12F1C23F9FC678D0099AC33F23
:10F4E000DE03CB966446C73FAF788E1DC571CC3F17
:10F4F000599322942449D23F04FA97999999D93F74
:10F50000935555555555E53F0000E0FE422EE63F28
:10F51000763C7935EF39EA3D555555555555E53F1A
:10F520007982DA3FFFFFEF3F0000F0BF000050C3D9
:10F53000FFFFEF7FFFFF1F3E3C412D400000F03FEB
:10F54000FFFF3F439DA006000000E03F0000504346
:10F55000FFFF8F3CDDE9004522462B4617F0F6FA07
:10F5600032463B4617F0A4FC02460B46204629468D
:10F5700017F0EAFA9CE7504617F034FC23A3D3E9CE
:10F58000002382468B4617F093FC22A3D3E9002385
:10F59000804689465046594617F08AFCDDE9022329
:10F5A00017F0D4FA02460B463046394617F0CCFA2B
:10F5B00022462B46DCE7504617F014FC15A3D3E98E
:10F5C000002306460F4617F073FCDDE9022317F00F
:10F5D000BDFA0EA3D3E9002304460D463046394652
:10F5E00017F066FC02460B462046294617F0AEFA95
:10F5F00006E60022044B17F0A7FA02460B464046E7
:10F60000494617F0A1FA20E60000F03F0000E0FEB6
:10F61000422EE63F763C7935EF39EA3D00000000A6
:10F6200008B518F043FD04A3D3E9002317F06AFDE1
:10F6300008BD00BFAFF30080EF39FAFE422EE63F6F
:10F640002DE9F043DFF8B4808BB004460D4601F09D
:10F65000F3F898F90030013306460F462BD02246C6
:10F660002B462046294617F0BDFE814618BB204692
:10F67000294618F095F91FA3D3E9002317F0A8FE37
:10F68000C8B1194A98F90030CDF820900321CDE98E
:10F690000445CDE902458DE806008BB9134B4FF0C8
:10F6A0006042CDE90623684619F0CCFE70B1089B94
:10F6B0009BB9DDE90667304639460BB0BDE8F083FB
:10F6C0000B490020022BCDE90601ECD11AF038F8E5
:10F6D00022230360089B002BEBD01AF031F8089B23
:10F6E0000360E6E7AFF3008064BB0208FFFFEF476B
:10F6F0000000F07F7DF8B98FCE33864006040020ED
:10F700002DE9F043DFF8E4808BB004460D4601F0AC
:10F7100043F998F90030013306460F4633D02046AE
:10F72000294619F089FE70B32CA3D3E900232046A3
:10F73000294617F04DFE814650BB2AA3D3E900238A
:10F740002046294617F026FEE8B198F90030204AF5
:10F75000CDF82090002600270421022BCDE9044596
:10F76000CDE90245CDE906678DE8060029D0684657
:10F7700019F068FE28B3089B1BB119F0E1FF089B44
:10F780000360DDE90667304639460BB0BDE8F0831B
:10F790000F4A98F90030019203210022CDE9044577
:10F7A000CDE90245009108922BB90A4B4FF0604217
:10F7B000CDE90623DBE708490020022BCDE906014D
:10F7C000D5D119F0BDFF22230360D4E7AFF3008049
:10F7D0006CBB0208FFFFEF470000F07FEF39FAFE35
:10F7E000422E864051302DD5104987C00604002096
:10F7F0002DE9F04FDFF80C938DB006460F46144606
:10F800001D4601F0C5FC99F90080B8F1FF3FCDE934
:10F81000000136D022462B462046294617F0E2FD4D
:10F82000834670BB32463B463046394617F0DAFD18
:10F830008246002840F0A28030463946002200234C
:10F8400017F09EFD10B3002200232046294617F032
:10F8500097FD834600286AD09FEDA17B0122A44B2F
:10F86000CDF828A00292CDE90467CDE906458DEDDB
:10F87000087B0393B8F1000F45D09FED9B7B8DED86
:10F88000007BDDE900010DB0BDE8F08FDDE900018E
:10F8900019F0D2FD8046002800F08D804FF0000A5C
:10F8A0004FF0000BDDE9000152465B4617F068FDA2
:10F8B0000028E6D03046394619F0BEFD0028E0D0D9
:10F8C0002046294619F0B8FD0028DAD099F9003011
:10F8D000874A039204210022022BCDE90467CDE977
:10F8E0000645CDE908AB02910A9203D002A819F0AF
:10F8F000A9FD68B919F024FF2223036008E09FEDF9
:10F90000787B8DED087B02A819F09CFD002830D093
:10F910000A9B1BB119F014FF0A9B03609DED087B45
:10F920008DED007BDDE900010DB0BDE8F08F2046D4
:10F93000294619F081FD0028A3D00022002320468B
:10F94000294617F027FD00289BD099F90030684A16
:10F95000CDF828B00121CDE90467CDE90645029133
:10F960000392002BCBD063490020022BCDE9080184
:10F97000C9D119F0E5FE21230360C9E70022002365
:10F980002046294617F0FCFC00283FF47AAF5A4B7A
:10F990005749CDF828B000220120B8F1020FCDE977
:10F9A00004670290CDE90645CDE908230391AAD169
:10F9B000CDE9002365E73046394619F03DFD0028C2
:10F9C0003FF46CAF2046294619F036FD00283FF47D
:10F9D00065AFDDE900231046194617F003FD002846
:10F9E0005FD1032399F900800293414B0A90CDE93E
:10F9F0000467CDE906450393B8F1000F2BD1DFF87A
:10FA000008B14FF0604A0022002330463946CDE964
:10FA100008AB17F0BFFC00283FF468AF0022374B5B
:10FA20002046294617F044FA04460D4619F012FD07
:10FA300002460B462046294617F0A2FC70BB304B0D
:10FA400099F900804FF06042CDE90823B8F1020F28
:10FA50007FF44CAF4EE7DFF8B4B04FF0000A00225D
:10FA6000002330463946CDE908AB17F093FC002857
:10FA7000ECD00022214B2046294617F019FA044603
:10FA80000D4619F0E7FC02460B462046294617F0C2
:10FA900077FC18B9174B0022CDE9082399F90080AB
:10FAA000D4E799F90090124BCDF828800122CDE9D6
:10FAB0000467CDE9064502920393B9F1000F3FF4C4
:10FAC0001EAF002200231046194617F01BFBB9F1A8
:10FAD000020FCDE908013FF44CAF14E7AFF300800B
:10FAE0000000000000000000000000000000F03FE7
:10FAF00084BB02080000F0FF0000F03F0000E03F80
:10FB0000FFFFEFC706040020FFFFEF470000F07F74
:10FB10002DE9F84FC44E21F00043B34204460D4690
:10FB20000DDD03F1404303F58013034340F0B9803A
:10FB3000002940F3408100200021BDE8F88FBB4E32
:10FB4000B34240F3A6800029C0F2788102460B46FA
:10FB50000020B74916F0F8FF0022B64B17F0A8F9BD
:10FB600004460D4618F0E0FD95A3D3E9002389462D
:10FB700080462946204617F09BF993A3D3E900233A
:10FB800016F0E4FF22462B4617F092F990A3D3E932
:10FB9000002316F0D9FF22462B4617F089F98EA3D1
:10FBA000D3E9002316F0D2FF22462B4617F080F946
:10FBB0008BA3D3E9002316F0C7FF22462B4617F08C
:10FBC00077F989A3D3E9002316F0C0FF22462B461C
:10FBD00017F06EF986A3D3E9002382468B462046B0
:10FBE000294617F065F984A3D3E9002316F0ACFF8A
:10FBF00022462B4617F05CF981A3D3E9002316F0C7
:10FC0000A5FF22462B4617F053F97FA3D3E9002323
:10FC100016F09AFF22462B4617F04AF90022844B31
:10FC200016F094FF02460B465046594617F06AFA02
:10FC300042464B4617F03CF9002682468B46324638
:10FC40004B463046494617F033F902460B462046EC
:10FC5000294616F079FF324604460D464B4640468B
:10FC6000494616F073FF02460B462046294617F018
:10FC700049FA02460B465046594616F067FF32468F
:10FC80004B4616F063FF02460B4616F05FFFBDE8D9
:10FC9000F88F694A93420EDC5DA1D1E90001BDE80D
:10FCA000F88F02460B4616F04FFF02460B4617F040
:10FCB00029FABDE8F88F02460B4617F0F9F840A381
:10FCC000D3E9002306460F4617F0F2F83EA3D3E926
:10FCD000002316F03BFF32463B4617F0E9F83CA301
:10FCE000D3E9002316F030FF32463B4617F0E0F828
:10FCF00039A3D3E9002316F029FF32463B4617F01B
:10FD0000D7F837A3D3E9002316F01EFF32463B464F
:10FD100017F0CEF834A3D3E9002316F017FF3246CC
:10FD20003B4617F0C5F832A3D3E900238046894645
:10FD30003046394617F0BCF82FA3D3E9002316F05C
:10FD400003FF32463B4617F0B3F82DA3D3E9002357
:10FD500016F0FCFE32463B4617F0AAF82AA3D3E978
:10FD6000002316F0F1FE32463B4617F0A1F80022C0
:10FD70002F4B16F0EBFE02460B464046494617F065
:10FD8000C1F922462B4617F093F802460B4622A1F2
:10FD9000D1E9000116F0D8FE02460B46204629465E
:10FDA00016F0D2FE02460B4619A1D1E9000116F069
:10FDB000CBFEBDE8F88F1AA1D1E90001BDE8F88FAC
:10FDC00009F7FD0DE13D023F88B20175E0EF493FC3
:10FDD0003B8F68B52882A43F5544880E55C1C93F62
:10FDE0007D6FEB0312D6D43F555555555555C53F3C
:10FDF00082922EB1C5B8B33F59018D1B6C06E63F08
:10FE0000C88A599CE52A00404B2D8A1C273A03409A
:10FE1000182D4454FB21F93F075C143326A6913C6E
:10FE2000182D4454FB210940FFFFEF3FFFFFDF3F48
:10FE30000000F03F0000E03F0000603C00225C4B0F
:10FE400016F084FE00225B4B17F032F840A3D3E992
:10FE5000002304460D4617F02BF83FA3D3E90023F7
:10FE600016F074FE22462B4617F022F83CA3D3E985
:10FE7000002316F069FE22462B4617F019F83AA324
:10FE8000D3E9002316F062FE22462B4617F010F845
:10FE900037A3D3E9002316F057FE22462B4617F06E
:10FEA00007F835A3D3E9002316F050FE22462B466F
:10FEB00016F0FEFF804689462046294618F034FC9D
:10FEC0002FA3D3E9002306460F462046294616F005
:10FED000EFFF2DA3D3E9002316F036FE22462B4672
:10FEE00016F0E6FF2AA3D3E9002316F02FFE2246E0
:10FEF0002B4616F0DDFF28A3D3E9002316F024FEDD
:10FF000022462B4616F0D4FF0022294B16F01EFE87
:10FF100002460B464046494617F0F4F832463B4647
:10FF200016F0C6FF1EA3D3E9002316F00DFE3246DD
:10FF30003B4616F00BFE02460B4616F007FE024645
:10FF40000B4619A1D1E9000116F0FEFDBDE8F88FBE
:10FF500009F7FD0DE13D023F88B20175E0EF493F31
:10FF60003B8F68B52882A43F5544880E55C1C93FD0
:10FF70007D6FEB0312D6D43F555555555555C53FAA
:10FF800082922EB1C5B8B33F59018D1B6C06E63F76
:10FF9000C88A599CE52A00404B2D8A1C273A034009
:10FFA000075C143326A6913C182D4454FB210940CC
:10FFB0000000F03F0000E03F434A91422DE9F84342
:10FFC00004460D4639DD414A914209DD02F179527C
:10FFD000914240DD02460B4616F0B8FDBDE8F883BD
:10FFE00001F1404202F58012024330D0B1F1804F5E
:10FFF0003ADC0022364B16F0A7FD02460B460446BB
:020000040801F1
:100000000D4616F0A3FD224606460F462B46204617
:10001000294616F04DFF02460B463046394616F08B
:1000200095FD18F081FB0B4602462946204616F046
:100030008DFDBDE8F843FFF7BFB802460B4616F04A
:1000400083FD02460B4617F05DF8BDE8F8830020FB
:100050000021BDE8F88300F017FE19A3D3E90023BF
:1000600016F074FDBDE8F88302460B4616F020FF3B
:100070000022174B16F068FD18F056FB224680460A
:1000800089462B462046294616F060FD4246064624
:100090000F464B462046294616F058FD02460B46B1
:1000A00000200B4917F02EF80B4602463946304621
:1000B00016F04AFDBDE8F84300F0E6BDAFF300805E
:1000C000EF39FAFE422EE63FFFFFEF3FFFFFAF4161
:1000D0000000F03F000000002DE9F047BE4B21F08A
:1000E0000048984584B004460D4612DD08F14048AA
:1000F00008F58018034658EA030321D002460B4650
:1001000016F022FD02460B4616F0FCFF04B0BDE8D7
:10011000F087B24B98458A4629DCB8F1795F80F2C6
:10012000658191A3D3E9002316F010FD0022AC4BAA
:1001300017F04EF9D8B12046294604B0BDE8F08743
:100140008BA3D3E9002316F0B3FE8BA3D3E90023DE
:1001500006460F462046294616F0AAFE02460B46E2
:100160003046394616F0F2FC04B0BDE8F087204670
:10017000294617F015FC02460B460020984916F058
:10018000E3FC0022974B16F093FE7DA3D3E90023F6
:1001900004460D4616F08CFE7BA3D3E9002316F02F
:1001A000D5FC22462B4616F083FE79A3D3E9002323
:1001B00016F0CAFC22462B4616F07AFE76A3D3E947
:1001C000002316F0C3FC22462B4616F071FE74A3E2
:1001D000D3E9002316F0B8FC22462B4616F068FE41
:1001E00071A3D3E9002316F0B1FC22462B4616F08A
:1001F0005FFE6FA3D3E90023CDE900012046294625
:1002000016F056FE6CA3D3E9002316F09DFC22469F
:100210002B4616F04DFE6AA3D3E9002316F096FC98
:1002200022462B4616F044FE67A3D3E9002316F0BE
:100230008BFC22462B4616F03BFE694B002216F043
:1002400085FCCDE902012046294618F06DFA664B7F
:10025000984506460F4666DCDDE90223DDE900012C
:1002600016F050FF3246CDE900013B463046394694
:1002700016F06CFC02460B46DDE9000116F018FE94
:100280004FF00008CDE9000142463B464046394662
:1002900016F00EFE02460B462046294616F054FC88
:1002A000424604460D463B463046394616F04EFC63
:1002B00002460B462046294616F024FF02460B460E
:1002C00016F044FC02460B462BA1D1E9000116F0C2
:1002D0003BFC02460B46DDE9000116F035FC4246C8
:1002E00004460D463B464046394616F02FFC024672
:1002F0000B4637A1D1E9000116F026FC02460B4659
:100300002046294616F020FC02460B4630A1D1E9D2
:10031000000116F019FCBAF1000F3FF7F7AE01F13A
:1003200000431946F2E6DDE90223DDE9000116F09B
:10033000E9FE32463B4616F0BBFD32463B4616F020
:1003400005FC02460B4616F001FC0BA3D3E9002383
:1003500016F0FAFB02460B4605A1D1E9000116F0A2
:10036000F3FBD8E7AFF300809C7500883CE4377E50
:10037000182D4454FB21F93F075C143326A6913C09
:1003800009F7FD0DE13D023F88B20175E0EF493FFD
:100390003B8F68B52882A43F5544880E55C1C93F9C
:1003A0007D6FEB0312D6D43F555555555555C53F76
:1003B00082922EB1C5B8B33F59018D1B6C06E63F42
:1003C000C88A599CE52A00404B2D8A1C273A0340D5
:1003D000182D4454FB21E93FFFFFEF3FFFFFDF3FB4
:1003E0000000F03F0000E03F3233EF3F02460B4693
:1003F00016F05EFD37A3D3E9002306460F4616F03C
:1004000057FD36A3D3E9002316F0A0FB32463B4646
:1004100016F04EFD33A3D3E9002316F095FB3246C8
:100420003B4616F045FD31A3D3E9002316F08EFBC1
:1004300032463B4616F03CFD2EA3D3E9002316F0CE
:1004400083FB32463B4616F033FD2CA3D3E9002351
:1004500016F07CFB32463B4616F02AFD29A3D3E971
:100460000023804689463046394616F021FD27A3F1
:10047000D3E9002316F068FB32463B4616F018FD20
:1004800024A3D3E9002316F061FB32463B4616F065
:100490000FFD22A3D3E9002316F056FB32463B465C
:1004A00016F006FD00220A4B16F050FB02460B46E2
:1004B0004046494616F026FE22462B4616F0F8FC2A
:1004C00022462B4616F042FB04B0BDE8F08700BF81
:1004D0000000F03F09F7FD0DE13D023F88B20175D4
:1004E000E0EF493F3B8F68B52882A43F5544880E12
:1004F00055C1C93F7D6FEB0312D6D43F55555555B5
:100500005555C53F82922EB1C5B8B33F59018D1BD9
:100510006C06E63FC88A599CE52A00404B2D8A1C90
:10052000273A0340000000002DE9F84F1D465342D2
:10053000134325F0004ADFF8E0E14AEAD37373453C
:10054000144606460F4647D8C0F1000848EA00089E
:1005500021F0004343EAD878F0458B463CD805F1BA
:10056000404808F5801858EA020850D04FEAA578AC
:1005700008F0020848EAD17850EA030134D052EA80
:100580000A023CD0F24557D0734538D0A3EB0A039A
:100590001B153C2B42DC002D70DB22462B463046DF
:1005A000394616F0AFFD17F0FBF9FEF751FBB8F135
:1005B000010F5FD0B8F1020F4ED0B8F1000F62D03A
:1005C00043A3D3E9002316F0BFFA43A3D3E90023E2
:1005D00016F0BAFABDE8F88F32463B462046294667
:1005E00016F0B4FABDE8F88FB8F1020F1AD0B8F1DE
:1005F000030F10D13AA1D1E90001BDE8F88FBBF19A
:10060000000F14DB38A1D1E90001BDE8F88FBDE887
:10061000F84FFEF71DBB3946BDE8F88F32A1D1E98E
:100620000001C4E72CA1D1E90001BDE8F88F30A199
:10063000D1E90001BDE8F88F534526D0B8F1020F8B
:10064000F0D0B8F1030FD5D0B8F1010F4FF0000092
:1006500029D00021BDE8F88F1DA3D3E9002316F0AF
:1006600073FA02460B461CA1D1E9000116F06CFAA0
:10067000BDE8F88F01F10041BDE8F88F3C338CDA1A
:100680000020002193E7BDE8F88FB8F1020F18D0E1
:10069000B8F1030F10D0B8F1010F08D016A1D1E9BD
:1006A0000001BDE8F88F4FF00041BDE8F88F14A1BC
:1006B000D1E90001BDE8F88F13A1D1E90001BDE83F
:1006C000F88F13A1D1E90001BDE8F88FAFF30080E6
:1006D000075C143326A6A13C182D4454FB21094085
:1006E000182D4454FB2109C0182D4454FB21F93F17
:1006F000182D4454FB21F9BF182D4454FB21E93F28
:10070000182D4454FB21E9BFD221337F7CD902C08C
:10071000D221337F7CD902400000F07F000000002E
:1007200043422DE9F047034321F000463E4A46EAA2
:10073000D373934204460D4613D896423DD03B4BAB
:100740009E428A4617DC36A3D3E9002316F0FEF951
:100750000022002316F03CFEA8B320462946BDE83F
:10076000F08702460B4616F0EFF902460B4616F0EC
:10077000C9FCBDE8F0872E4B9E42354624DD33464A
:100780000246314616F0E2F9224606460F462B464F
:100790000020254916F0D8F902460B463046394666
:1007A00016F0B0FCFEF708FD0022224B16F080FB8D
:1007B000BAF1000F2FDBBDE8F0870022002316F00E
:1007C000A1FCBDE8F087354622462B462046294647
:1007D00016F0BCF922462B4606460F4616F068FB7B
:1007E0002246804689462B4600200F4916F0ACF978
:1007F00002460B464046494616F084FC32463B46CC
:1008000016F0A4F9FEF7D8FC00220A4B16F050FBB4
:10081000BAF1000FCFDA01F100431946BDE8F087C5
:100820009C7500883CE4377E0000F03FFFFF2F3EC0
:10083000FFFFDF3F0000E03F2DE9F8434E4B21F082
:1008400000449C4206460F461BDC4C4B9C4222DD7A
:100850004B4B9C4263DD4B4B9C427BDD4A4B9C42A5
:1008600046DD01339C4240D041A3D3E9002310462A
:10087000194616F01DFB06460F4630463946BDE8C0
:10088000F88302460B4616F013FB06460F46304629
:100890003946BDE8F88317F083F802F0B1FC002276
:1008A0003A4B8046894616F051F9B4F1725F06461C
:1008B0000F46ECDB42464B464046494616F0F8FAF6
:1008C00032463B4604460D463046394616F03EF960
:1008D00002460B462046294616F014FC00222B4BFC
:1008E00016F034F906460F46D1E7294B9842BBD89B
:1008F0003046394617F054F80022264B16F0D8FA45
:1009000000F04AF8002204460D46224B16F0D0FAB9
:1009100022462B4616F0CCFA06460F46B7E717F0EC
:100920003FF800F039F800221A4B06460F4616F041
:10093000BFFA32463B4604460D460020154916F0E4
:10094000E1FB02460B462046294616F0FFF8064614
:100950000F469CE717F024F800F01EF800220D4B1C
:1009600016F0A6FA06460F4691E700BFAFF30080E7
:100970009C7500883CE4377EFFFFEF7F422ED63F18
:10098000FFFF3540412E8640CD3386400000F03FCA
:100990007DF8B98F0000E03F2DE9F04FB04E21F017
:1009A0000042B24283B004460D464FEAD1770DD9DA
:1009B000AC4EB24225D9C1F31303034340F0EC809F
:1009C0000FB10020002103B0BDE8F08FA64B9A4282
:1009D00000F2CB80A54B9A4200F2DC808AA3D3E9D7
:1009E000002316F0B3F80022A14B16F0F1FC00280A
:1009F00000F006812046294600229D4B16F0A6F8FD
:100A0000E1E783A3D3E9002316F0E2FC002840F0DD
:100A1000C88081A3D3E900232046294616F0BAFCFA
:100A20000028CED1934E7EA3D3E9002306EBC70660
:100A30002046294616F03CFAD6E9002316F086F83F
:100A400016F0E6FC064616F0CDF977A3D3E90023AD
:100A50008046894616F02CFA02460B462046294667
:100A600016F072F872A3D3E90023CDE900014046E5
:100A7000494616F01DFA82468B4652465B46DDE932
:100A8000000116F061F804460D4622462B4620462A
:100A9000294616F00DFA68A3D3E90023804689465B
:100AA00016F006FA66A3D3E9002316F04DF8424685
:100AB0004B4616F0FDF964A3D3E9002316F046F87F
:100AC00042464B4616F0F4F961A3D3E9002316F031
:100AD0003BF842464B4616F0EBF95FA3D3E90023FF
:100AE00016F034F842464B4616F0E2F902460B4641
:100AF0002046294616F028F880468946002E58D010
:100B00002046294642464B4616F0D2F94246044654
:100B10000D464B4600204FF0804116F015F8024676
:100B20000B462046294616F0EDFA02460B46504683
:100B3000594616F009F8DDE9002316F005F80B46D2
:100B400002464B49002015F0FFFF6FF47F739E4271
:100B500051DA06F57A7601EB065100224FF0B873B0
:100B600016F0A6F903B0BDE8F08F434B9A423FF66A
:100B700059AF424BFC002344D3E9002315F0E4FFB6
:100B80003F4BC7F101062344CDE90001D3E900AB97
:100B9000F61B72E7002678E702460B4615F0D6FFF3
:100BA00011E719A3D3E900231046194616F080F97E
:100BB00009E702460B462046294616F079F900223D
:100BC00006460F464FF080434046494615F0BCFFAD
:100BD00002460B463046394616F094FA22462B461A
:100BE00015F0B2FF02460B460020214915F0ACFF7C
:100BF00003B0BDE8F08F01EB065103B0BDE8F08F04
:100C0000064642E7AFF300809C7500883CE4377EDF
:100C1000EF39FAFE422E864051302DD5104987C05B
:100C2000FE822B654715F73F0000E0FE422EE63FAF
:100C3000763C7935EF39EA3DD0A4BE726937663E1D
:100C4000F16BD2C541BDBB3E2CDE25AF6A56113FCC
:100C500093BDBE166CC1663F3E5555555555C53FB3
:100C6000412E8640FFFFEF7F422ED63FFFFF2F3EF3
:100C70000000F03F58A60208B1A2F03F68A60208A3
:100C800078A60208000000002DE9F04FB1F5801FA2
:100C900085B006460F460B465ADA024621F000445C
:100CA000224300F0F8800029C0F27A810022D64B5E
:100CB00016F0FEF8D54A0B46934206460F466FF0F3
:100CC000350C4ADCC3F3130505F5152E0EF6647ECC
:100CD0000EF4801E8EF07F5282F440121C1542EA00
:100CE0000507A4F2FF3464440022C94B304639465C
:100CF00004EB1E5415F028FFAB1CC3F31303022BA7
:100D000082468B464FF0000230DC002316F038FBA1
:100D1000002800F0C980002C00F04B81204616F01E
:100D200061F8A5A3D3E9002306460F4616F0C0F8E4
:100D3000A3A3D3E9002304460D463046394616F0F6
:100D4000B7F802460B462046294615F0FFFE0AE09A
:100D5000AE4A93424FF0000CB4DD32463B4630467B
:100D6000394615F0F3FE05B0BDE8F08F4FF0804333
:100D700015F0ECFE02460B465046594616F0C2F9F5
:100D8000064620460F4616F02DF83246CDE9000102
:100D90003B4630463946CDE9026716F089F80246EF
:100DA0000B468046894616F083F887A3D3E90023D3
:100DB00006460F4616F07CF885A3D3E9002315F00C
:100DC000C5FE32463B4616F073F883A3D3E90023F1
:100DD00015F0BCFE32463B4616F06AF880A3D3E914
:100DE000002315F0B3FE42464B4616F061F87EA391
:100DF000D3E90023804689463046394616F058F834
:100E00007BA3D3E9002315F0A1FE32463B4616F042
:100E10004FF879A3D3E9002315F098FE32463B46FC
:100E200016F046F80B4602464946404615F08EFE3F
:100E3000A5F5C223C5F5D725A3F27A4351351D4345
:100E4000002D8046894656DD0022724B5046594699
:100E500016F02EF852465B4616F02AF806460F4664
:100E6000002C68D132463B464046494615F06EFE9E
:100E7000DDE9022316F01CF802460B4630463946DF
:100E800015F062FE02460B465046594615F05CFED0
:100E900005B0BDE8F08F0022002300205E4916F067
:100EA00031F905B0BDE8F08F55A3D3E900235046D2
:100EB000594615F0FDFF02460B460020554915F036
:100EC00043FE524606460F465B465046594615F0CD
:100ED000EFFF02460B463046394615F0E9FF06465D
:100EE0000F46002C40F09A8002460B465046594669
:100EF00015F02AFE37E7002C00F0A4802EA3D3E9DA
:100F00000023DDE9000115F0D3FF42464B460446BD
:100F10000D465046594615F017FEDDE9022315F03F
:100F2000C7FF27A3D3E9002306460F46DDE90001EA
:100F300015F0BEFF21E020A3D3E90023DDE9000185
:100F400015F0B6FF32463B4604460D46404649463C
:100F500015F0FCFDDDE9022315F0AAFF18A3D3E983
:100F6000002380468946DDE9000115F0A1FF024615
:100F70000B464046494615F0E9FD02460B46304611
:100F8000394615F0E1FD52465B4615F0DDFD02469F
:100F90000B462046294615F0D7FD05B0BDE8F08F79
:100FA00002460B4615F0D0FD0022002316F0AAF8E9
:100FB000D9E600200021D6E60000E0FE422EE63F02
:100FC000763C7935EF39EA3D44523EDF12F1C23FBB
:100FD000DE03CB966446C73F599322942449D23FFF
:100FE000935555555555E53F9FC678D0099AC33F4F
:100FF000AF788E1DC571CC3F04FA97999999D93F66
:10100000555555555555D53F00005043FFFFEF7FCF
:101010000000F03F0000E03F000050C3204615F004
:10102000E1FE0FA3D3E900238046894615F040FF77
:101030000DA3D3E9002304460D464046494615F06A
:1010400037FF9AE702460B465046594615F07CFD9D
:10105000DDE9022315F02CFF14E700BFAFF3008099
:101060000000E0FE422EE63F763C7935EF39EA3D5E
:10107000B1F5801F2DE9F84304460D460B461ADAF8
:10108000024621F00046324359D000295FDB00229E
:101090003B4B15F00DFF3B4A0D462B469342044651
:1010A0006FF035010CDD22462B462046294615F00F
:1010B0004DFDBDE8F883334A93424FF00001F2DC66
:1010C0001815A0F2FF3008444FEAD0794844C3F322
:1010D000130815F087FEC9F57F73033348EA0355FB
:1010E00006460F4620462946FFF7CEFD1EA3D3E94C
:1010F0000023804689463046394615F0D9FE1CA3A8
:10110000D3E9002304460D464046494615F0D0FE7B
:1011100002460B462046294615F018FD16A3D3E9D2
:10112000002304460D463046394615F0C1FE0246FE
:101130000B462046294615F009FDBDE8F88300223C
:1011400000230020104915F0DDFFBDE8F8830246BA
:101150000B4615F0F9FC0022002315F0D3FFBDE883
:10116000F88300BFAFF30080362BF111F3FE593D39
:101170000EE526157BCBDB3F00609F501344D33F29
:1011800000005043FFFFEF7F000050C3000000004D
:101190002DE9F04F23F0004757EA020493B037D00F
:1011A000674C21F00046A64283460D4629DC9A464C
:1011B000964625D0A74224DC614CA74279D0002D69
:1011C00080468946CDE9002377DB0024BEF1000F7D
:1011D0002CD15B4B9F4200F08B805A4B9F4261D0D9
:1011E000BAF1804F00F0C383574B9A451ED1002DB2
:1011F0001CDB4046494613B0BDE8F04F17F094BAE7
:1012000058B106F1404606F5801656EA0B0306D1A2
:101210004C49002013B0BDE8F08FB742CCDD4B48FD
:1012200013B0BDE8F04F18F00FB90024404649460E
:1012300016F0B6FBBBF1000F19D126B1414B25F0DA
:1012400040429A4213D1BAF1000FC0F2CA83002D76
:10125000E0DA06F1404606F5801656EA040300F08F
:10126000A584012CD6D101F100431946D2E7ED0F38
:10127000013D54EA05034ED0354B9F426EDD03F12C
:1012800004739F4240F3FE83324B9E424EDDBAF11F
:10129000000F4EDD28A3D3E900231046194615F0B0
:1012A00007FEB7E7BAF1000FC0F252844046494644
:1012B000B0E7BEF1000F82D0A3E7274B9F4228DCA6
:1012C000A3F154739F4280DD3B15A3F2FF33142B2F
:1012D00040F35484C3F134032EFA03F202FA03F309
:1012E0009E457FF472AF02F00102C2F102046DE785
:1012F00006F1404303F5801353EA0B0388D0154BE6
:101300009E4240F33B83BAF1000F12DBDDE900019E
:1013100080E702245AE742464B461046194615F02C
:1013200013FC02460B4615F0EDFE73E7BAF1000F11
:10133000B0DB002000216DE79C7500883CE4377E1F
:101340000000F07F0000F03F0000E03FC8B9020855
:101350000000E041FFFFEF3FFFFF3F43B6F5801F76
:101360004FF0000205DAD84B15F0A2FD6FF0340201
:101370000E463315D54FC6F31306A3F2FF331344BD
:1013800046F07F5ABE421A460D934AF4401A40F383
:101390002F83CF4B9E4240F30D849FEDB57B8DEDA7
:1013A000087B8DED0E7B9FEDB47B13468DED067BA8
:1013B00001330D93AAF5801A0027DDE90623514673
:1013C000CDE90A0115F0C0FBDDE906238046894618
:1013D000DDE90A0115F0BAFB02460B460020BD49C3
:1013E00015F090FE0A460146CDE910121346494613
:1013F0000246404615F05CFD4FEA6A0343F0005395
:101400008C46834603F50023CDE904BCDA468B46BF
:10141000D9190023CDE902AB0293DDE902AB00202C
:1014200006460F4602460B465046594615F040FD0B
:1014300002460B464046494615F086FBDDE9062389
:10144000804689463046394615F07EFB02460B46FB
:10145000DDE90A0115F078FB52465B4615F028FDE0
:1014600002460B464046494615F06EFBDDE9102367
:1014700015F01EFDDDE90467CDE9060132463B4665
:101480003046394615F014FD7DA3D3E90023064606
:101490000F4615F00DFD7CA3D3E9002315F056FB94
:1014A00032463B4615F004FD79A3D3E9002315F03D
:1014B0004DFB32463B4615F0FBFC77A3D3E90023F6
:1014C00015F044FB32463B4615F0F2FC74A3D3E919
:1014D000002315F03BFB32463B4615F0E9FC72A3B6
:1014E000D3E9002315F032FB3246804689463B465D
:1014F0003046394615F0DCFC02460B46404649466C
:1015000015F0D6FC524606460F465B46DDE904015F
:1015100015F01CFBDDE9062315F0CAFC32463B46FC
:1015200015F014FB5246804689465B4650465946A4
:1015300015F0BEFC0022684BCDE90A0115F006FB50
:1015400042464B4615F002FB02980F4606463246CD
:101550003B465046594615F0ABFC002282468B466E
:101560005D4B3046394615F0EFFADDE90A2315F0F8
:10157000EBFA02460B464046494615F0E5FADDE92E
:10158000042315F095FC3246804689463B46DDE94A
:10159000060115F08DFC02460B464046494615F003
:1015A000D5FA8046894602460B4650465946CDE953
:1015B00004AB15F0CBFADDE902AB3DA3D3E9002380
:1015C00050460F4615F074FCDDE90423CDE9020115
:1015D0003946504615F0B8FA02460B464046494691
:1015E00015F0B2FA34A3D3E9002315F061FC34A35B
:1015F000D3E90023804689465046394615F058FC09
:1016000002460B464046494615F0A0FADDE90E2396
:1016100015F09CFA80460D98894615F0E3FB42468A
:1016200006460F464B46DDE9020115F08FFADDE96B
:10163000082315F08BFA32463B4615F087FA3246FE
:101640003B4650468B4615F07FFADDE9082315F03E
:101650007BFADDE9022315F077FA02460B46404695
:10166000494615F071FA8046894637E0AFF30080AD
:101670000000000000000000000000000000F03F3B
:10168000EF4E454A287ECA3F65DBC9934A86CD3F67
:1016900001411DA96074D13F4D268F515555D53F4D
:1016A000FFAB6FDBB66DDB3F033333333333E33FE5
:1016B000000000E009C7EE3FFD033ADC09C7EE3F3A
:1016C000F5015B14E02F3EBE000040438E980300FE
:1016D00079B60B000000F03F00000840013C54EADE
:1016E000050300F079819FEDC87B8DED047BDDE97A
:1016F00000120B461446CDE9023400230293DDE9C3
:10170000024508462B461146224615F01DFA524660
:101710005B4615F0CDFBDDE9002306460F4640464B
:10172000494615F0C5FB02460B463046394615F0D2
:101730000DFA2246804689462B4650465946CDE949
:10174000008915F0B5FB0B46024606460F4640469B
:10175000494615F0FBF9C64B994204460D468A46A8
:1017600040F3168101F13F4303F5E003034340F0EA
:10177000F781A7A3D3E90023DDE9000115F0E6F91D
:101780003246804689463B462046294615F0DCF91C
:1017900002460B464046494615F01AFE002840F026
:1017A000DF81A8464FEA28534FF48012A3F2FE339C
:1017B00042FA03F35344C3F30A52AE4DA2F2FF328E
:1017C0001541C3F3130423EA05010020C2F1140BF1
:1017D00044F48014BAF1000F02460B4644FA0BFBA6
:1017E00030463946B8BFCBF1000B15F0ADF90246D3
:1017F0000B4606460F46DDE9000115F0A7F94FEA52
:101800000B5A0D46002484A3D3E900232046294621
:1018100015F04EFB3246804689463B462046294617
:1018200015F092F902460B46DDE9000115F08CF93E
:101830007BA3D3E9002315F03BFB7BA3D3E9002373
:1018400006460F462046294615F032FB02460B4657
:101850003046394615F07AF906460F4602460B46E1
:101860004046494615F072F942464B4604460D463D
:1018700015F06AF902460B463046394615F064F910
:101880002246804689462B462046294615F010FB05
:1018900067A3D3E9002306460F4615F009FB66A3AC
:1018A000D3E9002315F050F932463B4615F000FB12
:1018B00063A3D3E9002315F049F932463B4615F0FE
:1018C000F7FA61A3D3E9002315F03EF932463B460F
:1018D00015F0EEFA5EA3D3E9002315F037F932468E
:1018E0003B4615F0E5FA02460B462046294615F020
:1018F0002BF906460F4602460B462046294615F0B0
:10190000D7FA0022CDE900014FF080433046394636
:1019100015F01AF902460B46DDE9000115F0F2FB5D
:10192000424606460F464B462046294615F0C0FA69
:1019300042464B4615F00AF902460B4630463946F8
:1019400015F002F922462B4615F0FEF802460B462A
:101950000020494915F0F8F88A44BAF5801FC0F212
:1019600039815146DDE9042315F0A2FA52E44246DA
:101970004B464046494615F09BFA4BE4BAF1000F3E
:10198000BFF6D7ACDDE90034184604F1004141E46C
:101990003A4B21F00048984540F3FF80384B0B4408
:1019A00003430CD132463B4615F0CEF802460B46B7
:1019B000DDE9000115F0F8FC00283FF4F3AEDDE9A5
:1019C000040125A3D3E9002315F072FA22A3D3E979
:1019D000002315F06DFA1DE49FED217B8DED047B56
:1019E00085E602460B460020234915F08BFB2EE4CA
:1019F0009FED1D7B8DED087B8DED0E7B9FED027BBA
:101A000000278DED067BD8E4000000000000F03FC9
:101A1000FE822B654715973C00000000432EE63FF1
:101A2000EF39FAFE422EE63F396CA80C615C20BE0D
:101A3000D0A4BE726937663EF16BD2C541BDBB3ED4
:101A40002CDE25AF6A56113F93BDBE166CC1663FB2
:101A50003E5555555555C53F59F3F8C21F6EA50162
:101A6000000000000000F0BF0000000000000000C7
:101A7000FFFF8F40FFFF0F000000F03FFFCB9040C3
:101A800000346F3F684B9E427FF750AC674B9E42DD
:101A90003FF7FDAB0022654B15F056F852A3D3E992
:101AA000002306460F4615F003FA51A3D3E900239D
:101AB000804689463046394615F0FAF900228246BA
:101AC0008B465B4B3046394615F0F2F902460B4621
:101AD00049A1D1E9000115F037F832463B4615F02F
:101AE000E7F902460B460020524915F02DF8324620
:101AF000CDE902013B463046394615F0D9F9024698
:101B00000B46DDE9020115F0D3F93DA3D3E900232B
:101B100015F0CEF902460B465046594615F014F81A
:101B200002460B4606460F464046494615F00EF85B
:101B300042464B46002082468B4615F005F8024689
:101B40000B463046394614F0FFFF80468946C5E50E
:101B500042464B460020354915F0D4FAFFF75ABBF0
:101B6000DDE9040128A3D3E9002315F0A1F926A398
:101B7000D3E9002315F09CF9FFF74CBBBEF1000F31
:101B80007FF453ABC3F1140347FA03F202FA03F3F1
:101B90009F4223D07446FFF720BB264B98453FF762
:101BA00001AEDDE90223924693462BE602460B4640
:101BB000FFF7B3BB9FED167B8DED087B9FED167B8A
:101BC0008DED0E7B9FED167B4FF480278DED067B10
:101BD000FFF7F3BB5A4601F04FFDC3E602F00102E6
:101BE000C2F10204FFF7F9BA000000604715F73FA1
:101BF00044DF5DF80BAE543E555555555555D53F10
:101C0000FE822B654715F73F9C7500883CE4377EC4
:101C10000000004003B8E23F06D0CF43EBFD4C3E4E
:101C2000000000000000F83FFEFFEF3F0000F03F23
:101C30000000D03F0000E03F2DE9F0479C4B21F031
:101C400000479F4290B08046894640F38E80994B72
:101C50009F420C46924626DC00298BA3D3E9002341
:101C600040F3B08114F070FF934B9F4204460D4641
:101C700000F0908086A3D3E9002314F065FF0246AC
:101C80000B46CAE900232046294614F05DFF80A3D5
:101C9000D3E9002314F058FF0125CAE902012846C0
:101CA00010B0BDE8F087854B9F4240F39080844B95
:101CB0009F4265DC3D15A5F21645A7EB0553194675
:101CC0001F46064615F0A4FB15F08CF880468946A1
:101CD00042464B4630463946CDE90A8914F034FF76
:101CE0000022784B15F0E4F88946804615F090FB09
:101CF00015F078F806460F4632463B4640464946C0
:101D0000CDE90C6714F020FF00226E4B15F0D0F8DF
:101D100000220023CDE90E0115F032FB002800F06F
:101D20006F81002330463946002215F029FB002838
:101D300014BF01230223644A019202212A46009122
:101D40000AA8514600F08CFB002C054614DADAF89C
:101D50000420DAF80C3002F1004203F1004345425E
:101D6000CAF80420CAF80C3006E000200021C2E9BD
:101D70000089C2E902010025284610B0BDE8F087BD
:101D800002460B4614F0E0FE0025CAE90201CAE94A
:101D90000001F1E740A3D3E9002314F0D5FE40A3EE
:101DA000D3E900230D46044614F0CEFE02460B464E
:101DB000CAE900232946204614F0C6FE38A3D3E919
:101DC000002314F0C1FE0125CAE90201D4E715F091
:101DD000E7FD35A3D3E900238046894615F068F86E
:101DE00000223A4B14F0B2FE15F012FB054614F037
:101DF000F9FF25A3D3E90023CDE9060115F058F832
:101E000002460B464046494614F09EFE20A3D3E905
:101E10000023CDE90201DDE9060115F049F81F2D87
:101E200080468946CDE9048954DC294B6A1E53F863
:101E300022309F424ED002460B46DDE9020114F0EB
:101E400083FE80468946CAE9008942464B46DDE961
:101E5000020114F079FEDDE9042314F075FE002C74
:101E6000CAE9020188DA09F1004401F100436D4238
:101E7000CAF80080CAF80440CAF80800CAF80C3052
:101E80007AE700BFAFF3008000004054FB21F93F28
:101E90003163621A61B4D03D0000601A61B4D03D74
:101EA0007370032E8A19A33B83C8C96D305FE43F6A
:101EB000FB21E93F7BD90240FB21F93FFB2139415E
:101EC000FFFFEF7F0000704120BC02080000E03FF0
:101ED000A0BB0208DDE90423DDE9020114F034FEB1
:101EE0003F15C1F30A53FB1A80468946102BCAE9F5
:101EF0000089AADD58A3D3E90023DDE9060114F027
:101F0000D7FF8046894602460B46DDE9020114F000
:101F10001BFE02460B46DDE90201CDE9082314F061
:101F200013FE42464B4614F00FFE4DA3D3E90023A7
:101F300080468946DDE9060114F0BAFF42464B4669
:101F400014F002FE0B46CDE904010246DDE908016A
:101F500014F0FAFDC1F30A53FF1A80468946312F67
:101F6000CAE900896CDD41A3D3E90023DDE906015C
:101F700014F09EFFDDE9088906460F4602460B462F
:101F80004046494614F0E0FD02460B4640464946AD
:101F9000CDE9022314F0D8FD32463B4614F0D4FDBF
:101FA00034A3D3E9002306460F46DDE9060114F009
:101FB0007FFF32463B4614F0C7FD02460B46CDE993
:101FC00004233AE714F0C2FD274B9F4204460D4616
:101FD00018D01FA3D3E9002314F0B8FD02460B4626
:101FE000CAE900232946204614F0AEFD18A3D3E920
:101FF000002314F0ABFD4FF0FF35CAE90201BBE648
:10200000032398E614A3D3E9002314F09FFD14A33F
:10201000D3E900230D46044614F098FD02460B4612
:10202000CAE900232946204614F08EFD0CA3D3E90B
:10203000002314F08BFD4FF0FF35CAE902019BE647
:102040009DED087B8DED027BFFE600BFAFF30080C6
:102050003163621A61B4D03D0000601A61B4D03DB2
:102060007370032E8A19A33BFB21F93F0000002E59
:102070008A19A33BC14920259A837B3900000000BF
:10208000594A2DE9F84F21F00048904506460F4681
:102090002BDC564B0029B4BF554D564D98454FF09B
:1020A000000410DC544B984570DC4DA3D3E90023A9
:1020B00014F04CFD0022514B15F08AF9D8B130468E
:1020C0003946BDE8F88F4E4B98457CDD4D4B984521
:1020D00044DD013398453ED03046394640A3D3E92C
:1020E000002314F0E5FEBDE8F88F02460B4614F01D
:1020F0002DFDBDE8F88F3046394615F051FC01F052
:102100007FF806460F4632463B463046394614F0C5
:102110001DFD324682468B463B463046394614F01A
:10212000C7FE002280468946344B3046394614F0BB
:102130000DFD02460B464046494614F0E3FF0246B9
:102140000B465046594614F0FFFC22462B4614F02D
:10215000AFFEBDE8F88F2C4B9842BDD830463946CB
:1021600015F01EFC0022234B14F0A2FEFEF714FC17
:1021700006460F4602460B462046294614F098FEB6
:1021800032463B4614F094FEBDE8F88F15F008FC8B
:1021900001F036F81D4B984506460F46B3DD002288
:1021A000164B14F0D3FC02460B463046394614F069
:1021B000A9FF32463B4614F0C9FC22462B4614F0D8
:1021C00077FEBDE8F88F15F0EBFBFEF7E5FB024666
:1021D0000B462046294614F06BFEBDE8F88F00BF81
:1021E0003374AC3C1F7BAC7FFFFFEF7FFFFF3540BC
:1021F0000000E0BF0000E03FFFFF2F3E0000F03F87
:10220000412E8640CD3386407DF8B98FFFFFEF3FEA
:102210002DE9F04F21F00048B8F1795F85B006460E
:102220000F4692469B466BDA15F0F2F8002800F054
:10223000EA8032463B463046394614F039FE74A3F4
:10224000D3E9002304460D4614F032FE72A3D3E90D
:10225000002314F07BFC22462B4614F029FE70A3C9
:10226000D3E9002314F070FC22462B4614F020FE24
:102270006DA3D3E9002314F069FC22462B4614F029
:1022800017FE6BA3D3E9002314F05EFC22462B4615
:1022900014F00EFE68A3D3E9002314F057FC224685
:1022A0002B4614F005FECDE900010022664B2046C6
:1022B000294614F0FDFDDDE90023804689462046CD
:1022C000294614F0F5FD524604460D465B4630465D
:1022D000394614F0EDFD02460B462046294614F01F
:1022E00033FC02460B464046494614F02DFC02469C
:1022F0000B460020554914F027FC05B0BDE8F08FCF
:1023000002460B4614F0D4FD41A3D3E90023044652
:102310000D4614F0CDFD40A3D3E9002314F016FCC4
:1023200022462B4614F0C4FD3DA3D3E9002314F04C
:102330000BFC22462B4614F0BBFD3BA3D3E9002344
:1023400014F004FC22462B4614F0B2FD38A3D3E966
:10235000002314F0F9FB22462B4614F0A9FD36A306
:10236000D3E9002314F0F2FB2B46224614F0A0FD23
:10237000374B9845CDE9000197DD364B984539DC60
:10238000A8F500130022002030499046994614F029
:10239000DBFBCDE9020100222B4B2046294614F03D
:1023A00087FD42464B4614F0CFFBDDE90023804613
:1023B00089462046294614F07BFD524604460D46C8
:1023C0005B463046394614F073FD02460B46204604
:1023D000294614F0B9FB02460B464046494614F024
:1023E000B3FB02460B46DDE9020114F0ADFB05B07C
:1023F000BDE8F08F9FED127B4FF000088DED027B62
:10240000DFF85490C7E71149002005B0BDE8F08F10
:10241000D43888BEE9FAA8BDC4B1B4BD9EEE213E51
:10242000AD529C804F7E923E9015CB19A001FA3E92
:102430007751C1166CC1563F4C5555555555A53F62
:10244000000000000000E73F0000E03F0000F03F18
:102450003233D33F0000E93F0000D23F00000000CC
:102460002DE9F04FADF51B7D9F4CA49E9F4D54F878
:10247000264007942646D41E85FB0475E417C4EB5A
:10248000A50424EAE4741D460A93631CA3EB8303AA
:10249000013D02EBC30306932B460B940395651B8A
:1024A000F418049008911AD42C4400260027013413
:1024B0000DF18808DDF8949208E059F8250014F031
:1024C00091FC0135A542E8E8020108D0002DF4DABC
:1024D000013530463946A542E8E80201F6D1079BAE
:1024E000002BC0F2DF83079B03F1010B0A9B22A99B
:1024F000DB001A4601EB03090093049B0DF5E47A17
:1025000019460AEBCB0B01EB0208039B002BC0F230
:10251000F582049C4D460026002775E90223F4E865
:10252000020114F0C5FC02460B463046394614F051
:102530000DFB444506460F46EFD1EAE80267DA454F
:1025400009F10809E1D107990098049C009101F173
:102550008043013B9B0020441A1F83460EA802447F
:1025600003440C920D93009A9AA901EBC203002A2E
:1025700053E9284529DD0DF5E47A0AEBC2080DF18F
:10258000340900225A4B2046294614F091FC14F0DD
:102590003FFF14F027FC0022564B06460F4614F06E
:1025A00087FC02460B462046294614F0CDFA14F06B
:1025B0002FFF78E9022349F8040F3946304614F01A
:1025C000C5FAD04504460D46DBD1DDF8189020460B
:1025D00029464A4601F050F800224FF07F53044646
:1025E0000D4614F065FCFCF75FFD0022424B14F031
:1025F0005FFC02460B462046294614F0A5FA0D461C
:10260000044614F005FF804614F0ECFB0B4602462E
:102610002946204614F098FA4B46002B06460F46F2
:1026200040F3F980009A0EA9013AC9F1180351F854
:10263000225045FA03F101FA03F30EA8EB1A40F811
:102640002230C9F11705884443FA05F5002D6DDDE8
:10265000009B002B08F1010840F36F820E9C002CB8
:1026600040F01683009B012B40F38F820EAA0123BA
:1026700052F8044F002C00F08382581C0EAAC4F1BB
:10268000807442F82340009A824219DD0EAA0EACF3
:1026900052F820106FF07F42511A44F82010009930
:1026A000023399420CDD1046009A0EA901EB830318
:1026B00001EB82011A68821A43F8042B8B42F9D18C
:1026C000069B002B1ADD069B012B4FF0010440F006
:1026D0003C82009B5A1E0EAB0EA953F82230C3F366
:1026E000160341F822303CE2C0C00208ABAAAA2A75
:1026F0000000703E0000704100002040022D15D106
:1027000032463B460020924914F01EFA06460F4618
:10271000069A8F49002000F0AFFF02460B46304674
:10272000394614F011FA022506460F46002200230E
:102730003046394614F024FE002800F03782009A13
:10274000079B501E83420FDC02F18043013B0EAA1F
:102750000D9C02EB8303002253F80419A34242EAC2
:102760000102F9D1002A67D1079B0EAA013B52F85A
:102770002330002B40F018820C9A012352F80419E0
:1027800001330029FAD0009AD31802F1010A9A45C0
:1027900009933DDC009B0A990B9A0B4409990AEBBB
:1027A0000208994622AB08F1804803EBC9098B184F
:1027B000A59A08F1FF3802EB880872AA02EBCA0A50
:1027C000A59A02EB8303009358F8040F14F00AFB58
:1027D000039B002BE9E802014FF000064FF00007D1
:1027E00011DB049C4D4675E90223F4E8020114F064
:1027F0005FFB02460B463046394614F0A7F95C45AC
:1028000006460F46EFD1009B9845EAE80267DBD108
:10281000099B0093A7E606D1009B0EAA013B52F844
:102820002350ED1512E700224A4B14F0C7FD002893
:1028300040F06E81054679E70EA9039551F82030E6
:102840000699CDF8248018390246009006916BB99C
:1028500000F18043013B0EA800EB830353F8040909
:10286000013A18390028F9D000920691069A3849A1
:10287000002000F001FF009B002B04460D46C0F233
:10288000F781DA0072A901EB020B06920EAA02EBA5
:102890008306DFF8C4904FF000080BF108070436F8
:1028A00056F8040D14F09EFA22462B4614F000FB55
:1028B0004B4667E9020142462046294614F0F8FAE1
:1028C0000EAB9E4204460D46EAD14AACDDF81C90A0
:1028D00004944FF0000AB9F1000FC0F22B81DFF829
:1028E0007C805D4618A1D1E9000100260027002464
:1028F00003E0544510DCF8E80201F5E8022314F087
:10290000D7FA02460B463046394614F01FF9013417
:10291000A14506460F46ECDA049B03EBCA03ABF174
:10292000080BC3E9006770AB9B450AF1010AD2D1DD
:10293000A49B049C032B00F28980DFE803F0C58E82
:102940008E1100BFAFF3008000000040FB21F93F73
:102950000000F03F0000E03F0000703EA0A602082B
:10296000009B002B40F38181069A04EB020ADAE90E
:10297000008902F1080525440DF5987B1AED027BCC
:1029800042464B4651EC170B8DED047B14F0DEF8FC
:1029900006460F4602460B46DDE9040114F0D4F862
:1029A00042464B4614F0D2F865E902015D45B04657
:1029B000B9466AE90267E1D1009B012B40F35581DA
:1029C000069BE518D5E9008903F1080B04EB0B0A17
:1029D00015ED027B42464B4651EC170B8DED007B0B
:1029E00014F0B4F806460F4602460B46DDE9000136
:1029F00014F0AAF84B46424614F0A8F86AE902011E
:102A00004EAB5345B046B94665E90267E0D10020B8
:102A1000002104EB0B0575E9022314F097F8AA4591
:102A2000F9D1039B002B00F00A816268E368089FDC
:102A30002568A4683D6002F1004203F1004301F102
:102A400000417A60FB60BC6038617961099B03F0EA
:102A500007000DF51B7DBDE8F08F069D0835254468
:102A60000020002175E9022314F070F8A542F9D185
:102A7000039B002B00F0D280089E024601F1004328
:102A800086E80C000B460246D4E9000114F05CF81D
:102A9000009B002B0BDD4CAD0124F5E8022314F064
:102AA00055F8009B0134A342F7DA039B13B101F1FF
:102AB00000431946089BC3E90201099B03F0070084
:102AC0000DF51B7DBDE8F08F069D08350020002127
:102AD000254475E9022314F039F8AC42F9D1039B7F
:102AE00013B101F100431946089BC3E90001099B9A
:102AF00003F007000DF51B7DBDE8F08F00260027D1
:102B0000EAE80267DA4509F108097FF4FEAC1AE544
:102B1000009B002B08F10108C8BF02253FF79EADBE
:102B200032463B460020614914F00EF80225064665
:102B30000F46FBE500260027EEE6069B002B27DD6F
:102B40000024069B012B3FF4C4AD022B09D1009B4E
:102B50005A1E0EAB0EA953F82230C3F3150341F8E9
:102B60002230022D7FF4E2AD32463B4600204F4931
:102B700013F0EAFF06460F46002C3FF4D7ADC7E539
:102B80000099013399427FF473AD069B002BD8DC8A
:102B9000022D7FF4CBAD32463B460020434913F073
:102BA000D3FF06460F46C1E50123ECE53946069FF3
:102BB00003957A423046CDF8248000F05DFD002276
:102BC0003B4B04460D4614F0F9FB002843D000228D
:102BD000384B2046294614F06BF914F019FC0646D0
:102BE00014F000F90022324B14F062F902460B4651
:102BF0002046294613F0A8FF14F00AFC00990B4662
:102C000001331A4600933B46183306930B460EA930
:102C100041F82300134641F8236027E6089B02464B
:102C2000C3E900010B46D4E9000113F08DFF009BBE
:102C3000002B3FF730AF089BC3E902013DE7D4E921
:102C40000067D4E90223089DC5E90401C5E90067CE
:102C5000C5E90223FAE62946204614F0D9FB009A7A
:102C60000EA941F8220001E64AAC00200021D8E676
:102C7000A49B032B3FF6EAAE01A252F823F000BF5B
:102C80009F2C0108972C0108972C0108692C01083A
:102C900001200023F2E4002000214AACE8E60020F5
:102CA00000211CE70A9BDB0000934CE40000F03F8E
:102CB000000070410000703E2DE9F04F21F0004609
:102CC000B6F1795F85B004460D469046994604DA20
:102CD00014F09EFB002800F0858022462B462046FB
:102CE000294614F0E5F806460F4602460B462046F4
:102CF000294614F0DDF841A3D3E9002382468B4630
:102D00003046394614F0D4F83EA3D3E9002313F03B
:102D10001BFF32463B4614F0CBF83CA3D3E900231B
:102D200013F014FF32463B4614F0C2F839A3D3E93E
:102D3000002313F009FF32463B4614F0B9F837A3DD
:102D4000D3E9002313F002FF0E9BCDE900019BB3F2
:102D50000022294B4046494614F0AAF8DDE9002339
:102D6000CDE902015046594614F0A2F802460B463E
:102D7000DDE9020113F0E8FE32463B4614F098F814
:102D800042464B4613F0E0FE19A3D3E90023064662
:102D90000F465046594614F08BF802460B46304613
:102DA000394613F0D3FE02460B462046294613F05F
:102DB000CBFE05B0BDE8F08F02460B4630463946E3
:102DC00014F076F80AA3D3E9002313F0BDFE5246AF
:102DD0005B4614F06DF822462B4613F0B7FE05B0A3
:102DE000BDE8F08F2046294605B0BDE8F08F00BF52
:102DF000495555555555C53F0000E03F7CD5CF5A44
:102E00003AD9E53DEB9C2B8AE6E55A3E7DFEB1576B
:102E1000E31DC73ED561C119A0012A3FA6F81011D4
:102E20001111813F000000002DE9F04FBE4C21F050
:102E3000004687B0A64282468B460F46CDE9002366
:102E40001BDC14F0E5FA002837D153461E43109BD3
:102E50000133334300F0B381109B012B00F0C88194
:102E600052465B460020B14914F04CF904460D4629
:102E70002046294607B0BDE8F08FAD4B9E421CDDD1
:102E80000029C0F2A98152465B4687A1D1E9000121
:102E900013F05AFEDDE9002304460D4684A1D1E972
:102EA000000113F051FE9FED847B22462B468DEDF1
:102EB000007B13F04BFE82468B4652465B465046E3
:102EC000594613F0F5FF02460B468046894613F03B
:102ED000EFFF424604460D464B465046594613F016
:102EE000E7FF77A3D3E90023CDE902012046294675
:102EF00013F0DEFF74A3D3E9002313F027FE22466C
:102F00002B4613F0D5FF72A3D3E9002313F01EFE66
:102F100022462B4613F0CCFF6FA3D3E9002313F016
:102F200015FE22462B4613F0C3FF6DA3D3E9002301
:102F300013F00CFE22462B4613F0BAFF6AA3D3E926
:102F4000002313F003FE42464B4613F0B1FF68A383
:102F5000D3E90023CDE904012046294613F0A8FF58
:102F600065A3D3E9002313F0F1FD22462B4613F0AD
:102F70009FFF63A3D3E9002313F0E8FD22462B460D
:102F800013F096FF60A3D3E9002313F0DFFD224680
:102F90002B4613F08DFF5EA3D3E9002313F0D6FD7B
:102FA00022462B4613F084FF5BA3D3E9002313F0E2
:102FB000CDFD02460B46DDE9040113F0C7FDDDE956
:102FC000022313F075FFDDE9004522462B4613F07E
:102FD000BDFD42464B4613F06BFF02460B462046B2
:102FE000294613F0B3FD4EA3D3E9002304460D4652
:102FF000DDE9020113F05CFF22462B4613F0A6FD2B
:103000000B460246804689465046594613F09EFDBF
:10301000474B9E4204460D4600F38E80109B012BC9
:103020003BD002460B460020404914F06BF80024C8
:1030300006460F462046294652465B46CDE90067C4
:10304000CDE90201009413F07FFDDDE900AB0246FB
:103050000B464046494613F077FD52465B4613F057
:1030600027FF524604460D465B46DDE9020113F098
:103070001FFF00222F4B13F069FD02460B4620462E
:10308000294613F063FD32463B4613F011FF5246CA
:103090005B4613F05BFD04460D462046294607B00B
:1030A000BDE8F08FAFF30080182D4454FB21E93FB9
:1030B000075C143326A6813C0000000000000000DD
:1030C000D47ABF74702AFB3EE9A7F0320FB8123FE2
:1030D00068108D1AF726303F1583E0FEC8DB573F96
:1030E00093846EE9E326823FFE41B31BBAA1AB3F56
:1030F000735360DBCB75F3BEA69237A0887E143F76
:103100000165F2F2D844433F280356C9226D6D3F52
:1031100037D60684F464963F7AFE10111111C13F30
:10312000635555555555D53FFFFF2F3E0000F0BF65
:103130002794E53F0000F03F109813F053FE22461D
:10314000CDE900012B462046294613F0B1FEDDE90A
:103150000023CDE902012046294613F0F7FC024680
:103160000B46DDE9020113F0CDFF42464B4613F05A
:10317000EBFC02460B465046594613F0E5FC02466E
:103180000B4613F0E3FC02460B46DDE9000113F0A9
:10319000DBFC0446B81700F00200C0F101000D4648
:1031A00013F020FE02460B462046294613F080FE0F
:1031B00004460D462046294607B0BDE8F08F50462C
:1031C000594614F0EDFB02460B4600200A4913F065
:1031D00099FF04460D4660E7DDE9004501F1004135
:1031E000224605F1004382468B46CDE900234AE69C
:1031F00054465D4651E700BF0000F03F000000006C
:103200002DE9F04FD24A21F00043934285B0824627
:103210008B460C462DD9CF4A93421AD8002C80F207
:103220001681B5A3D3E900235046594613F08EFC0E
:103230000022002314F0AEF8C0B9B1A3D3E90023F3
:103240005046594613F034FE02460B460020C24950
:1032500008E1C24A934240F2D0800346C1F3130210
:10326000134340F0F481002980F2C4800020BC495F
:10327000C0E0BC4A934200F22981BB4A934240F22B
:10328000DE80002301930022B84B5046594613F0CC
:103290000FFE06460F4602460B465046594613F0AF
:1032A00007FE99A3D3E9002304460D4613F000FE60
:1032B00097A3D3E9002313F049FC22462B4613F0D1
:1032C000F7FD95A3D3E9002313F03EFC22462B46DD
:1032D00013F0EEFD92A3D3E9002313F037FC22464E
:1032E0002B4613F0E5FD90A3D3E9002313F02CFC4B
:1032F00022462B4613F0DCFD00229D4B13F026FCEA
:103300008046894602460B463046394613F0D0FDCA
:1033100002460B460020974913F016FC064602466B
:103320000B460F464046494613F00EFC3246804697
:1033300089463B465046594613F0BAFD02460B46B5
:1033400000208D4913F000FC02460B4640464946DA
:1033500013F0D8FE22462B4613F0AAFD019E02462A
:103360000B46002E38D0DDE9026732463B4613F0AB
:10337000EBFB52465B4613F09BFD32463B4613F097
:10338000E3FB2B46224613F0DFFB019B013306468D
:103390000F4600F00F81019B012B00F0F180019B93
:1033A0000133392B39D8019B132B40F31281019C37
:1033B000C4F57F75033500222B0513F0C7FB0246C9
:1033C0000B465046594613F0BFFB0022684B13F0E2
:1033D000BDFB01EB04510DE05046594613F068FD6A
:1033E00022462B4613F0B0FB02460B465046594688
:1033F00013F0AAFB05B0BDE8F08F4DA3D3E900237D
:1034000013F0E6FF00283FF409AF4BA3D3E90023F4
:103410001046194613F04CFDECE752465B4613F09C
:1034200093FB02460B460020514913F08DFB019A95
:103430004F4B01EB0251002213F086FBDAE73EA36B
:10344000D3E9002313F082FB02460B46CAE72CA304
:10345000D3E900235046594613F02AFD0B46434951
:103460000246002013F072FB13F0D2FF019013F01C
:10347000B9FC33A3D3E9002306460F4613F018FD29
:1034800002460B465046594613F05EFB2EA3D3E985
:103490000023804689463046394613F009FD06462A
:1034A0000F4632463B464046494613F04DFB024626
:1034B0000B4682468B464046494613F045FB324652
:1034C0003B4613F041FBCDE90201DCE62B4A934277
:1034D00000F2958000291AA3D3E90023C0F2AC8042
:1034E00013F032FB012380468946019316A7D7E9E2
:1034F0000067D6E7AFF3008059F3F8C21F6EA5014D
:10350000FE822B654715F73F2DC3096EB7FD8ABEB6
:103510003952E686CACFD03EB7DBAA9E19CE143FF9
:103520008555FE19A0015A3FF41011111111A13F48
:10353000EF39FAFE422E86409C7500883CE4377EC7
:103540000000E0FE422EE63F763C7935EF39EA3D59
:1035500079684340412E86400000E0BFFFFFEF7FC7
:103560000000F0BF422ED63FFFFF8F3C0000E03F3F
:103570000000F03F0000084000001840B1A2F03FFA
:103580000022394B5046594613F004FF002844D01E
:10359000504659460022354B13F0D8FA02460B46E6
:1035A0003046394613F0D0FA00224FF0404313F072
:1035B0007FFC1FE702460B465046594613F0C4FAFB
:1035C00000222A4B13F074FC0022284B13F0BCFAA3
:1035D00010E7019C4FF400132341C3F17F5752467B
:1035E0005B4613F0B1FA002607F5401702460B467A
:1035F0003046394613F0A8FA01EB0451FAE616A357
:10360000D3E9002313F054FC002C02460B464FF084
:103610000000FFF61CAE154924E732463B465046F3
:10362000594613F091FA02460B4613F08FFA002226
:103630000F4B13F08BFADDE613F088FA4FF0FF33EF
:1036400080468946019306A7D7E9006729E7024625
:103650000B4613F07BFACDE6FE822B654715F73F4C
:10366000763C7935EF39EABD0000D0BF0000E03F7D
:103670000000F03F00000000F8B5C1F30A56044610
:103680000D460B4617460EBB21F00043034386460A
:1036900025D00022344B13F00BFC344A97420446E9
:1036A0000D460B462ADBC1F30A56363E3E4440F235
:1036B000FE72964228DC002E12DD23F0FF4323F435
:1036C000E00343EA065520462946F8BD40F2FF7262
:1036D0009642EBD102460B4613F038FAF8BDF8BD1E
:1036E00016F1350F1DDA4CF250339F4222462B461D
:1036F00025DC19A1D1E9000116F014F816A3D3E9CD
:10370000002313F0D5FBF8BD22462B4614A1D1E9C6
:10371000000116F007F812A3D3E9002313F0C8FB49
:10372000F8BD23F0FF4323F4E003363643EA0655A1
:103730002046294600220E4B13F0BAFBF8BD08A123
:10374000D1E9000115F0EEFF05A3D3E9002313F042
:10375000AFFBF8BDAFF3008059F3F8C21F6EA501AF
:103760009C7500883CE4377E00005043B03CFFFF6E
:103770000000903C10B5054C237833B9044B13B1CD
:103780000448AFF300800123237010BDC004002063
:103790000000000080C202080C4B43B10C480D49E8
:1037A00010B5AFF300800C48036823B910BD0A4878
:1037B000036833B97047094B002BF7D0BDE81040C0
:1037C0001847064B002BF5D0184700BF000000003B
:1037D00080C20208C4040020300400200000000061
:1037E000154B002B08BF134B9D46A3F5803A0021D3
:1037F0008B460F461348144A121A07F00BF90F4B69
:10380000002B00D098470E4B002B00D0984700208B
:10381000002104000D000D48002802D00C480DF0D6
:10382000ADFF16F0EDF8200029000DF087FF0DF038
:10383000A1FF00BF0000080000800220000000007F
:103840002D17020838040020C03300207D1702081D
:1038500000000000F0B5214D2C6883B014B1204663
:1038600003B0F0BD4FF49C700DF08AFF4FF0FF31B4
:103870000646032001F042FC00B204F06DF84FF060
:10388000FF310746022001F039FC00B204F064F871
:103890003946024606F1DC0730460AF007FD2346AA
:1038A0002246384601210AF09DFB4FF0FF310120EE
:1038B00001F024FC00B204F04FF898244FF0050EFC
:1038C00002468DE810403B46314606F1E40007F021
:1038D00097FC344620462E6003B0F0BDDC04002087
:1038E0002DE9F04104460F46FFF7B4FF00F1E4056F
:1038F0000646284607F0A2FC082C0BD0A4F10903C9
:10390000012B15D93A46214610230D20BDE8F04180
:1039100003F00CBFD6F8E43028469B6A984702288B
:10392000F0DCD6F8E43028465B6A04219847E9E7E2
:10393000D6F8E43028469B6A98470528E2DCD6F89A
:10394000E43028465B6A08219847DBE710B52DED87
:10395000028BFFF77FFF00F1E404204609F0BEF977
:1039600007EE900A2046F8EEE78A09F0C5F907EE5F
:10397000900A2046B8EEE78A09F0CCF968EE087A9A
:1039800007EE100AE8EEA87AB8EEC77AE7EE077AF3
:10399000F5EE407AF1EE10FAB1EEE78A03D517EEB4
:1039A000900A14F049FDFDEEC87ABDEC028B17EECB
:1039B000900A10BD08B503281CD8DFE800F0140DEC
:1039C0000602BDE80840FFF7C1BFFFF743FFBDE8AF
:1039D0000840E43009F09EB9FFF73CFFBDE808401D
:1039E000E43009F089B9FFF735FFBDE80840E4305D
:1039F00009F074B9002008BD08B550B1012806D1FE
:103A0000FFF728FFBDE80840E430FBF765B8002069
:103A100008BDFFF71FFFBDE80840E430FBF73CB8E6
:103A200010B50446FFF716FF2146E430BDE810400C
:103A300008F06CBF08B501F089FCFBF7F1FDBDE8AB
:103A4000084001F0EDB900BF08B501F07FFCFBF7BD
:103A500057FEBDE8084001F0E3B900BF08B501F02A
:103A600075FC14F013F8BDE8084001F0D9B900BFA7
:103A700008B501F06BFC14F01BFCBDE8084001F038
:103A8000CFB900BF08B501F061FCFBF7D9FDBDE877
:103A9000084001F0C5B900BF08B501F057FC14F0AB
:103AA00033FABDE8084001F0BBB900BF08B501F02A
:103AB0004DFCFBF731F8BDE8084001F0B1B900BF9B
:103AC00008B501F043FC14F073F9BDE8084001F0BB
