:020000040800F2
:10E0000000800220512E02087191020871910208CD
:10E0100071910208719102087191020800000000DC
:10E02000000000000000000000000000ADEA010850
:10E03000719102080000000053EB0108B3EB0108E6
:10E0400071910208719102087191020871910208A0
:10E050007191020871910208719102087191020890
:10E060007191020871910208719102087191020880
:10E070007191020871910208719102087191020870
:10E0800071910208719102087191020881FB0108E7
:10E090006DFA01087191020885FB0108719102086F
:10E0A0007191020871910208719102087191020840
:10E0B000719102087191020800000000719102083C
:10E0C0007191020871910208719102087191020820
:10E0D0007191020871910208719102087191020810
:10E0E0007191020871910208000000000000000018
:10E0F0000000000000000000000000000000000020
:10E1000000000000719102080000000071910208F7
:10E1100071910208000000007191020800000000E7
:10E1200071910208719102087191020871910208BF
:10E1300071910208719102087191020800000000BB
:10E14000719102087191020871910208719102089F
:10E15000719102087191020871910208719102088F
:10E16000719102087191020871910208000000008B
:10E170000000000071910208000000000000000093
:10E18000719102087191020871910208719102085F
:10E1900071910208000000002DE9F04F2DED028B77
:10E1A00085B003910478A4F10903042B054604F01B
:10E1B0007F0200F10100F5D9202AF3D02B2C04BFF7
:10E1C0006C7805462D2C00F081809FED497BB0EEE8
:10E1D000478AF0EE678A00260027D4B34FF0000C80
:10E1E000DFF81C914FF00008E246AB461DE018F046
:10E1F000EBF802460B462846CDE9002318F07AF8E2
:10E20000DDE9002317F02AFF424606460F464B463B
:10E2100051EC180BBAF1000F2CD018F0FFF941ECBB
:10E22000180BD4461BF8014F94B1A4F13005092D09
:10E2300042464B4630463946D9D9BAF1000F1CD177
:10E240002E2C1AD11BF8014F4FF0010A002CECD1F3
:10E250005D4632463B4651EC180B18F0B5F80646C1
:10E260000F46039B304639461D6005B0BDEC028B5E
:10E27000BDE8F08F4FF0010CD4E75D46BCF1000F14
:10E280002DD032463B4651EC180B18F09DF804F0A7
:10E29000DF04452C06460F46E3D10399681C0A2289
:10E2A0001AF084FE16490246002018F0EDFB0246E3
:10E2B0000B463046394618F087F806460F4630467A
:10E2C000394605B0BDEC028BBDE8F08F9FED0A7BAF
:10E2D0006C78B0EE478AF0EE678A01357BE7094F2C
:10E2E00000263046394605B0BDEC028BBDE8F08F04
:10E2F000000000000000F03F000000000000F0BF40
:10E30000000024400000F87F2DE9F0470023144668
:10E31000002206460F4618F0C9FA28B12D2107F150
:10E32000004304F8011B1F460022002330463946F3
:10E3300018F0B2FA28B13022002322706370BDE8D1
:10E34000F0873046394619F099F918F0EDFA85A3AF
:10E35000D3E9002380463946304618F0A7FA48B979
:10E3600082A3D3E900233046394618F0BDFA82462D
:10E37000002875D0B8F1000FC0F297804246764968
:10E38000002018F081FB02460B463046394618F053
:10E3900045F96FA3D3E9002318F016F86F4B00225C
:10E3A00017F05CFE18F0AAFB012502460B464FF061
:10E3B000FF3E4FF00009DFF8BCC16948012745F670
:10E3C000F3214FF02E0A8B4208BF82424FF03006F5
:10E3D00009D3121A63EB01038B4208BF824206F194
:10E3E0000106F6D2F6B2214652EA030001F8016BAB
:10E3F00008D1BD420FDD0137102F0CD00C467CE94F
:10E400000201E0E7BD4207F1010704BF84F801A063
:10E41000A11C102FF2D1B9F1000F0DD00A46302007
:10E4200002F8010BC2F1010373440B44002BF7DC2B
:10E430002EEAEE7301331944B8F1010F31D0B8F16F
:10E44000000F4FF065030B70C4BF2B234B70404689
:10E45000D8BF0131BDE8F047C8BF02310CF064BD40
:10E46000B8F10E0F08F101053FDDA8F10E094A468B
:10E470003949002018F008FB02460B463046394661
:10E4800018F0CCF8354B002217F0E8FD18F036FBF9
:10E49000002D02460B4613DDA8F10F0E4FF00108C8
:10E4A00089E700230B70BDE8F087C8F100022A4914
:10E4B000002018F0E9FA32463B4617F085FF68E77E
:10E4C0002146302001F8020B2E266FEA0800667004
:10E4D0000138A8F10F0E01300C18302001F8010BA3
:10E4E000A142FBD14FF0010865E7C8F10E021A49BD
:10E4F000002018F0C9FA02460B463046394617F09C
:10E5000063FF164B002217F0A9FD18F0F7FA002D53
:10E5100002460B4614DC214630206FEA08092E26FD
:10E5200001F8020B09F1FF306670B9F1000F03D05A
:10E53000D1464FF0FF3ECEE70C464FF0FF3ED1E70D
:10E54000D1464FF0FF3E4FF0010834E7AFF30080B3
:10E550000000901EC4BCD642000024400000E03FF2
:10E5600000407A108DEDB5A0F7C6B03E50EFE2D670
:10E57000E41A4B44E897020870B54FF0FF3006F0FC
:10E5800031FA04466FF07F4006F02CFA064620462A
:10E5900017F0A0FE0C4B002217F016FF0446304681
:10E5A0000D4617F097FE06A3D3E9002318F036F8BE
:10E5B00002460B462046294617F050FD70BD00BFAD
:10E5C0000000E0DFFFFF6F430000F03D00000000AF
:10E5D000294B1B68002B70B505460CBF1820052081
:10E5E0000E4609F059F9002D044639DD234B186811
:10E5F00017F080FE1EA3D3E9002317F0E5FE0022EA
:10E60000002317F02BFD18F08FF9226820EAE07143
:10E61000B1F5806FA8BF4FF48061D368204698475A
:10E6200023681749D3F8803091FBF5F120469847CD
:10E63000002E00DC70BDA6F11405012DB8BF012528
:10E6400028460DF03BFA23682046DB6800219847F6
:10E65000701B0128BDE87040B8BF01200DF02EBA34
:10E660000368BDE87040DB6800211847AFF3008005
:10E670001010101010101040740400200802002028
:10E6800040420F000000000038B5154B1B68002BFE
:10E6900004460CBF1820052009F0FEF80546204668
:10E6A00017F028FE0CA3D3E9002317F08DFE0022FB
:10E6B000002317F0D3FC18F037F92B6820EAE0713B
:10E6C000B1F5007FDB68A8BF4FF40071284698477A
:10E6D000044B1C6038BD00BF10101010101000401B
:10E6E000740400200802002030B52D4B8DB01A684C
:10E6F0000092009A120205D4009A42F4000200929D
:10E70000009A1A60274A284B126801921B680293EC
:10E710000DF0AAFF17F0EEFDCDE90401019B9BB2BD
:10E720000193029B9BB20293DDE904011AA3D3E992
:10E73000002317F049FE1D4B0022CDE90401CDE96D
:10E7400006230298019BC01A17F0C4FDCDE9080109
:10E75000DDE90445019817F0BDFD02460B46204651
:10E76000294617F079FCCDE90A01DDE90601DDE96A
:10E770000823DDE90A4517F051FF22462B4617F022
:10E7800023FE0B4B002217F069FC18F0F5F80390FC
:10E7900003980DB030BD00BF9A9999999999F13FAE
:10E7A00008030450A875FF1FCA75FF1F00005440DE
:10E7B00000003E40000000002DE9F04F044683B009
:10E7C000C06817F097FD064620690F4617F092FDC6
:10E7D0006369019380461846894617F08BFD02460F
:10E7E00001F1004382468B463046394618F0F0FD71
:10E7F00018F0E2F8E062054618F0A2FC034628464D
:10E800001D4618F05FFC034628461D4617F084FDA0
:10E8100032463B4617F0D8FD064628460F4617F00D
:10E820007BFD52465B4617F0CFFD02460B46304655
:10E83000394617F011FC0B4602464946404618F08F
:10E84000C7FD18F0B9F8019B002B07EE900A23DDF5
:10E85000F5EEC07AF1EE10FA1ADD11A7D7E90067DC
:10E8600017EE900A17F058FD02460B46304639461F
:10E8700017F0F2FB32463B4617F0F0FB18F09CF81D
:10E88000A062E38843F00203E38003B0BDE8F08FA9
:10E8900005A7D7E90067E3E7A062F2E7AFF30080DE
:10E8A000EA2E4454FB21F93FEA2E4454FB21F9BFE0
:10E8B00008B50DF007FEDFED0C7A07EE100A67EEE3
:10E8C000277A17EE900A17F027FD05A3D3E9002356
:10E8D00017F0A4FE18F028F808BD00BFAFF30080C1
:10E8E000EA2E4454FB2119400000B443000000000C
:10E8F00008B50DF0FDFDDFED0C7A07EE100A67EEAE
:10E90000277A17EE900A17F007FD05A3D3E9002335
:10E9100017F084FE18F008F808BD00BFAFF30080C0
:10E92000EA2E4454FB2119400000B44300000000CB
:10E93000494A21F0004393422DE9704304460D46B5
:10E940006EDC464A93420E4639DC3FA3D3E90023EE
:10E9500017F084FB424B002217F0C6FF00286FD14E
:10E9600022462B462046294617F02EFD02460B462E
:10E970002046294614461D4618F088FA384B0022D6
:10E98000804689462046294617F068FB19F048F969
:10E99000334B002217F062FB02460B462046294605
:10E9A00017F03CFE42464B4617F058FB00F0F4FAD5
:10E9B000002E39DC01F100431946BDE87083294A75
:10E9C000934233DCB3F1804FCADD18F05FFA224680
:10E9D000804689462B462046294617F0F5FC204BF9
:10E9E000002217F03BFB19F01BF942464B4617F08B
:10E9F00035FB02460B460020194917F00FFE424630
:10EA00004B4604460D464046494617F027FB024652
:10EA10000B462046294617F021FB02F089F8C7E78C
:10EA200002460B4617F01AFBBDE8708318F02EFA69
:10EA300002F07EF806A3D3E9002317F00FFBB7E737
:10EA400020462946BDE870839C7500883CE4377EEB
:10EA5000EF39FAFE422EE63FFFFFEF7FFFFF2F3E2A
:10EA60000000F03F0000B0412DE9F84FC44B21F009
:10EA700000469E4204460D468A460EDDC14B9E422C
:10EA800000F3B08000F0AB80BAF1000F40F3E880F3
:10EA90009FA1D1E90001BDE8F88FBB4B9E4200F376
:10EAA000B880A3F1DE739E4240F3A4804FF0FF3B99
:10EAB00022462B462046294617F086FC02460B4686
:10EAC0008046894617F080FC93A3D3E900230646CD
:10EAD0000F4617F079FC92A3D3E9002317F0BEFA92
:10EAE00032463B4617F070FC8FA3D3E9002317F0A2
:10EAF000B5FA32463B4617F067FC8DA3D3E90023F5
:10EB000017F0ACFA32463B4617F05EFC8AA3D3E915
:10EB1000002317F0A3FA32463B4617F055FC88A3B2
:10EB2000D3E9002317F09AFA42464B4617F04CFC03
:10EB300085A3D3E90023804689463046394617F03D
:10EB400043FC83A3D3E9002317F086FA32463B4601
:10EB500017F03AFC80A3D3E9002317F07DFA324680
:10EB60003B4617F031FC7EA3D3E9002317F074FA7B
:10EB700032463B4617F028FC7BA3D3E9002317F06D
:10EB80006BFA32463B4617F01FFCBBF1FF3F0246D3
:10EB90000B466AD04046494617F060FA7B4E224643
:10EBA0002B4617F011FC7A4B06EBCB064FEACB0B4A
:10EBB0009B44DBE9002317F04FFA22462B4617F05F
:10EBC0004BFA02460B46D6E9000117F045FABAF1B6
:10EBD000000F0DDA01F100431946BDE8F88F002857
:10EBE0003FF452AF22462B462046294617F036FA0C
:10EBF000BDE8F88F5EA3D3E9002317F02FFA654B29
:10EC0000002217F071FE00283FF450AF204629463D
:10EC1000EEE718F03BF9604B9E4204460D4634DCAB
:10EC2000A3F550239E4259DC02460B4617F016FA14
:10EC3000584B002217F010FA00224FF0804306468E
:10EC40000F462046294617F009FA02460B46304681
:10EC5000394617F0E3FC4FF0000B04460D4627E75A
:10EC600045A1D1E90001BDE8F88F4046494617F0BB
:10EC7000F5F922462B4617F0A7FB02460B46204625
:10EC8000294617F0E9F9BDE8F88F444B9E421ADA9D
:10EC9000434B002217F0E0F9414B06460F46002295
:10ECA0002046294617F090FB3A4B002217F0D6F980
:10ECB00002460B463046394617F0B0FC4FF0020BC7
:10ECC00004460D46F4E602460B460020354917F08F
:10ECD000A5FC4FF0030B04460D46E9E62D4B002240
:10ECE00017F0BAF92B4B002206460F46204629465C
:10ECF00017F0B4F902460B463046394617F08EFC41
:10ED00004FF0010B04460D46D2E600BFAFF3008082
:10ED1000182D4454FB21F93F11DA22E33AAD903F1C
:10ED2000EB0D76244B7BA93F513DD0A0660DB13F42
:10ED30006E204CC5CD45B73FFF8300922449C23FAA
:10ED40000D5555555555D53F2F6C6A2C44B4A2BF6F
:10ED50009AFDDE522DDEAD3F6D9A74AFF2B0B33F37
:10ED6000711623FEC671BC3FC4EB98999999C93FAF
:10ED70009C7500883CE4377E182D4454FB21F9BF74
:10ED8000FFFF0F440000F07FFFFFDB3FF09702081A
:10ED9000109802080000F03FFFFFF23F00800340A0
:10EDA0000000F83F0000F0BFF8B5C1F30A57A7F222
:10EDB000FF35132D02460B460C46064631DC002D6E
:10EDC0001DDB354F2F4101EA070C5CEA000C2DD00A
:10EDD0002FA3D3E9002317F041F90022002317F0F5
:10EDE00083FD48B1002C04DD4FF4801343FA05F590
:10EDF0002C4424EA0704002621463046F8BD24A30B
:10EE0000D3E9002317F02AF90022002317F06CFD44
:10EE10000028F1D0002C35DB26432FD01F4C0026D4
:10EE2000EAE7332D05DDB5F5806F24D0104619468D
:10EE3000F8BDA7F213474FF0FF3C2CFA07F7074243
:10EE4000F4D013A3D3E9002317F008F9002200231C
:10EE500017F04AFD0028CFD0002C09DD142D0FD06B
:10EE60000123C5F1340503FA05F5AE1928BFE418EE
:10EE700026EA0706C0E717F0F1F8F8BD3446BBE70D
:10EE80000134F5E700264FF00044B5E7AFF300800A
:10EE90009C7500883CE4377EFFFF0F000000F03FC8
:10EEA000F8B5C1F30A57A7F2FF35132D02460B46FA
:10EEB0000C4606461FDC002D3DDB354F2F4101EA95
:10EEC000070C5CEA000C1BD02FA3D3E9002317F03A
:10EED000C5F80022002317F007FD48B1002C04DA22
:10EEE0004FF4801343FA05F52C4424EA0704002666
:10EEF00021463046F8BD332D05DDB5F5806F2AD0AB
:10EF000010461946F8BDA7F213474FF0FF3C2CFA04
:10EF100007F70742F4D01CA3D3E9002317F09EF8AB
:10EF20000022002317F0E0FC0028E1D0002C1EDBBB
:10EF300026EA0706DCE714A3D3E9002317F08EF8CE
:10EF40000022002317F0D0FC0028D1D0002C05DBD4
:10EF500000263446CCE717F081F8F8BD24F00043D2
:10EF60000C4A1E43002E18BF14460026C0E7142D7D
:10EF700008D00123C5F1340503FA05F5AE1928BF01
:10EF8000E418D5E70134D3E79C7500883CE4377E6C
:10EF9000FFFF0F000000F0BF2DE9F04FD44B2DED27
:10EFA000028B994285B082468B4666DDD14B9942F1
:10EFB0000E4659DCD04B994240F3B4819FEDB87BAB
:10EFC0008DED027B4FEA215A0446AAF2FF38CB4B63
:10EFD000C6F313069E4246F07F5500F3568145F472
:10EFE000401520462946C64B002217F035F8C54B80
:10EFF00004460D46002217F0E7F922462B4617F08B
:10F00000E3F9A246CDE9000141EC180BAB46002E16
:10F0100060D1002200232046294617F03DFC00283D
:10F0200000F0A081B8F1000F00F0B981404617F060
:10F0300061F99DA3D3E9002306460F4617F0C4F9F2
:10F04000DDE9022317F00AF899A3D3E90023044667
:10F050000D463046394617F0B7F902460B462046B2
:10F06000294616F0FBFF03E002460B4616F0F6FFBA
:10F0700005B0BDEC028BBDE8F08FA34B21F000443E
:10F080009C420A4611DDA14B002217F005FC002826
:10F0900000F09280002200239D49002017F0BEFA64
:10F0A00005B0BDEC028BBDE8F08F9A4B9C4240F35B
:10F0B0009280994B1A449A4240F23481914B00223B
:10F0C00017F082F952465B4617F07EF941EC180BB7
:10F0D0004FF0000800224FF080435046594616F08A
:10F0E000BDFF02460B465046594617F097FA0246B6
:10F0F0000B4606460F4617F067F96FA3D3E90023C6
:10F1000004460D4617F060F96DA3D3E9002316F00D
:10F11000A5FF22462B4617F057F96BA3D3E900232E
:10F1200016F09CFF22462B4617F04EF968A3D3E950
:10F13000002316F093FF22462B4617F045F966A3ED
:10F14000D3E9002316F08AFF22462B4617F03CF93C
:10F1500063A3D3E9002316F081FF22462B4617F064
:10F1600033F961A3D3E9002316F078FF22462B463A
:10F1700017F02AF904460D46B8F1000F45D155ECB9
:10F18000184B18EE102A2B4616F068FF32463B4605
:10F1900017F01AF9024618EE100A0B46294616F027
:10F1A0005BFF02460B465046594616F055FF05B028
:10F1B000BDEC028BBDE8F08F52465B465046594687
:10F1C00016F04AFF02460B4617F028FA05B0BDECD0
:10F1D000028BBDE8F08F514B002216F03FFF00225A
:10F1E000002317F081FB28B14D4B9C4202DC5046B6
:10F1F00059463DE752465B465046594617F0E4F8FB
:10F20000404B002217F0E0F8CBE7404617F072F8C9
:10F2100027A3D3E900238046894617F0D5F841ECAF
:10F22000170B53EC182B2046294655EC174B16F0BC
:10F2300015FF32463B4617F0C7F81BA3D3E900235E
:10F2400006460F464046494617F0BEF8DDE9022360
:10F2500016F004FF02460B463046394616F0FEFE15
:10F2600002460B4651EC180B16F0F6FE52465B4672
:10F2700016F0F2FE02460B462046294616F0ECFE3A
:10F2800005B0BDEC028BBDE8F08F45F40015C6F566
:10F29000801620462946B61008F10108A3E600BFF3
:10F2A0000000000000000000763C7935EF39EA3DAF
:10F2B0000000E0FE422EE63F44523EDF12F1C23F24
:10F2C0009FC678D0099AC33FDE03CB966446C73FFA
:10F2D000AF788E1DC571CC3F599322942449D23FFB
:10F2E00004FA97999999D93F935555555555E53F46
:10F2F0007982DA3FFFFFEF7FFFFF3F439DA00600CB
:10F300000000F03F0000E03FFFFFEF3F0000F0BFD4
:10F31000000050C3FFFF1F3E3C412D400000504302
:10F32000FFFF8F3C3C4B00225046594616F096FE9C
:10F330000B15A3F2FF38B8F1000F04460D460E4638
:10F3400050DD52465B4616F087FE02460B46002013
:10F35000314916F081FE22462B4617F05FF9CDE9C0
:10F36000020134E626A3D3E900232046294617F0FC
:10F370002BF802460B460020274916F06DFEDDE90A
:10F38000002317F021F806460F46B8F1000F09D107
:10F3900002460B462046294616F05EFE68E600202F
:10F3A000002165E6404616F0A5FF17A3D3E9002328
:10F3B0008046894617F008F815A3D3E90023824652
:10F3C0008B464046494616F0FFFFDDE9022316F062
:10F3D00045FE02460B463046394616F03DFE2246B3
:10F3E0002B46DCE60C4B002216F036FE02460B469E
:10F3F0005046594616F030FEADE700BFAFF300802F
:10F40000555555555555E53F0000E0FE422EE63F67
:10F41000763C7935EF39EA3D0000F03F000000000E
:10F4200008B518F0A5F804A3D3E9002317F0F6F8FF
:10F4300008BD00BFAFF30080EF39FAFE422EE63F71
:10F440002DE9F043DFF8B4908BB004460D4601F08F
:10F45000F3F899F90030013306460F462CD02246C6
:10F460002B462046294617F049FA804620BB204605
:10F47000294617F00BFD1FA3D3E9002317F034FA38
:10F48000D0B1194A99F90030CDF820800321CDE997
:10F490000445CDE90245CDE9001293B1134900209E
:10F4A000022BCDE9060111D119F048FB222303609C
:10F4B000089B9BB9DDE90667304639460BB0BDE8CD
:10F4C000F0830B4B4FF06042CDE90623684619F0FC
:10F4D000DDF90028E8D0089B002BEBD019F02EFBBB
:10F4E000089B0360E6E700BF78AD02080000F07FEC
:10F4F000FFFFEF477DF8B98FCE3386409A02002098
:10F500002DE9F043DFF8F4808BB004460D4601F09E
:10F5100043F998F90030013306460F4616D02046CD
:10F52000294619F0ADF988B130A3D3E9002320466C
:10F53000294617F0D9F98146002836D12DA3D3E901
:10F5400000232046294617F0B1F920B93046394644
:10F550000BB0BDE8F08398F90030214ACDF8209037
:10F56000002000210426022BCDE90445CDE9024507
:10F57000CDE906010096019212D0684619F086F98D
:10F5800070B1089B2BBBDDE90667304639460BB0EE
:10F59000BDE8F08313490020022BCDE90601ECD130
:10F5A00019F0CCFA22230360EBE70D4A98F90030FA
:10F5B000019203210022CDE90445CDE902450091E5
:10F5C0000892002BE6D1084B4FF06042CDE90623AC
:10F5D000D3E719F0B3FA089B0360D4E7AFF30080D8
:10F5E00080AD02080000F07FFFFFEF47EF39FAFE21
:10F5F000422E864051302DD5104987C09A020020F6
:10F600002DE9F04F2DED028BDFF848B38FB00646A1
:10F610000F4614461D4601F013FD9BF900A0BAF1F8
:10F62000FF3F41EC180B3BD022462B462046294693
:10F6300017F064F98146002832D132463B46304605
:10F64000394617F05BF90090002840F0E1804FF058
:10F6500000084FF000093046394642464B4617F045
:10F660001BF920B342464B462046294617F014F9B1
:10F670000390002854D0009B0C930122B04B0492BD
:10F68000CDE90667CDE90845CDE90A890593BAF1C8
:10F69000000F6BD09FEDA47BB0EE478AF0EE678A37
:10F6A00051EC180B0FB0BDEC028BBDE8F08F51ECA4
:10F6B000180B19F0E5F8824600286FD04FF00008CB
:10F6C0004FF0000951EC180B42464B4617F0E4F896
:10F6D0000028E5D03046394619F0D2F80028DFD0AE
:10F6E0002046294619F0CCF80028D9D09BF90030E3
:10F6F000934A059204210022022BCDE90667CDE949
:10F700000845CDE90A8904910C9204D004A819F0A7
:10F71000BDF800282FD119F011FA222303602AE046
:10F720002046294619F0ACF80028B9D042464B468D
:10F730002046294617F0BAF80028B1D00399804A2C
:10F740009BF900300C910121CDE90667CDE9084510
:10F75000CDE90412002B78D1CDE90A8904A819F06B
:10F7600095F8002877D00C9B5BB106E004A819F04F
:10F770008DF8002874D00C9B1BB119F0DFF90C9B9D
:10F7800003609DED0A7BB0EE478AF0EE678A51EC8C
:10F79000180B0FB0BDEC028BBDE8F08F3046394638
:10F7A00019F06EF8002889D02046294619F068F82B
:10F7B000002883D053EC182B18EE100A194617F0C6
:10F7C0009DF8002840F0918003239BF900A004934A
:10F7D0005B4B0C90CDE90667CDE908450593BAF17E
:10F7E000000F42D19FED527B42464B463046394690
:10F7F0008DED0A7B17F05AF8002845D104A819F0BE
:10F8000045F80028AFD119F099F922230360AAE73F
:10F81000002200232046294617F03EF800283FF436
:10F820003FAF4849464BCDF8309000200122BAF155
:10F83000020FCDE90667CDE90845CDE90A0104923A
:10F84000059393D141EC180B2AE73F490020022B86
:10F85000CDE90A0182D119F071F92123036082E711
:10F8600019F06CF92123036085E79FED337B424655
:10F870004B46304639468DED0A7B17F017F8E0B954
:10F88000BAF1020FBFD0B9E7304B0022204629461B
:10F8900016F09AFD02460B46CDE9002318F0FEFF54
:10F8A000DDE9002316F0F8FFE0B9294B9BF900A031
:10F8B0004FF06042CDE90A23E2E7244B00222046C4
:10F8C000294616F081FD02460B46CDE9002318F0CB
:10F8D000E5FFDDE9002316F0DFFF18B91A4B00221F
:10F8E000CDE90A239BF900A0CAE7154B9BF900B0AC
:10F8F000CDF830A00122CDE90667CDE90845CDE974
:10F900000423BBF1000F3FF427AF42464B4640466D
:10F91000494616F083FEBBF1020FCDE90A019AD0E9
:10F920001CE700BFAFF30080000000000000F03FC4
:10F93000000000E0FFFFEF47000000000000F07F44
:10F9400098AD02080000F03F0000F0FF0000E03F2B
:10F95000FFFFEFC79A0200202DE9F84FC44E21F0B7
:10F960000043B34204460D460DDD03F1404303F569
:10F970008013034340F0B980002940F3C080002089
:10F980000021BDE8F88FBB4EB34208DCBA4A93426F
:10F9900000F3BA809CA1D1E90001BDE8F88F0029ED
:10F9A000C0F2708102460B460020B44916F054FBA9
:10F9B000B34B002216F008FD04460D4618F030F94E
:10F9C00093A3D3E90023894680462946204616F0B2
:10F9D000FBFC91A3D3E9002316F040FB22462B4603
:10F9E00016F0F2FC8EA3D3E9002316F035FB224675
:10F9F0002B4616F0E9FC8CA3D3E9002316F02EFB6E
:10FA000022462B4616F0E0FC89A3D3E9002316F02A
:10FA100023FB22462B4616F0D7FC87A3D3E900230D
:10FA200016F01CFB22462B4616F0CEFC84A3D3E92D
:10FA3000002382468B462046294616F0C5FC82A349
:10FA4000D3E9002316F008FB22462B4616F0BCFC37
:10FA50007FA3D3E9002316F001FB22462B4616F0C4
:10FA6000B3FC7DA3D3E9002316F0F6FA22462B4619
:10FA700016F0AAFC814B002216F0F0FA02460B4663
:10FA80005046594616F0CAFD42464B4616F09CFCBD
:10FA9000002682468B4632464B463046494616F093
:10FAA00093FC02460B462046294616F0D5FA32460C
:10FAB00004460D464B464046494616F0CFFA0246EC
:10FAC0000B462046294616F0A9FD02460B46504635
:10FAD000594616F0C3FA32464B4616F0BFFA0246B4
:10FAE0000B4616F0BBFABDE8F88F02460B4616F03F
:10FAF000B3FA02460B4616F091FDBDE8F88F58A107
:10FB0000D1E90001BDE8F88F02460B4616F05CFC17
:10FB10003FA3D3E9002306460F4616F055FC3EA34B
:10FB2000D3E9002316F09AFA32463B4616F04CFC15
:10FB30003BA3D3E9002316F08FFA32463B4616F07A
:10FB400043FC39A3D3E9002316F088FA32463B463A
:10FB500016F03AFC36A3D3E9002316F07DFA3246BC
:10FB60003B4616F031FC34A3D3E9002316F076FAB5
:10FB700032463B4616F028FC31A3D3E900238046E9
:10FB800089463046394616F01FFC2FA3D3E90023DF
:10FB900016F062FA32463B4616F016FC2CA3D3E967
:10FBA000002316F05BFA32463B4616F00DFC2AA302
:10FBB000D3E9002316F050FA32463B4616F004FC17
:10FBC0002E4B002216F04AFA02460B4640464946A2
:10FBD00016F024FD22462B4616F0F6FB02460B4695
:10FBE00021A1D1E9000116F037FA02460B46204662
:10FBF000294616F031FA02460B4603A1D1E900016D
:10FC000016F02AFABDE8F88F182D4454FB21F93F6D
:10FC100009F7FD0DE13D023F88B20175E0EF493F74
:10FC20003B8F68B52882A43F5544880E55C1C93F13
:10FC30007D6FEB0312D6D43F555555555555C53FED
:10FC400082922EB1C5B8B33F59018D1B6C06E63FB9
:10FC5000C88A599CE52A00404B2D8A1C273A03404C
:10FC6000182D4454FB210940075C143326A6913C0F
:10FC7000FFFFEF3FFFFFDF3F0000603C0000F03F71
:10FC80000000E03F5C4B002216F0E8F95B4B0022DD
:10FC900016F09AFB40A3D3E9002304460D4616F064
:10FCA00093FB3FA3D3E9002316F0D8F922462B4655
:10FCB00016F08AFB3CA3D3E9002316F0CDF92246C7
:10FCC0002B4616F081FB3AA3D3E9002316F0C6F9C0
:10FCD00022462B4616F078FB37A3D3E9002316F013
:10FCE000BBF922462B4616F06FFB35A3D3E9002360
:10FCF00016F0B4F922462B4616F066FB804689467C
:10FD00002046294617F08CFF2FA3D3E9002306468F
:10FD10000F462046294616F057FB2DA3D3E90023B2
:10FD200016F09AF922462B4616F04EFB2AA3D3E989
:10FD3000002316F093F922462B4616F045FB28A324
:10FD4000D3E9002316F088F922462B4616F03CFB37
:10FD5000294B002216F082F902460B4640464946DE
:10FD600016F05CFC32463B4616F02EFB1EA3D3E990
:10FD7000002316F071F932463B4616F06FF9024641
:10FD80000B4616F06BF902460B4619A1D1E90001AA
:10FD900016F062F9BDE8F88F09F7FD0DE13D023F6D
:10FDA00088B20175E0EF493F3B8F68B52882A43FD8
:10FDB0005544880E55C1C93F7D6FEB0312D6D43F21
:10FDC000555555555555C53F82922EB1C5B8B33FCF
:10FDD00059018D1B6C06E63FC88A599CE52A0040F4
:10FDE0004B2D8A1C273A0340075C143326A6913C0E
:10FDF000182D4454FB2109400000F03F0000E03F73
:10FE0000414A91422DE9F84304460D463EDD3F4A02
:10FE100091420B4608DD02F17952914266DD0246BD
:10FE200016F01CF9BDE8F88301F1404202F580129A
:10FE3000024357D0B1F1804F32DD024616F0C4FACA
:10FE4000334B002216F008F917F0EAFE22462B4643
:10FE5000804689462046294616F000F92246064685
:10FE60000F462B464046494616F0F8F802460B4628
:10FE70000020274916F0D2FB0B4602463946304691
:10FE800016F0EAF8BDE8F84300F052BE02460B4611
:10FE900016F0E2F802460B4616F0C0FBBDE8F88308
:10FEA0001B4B002216F0D8F802460B4604460D46BE
:10FEB00016F0D4F822462B4606460F462046294621
:10FEC00016F082FA02460B463046394616F0C6F85E
:10FED00017F0A6FE22462B4616F0C0F8BDE8F84300
:10FEE000FFF75AB800200021BDE8F88300F020FE9B
:10FEF00003A3D3E9002316F0B1F8BDE8F88300BFEF
:10FF0000EF39FAFE422EE63FFFFFEF3FFFFFAF4122
:10FF10000000F03F000000002DE9F04FC64B2DED32
:10FF2000028B21F00049994583B004460D4615DD4A
:10FF300009F1404909F58019034659EA030300F025
:10FF4000058102460B4616F087F802460B4616F06E
:10FF500065FB03B0BDEC028BBDE8F08FB74B994554
:10FF60000E460FDCB9F1795F80F2708196A3D3E978
:10FF7000002316F073F8B24B002216F0B5FC0028EF
:10FF800040F01C812046294616F080FF02460B46B1
:10FF90000020AB4916F060F8AA4B002216F014FAC4
:10FFA0008BA3D3E9002304460D4616F00DFA8AA36D
:10FFB000D3E9002316F052F822462B4616F004FA35
:10FFC00087A3D3E9002316F047F822462B4616F004
:10FFD000FBF985A3D3E9002316F040F822462B460F
:10FFE00016F0F2F982A3D3E9002316F035F8224681
:10FFF0002B4616F0E9F980A3D3E9002316F02EF87A
:020000040801F1
:1000000022462B4616F0E0F97DA3D3E90023824671
:100010008B462046294616F0D7F97BA3D3E9002367
:1000200016F01AF822462B4616F0CEF978A3D3E93B
:10003000002316F013F822462B4616F0C5F976A3D6
:10004000D3E9002316F008F822462B4616F0BCF937
:100050007B4B002216F002F80746884620462946C8
:1000600017F0DEFDDFF8E0C14BEC18ABE14582464E
:100070008B46CDE900AB00F38280DDE900239B468F
:1000800015F0ECFF4346894680463A4651EC180B82
:1000900016F0C4FA02460B464046494616F094F95B
:1000A0004FF0000A8046894652465B465046594604
:1000B00016F08AF902460B462046294615F0CCFF79
:1000C000524604460D465B46DDE9000115F0C6FFC9
:1000D00002460B462046294616F0A0FA02460B4679
:1000E00015F0BCFF02460B464DA1D1E9000115F009
:1000F000B3FF02460B464046494615F0ADFF524657
:1001000004460D465B465046594615F0A7FF024689
:100110000B4645A1D1E9000115F09EFF02460B46B2
:100120002046294615F098FF02460B463EA1D1E92C
:10013000000115F091FF002E3FF70BAF01F10043D6
:10014000194603B0BDEC028BBDE8F08F38A3D3E9AC
:10015000002316F039F932A3D3E9002306460F46EF
:100160002046294616F030F902460B4630463946FD
:1001700015F074FF03B0BDEC028BBDE8F08F3A467A
:10018000434651EC180B16F049FA52465B4616F0FE
:100190001BF952465B4615F061FF02460B4615F00F
:1001A0005DFF1FA3D3E9002315F056FF02460B465F
:1001B0001FA1D1E9000115F04FFFBCE720462946F9
:1001C000C7E600BFAFF300809C7500883CE4377E33
:1001D00009F7FD0DE13D023F88B20175E0EF493FAF
:1001E0003B8F68B52882A43F5544880E55C1C93F4E
:1001F0007D6FEB0312D6D43F555555555555C53F28
:1002000082922EB1C5B8B33F59018D1B6C06E63FF3
:10021000C88A599CE52A00404B2D8A1C273A034086
:10022000075C143326A6913C182D4454FB21E93F6A
:10023000182D4454FB21F93FFFFFEF3FFFFFDF3F45
:100240000000F03F0000E03F3233EF3F02460B4634
:1002500016F0BAF839A3D3E9002306460F4616F084
:10026000B3F838A3D3E9002315F0F8FE32463B4635
:1002700016F0AAF835A3D3E9002315F0EDFE3246B7
:100280003B4616F0A1F833A3D3E9002315F0E6FEB0
:1002900032463B4616F098F830A3D3E9002315F018
:1002A000DBFE32463B4616F08FF82EA3D3E900233F
:1002B00015F0D4FE32463B4616F086F82BA3D3E960
:1002C0000023804689463046394616F07DF829A33A
:1002D000D3E9002315F0C0FE32463B4616F074F811
:1002E00026A3D3E9002315F0B9FE32463B4616F0AB
:1002F0006BF824A3D3E9002315F0AEFE32463B464B
:1003000016F062F80C4B002215F0A8FE02460B46D0
:100310004046494616F082F922462B4616F054F81C
:1003200022462B4615F09AFE03B0BDEC028BBDE8C9
:10033000F08F00BFAFF300800000F03F09F7FD0D24
:10034000E13D023F88B20175E0EF493F3B8F68B560
:100350002882A43F5544880E55C1C93F7D6FEB03E9
:1003600012D6D43F555555555555C53F82922EB19D
:10037000C5B8B33F59018D1B6C06E63FC88A599C2E
:10038000E52A00404B2D8A1C273A0340000000005C
:100390002DE9F84F994653425F4F134329F0004E21
:1003A0004EEAD373BB42904604460D463DD84642C2
:1003B000064321F0004A4AEAD676BE4203468B46FF
:1003C00033D809F1404606F5801616433DD04FEA72
:1003D000A97606F002065AEA030346EAD1762CD043
:1003E0005EEA020335D0BE4546D0BA4531D0AAEB0D
:1003F0000E0EBEF1747F4FEA2E5339DAB9F1000FB9
:1004000046DA3C3344DA00200021012E58D0022E77
:1004100049D086B134A3D3E9002315F01DFE34A3DF
:10042000D3E9002315F018FE05E022462B4640468E
:10043000494615F013FEBDE8F88F022E10D0032EAA
:10044000F9D12DA1D1E90001F5E7BDE8F84FFEF79C
:100450000BBBBBF1000F07DB29A1D1E90001EAE7E3
:1004600023A1D1E90001E6E727A1D1E90001E2E7F4
:1004700023A1D1E90001C8E7F24506F1FF3623D0F8
:10048000022E29D8254B03EBC606D6E90001D2E798
:1004900042464B462046294616F0C0F816F0F6FCB8
:1004A000FEF7E2FAB1E710A3D3E9002315F0D4FD7B
:1004B00002460B460EA1D1E9000115F0CDFDBAE7C9
:1004C00001F100431946B6E7022E08D8144B03EB9E
:1004D000C606D6E90001AEE700200021ABE70CA17B
:1004E000D1E90001A7E700BF075C143326A6A13CB1
:1004F000182D4454FB210940182D4454FB2109C0F8
:10050000182D4454FB21F93F182D4454FB21F9BF09
:10051000182D4454FB21E93F0000F07F4898020861
:1005200030980208000000002DE9F84343423E4A9B
:10053000034321F0004747EAD373934204460D4634
:1005400059D8974265D0394B9F420E4623DD384B30
:100550009F423D462ADD02463B46394615F07EFD68
:1005600022463B4604460D4600202F4915F074FDF7
:1005700002460B462046294616F050F8FEF70CFDC1
:100580002C4B002215F020FF002E02DA01F100436F
:100590001946BDE8F88322A3D3E9002315F05EFDD8
:1005A0000022002316F0A0F978BB3D4622462B46D8
:1005B0002046294615F052FD22462B4680468946A4
:1005C00015F002FF22462B4604460D460020164930
:1005D00015F042FD02460B462046294616F01EF84D
:1005E00042464B4615F03AFDFEF7D6FC114B002271
:1005F00015F0EAFEC8E702460B4615F02DFD02464F
:100600000B4616F00BF8BDE8F88320462946BDE8F6
:10061000F8830022002316F001F8BDE8F88300BF3C
:100620009C7500883CE4377E0000F03FFFFF2F3EC2
:10063000FFFFDF3F0000E03F2DE9F8434E4B21F084
:1006400000449C4206460F4648DC4C4B9C4218DD59
:100650004B4B9C4266DD4B4B9C427EDD4A4B9C42A1
:1006600049DD01339C4243D041A3D3E90023104626
:10067000194615F0A9FE06460F4630463946BDE834
:10068000F88316F003FC02F06FFD404B0022804619
:10069000894615F0E3FCB4F1725F06460F46ECDBC9
:1006A00042464B464046494615F08EFE32463B4692
:1006B00004460D463046394615F0D0FC02460B463E
:1006C0002046294615F0AAFF304B002215F0C6FC43
:1006D00006460F4630463946BDE8F88302460B46CB
:1006E00015F072FE06460F4630463946BDE8F883DF
:1006F000274B9842B8D83046394616F0C7FB254BF1
:10070000002215F061FE00F047F8224B04460D462A
:10071000002215F059FE22462B4615F055FE0646DE
:100720000F46AAE716F0B2FB00F036F8194B00228C
:1007300004460D4615F048FE22462B4604460D465B
:100740000020144915F06AFF02460B462046294650
:1007500015F084FC06460F468FE716F097FB00F075
:100760001BF80C4B002215F02FFE06460F4684E7BF
:100770009C7500883CE4377EFFFFEF7F422ED63F1A
:10078000FFFF3540412E8640CD3386400000F03FCC
:100790007DF8B98F0000E03F2DE9F04FDA4F2DEDE5
:1007A000028B21F00042BA4283B004460D464FEA64
:1007B000D17612D9D54FBA4229D9C1F313030343D5
:1007C000024640F05481002E00F0EB800020002112
:1007D00003B0BDEC028BBDE8F08FCD4B9A4253D8ED
:1007E000CC4B9A4200F2E480B1A3D3E9002315F088
:1007F00035FCC94B002216F077F8002800F0D880AD
:10080000C54B20462946002215F028FCCBE0AAA3C0
:10081000D3E9002316F068F8002840F03081A8A33F
:10082000D3E900232046294616F040F80028CDD110
:10083000BA49A5A3D3E9002301EBC6062046294601
:1008400015F0C2FDD6E9002315F008FC16F06CF88F
:10085000019015F04FFD9EA3D3E9002306460F46F5
:1008600015F0B2FD02460B462046294615F0F4FB72
:1008700099A3D3E90023804689463046394615F0CE
:10088000A3FD41EC180B19E0A54B9A42D0D8A54B1B
:1008900003EBC603D3E9002315F0DEFBA24BF20005
:1008A000134493ED007BC6F1010AAAEB06038046D0
:1008B00089460193B0EE478AF0EE678A53EC182B15
:1008C0004046494615F0C8FB02460B4682468B4619
:1008D00015F07AFD82A3D3E9002304460D4615F0F6
:1008E00073FD81A3D3E9002315F0B6FB22462B4606
:1008F00015F06AFD7EA3D3E9002315F0AFFB224675
:100900002B4615F061FD7CA3D3E9002315F0A4FB71
:1009100022462B4615F058FD79A3D3E9002315F0A4
:100920009DFB22462B4615F04FFD02460B465046D6
:10093000594615F091FB019B0F46064654465D460D
:1009400001463A46002B6CD032463B46504659464B
:1009500015F03AFD32463B4604460D4600204FF066
:10096000804115F079FB02460B462046294615F0DA
:1009700055FE02460B4651EC180B15F06DFB424636
:100980004B4615F069FB02460B460020624915F004
:1009900063FB019A6FF47F739A4278DB044601EBA4
:1009A00002552046294603B0BDEC028BBDE8F08F0E
:1009B00022462B462046294615F006FD48A3D3E9DA
:1009C000002306460F4615F0FFFC47A3D3E900239A
:1009D00015F042FB32463B4615F0F6FC44A3D3E942
:1009E000002315F03BFB32463B4615F0EDFC42A3DD
:1009F000D3E9002315F030FB32463B4615F0E4FC0A
:100A00003FA3D3E9002315F029FB32463B4615F0FE
:100A1000DBFC02460B462046294615F01DFB0A4624
:100A20000146914688460A464B462046294615F01F
:100A3000CBFC002206460F464FF080434046494615
:100A400015F00AFB02460B463046394615F0E6FD26
:100A500022462B4615F000FB02460B4600202E498D
:100A600015F0FAFA03B0BDEC028BBDE8F08F0B462F
:100A700015F0F4FA03B0BDEC028BBDE8F08F0CA3C7
:100A8000D3E900231046194615F09EFC8BE7019B25
:100A900003F57A7A01EB0A53194600224FF0B87336
:100AA00015F092FC03B0BDEC028BBDE8F08F00BFE7
:100AB0009C7500883CE4377EEF39FAFE422E864072
:100AC00051302DD5104987C0FE822B654715F73F61
:100AD0000000E0FE422EE63F763C7935EF39EA3DF4
:100AE000D0A4BE726937663EF16BD2C541BDBB3E34
:100AF0002CDE25AF6A56113F93BDBE166CC1663F12
:100B00003E5555555555C53F412E8640FFFFEF7F59
:100B1000422ED63FFFFF2F3E0000F03F60980208B4
:100B2000B1A2F03F7098020880980208000000000F
:100B30002DE9F04F2DED028BB1F5801F83B00246F9
:100B40000B460E4658DA21F00044044300F0FB80C7
:100B50000029C0F23781DC4B002215F035FC0E462F
:100B60000B46DA498E4202466FF0350E49DCC6F379
:100B7000130505F5152707F6647707F4801787F046
:100B80007F5C8CF4401C3415D14B10464CEA0501B7
:100B90000022A4F2FF34744415F05EFAAB1CC3F3D8
:100BA0001303022B04EB175482468B464FF00002CE
:100BB00030DC002315F070FE002800F0CF80002C00
:100BC00000F05681204615F095FBABA3D3E9002336
:100BD00006460F4615F0F8FBA9A3D3E90023044607
:100BE0000D463046394615F0EFFB02460B462046CF
:100BF000294615F033FA08E0B4498E424FF0000E52
:100C0000B5DD1046194615F029FA03B0BDEC028B8C
:100C1000BDE8F08F4FF0804315F020FA02460B46F6
:100C20005046594615F0FAFC02460B46204643EC66
:100C3000182B15F05FFB53EC182B06460F4651ECB2
:100C4000180BCDE9006715F0BFFB02460B46804646
:100C5000894615F0B9FB8CA3D3E9002306460F465D
:100C600015F0B2FB8AA3D3E9002315F0F7F9324659
:100C70003B4615F0A9FB88A3D3E9002315F0EEF954
:100C800032463B4615F0A0FB85A3D3E9002315F0BF
:100C9000E5F942464B4615F097FB83A3D3E90023C1
:100CA000804689463046394615F08EFB80A3D3E94D
:100CB000002315F0D3F932463B4615F085FB7EA3A1
:100CC000D3E9002315F0CAF932463B4615F07CFB08
:100CD0000B4602464946404615F0C0F9A5F5C22329
:100CE000C5F5D725A3F27A4351351D43002D06469D
:100CF0000F4659DD774B00225046594615F064FBEC
:100D000052465B4615F060FB80468946002C60D158
:100D100042464B463046394615F0A0F953EC182BA5
:100D200015F052FB02460B464046494615F094F931
:100D300002460B465046594615F08EF903B0BDECFD
:100D4000028BBDE8F08F002200236349002015F0DC
:100D500065FC03B0BDEC028BBDE8F08F58A3D3E96E
:100D600000235046594615F02FFB02460B46002043
:100D7000584915F071F9524606460F465B465046F3
:100D8000594615F021FB02460B463046394615F010
:100D90001BFB06460F46002C52D102460B4650461E
:100DA000594615F059F930E7002C40F0978002467B
:100DB0000B465046594615F04FF953EC182B15F0D9
:100DC00003FBB5E715F048F90022002315F026FCD7
:100DD0001BE729A3D3E90023DDE9000115F0F4FAAC
:100DE00042464B4604460D463046394615F036F924
:100DF00053EC182B15F0E8FA21A3D3E9002306469B
:100E00000F46DDE9000115F0DFFA02460B463046D9
:100E1000394615F023F902460B464046494615F07F
:100E20001BF952465B4615F017F902460B46204661
:100E3000294615F011F903B0BDEC028BBDE8F08F27
:100E4000204615F057FA0CA3D3E9002380468946C3
:100E500015F0BAFA0AA3D3E9002304460D4640462A
:100E6000494615F0B1FA02460B4630463946D6E7F8
:100E700000200021C9E600BF0000E0FE422EE63F50
:100E8000763C7935EF39EA3D44523EDF12F1C23FFC
:100E9000DE03CB966446C73F599322942449D23F40
:100EA000935555555555E53F9FC678D0099AC33F90
:100EB000AF788E1DC571CC3F04FA97999999D93FA7
:100EC000555555555555D53F00005043FFFFEF7F11
:100ED0000000F03F0000E03F000050C3DDE9008962
:100EE0000DA3D3E900234046494615F06DFA32467A
:100EF0003B4604460D465046594615F0ADF853ECB6
:100F0000182B15F061FA06A3D3E9002306460F4615
:100F1000A5E700BFAFF300800000E0FE422EE63FF1
:100F2000763C7935EF39EA3DB1F5801F2DE9F8437C
:100F300004460D460B4619DA21F00042024359D00F
:100F400000295FDB3A4B002215F03EFA394A0D4684
:100F50002B46934204466FF035010CDD22462B46AA
:100F60002046294615F07AF8BDE8F883314A9342C5
:100F70004FF00001F2DC1815A0F2FF300844C70F53
:100F800000EBD070C3F3130615F0B4F9C7F57F7307
:100F9000033346EA03550F46064629462046FFF727
:100FA000C7FD1DA3D3E90023804689463046394654
:100FB00015F00AFA1AA3D3E9002304460D46404669
:100FC000494615F001FA02460B462046294615F01F
:100FD00045F815A3D3E9002304460D4630463946AB
:100FE00015F0F2F902460B462046294615F036F870
:100FF000BDE8F883002200230F49002015F00EFB06
:10100000BDE8F883024615F027F80022002315F00A
:1010100005FBA9E7AFF30080362BF111F3FE593D34
:101020000EE526157BCBDB3F00609F501344D33F7A
:1010300000005043FFFFEF7F000050C3000000009E
:101040002DE9F04F2DED0A8B23F0004B1F469A46F9
:101050005BEA020389B03DD0164694466E4A21F001
:101060000048904504460D46894603462BDC38D09F
:10107000934528DC684A934522D0B9F1000F3BDB49
:1010800000220092BCF1000F52D1634A934500F058
:101090009D80624A934500F0AB80BAF1804F00F02A
:1010A000D4845F4A924543D1B9F1000F40DB20461A
:1010B000294609B0BDEC0A8BBDE8F04F16F0B0BD73
:1010C000BCF1000FD9D008F1404808F5801858EA63
:1010D000030309D15149002009B0BDEC0A8BBDE8DA
:1010E000F08F08B9C345C5DD4E4809B0BDEC0A8B89
:1010F000BDE8F04F17F0CCBB4B4A93457FDCA2F123
:10110000547293450FDD4FEA2B52A2F2FF32142A9C
:1011100040F3A384C2F134022CFA02F000FA02F286
:10112000624500F0EC8400220092BCF1000FB0D0C8
:1011300020462946029315F0A9FE029B3BBBB8F15D
:10114000000F04D0354B29F040429A421FD1BAF12A
:10115000000F05DA02460B460020304915F05EFA12
:10116000B9F1000FB8DA009B08F1404808F5801883
:1011700058EA030340F0968402460B46104619468F
:1011800014F06AFF02460B4615F048FAA4E7009AED
:101190004FEAD973013B0693134333D0234B9B454E
:1011A00048DD03F104739B45214B40F3CF83984501
:1011B00040F35D83BAF1000F40F35D8314A3D3E9DC
:1011C00000231046194615F0FFF885E708F1404264
:1011D00002F5801213433FF47DAF154B984540F361
:1011E0007783BAF1000FC0F246833046394673E781
:1011F000BAF1000FC0F22184204629466CE7022292
:1012000000923FE722462B46B8E700BFAFF30080CD
:101210009C7500883CE4377E0000F07F0000F03FC2
:101220000000E03FDCAB0208FFFF3F430000E0416D
:10123000FFFFEF3FE84B09EA0303002B40F0FB837D
:10124000E64B002215F0C0F86FF0340588464FEAEF
:101250002853E34CC8F31302A3F2FF3342F07F5844
:101260005D19A242079548F4401840F3D383DD4B43
:101270009A4240F320849FEDC07BB0EE47BAF0EE77
:1012800067BAB0EE47CAF0EE67CA9FEDBD7B013585
:1012900054EC173B0795A8F580184FF0000944EC73
:1012A000183B1A4641462346824614F0D5FE53ECBD
:1012B000182B04460D465046414614F0CFFE024618
:1012C0000B460020C84915F0A9F945EC1A4B41EC32
:1012D000190B51EC1A0B53EC192B15F075F8C3468A
:1012E0004FEA680848F0005808F5002303EB0905A9
:1012F0000A4600230146CDE902120293DDE9028984
:101300000024CDE904122B4622464046494615F0FA
:101310005BF802460B4651EC1A0B14F09DFE41ECB3
:10132000170B53EC182B2046294655EC174B14F09D
:1013300093FE02460B465046594614F08DFE424637
:101340004B4615F041F802460B462046294614F05C
:1013500083FE53EC192B15F037F8DDE904AB044696
:101360000D4652465B465046594615F02DF886A369
:10137000D3E9002345EC1A4B04460D4615F024F83A
:1013800083A3D3E9002314F069FE22462B4615F00F
:101390001BF881A3D3E9002314F060FE22462B46FC
:1013A00015F012F87EA3D3E9002314F057FE22466D
:1013B0002B4615F009F87CA3D3E9002314F04EFE68
:1013C00022462B4615F000F879A3D3E9002314F048
:1013D00045FE22462B4604460D461046194614F09B
:1013E000F3FF02460B462046294614F0EDFF424625
:1013F00004460D464B4650465946CDE904AB14F021
:101400002DFE53EC1A2B14F0DFFF22462B4614F06E
:1014100025FE424604460D464B464046494614F0DA
:10142000D3FF45EC194B714B002282468B4614F0DA
:1014300015FE53EC192B14F011FE029C0D462246AA
:101440002B464046494614F0BFFF684B804689460C
:1014500000222046294614F0FFFD52465B4614F058
:10146000FBFD02460B4651EC190B14F0F5FDDDE9CE
:10147000042314F0A9FF49EC188B224680468946C4
:101480002B4651EC1A0B14F09FFF02460B464046C8
:10149000494614F0E3FD82468B4652465B4651ECCA
:1014A000180B14F0DBFD029C43A3D3E90023204674
:1014B0000D4614F089FF53EC182B804689462046D0
:1014C000294614F0C9FD02460B465046594614F011
:1014D000C3FD3BA3D3E9002314F076FF49EC198B3D
:1014E00039A3D3E90023804689462046294614F0D3
:1014F0006BFF02460B464046494614F0AFFD53ECE5
:101500001C2B14F0ABFD824607988B4614F0F2FEBC
:101510005246804689465B4651EC190B14F09EFDFD
:1015200053EC1B2B14F09AFD42464B4614F096FDEB
:10153000029C42464B4620460D4614F08DFD53EC6E
:101540001B2B14F089FD53EC192B14F085FD02467A
:101550000B465046594614F07FFD82468B46009B51
:10156000069A013B134340F0AC819FED197BB0EE2E
:10157000479AF0EE679A3BE0000000000000000090
:10158000000000000000F03FEF4E454A287ECA3FB1
:1015900065DBC9934A86CD3F01411DA96074D13FE7
:1015A0004D268F515555D53FFFAB6FDBB66DDB3FF9
:1015B000033333333333E33F000000E009C7EE3F2A
:1015C000FD033ADC09C7EE3FF5015B14E02F3EBE98
:1015D000000000000000F0BF0000F07F000040436A
:1015E0008E98030079B60B000000F03F0000084021
:1015F0000023CDE900670093DDE9008930464246CB
:1016000039464B4614F028FD22462B4614F0DCFEEA
:1016100032463B4606460F465046594614F0D4FE25
:1016200002460B463046394614F018FD42468246C3
:101630008B464B462046294614F0C6FE06460F460A
:101640003B4650465946324614F008FDBA4B994283
:1016500004460D46884640F3118101F13F4303F5EE
:10166000E003034340F010829DA3D3E900235046DA
:10167000594614F0F3FC324641EC180B3B46204629
:10168000294614F0E9FC02460B4651EC180B15F004
:101690002BF9002840F0F881C8F30A534FF4801268
:1016A000A3F2FE3342FA03F34344A449C3F30A52BC
:1016B000A2F2FF3241FA02FCC3F3130523EA0C0144
:1016C000C2F1140445F48015B8F1000F0B4645FA39
:1016D00004F102914FF00000B8BF49420246B8BF82
:1016E00002913046394614F0B7FC06460F463B4699
:1016F00050465946324614F0B1FC029B1B0500933C
:101700000D46002478A3D3E900232046294614F08F
:101710005BFE3246804689463B462046294614F009
:101720009BFC02460B465046594614F095FC70A3AC
:10173000D3E9002314F048FE6FA3D3E90023064643
:101740000F462046294614F03FFE02460B4630461F
:10175000394614F083FC06460F4632463B46404667
:10176000494614F07BFC42464B460D46044614F0B5
:1017700073FC02460B463046394614F06DFC2B468E
:1017800082468B4622462946204614F01DFE5CA365
:10179000D3E9002306460F4614F016FE5AA3D3E9F8
:1017A000002314F059FC32463B4614F00DFE58A3BA
:1017B000D3E9002314F052FC32463B4614F004FEF9
:1017C00055A3D3E9002314F047FC32463B4614F0FE
:1017D000FBFD53A3D3E9002314F040FC32463B4603
:1017E00014F0F2FD02460B462046294614F034FC64
:1017F00006460F4632463B462946204614F0E4FD95
:101800000022804689464FF080433046394614F026
:1018100023FC02460B464046494614F0FFFE524662
:1018200006460F465B462946204614F0CDFD52463B
:101830005B4614F013FC02460B463046394614F062
:101840000BFC2B46224614F007FC02460B460020F8
:101850003B4914F001FC009D0D44B5F5801FC0F21A
:101860004A81294653EC192B14F0AEFD34E4BAF149
:10187000000FFFF6A3AC002000212DE4DFF8C8C064
:1018800021F00043634540F3F7802E4B0B440343A4
:101890000AD132463B4614F0DFFB52465B4615F058
:1018A00019F800283FF4F8AE1FA3D3E9002351EC48
:1018B000190B14F089FD1CA3D3E9002314F084FD57
:1018C0000AE49FED1B7BB0EE479AF0EE679A8FE635
:1018D000BAF1000FCFDA304607F10041FFF7FCBB49
:1018E000FE822B654715973C00000000432EE63F23
:1018F000EF39FAFE422EE63F396CA80C615C20BE3F
:10190000D0A4BE726937663EF16BD2C541BDBB3E05
:101910002CDE25AF6A56113F93BDBE166CC1663FE3
:101920003E5555555555C53F59F3F8C21F6EA50193
:10193000000000000000F03FFFFF8F40FFFF0F009E
:101940000000F03F00346F3FFFCB904098458EDBA6
:10195000894B98453FF72EAC874B002214F07CFB57
:1019600071A3D3E9002304460D4614F02DFD70A3A6
:10197000D3E9002382468B462046294614F024FDF5
:101980007E4B8046894600222046294614F01CFDE5
:1019900002460B4668A1D1E9000114F05DFB224626
:1019A0002B4614F011FD02460B460020744914F03A
:1019B00053FB22462B4604460D461046194614F0AA
:1019C00003FD02460B462046294614F0FDFC5CA3AD
:1019D000D3E9002314F0F8FC02460B464046494682
:1019E00014F03AFB804689465046594642464B46DB
:1019F00014F034FB002452465B4620460D4614F09A
:101A00002BFB02460B464046494614F025FB824616
:101A10008B46A4E59FED4C7BB0EE47BAF0EE67BA7B
:101A2000B0EE47CAF0EE67CA9FED497B4FF0000960
:101A300054EC173B33E4002509E422462B464E497B
:101A4000002014F0EBFDFFF747BB22462B46204653
:101A5000294614F0B9FCFFF73FBBBCF1000F3ED1A3
:101A6000C2F114024BFA02F000FA02F25A4551D0C8
:101A7000CDF800C0FFF70DBB414A934251DCDDE9D0
:101A80000012009102913CE633A3D3E9002351EC0C
:101A9000190B14F099FC30A3D3E9002314F094FC43
:101AA000FFF71ABB009B012B7FF416AB01F100433B
:101AB0001946FFF711BB9FED2A7BB0EE47BAF0EE57
:101AC00067BA9FED297BB0EE47CAF0EE67CA9FED7B
:101AD000287B4FF4802954EC173BFFF7E0BB2046EE
:101AE0002946009315F0D2F9009B002B7FF48AABB6
:101AF0000093FFF724BB029A01F082FDB2E600F0EA
:101B00000100C0F102020092BCF1000F3FF4C1AA33
:101B1000FFF70EBB00F00100C0F102020092FFF7D8
:101B2000B8BA1B15BAE500BF000000604715F73FC3
:101B300044DF5DF80BAE543E555555555555D53FD0
:101B4000FE822B654715F73F0000000000000000F3
:101B5000000000000000F03F9C7500883CE4377EE8
:101B60000000004003B8E23F06D0CF43EBFD4C3EFF
:101B7000000000000000F83F0000F03F0000D03FF0
:101B80000000E03F000000002DE9F04FD84B2DEDA4
:101B9000048B21F000459D4289B006460F4614464D
:101BA00040F38880D34B9D428B4629DC0029C2A399
:101BB000D3E9002340F3CD8114F04EFACE4B9D4281
:101BC00006460F4600F08F80BDA3D3E9002314F032
:101BD00043FA02460B46C4E900233046394614F066
:101BE0003BFAB7A3D3E9002314F036FAC4E90201A3
:101BF0004FF0010A504609B0BDEC048BBDE8F08FF0
:101C0000BE4B9D4240F39280BD4B9D4260DC4FEA4B
:101C1000255AAAF2164AA5EB0A510F4614F084FE83
:101C200014F068FB804689463046394642464B46AA
:101C3000CDE9028914F010FAB24B002214F0C4FB73
:101C40000F46064614F070FE054614F053FB02469C
:101C50000B4630463946CDE9042314F0FDF9A94B73
:101C6000002214F0B1FB02460B46CDE90623002208
:101C7000002314F011FE002800F06981002D0CBF34
:101C800001230223A04A019202215246009102A898
:101C9000214600F0A1FBBBF1000F8246AADA626880
:101CA000E36802F1004203F10043C0F1000A626000
:101CB000E3609FE74FF0000A002200235046C4E98A
:101CC0000067C4E9022309B0BDEC048BBDE8F08FC6
:101CD00002460B4614F0C0F94FF0000AC4E90201B5
:101CE000C4E9000186E778A3D3E9002314F0B4F92E
:101CF00077A3D3E9002306460F4614F0ADF9024658
:101D00000B46C4E900233046394614F0A5F970A308
:101D1000D3E9002314F0A0F94FF0010AC4E902014D
:101D2000504609B0BDEC048BBDE8F08F15F0AEF85D
:101D300069A3D3E9002306460F4614F045FB734B15
:101D4000002214F08BF914F0EFFD824614F0D2FA61
:101D500059A3D3E900238046894614F035FB024697
:101D60000B463046394614F077F955A3D3E90023E2
:101D700006460F464046494614F026FBBAF11F0FAF
:101D800049EC198B47EC186B804689460BDC604B9D
:101D90000AF1FF3253F82230AB4204D002460B4620
:101DA000304639467FE042464B4651EC180B14F062
:101DB00053F90A46C2F30A53C3EB1553102B0146DD
:101DC000064617464FEA255540F3A4803EA3D3E9C3
:101DD000002351EC190B14F0F7FA59EC188B064656
:101DE0000F4632463B4618EE100A494614F034F9C5
:101DF00041EC180B404653EC182B494614F02CF9D3
:101E000032463B4614F028F931A3D3E900230646B5
:101E10000F4651EC190B14F0D7FA32463B4614F03A
:101E20001BF98046894642464B4651EC180B14F08C
:101E300013F90A46C2F30A53ED1A312D014606463C
:101E4000174667DD26A3D3E9002351EC190B14F0E4
:101E5000BBFA56EC185B8046894642464B4618EE64
:101E6000100A314614F0F8F841EC180B314653ECE7
:101E7000182B284614F0F0F842464B4614F0ECF8C4
:101E800019A3D3E9002306460F4651EC190B14F0B1
:101E90009BFA32463B4614F0DFF88046894651EC07
:101EA000180B42464B4614F0D7F8C4E90001064629
:101EB0000F4631E0AFF3008000004054FB21F93FB2
:101EC0003163621A61B4D03D0000601A61B4D03D44
:101ED0007370032E8A19A33B83C8C96D305FE43F3A
:101EE0000000002E8A19A33BC14920259A837B3923
:101EF000FB21E93F7BD90240FB21F93FFB2139411E
:101F0000FFFFEF7F0000704134AE02080000E03FA9
:101F1000B4AD0208C4E9001232463B4651EC180B3E
:101F200014F09AF842464B4614F096F8BBF1000FB5
:101F3000C4E90201BFF65EAE07F1004501F10043BE
:101F4000C4E90065C4E90203CAF1000A52E60323AA
:101F500098E614F083F8244B9D4206460F4616D0AF
:101F60001BA3D3E9002314F079F802460B46C4E919
:101F700000233046394614F06FF815A3D3E9002347
:101F800014F06CF84FF0FF3AC4E9020132E612A3F4
:101F9000D3E9002314F062F811A3D3E90023064625
:101FA0000F4614F05BF802460B46C4E900233046A6
:101FB000394614F051F80AA3D3E9002314F04EF87F
:101FC0004FF0FF3AC4E9020114E600BFAFF300800E
:101FD0003163621A61B4D03D0000601A61B4D03D33
:101FE0007370032E8A19A33BFB21F93F0000000008
:101FF000574A2DE9F84F21F00048904504460D4618
:1020000058DC544B0029B4BF534F544F98454FF000
:10201000000612DD524B984540F38C80514B984599
:1020200054DD013398454ED047A3D3E90023204621
:10203000294614F0C9F9BDE8F88F4B4B98455CDC94
:1020400041A3D3E9002314F009F8484B002214F00F
:102050004BFCA8BB2046294614F018FF01F084F879
:1020600004460D4622462B462046294613F0F6FF2D
:10207000224682468B462B462046294614F0A4F978
:102080003A4B8046894600222046294613F0E6FF57
:1020900002460B464046494614F0C0FA02460B463B
:1020A0005046594613F0D8FF32463B4614F08CF99F
:1020B000BDE8F88F02460B4613F0D0FFBDE8F88F5D
:1020C00020462946FAE72A4B9842ADD820462946B1
:1020D00014F0DCFE214B002214F076F9FEF75CFBD5
:1020E00004460D4622462B463046394614F06CF91C
:1020F00022462B4614F068F9E0E714F0C7FE01F021
:1021000033F81C4B984504460D46ABDD174B0022B7
:1021100013F0A4FF02460B462046294614F07EFA2F
:1021200022462B4613F09AFF32463B4614F04CF9F8
:10213000BDE8F88F14F0AAFEFEF72EFB32463B46B0
:1021400014F042F9BAE700BF3374AC3C1F7BAC7F9C
:10215000FFFFEF7FFFFF35400000E0BF0000E03FE2
:10216000412E8640CD338640FFFF2F3E0000F03FDA
:102170007DF8B98FFFFFEF3F2DE9F84F21F00049BF
:10218000B9F1795F2DED048B06460F4692469B46CA
:102190006CDA14F0C9FB002800F0EE8032463B46B2
:1021A0003046394614F010F977A3D3E900230446EA
:1021B0000D4614F009F976A3D3E9002313F04EFF7E
:1021C00022462B4614F000F973A3D3E9002313F041
:1021D00043FF22462B4614F0F7F871A3D3E90023FE
:1021E00013F03CFF22462B4614F0EEF86EA3D3E921
:1021F000002313F031FF22462B4614F0E5F86CA3C0
:10220000D3E9002313F02AFF22462B4614F0DCF812
:1022100041EC180B6A4B00222046294614F0D4F8F2
:1022200053EC182B804689462046294614F0CCF8FA
:1022300052465B4604460D463046394614F0C4F813
:1022400002460B462046294613F006FF02460B467F
:102250004046494613F000FF02460B46002059490C
:1022600013F0FAFEBDEC048BBDE8F88F02460B4676
:1022700014F0AAF844A3D3E9002304460D4614F051
:10228000A3F843A3D3E9002313F0E8FE22462B462C
:1022900014F09AF840A3D3E9002313F0DDFE2246A0
:1022A0002B4614F091F83EA3D3E9002313F0D6FE99
:1022B00022462B4614F088F83BA3D3E9002313F001
:1022C000CBFE22462B4614F07FF839A3D3E9002336
:1022D00013F0C4FE2B46224614F076F83A4B99458B
:1022E00041EC180B96DD394B99453ADC0022A9F5F3
:1022F0000013344900209046994613F0ADFE41EC9E
:10230000190B2F4B00222046294614F05DF8424657
:102310004B4613F0A1FE53EC182B8046894620460D
:10232000294614F051F852465B4604460D463046A5
:10233000394614F049F802460B462046294613F068
:102340008BFE02460B464046494613F085FE024688
:102350000B4651EC190B13F07FFEBDEC048BBDE86E
:10236000F88F9FED157BDFF86890B0EE479AF0EE9E
:10237000679A4FF00008C4E7BDEC048B11490020B8
:10238000BDE8F88FAFF30080D43888BEE9FAA8BD65
:10239000C4B1B4BD9EEE213EAD529C804F7E923EB4
:1023A0009015CB19A001FA3E7751C1166CC1563F6A
:1023B0004C5555555555A53F000000000000E73F1E
:1023C0000000E03F0000F03F3233D33F0000E93F20
:1023D0000000D23F000000002DE9F04FADF5197D5F
:1023E000B84CA29D089354F825400594013B12F186
:1023F000140F04900B910393C0F22083B249D31EB3
:1024000081FB0301DB17C3EBA10307930133A3EBAC
:102410008303DB00D3180693079A039BD41A059A0B
:10242000D6181AD40136A39F4FF000084FF00009C8
:10243000264420AD08E057F8240013F05BFF013478
:10244000B442E5E8020108D0002CF4DA0134404639
:102450004946B442E5E80201F6D1059B002BC0F2E3
:10246000B883089BDDF80C90DA000292059A1A44B2
:102470000192049A20A901EBC30A0DF5E07B02EB5F
:10248000C308039B002B4FF000044FF0000511DB45
:10249000049E574677E90223F6E8020113F094FF01
:1024A00002460B462046294613F0D8FD4645044611
:1024B0000D46EFD1019B09F101099945EBE8024571
:1024C0000AF1080ADDD1059A04980CA901EB8203F0
:1024D00002990144083B8B460BA90993134601EB73
:1024E00082020A920193019A98A901EBC203002A81
:1024F00053E928452ADD0DF5E07909EBC2080DF115
:10250000300A724B00222046294613F05DFF14F07A
:102510000BFA13F0EFFE6E4B002206460F4613F047
:1025200053FF02460B462046294613F095FD14F052
:10253000FBF9044678E902234AF8044B3046394651
:1025400013F08CFDC84504460D46DAD1DDF818902D
:10255000204629464A4601F053F800224FF07F53A7
:1025600004460D4613F030FFFCF79AFC594B00224D
:1025700013F02AFF02460B462046294613F06CFD55
:102580000D46044614F0D0F9804613F0B3FE0B4616
:1025900002462946204613F05FFD4B46002B0646B7
:1025A0000F4640F39980019A0CA9013AC9F118032A
:1025B00051F8225045FA03F101FA03F3EB1AC9F17D
:1025C00017050CA843FA05F5002D40F82230884481
:1025D00000F38C80002200233046394614F05CF969
:1025E000002800F05182019B059A03F1FF3A524501
:1025F00010DC03F180430CAA013B0A9802EB830331
:10260000002253F80419834242EA0102F9D1002A58
:1026100040F0DD80059B0CAA013B52F82330002BD3
:1026200040F0D080099A012352F80419013300299F
:10263000FAD001994A1CCB1802939146079B08993E
:1026400002EB030A019B0B44984620AB0AF1804A37
:1026500003EBC808A39B0AF1FF3A03EB8A0A70ABAD
:1026600003EBC20301935AF8040F13F043FE0B4629
:10267000039902460029C8E9002347464FF00004A9
:1026800008F108084FF0000511DB049E01E077E92E
:102690000223F6E8020113F097FE02460B4620469D
:1026A000294613F0DBFC5E4504460D46EFD1019B45
:1026B000E3E802450193029B09F101099945D2DD46
:1026C00010E700BFD4B20208ABAAAA2A0000703EED
:1026D00000007041000020406BD1019B0CAA013B1F
:1026E00052F82350ED15002D7FF774AF019B002B9E
:1026F00008F1010840F3C6810C9C002C51D1019BCC
:10270000012B20D00CAB012253F8044F002C4BD0EE
:10271000531C0CA9C4F1807441F8224001999942DC
:1027200010DD0CAA0CA852F8232000EB830300EB69
:1027300081006FF07F4100E01A688A1A43F8042B89
:102740008342F9D10124069B002B0EDD012B00F002
:102750006A81022B09D1019B5A1E0CAB0CA953F8BC
:102760002230C3F3150341F82230022D7FF432AF3B
:1027700032463B46B649002013F06EFC06460F4633
:10278000002C3FF427AF069AB149002000F038FF33
:1027900002460B463046394613F05EFC06460F46AD
:1027A00018E701230022B4E7019901328A42ABD134
:1027B000C9E7A84B002214F08DF8002840F05081A2
:1027C000054607E7019B5A1C9146029236E70CAB7F
:1027D000069A53F82A30CDF81C80183A03950692D1
:1027E00073B9019B03F18043023B0CA901EB830306
:1027F00053F804190AF1FF3A183A0029F8D0069262
:10280000069A9349002000F0FBFEBAF1000F04463F
:102810000D46C0F2D48170AB03EBCA0B0CAA0AF1CF
:102820000103069302EB83084FEACA030BF1080980
:10283000049358F8040D13F05DFD22462B4613F067
:10284000C3FD06460F46844B2046294669E90267C8
:10285000002213F0B9FD0CAB984504460D46E8D1B3
:1028600048ABCDE9013ADDF814A0BAF1000F4FF002
:1028700000092CDB74A3D3E90023DFF8E0815F4675
:1028800000240025002603E0B14510DBF8E8022310
:10289000F7E8020113F098FD02460B462046294650
:1028A00013F0DCFB0136B24504460D46ECDA019B21
:1028B000029A03EBC9034A45C3E90045ABF1080B93
:1028C00009F1010306D0BAF1000F9946D2DA0024CB
:1028D0000025ECE7A29BDDF808A0022B1EDC002BF4
:1028E00000F3058113D1049C019D083400200021D0
:1028F0002C4474E9022313F0B1FBA542F9D1039BE8
:1029000013B101F1004319460B9BC3E90001079B7A
:1029100003F007000DF5197DBDE8F08FA29B032B96
:10292000F5D1BAF1000F00F06681019A049BD3182B
:10293000D3E9004502EBCA0B7BE902672046294632
:1029400032463B4613F08AFBA046A94604460D4694
:1029500022462B463046394613F07EFB4B46424614
:1029600013F07CFB019B5B45CBE90045CBE9020101
:10297000E2D1BAF1010F40F33E81019A049B0AF1C2
:10298000005A0AF1FF3A13444FEACA01D3E900455D
:1029900001F1080A029192440DF5947B7AE90267ED
:1029A0002046294632463B4613F058FBA046A9462E
:1029B00004460D4622462B463046394613F04CFB62
:1029C00042464B4613F04AFBD345CAE90045CAE9E3
:1029D0000201E3D1029C019B0026002710341C4415
:1029E00003F110053046394674E9022313F036FB33
:1029F000A542F9D106460F46039B002B40F0B58057
:102A0000019A0B99D2E90045D2E90223C1E90223D8
:102A1000079B03F00700C1E90467C1E900450DF514
:102A2000197DBDE8F08F019B5A1E0CAB0CA953F821
:102A30002230C3F3160341F8223096E600216FF0EE
:102A400017030791E6E400BF00000040FB21F93FB7
:102A50000000F03F0000E03F0000703EA898020830
:102A6000019B002B08F10108C8BF02253FF744AEC7
:102A700032463B466149002013F0EEFA0225064635
:102A80000F46A7E500245EE63946069F03957A4285
:102A90003046CDF81C8000F0B3FD594B00220446AF
:102AA0000D4613F017FF002855D0564B0022204644
:102AB000294613F089FC13F037FF064613F01AFC81
:102AC0004F4B002213F080FC0B460246294620465D
:102AD00013F0C2FA019C13F027FF04F1010A0CABBA
:102AE000183743F82400069743F82A6088E6019DCA
:102AF000069A002005EBC204002174E9022313F0BA
:102B0000ADFAA542F9D1039B002B48D10B9BC3E939
:102B100000010B4601990246D1E9000113F09CFA2D
:102B2000BAF1000F0DDD4AAD0124F5E802230134AE
:102B300013F094FAA245F8DA039B13B101F10043B4
:102B400019460B9BC3E90201079B03F007000DF533
:102B5000197DBDE8F08F2046294613F0E5FE019B64
:102B60000CAA9A4642F823004AE6019B19465A6885
:102B7000DB680D688C680B9903F10043CB60079B01
:102B80000D6002F100424A6003F0070007F10042C5
:102B90008C600E614A610DF5197DBDE8F08F0B9CCC
:102BA00001F10043C4E900030B4601990246D1E953
:102BB000000113F051FABAF1000FB4DCBEE7A29B9A
:102BC000022B0ADC002B11DC7FF4A1AE00200021D7
:102BD00095E6089BDB00029375E4A29B032B7FF430
:102BE00096AE48AB00260027019305E748AB0020CE
:102BF0000021019387E700260027FDE60000F03F53
:102C0000000070410000703E2DE9F04F1F4621F09A
:102C1000004383B01646B3F1795FCDE900670446FF
:102C20000D4604DA13F080FE002800F0858022466D
:102C30002B462046294613F0C7FB06460F46324670
:102C40003B462046294613F0BFFB42A3D3E90023AD
:102C500082468B463046394613F0B6FB3FA3D3E994
:102C6000002313F0F9F932463B4613F0ADFB3DA3C8
:102C7000D3E9002313F0F2F932463B4613F0A4FBEC
:102C80003AA3D3E9002313F0E7F932463B4613F0A9
:102C90009BFB38A3D3E9002313F0E0F90C9B80469B
:102CA00089469BB3DDE90001294B002213F08CFB20
:102CB00042464B46804689465046594613F084FBAF
:102CC00002460B464046494613F0C6F932463B469B
:102CD00013F07AFBDDE9002313F0BEF91AA3D3E960
:102CE000002306460F465046594613F06DFB024638
:102CF0000B463046394613F0B1F902460B462046E2
:102D0000294613F0A9F903B0BDE8F08F02460B463F
:102D10003046394613F058FB0BA3D3E9002313F0D8
:102D20009BF952465B4613F04FFB22462B4613F0AD
:102D300095F903B0BDE8F08F2046294603B0BDE801
:102D4000F08F00BFAFF30080495555555555C53F2D
:102D50000000E03F7CD5CF5A3AD9E53DEB9C2B8A69
:102D6000E6E55A3E7DFEB157E31DC73ED561C11968
:102D7000A0012A3FA6F810111111813F00000000A8
:102D80002DE9F04F2DED048BC74C85B021F00045A7
:102D9000A54243EC192B80468946039100951CDC23
:102DA00013F0C2FD002846D1129B42460133134363
:102DB0002B4300F0C781129B012B00F0D0814B46C2
:102DC000BA49002013F02AFC04460D462046294645
:102DD00005B0BDEC048BBDE8F08FB54B009A9A426C
:102DE00029DD039B002B0ADA55EC194B19EE102A4A
:102DF00005F1004309F1004143EC192B8946424695
:102E00004B4689A1D1E9000113F026F953EC192BA7
:102E100004460D4686A1D1E9000113F01DF92246B2
:102E20002B4613F01BF99FED847B80468946B0EE5C
:102E3000479AF0EE679A42464B464046494613F0A1
:102E4000C3FA02460B4682468B4613F0BDFA524641
:102E500004460D465B464046494613F0B5FA78A352
:102E6000D3E9002306460F462046294613F0ACFA64
:102E700075A3D3E9002313F0F1F822462B4613F093
:102E8000A3FA73A3D3E9002313F0E8F822462B46F4
:102E900013F09AFA70A3D3E9002313F0DFF8224667
:102EA0002B4613F091FA6EA3D3E9002313F0D6F862
:102EB00022462B4613F088FA6BA3D3E9002313F0C4
:102EC000CDF852465B4613F07FFA47EC186B68A3C7
:102ED000D3E9002306460F462046294613F074FA2C
:102EE00065A3D3E9002313F0B9F822462B4613F06B
:102EF0006BFA63A3D3E9002313F0B0F822462B4604
:102F000013F062FA60A3D3E9002313F0A7F8224676
:102F10002B4613F059FA5EA3D3E9002313F09EF871
:102F200022462B4613F050FA5BA3D3E9002313F09B
:102F300095F855EC194B02460B463046394613F0CE
:102F40008DF853EC182B13F03FFA2B4619EE102A8C
:102F500013F084F852465B4613F036FA2B4619EE0E
:102F6000102A13F07BF84EA3D3E9002304460D4644
:102F700051EC180B13F028FA22462B4613F06EF88A
:102F800006460F4632463B464046494613F066F831
:102F9000474B009A9A4204460D4600F38D80129BDF
:102FA000012B39D002460B460020404913F036FB76
:102FB00082468B465C465346CDE9003429460020C4
:102FC00042464B46824613F047F802460B463046CF
:102FD000394613F041F82346524613F0F5F9AB4653
:102FE000234606460F4652465046594613F0ECF922
:102FF000304B002213F032F802460B463046394679
:1030000013F02CF8DDE9002313F0DEF923465246D5
:1030100013F024F804460D462046294605B0BDECC1
:10302000048BBDE8F08F00BF182D4454FB21E93F0D
:10303000075C143326A6813C00000000000000005D
:10304000D47ABF74702AFB3EE9A7F0320FB8123F62
:1030500068108D1AF726303F1583E0FEC8DB573F16
:1030600093846EE9E326823FFE41B31BBAA1AB3FD6
:10307000735360DBCB75F3BEA69237A0887E143FF6
:103080000165F2F2D844433F280356C9226D6D3FD3
:1030900037D60684F464963F7AFE10111111C13FB1
:1030A000635555555555D53FFFFF2F3E0000F0BFE6
:1030B0002794E53F0000F03F129813F01BF92246D9
:1030C00082468B462B462046294613F07DF9524610
:1030D00041EC180B5B462046294612F0BFFF024622
:1030E0000B4651EC180B13F099FA32463B4612F09E
:1030F000B3FF02460B464046494612F0ADFF02467A
:103100000B4612F0ABFF02460B465046594612F0F2
:10311000A3FF039B9B1703F002030446C3F10100C6
:103120000D4613F0E7F802460B462046294613F0F9
:103130004BF904460D462046294605B0BDEC048BEC
:10314000BDE8F08F4046494613F0A0FE02460B460C
:103150000020044913F062FA04460D465CE7444639
:103160004D4659E70000F03F2DE9F04FD24A2DEDD2
:10317000028B21F00043934283B004460D460E4675
:103180005BD9CE4A934214D9CD4A934209D9C1F3AF
:1031900013030343024600F0EF810B4612F05EFF7B
:1031A0000FE1AFA3D3E9002313F09EFB002840F00A
:1031B000F881002EC0F20A81ABA3D3E90023204698
:1031C000294613F001F9BF4F002602460B46304650
:1031D000394612F043FF13F0A7FB019013F08AF871
:1031E000A3A3D3E900238046894613F0EDF80246F5
:1031F0000B462046294612F02FFF9FA3D3E9002358
:1032000006460F464046494613F0DEF8804689469A
:1032100042464B463046394612F01EFF04460D46E4
:1032200022462B463046394612F016FF42464B46A0
:1032300012F012FF41EC180B09E0A34A934200F28E
:10324000F180A24A934240F20181002301939D4BF9
:1032500000222046294613F0B7F806460F463246AC
:103260003B462046294613F0AFF885A3D3E9002357
:1032700082468B4613F0A8F883A3D3E9002312F00B
:10328000EDFE52465B4613F09FF881A3D3E900237D
:1032900012F0E2FE52465B4613F096F87EA3D3E9A5
:1032A000002312F0DBFE52465B4613F08DF87CA340
:1032B000D3E9002312F0D0FE52465B4613F084F8A7
:1032C000834B002212F0CAFE8046894642464B4696
:1032D0003046394613F078F802460B4600207D4907
:1032E00012F0BAFE06460F463246404649463B4675
:1032F00012F0B2FE3246804689463B4620462946B9
:1033000013F062F802460B460020734912F0A4FE47
:1033100002460B464046494613F080F952465B464A
:1033200013F052F8019E02460B46002E3BD057EC9C
:10333000186B18EE102A3B4612F08EFE22462B46E2
:1033400013F042F83B4618EE102A12F085FE5B4659
:10335000524612F081FE019B013306460F4600F0F3
:10336000DB80019B012B00F0BD80019B0133392BD9
:1033700046D8019A132A00F3EA804FF40013134150
:10338000C3F17F5722462B4612F066FE002607F552
:10339000401702460B463046394612F05DFE019A50
:1033A00001EB02510DE02046294613F00DF852467C
:1033B0005B4612F051FE02460B462046294612F0AB
:1033C0004BFE03B0BDEC028BBDE8F08F36A3D3E912
:1033D00000232046294612F041FE0022002313F06C
:1033E00065FA002840F0CB801FA3D3E900232046D4
:1033F000294612F0E9FF394F002602460B46E6E661
:1034000022462B4612F028FE02460B460020304989
:1034100012F022FE019A2E4B01EB0251002212F013
:103420001BFECEE72E4A934200F2C380002910A370
:10343000D3E900237FDB12F00FFE01230FF23809DE
:10344000D9E90089019306460F46E1E618A3D3E9BE
:10345000002312F003FE02460B46AAE7AFF30080FA
:10346000EF39FAFE422E8640FE822B654715F73F64
:103470000000E0FE422EE63F763C7935EF39EA3D2A
:103480002DC3096EB7FD8ABE3952E686CACFD03E3B
:10349000B7DBAA9E19CE143F8555FE19A0015A3FED
:1034A000F41011111111A13F59F3F8C21F6EA501BB
:1034B0009C7500883CE4377E79684340412E864005
:1034C000FFFFEF7F0000E03F422ED63FFFFF8F3C23
:1034D0000000F03F00000840000018400000E0BF7E
:1034E000B1A2F03F404B00222046294613F0DEF9FE
:1034F000002847D03D4B20462946002212F0AEFD61
:1035000002460B463046394612F0A6FD00224FF027
:10351000404312F059FF54E702460B462046294625
:1035200012F09AFD314B002212F04EFF2F4B002279
:1035300012F092FD45E712F091FD4FF0FF330FF2CC
:103540009009D9E90089019306460F4660E6019F7C
:10355000C7F57F7603360022330512F07FFD024661
:103560000B462046294612F077FD214B002212F02F
:1035700075FD01EB075124E70029BFF622AF1D4975
:1035800000201EE732463B462046294612F064FDE5
:1035900002460B4612F062FD154B002212F05EFD52
:1035A0000FE70DA3D3E900231046194612F00CFFD4
:1035B00007E70BA3D3E9002312F006FF002DB4BFE9
:1035C0000D4F0A4F02460B46002600E6AFF300807F
:1035D000763C7935EF39EABD9C7500883CE4377E4E
:1035E000FE822B654715F73F0000D0BF0000E03F8B
:1035F0000000F03F0000F0BF0000E0BF000000004E
:10360000F8B5C1F30A5304460D460E46174653BBA0
:1036100021F000460346334324D0374B002212F0FA
:10362000D3FE364B9F4204460D4616DBC1F30A53C8
:103630000E46363B3B4440F2FE7293421CDC002BAC
:103640003BDC13F1350F2BDA4CF250339F4213DC85
:10365000002D21A1D1E9000137DB1FA3D3E900230D
:1036600012F0B2FEF8BD40F2FF729342E2D1024680
:103670000B4612F0F3FCF8BD002D19A1D1E90001B1
:1036800005DB17A3D3E9002312F09EFEF8BD14A3B7
:10369000D3E9002314A1D1E9000112F095FEF5E76A
:1036A00026F0FF4626F4E006363346EA035120466C
:1036B000134B002212F088FEF8BD26F0FF4626F4D8
:1036C000E006204646EA0351F8BD09A1D1E9000110
:1036D000C3E700BFAFF3008059F3F8C21F6EA50126
:1036E0009C7500883CE4377E9C7500883CE437FE7E
:1036F00059F3F8C21F6EA58100005043B03CFFFF94
:103700000000903C10B5054C237833B9044B13B13D
:103710000448AFF300800123237010BD380300205C
:10372000000000008CB4020808B5034B1BB103492C
:103730000348AFF3008008BD000000003C030020F8
:103740008CB40208154B002B08BF134B9D46A3F504
:10375000803A00218B460F461348144A121A06F08D
:10376000DDFC0F4B002B00D098470E4B002B00D0F8
:1037700098470020002104000D000D48002802D0C9
:103780000C480DF0CBFB15F073FB200029000DF069
:10379000A5FB0DF0BFFB00BF000008000080022069
:1037A00000000000CD0E0208B002002054310020BD
:1037B0001D0F020800000000F0B5214D2C6883B0F9
:1037C00014B1204603B0F0BD4FF49C700DF0A8FB7F
:1037D0004FF0FF310446032001F04CFC00B204F02E
:1037E0005BF84FF0FF310646022001F043FC00B2C7
:1037F00004F052F83146024620460AF025F904F159
:10380000DC0600231A463046012109F08FFF4FF0F5
:10381000FF31012001F02EFC00B204F03DF89827A2
:103820004FF0050C0246CDE9007C3346214604F1F9
:10383000E40007F0B7F820462C6003B0F0BD00BFED
:10384000540300202DE9F04104460E46FFF7B4FF73
:1038500000F1E4070546384607F0C2F8082C18D0F6
:10386000A4F10903012B0CD8D5F8E43038469B6A43
:103870009847052805DCD5F8E43038465B6A08210E
:103880009847324621461023BDE8F0410D2003F051
:10389000DFBED5F8E43038469B6A98470228F0DC52
:1038A000D5F8E43038465B6A04219847E9E700BF61
:1038B00010B52DED028BFFF77FFF00F1E4042046E9
:1038C00008F0D6FD08EE900A204608F0DFFD07EE6E
:1038D000900A2046B8EEE78A08F0E6FDF8EEE88A9E
:1038E00068EE087A07EE100AE8EEA87AB8EEC77A12
:1038F000E7EE077AF5EE407AF1EE10FAB1EEE78ADC
:1039000006D4FDEEC87ABDEC028B17EE900A10BD0E
:1039100017EE900A14F000F8F3E700BF08B503288B
:103920001CD8DFE800F0060D1402BDE80840FFF7E0
:10393000BFBFFFF741FFBDE80840E43008F098BD85
:10394000FFF73AFFBDE80840E43008F09FBDFFF7FD
:1039500033FFBDE80840E43008F0A6BD002008BDF4
:1039600008B518B1012808D0002008BDFFF724FFD2
:10397000BDE80840E430FAF79BBFFFF71DFFBDE844
:103980000840E430FAF7B4BF00B583B00190FFF708
:1039900013FF0199E43003B05DF804EB08F07EBB3F
:1039A00008B501F091FCFBF73BFDBDE8084001F0D4
:1039B000EDB900BF08B501F087FCFBF7A1FDBDE83C
:1039C000084001F0E3B900BF08B501F07DFC13F039
:1039D000D9FABDE8084001F0D9B900BF08B501F037
:1039E00073FC13F0D1FEBDE8084001F0CFB900BF71
:1039F00008B501F069FCFBF723FDBDE8084001F0C4
:103A0000C5B900BF08B501F05FFC13F0E3FCBDE8E9
:103A1000084001F0BBB900BF08B501F055FCFAF74A
:103A200087FFBDE8084001F0B1B900BF08B501F05B
:103A30004BFC13F01DFCBDE8084001F0A7B900BF26
:103A400070B5049D95420C4625DB164653B9042AF1
:103A50001AD0022A11D110F001030ED102880A8077
:103A6000184670BD10440B468A1810F8011D03F863
:103A7000011B9A42F9D1002070BD01463246204612
:103A800005F066F9002070BD10F00303F5D102685F
:103A90000A60184670BD0846002106F03FFB4FF053
:103AA000FF3070BD0830704728B1002902DB436841
:103AB0008B4201DC002070470844007A704700BF49
:103AC00030B1002904DB43688B42C4BF4018027246
