:020000040800F2
:10E000000080022025380208ED9D0208ED9D0208DF
:10E01000ED9D0208ED9D0208ED9D02080000000044
:10E0200000000000000000000000000049F40108AA
:10E03000ED9D020800000000EFF401084FF5010813
:10E04000ED9D0208ED9D0208ED9D0208ED9D020880
:10E05000ED9D0208ED9D0208ED9D0208ED9D020870
:10E06000ED9D0208ED9D0208ED9D0208ED9D020860
:10E07000ED9D0208ED9D0208ED9D0208ED9D020850
:10E08000ED9D0208ED9D0208ED9D02085505020870
:10E0900041040208ED9D020859050208ED9D0208A1
:10E0A000ED9D0208ED9D0208ED9D0208ED9D020820
:10E0B000ED9D0208ED9D020800000000ED9D0208A4
:10E0C000ED9D0208ED9D0208ED9D0208ED9D020800
:10E0D000ED9D0208ED9D0208ED9D0208ED9D0208F0
:10E0E000ED9D0208ED9D0208000000000000000008
:10E0F0000000000000000000000000000000000020
:10E1000000000000ED9D020800000000ED9D0208E7
:10E11000ED9D020800000000ED9D020800000000D7
:10E12000ED9D0208ED9D0208ED9D0208ED9D02089F
:10E13000ED9D0208ED9D0208ED9D02080000000023
:10E14000ED9D0208ED9D0208ED9D0208ED9D02087F
:10E15000ED9D0208ED9D0208ED9D0208ED9D02086F
:10E16000ED9D0208ED9D0208ED9D020800000000F3
:10E1700000000000ED9D020800000000000000000B
:10E18000ED9D0208ED9D0208ED9D0208ED9D02083F
:10E19000ED9D0208000000002DE9F04F85B00391CD
:10E1A0000778A7F10903042B044607F07F0200F16A
:10E1B0000100F5D9202AF3D02B2F04BF677804463D
:10E1C0002D2F72D09FED427B8DED007B4FF000082C
:10E1D0004FF000098FB34FF0000E4FF0000ADFF848
:10E1E00000B1754619E018F01DFF8046894630469B
:10E1F00018F0B2FE42464B4618F062FD5246804689
:10E2000089465B46DDE9000135B319F035F8CDE903
:10E210000001AE4614F8017F7FB1A7F13006092E48
:10E2200052465B4640464946DDD9C5B92E2F16D128
:10E2300014F8017F0125002FEFD142464B46DDE95E
:10E24000000118F0EFFE80468946039B4046494690
:10E250001C6005B0BDE8F08F4FF0010EDAE7BEF1AB
:10E26000000F29D042464B46DDE9000118F0DAFEE6
:10E2700007F0DF07452F80468946E6D10399601CE9
:10E280000A221BF0B5FC16490246002019F02AFAB2
:10E2900002460B464046494618F0C4FE8046894671
:10E2A0004046494605B0BDE8F08F9FED0B7B67788F
:10E2B0008DED007B013489E7DFF828904FF00008EE
:10E2C0004046494605B0BDE8F08F00BFAFF300807F
:10E2D000000000000000F03F000000000000F0BF60
:10E2E000000024400000F87F2DE9F84F1646002377
:10E2F000002204460D4619F007F9002840F09D80E1
:10E30000002200232046294619F0F4F828B13022D3
:10E31000002332707370BDE8F88F2046294619F04B
:10E32000FFFF19F02FF97BA3D3E90023814629468B
:10E33000204619F0E9F8002800F08680B9F1000FB6
:10E34000C0F2BE804A4600206F4919F0CBF9024660
:10E350000B462046294618F08FFF04460D4666A15D
:10E36000D1E9000101274FF0000822462B4618F0A2
:10E3700059FE0022654B18F0A3FC19F0EFF9002FAD
:10E38000CC464FF0FF3AC1464FF0000840F385807D
:10E39000DFF888E15E4C0122AEF1700945F6F32505
:10E3A0004FF02E0BA94208BFA0424FF0300309D313
:10E3B000001B61EB0501A94208BFA04203F1010364
:10E3C000F6D2DBB2337050EA010306F1010409D141
:10E3D000BA4210DACE4502F101020CD026467EE8A0
:10E3E0000245DFE7BA4204BF86F801B0B41CCE454F
:10E3F00002F10102F2D1B8F1000F0DD02246302116
:10E4000002F8011BC2F1010353442344002BF7DC43
:10E410002AEAEA7301331C44BCF1010F4CD0652396
:10E42000BCF1000F2370C5BF2B236370611CA11CBE
:10E430006046BDE8F84F0DF065BA05F100431D4692
:10E440002D23337001365BE72DA3D3E9002320464B
:10E45000294619F077F800287FF470AFB9F10E0F54
:10E4600009F101073DDDA9F10E08424600202649C9
:10E4700019F038F902460B462046294618F0FCFEF2
:10E480000022224B18F01CFC19F068F9002FA9F1AA
:10E490000F0A4FF0010C3FF77BAF334630222E249A
:10E4A00003F8022B74707FEA090618D01E4403F8A3
:10E4B000012BB342FBD16BE700232370BDE8F88F3B
:10E4C000C9F100020020104919F00CF902460B4670
:10E4D0002046294618F0A6FD04460D463FE71E4695
:10E4E00056E7C9F10E0200200749C84619F0FAF8AC
:10E4F0004FF0010939E700BF0000901EC4BCD642AE
:10E5000050EFE2D6E41A4B44000024400000E03F04
:10E5100000407A108DEDB5A0F7C6B03E78A702088E
:10E5200070B54FF0FF3006F0B1FA04466FF07F404F
:10E5300006F0ACFA0646204618F0FEFC00220C4B12
:10E5400018F070FD044630460D4618F0F5FC06A3A1
:10E55000D3E9002318F090FE02460B4620462946D8
:10E5600018F0AEFB70BD00BF0000E0DFFFFF6F439F
:10E570000000F03D000000002DE9F843044600F1E2
:10E580006C060CF0B3FF07460CF0B6FF304611F0F6
:10E59000DFFD2368C51A304611F0DAFD237DC1176F
:10E5A000C4E90001042B40D8DFE803F04693617B07
:10E5B000030003232375284618F0CEFC6BA3D3E990
:10E5C00000238046894618F0BDFF48B169A3D3E90E
:10E5D00000234046494618F097FF002840F0A380EA
:10E5E00066A3D3E900234046494618F0ABFF48B183
:10E5F0004046494663A3D3E9002318F085FF00286D
:10E6000040F095802269E368013200212261217582
:10E61000202B0CD1A3686FEA1322D2B2D9B2914257
:10E6200000F08E8023690133236100232375FB07EB
:10E6300000D462B6BDE8F883284618F08DFC53A3D9
:10E64000D3E900238046894618F07CFF0028EED0ED
:10E65000404649464FA3D3E9002318F055FF002850
:10E66000E5D0002301222275A360E360DFE728469E
:10E6700018F072FC3DA3D3E900238046894618F0C8
:10E6800061FF40B1404649463AA3D3E9002318F060
:10E690003BFF0028CBD1236900220133236122757F
:10E6A000C5E7284618F058FC30A3D3E9002380467C
:10E6B000894618F047FF0028EDD0404649462DA373
:10E6C000D3E9002318F020FF0028E4D004232375A9
:10E6D000ADE7284618F040FC30A3D3E9002380467C
:10E6E000894618F02FFF38B12EA3D3E90023404606
:10E6F000494618F009FF98B900221B4B404649468D
:10E7000018F020FF0028C6D04046494614A3D3E99C
:10E71000002318F0F9FE0028BDD00223237586E7F8
:10E720000323237583E7E3680133E36070E7E3685D
:10E73000A268012199400A430133E360A26067E7C0
:10E740006FEA1362D2B2C3F3074393427FF46AAF16
:10E7500084F8CC30A369984767E700BFAFF3008027
:10E76000000000000018A54000209C409A9999994B
:10E7700099197C4033333333331385409A999999EF
:10E78000991995406666666666A69F40000000007F
:10E790000020BC40000000000018C5400000000040
:10E7A0000020AC40000000000018B5400000000050
:10E7B000294B1B68002B70B506460CBF182005209E
:10E7C0000D4609F0CFF8002E044639DD234B1868BA
:10E7D00018F0C2FB1EA3D3E9002318F023FC00228B
:10E7E000002318F06DFA18F0CDFE236820EAE071DE
:10E7F000B1F5806FA8BF4FF48061DB682046984771
:10E8000023681749D3F8803091FBF6F120469847EA
:10E81000002D14DDA5F11406012EB8BF01263046E7
:10E820000DF058FE23682046DB6800219847A81B9E
:10E830000128B8BF0120BDE870400DF04BBE70BD8F
:10E8400003680021DB68BDE870401847AFF3008023
:10E850001010101010101040480600200802002070
:10E8600040420F000000000038B5154B1B68002B1C
:10E8700004460CBF1820052009F074F80546204610
:10E8800018F06AFB0CA3D3E9002318F0CBFB00229D
:10E89000002318F015FA18F075FE2B6820EAE071D5
:10E8A000B1F5007FDB68A8BF4FF400712846984798
:10E8B000044B1C6038BD00BF101010101010004039
:10E8C000480600200802002030B52D4B8DB01A6894
:10E8D0000092009A120205D4009A42F400020092BB
:10E8E000009A1A60274A284B126801921B6802930B
:10E8F0000EF0A6FB18F030FBCDE90401019B9BB2A2
:10E900000193029B9BB20293DDE904011AA3D3E9B0
:10E91000002318F087FB1D4B0022CDE90401CDE94F
:10E9200006230298019BC01A18F006FBCDE90801E6
:10E93000DDE90445019818F0FFFA02460B4620462F
:10E94000294618F0BBF9CDE90A01DDE90601DDE948
:10E950000823DDE90A4518F08FFC22462B4618F003
:10E9600061FB00220A4B18F0ABF918F033FE03905C
:10E9700003980DB030BD00BF9A9999999999F13FCC
:10E9800008030450A875FF1FCA75FF1F00005440FC
:10E9900000003E40000000002DE9F04F2DED028BFD
:10E9A000044683B0C06818F0D7FA804620698946CB
:10E9B00018F0D2FA824660698B4618F0CDFA02460A
:10E9C00001F1004306460F464046494619F054FB04
:10E9D00018F020FEE062054619F002FA0190284680
:10E9E00019F0B2F9019B0546184618F0C7FA4246DD
:10E9F0004B4618F017FB80462846894618F0BEFAA9
:10EA000032463B4618F00EFB02460B46404649464E
:10EA100018F054F902460B465046594619F02CFBA3
:10EA200018F0F8FD002208EE100A0023304639469F
:10EA300018F088FD28B3B5EEC08AF1EE10FA1CDD9F
:10EA400011A7D7E9006718EE100A18F097FA0246E6
:10EA50000B463046394618F031F932463B4618F03D
:10EA60002FF918F0D7FDA062E38843F00203E3809A
:10EA700003B0BDEC028BBDE8F08F05A7D7E90067B6
:10EA8000E1E784ED0A8AEFE7EA2E4454FB21F93FDF
:10EA9000EA2E4454FB21F9BF08B50EF003FADFED6E
:10EAA0000C7A07EE100A67EE277A17EE900A18F034
:10EAB00065FA05A3D3E9002318F0DEFB18F062FD28
:10EAC00008BD00BFAFF30080EA2E4454FB2119407B
:10EAD0000000B4430000000008B50EF0F7F9DFEDC8
:10EAE0000C7A07EE100A67EE277A17EE900A18F0F4
:10EAF00045FA05A3D3E9002318F0BEFB18F042FD48
:10EB000008BD00BFAFF30080EA2E4454FB2119403A
:10EB10000000B44300000000494A21F00043934242
:10EB20002DE9704304460D464BDC464A93420E469F
:10EB30000EDC3FA3D3E9002318F0C2F80022424BB9
:10EB400018F000FD00284CD020462946BDE870830F
:10EB50003E4A93423BDCB3F1804F42DD18F0DAFFCE
:10EB60002246804689462B462046294618F05AFA06
:10EB70000022354B18F0A4F819F090FE02460B461F
:10EB80004046494618F09CF802460B4600202E49A4
:10EB900018F072FB424604460D464B464046494635
:10EBA00018F08EF802460B462046294618F088F8E1
:10EBB00002F06AF8002EC9DC01F100431946BDE8F5
:10EBC000708302460B4618F07BF8BDE8708318F09E
:10EBD000A1FF02F059F818A3D3E9002318F070F848
:10EBE000E8E722462B462046294618F01BFA8046C5
:10EBF00089462046294618F08DFF002204460D461E
:10EC0000114B4046494618F05BF819F047FE0022C8
:10EC10000D4B18F055F802460B464046494618F091
:10EC20002BFB22462B4618F04BF800F0C5FAC1E743
:10EC30009C7500883CE4377EEF39FAFE422EE63FB1
:10EC4000FFFFEF7FFFFF2F3E0000F03F0000B041CD
:10EC50002DE9F84FC44B21F000469E4204460D4674
:10EC60008A460EDDC14B9E4200F3AC8000F0A780C7
:10EC7000BAF1000F40F3EA809FA1D1E90001BDE89D
:10EC8000F88FBB4B9E4200F3B580A3F1DE739E422A
:10EC900040F3A0804FF0FF3B22462B4620462946FA
:10ECA00018F0C0F902460B468046894618F0BAF9BA
:10ECB00093A3D3E9002306460F4618F0B3F992A3B5
:10ECC000D3E9002317F0FCFF32463B4618F0AAF9BF
:10ECD0008FA3D3E9002317F0F3FF32463B4618F029
:10ECE000A1F98DA3D3E9002317F0EAFF32463B4692
:10ECF00018F098F98AA3D3E9002317F0E1FF324610
:10ED00003B4618F08FF988A3D3E9002317F0D8FF0A
:10ED100042464B4618F086F985A3D3E90023804686
:10ED200089463046394618F07DF983A3D3E900239C
:10ED300017F0C4FF32463B4618F074F980A3D3E9BC
:10ED4000002317F0BBFF32463B4618F06BF97EA359
:10ED5000D3E9002317F0B2FF32463B4618F062F9C0
:10ED60007BA3D3E9002317F0A9FF32463B4618F0F6
:10ED700059F9BBF1FF3F02460B466CD0404649466D
:10ED800017F09EFF22462B4618F04CF9794E7A4B2D
:10ED90004FEACB0B5E449B44DBE9002317F08EFF68
:10EDA00022462B4617F08AFF02460B46D6E90001A1
:10EDB00017F084FFBAF1000F43DBBDE8F88F00289D
:10EDC0003FF456AF22462B462046294617F078FFDF
:10EDD000BDE8F88F60A3D3E9002317F071FF00228C
:10EDE000664B18F0AFFB00283FF454AF204629468D
:10EDF000BDE8F88F18F08EFE614B9E4204460D462A
:10EE000039DCA3F550239E425EDC02460B4617F028
:10EE100057FF0022594B17F051FF002206460F46BC
:10EE20004FF080432046294617F04AFF02460B4622
:10EE30003046394618F020FA4FF0000B04460D46D4
:10EE40002AE701F100431946BDE8F88F44A1D1E952
:10EE50000001BDE8F88F4046494617F031FF2246D1
:10EE60002B4618F0DFF802460B462046294617F0DD
:10EE700025FFBDE8F88F434B9E421ADC0022424B2F
:10EE800017F01CFF002206460F463F4B204629463E
:10EE900018F0C8F80022394B17F012FF02460B4653
:10EEA0003046394618F0E8F94FF0020B04460D469B
:10EEB000F2E602460B460020344918F0DDF94FF027
:10EEC000030B04460D46E7E600222C4B17F0F6FE36
:10EED000002206460F46294B2046294617F0F0FE31
:10EEE00002460B463046394618F0C6F94FF0010B82
:10EEF00004460D46D0E600BF182D4454FB21F93FCF
:10EF000011DA22E33AAD903FEB0D76244B7BA93F1B
:10EF1000513DD0A0660DB13F6E204CC5CD45B73FE9
:10EF2000FF8300922449C23F0D5555555555D53F95
:10EF30002F6C6A2C44B4A2BF9AFDDE522DDEAD3F89
:10EF40006D9A74AFF2B0B33F711623FEC671BC3F29
:10EF5000C4EB98999999C93F9C7500883CE4377E29
:10EF6000182D4454FB21F9BFFFFF0F440000F07F30
:10EF7000FFFFDB3F88A70208A8A702080000F03FB8
:10EF8000FFFFF23FFF7F03400000F83F0000F0BFAB
:10EF90002DE9F843C1F30A59A9F2FF35132D0246B2
:10EFA0000B460C4606468846074622DC002D50DB01
:10EFB000DFF8F09049FA05F901EA090E5EEA060663
:10EFC0001CD036A3D3E9002317F07AFE00220023D9
:10EFD00018F0B8FA48B1002C04DD4FF4801343FA5E
:10EFE00005F5A84428EA0904002721463846BDE86B
:10EFF000F883332D06DDB5F5806F3DD010461946F8
:10F00000BDE8F883A9F213494FF0FF3E2EFA09F943
:10F0100010EA090FF2D021A3D3E9002317F050FE24
:10F020000022002318F08EFA0028DED0002C09DD23
:10F03000142D2BD00127C5F1340507FA05F5AE19BB
:10F0400028BFB844444626EA090721463846BDE8A9
:10F05000F88312A3D3E9002317F032FE0022002325
:10F0600018F070FA0028C0D0002C0BDB54EA060719
:10F0700006D00027084CB8E717F022FEBDE8F88359
:10F080003C46B2E700274FF00044AEE704F1010828
:10F09000D8E700BFAFF300800000F03F9C75008808
:10F0A0003CE4377EFFFF0F002DE9F041C1F30A5722
:10F0B000A7F2FF35132D02460B460C46884606463E
:10F0C0001CDC002D3FDB3A4F2F41864601EA070C3E
:10F0D0005CEA0E0E17D034A3D3E9002317F0F0FD3D
:10F0E0000022002318F02EFA20B1002C3FDB28EA82
:10F0F0000704002621463046BDE8F081332D06DDA9
:10F10000B5F5806F2FD010461946BDE8F081A7F203
:10F1100013474FF0FF3E2EFA07F73842F3D022A3F1
:10F12000D3E9002317F0CCFD0022002318F00AFADF
:10F130000028DFD0002C20DB444626EA07062146C3
:10F140003046BDE8F08118A3D3E9002317F0B8FDDD
:10F150000022002318F0F6F90028CBD0002C17DB92
:10F1600000263446C6E717F0ABFDBDE8F0814FF44A
:10F17000801343FA05F5A844B9E7142D10D00123F4
:10F18000C5F1340503FA05F5AE1928BF9844D3E755
:10F1900024F00042074B324318BF1C460026A9E763
:10F1A00004F10108C8E700BF9C7500883CE4377E85
:10F1B000FFFF0F000000F0BF2DE9F04FD84B994240
:10F1C00087B0804689460E4613DCD64B21F00044BA
:10F1D0009C4218DD0022D44B18F08CF9002879D01D
:10F1E000002200230020D14918F046F807B0BDE8FE
:10F1F000F08FCF4B99422FDD42464B4617F060FD12
:10F2000007B0BDE8F08FCB4B9C4270DDCA4B1E446B
:10F210009E427ED80022C94B4046494617F050FD19
:10F220004FEA215AAAF2FF3ABAF1000F04460D46FE
:10F230000E4640F3DE8142464B4617F03FFD024644
:10F240000B460020BD4917F039FD22462B4618F029
:10F2500013F8CDE902010BE0B94B9E42DADD9FEDD8
:10F260009A7B8DED027B4FEA265A4446AAF2FF3A7A
:10F27000B44BC6F313069E4246F07F5500F3E78079
:10F2800045F44015204629460022AC4B17F016FDE8
:10F29000002204460D46AC4B17F0C4FE22462B4616
:10F2A00017F0C0FEA046CDE90401A946CDE9000152
:10F2B000002E3AD1002200232046294618F01AF9E0
:10F2C000002800F0CE80BAF1000F40F074810020D9
:10F2D000002195E742464B464046314617F0EEFC8A
:10F2E00002460B4617F0C8FF07B0BDE8F08F0022BA
:10F2F000964B17F0E5FC0022002318F023F90028B4
:10F3000000F0CC80924B9C4200F3C88040464946B6
:10F3100076E700228C4B17F085FE42464B4617F0ED
:10F3200081FECDE900014FF0000A00224FF080433A
:10F330004046494617F0C4FC02460B464046494643
:10F3400017F09AFF02460B4606460F4617F06AFE74
:10F350005FA3D3E9002304460D4617F063FE5EA3C6
:10F36000D3E9002317F0ACFC22462B4617F05AFED7
:10F370005BA3D3E9002317F0A3FC22462B4617F02A
:10F3800051FE59A3D3E9002317F09AFC22462B46DD
:10F3900017F048FE56A3D3E9002317F091FC22464C
:10F3A0002B4617F03FFE54A3D3E9002317F088FC47
:10F3B00022462B4617F036FE51A3D3E9002317F05F
:10F3C0007FFC22462B4617F02DFE04460D46BAF16F
:10F3D000000F00F0BF80504617F0BEFD4AA3D3E9EE
:10F3E000002382468B4617F01DFEDDE90023CDE9A0
:10F3F00004012046294617F063FC32463B4617F0CD
:10F4000011FE43A3D3E9002304460D465046594656
:10F4100017F008FEDDE9022317F052FC02460B4606
:10F420002046294617F04CFC02460B46DDE9000158
:10F4300017F044FC42464B4617F040FC02460B4690
:10F44000DDE9040117F03AFC07B0BDE8F08F45F4A0
:10F450000015C6F5801620462946B6100AF1010AA5
:10F4600012E72DA3D3E900232046294617F0DAFD41
:10F4700002460B460020314917F020FCDDE9042349
:10F4800017F0D0FD06460F46BAF1000F73D10246C1
:10F490000B462046294617F011FCB1E642464B4682
:10F4A0004046494617F0BEFD0022274B17F0BAFD33
:10F4B00002460B464046494617F000FC07B0BDE83F
:10F4C000F08F00BFAFF300800000000000000000DC
:10F4D00044523EDF12F1C23F9FC678D0099AC33F23
:10F4E000DE03CB966446C73FAF788E1DC571CC3F17
:10F4F000599322942449D23F04FA97999999D93F74
:10F50000935555555555E53F0000E0FE422EE63F28
:10F51000763C7935EF39EA3D555555555555E53F1A
:10F520007982DA3FFFFFEF3F0000F0BF000050C3D9
:10F53000FFFFEF7FFFFF1F3E3C412D400000F03FEB
:10F54000FFFF3F439DA006000000E03F0000504346
:10F55000FFFF8F3CDDE9004522462B4617F0B0FB4C
:10F5600032463B4617F05EFD02460B4620462946D2
:10F5700017F0A4FB9CE7504617F0EEFC23A3D3E959
:10F58000002382468B4617F04DFD22A3D3E90023CA
:10F59000804689465046594617F044FDDDE902236E
:10F5A00017F08EFB02460B463046394617F086FBB5
:10F5B00022462B46DCE7504617F0CEFC15A3D3E9D4
:10F5C000002306460F4617F02DFDDDE9022317F054
:10F5D00077FB0EA3D3E9002304460D463046394697
:10F5E00017F020FD02460B462046294617F068FB1F
:10F5F00006E60022044B17F061FB02460B4640462C
:10F60000494617F05BFB20E60000F03F0000E0FEFB
:10F61000422EE63F763C7935EF39EA3D00000000A6
:10F6200008B518F0FDFD04A3D3E9002317F024FE6C
:10F6300008BD00BFAFF30080EF39FAFE422EE63F6F
:10F640002DE9F043DFF8B4808BB004460D4601F09D
:10F65000F3F898F90030013306460F462BD02246C6
:10F660002B462046294617F077FF814618BB2046D7
:10F67000294618F04FFA1FA3D3E9002317F062FFC1
:10F68000C8B1194A98F90030CDF820900321CDE98E
:10F690000445CDE902458DE806008BB9134B4FF0C8
:10F6A0006042CDE90623684619F086FF70B1089BD9
:10F6B0009BB9DDE90667304639460BB0BDE8F083FB
:10F6C0000B490020022BCDE90601ECD11AF0F2F82B
:10F6D00022230360089B002BEBD01AF0EBF8089B69
:10F6E0000360E6E7AFF30080D4BC0208FFFFEF47FA
:10F6F0000000F07F7DF8B98FCE33864006040020ED
:10F700002DE9F043DFF8E4808BB004460D4601F0AC
:10F7100043F998F90030013306460F4633D02046AE
:10F72000294619F043FF70B32CA3D3E900232046E8
:10F73000294617F007FF814650BB2AA3D3E90023CF
:10F740002046294617F0E0FEE8B198F90030204A3B
:10F75000CDF82090002600270421022BCDE9044596
:10F76000CDE90245CDE906678DE8060029D0684657
:10F7700019F022FF28B3089B1BB11AF09BF8089BD5
:10F780000360DDE90667304639460BB0BDE8F0831B
:10F790000F4A98F90030019203210022CDE9044577
:10F7A000CDE90245009108922BB90A4B4FF0604217
:10F7B000CDE90623DBE708490020022BCDE906014D
:10F7C000D5D11AF077F822230360D4E7AFF3008095
:10F7D000DCBC0208FFFFEF470000F07FEF39FAFEC4
:10F7E000422E864051302DD5104987C00604002096
:10F7F0002DE9F04FDFF80C938DB006460F46144606
:10F800001D4601F0C5FC99F90080B8F1FF3FCDE934
:10F81000000136D022462B462046294617F09CFE92
:10F82000834670BB32463B463046394617F094FE5D
:10F830008246002840F0A28030463946002200234C
:10F8400017F058FE10B3002200232046294617F077
:10F8500051FE834600286AD09FEDA17B0122A44B74
:10F86000CDF828A00292CDE90467CDE906458DEDDB
:10F87000087B0393B8F1000F45D09FED9B7B8DED86
:10F88000007BDDE900010DB0BDE8F08FDDE900018E
:10F8900019F08CFE8046002800F08D804FF0000AA1
:10F8A0004FF0000BDDE9000152465B4617F022FEE7
:10F8B0000028E6D03046394619F078FE0028E0D01E
:10F8C0002046294619F072FE0028DAD099F9003056
:10F8D000874A039204210022022BCDE90467CDE977
:10F8E0000645CDE908AB02910A9203D002A819F0AF
:10F8F00063FE68B919F0DEFF2223036008E09FED84
:10F90000787B8DED087B02A819F056FE002830D0D8
:10F910000A9B1BB119F0CEFF0A9B03609DED087B8B
:10F920008DED007BDDE900010DB0BDE8F08F2046D4
:10F93000294619F03BFE0028A3D0002200232046D0
:10F94000294617F0E1FD00289BD099F90030684A5C
:10F95000CDF828B00121CDE90467CDE90645029133
:10F960000392002BCBD063490020022BCDE9080184
:10F97000C9D119F09FFF21230360C9E700220023AA
:10F980002046294617F0B6FD00283FF47AAF5A4BBF
:10F990005749CDF828B000220120B8F1020FCDE977
:10F9A00004670290CDE90645CDE908230391AAD169
:10F9B000CDE9002365E73046394619F0F7FD002808
:10F9C0003FF46CAF2046294619F0F0FD00283FF4C3
:10F9D00065AFDDE900231046194617F0BDFD00288C
:10F9E0005FD1032399F900800293414B0A90CDE93E
:10F9F0000467CDE906450393B8F1000F2BD1DFF87A
:10FA000008B14FF0604A0022002330463946CDE964
:10FA100008AB17F079FD00283FF468AF0022374BA0
:10FA20002046294617F0FEFA04460D4619F0CCFD93
:10FA300002460B462046294617F05CFD70BB304B52
:10FA400099F900804FF06042CDE90823B8F1020F28
:10FA50007FF44CAF4EE7DFF8B4B04FF0000A00225D
:10FA6000002330463946CDE908AB17F04DFD00289C
:10FA7000ECD00022214B2046294617F0D3FA044649
:10FA80000D4619F0A1FD02460B462046294617F007
:10FA900031FD18B9174B0022CDE9082399F90080F0
:10FAA000D4E799F90090124BCDF828800122CDE9D6
:10FAB0000467CDE9064502920393B9F1000F3FF4C4
:10FAC0001EAF002200231046194617F0D5FBB9F1EE
:10FAD000020FCDE908013FF44CAF14E7AFF300800B
:10FAE0000000000000000000000000000000F03FE7
:10FAF000F4BC02080000F0FF0000F03F0000E03F0F
:10FB0000FFFFEFC706040020FFFFEF470000F07F74
:10FB10002DE9F84FC44E21F00043B34204460D4690
:10FB20000DDD03F1404303F58013034340F0B9803A
:10FB3000002940F3408100200021BDE8F88FBB4E32
:10FB4000B34240F3A6800029C0F2788102460B46FA
:10FB50000020B74917F0B2F80022B64B17F062FA4E
:10FB600004460D4618F09AFE95A3D3E90023894672
:10FB700080462946204617F055FA93A3D3E900237F
:10FB800017F09EF822462B4617F04CFA90A3D3E9C3
:10FB9000002317F093F822462B4617F043FA8EA362
:10FBA000D3E9002317F08CF822462B4617F03AFAD7
:10FBB0008BA3D3E9002317F081F822462B4617F0D8
:10FBC00031FA89A3D3E9002317F07AF822462B46AD
:10FBD00017F028FA86A3D3E9002382468B462046F5
:10FBE000294617F01FFA84A3D3E9002317F066F81B
:10FBF00022462B4617F016FA81A3D3E9002317F00B
:10FC00005FF822462B4617F00DFA7FA3D3E90023B5
:10FC100017F054F822462B4617F004FA0022844BC2
:10FC200017F04EF802460B465046594617F024FB93
:10FC300042464B4617F0F6F9002682468B4632467E
:10FC40004B463046494617F0EDF902460B46204632
:10FC5000294617F033F8324604460D464B464046D7
:10FC6000494617F02DF802460B462046294617F064
:10FC700003FB02460B465046594617F021F8324620
:10FC80004B4617F01DF802460B4617F019F8BDE871
:10FC9000F88F694A93420EDC5DA1D1E90001BDE80D
:10FCA000F88F02460B4617F009F802460B4617F08C
:10FCB000E3FABDE8F88F02460B4617F0B3F940A30C
:10FCC000D3E9002306460F4617F0ACF93EA3D3E96B
:10FCD000002316F0F5FF32463B4617F0A3F93CA38C
:10FCE000D3E9002316F0EAFF32463B4617F09AF9B3
:10FCF00039A3D3E9002316F0E3FF32463B4617F061
:10FD000091F937A3D3E9002316F0D8FF32463B46DA
:10FD100017F088F934A3D3E9002316F0D1FF324657
:10FD20003B4617F07FF932A3D3E90023804689468A
:10FD30003046394617F076F92FA3D3E9002316F0A1
:10FD4000BDFF32463B4617F06DF92DA3D3E90023E2
:10FD500016F0B6FF32463B4617F064F92AA3D3E902
:10FD6000002316F0ABFF32463B4617F05BF900224A
:10FD70002F4B16F0A5FF02460B464046494617F0AA
:10FD80007BFA22462B4617F04DF902460B4622A17C
:10FD9000D1E9000116F092FF02460B4620462946A3
:10FDA00016F08CFF02460B4619A1D1E9000116F0AE
:10FDB00085FFBDE8F88F1AA1D1E90001BDE8F88FF1
:10FDC00009F7FD0DE13D023F88B20175E0EF493FC3
:10FDD0003B8F68B52882A43F5544880E55C1C93F62
:10FDE0007D6FEB0312D6D43F555555555555C53F3C
:10FDF00082922EB1C5B8B33F59018D1B6C06E63F08
:10FE0000C88A599CE52A00404B2D8A1C273A03409A
:10FE1000182D4454FB21F93F075C143326A6913C6E
:10FE2000182D4454FB210940FFFFEF3FFFFFDF3F48
:10FE30000000F03F0000E03F0000603C00225C4B0F
:10FE400016F03EFF00225B4B17F0ECF840A3D3E91D
:10FE5000002304460D4617F0E5F83FA3D3E900233D
:10FE600016F02EFF22462B4617F0DCF83CA3D3E910
:10FE7000002316F023FF22462B4617F0D3F83AA3AF
:10FE8000D3E9002316F01CFF22462B4617F0CAF8D0
:10FE900037A3D3E9002316F011FF22462B4617F0B3
:10FEA000C1F835A3D3E9002316F00AFF22462B46FA
:10FEB00017F0B8F8804689462046294618F0EEFC2F
:10FEC0002FA3D3E9002306460F462046294617F004
:10FED000A9F82DA3D3E9002316F0F0FE22462B4605
:10FEE00017F0A0F82AA3D3E9002316F0E9FE224672
:10FEF0002B4617F097F828A3D3E9002316F0DEFE6F
:10FF000022462B4617F08EF80022294B16F0D8FE19
:10FF100002460B464046494617F0AEF932463B468C
:10FF200017F080F81EA3D3E9002316F0C7FE32466F
:10FF30003B4616F0C5FE02460B4616F0C1FE0246D1
:10FF40000B4619A1D1E9000116F0B8FEBDE8F88F03
:10FF500009F7FD0DE13D023F88B20175E0EF493F31
:10FF60003B8F68B52882A43F5544880E55C1C93FD0
:10FF70007D6FEB0312D6D43F555555555555C53FAA
:10FF800082922EB1C5B8B33F59018D1B6C06E63F76
:10FF9000C88A599CE52A00404B2D8A1C273A034009
:10FFA000075C143326A6913C182D4454FB210940CC
:10FFB0000000F03F0000E03F434A91422DE9F84342
:10FFC00004460D4639DD414A914209DD02F179527C
:10FFD000914240DD02460B4616F072FEBDE8F88302
:10FFE00001F1404202F58012024330D0B1F1804F5E
:10FFF0003ADC0022364B16F061FE02460B46044600
:020000040801F1
:100000000D4616F05DFE224606460F462B4620465C
:10001000294617F007F802460B463046394616F0D7
:100020004FFE18F03BFC0B4602462946204616F0D0
:1000300047FEBDE8F843FFF7BFB802460B4616F08F
:100040003DFE02460B4617F017F9BDE8F883002085
:100050000021BDE8F88300F017FE19A3D3E90023BF
:1000600016F02EFEBDE8F88302460B4616F0DAFFC6
:100070000022174B16F022FE18F010FC2246804694
:1000800089462B462046294616F01AFE4246064669
:100090000F464B462046294616F012FE02460B46F6
:1000A00000200B4917F0E8F80B4602463946304667
:1000B00016F004FEBDE8F84300F0E6BDAFF30080A3
:1000C000EF39FAFE422EE63FFFFFEF3FFFFFAF4161
:1000D0000000F03F000000002DE9F047BE4B21F08A
:1000E0000048984584B004460D4612DD08F14048AA
:1000F00008F58018034658EA030321D002460B4650
:1001000016F0DCFD02460B4617F0B6F804B0BDE869
:10011000F087B24B98458A4629DCB8F1795F80F2C6
:10012000658191A3D3E9002316F0CAFD0022AC4BF0
:1001300017F008FAD8B12046294604B0BDE8F08788
:100140008BA3D3E9002316F06DFF8BA3D3E9002323
:1001500006460F462046294616F064FF02460B4627
:100160003046394616F0ACFD04B0BDE8F0872046B5
:10017000294617F0CFFC02460B460020984916F09E
:100180009DFD0022974B16F04DFF7DA3D3E9002380
:1001900004460D4616F046FF7BA3D3E9002316F074
:1001A0008FFD22462B4616F03DFF79A3D3E90023AD
:1001B00016F084FD22462B4616F034FF76A3D3E9D1
:1001C000002316F07DFD22462B4616F02BFF74A36C
:1001D000D3E9002316F072FD22462B4616F022FFCB
:1001E00071A3D3E9002316F06BFD22462B4616F0CF
:1001F00019FF6FA3D3E90023CDE90001204629466A
:1002000016F010FF6CA3D3E9002316F057FD224629
:100210002B4616F007FF6AA3D3E9002316F050FD22
:1002200022462B4616F0FEFE67A3D3E9002316F004
:1002300045FD22462B4616F0F5FE694B002216F0CE
:100240003FFDCDE902012046294618F027FB664B09
:10025000984506460F4666DCDDE90223DDE900012C
:1002600017F00AF83246CDE900013B4630463946E0
:1002700016F026FD02460B46DDE9000116F0D2FE1F
:100280004FF00008CDE9000142463B464046394662
:1002900016F0C8FE02460B462046294616F00EFD13
:1002A000424604460D463B463046394616F008FDA8
:1002B00002460B462046294616F0DEFF02460B4654
:1002C00016F0FEFC02460B462BA1D1E9000116F008
:1002D000F5FC02460B46DDE9000116F0EFFC424654
:1002E00004460D463B464046394616F0E9FC0246B8
:1002F0000B4637A1D1E9000116F0E0FC02460B469F
:100300002046294616F0DAFC02460B4630A1D1E918
:10031000000116F0D3FCBAF1000F3FF7F7AE01F180
:1003200000431946F2E6DDE90223DDE9000116F09B
:10033000A3FF32463B4616F075FE32463B4616F0AA
:10034000BFFC02460B4616F0BBFC0BA3D3E900230F
:1003500016F0B4FC02460B4605A1D1E9000116F0E7
:10036000ADFCD8E7AFF300809C7500883CE4377E95
:10037000182D4454FB21F93F075C143326A6913C09
:1003800009F7FD0DE13D023F88B20175E0EF493FFD
:100390003B8F68B52882A43F5544880E55C1C93F9C
:1003A0007D6FEB0312D6D43F555555555555C53F76
:1003B00082922EB1C5B8B33F59018D1B6C06E63F42
:1003C000C88A599CE52A00404B2D8A1C273A0340D5
:1003D000182D4454FB21E93FFFFFEF3FFFFFDF3FB4
:1003E0000000F03F0000E03F3233EF3F02460B4693
:1003F00016F018FE37A3D3E9002306460F4616F081
:1004000011FE36A3D3E9002316F05AFC32463B46D0
:1004100016F008FE33A3D3E9002316F04FFC324652
:100420003B4616F0FFFD31A3D3E9002316F048FC4C
:1004300032463B4616F0F6FD2EA3D3E9002316F014
:100440003DFC32463B4616F0EDFD2CA3D3E90023DC
:1004500016F036FC32463B4616F0E4FD29A3D3E9FC
:100460000023804689463046394616F0DBFD27A337
:10047000D3E9002316F022FC32463B4616F0D2FDAB
:1004800024A3D3E9002316F01BFC32463B4616F0AA
:10049000C9FD22A3D3E9002316F010FC32463B46E7
:1004A00016F0C0FD00220A4B16F00AFC02460B466D
:1004B0004046494616F0E0FE22462B4616F0B2FDB5
:1004C00022462B4616F0FCFB04B0BDE8F08700BFC7
:1004D0000000F03F09F7FD0DE13D023F88B20175D4
:1004E000E0EF493F3B8F68B52882A43F5544880E12
:1004F00055C1C93F7D6FEB0312D6D43F55555555B5
:100500005555C53F82922EB1C5B8B33F59018D1BD9
:100510006C06E63FC88A599CE52A00404B2D8A1C90
:10052000273A0340000000002DE9F84F1D465342D2
:10053000134325F0004ADFF8E0E14AEAD37373453C
:10054000144606460F4647D8C0F1000848EA00089E
:1005500021F0004343EAD878F0458B463CD805F1BA
:10056000404808F5801858EA020850D04FEAA578AC
:1005700008F0020848EAD17850EA030134D052EA80
:100580000A023CD0F24557D0734538D0A3EB0A039A
:100590001B153C2B42DC002D70DB22462B463046DF
:1005A000394616F069FE17F0B5FAFEF751FBB8F1BF
:1005B000010F5FD0B8F1020F4ED0B8F1000F62D03A
:1005C00043A3D3E9002316F079FB43A3D3E9002327
:1005D00016F074FBBDE8F88F32463B4620462946AC
:1005E00016F06EFBBDE8F88FB8F1020F1AD0B8F123
:1005F000030F10D13AA1D1E90001BDE8F88FBBF19A
:10060000000F14DB38A1D1E90001BDE8F88FBDE887
:10061000F84FFEF71DBB3946BDE8F88F32A1D1E98E
:100620000001C4E72CA1D1E90001BDE8F88F30A199
:10063000D1E90001BDE8F88F534526D0B8F1020F8B
:10064000F0D0B8F1030FD5D0B8F1010F4FF0000092
:1006500029D00021BDE8F88F1DA3D3E9002316F0AF
:100660002DFB02460B461CA1D1E9000116F026FB2A
:10067000BDE8F88F01F10041BDE8F88F3C338CDA1A
:100680000020002193E7BDE8F88FB8F1020F18D0E1
:10069000B8F1030F10D0B8F1010F08D016A1D1E9BD
:1006A0000001BDE8F88F4FF00041BDE8F88F14A1BC
:1006B000D1E90001BDE8F88F13A1D1E90001BDE83F
:1006C000F88F13A1D1E90001BDE8F88FAFF30080E6
:1006D000075C143326A6A13C182D4454FB21094085
:1006E000182D4454FB2109C0182D4454FB21F93F17
:1006F000182D4454FB21F9BF182D4454FB21E93F28
:10070000182D4454FB21E9BFD221337F7CD902C08C
:10071000D221337F7CD902400000F07F000000002E
:1007200043422DE9F047034321F000463E4A46EAA2
:10073000D373934204460D4613D896423DD03B4BAB
:100740009E428A4617DC36A3D3E9002316F0B8FA96
:100750000022002316F0F6FEA8B320462946BDE885
:10076000F08702460B4616F0A9FA02460B4616F031
:1007700083FDBDE8F0872E4B9E42354624DD33468F
:100780000246314616F09CFA224606460F462B4694
:100790000020254916F092FA02460B4630463946AB
:1007A00016F06AFDFEF708FD0022224B16F03AFC17
:1007B000BAF1000F2FDBBDE8F0870022002316F00E
:1007C0005BFDBDE8F087354622462B46204629468C
:1007D00016F076FA22462B4606460F4616F022FC05
:1007E0002246804689462B4600200F4916F066FABD
:1007F00002460B464046494616F03EFD32463B4611
:1008000016F05EFAFEF7D8FC00220A4B16F00AFC3E
:10081000BAF1000FCFDA01F100431946BDE8F087C5
:100820009C7500883CE4377E0000F03FFFFF2F3EC0
:10083000FFFFDF3F0000E03F2DE9F8434E4B21F082
:1008400000449C4206460F461BDC4C4B9C4222DD7A
:100850004B4B9C4263DD4B4B9C427BDD4A4B9C42A5
:1008600046DD01339C4240D041A3D3E9002310462A
:10087000194616F0D7FB06460F4630463946BDE806
:10088000F88302460B4616F0CDFB06460F4630466F
:100890003946BDE8F88317F03DF902F0B1FC0022BB
:1008A0003A4B8046894616F00BFAB4F1725F064661
:1008B0000F46ECDB42464B464046494616F0B2FB3B
:1008C00032463B4604460D463046394616F0F8F9A6
:1008D00002460B462046294616F0CEFC00222B4B42
:1008E00016F0EEF906460F46D1E7294B9842BBD8E1
:1008F0003046394617F00EF90022264B16F092FBCF
:1009000000F04AF8002204460D46224B16F08AFBFE
:1009100022462B4616F086FB06460F46B7E717F031
:10092000F9F800F039F800221A4B06460F4616F087
:1009300079FB32463B4604460D460020154916F029
:100940009BFC02460B462046294616F0B9F906469E
:100950000F469CE717F0DEF800F01EF800220D4B62
:1009600016F060FB06460F4691E700BFAFF300802C
:100970009C7500883CE4377EFFFFEF7F422ED63F18
:10098000FFFF3540412E8640CD3386400000F03FCA
:100990007DF8B98F0000E03F2DE9F04FB04E21F017
:1009A0000042B24283B004460D464FEAD1770DD9DA
:1009B000AC4EB24225D9C1F31303034340F0EC809F
:1009C0000FB10020002103B0BDE8F08FA64B9A4282
:1009D00000F2CB80A54B9A4200F2DC808AA3D3E9D7
:1009E000002316F06DF90022A14B16F0ABFD002894
:1009F00000F006812046294600229D4B16F060F942
:100A0000E1E783A3D3E9002316F09CFD002840F022
:100A1000C88081A3D3E900232046294616F074FD3F
:100A20000028CED1934E7EA3D3E9002306EBC70660
:100A30002046294616F0F6FAD6E9002316F040F9CA
:100A400016F0A0FD064616F087FA77A3D3E9002337
:100A50008046894616F0E6FA02460B4620462946AD
:100A600016F02CF972A3D3E90023CDE9000140462A
:100A7000494616F0D7FA82468B4652465B46DDE978
:100A8000000116F01BF904460D4622462B4620466F
:100A9000294616F0C7FA68A3D3E9002380468946A1
:100AA00016F0C0FA66A3D3E9002316F007F9424610
:100AB0004B4616F0B7FA64A3D3E9002316F000F909
:100AC00042464B4616F0AEFA61A3D3E9002316F076
:100AD000F5F842464B4616F0A5FA5FA3D3E900238A
:100AE00016F0EEF842464B4616F09CFA02460B46CC
:100AF0002046294616F0E2F880468946002E58D056
:100B00002046294642464B4616F08CFA4246044699
:100B10000D464B4600204FF0804116F0CFF80246BC
:100B20000B462046294616F0A7FB02460B465046C8
:100B3000594616F0C3F8DDE9002316F0BFF80B465E
:100B400002464B49002016F0B9F86FF47F739E42BD
:100B500051DA06F57A7601EB065100224FF0B873B0
:100B600016F060FA03B0BDE8F08F434B9A423FF6AF
:100B700059AF424BFC002344D3E9002316F09EF802
:100B80003F4BC7F101062344CDE90001D3E900AB97
:100B9000F61B72E7002678E702460B4616F090F83F
:100BA00011E719A3D3E900231046194616F03AFAC3
:100BB00009E702460B462046294616F033FA002282
:100BC00006460F464FF080434046494616F076F8F9
:100BD00002460B463046394616F04EFB22462B465F
:100BE00016F06CF802460B460020214916F066F814
:100BF00003B0BDE8F08F01EB065103B0BDE8F08F04
:100C0000064642E7AFF300809C7500883CE4377EDF
:100C1000EF39FAFE422E864051302DD5104987C05B
:100C2000FE822B654715F73F0000E0FE422EE63FAF
:100C3000763C7935EF39EA3DD0A4BE726937663E1D
:100C4000F16BD2C541BDBB3E2CDE25AF6A56113FCC
:100C500093BDBE166CC1663F3E5555555555C53FB3
:100C6000412E8640FFFFEF7F422ED63FFFFF2F3EF3
:100C70000000F03FC8A70208B1A2F03FD8A70208C1
:100C8000E8A70208000000002DE9F04FB1F5801F31
:100C900085B006460F460B465ADA024621F000445C
:100CA000224300F0F8800029C0F27A810022D64B5E
:100CB00016F0B8F9D54A0B46934206460F466FF038
:100CC000350C4ADCC3F3130505F5152E0EF6647ECC
:100CD0000EF4801E8EF07F5282F440121C1542EA00
:100CE0000507A4F2FF3464440022C94B304639465C
:100CF00004EB1E5415F0E2FFAB1CC3F31303022BED
:100D000082468B464FF0000230DC002316F0F2FBE7
:100D1000002800F0C980002C00F04B81204616F01E
:100D20001BF9A5A3D3E9002306460F4616F07AF96E
:100D3000A3A3D3E9002304460D463046394616F0F6
:100D400071F902460B462046294615F0B9FF0AE024
:100D5000AE4A93424FF0000CB4DD32463B4630467B
:100D6000394615F0ADFF05B0BDE8F08F4FF0804378
:100D700015F0A6FF02460B465046594616F07CFA7F
:100D8000064620460F4616F0E7F83246CDE9000148
:100D90003B4630463946CDE9026716F043F9024634
:100DA0000B468046894616F03DF987A3D3E9002318
:100DB00006460F4616F036F985A3D3E9002315F051
:100DC0007FFF32463B4616F02DF983A3D3E900237B
:100DD00015F076FF32463B4616F024F980A3D3E99E
:100DE000002315F06DFF42464B4616F01BF97EA31B
:100DF000D3E90023804689463046394616F012F979
:100E00007BA3D3E9002315F05BFF32463B4616F087
:100E100009F979A3D3E9002315F052FF32463B4686
:100E200016F000F90B4602464946404615F048FFC9
:100E3000A5F5C223C5F5D725A3F27A4351351D4345
:100E4000002D8046894656DD0022724B5046594699
:100E500016F0E8F852465B4616F0E4F806460F46F0
:100E6000002C68D132463B464046494615F028FFE3
:100E7000DDE9022316F0D6F802460B463046394625
:100E800015F01CFF02460B465046594615F016FF5A
:100E900005B0BDE8F08F0022002300205E4916F067
:100EA000EBF905B0BDE8F08F55A3D3E90023504618
:100EB000594616F0B7F802460B460020554915F082
:100EC000FDFE524606460F465B465046594616F012
:100ED000A9F802460B463046394616F0A3F80646F6
:100EE0000F46002C40F09A8002460B465046594669
:100EF00015F0E4FE37E7002C00F0A4802EA3D3E920
:100F00000023DDE9000116F08DF842464B46044609
:100F10000D465046594615F0D1FEDDE9022316F084
:100F200081F827A3D3E9002306460F46DDE9000137
:100F300016F078F821E020A3D3E90023DDE90001D1
:100F400016F070F832463B4604460D464046494688
:100F500015F0B6FEDDE9022316F064F818A3D3E914
:100F6000002380468946DDE9000116F05BF8024661
:100F70000B464046494615F0A3FE02460B46304656
:100F8000394615F09BFE52465B4615F097FE024629
:100F90000B462046294615F091FE05B0BDE8F08FBE
:100FA00002460B4615F08AFE0022002316F064F973
:100FB000D9E600200021D6E60000E0FE422EE63F02
:100FC000763C7935EF39EA3D44523EDF12F1C23FBB
:100FD000DE03CB966446C73F599322942449D23FFF
:100FE000935555555555E53F9FC678D0099AC33F4F
:100FF000AF788E1DC571CC3F04FA97999999D93F66
:10100000555555555555D53F00005043FFFFEF7FCF
:101010000000F03F0000E03F000050C3204615F004
:101020009BFF0FA3D3E900238046894615F0FAFF02
:101030000DA3D3E9002304460D464046494615F06A
:10104000F1FF9AE702460B465046594615F036FE28
:10105000DDE9022315F0E6FF14E700BFAFF30080DF
:101060000000E0FE422EE63F763C7935EF39EA3D5E
:10107000B1F5801F2DE9F84304460D460B461ADAF8
:10108000024621F00046324359D000295FDB00229E
:101090003B4B15F0C7FF3B4A0D462B469342044697
:1010A0006FF035010CDD22462B462046294615F00F
:1010B00007FEBDE8F883334A93424FF00001F2DCAB
:1010C0001815A0F2FF3008444FEAD0794844C3F322
:1010D000130815F041FFC9F57F73033348EA035540
:1010E00006460F4620462946FFF7CEFD1EA3D3E94C
:1010F0000023804689463046394615F093FF1CA3ED
:10110000D3E9002304460D464046494615F08AFFC0
:1011100002460B462046294615F0D2FD16A3D3E918
:10112000002304460D463046394615F07BFF024643
:101130000B462046294615F0C3FDBDE8F883002282
:1011400000230020104916F097F8BDE8F883024606
:101150000B4615F0B3FD0022002316F08DF8BDE814
:10116000F88300BFAFF30080362BF111F3FE593D39
:101170000EE526157BCBDB3F00609F501344D33F29
:1011800000005043FFFFEF7F000050C3000000004D
:101190002DE9F04F23F0004757EA020493B037D00F
:1011A000674C21F00046A64283460D4629DC9A464C
:1011B000964625D0A74224DC614CA74279D0002D69
:1011C00080468946CDE9002377DB0024BEF1000F7D
:1011D0002CD15B4B9F4200F08B805A4B9F4261D0D9
:1011E000BAF1804F00F0C383574B9A451ED1002DB2
:1011F0001CDB4046494613B0BDE8F04F17F04EBB2C
:1012000058B106F1404606F5801656EA0B0306D1A2
:101210004C49002013B0BDE8F08FB742CCDD4B48FD
:1012200013B0BDE8F04F18F0C9B900244046494654
:1012300016F070FCBBF1000F19D126B1414B25F01F
:1012400040429A4213D1BAF1000FC0F2CA83002D76
:10125000E0DA06F1404606F5801656EA040300F08F
:10126000A584012CD6D101F100431946D2E7ED0F38
:10127000013D54EA05034ED0354B9F426EDD03F12C
:1012800004739F4240F3FE83324B9E424EDDBAF11F
:10129000000F4EDD28A3D3E900231046194615F0B0
:1012A000C1FEB7E7BAF1000FC0F25284404649468A
:1012B000B0E7BEF1000F82D0A3E7274B9F4228DCA6
:1012C000A3F154739F4280DD3B15A3F2FF33142B2F
:1012D00040F35484C3F134032EFA03F202FA03F309
:1012E0009E457FF472AF02F00102C2F102046DE785
:1012F00006F1404303F5801353EA0B0388D0154BE6
:101300009E4240F33B83BAF1000F12DBDDE900019E
:1013100080E702245AE742464B461046194615F02C
:10132000CDFC02460B4615F0A7FF73E7BAF1000F9C
:10133000B0DB002000216DE79C7500883CE4377E1F
:101340000000F07F0000F03F0000E03F38BB0208E3
:101350000000E041FFFFEF3FFFFF3F43B6F5801F76
:101360004FF0000205DAD84B15F05CFE6FF0340246
:101370000E463315D54FC6F31306A3F2FF331344BD
:1013800046F07F5ABE421A460D934AF4401A40F383
:101390002F83CF4B9E4240F30D849FEDB57B8DEDA7
:1013A000087B8DED0E7B9FEDB47B13468DED067BA8
:1013B00001330D93AAF5801A0027DDE90623514673
:1013C000CDE90A0115F07AFCDDE90623804689465D
:1013D000DDE90A0115F074FC02460B460020BD4908
:1013E00015F04AFF0A460146CDE910121346494658
:1013F0000246404615F016FE4FEA6A0343F00053DA
:101400008C46834603F50023CDE904BCDA468B46BF
:10141000D9190023CDE902AB0293DDE902AB00202C
:1014200006460F4602460B465046594615F0FAFD51
:1014300002460B464046494615F040FCDDE90623CE
:10144000804689463046394615F038FC02460B4640
:10145000DDE90A0115F032FC52465B4615F0E2FD6B
:1014600002460B464046494615F028FCDDE91023AC
:1014700015F0D8FDDDE90467CDE9060132463B46AB
:101480003046394615F0CEFD7DA3D3E9002306464C
:101490000F4615F0C7FD7CA3D3E9002315F010FC1F
:1014A00032463B4615F0BEFD79A3D3E9002315F083
:1014B00007FC32463B4615F0B5FD77A3D3E9002380
:1014C00015F0FEFB32463B4615F0ACFD74A3D3E9A4
:1014D000002315F0F5FB32463B4615F0A3FD72A341
:1014E000D3E9002315F0ECFB3246804689463B46A3
:1014F0003046394615F096FD02460B4640464946B1
:1015000015F090FD524606460F465B46DDE90401A4
:1015100015F0D6FBDDE9062315F084FD32463B4687
:1015200015F0CEFB5246804689465B4650465946EA
:1015300015F078FD0022684BCDE90A0115F0C0FBDB
:1015400042464B4615F0BCFB02980F460646324613
:101550003B465046594615F065FD002282468B46B3
:101560005D4B3046394615F0A9FBDDE90A2315F03D
:10157000A5FB02460B464046494615F09FFBDDE9B8
:10158000042315F04FFD3246804689463B46DDE98F
:10159000060115F047FD02460B464046494615F048
:1015A0008FFB8046894602460B4650465946CDE998
:1015B00004AB15F085FBDDE902AB3DA3D3E90023C5
:1015C00050460F4615F02EFDDDE90423CDE902015A
:1015D0003946504615F072FB02460B4640464946D6
:1015E00015F06CFB34A3D3E9002315F01BFD34A3E5
:1015F000D3E90023804689465046394615F012FD4E
:1016000002460B464046494615F05AFBDDE90E23DB
:1016100015F056FB80460D98894615F09DFC424614
:1016200006460F464B46DDE9020115F049FBDDE9B0
:10163000082315F045FB32463B4615F041FB324688
:101640003B4650468B4615F039FBDDE9082315F083
:1016500035FBDDE9022315F031FB02460B4640461F
:10166000494615F02BFB8046894637E0AFF30080F2
:101670000000000000000000000000000000F03F3B
:10168000EF4E454A287ECA3F65DBC9934A86CD3F67
:1016900001411DA96074D13F4D268F515555D53F4D
:1016A000FFAB6FDBB66DDB3F033333333333E33FE5
:1016B000000000E009C7EE3FFD033ADC09C7EE3F3A
:1016C000F5015B14E02F3EBE000040438E980300FE
:1016D00079B60B000000F03F00000840013C54EADE
:1016E000050300F079819FEDC87B8DED047BDDE97A
:1016F00000120B461446CDE9023400230293DDE9C3
:10170000024508462B461146224615F0D7FA5246A6
:101710005B4615F087FCDDE9002306460F46404690
:10172000494615F07FFC02460B463046394615F017
:10173000C7FA2246804689462B4650465946CDE98F
:10174000008915F06FFC0B46024606460F464046E0
:10175000494615F0B5FAC64B994204460D468A46ED
:1017600040F3168101F13F4303F5E003034340F0EA
:10177000F781A7A3D3E90023DDE9000115F0A0FA62
:101780003246804689463B462046294615F096FA61
:1017900002460B464046494615F0D4FE002840F06C
:1017A000DF81A8464FEA28534FF48012A3F2FE339C
:1017B00042FA03F35344C3F30A52AE4DA2F2FF328E
:1017C0001541C3F3130423EA05010020C2F1140BF1
:1017D00044F48014BAF1000F02460B4644FA0BFBA6
:1017E00030463946B8BFCBF1000B15F067FA024618
:1017F0000B4606460F46DDE9000115F061FA4FEA97
:101800000B5A0D46002484A3D3E900232046294621
:1018100015F008FC3246804689463B46204629465C
:1018200015F04CFA02460B46DDE9000115F046FAC8
:101830007BA3D3E9002315F0F5FB7BA3D3E90023B9
:1018400006460F462046294615F0ECFB02460B469D
:101850003046394615F034FA06460F4602460B4626
:101860004046494615F02CFA42464B4604460D4682
:1018700015F024FA02460B463046394615F01EFA9A
:101880002246804689462B462046294615F0CAFB4B
:1018900067A3D3E9002306460F4615F0C3FB66A3F2
:1018A000D3E9002315F00AFA32463B4615F0BAFB9D
:1018B00063A3D3E9002315F003FA32463B4615F043
:1018C000B1FB61A3D3E9002315F0F8F932463B469A
:1018D00015F0A8FB5EA3D3E9002315F0F1F9324619
:1018E0003B4615F09FFB02460B462046294615F065
:1018F000E5F906460F4602460B462046294615F0F6
:1019000091FB0022CDE900014FF08043304639467B
:1019100015F0D4F902460B46DDE9000115F0ACFCE8
:10192000424606460F464B462046294615F07AFBAE
:1019300042464B4615F0C4F902460B46304639463E
:1019400015F0BCF922462B4615F0B8F902460B46B5
:101950000020494915F0B2F98A44BAF5801FC0F257
:1019600039815146DDE9042315F05CFB52E442461F
:101970004B464046494615F055FB4BE4BAF1000F83
:10198000BFF6D7ACDDE90034184604F1004141E46C
:101990003A4B21F00048984540F3FF80384B0B4408
:1019A00003430CD132463B4615F088F902460B46FC
:1019B000DDE9000115F0B2FD00283FF4F3AEDDE9EA
:1019C000040125A3D3E9002315F02CFB22A3D3E9BE
:1019D000002315F027FB1DE49FED217B8DED047B9B
:1019E00085E602460B460020234915F045FC2EE40F
:1019F0009FED1D7B8DED087B8DED0E7B9FED027BBA
:101A000000278DED067BD8E4000000000000F03FC9
:101A1000FE822B654715973C00000000432EE63FF1
:101A2000EF39FAFE422EE63F396CA80C615C20BE0D
:101A3000D0A4BE726937663EF16BD2C541BDBB3ED4
:101A40002CDE25AF6A56113F93BDBE166CC1663FB2
:101A50003E5555555555C53F59F3F8C21F6EA50162
:101A6000000000000000F0BF0000000000000000C7
:101A7000FFFF8F40FFFF0F000000F03FFFCB9040C3
:101A800000346F3F684B9E427FF750AC674B9E42DD
:101A90003FF7FDAB0022654B15F010F952A3D3E9D7
:101AA000002306460F4615F0BDFA51A3D3E90023E3
:101AB000804689463046394615F0B4FA00228246FF
:101AC0008B465B4B3046394615F0ACFA02460B4666
:101AD00049A1D1E9000115F0F1F832463B4615F075
:101AE000A1FA02460B460020524915F0E7F83246AB
:101AF000CDE902013B463046394615F093FA0246DD
:101B00000B46DDE9020115F08DFA3DA3D3E9002370
:101B100015F088FA02460B465046594615F0CEF8A5
:101B200002460B4606460F464046494615F0C8F8A1
:101B300042464B46002082468B4615F0BFF80246CF
:101B40000B463046394615F0B9F880468946C5E55A
:101B500042464B460020354915F08EFBFFF75ABB35
:101B6000DDE9040128A3D3E9002315F05BFA26A3DD
:101B7000D3E9002315F056FAFFF74CBBBEF1000F76
:101B80007FF453ABC3F1140347FA03F202FA03F3F1
:101B90009F4223D07446FFF720BB264B98453FF762
:101BA00001AEDDE90223924693462BE602460B4640
:101BB000FFF7B3BB9FED167B8DED087B9FED167B8A
:101BC0008DED0E7B9FED167B4FF480278DED067B10
:101BD000FFF7F3BB5A4601F04FFDC3E602F00102E6
:101BE000C2F10204FFF7F9BA000000604715F73FA1
:101BF00044DF5DF80BAE543E555555555555D53F10
:101C0000FE822B654715F73F9C7500883CE4377EC4
:101C10000000004003B8E23F06D0CF43EBFD4C3E4E
:101C2000000000000000F83FFEFFEF3F0000F03F23
:101C30000000D03F0000E03F2DE9F0479C4B21F031
:101C400000479F4290B08046894640F38E80994B72
:101C50009F420C46924626DC00298BA3D3E9002341
:101C600040F3B08115F02AF8934B9F4204460D468D
:101C700000F0908086A3D3E9002315F01FF80246F8
:101C80000B46CAE900232046294615F017F880A321
:101C9000D3E9002315F012F80125CAE9020128460C
:101CA00010B0BDE8F087854B9F4240F39080844B95
:101CB0009F4265DC3D15A5F21645A7EB0553194675
:101CC0001F46064615F05EFC15F046F9804689462B
:101CD00042464B4630463946CDE90A8914F0EEFFBC
:101CE0000022784B15F09EF98946804615F04AFC93
:101CF00015F032F906460F4632463B464046494605
:101D0000CDE90C6714F0DAFF00226E4B15F08AF96A
:101D100000220023CDE90E0115F0ECFB002800F0B5
:101D20006F81002330463946002215F0E3FB00287E
:101D300014BF01230223644A019202212A46009122
:101D40000AA8514600F08CFB002C054614DADAF89C
:101D50000420DAF80C3002F1004203F1004345425E
:101D6000CAF80420CAF80C3006E000200021C2E9BD
:101D70000089C2E902010025284610B0BDE8F087BD
:101D800002460B4614F09AFF0025CAE90201CAE98F
:101D90000001F1E740A3D3E9002314F08FFF40A333
:101DA000D3E900230D46044614F088FF02460B4693
:101DB000CAE900232946204614F080FF38A3D3E95E
:101DC000002314F07BFF0125CAE90201D4E715F0D6
:101DD000A1FE35A3D3E900238046894615F022F9F8
:101DE00000223A4B14F06CFF15F0CCFB054615F0C1
:101DF000B3F825A3D3E90023CDE9060115F012F9C4
:101E000002460B464046494614F058FF20A3D3E94A
:101E10000023CDE90201DDE9060115F003F91F2DCC
:101E200080468946CDE9048954DC294B6A1E53F863
:101E300022309F424ED002460B46DDE9020114F0EB
:101E40003DFF80468946CAE9008942464B46DDE9A6
:101E5000020114F033FFDDE9042314F02FFF002CFE
:101E6000CAE9020188DA09F1004401F100436D4238
:101E7000CAF80080CAF80440CAF80800CAF80C3052
:101E80007AE700BFAFF3008000004054FB21F93F28
:101E90003163621A61B4D03D0000601A61B4D03D74
:101EA0007370032E8A19A33B83C8C96D305FE43F6A
:101EB000FB21E93F7BD90240FB21F93FFB2139415E
:101EC000FFFFEF7F0000704190BD02080000E03F7F
:101ED00010BD0208DDE90423DDE9020114F0EEFE85
:101EE0003F15C1F30A53FB1A80468946102BCAE9F5
:101EF0000089AADD58A3D3E90023DDE9060115F026
:101F000091F88046894602460B46DDE9020114F04D
:101F1000D5FE02460B46DDE90201CDE9082314F0A7
:101F2000CDFE42464B4614F0C9FE4DA3D3E9002333
:101F300080468946DDE9060115F074F842464B46B5
:101F400014F0BCFE0B46CDE904010246DDE90801B0
:101F500014F0B4FEC1F30A53FF1A80468946312FAC
:101F6000CAE900896CDD41A3D3E90023DDE906015C
:101F700015F058F8DDE9088906460F4602460B467B
:101F80004046494614F09AFE02460B4640464946F2
:101F9000CDE9022314F092FE32463B4614F08EFE49
:101FA00034A3D3E9002306460F46DDE9060115F008
:101FB00039F832463B4614F081FE02460B46CDE925
:101FC00004233AE714F07CFE274B9F4204460D465B
:101FD00018D01FA3D3E9002314F072FE02460B466B
:101FE000CAE900232946204614F068FE18A3D3E965
:101FF000002314F065FE4FF0FF35CAE90201BBE68D
:10200000032398E614A3D3E9002314F059FE14A384
:10201000D3E900230D46044614F052FE02460B4657
:10202000CAE900232946204614F048FE0CA3D3E950
:10203000002314F045FE4FF0FF35CAE902019BE68C
:102040009DED087B8DED027BFFE600BFAFF30080C6
:102050003163621A61B4D03D0000601A61B4D03DB2
:102060007370032E8A19A33BFB21F93F0000002E59
:102070008A19A33BC14920259A837B3900000000BF
:10208000594A2DE9F84F21F00048904506460F4681
:102090002BDC564B0029B4BF554D564D98454FF09B
:1020A000000410DC544B984570DC4DA3D3E90023A9
:1020B00014F006FE0022514B15F044FAD8B1304618
:1020C0003946BDE8F88F4E4B98457CDD4D4B984521
:1020D00044DD013398453ED03046394640A3D3E92C
:1020E000002314F09FFFBDE8F88F02460B4614F062
:1020F000E7FDBDE8F88F3046394615F00BFD01F0DD
:102100007FF806460F4632463B463046394614F0C5
:10211000D7FD324682468B463B463046394614F060
:1021200081FF002280468946344B3046394614F000
:10213000C7FD02460B464046494615F09DF802464B
:102140000B465046594614F0B9FD22462B4614F072
:1021500069FFBDE8F88F2C4B9842BDD83046394610
:1021600015F0D8FC0022234B14F05CFFFEF714FCA2
:1021700006460F4602460B462046294614F052FFFB
:1021800032463B4614F04EFFBDE8F88F15F0C2FC16
:1021900001F036F81D4B984506460F46B3DD002288
:1021A000164B14F08DFD02460B463046394615F0AD
:1021B00063F832463B4614F083FD22462B4614F06A
:1021C00031FFBDE8F88F15F0A5FCFEF7E5FB0246F0
:1021D0000B462046294614F025FFBDE8F88F00BFC6
:1021E0003374AC3C1F7BAC7FFFFFEF7FFFFF3540BC
:1021F0000000E0BF0000E03FFFFF2F3E0000F03F87
:10220000412E8640CD3386407DF8B98FFFFFEF3FEA
:102210002DE9F04F21F00048B8F1795F85B006460E
:102220000F4692469B466BDA15F0ACF9002800F099
:10223000EA8032463B463046394614F0F3FE74A33A
:10224000D3E9002304460D4614F0ECFE72A3D3E953
:10225000002314F035FD22462B4614F0E3FE70A354
:10226000D3E9002314F02AFD22462B4614F0DAFEAF
:102270006DA3D3E9002314F023FD22462B4614F06E
:10228000D1FE6BA3D3E9002314F018FD22462B46A0
:1022900014F0C8FE68A3D3E9002314F011FD224610
:1022A0002B4614F0BFFECDE900010022664B20460C
:1022B000294614F0B7FEDDE9002380468946204612
:1022C000294614F0AFFE524604460D465B463046A2
:1022D000394614F0A7FE02460B462046294614F064
:1022E000EDFC02460B464046494614F0E7FC024628
:1022F0000B460020554914F0E1FC05B0BDE8F08F15
:1023000002460B4614F08EFE41A3D3E90023044697
:102310000D4614F087FE40A3D3E9002314F0D0FC4F
:1023200022462B4614F07EFE3DA3D3E9002314F091
:10233000C5FC22462B4614F075FE3BA3D3E90023CF
:1023400014F0BEFC22462B4614F06CFE38A3D3E9F1
:10235000002314F0B3FC22462B4614F063FE36A390
:10236000D3E9002314F0ACFC2B46224614F05AFEAD
:10237000374B9845CDE9000197DD364B984539DC60
:10238000A8F500130022002030499046994614F029
:1023900095FCCDE9020100222B4B2046294614F082
:1023A00041FE42464B4614F089FCDDE9002380469D
:1023B00089462046294614F035FE524604460D460D
:1023C0005B463046394614F02DFE02460B46204649
:1023D000294614F073FC02460B464046494614F069
:1023E0006DFC02460B46DDE9020114F067FC05B006
:1023F000BDE8F08F9FED127B4FF000088DED027B62
:10240000DFF85490C7E71149002005B0BDE8F08F10
:10241000D43888BEE9FAA8BDC4B1B4BD9EEE213E51
:10242000AD529C804F7E923E9015CB19A001FA3E92
:102430007751C1166CC1563F4C5555555555A53F62
:10244000000000000000E73F0000E03F0000F03F18
:102450003233D33F0000E93F0000D23F00000000CC
:102460002DE9F04FADF51B7D9F4CA49E9F4D54F878
:10247000264007942646D41E85FB0475E417C4EB5A
:10248000A50424EAE4741D460A93631CA3EB8303AA
:10249000013D02EBC30306932B460B940395651B8A
:1024A000F418049008911AD42C4400260027013413
:1024B0000DF18808DDF8949208E059F8250014F031
:1024C0004BFD0135A542E8E8020108D0002DF4DA01
:1024D000013530463946A542E8E80201F6D1079BAE
:1024E000002BC0F2DF83079B03F1010B0A9B22A99B
:1024F000DB001A4601EB03090093049B0DF5E47A17
:1025000019460AEBCB0B01EB0208039B002BC0F230
:10251000F582049C4D460026002775E90223F4E865
:10252000020114F07FFD02460B463046394614F096
:10253000C7FB444506460F46EFD1EAE80267DA4595
:1025400009F10809E1D107990098049C009101F173
:102550008043013B9B0020441A1F83460EA802447F
:1025600003440C920D93009A9AA901EBC203002A2E
:1025700053E9284529DD0DF5E47A0AEBC2080DF18F
:10258000340900225A4B2046294614F04BFD14F022
:10259000F9FF14F0E1FC0022564B06460F4614F0FA
:1025A00041FD02460B462046294614F087FB14F0F5
:1025B000E9FF78E9022349F8040F3946304614F060
:1025C0007FFBD04504460D46DBD1DDF81890204650
:1025D00029464A4601F050F800224FF07F53044646
:1025E0000D4614F01FFDFCF75FFD0022424B14F076
:1025F00019FD02460B462046294614F05FFB0D46A6
:10260000044614F0BFFF804614F0A6FC0B460246B9
:102610002946204614F052FB4B46002B06460F4637
:1026200040F3F980009A0EA9013AC9F1180351F854
:10263000225045FA03F101FA03F30EA8EB1A40F811
:102640002230C9F11705884443FA05F5002D6DDDE8
:10265000009B002B08F1010840F36F820E9C002CB8
:1026600040F01683009B012B40F38F820EAA0123BA
:1026700052F8044F002C00F08382581C0EAAC4F1BB
:10268000807442F82340009A824219DD0EAA0EACF3
:1026900052F820106FF07F42511A44F82010009930
:1026A000023399420CDD1046009A0EA901EB830318
:1026B00001EB82011A68821A43F8042B8B42F9D18C
:1026C000069B002B1ADD069B012B4FF0010440F006
:1026D0003C82009B5A1E0EAB0EA953F82230C3F366
:1026E000160341F822303CE230C20208ABAAAA2A03
:1026F0000000703E0000704100002040022D15D106
:1027000032463B460020924914F0D8FA06460F465E
:10271000069A8F49002000F0AFFF02460B46304674
:10272000394614F0CBFA022506460F460022002354
:102730003046394614F0DEFE002800F03782009A59
:10274000079B501E83420FDC02F18043013B0EAA1F
:102750000D9C02EB8303002253F80419A34242EAC2
:102760000102F9D1002A67D1079B0EAA013B52F85A
:102770002330002B40F018820C9A012352F80419E0
:1027800001330029FAD0009AD31802F1010A9A45C0
:1027900009933DDC009B0A990B9A0B4409990AEBBB
:1027A0000208994622AB08F1804803EBC9098B184F
:1027B000A59A08F1FF3802EB880872AA02EBCA0A50
:1027C000A59A02EB8303009358F8040F14F0C4FB9E
:1027D000039B002BE9E802014FF000064FF00007D1
:1027E00011DB049C4D4675E90223F4E8020114F064
:1027F00019FC02460B463046394614F061FA5C4536
:1028000006460F46EFD1009B9845EAE80267DBD108
:10281000099B0093A7E606D1009B0EAA013B52F844
:102820002350ED1512E700224A4B14F081FE0028D8
:1028300040F06E81054679E70EA9039551F82030E6
:102840000699CDF8248018390246009006916BB99C
:1028500000F18043013B0EA800EB830353F8040909
:10286000013A18390028F9D000920691069A3849A1
:10287000002000F001FF009B002B04460D46C0F233
:10288000F781DA0072A901EB020B06920EAA02EBA5
:102890008306DFF8C4904FF000080BF108070436F8
:1028A00056F8040D14F058FB22462B4614F0BAFBE0
:1028B0004B4667E9020142462046294614F0B2FB26
:1028C0000EAB9E4204460D46EAD14AACDDF81C90A0
:1028D00004944FF0000AB9F1000FC0F22B81DFF829
:1028E0007C805D4618A1D1E9000100260027002464
:1028F00003E0544510DCF8E80201F5E8022314F087
:1029000091FB02460B463046394614F0D9F90134A2
:10291000A14506460F46ECDA049B03EBCA03ABF174
:10292000080BC3E9006770AB9B450AF1010AD2D1DD
:10293000A49B049C032B00F28980DFE803F0C58E82
:102940008E1100BFAFF3008000000040FB21F93F73
:102950000000F03F0000E03F0000703E10A80208B9
:10296000009B002B40F38181069A04EB020ADAE90E
:10297000008902F1080525440DF5987B1AED027BCC
:1029800042464B4651EC170B8DED047B14F098F941
:1029900006460F4602460B46DDE9040114F08EF9A7
:1029A00042464B4614F08CF965E902015D45B0469C
:1029B000B9466AE90267E1D1009B012B40F35581DA
:1029C000069BE518D5E9008903F1080B04EB0B0A17
:1029D00015ED027B42464B4651EC170B8DED007B0B
:1029E00014F06EF906460F4602460B46DDE900017B
:1029F00014F064F94B46424614F062F96AE90201A8
:102A00004EAB5345B046B94665E90267E0D10020B8
:102A1000002104EB0B0575E9022314F051F9AA45D6
:102A2000F9D1039B002B00F00A816268E368089FDC
:102A30002568A4683D6002F1004203F1004301F102
:102A400000417A60FB60BC6038617961099B03F0EA
:102A500007000DF51B7DBDE8F08F069D0835254468
:102A60000020002175E9022314F02AF9A542F9D1CA
:102A7000039B002B00F0D280089E024601F1004328
:102A800086E80C000B460246D4E9000114F016F962
:102A9000009B002B0BDD4CAD0124F5E8022314F064
:102AA0000FF9009B0134A342F7DA039B13B101F144
:102AB00000431946089BC3E90201099B03F0070084
:102AC0000DF51B7DBDE8F08F069D08350020002127
:102AD000254475E9022314F0F3F8AC42F9D1039BC5
:102AE00013B101F100431946089BC3E90001099B9A
:102AF00003F007000DF51B7DBDE8F08F00260027D1
:102B0000EAE80267DA4509F108097FF4FEAC1AE544
:102B1000009B002B08F10108C8BF02253FF79EADBE
:102B200032463B460020614914F0C8F802250646AB
:102B30000F46FBE500260027EEE6069B002B27DD6F
:102B40000024069B012B3FF4C4AD022B09D1009B4E
:102B50005A1E0EAB0EA953F82230C3F3150341F8E9
:102B60002230022D7FF4E2AD32463B4600204F4931
:102B700014F0A4F806460F46002C3FF4D7ADC7E585
:102B80000099013399427FF473AD069B002BD8DC8A
:102B9000022D7FF4CBAD32463B460020434914F072
:102BA0008DF806460F46C1E50123ECE53946069F40
:102BB00003957A423046CDF8248000F05DFD002276
:102BC0003B4B04460D4614F0B3FC002843D00022D2
:102BD000384B2046294614F025FA14F0D3FC06465B
:102BE00014F0BAF90022324B14F01CFA02460B46DC
:102BF0002046294614F062F814F0C4FC00990B46F4
:102C000001331A4600933B46183306930B460EA930
:102C100041F82300134641F8236027E6089B02464B
:102C2000C3E900010B46D4E9000114F047F8009B0A
:102C3000002B3FF730AF089BC3E902013DE7D4E921
:102C40000067D4E90223089DC5E90401C5E90067CE
:102C5000C5E90223FAE62946204614F093FC009ABF
:102C60000EA941F8220001E64AAC00200021D8E676
:102C7000A49B032B3FF6EAAE01A252F823F000BF5B
:102C80009F2C0108972C0108972C0108692C01083A
:102C900001200023F2E4002000214AACE8E60020F5
:102CA00000211CE70A9BDB0000934CE40000F03F8E
:102CB000000070410000703E2DE9F04F21F0004609
:102CC000B6F1795F85B004460D469046994604DA20
:102CD00014F058FC002800F0858022462B46204640
:102CE000294614F09FF906460F4602460B46204639
:102CF000294614F097F941A3D3E9002382468B4675
:102D00003046394614F08EF93EA3D3E9002313F080
:102D1000D5FF32463B4614F085F93CA3D3E90023A6
:102D200013F0CEFF32463B4614F07CF939A3D3E9C9
:102D3000002313F0C3FF32463B4614F073F937A368
:102D4000D3E9002313F0BCFF0E9BCDE900019BB338
:102D50000022294B4046494614F064F9DDE900237E
:102D6000CDE902015046594614F05CF902460B4683
:102D7000DDE9020113F0A2FF32463B4614F052F99E
:102D800042464B4613F09AFF19A3D3E900230646A7
:102D90000F465046594614F045F902460B46304658
:102DA000394613F08DFF02460B462046294613F0A4
:102DB00085FF05B0BDE8F08F02460B463046394628
:102DC00014F030F90AA3D3E9002313F077FF524639
:102DD0005B4614F027F922462B4613F071FF05B02D
:102DE000BDE8F08F2046294605B0BDE8F08F00BF52
:102DF000495555555555C53F0000E03F7CD5CF5A44
:102E00003AD9E53DEB9C2B8AE6E55A3E7DFEB1576B
:102E1000E31DC73ED561C119A0012A3FA6F81011D4
:102E20001111813F000000002DE9F04FBE4C21F050
:102E3000004687B0A64282468B460F46CDE9002366
:102E40001BDC14F09FFB002837D153461E43109B18
:102E50000133334300F0B381109B012B00F0C88194
:102E600052465B460020B14914F006FA04460D466E
:102E70002046294607B0BDE8F08FAD4B9E421CDDD1
:102E80000029C0F2A98152465B4687A1D1E9000121
:102E900013F014FFDDE9002304460D4684A1D1E9B7
:102EA000000113F00BFF9FED847B22462B468DED36
:102EB000007B13F005FF82468B4652465B46504628
:102EC000594614F0AFF802460B468046894614F086
:102ED000A9F8424604460D464B465046594614F062
:102EE000A1F877A3D3E90023CDE9020120462946C2
:102EF00014F098F874A3D3E9002313F0E1FE2246FE
:102F00002B4614F08FF872A3D3E9002313F0D8FEF8
:102F100022462B4614F086F86FA3D3E9002313F062
:102F2000CFFE22462B4614F07DF86DA3D3E9002393
:102F300013F0C6FE22462B4614F074F86AA3D3E9B8
:102F4000002313F0BDFE42464B4614F06BF868A315
:102F5000D3E90023CDE904012046294614F062F8A4
:102F600065A3D3E9002313F0ABFE22462B4614F0F1
:102F700059F863A3D3E9002313F0A2FE22462B469F
:102F800014F050F860A3D3E9002313F099FE224611
:102F90002B4614F047F85EA3D3E9002313F090FE0C
:102FA00022462B4614F03EF85BA3D3E9002313F02E
:102FB00087FE02460B46DDE9040113F081FEDDE9E0
:102FC000022314F02FF8DDE9004522462B4613F0CA
:102FD00077FE42464B4614F025F802460B46204643
:102FE000294613F06DFE4EA3D3E9002304460D4697
:102FF000DDE9020114F016F822462B4613F060FEBC
:103000000B460246804689465046594613F058FE04
:10301000474B9E4204460D4600F38E80109B012BC9
:103020003BD002460B460020404914F025F900240D
:1030300006460F462046294652465B46CDE90067C4
:10304000CDE90201009413F039FEDDE900AB024640
:103050000B464046494613F031FE52465B4613F09C
:10306000E1FF524604460D465B46DDE9020113F0DE
:10307000D9FF00222F4B13F023FE02460B462046B9
:10308000294613F01DFE32463B4613F0CBFF524655
:103090005B4613F015FE04460D462046294607B050
:1030A000BDE8F08FAFF30080182D4454FB21E93FB9
:1030B000075C143326A6813C0000000000000000DD
:1030C000D47ABF74702AFB3EE9A7F0320FB8123FE2
:1030D00068108D1AF726303F1583E0FEC8DB573F96
:1030E00093846EE9E326823FFE41B31BBAA1AB3F56
:1030F000735360DBCB75F3BEA69237A0887E143F76
:103100000165F2F2D844433F280356C9226D6D3F52
:1031100037D60684F464963F7AFE10111111C13F30
:10312000635555555555D53FFFFF2F3E0000F0BF65
:103130002794E53F0000F03F109813F00DFF224662
:10314000CDE900012B462046294613F06BFFDDE94F
:103150000023CDE902012046294613F0B1FD0246C5
:103160000B46DDE9020114F087F842464B4613F0A6
:10317000A5FD02460B465046594613F09FFD0246F8
:103180000B4613F09DFD02460B46DDE9000113F0EE
:1031900095FD0446B81700F00200C0F101000D468D
:1031A00013F0DAFE02460B462046294613F03AFF9A
:1031B00004460D462046294607B0BDE8F08F50462C
:1031C000594614F0A7FC02460B4600200A4914F0A9
:1031D00053F804460D4660E7DDE9004501F1004182
:1031E000224605F1004382468B46CDE900234AE69C
:1031F00054465D4651E700BF0000F03F000000006C
:103200002DE9F04FD24A21F00043934285B0824627
:103210008B460C462DD9CF4A93421AD8002C80F207
:103220001681B5A3D3E900235046594613F048FD53
:103230000022002314F068F9C0B9B1A3D3E9002338
:103240005046594613F0EEFE02460B460020C24996
:1032500008E1C24A934240F2D0800346C1F3130210
:10326000134340F0F481002980F2C4800020BC495F
:10327000C0E0BC4A934200F22981BB4A934240F22B
:10328000DE80002301930022B84B5046594613F0CC
:10329000C9FE06460F4602460B465046594613F0F5
:1032A000C1FE99A3D3E9002304460D4613F0BAFEEC
:1032B00097A3D3E9002313F003FD22462B4613F016
:1032C000B1FE95A3D3E9002313F0F8FC22462B4668
:1032D00013F0A8FE92A3D3E9002313F0F1FC2246D9
:1032E0002B4613F09FFE90A3D3E9002313F0E6FCD6
:1032F00022462B4613F096FE00229D4B13F0E0FC75
:103300008046894602460B463046394613F08AFE0F
:1033100002460B460020974913F0D0FC06460246B1
:103320000B460F464046494613F0C8FC32468046DD
:1033300089463B465046594613F074FE02460B46FA
:1033400000208D4913F0BAFC02460B464046494620
:1033500013F092FF22462B4613F064FE019E0246B4
:103360000B46002E38D0DDE9026732463B4613F0AB
:10337000A5FC52465B4613F055FE32463B4613F021
:103380009DFC2B46224613F099FC019B0133064617
:103390000F4600F00F81019B012B00F0F180019B93
:1033A0000133392B39D8019B132B40F31281019C37
:1033B000C4F57F75033500222B0513F081FC02460E
:1033C0000B465046594613F079FC0022684B13F027
:1033D00077FC01EB04510DE05046594613F022FEF4
:1033E00022462B4613F06AFC02460B4650465946CD
:1033F00013F064FC05B0BDE8F08F4DA3D3E90023C2
:1034000014F0A0F800283FF409AF4BA3D3E9002340
:103410001046194613F006FEECE752465B4613F0E1
:103420004DFC02460B460020514913F047FC019A1F
:103430004F4B01EB0251002213F040FCDAE73EA3B0
:10344000D3E9002313F03CFC02460B46CAE72CA349
:10345000D3E900235046594613F0E4FD0B46434997
:103460000246002013F02CFC14F08CF8019013F0AD
:1034700073FD33A3D3E9002306460F4613F0D2FDB4
:1034800002460B465046594613F018FC2EA3D3E9CA
:103490000023804689463046394613F0C3FD064670
:1034A0000F4632463B464046494613F007FC02466B
:1034B0000B4682468B464046494613F0FFFB324698
:1034C0003B4613F0FBFBCDE90201DCE62B4A9342BD
:1034D00000F2958000291AA3D3E90023C0F2AC8042
:1034E00013F0ECFB012380468946019316A7D7E928
:1034F0000067D6E7AFF3008059F3F8C21F6EA5014D
:10350000FE822B654715F73F2DC3096EB7FD8ABEB6
:103510003952E686CACFD03EB7DBAA9E19CE143FF9
:103520008555FE19A0015A3FF41011111111A13F48
:10353000EF39FAFE422E86409C7500883CE4377EC7
:103540000000E0FE422EE63F763C7935EF39EA3D59
:1035500079684340412E86400000E0BFFFFFEF7FC7
:103560000000F0BF422ED63FFFFF8F3C0000E03F3F
:103570000000F03F0000084000001840B1A2F03FFA
:103580000022394B5046594613F0BEFF002844D064
:10359000504659460022354B13F092FB02460B462B
:1035A0003046394613F08AFB00224FF0404313F0B7
:1035B00039FD1FE702460B465046594613F07EFB85
:1035C00000222A4B13F02EFD0022284B13F076FB2D
:1035D00010E7019C4FF400132341C3F17F5752467B
:1035E0005B4613F06BFB002607F5401702460B46BF
:1035F0003046394613F062FB01EB0451FAE616A39C
:10360000D3E9002313F00EFD002C02460B464FF0C9
:103610000000FFF61CAE154924E732463B465046F3
:10362000594613F04BFB02460B4613F049FB0022B0
:103630000F4B13F045FBDDE613F042FB4FF0FF3379
:1036400080468946019306A7D7E9006729E7024625
:103650000B4613F035FBCDE6FE822B654715F73F91
:10366000763C7935EF39EABD0000D0BF0000E03F7D
:103670000000F03F00000000F8B5C1F30A56044610
:103680000D460B4617460EBB21F00043034386460A
:1036900025D00022344B13F0C5FC344A974204462F
:1036A0000D460B462ADBC1F30A56363E3E4440F235
:1036B000FE72964228DC002E12DD23F0FF4323F435
:1036C000E00343EA065520462946F8BD40F2FF7262
:1036D0009642EBD102460B4613F0F2FAF8BDF8BD64
:1036E00016F1350F1DDA4CF250339F4222462B461D
:1036F00025DC19A1D1E9000116F0CEF816A3D3E913
:10370000002313F08FFCF8BD22462B4614A1D1E90B
:10371000000116F0C1F812A3D3E9002313F082FCD4
:10372000F8BD23F0FF4323F4E003363643EA0655A1
:103730002046294600220E4B13F074FCF8BD08A168
:10374000D1E9000116F0A8F805A3D3E9002313F08E
:1037500069FCF8BDAFF3008059F3F8C21F6EA501F4
:103760009C7500883CE4377E00005043B03CFFFF6E
:103770000000903C10B5054C237833B9044B13B1CD
:103780000448AFF300800123237010BDC004002063
:1037900000000000F0C302080C4B43B10C480D4977
:1037A00010B5AFF300800C48036823B910BD0A4878
:1037B000036833B97047094B002BF7D0BDE81040C0
:1037C0001847064B002BF5D0184700BF000000003B
:1037D000F0C30208C40400203004002000000000F0
:1037E000154B002B08BF134B9D46A3F5803A0021D3
:1037F0008B460F461348144A121A07F07FF90F4BF5
:10380000002B00D098470E4B002B00D0984700208B
:10381000002104000D000D48002802D00C480EF0D5
:1038200067F816F0A7F9200029000EF041F80EF015
:103830005BF800BF000008000080022000000000CC
:10384000A118020838040020C0330020F118020833
:1038500000000000F0B5214D2C6883B014B1204663
:1038600003B0F0BD4FF49C700EF044F84FF0FF3100
:103870000646032001F042FC00B204F073F84FF05A
:10388000FF310746022001F039FC00B204F06AF86B
:103890003946024606F1DC0730460AF0C1FD2346F0
:1038A0002246384601210AF057FC4FF0FF31012033
:1038B00001F024FC00B204F055F898244FF0050EF6
:1038C00002468DE810403B46314606F1E40007F021
:1038D0004FFD344620462E6003B0F0BDDC040020CE
:1038E0002DE9F04104460F46FFF7B4FF00F1E4056F
:1038F0000646284607F05AFD082C0BD0A4F1090310
:10390000012B15D93A46214610230D20BDE8F04180
:1039100003F00CBFD6F8E43028469B6A984702288B
:10392000F0DCD6F8E43028465B6A04219847E9E7E2
:10393000D6F8E43028469B6A98470528E2DCD6F89A
:10394000E43028465B6A08219847DBE710B52DED87
:10395000028BFFF77FFF00F1E404204609F078FABC
:1039600007EE900A2046F8EEE78A09F07FFA07EEA4
:10397000900A2046B8EEE78A09F086FA68EE087ADF
:1039800007EE100AE8EEA87AB8EEC77AE7EE077AF3
:10399000F5EE407AF1EE10FAB1EEE78A03D517EEB4
:1039A000900A14F003FEFDEEC87ABDEC028B17EE10
:1039B000900A10BD08B503281CD8DFE800F0140DEC
:1039C0000602BDE80840FFF7C1BFFFF743FFBDE8AF
:1039D0000840E43009F058BAFFF73CFFBDE8084062
:1039E000E43009F043BAFFF735FFBDE80840E430A2
:1039F00009F02EBA002008BD08B550B1012806D143
:103A0000FFF728FFBDE80840E430FBF765B8002069
:103A100008BDFFF71FFFBDE80840E430FBF73CB8E6
:103A200010B50446FFF716FF2146E430BDE810400C
:103A300009F026B808B501F089FCFBF7F1FDBDE8F7
:103A4000084001F0EDB900BF08B501F07FFCFBF7BD
:103A500057FEBDE8084001F0E3B900BF08B501F02A
:103A600075FC14F0CDF8BDE8084001F0D9B900BFED
:103A700008B501F06BFC14F0D5FCBDE8084001F07E
:103A8000CFB900BF08B501F061FCFBF7D9FDBDE877
:103A9000084001F0C5B900BF08B501F057FC14F0AB
:103AA000EDFABDE8084001F0BBB900BF08B501F070
:103AB0004DFCFBF731F8BDE8084001F0B1B900BF9B
:103AC00008B501F043FC14F02DFABDE8084001F000
