:020000040800F2
:10E0000000800220AD2C0208918F0208918F020837
:10E01000918F0208918F0208918F02080000000082
:10E0200000000000000000000000000009E90108F5
:10E03000918F020800000000AFE901080FEA010813
:10E04000918F0208918F0208918F0208918F020828
:10E05000918F0208918F0208918F0208918F020818
:10E06000918F0208918F0208918F0208918F020808
:10E07000918F0208918F0208918F0208918F0208F8
:10E08000918F0208918F0208918F0208DDF9010833
:10E09000C9F80108918F0208E1F90108918F02087F
:10E0A000918F0208918F0208918F0208918F0208C8
:10E0B000918F0208918F020800000000918F0208E2
:10E0C000918F0208918F0208918F0208918F0208A8
:10E0D000918F0208918F0208918F0208918F020898
:10E0E000918F0208918F02080000000000000000DC
:10E0F0000000000000000000000000000000000020
:10E1000000000000918F020800000000918F0208BB
:10E11000918F020800000000918F020800000000AB
:10E12000918F0208918F0208918F0208918F020847
:10E13000918F0208918F0208918F02080000000061
:10E14000918F0208918F0208918F0208918F020827
:10E15000918F0208918F0208918F0208918F020817
:10E16000918F0208918F0208918F02080000000031
:10E1700000000000918F0208000000000000000075
:10E18000918F0208918F0208918F0208918F0208E7
:10E19000918F0208000000002DE9F04F85B0039137
:10E1A0000778A7F10903042B044607F07F0200F16A
:10E1B0000100F5D9202AF3D02B2F04BF677804463D
:10E1C0002D2F72D09FED427B8DED007B4FF000082C
:10E1D0004FF000098FB34FF0000E4FF0000ADFF848
:10E1E00000B1754619E018F019F8804689463046A6
:10E1F00017F0AEFF42464B4617F05EFE5246804691
:10E2000089465B46DDE9000135B318F031F9CDE907
:10E210000001AE4614F8017F7FB1A7F13006092E48
:10E2200052465B4640464946DDD9C5B92E2F16D128
:10E2300014F8017F0125002FEFD142464B46DDE95E
:10E24000000117F0EBFF80468946039B4046494694
:10E250001C6005B0BDE8F08F4FF0010EDAE7BEF1AB
:10E26000000F29D042464B46DDE9000117F0D6FFEA
:10E2700007F0DF07452F80468946E6D10399601CE9
:10E280000A221AF097FD16490246002018F026FBD4
:10E2900002460B464046494617F0C0FF8046894675
:10E2A0004046494605B0BDE8F08F9FED0B7B67788F
:10E2B0008DED007B013489E7DFF828904FF00008EE
:10E2C0004046494605B0BDE8F08F00BFAFF300807F
:10E2D000000000000000F03F000000000000F0BF60
:10E2E000000024400000F87F2DE9F84F1646002377
:10E2F000002204460D4618F003FA002840F09D80E5
:10E30000002200232046294618F0F0F928B13022D7
:10E31000002332707370BDE8F88F2046294619F04B
:10E32000FBF818F02BFA7BA3D3E90023814629469A
:10E33000204618F0E5F9002800F08680B9F1000FBA
:10E34000C0F2BE804A4600206F4918F0C7FA024664
:10E350000B462046294618F08BF804460D4666A168
:10E36000D1E9000101274FF0000822462B4617F0A3
:10E3700055FF0022654B17F09FFD18F0EBFA002FB8
:10E38000CC464FF0FF3AC1464FF0000840F385807D
:10E39000DFF888E15E4C0122AEF1700945F6F32505
:10E3A0004FF02E0BA94208BFA0424FF0300309D313
:10E3B000001B61EB0501A94208BFA04203F1010364
:10E3C000F6D2DBB2337050EA010306F1010409D141
:10E3D000BA4210DACE4502F101020CD026467EE8A0
:10E3E0000245DFE7BA4204BF86F801B0B41CCE454F
:10E3F00002F10102F2D1B8F1000F0DD02246302116
:10E4000002F8011BC2F1010353442344002BF7DC43
:10E410002AEAEA7301331C44BCF1010F4CD0652396
:10E42000BCF1000F2370C5BF2B236370611CA11CBE
:10E430006046BDE8F84F0CF0D3BC05F100431D4623
:10E440002D23337001365BE72DA3D3E9002320464B
:10E45000294618F073F900287FF470AFB9F10E0F58
:10E4600009F101073DDDA9F10E08424600202649C9
:10E4700018F034FA02460B462046294617F0F8FFFA
:10E480000022224B17F018FD18F064FA002FA9F1B2
:10E490000F0A4FF0010C3FF77BAF334630222E249A
:10E4A00003F8022B74707FEA090618D01E4403F8A3
:10E4B000012BB342FBD16BE700232370BDE8F88F3B
:10E4C000C9F100020020104918F008FA02460B4674
:10E4D0002046294617F0A2FE04460D463FE71E4699
:10E4E00056E7C9F10E0200200749C84618F0F6F9B0
:10E4F0004FF0010939E700BF0000901EC4BCD642AE
:10E5000050EFE2D6E41A4B44000024400000E03F04
:10E5100000407A108DEDB5A0F7C6B03E38970208DE
:10E5200070B54FF0FF3006F095F904466FF07F406C
:10E5300006F090F90646204617F0FAFD00220C4B33
:10E5400017F06CFE044630460D4617F0F1FD06A3A9
:10E55000D3E9002317F08CFF02460B4620462946DC
:10E5600017F0AAFC70BD00BF0000E0DFFFFF6F43A3
:10E570000000F03D00000000294B1B68002B70B527
:10E5800006460CBF182005200D4609F0C9F8002EDC
:10E59000044639DD234B186817F0DAFD1EA3D3E9D2
:10E5A000002317F03BFE0022002317F085FC18F033
:10E5B000E5F8236820EAE071B1F5806FA8BF4FF459
:10E5C0008061DB682046984723681749D3F880307C
:10E5D00091FBF6F120469847002D14DDA5F11406B5
:10E5E000012EB8BF012630460DF0D4F9236820462D
:10E5F000DB6800219847A81B0128B8BF0120BDE8AF
:10E6000070400DF0C7B970BD03680021DB68BDE83C
:10E6100070401847AFF30080101010101010104019
:10E62000E40500200802002040420F000000000026
:10E6300038B5154B1B68002B04460CBF182005206D
:10E6400009F06EF80546204617F082FD0CA3D3E9C9
:10E65000002317F0E3FD0022002317F02DFC18F033
:10E660008DF82B6820EAE071B1F5007FDB68A8BF68
:10E670004FF4007128469847044B1C6038BD00BF1A
:10E680001010101010100040E405002008020020B7
:10E6900030B52D4B8DB01A680092009A120205D445
:10E6A000009A42F400020092009A1A60274A284B0E
:10E6B000126801921B6802930DF022FF17F048FDCB
:10E6C000CDE90401019B9BB20193029B9BB2029393
:10E6D000DDE904011AA3D3E9002317F09FFD1D4BC8
:10E6E0000022CDE90401CDE906230298019BC01A5E
:10E6F00017F01EFDCDE90801DDE90445019817F08A
:10E7000017FD02460B462046294617F0D3FBCDE9FC
:10E710000A01DDE90601DDE90823DDE90A4517F014
:10E72000A7FE22462B4617F079FD00220A4B17F070
:10E73000C3FB18F04BF8039003980DB030BD00BF39
:10E740009A9999999999F13F08030450A875FF1F68
:10E75000CA75FF1F0000544000003E40000000004A
:10E760002DE9F04F2DED028B044683B0C06817F001
:10E77000EFFC80462069894617F0EAFC8246606912
:10E780008B4617F0E5FC024601F1004306460F46B2
:10E790004046494618F06CFD18F038F8E06205462E
:10E7A00018F01AFC0190284618F0CAFB019B054698
:10E7B000184617F0DFFC42464B4617F02FFD804607
:10E7C0002846894617F0D6FC32463B4617F026FD10
:10E7D00002460B464046494617F06CFB02460B4684
:10E7E0005046594618F044FD18F010F8002208EE83
:10E7F000100A00233046394617F0A0FF28B3B5EEC3
:10E80000C08AF1EE10FA1CDD11A7D7E9006718EEF7
:10E81000100A17F0AFFC02460B463046394617F097
:10E8200049FB32463B4617F047FB17F0EFFFA0626B
:10E83000E38843F00203E38003B0BDEC028BBDE844
:10E84000F08F05A7D7E90067E1E784ED0A8AEFE7D3
:10E85000EA2E4454FB21F93FEA2E4454FB21F9BF30
:10E8600008B50DF07FFDDFED0C7A07EE100A67EEBC
:10E87000277A17EE900A17F07DFC05A3D3E9002351
:10E8800017F0F6FD17F07AFF08BD00BFAFF3008068
:10E89000EA2E4454FB2119400000B443000000005C
:10E8A00008B50DF073FDDFED0C7A07EE100A67EE88
:10E8B000277A17EE900A17F05DFC05A3D3E9002331
:10E8C00017F0D6FD17F05AFF08BD00BFAFF3008068
:10E8D000EA2E4454FB2119400000B443000000001C
:10E8E000494A21F0004393422DE9704304460D4606
:10E8F0004BDC464A93420E460EDC3FA3D3E900238D
:10E9000017F0DAFA0022424B17F018FF00284CD01B
:10E9100020462946BDE870833E4A93423BDCB3F172
:10E92000804F42DD18F0F2F92246804689462B4698
:10E930002046294617F072FC0022354B17F0BCFA2E
:10E9400019F0A8F802460B464046494617F0B4FABB
:10E9500002460B4600202E4917F08AFD4246044627
:10E960000D464B464046494617F0A6FA02460B466E
:10E970002046294617F0A0FA02F06AF8002EC9DCFA
:10E9800001F100431946BDE8708302460B4617F0BB
:10E9900093FABDE8708318F0B9F902F059F818A39A
:10E9A000D3E9002317F088FAE8E722462B462046F1
:10E9B000294617F033FC804689462046294618F040
:10E9C000A5F9002204460D46114B4046494617F072
:10E9D00073FA19F05FF800220D4B17F06DFA02463A
:10E9E0000B464046494617F043FD22462B4617F09A
:10E9F00063FA00F0C5FAC1E79C7500883CE4377EF5
:10EA0000EF39FAFE422EE63FFFFFEF7FFFFF2F3E7A
:10EA10000000F03F0000B0412DE9F84FC44B21F059
:10EA200000469E4204460D468A460EDDC14B9E427C
:10EA300000F3AC8000F0A780BAF1000F40F3EA8049
:10EA40009FA1D1E90001BDE8F88FBB4B9E4200F3C6
:10EA5000B580A3F1DE739E4240F3A0804FF0FF3BF0
:10EA600022462B462046294617F0D8FB02460B4685
:10EA70008046894617F0D2FB93A3D3E900230646CC
:10EA80000F4617F0CBFB92A3D3E9002317F014FA3B
:10EA900032463B4617F0C2FB8FA3D3E9002317F0A1
:10EAA0000BFA32463B4617F0B9FB8DA3D3E900239E
:10EAB00017F002FA32463B4617F0B0FB8AA3D3E9BF
:10EAC000002317F0F9F932463B4617F0A7FB88A35D
:10EAD000D3E9002317F0F0F942464B4617F09EFBAE
:10EAE00085A3D3E90023804689463046394617F08E
:10EAF00095FB83A3D3E9002317F0DCF932463B46AC
:10EB000017F08CFB80A3D3E9002317F0D3F932462A
:10EB10003B4617F083FB7EA3D3E9002317F0CAF925
:10EB200032463B4617F07AFB7BA3D3E9002317F06C
:10EB3000C1F932463B4617F071FBBBF1FF3F02467D
:10EB40000B466CD04046494617F0B6F922462B4694
:10EB500017F064FB794E7A4B4FEACB0B5E449B4433
:10EB6000DBE9002317F0A6F922462B4617F0A2F99D
:10EB700002460B46D6E9000117F09CF9BAF1000FE6
:10EB800043DBBDE8F88F00283FF456AF22462B4602
:10EB90002046294617F090F9BDE8F88F60A3D3E925
:10EBA000002317F089F90022664B17F0C7FD0028F3
:10EBB0003FF454AF20462946BDE8F88F18F0A6F878
:10EBC000614B9E4204460D4639DCA3F550239E421C
:10EBD0005EDC02460B4617F06FF90022594B17F026
:10EBE00069F9002206460F464FF080432046294629
:10EBF00017F062F902460B463046394617F038FCEA
:10EC00004FF0000B04460D462AE701F10043194678
:10EC1000BDE8F88F44A1D1E90001BDE8F88F404676
:10EC2000494617F049F922462B4617F0F7FA0246F3
:10EC30000B462046294617F03DF9BDE8F88F434BB7
:10EC40009E421ADC0022424B17F034F9002206469D
:10EC50000F463F4B2046294617F0E0FA0022394B79
:10EC600017F02AF902460B463046394617F000FCE9
:10EC70004FF0020B04460D46F2E602460B4600201A
:10EC8000344917F0F5FB4FF0030B04460D46E7E659
:10EC900000222C4B17F00EF9002206460F46294B96
:10ECA0002046294617F008F902460B4630463946F9
:10ECB00017F0DEFB4FF0010B04460D46D0E600BF17
:10ECC000182D4454FB21F93F11DA22E33AAD903F6D
:10ECD000EB0D76244B7BA93F513DD0A0660DB13F93
:10ECE0006E204CC5CD45B73FFF8300922449C23FFB
:10ECF0000D5555555555D53F2F6C6A2C44B4A2BFC0
:10ED00009AFDDE522DDEAD3F6D9A74AFF2B0B33F87
:10ED1000711623FEC671BC3FC4EB98999999C93FFF
:10ED20009C7500883CE4377E182D4454FB21F9BFC4
:10ED3000FFFF0F440000F07FFFFFDB3F4897020812
:10ED4000689702080000F03FFFFFF23FFF7F03409B
:10ED50000000F83F0000F0BF2DE9F843C1F30A5965
:10ED6000A9F2FF35132D02460B460C46064688468F
:10ED7000074622DC002D50DBDFF8F09049FA05F958
:10ED800001EA090E5EEA06061CD036A3D3E9002389
:10ED900017F092F80022002317F0D0FC48B1002CA5
:10EDA00004DD4FF4801343FA05F5A84428EA09046A
:10EDB000002721463846BDE8F883332D06DDB5F53A
:10EDC000806F3DD010461946BDE8F883A9F213497B
:10EDD0004FF0FF3E2EFA09F910EA090FF2D021A3F5
:10EDE000D3E9002317F068F80022002317F0A6FCEF
:10EDF0000028DED0002C09DD142D2BD00127C5F111
:10EE0000340507FA05F5AE1928BFB844444626EA8A
:10EE1000090721463846BDE8F88312A3D3E9002349
:10EE200017F04AF80022002317F088FC0028C0D011
:10EE3000002C0BDB54EA060706D00027084CB8E785
:10EE400017F03AF8BDE8F8833C46B2E700274FF0E8
:10EE50000044AEE704F10108D8E700BFAFF300803B
:10EE60000000F03F9C7500883CE4377EFFFF0F00F8
:10EE70002DE9F041C1F30A57A7F2FF35132D0246E1
:10EE80000B460C46884606461CDC002D3FDB3A4FFD
:10EE90002F41864601EA070C5CEA0E0E17D034A318
:10EEA000D3E9002317F008F80022002317F046FCEE
:10EEB00020B1002C3FDB28EA07040026214630461B
:10EEC000BDE8F081332D06DDB5F5806F2FD01046FB
:10EED0001946BDE8F081A7F213474FF0FF3E2EFA26
:10EEE00007F73842F3D022A3D3E9002316F0E4FF5A
:10EEF0000022002317F022FC0028DFD0002C20DBAA
:10EF0000444626EA070621463046BDE8F08118A3AC
:10EF1000D3E9002316F0D0FF0022002317F00EFCE7
:10EF20000028CBD0002C17DB00263446C6E716F0AD
:10EF3000C3FFBDE8F0814FF4801343FA05F5A84400
:10EF4000B9E7142D10D00123C5F1340503FA05F5F6
:10EF5000AE1928BF9844D3E724F00042074B324350
:10EF600018BF1C460026A9E704F10108C8E700BF46
:10EF70009C7500883CE4377EFFFF0F000000F0BF67
:10EF80002DE9F04FD84B994287B0804689460E460E
:10EF900013DCD64B21F000449C4218DD0022D44BF8
:10EFA00017F0A4FB002879D0002200230020D149CB
:10EFB00017F05EFA07B0BDE8F08FCF4B99422FDD16
:10EFC00042464B4616F078FF07B0BDE8F08FCB4BBA
:10EFD0009C4270DDCA4B1E449E427ED80022C94B23
:10EFE0004046494616F068FF4FEA215AAAF2FF3A16
:10EFF000BAF1000F04460D460E4640F3DE8142464C
:10F000004B4616F057FF02460B460020BD4916F04E
:10F0100051FF22462B4617F02BFACDE902010BE0F7
:10F02000B94B9E42DADD9FED9A7B8DED027B4FEA74
:10F03000265A4446AAF2FF3AB44BC6F313069E4240
:10F0400046F07F5500F3E78045F4401520462946F9
:10F050000022AC4B16F02EFF002204460D46AC4BAE
:10F0600017F0DCF822462B4617F0D8F8A046CDE979
:10F070000401A946CDE90001002E3AD10022002367
:10F080002046294617F032FB002800F0CE80BAF166
:10F09000000F40F074810020002195E742464B4666
:10F0A0004046314616F006FF02460B4617F0E0F9DF
:10F0B00007B0BDE8F08F0022964B16F0FDFE00224F
:10F0C000002317F03BFB002800F0CC80924B9C42C1
:10F0D00000F3C8804046494676E700228C4B17F083
:10F0E0009DF842464B4617F099F8CDE900014FF0E4
:10F0F000000A00224FF080434046494616F0DCFEED
:10F1000002460B464046494617F0B2F902460B4606
:10F1100006460F4617F082F85FA3D3E900230446A2
:10F120000D4617F07BF85EA3D3E9002316F0C4FE6A
:10F1300022462B4617F072F85BA3D3E9002316F0A2
:10F14000BBFE22462B4617F069F859A3D3E90023EA
:10F1500016F0B2FE22462B4617F060F856A3D3E90C
:10F16000002316F0A9FE22462B4617F057F854A3A9
:10F17000D3E9002316F0A0FE22462B4617F04EF8E6
:10F1800051A3D3E9002316F097FE22462B4617F031
:10F1900045F804460D46BAF1000F00F0BF80504616
:10F1A00016F0D6FF4AA3D3E9002382468B4617F018
:10F1B00035F8DDE90023CDE904012046294616F0A3
:10F1C0007BFE32463B4617F029F843A3D3E90023E0
:10F1D00004460D465046594617F020F8DDE9022353
:10F1E00016F06AFE02460B462046294616F064FEDB
:10F1F00002460B46DDE9000116F05CFE42464B4636
:10F2000016F058FE02460B46DDE9040116F052FEE8
:10F2100007B0BDE8F08F45F40015C6F5801620460E
:10F220002946B6100AF1010A12E72DA3D3E90023FB
:10F230002046294616F0F2FF02460B4600203149CF
:10F2400016F038FEDDE9042316F0E8FF06460F4607
:10F25000BAF1000F73D102460B462046294616F03C
:10F2600029FEB1E642464B464046494616F0D6FFD7
:10F270000022274B16F0D2FF02460B464046494675
:10F2800016F018FE07B0BDE8F08F00BFAFF30080A6
:10F29000000000000000000044523EDF12F1C23FB7
:10F2A0009FC678D0099AC33FDE03CB966446C73F1A
:10F2B000AF788E1DC571CC3F599322942449D23F1B
:10F2C00004FA97999999D93F935555555555E53F66
:10F2D0000000E0FE422EE63F763C7935EF39EA3D0C
:10F2E000555555555555E53F7982DA3FFFFFEF3FBC
:10F2F0000000F0BF000050C3FFFFEF7FFFFF1F3E85
:10F300003C412D400000F03FFFFF3F439DA0060021
:10F310000000E03F00005043FFFF8F3CDDE9004567
:10F3200022462B4616F0C8FD32463B4616F076FFC5
:10F3300002460B462046294616F0BCFD9CE7504687
:10F3400016F006FF23A3D3E9002382468B4616F06E
:10F3500065FF22A3D3E900238046894650465946DB
:10F3600016F05CFFDDE9022316F0A6FD02460B460F
:10F370003046394616F09EFD22462B46DCE75046C5
:10F3800016F0E6FE15A3D3E9002306460F4616F055
:10F3900045FFDDE9022316F08FFD0EA3D3E900231C
:10F3A00004460D463046394616F038FF02460B46F5
:10F3B0002046294616F080FD06E60022044B16F092
:10F3C00079FD02460B464046494616F073FD20E69D
:10F3D0000000F03F0000E0FE422EE63F763C79352B
:10F3E000EF39EA3D0000000008B518F015F804A355
:10F3F000D3E9002317F03CF808BD00BFAFF300804D
:10F40000EF39FAFE422EE63F2DE9F043DFF8B480F3
:10F410008BB004460D4601F0F3F898F90030013343
:10F4200006460F462BD022462B462046294617F08B
:10F430008FF9814618BB2046294617F067FC1FA3A9
:10F44000D3E9002317F07AF9C8B1194A98F90030C6
:10F45000CDF820900321CDE90445CDE902458DE8A2
:10F4600006008BB9134B4FF06042CDE90623684686
:10F4700019F09EF970B1089B9BB9DDE9066730462B
:10F4800039460BB0BDE8F0830B490020022BCDE9D3
:10F490000601ECD119F00AFB22230360089B002B24
:10F4A000EBD019F003FB089B0360E6E7AFF30080A5
:10F4B00088AC0208FFFFEF470000F07F7DF8B98FAE
:10F4C000CE338640060400202DE9F043DFF8E480C7
:10F4D0008BB004460D4601F043F998F90030013332
:10F4E00006460F4633D02046294619F05BF970B323
:10F4F0002CA3D3E900232046294617F01FF98146A3
:10F5000050BB2AA3D3E900232046294617F0F8F878
:10F51000E8B198F90030204ACDF820900026002765
:10F520000421022BCDE90445CDE90245CDE906676A
:10F530008DE8060029D0684619F03AF928B3089BEF
:10F540001BB119F0B3FA089B0360DDE9066730468A
:10F5500039460BB0BDE8F0830F4A98F900300192AC
:10F5600003210022CDE90445CDE90245009108922E
:10F570002BB90A4B4FF06042CDE90623DBE708497F
:10F580000020022BCDE90601D5D119F08FFA2223F4
:10F590000360D4E7AFF3008090AC0208FFFFEF47B1
:10F5A0000000F07FEF39FAFE422E864051302DD513
:10F5B000104987C0060400202DE9F04FDFF80C93B6
:10F5C0008DB006460F4614461D4601F0C5FC99F95C
:10F5D0000080B8F1FF3FCDE9000136D022462B462E
:10F5E0002046294617F0B4F8834670BB32463B46A6
:10F5F0003046394617F0ACF88246002840F0A28029
:10F60000304639460022002317F070F810B300226C
:10F6100000232046294617F069F8834600286AD05F
:10F620009FEDA17B0122A44BCDF828A00292CDE949
:10F630000467CDE906458DED087B0393B8F1000F13
:10F6400045D09FED9B7B8DED007BDDE900010DB08A
:10F65000BDE8F08FDDE9000119F0A4F8804600282C
:10F6600000F08D804FF0000A4FF0000BDDE9000143
:10F6700052465B4617F03AF80028E6D03046394645
:10F6800019F090F80028E0D02046294619F08AF8B1
:10F690000028DAD099F90030874A03920421002229
:10F6A000022BCDE90467CDE90645CDE908AB02910F
:10F6B0000A9203D002A819F07BF868B919F0F6F99C
:10F6C0002223036008E09FED787B8DED087B02A884
:10F6D00019F06EF8002830D00A9B1BB119F0E6F93A
:10F6E0000A9B03609DED087B8DED007BDDE9000149
:10F6F0000DB0BDE8F08F2046294619F053F80028D8
:10F70000A3D0002200232046294616F0F9FF002846
:10F710009BD099F90030684ACDF828B00121CDE995
:10F720000467CDE9064502910392002BCBD06349D3
:10F730000020022BCDE90801C9D119F0B7F9212326
:10F740000360C9E7002200232046294616F0CEFFB9
:10F7500000283FF47AAF5A4B5749CDF828B0002221
:10F760000120B8F1020FCDE904670290CDE906450A
:10F77000CDE908230391AAD1CDE9002365E73046FE
:10F78000394619F00FF800283FF46CAF204629469F
:10F7900019F008F800283FF465AFDDE900231046B2
:10F7A000194616F0D5FF00285FD1032399F9008090
:10F7B0000293414B0A90CDE90467CDE906450393D6
:10F7C000B8F1000F2BD1DFF808B14FF0604A0022EA
:10F7D000002330463946CDE908AB16F091FF0028EA
:10F7E0003FF468AF0022374B2046294616F016FD3D
:10F7F00004460D4618F0E4FF02460B462046294613
:10F8000016F074FF70BB304B99F900804FF06042E6
:10F81000CDE90823B8F1020F7FF44CAF4EE7DFF8D3
:10F82000B4B04FF0000A0022002330463946CDE93B
:10F8300008AB16F065FF0028ECD00022214B2046D3
:10F84000294616F0EBFC04460D4618F0B9FF0246B7
:10F850000B462046294616F049FF18B9174B0022DF
:10F86000CDE9082399F90080D4E799F90090124B6B
:10F87000CDF828800122CDE90467CDE90645029242
:10F880000393B9F1000F3FF41EAF0022002310468E
:10F89000194616F0EDFDB9F1020FCDE908013FF46C
:10F8A0004CAF14E7AFF30080000000000000000040
:10F8B000000000000000F03FA8AC02080000F0FFCC
:10F8C0000000F03F0000E03FFFFFEFC7060400200C
:10F8D000FFFFEF470000F07F2DE9F84FC44E21F005
:10F8E0000043B34204460D460DDD03F1404303F5EA
:10F8F0008013034340F0B980002940F34081002089
:10F900000021BDE8F88FBB4EB34240F3A68000292A
:10F91000C0F2788102460B460020B74916F0CAFAB9
:10F920000022B64B16F07AFC04460D4618F0B2F8E9
:10F9300095A3D3E90023894680462946204616F040
:10F940006DFC93A3D3E9002316F0B6FA22462B46AA
:10F9500016F064FC90A3D3E9002316F0ABFA22461C
:10F960002B4616F05BFC8EA3D3E9002316F0A4FA15
:10F9700022462B4616F052FC8BA3D3E9002316F047
:10F9800099FA22462B4616F049FC89A3D3E90023B5
:10F9900016F092FA22462B4616F040FC86A3D3E9D5
:10F9A000002382468B462046294616F037FC84A366
:10F9B000D3E9002316F07EFA22462B4616F02EFCE1
:10F9C00081A3D3E9002316F077FA22462B4616F0DE
:10F9D00025FC7FA3D3E9002316F06CFA22462B46C0
:10F9E00016F01CFC0022844B16F066FA02460B4609
:10F9F0005046594616F03CFD42464B4616F00EFC6A
:10FA0000002682468B4632464B463046494616F023
:10FA100005FC02460B462046294616F04BFA3246B4
:10FA200004460D464B464046494616F045FA024606
:10FA30000B462046294616F01BFD02460B46504653
:10FA4000594616F039FA32464B4616F035FA024658
:10FA50000B4616F031FABDE8F88F694A93420EDC86
:10FA60005DA1D1E90001BDE8F88F02460B4616F012
:10FA700021FA02460B4616F0FBFCBDE8F88F024661
:10FA80000B4616F0CBFB40A3D3E9002306460F46F6
:10FA900016F0C4FB3EA3D3E9002316F00DFA32465C
:10FAA0003B4616F0BBFB3CA3D3E9002316F002FA59
:10FAB00032463B4616F0B2FB39A3D3E9002316F0D9
:10FAC000FBF932463B4616F0A9FB37A3D3E90023E6
:10FAD00016F0F0F932463B4616F0A0FB34A3D3E90A
:10FAE000002316F0E9F932463B4616F097FB32A3A5
:10FAF000D3E90023804689463046394616F08EFB0E
:10FB00002FA3D3E9002316F0D5F932463B4616F071
:10FB100085FB2DA3D3E9002316F0CEF932463B46F0
:10FB200016F07CFB2AA3D3E9002316F0C3F9324672
:10FB30003B4616F073FB00222F4B16F0BDF9024630
:10FB40000B464046494616F093FC22462B4616F0DB
:10FB500065FB02460B4622A1D1E9000116F0AAF985
:10FB600002460B462046294616F0A4F902460B46EB
:10FB700019A1D1E9000116F09DF9BDE8F88F1AA18D
:10FB8000D1E90001BDE8F88F09F7FD0DE13D023F25
:10FB900088B20175E0EF493F3B8F68B52882A43FEA
:10FBA0005544880E55C1C93F7D6FEB0312D6D43F33
:10FBB000555555555555C53F82922EB1C5B8B33FE1
:10FBC00059018D1B6C06E63FC88A599CE52A004006
:10FBD0004B2D8A1C273A0340182D4454FB21F93F32
:10FBE000075C143326A6913C182D4454FB21094090
:10FBF000FFFFEF3FFFFFDF3F0000F03F0000E03F6F
:10FC00000000603C00225C4B16F056F900225B4B72
:10FC100016F004FB40A3D3E9002304460D4616F07A
:10FC2000FDFA3FA3D3E9002316F046F922462B46FE
:10FC300016F0F4FA3CA3D3E9002316F03BF9224670
:10FC40002B4616F0EBFA3AA3D3E9002316F034F969
:10FC500022462B4616F0E2FA37A3D3E9002316F02A
:10FC600029F922462B4616F0D9FA35A3D3E9002309
:10FC700016F022F922462B4616F0D0FA8046894625
:10FC80002046294617F006FF2FA3D3E90023064696
:10FC90000F462046294616F0C1FA2DA3D3E90023CA
:10FCA00016F008F922462B4616F0B8FA2AA3D3E933
:10FCB000002316F001F922462B4616F0AFFA28A3CE
:10FCC000D3E9002316F0F6F822462B4616F0A6FAE2
:10FCD0000022294B16F0F0F802460B4640464946F2
:10FCE00016F0C6FB32463B4616F098FA1EA3D3E93F
:10FCF000002316F0DFF832463B4616F0DDF80246E8
:10FD00000B4616F0D9F802460B4619A1D1E90001BD
:10FD100016F0D0F8BDE8F88F09F7FD0DE13D023F80
:10FD200088B20175E0EF493F3B8F68B52882A43F58
:10FD30005544880E55C1C93F7D6FEB0312D6D43FA1
:10FD4000555555555555C53F82922EB1C5B8B33F4F
:10FD500059018D1B6C06E63FC88A599CE52A004074
:10FD60004B2D8A1C273A0340075C143326A6913C8E
:10FD7000182D4454FB2109400000F03F0000E03FF3
:10FD8000434A91422DE9F84304460D4639DD414A84
:10FD9000914209DD02F17952914240DD02460B4663
:10FDA00016F08AF8BDE8F88301F1404202F58012AE
:10FDB000024330D0B1F1804F3ADC0022364B16F0CE
:10FDC00079F802460B4604460D4616F075F82246B1
:10FDD00006460F462B462046294616F01FFA0246D5
:10FDE0000B463046394616F067F817F053FE0B46BF
:10FDF00002462946204616F05FF8BDE8F843FFF7B3
:10FE0000BFB802460B4616F055F802460B4616F0F0
:10FE10002FFBBDE8F88300200021BDE8F88300F047
:10FE200017FE19A3D3E9002316F046F8BDE8F883BE
:10FE300002460B4616F0F2F90022174B16F03AF87C
:10FE400017F028FE2246804689462B462046294642
:10FE500016F032F8424606460F464B4620462946E3
:10FE600016F02AF802460B4600200B4916F000FB5C
:10FE70000B4602463946304616F01CF8BDE8F843FA
:10FE800000F0E6BDAFF30080EF39FAFE422EE63F08
:10FE9000FFFFEF3FFFFFAF410000F03F0000000019
:10FEA0002DE9F047BE4B21F00048984584B0044648
:10FEB0000D4612DD08F1404808F58018034658EA5F
:10FEC000030321D002460B4615F0F4FF02460B4611
:10FED00016F0CEFA04B0BDE8F087B24B98458A46DA
:10FEE00029DCB8F1795F80F2658191A3D3E9002321
:10FEF00015F0E2FF0022AC4B16F020FCD8B12046F2
:10FF0000294604B0BDE8F0878BA3D3E9002316F09F
:10FF100085F98BA3D3E9002306460F4620462946E0
:10FF200016F07CF902460B463046394615F0C4FF00
:10FF300004B0BDE8F0872046294616F0E7FE0246E9
:10FF40000B460020984915F0B5FF0022974B16F09C
:10FF500065F97DA3D3E9002304460D4616F05EF94A
:10FF60007BA3D3E9002315F0A7FF22462B4616F00A
:10FF700055F979A3D3E9002315F09CFF22462B46BF
:10FF800016F04CF976A3D3E9002315F095FF22462D
:10FF90002B4616F043F974A3D3E9002315F08AFF2A
:10FFA00022462B4616F03AF971A3D3E9002315F047
:10FFB00083FF22462B4616F031F96FA3D3E90023C5
:10FFC000CDE900012046294616F028F96CA3D3E9B3
:10FFD000002315F06FFF22462B4616F01FF96AA387
:10FFE000D3E9002315F068FF22462B4616F016F9D8
:10FFF00067A3D3E9002315F05DFF22462B4616F0D8
:020000040801F1
:100000000DF9694B002215F057FFCDE9020120469A
:10001000294617F03FFD664B984506460F4666DCBD
:10002000DDE90223DDE9000116F022FA3246CDE9CE
:1000300000013B463046394615F03EFF02460B466E
:10004000DDE9000116F0EAF84FF00008CDE9000103
:1000500042463B464046394616F0E0F802460B461B
:100060002046294615F026FF424604460D463B46EB
:100070003046394615F020FF02460B4620462946F9
:1000800016F0F6F902460B4615F016FF02460B462F
:100090002BA1D1E9000115F00DFF02460B46DDE969
:1000A000000115F007FF424604460D463B46404618
:1000B000394615F001FF02460B4637A1D1E9000190
:1000C00015F0F8FE02460B462046294615F0F2FED2
:1000D00002460B4630A1D1E9000115F0EBFEBAF162
:1000E000000F3FF7F7AE01F100431946F2E6DDE9F4
:1000F0000223DDE9000116F0BBF932463B4616F05B
:100100008DF832463B4615F0D7FE02460B4615F0F9
:10011000D3FE0BA3D3E9002315F0CCFE02460B4619
:1001200005A1D1E9000115F0C5FED8E7AFF30080C5
:100130009C7500883CE4377E182D4454FB21F93F20
:10014000075C143326A6913C09F7FD0DE13D023F03
:1001500088B20175E0EF493F3B8F68B52882A43F24
:100160005544880E55C1C93F7D6FEB0312D6D43F6D
:10017000555555555555C53F82922EB1C5B8B33F1B
:1001800059018D1B6C06E63FC88A599CE52A004040
:100190004B2D8A1C273A0340182D4454FB21E93F7C
:1001A000FFFFEF3FFFFFDF3F0000F03F0000E03FB9
:1001B0003233EF3F02460B4616F030F837A3D3E94F
:1001C000002306460F4616F029F836A3D3E900238C
:1001D00015F072FE32463B4616F020F833A3D3E901
:1001E000002315F067FE32463B4616F017F831A3A0
:1001F000D3E9002315F060FE32463B4616F00EF8B8
:100200002EA3D3E9002315F055FE32463B4616F0E7
:1002100005F82CA3D3E9002315F04EFE32463B46E9
:1002200015F0FCFF29A3D3E9002380468946304618
:10023000394615F0F3FF27A3D3E9002315F03AFE62
:1002400032463B4615F0EAFF24A3D3E9002315F01C
:1002500033FE32463B4615F0E1FF22A3D3E90023EB
:1002600015F028FE32463B4615F0D8FF00220A4B17
:1002700015F022FE02460B464046494616F0F8F8B5
:1002800022462B4615F0CAFF22462B4615F014FED7
:1002900004B0BDE8F08700BF0000F03F09F7FD0D96
:1002A000E13D023F88B20175E0EF493F3B8F68B501
:1002B0002882A43F5544880E55C1C93F7D6FEB038A
:1002C00012D6D43F555555555555C53F82922EB13E
:1002D000C5B8B33F59018D1B6C06E63FC88A599CCF
:1002E000E52A00404B2D8A1C273A034000000000FD
:1002F0002DE9F84F1D465342134325F0004ADFF81D
:10030000E0E14AEAD3737345144606460F4647D8E0
:10031000C0F1000848EA000821F0004343EAD87819
:10032000F0458B463CD805F1404808F5801858EA5E
:10033000020850D04FEAA57808F0020848EAD178C0
:1003400050EA030134D052EA0A023CD0F24557D0B9
:10035000734538D0A3EB0A031B153C2B42DC002D60
:1003600070DB22462B463046394616F081F816F0EF
:10037000CDFCFEF751FBB8F1010F5FD0B8F1020FD1
:100380004ED0B8F1000F62D043A3D3E9002315F09B
:1003900091FD43A3D3E9002315F08CFDBDE8F88F50
:1003A00032463B462046294615F086FDBDE8F88FCB
:1003B000B8F1020F1AD0B8F1030F10D13AA1D1E968
:1003C0000001BDE8F88FBBF1000F14DB38A1D1E9C3
:1003D0000001BDE8F88FBDE8F84FFEF71DBB3946B8
:1003E000BDE8F88F32A1D1E90001C4E72CA1D1E921
:1003F0000001BDE8F88F30A1D1E90001BDE8F88F18
:10040000534526D0B8F1020FF0D0B8F1030FD5D084
:10041000B8F1010F4FF0000029D00021BDE8F88F9E
:100420001DA3D3E9002315F045FD02460B461CA190
:10043000D1E9000115F03EFDBDE8F88F01F1004162
:10044000BDE8F88F3C338CDA0020002193E7BDE84B
:10045000F88FB8F1020F18D0B8F1030F10D0B8F12F
:10046000010F08D016A1D1E90001BDE8F88F4FF0C7
:100470000041BDE8F88F14A1D1E90001BDE8F88F73
:1004800013A1D1E90001BDE8F88F13A1D1E9000162
:10049000BDE8F88FAFF30080075C143326A6A13CBB
:1004A000182D4454FB210940182D4454FB2109C048
:1004B000182D4454FB21F93F182D4454FB21F9BF5A
:1004C000182D4454FB21E93F182D4454FB21E9BF6A
:1004D000D221337F7CD902C0D221337F7CD9024024
:1004E0000000F07F0000000043422DE9F047034385
:1004F00021F000463E4A46EAD373934204460D4635
:1005000013D896423DD03B4B9E428A4617DC36A319
:10051000D3E9002315F0D0FC0022002316F00EF9D9
:10052000A8B320462946BDE8F08702460B4615F0E1
:10053000C1FC02460B4615F09BFFBDE8F0872E4B31
:100540009E42354624DD33460246314615F0B4FC62
:10055000224606460F462B460020254915F0AAFCE8
:1005600002460B463046394615F082FFFEF708FD7D
:100570000022224B15F052FEBAF1000F2FDBBDE82E
:10058000F0870022002315F073FFBDE8F0873546A1
:1005900022462B462046294615F08EFC22462B4645
:1005A00006460F4615F03AFE2246804689462B46FF
:1005B00000200F4915F07EFC02460B464046494696
:1005C00015F056FF32463B4615F076FCFEF7D8FC98
:1005D00000220A4B15F022FEBAF1000FCFDA01F12A
:1005E00000431946BDE8F0879C7500883CE4377EDF
:1005F0000000F03FFFFF2F3EFFFFDF3F0000E03F26
:100600002DE9F8434E4B21F000449C4206460F462C
:100610001BDC4C4B9C4222DD4B4B9C4263DD4B4B25
:100620009C427BDD4A4B9C4246DD01339C4240D0DC
:1006300041A3D3E900231046194615F0EFFD064605
:100640000F4630463946BDE8F88302460B4615F0A2
:10065000E5FD06460F4630463946BDE8F88316F0FC
:1006600055FB02F0B1FC00223A4B8046894615F05A
:1006700023FCB4F1725F06460F46ECDB42464B4664
:100680004046494615F0CAFD32463B4604460D46F3
:100690003046394615F010FC02460B4620462946E6
:1006A00015F0E6FE00222B4B15F006FC06460F4621
:1006B000D1E7294B9842BBD83046394616F026FB85
:1006C0000022264B15F0AAFD00F04AF8002204464D
:1006D0000D46224B15F0A2FD22462B4615F09EFD3D
:1006E00006460F46B7E716F011FB00F039F8002276
:1006F0001A4B06460F4615F091FD32463B4604461E
:100700000D460020154915F0B3FE02460B46204663
:10071000294615F0D1FB06460F469CE716F0F6FA7F
:1007200000F01EF800220D4B15F078FD06460F462E
:1007300091E700BFAFF300809C7500883CE4377EF2
:10074000FFFFEF7F422ED63FFFFF3540412E864010
:10075000CD3386400000F03F7DF8B98F0000E03FC8
:100760002DE9F04FB04E21F00042B24283B0044672
:100770000D464FEAD1770DD9AC4EB24225D9C1F31F
:100780001303034340F0EC800FB10020002103B0BD
:10079000BDE8F08FA64B9A4200F2CB80A54B9A425F
:1007A00000F2DC808AA3D3E9002315F085FB002248
:1007B000A14B15F0C3FF002800F006812046294612
:1007C00000229D4B15F078FBE1E783A3D3E90023DA
:1007D00015F0B4FF002840F0C88081A3D3E90023BE
:1007E0002046294615F08CFF0028CED1934E7EA3DB
:1007F000D3E9002306EBC7062046294615F00EFD77
:10080000D6E9002315F058FB15F0B8FF064615F0A1
:100810009FFC77A3D3E900238046894615F0FEFCB0
:1008200002460B462046294615F044FB72A3D3E945
:100830000023CDE900014046494615F0EFFC824611
:100840008B4652465B46DDE9000115F033FB04465A
:100850000D4622462B462046294615F0DFFC68A3AC
:10086000D3E900238046894615F0D8FC66A3D3E976
:10087000002315F01FFB42464B4615F0CFFC64A346
:10088000D3E9002315F018FB42464B4615F0C6FC91
:1008900061A3D3E9002315F00DFB42464B4615F04A
:1008A000BDFC5FA3D3E9002315F006FB42464B468F
:1008B00015F0B4FC02460B462046294615F0FAFA1C
:1008C00080468946002E58D02046294642464B464F
:1008D00015F0A4FC424604460D464B4600204FF05E
:1008E000804115F0E7FA02460B462046294615F0EE
:1008F000BFFD02460B465046594615F0DBFADDE9CE
:10090000002315F0D7FA0B4602464B49002015F09C
:10091000D1FA6FF47F739E4251DA06F57A7601EBD5
:10092000065100224FF0B87315F078FC03B0BDE813
:10093000F08F434B9A423FF659AF424BFC002344A1
:10094000D3E9002315F0B6FA3F4BC7F10106234463
:10095000CDE90001D3E900ABF61B72E7002678E78A
:1009600002460B4615F0A8FA11E719A3D3E90023B4
:100970001046194615F052FC09E702460B46204680
:10098000294615F04BFC002206460F464FF08043E7
:100990004046494615F08EFA02460B463046394627
:1009A00015F066FD22462B4615F084FA02460B46EA
:1009B0000020214915F07EFA03B0BDE8F08F01EB6D
:1009C000065103B0BDE8F08F064642E7AFF3008062
:1009D0009C7500883CE4377EEF39FAFE422E864053
:1009E00051302DD5104987C0FE822B654715F73F42
:1009F0000000E0FE422EE63F763C7935EF39EA3DD5
:100A0000D0A4BE726937663EF16BD2C541BDBB3E14
:100A10002CDE25AF6A56113F93BDBE166CC1663FF2
:100A20003E5555555555C53F412E8640FFFFEF7F3A
:100A3000422ED63FFFFF2F3E0000F03F889702086E
:100A4000B1A2F03F98970208A897020800000000A2
:100A50002DE9F04FB1F5801F85B006460F460B46D5
:100A60005ADA024621F00044224300F0F8800029BF
:100A7000C0F27A810022D64B15F0D0FBD54A0B4646
:100A8000934206460F466FF0350C4ADCC3F313055C
:100A900005F5152E0EF6647E0EF4801E8EF07F5244
:100AA00082F440121C1542EA0507A4F2FF346444A4
:100AB0000022C94B3046394604EB1E5415F0FAF9B2
:100AC000AB1CC3F31303022B82468B464FF000028C
:100AD00030DC002315F00AFE002800F0C980002C4D
:100AE00000F04B81204615F033FBA5A3D3E900238A
:100AF00006460F4615F092FBA3A3D3E90023044654
:100B00000D463046394615F089FB02460B46204615
:100B1000294615F0D1F90AE0AE4A93424FF0000C95
:100B2000B4DD32463B463046394615F0C5F905B0CE
:100B3000BDE8F08F4FF0804315F0BEF902460B463A
:100B40005046594615F094FC064620460F4615F0CF
:100B5000FFFA3246CDE900013B4630463946CDE941
:100B6000026715F05BFB02460B468046894615F08E
:100B700055FB87A3D3E9002306460F4615F04EFB2D
:100B800085A3D3E9002315F097F932463B4615F0CB
:100B900045FB83A3D3E9002315F08EF932463B468B
:100BA00015F03CFB80A3D3E9002315F085F94246FC
:100BB0004B4615F033FB7EA3D3E9002380468946DC
:100BC0003046394615F02AFB7BA3D3E9002315F004
:100BD00073F932463B4615F021FB79A3D3E9002394
:100BE00015F06AF932463B4615F018FB0B460246F3
:100BF0004946404615F060F9A5F5C223C5F5D7254D
:100C0000A3F27A4351351D43002D8046894656DDB7
:100C10000022724B5046594615F000FB52465B4687
:100C200015F0FCFA06460F46002C68D132463B46CA
:100C30004046494615F040F9DDE9022315F0EEFA89
:100C400002460B463046394615F034F902460B464B
:100C50005046594615F02EF905B0BDE8F08F002238
:100C6000002300205E4915F003FC05B0BDE8F08FBD
:100C700055A3D3E900235046594615F0CFFA024652
:100C80000B460020554915F015F9524606460F4609
:100C90005B465046594615F0C1FA02460B463046AF
:100CA000394615F0BBFA06460F46002C40F09A80F4
:100CB00002460B465046594615F0FCF837E7002C23
:100CC00000F0A4802EA3D3E90023DDE9000115F094
:100CD000A5FA42464B4604460D465046594615F085
:100CE000E9F8DDE9022315F099FA27A3D3E90023F7
:100CF00006460F46DDE9000115F090FA21E020A339
:100D0000D3E90023DDE9000115F088FA32463B46BD
:100D100004460D464046494615F0CEF8DDE902236B
:100D200015F07CFA18A3D3E9002380468946DDE953
:100D3000000115F073FA02460B464046494615F08D
:100D4000BBF802460B463046394615F0B3F852461A
:100D50005B4615F0AFF802460B462046294615F0D3
:100D6000A9F805B0BDE8F08F02460B4615F0A2F8D1
:100D70000022002315F07CFBD9E600200021D6E6F6
:100D80000000E0FE422EE63F763C7935EF39EA3D41
:100D900044523EDF12F1C23FDE03CB966446C73FAA
:100DA000599322942449D23F935555555555E53FC3
:100DB0009FC678D0099AC33FAF788E1DC571CC3FCE
:100DC00004FA97999999D93F555555555555D53F99
:100DD00000005043FFFFEF7F0000F03F0000E03FC6
:100DE000000050C3204615F0B3F90FA3D3E9002348
:100DF0008046894615F012FA0DA3D3E90023044674
:100E00000D464046494615F009FA9AE702460B4658
:100E10005046594615F04EF8DDE9022315F0FEF96B
:100E200014E700BFAFF300800000E0FE422EE63F73
:100E3000763C7935EF39EA3DB1F5801F2DE9F8436D
:100E400004460D460B461ADA024621F000463243AC
:100E500059D000295FDB00223B4B15F0DFF93B4AFC
:100E60000D462B46934204466FF035010CDD2246B9
:100E70002B462046294615F01FF8BDE8F883334A73
:100E800093424FF00001F2DC1815A0F2FF30084445
:100E90004FEAD0794844C3F3130815F059F9C9F55E
:100EA0007F73033348EA035506460F46204629461A
:100EB000FFF7CEFD1EA3D3E90023804689463046C6
:100EC000394615F0ABF91CA3D3E9002304460D46BF
:100ED0004046494615F0A2F902460B4620462946EF
:100EE00014F0EAFF16A3D3E9002304460D4630466A
:100EF000394615F093F902460B462046294614F070
:100F0000DBFFBDE8F883002200230020104915F024
:100F1000AFFABDE8F88302460B4614F0CBFF00227F
:100F2000002315F0A5FABDE8F88300BFAFF30080F9
:100F3000362BF111F3FE593D0EE526157BCBDB3F39
:100F400000609F501344D33F00005043FFFFEF7FEA
:100F5000000050C3000000002DE9F04F23F00047CF
:100F600057EA020493B037D0674C21F00046A642FE
:100F700083460D4629DC9A46964625D0A74224DCB6
:100F8000614CA74279D0002D80468946CDE90023E7
:100F900077DB0024BEF1000F2CD15B4B9F4200F0A9
:100FA0008B805A4B9F4261D0BAF1804F00F0C383CF
:100FB000574B9A451ED1002D1CDB4046494613B0C5
:100FC000BDE8F04F16F066BD58B106F1404606F593
:100FD000801656EA0B0306D14C49002013B0BDE839
:100FE000F08FB742CCDD4B4813B0BDE8F04F17F09F
:100FF000E1BB00244046494615F088FEBBF1000FD6
:1010000019D126B1414B25F040429A4213D1BAF191
:10101000000FC0F2CA83002DE0DA06F1404606F563
:10102000801656EA040300F0A584012CD6D101F104
:1010300000431946D2E7ED0F013D54EA05034ED0B7
:10104000354B9F426EDD03F104739F4240F3FE83F4
:10105000324B9E424EDDBAF1000F4EDD28A3D3E99C
:1010600000231046194615F0D9F8B7E7BAF1000F7A
:10107000C0F2528440464946B0E7BEF1000F82D02C
:10108000A3E7274B9F4228DCA3F154739F4280DDE6
:101090003B15A3F2FF33142B40F35484C3F1340304
:1010A0002EFA03F202FA03F39E457FF472AF02F0C8
:1010B0000102C2F102046DE706F1404303F580131B
:1010C00053EA0B0388D0154B9E4240F33B83BAF1A1
:1010D000000F12DBDDE9000180E702245AE74246F7
:1010E0004B461046194614F0E5FE02460B4615F035
:1010F000BFF973E7BAF1000FB0DB002000216DE704
:101100009C7500883CE4377E0000F07F0000F03FD3
:101110000000E03FECAA02080000E041FFFFEF3FC3
:10112000FFFF3F43B6F5801F4FF0000205DAD84BB2
:1011300015F074F86FF034020E463315D54FC6F330
:101140001306A3F2FF33134446F07F5ABE421A46F9
:101150000D934AF4401A40F32F83CF4B9E4240F345
:101160000D849FEDB57B8DED087B8DED0E7B9FEDA6
:10117000B47B13468DED067B01330D93AAF5801ADF
:101180000027DDE906235146CDE90A0114F092FE5D
:10119000DDE9062380468946DDE90A0114F08CFE6C
:1011A00002460B460020BD4915F062F90A46014689
:1011B000CDE91012134649460246404615F02EF876
:1011C0004FEA6A0343F000538C46834603F500233D
:1011D000CDE904BCDA468B46D9190023CDE902AB30
:1011E0000293DDE902AB002006460F4602460B469D
:1011F0005046594615F012F802460B4640464946FD
:1012000014F058FEDDE9062380468946304639460B
:1012100014F050FE02460B46DDE90A0114F04AFEC6
:1012200052465B4614F0FAFF02460B4640464946DA
:1012300014F040FEDDE9102314F0F0FFDDE904674F
:10124000CDE9060132463B463046394614F0E6FF0A
:101250007DA3D3E9002306460F4614F0DFFF7CA3ED
:10126000D3E9002314F028FE32463B4614F0D6FFA3
:1012700079A3D3E9002314F01FFE32463B4614F055
:10128000CDFF77A3D3E9002314F016FE32463B4688
:1012900014F0C4FF74A3D3E9002314F00DFE32460A
:1012A0003B4614F0BBFF72A3D3E9002314F004FE05
:1012B0003246804689463B463046394614F0AEFFFA
:1012C00002460B464046494614F0A8FF52460646E1
:1012D0000F465B46DDE9040114F0EEFDDDE906236F
:1012E00014F09CFF32463B4614F0E6FD5246804621
:1012F00089465B465046594614F090FF0022684BE1
:10130000CDE90A0114F0D8FD42464B4614F0D4FD55
:1013100002980F46064632463B465046594614F060
:101320007DFF002282468B465D4B3046394614F0E5
:10133000C1FDDDE90A2314F0BDFD02460B4640461F
:10134000494614F0B7FDDDE9042314F067FF324687
:10135000804689463B46DDE9060114F05FFF024600
:101360000B464046494614F0A7FD80468946024692
:101370000B4650465946CDE904AB14F09DFDDDE91E
:1013800002AB3DA3D3E9002350460F4614F046FFBD
:10139000DDE90423CDE902013946504614F08AFD07
:1013A00002460B464046494614F084FD34A3D3E977
:1013B000002314F033FF34A3D3E900238046894689
:1013C0005046394614F02AFF02460B46404649462D
:1013D00014F072FDDDE90E2314F06EFD80460D98C9
:1013E000894614F0B5FE424606460F464B46DDE9F7
:1013F000020114F061FDDDE9082314F05DFD3246C1
:101400003B4614F059FD32463B4650468B4614F09D
:1014100051FDDDE9082314F04DFDDDE9022314F050
:1014200049FD02460B464046494614F043FD8046BE
:10143000894637E0AFF300800000000000000000A4
:10144000000000000000F03FEF4E454A287ECA3FF2
:1014500065DBC9934A86CD3F01411DA96074D13F28
:101460004D268F515555D53FFFAB6FDBB66DDB3F3A
:10147000033333333333E33F000000E009C7EE3F6B
:10148000FD033ADC09C7EE3FF5015B14E02F3EBED9
:10149000000040438E98030079B60B000000F03F37
:1014A00000000840013C54EA050300F079819FEDFB
:1014B000C87B8DED047BDDE900120B461446CDE9B7
:1014C000023400230293DDE9024508462B4611460B
:1014D000224614F0EFFC52465B4614F09FFEDDE915
:1014E000002306460F464046494614F097FE024642
:1014F0000B463046394614F0DFFC224680468946CA
:101500002B4650465946CDE9008914F087FE0B461C
:10151000024606460F464046494614F0CDFCC64BEF
:10152000994204460D468A4640F3168101F13F4335
:1015300003F5E003034340F0F781A7A3D3E90023B9
:10154000DDE9000114F0B8FC3246804689463B468E
:101550002046294614F0AEFC02460B46404649465A
:1015600015F0ECF8002840F0DF81A8464FEA285338
:101570004FF48012A3F2FE3342FA03F35344C3F351
:101580000A52AE4DA2F2FF321541C3F3130423EA0F
:1015900005010020C2F1140B44F48014BAF1000FCD
:1015A00002460B4644FA0BFB30463946B8BFCBF136
:1015B000000B14F07FFC02460B4606460F46DDE9A1
:1015C000000114F079FC4FEA0B5A0D46002484A365
:1015D000D3E900232046294614F020FE32468046F7
:1015E00089463B462046294614F064FC02460B46D9
:1015F000DDE9000114F05EFC7BA3D3E9002314F0C5
:101600000DFE7BA3D3E9002306460F46204629465C
:1016100014F004FE02460B463046394614F04CFCEA
:1016200006460F4602460B464046494614F044FC27
:1016300042464B4604460D4614F03CFC02460B461F
:101640003046394614F036FC2246804689462B4601
:101650002046294614F0E2FD67A3D3E9002306469D
:101660000F4614F0DBFD66A3D3E9002314F022FC3F
:1016700032463B4614F0D2FD63A3D3E9002314F0B5
:101680001BFC32463B4614F0C9FD61A3D3E900239D
:1016900014F010FC32463B4614F0C0FD5EA3D3E9C3
:1016A000002314F009FC32463B4614F0B7FD024615
:1016B0000B462046294614F0FDFB06460F4602461F
:1016C0000B462046294614F0A9FD0022CDE9000171
:1016D0004FF080433046394614F0ECFB02460B468F
:1016E000DDE9000114F0C4FE424606460F464B46B3
:1016F0002046294614F092FD42464B4614F0DCFB8E
:1017000002460B463046394614F0D4FB22462B469F
:1017100014F0D0FB02460B460020494914F0CAFBE6
:101720008A44BAF5801FC0F239815146DDE90423AD
:1017300014F074FD52E442464B464046494614F0CC
:101740006DFD4BE4BAF1000FBFF6D7ACDDE9003414
:10175000184604F1004141E43A4B21F00048984515
:1017600040F3FF80384B0B4403430CD132463B46D9
:1017700014F0A0FB02460B46DDE9000114F0CAFF9D
:1017800000283FF4F3AEDDE9040125A3D3E90023EB
:1017900014F044FD22A3D3E9002314F03FFD1DE41F
:1017A0009FED217B8DED047B85E602460B460020F4
:1017B000234914F05DFE2EE49FED1D7B8DED087B2B
:1017C0008DED0E7B9FED027B00278DED067BD8E42F
:1017D000000000000000F03FFE822B654715973C9B
:1017E00000000000432EE63FEF39FAFE422EE63FAE
:1017F000396CA80C615C20BED0A4BE726937663E0D
:10180000F16BD2C541BDBB3E2CDE25AF6A56113F00
:1018100093BDBE166CC1663F3E5555555555C53FE7
:1018200059F3F8C21F6EA501000000000000F0BFD0
:101830000000000000000000FFFF8F40FFFF0F00CE
:101840000000F03FFFCB904000346F3F684B9E425A
:101850007FF750AC674B9E423FF7FDAB0022654BD4
:1018600014F028FB52A3D3E9002306460F4614F0D8
:10187000D5FC51A3D3E9002380468946304639463A
:1018800014F0CCFC002282468B465B4B3046394636
:1018900014F0C4FC02460B4649A1D1E9000114F042
:1018A00009FB32463B4614F0B9FC02460B460020C9
:1018B000524914F0FFFA3246CDE902013B46304668
:1018C000394614F0ABFC02460B46DDE9020114F088
:1018D000A5FC3DA3D3E9002314F0A0FC02460B466F
:1018E0005046594614F0E6FA02460B4606460F46A5
:1018F0004046494614F0E0FA42464B4600208246F4
:101900008B4614F0D7FA02460B463046394614F09F
:10191000D1FA80468946C5E542464B460020354906
:1019200014F0A6FDFFF75ABBDDE9040128A3D3E9B3
:10193000002314F073FC26A3D3E9002314F06EFCFB
:10194000FFF74CBBBEF1000F7FF453ABC3F11403A0
:1019500047FA03F202FA03F39F4223D07446FFF7DB
:1019600020BB264B98453FF701AEDDE902239246A6
:1019700093462BE602460B46FFF7B3BB9FED167B63
:101980008DED087B9FED167B8DED0E7B9FED167B1D
:101990004FF480278DED067BFFF7F3BB5A4601F02D
:1019A0004FFDC3E602F00102C2F10204FFF7F9BAEB
:1019B000000000604715F73F44DF5DF80BAE543E72
:1019C000555555555555D53FFE822B654715F73F63
:1019D0009C7500883CE4377E0000004003B8E23F7D
:1019E00006D0CF43EBFD4C3E000000000000F83F66
:1019F000FEFFEF3F0000F03F0000D03F0000E03F5F
:101A00002DE9F0479C4B21F000479F4290B0804663
:101A1000894640F38E80994B9F420C46924626DCC5
:101A200000298BA3D3E9002340F3B08114F042FADC
:101A3000934B9F4204460D4600F0908086A3D3E965
:101A4000002314F037FA02460B46CAE90023204669
:101A5000294614F02FFA80A3D3E9002314F02AFAC0
:101A60000125CAE90201284610B0BDE8F087854B80
:101A70009F4240F39080844B9F4265DC3D15A5F268
:101A80001645A7EB055319461F46064614F076FE89
:101A900014F05EFB8046894642464B463046394646
:101AA000CDE90A8914F006FA0022784B14F0B6FB4F
:101AB0008946804614F062FE14F04AFB06460F4643
:101AC00032463B4640464946CDE90C6714F0F2F9F0
:101AD00000226E4B14F0A2FB00220023CDE90E0180
:101AE00014F004FE002800F06F81002330463946D0
:101AF000002214F0FBFD002814BF01230223644AD6
:101B0000019202212A4600910AA8514600F08CFB5E
:101B1000002C054614DADAF80420DAF80C3002F169
:101B2000004203F100434542CAF80420CAF80C30D1
:101B300006E000200021C2E90089C2E90201002577
:101B4000284610B0BDE8F08702460B4614F0B2F903
:101B50000025CAE90201CAE90001F1E740A3D3E97F
:101B6000002314F0A7F940A3D3E900230D4604464F
:101B700014F0A0F902460B46CAE900232946204684
:101B800014F098F938A3D3E9002314F093F9012550
:101B9000CAE90201D4E715F0B9F835A3D3E9002367
:101BA0008046894614F03AFB00223A4B14F084F93F
:101BB00014F0E4FD054614F0CBFA25A3D3E9002385
:101BC000CDE9060114F02AFB02460B464046494681
:101BD00014F070F920A3D3E90023CDE90201DDE977
:101BE000060114F01BFB1F2D80468946CDE90489B0
:101BF00054DC294B6A1E53F822309F424ED00246D5
:101C00000B46DDE9020114F055F980468946CAE920
:101C1000008942464B46DDE9020114F04BF9DDE94B
:101C2000042314F047F9002CCAE9020188DA09F10B
:101C3000004401F100436D42CAF80080CAF8044034
:101C4000CAF80800CAF80C307AE700BFAFF300808A
:101C500000004054FB21F93F3163621A61B4D03D6A
:101C60000000601A61B4D03D7370032E8A19A33B43
:101C700083C8C96D305FE43FFB21E93F7BD9024057
:101C8000FB21F93FFB213941FFFFEF7F000070414D
:101C900044AD02080000E03FC4AC0208DDE90423C3
:101CA000DDE9020114F006F93F15C1F30A53FB1AEE
:101CB00080468946102BCAE90089AADD58A3D3E9DA
:101CC0000023DDE9060114F0A9FA804689460246A0
:101CD0000B46DDE9020114F0EDF802460B46DDE9A2
:101CE0000201CDE9082314F0E5F842464B4614F012
:101CF000E1F84DA3D3E9002380468946DDE90601DA
:101D000014F08CFA42464B4614F0D4F80B46CDE959
:101D100004010246DDE9080114F0CCF8C1F30A53CE
:101D2000FF1A80468946312FCAE900896CDD41A33C
:101D3000D3E90023DDE9060114F070FADDE9088932
:101D400006460F4602460B464046494614F0B2F896
:101D500002460B4640464946CDE9022314F0AAF854
:101D600032463B4614F0A6F834A3D3E900230646D6
:101D70000F46DDE9060114F051FA32463B4614F0F5
:101D800099F802460B46CDE904233AE714F094F89B
:101D9000274B9F4204460D4618D01FA3D3E90023CA
:101DA00014F08AF802460B46CAE900232946204669
:101DB00014F080F818A3D3E9002314F07DF84FF055
:101DC000FF35CAE90201BBE6032398E614A3D3E971
:101DD000002314F071F814A3D3E900230D46044640
:101DE00014F06AF802460B46CAE900232946204649
:101DF00014F060F80CA3D3E9002314F05DF84FF061
:101E0000FF35CAE902019BE69DED087B8DED027B63
:101E1000FFE600BFAFF300803163621A61B4D03DCA
:101E20000000601A61B4D03D7370032E8A19A33B81
:101E3000FB21F93F0000002E8A19A33BC149202550
:101E40009A837B3900000000594A2DE9F84F21F0B0
:101E50000048904506460F462BDC564B0029B4BF80
:101E6000554D564D98454FF0000410DC544B9845A5
:101E700070DC4DA3D3E9002314F01EF80022514B6F
:101E800014F05CFCD8B130463946BDE8F88F4E4BB3
:101E900098457CDD4D4B984544DD013398453ED057
:101EA0003046394640A3D3E9002314F0B7F9BDE822
:101EB000F88F02460B4613F0FFFFBDE8F88F30465F
:101EC000394614F023FF01F07FF806460F463246EC
:101ED0003B463046394613F0EFFF324682468B468A
:101EE0003B463046394614F099F90022804689462F
:101EF000344B3046394613F0DFFF02460B4640466E
:101F0000494614F0B5FA02460B465046594613F0BE
:101F1000D1FF22462B4614F081F9BDE8F88F2C4BF7
:101F20009842BDD83046394614F0F0FE0022234BCB
:101F300014F074F9FEF714FC06460F4602460B46F1
:101F40002046294614F06AF932463B4614F066F9F9
:101F5000BDE8F88F14F0DAFE01F036F81D4B984515
:101F600006460F46B3DD0022164B13F0A5FF0246CE
:101F70000B463046394614F07BFA32463B4613F0A6
:101F80009BFF22462B4614F049F9BDE8F88F14F068
:101F9000BDFEFEF7E5FB02460B462046294614F03F
:101FA0003DF9BDE8F88F00BF3374AC3C1F7BAC7FBC
:101FB000FFFFEF7FFFFF35400000E0BF0000E03F84
:101FC000FFFF2F3E0000F03F412E8640CD3386407C
:101FD0007DF8B98FFFFFEF3F2DE9F04F21F000486A
:101FE000B8F1795F85B006460F4692469B466BDA9C
:101FF00014F0C4FB002800F0EA8032463B4630462D
:10200000394614F00BF974A3D3E9002304460D46B6
:1020100014F004F972A3D3E9002313F04DFF224614
:102020002B4614F0FBF870A3D3E9002313F042FF12
:1020300022462B4614F0F2F86DA3D3E9002313F0E7
:102040003BFF22462B4614F0E9F86BA3D3E90023AB
:1020500013F030FF22462B4614F0E0F868A3D3E9D2
:10206000002313F029FF22462B4614F0D7F8CDE9C0
:1020700000010022664B2046294614F0CFF8DDE926
:102080000023804689462046294614F0C7F8524668
:1020900004460D465B463046394614F0BFF802460A
:1020A0000B462046294613F005FF02460B464046E4
:1020B000494613F0FFFE02460B460020554913F037
:1020C000F9FE05B0BDE8F08F02460B4614F0A6F805
:1020D00041A3D3E9002304460D4614F09FF840A322
:1020E000D3E9002313F0E8FE22462B4614F096F8BD
:1020F0003DA3D3E9002313F0DDFE22462B4614F066
:102100008DF83BA3D3E9002313F0D6FE22462B46DD
:1021100014F084F838A3D3E9002313F0CBFE224651
:102120002B4614F07BF836A3D3E9002313F0C4FE4A
:102130002B46224614F072F8374B9845CDE9000142
:1021400097DD364B984539DCA8F5001300220020B6
:1021500030499046994613F0ADFECDE902010022C8
:102160002B4B2046294614F059F842464B4613F0B3
:10217000A1FEDDE90023804689462046294614F069
:102180004DF8524604460D465B463046394614F03B
:1021900045F802460B462046294613F08BFE0246C0
:1021A0000B464046494613F085FE02460B46DDE9E4
:1021B000020113F07FFE05B0BDE8F08F9FED127BAA
:1021C0004FF000088DED027BDFF85490C7E711490E
:1021D000002005B0BDE8F08FD43888BEE9FAA8BD6C
:1021E000C4B1B4BD9EEE213EAD529C804F7E923E66
:1021F0009015CB19A001FA3E7751C1166CC1563F1C
:102200004C5555555555A53F000000000000E73FCF
:102210000000E03F0000F03F3233D33F0000E93FD1
:102220000000D23F000000002DE9F04FADF51B7D0E
:102230009F4CA49E9F4D54F8264007942646D41EDA
:1022400085FB0475E417C4EBA50424EAE4741D4679
:102250000A93631CA3EB8303013D02EBC3030693C4
:102260002B460B940395651BF418049008911AD41F
:102270002C440026002701340DF18808DDF89492E3
:1022800008E059F8250013F063FF0135A542E8E89E
:10229000020108D0002DF4DA013530463946A54256
:1022A000E8E80201F6D1079B002BC0F2DF83079B11
:1022B00003F1010B0A9B22A9DB001A4601EB03097B
:1022C0000093049B0DF5E47A19460AEBCB0B01EB66
:1022D0000208039B002BC0F2F582049C4D460026A9
:1022E000002775E90223F4E8020113F097FF024684
:1022F0000B463046394613F0DFFD444506460F468F
:10230000EFD1EAE80267DA4509F10809E1D1079956
:102310000098049C009101F18043013B9B00204404
:102320001A1F83460EA8024403440C920D93009A90
:102330009AA901EBC203002A53E9284529DD0DF5CE
:10234000E47A0AEBC2080DF1340900225A4B204608
:10235000294613F063FF14F011FA13F0F9FE00227E
:10236000564B06460F4613F059FF02460B462046D1
:10237000294613F09FFD14F001FA78E9022349F889
:10238000040F3946304613F097FDD04504460D46FC
:10239000DBD1DDF81890204629464A4601F050F876
:1023A00000224FF07F5304460D4613F037FFFCF731
:1023B0005FFD0022424B13F031FF02460B462046E0
:1023C000294613F077FD0D46044614F0D7F98046F0
:1023D00013F0BEFE0B4602462946204613F06AFD66
:1023E0004B46002B06460F4640F3F980009A0EA993
:1023F000013AC9F1180351F8225045FA03F101FAE4
:1024000003F30EA8EB1A40F82230C9F117058844EF
:1024100043FA05F5002D6DDD009B002B08F1010846
:1024200040F36F820E9C002C40F01683009B012B22
:1024300040F38F820EAA012352F8044F002C00F0C3
:102440008382581C0EAAC4F1807442F82340009A7B
:10245000824219DD0EAA0EAC52F820106FF07F42B6
:10246000511A44F820100099023399420CDD1046AD
:10247000009A0EA901EB830301EB82011A68821A0C
:1024800043F8042B8B42F9D1069B002B1ADD069BE7
:10249000012B4FF0010440F03C82009B5A1E0EAB12
:1024A0000EA953F82230C3F3160341F822303CE260
:1024B000E4B10208ABAAAA2A0000703E00007041F5
:1024C00000002040022D15D132463B4600209249A3
:1024D00013F0F0FC06460F46069A8F49002000F0E4
:1024E000AFFF02460B463046394613F0E3FC0225A7
:1024F00006460F46002200233046394614F0F6F80F
:10250000002800F03782009A079B501E83420FDCA0
:1025100002F18043013B0EAA0D9C02EB83030022D3
:1025200053F80419A34242EA0102F9D1002A67D103
:10253000079B0EAA013B52F82330002B40F0188273
:102540000C9A012352F8041901330029FAD0009A99
:10255000D31802F1010A9A4509933DDC009B0A99C0
:102560000B9A0B4409990AEB0208994622AB08F131
:10257000804803EBC9098B18A59A08F1FF3802EBD4
:10258000880872AA02EBCA0AA59A02EB8303009399
:1025900058F8040F13F0DCFD039B002BE9E802015F
:1025A0004FF000064FF0000711DB049C4D4675E923
:1025B0000223F4E8020113F031FE02460B463046D6
:1025C000394613F079FC5C4506460F46EFD1009B77
:1025D0009845EAE80267DBD1099B0093A7E606D19C
:1025E000009B0EAA013B52F82350ED1512E7002282
:1025F0004A4B14F099F8002840F06E81054679E7BF
:102600000EA9039551F820300699CDF82480183989
:102610000246009006916BB900F18043013B0EA881
:1026200000EB830353F80409013A18390028F9D064
:1026300000920691069A3849002000F001FF009BA5
:10264000002B04460D46C0F2F781DA0072A901EBB7
:10265000020B06920EAA02EB8306DFF8C4904FF03D
:1026600000080BF10807043656F8040D13F070FD4E
:1026700022462B4613F0D2FD4B4667E90201424643
:102680002046294613F0CAFD0EAB9E4204460D4675
:10269000EAD14AACDDF81C9004944FF0000AB9F17D
:1026A000000FC0F22B81DFF87C805D4618A1D1E9D4
:1026B000000100260027002403E0544510DCF8E860
:1026C0000201F5E8022313F0A9FD02460B4630464D
:1026D000394613F0F1FB0134A14506460F46ECDA0A
:1026E000049B03EBCA03ABF1080BC3E9006770ABB3
:1026F0009B450AF1010AD2D1A49B049C032B00F252
:102700008980DFE803F0C58E8E1100BFAFF3008033
:1027100000000040FB21F93F0000F03F0000E03FD7
:102720000000703ED0970208009B002B40F381818F
:10273000069A04EB020ADAE9008902F10805254449
:102740000DF5987B1AED027B42464B4651EC170B78
:102750008DED047B13F0B0FB06460F4602460B4698
:10276000DDE9040113F0A6FB42464B4613F0A4FB3F
:1027700065E902015D45B046B9466AE90267E1D103
:10278000009B012B40F35581069BE518D5E9008994
:1027900003F1080B04EB0B0A15ED027B42464B4696
:1027A00051EC170B8DED007B13F086FB06460F46B0
:1027B00002460B46DDE9000113F07CFB4B46424626
:1027C00013F07AFB6AE902014EAB5345B046B946B5
:1027D00065E90267E0D10020002104EB0B0575E9F3
:1027E000022313F069FBAA45F9D1039B002B00F0EB
:1027F0000A816268E368089F2568A4683D6002F169
:10280000004203F1004301F100417A60FB60BC60CB
:1028100038617961099B03F007000DF51B7DBDE868
:10282000F08F069D083525440020002175E902231C
:1028300013F042FBA542F9D1039B002B00F0D2809C
:10284000089E024601F1004386E80C000B46024652
:10285000D4E9000113F02EFB009B002B0BDD4CADE7
:102860000124F5E8022313F027FB009B0134A34267
:10287000F7DA039B13B101F100431946089BC3E942
:102880000201099B03F007000DF51B7DBDE8F08FE9
:10289000069D083500200021254475E9022313F028
:1028A0000BFBAC42F9D1039B13B101F10043194674
:1028B000089BC3E90001099B03F007000DF51B7D90
:1028C000BDE8F08F00260027EAE80267DA4509F143
:1028D00008097FF4FEAC1AE5009B002B08F1010803
:1028E000C8BF02253FF79EAD32463B4600206149F6
:1028F00013F0E0FA022506460F46FBE50026002706
:10290000EEE6069B002B27DD0024069B012B3FF4FF
:10291000C4AD022B09D1009B5A1E0EAB0EA953F871
:102920002230C3F3150341F82230022D7FF4E2ADCB
:1029300032463B4600204F4913F0BCFA06460F468C
:10294000002C3FF4D7ADC7E50099013399427FF4DD
:1029500073AD069B002BD8DC022D7FF4CBAD324645
:102960003B460020434913F0A5FA06460F46C1E551
:102970000123ECE53946069F03957A423046CDF8AF
:10298000248000F05DFD00223B4B04460D4613F011
:10299000CBFE002843D00022384B2046294613F0B6
:1029A0003DFC13F0EBFE064613F0D2FB0022324B47
:1029B00013F034FC02460B462046294613F07AFAFF
:1029C00013F0DCFE00990B4601331A4600933B4698
:1029D000183306930B460EA941F82300134641F81D
:1029E000236027E6089B0246C3E900010B46D4E9B1
:1029F000000113F05FFA009B002B3FF730AF089BFC
:102A0000C3E902013DE7D4E90067D4E90223089D48
:102A1000C5E90401C5E90067C5E90223FAE62946CC
:102A2000204613F0ABFE009A0EA941F8220001E601
:102A30004AAC00200021D8E6A49B032B3FF6EAAE67
:102A400001A252F823F000BF672A01085F2A01089B
:102A50005F2A0108312A010801200023F2E4002046
:102A600000214AACE8E6002000211CE70A9BDB00BD
:102A700000934CE40000F03F000070410000703E05
:102A80002DE9F04F21F00046B6F1795F85B004469C
:102A90000D469046994604DA13F070FE002800F0C7
:102AA000858022462B462046294613F0B7FB064672
:102AB0000F4602460B462046294613F0AFFB41A3C2
:102AC000D3E9002382468B463046394613F0A6FBF5
:102AD0003EA3D3E9002313F0EDF932463B4613F051
:102AE0009DFB3CA3D3E9002313F0E6F932463B46B5
:102AF00013F094FB39A3D3E9002313F0DBF932463A
:102B00003B4613F08BFB37A3D3E9002313F0D4F932
:102B10000E9BCDE900019BB30022294B404649465C
:102B200013F07CFBDDE90023CDE902015046594654
:102B300013F074FB02460B46DDE9020113F0BAF90B
:102B400032463B4613F06AFB42464B4613F0B2F95D
:102B500019A3D3E9002306460F465046594613F001
:102B60005DFB02460B463046394613F0A5F9024696
:102B70000B462046294613F09DF905B0BDE8F08FBD
:102B800002460B463046394613F048FB0AA3D3E908
:102B9000002313F08FF952465B4613F03FFB2246A9
:102BA0002B4613F089F905B0BDE8F08F2046294681
:102BB00005B0BDE8F08F00BF495555555555C53F87
:102BC0000000E03F7CD5CF5A3AD9E53DEB9C2B8AFB
:102BD000E6E55A3E7DFEB157E31DC73ED561C119FA
:102BE000A0012A3FA6F810111111813F000000003A
:102BF0002DE9F04FBE4C21F0004687B0A642824638
:102C00008B460F46CDE900231BDC13F0B7FD0028EF
:102C100037D153461E43109B0133334300F0B38139
:102C2000109B012B00F0C88152465B460020B14941
:102C300013F01EFC04460D462046294607B0BDE8A9
:102C4000F08FAD4B9E421CDD0029C0F2A981524697
:102C50005B4687A1D1E9000113F02CF9DDE90023DF
:102C600004460D4684A1D1E9000113F023F99FED3C
:102C7000847B22462B468DED007B13F01DF98246A6
:102C80008B4652465B465046594613F0C7FA0246F9
:102C90000B468046894613F0C1FA424604460D466B
:102CA0004B465046594613F0B9FA77A3D3E90023AF
:102CB000CDE902012046294613F0B0FA74A3D3E906
:102CC000002313F0F9F822462B4613F0A7FA72A35B
:102CD000D3E9002313F0F0F822462B4613F09EFAB6
:102CE0006FA3D3E9002313F0E7F822462B4613F035
:102CF00095FA6DA3D3E9002313F0DEF822462B46A4
:102D000013F08CFA6AA3D3E9002313F0D5F84246F6
:102D10004B4613F083FA68A3D3E90023CDE90401FD
:102D20002046294613F07AFA65A3D3E9002313F06D
:102D3000C3F822462B4613F071FA63A3D3E90023AC
:102D400013F0BAF822462B4613F068FA60A3D3E9D1
:102D5000002313F0B1F822462B4613F05FFA5EA36E
:102D6000D3E9002313F0A8F822462B4613F056FAB5
:102D70005BA3D3E9002313F09FF802460B46DDE97D
:102D8000040113F099F8DDE9022313F047FADDE9B5
:102D9000004522462B4613F08FF842464B4613F06F
:102DA0003DFA02460B462046294613F085F84EA30D
:102DB000D3E9002304460D46DDE9020113F02EFAA3
:102DC00022462B4613F078F80B4602468046894689
:102DD0005046594613F070F8474B9E4204460D4644
:102DE00000F38E80109B012B3BD002460B46002047
:102DF000404913F03DFB002406460F462046294675
:102E000052465B46CDE90067CDE90201009413F01C
:102E100051F8DDE900AB02460B464046494613F047
:102E200049F852465B4613F0F9F9524604460D46FE
:102E30005B46DDE9020113F0F1F900222F4B13F09C
:102E40003BF802460B462046294613F035F8324639
:102E50003B4613F0E3F952465B4613F02DF8044667
:102E60000D462046294607B0BDE8F08FAFF300803D
:102E7000182D4454FB21E93F075C143326A6813CFE
:102E80000000000000000000D47ABF74702AFB3EEE
:102E9000E9A7F0320FB8123F68108D1AF726303FBD
:102EA0001583E0FEC8DB573F93846EE9E326823F3B
:102EB000FE41B31BBAA1AB3F735360DBCB75F3BECE
:102EC000A69237A0887E143F0165F2F2D844433FB2
:102ED000280356C9226D6D3F37D60684F464963FA9
:102EE0007AFE10111111C13F635555555555D53F07
:102EF000FFFF2F3E0000F0BF2794E53F0000F03FAA
:102F0000109813F025F92246CDE900012B46204602
:102F1000294613F083F9DDE90023CDE902012046BB
:102F2000294612F0C9FF02460B46DDE9020113F003
:102F30009FFA42464B4612F0BDFF02460B465046F2
:102F4000594612F0B7FF02460B4612F0B5FF024693
:102F50000B46DDE9000112F0ADFF0446B81700F0A2
:102F60000200C0F101000D4613F0F2F802460B46D4
:102F70002046294613F052F904460D4620462946BC
:102F800007B0BDE8F08F5046594613F0BFFE024629
:102F90000B4600200A4913F06BFA04460D4660E721
:102FA000DDE9004501F10041224605F1004382467A
:102FB0008B46CDE900234AE654465D4651E700BF03
:102FC0000000F03F000000002DE9F04FD24A21F050
:102FD0000043934285B082468B460C462DD9CF4A9A
:102FE00093421AD8002C80F21681B5A3D3E90023AE
:102FF0005046594612F060FF0022002313F080FB78
:10300000C0B9B1A3D3E900235046594613F006F9DD
:1030100002460B460020C24908E1C24A934240F2F0
:10302000D0800346C1F31302134340F0F48100291A
:1030300080F2C4800020BC49C0E0BC4A934200F248
:103040002981BB4A934240F2DE8000230193002293
:10305000B84B5046594613F0E1F806460F46024673
:103060000B465046594613F0D9F899A3D3E90023EB
:1030700004460D4613F0D2F897A3D3E9002312F0CB
:103080001BFF22462B4613F0C9F895A3D3E9002372
:1030900012F010FF22462B4613F0C0F892A3D3E99A
:1030A000002312F009FF22462B4613F0B7F890A335
:1030B000D3E9002312F0FEFE22462B4613F0AEF8B1
:1030C00000229D4B12F0F8FE8046894602460B46D0
:1030D0003046394613F0A2F802460B4600209749C5
:1030E00012F0E8FE064602460B460F4640464946A9
:1030F00012F0E0FE3246804689463B46504659462D
:1031000013F08CF802460B4600208D4912F0D2FED7
:1031100002460B464046494613F0AAF922462B4682
:1031200013F07CF8019E02460B46002E38D0DDE9F4
:10313000026732463B4612F0BDFE52465B4613F034
:103140006DF832463B4612F0B5FE2B46224612F091
:10315000B1FE019B013306460F4600F00F81019B33
:10316000012B00F0F180019B0133392B39D8019BF1
:10317000132B40F31281019CC4F57F7503350022A7
:103180002B0512F099FE02460B465046594612F0A6
:1031900091FE0022684B12F08FFE01EB04510DE00E
:1031A0005046594613F03AF822462B4612F082FE5A
:1031B00002460B465046594612F07CFE05B0BDE86B
:1031C000F08F4DA3D3E9002313F0B8FA00283FF4A1
:1031D00009AF4BA3D3E900231046194613F01EF89C
:1031E000ECE752465B4612F065FE02460B460020B5
:1031F000514912F05FFE019A4F4B01EB0251002240
:1032000012F058FEDAE73EA3D3E9002312F054FE91
:1032100002460B46CAE72CA3D3E900235046594681
:1032200012F0FCFF0B4643490246002012F044FE18
:1032300013F0A4FA019012F08BFF33A3D3E900231B
:1032400006460F4612F0EAFF02460B465046594624
:1032500012F030FE2EA3D3E9002380468946304683
:10326000394612F0DBFF06460F4632463B464046E3
:10327000494612F01FFE02460B4682468B464046E8
:10328000494612F017FE32463B4612F013FECDE9D6
:103290000201DCE62B4A934200F2958000291AA332
:1032A000D3E90023C0F2AC8012F004FE0123804673
:1032B0008946019316A7D7E90067D6E7AFF30080E8
:1032C00059F3F8C21F6EA501FE822B654715F73F23
:1032D0002DC3096EB7FD8ABE3952E686CACFD03EED
:1032E000B7DBAA9E19CE143F8555FE19A0015A3F9F
:1032F000F41011111111A13FEF39FAFE422E864050
:103300009C7500883CE4377E0000E0FE422EE63FDC
:10331000763C7935EF39EA3D79684340412E864065
:103320000000E0BFFFFFEF7F0000F0BF422ED63F5E
:10333000FFFF8F3C0000E03F0000F03F000008402E
:1033400000001840B1A2F03F0022394B50465946C8
:1033500013F0D6F9002844D0504659460022354B88
:1033600012F0AAFD02460B463046394612F0A2FD85
:1033700000224FF0404312F051FF1FE702460B4678
:103380005046594612F096FD00222A4B12F046FF95
:103390000022284B12F08EFD10E7019C4FF4001321
:1033A0002341C3F17F5752465B4612F083FD00264E
:1033B00007F5401702460B463046394612F07AFDB3
:1033C00001EB0451FAE616A3D3E9002312F026FF1D
:1033D000002C02460B464FF00000FFF61CAE1549CC
:1033E00024E732463B465046594612F063FD0246FA
:1033F0000B4612F061FD00220F4B12F05DFDDDE681
:1034000012F05AFD4FF0FF3380468946019306A71C
:10341000D7E9006729E702460B4612F04DFDCDE6DD
:10342000FE822B654715F73F763C7935EF39EABDCB
:103430000000D0BF0000E03F0000F03F00000000AF
:10344000F8B5C1F30A5604460D460B4617460EBBA7
:1034500021F000430343864625D00022344B12F06E
:10346000DDFE344A974204460D460B462ADBC1F383
:103470000A56363E3E4440F2FE72964228DC002E4A
:1034800012DD23F0FF4323F4E00343EA0655204610
:103490002946F8BD40F2FF729642EBD102460B4638
:1034A00012F00AFDF8BDF8BD16F1350F1DDA4CF229
:1034B00050339F4222462B4625DC19A1D1E9000159
:1034C00015F0E6FA16A3D3E9002312F0A7FEF8BD23
:1034D00022462B4614A1D1E9000115F0D9FA12A316
:1034E000D3E9002312F09AFEF8BD23F0FF4323F442
:1034F000E003363643EA06552046294600220E4BA5
:1035000012F08CFEF8BD08A1D1E9000115F0C0FA57
:1035100005A3D3E9002312F081FEF8BDAFF30080CC
:1035200059F3F8C21F6EA5019C7500883CE4377EF4
:1035300000005043B03CFFFF0000903C10B5054C2C
:10354000237833B9044B13B10448AFF3008001234F
:10355000237010BDA804002000000000A4B30208DE
:103560000C4B43B10C480D4910B5AFF300800C482B
:10357000036823B910BD0A48036833B97047094B83
:10358000002BF7D0BDE810401847064B002BF5D0B4
:10359000184700BF00000000A4B30208AC040020DC
:1035A0001C04002000000000154B002B08BF134B2B
:1035B0009D46A3F5803A00218B460F461348144AD6
:1035C000121A06F04FFD0F4B002B00D098470E4B00
:1035D000002B00D098470020002104000D000D486A
:1035E000002802D00C480DF0C7FB15F0BFFB2000EF
:1035F00029000DF0A1FB0DF0BBFB00BF000008008F
:103600000080022000000000290D02082004002094
:10361000B8320020790D020800000000F0B5214DFD
:103620002C6883B014B1204603B0F0BD4FF49C70F9
:103630000DF0A4FB4FF0FF310646032001F042FCE1
:1036400000B204F06DF84FF0FF310746022001F0A0
:1036500039FC00B204F064F83946024606F1DC0792
:1036600030460AF03DF9234622463846012109F04A
:10367000D3FF4FF0FF31012001F024FC00B204F031
:103680004FF898244FF0050E02468DE810403B4657
:10369000314606F1E40007F0DBF8344620462E60A0
:1036A00003B0F0BDC40400202DE9F04104460F46EC
:1036B000FFF7B4FF00F1E4050646284607F0E6F8F8
:1036C000082C0BD0A4F10903012B15D93A46214649
:1036D00010230D20BDE8F04103F00CBFD6F8E43014
:1036E00028469B6A98470228F0DCD6F8E430284642
:1036F0005B6A04219847E9E7D6F8E43028469B6ADC
:1037000098470528E2DCD6F8E43028465B6A0821B1
:103710009847DBE710B52DED028BFFF77FFF00F137
:10372000E404204608F0F4FD07EE900A2046F8EE87
:10373000E78A08F0FBFD07EE900A2046B8EEE78A1C
:1037400008F002FE68EE087A07EE100AE8EEA87AA2
:10375000B8EEC77AE7EE077AF5EE407AF1EE10FAA6
:10376000B1EEE78A03D517EE900A14F01BF8FDEED0
:10377000C87ABDEC028B17EE900A10BD08B503287D
:103780001CD8DFE800F0140D0602BDE80840FFF782
:10379000C1BFFFF743FFBDE80840E43008F0D4BDE7
:1037A000FFF73CFFBDE80840E43008F0BFBDFFF77D
:1037B00035FFBDE80840E43008F0AABD002008BD90
:1037C00008B550B1012806D1FFF728FFBDE8084031
:1037D000E430FBF765B8002008BDFFF71FFFBDE828
:1037E0000840E430FBF73CB810B50446FFF716FF7D
:1037F0002146E430BDE8104008F0A2BB08B501F056
:1038000089FCFBF7F1FDBDE8084001F0EDB900BF10
:1038100008B501F07FFCFBF757FEBDE8084001F05A
:10382000E3B900BF08B501F075FC13F0E5FABDE897
:10383000084001F0D9B900BF08B501F06BFC13F0E6
:10384000EDFEBDE8084001F0CFB900BF08B501F0BA
:1038500061FCFBF7D9FDBDE8084001F0C5B900BF28
:1038600008B501F057FC13F005FDBDE8084001F074
:10387000BBB900BF08B501F04DFCFBF731F8BDE85E
:10388000084001F0B1B900BF08B501F043FC13F0E6
:1038900045FCBDE8084001F0A7B900BF70B5049E23
:1038A00096420C4628DB15466BB1002A00EB02015C
:1038B00007DD2046A21811F8013D00F8013B9042B7
:1038C000F9D1002070BD042A0FD0022A02D110F0D5
:1038D000010306D001462A46204605F0D3F9002010
:1038E00070BD02880A80184670BD10F00303F1D144
:1038F00002680A60184670BD0846002106F0B2FB57
:103900004FF0FF3070BD00BF0830704740B1002954
:1039100005DB4368994202DA0844007A70470020C8
:10392000704700BF30B1002904DB43689942BCBF37
:1039300040180272704700BF40B1002905DB4368A0
:10394000994202DA0844007A70470020704700BFAD
:10395000830705D120B1030F0CBF01200020704761
:103960000120704730B1002904DB43689942BCBF95
:1039700040180272704700BF002B23DB002921DBB7
:1039800070B54668B1421ADC5568761A1446EA1AD0
:10399000B242A8BF3246002A11DB84420D4607D04E
:1039A000083408300844E11805F06CF9002070BDB7
:1039B0000834E118601915F046FB002070BD4FF087
:1039C000FF3070BD4FF0FF30704700BF4068704758
:1039D00010B4141E10DB426894420DDC33EA23035A
:1039E00028BF1346121B08309A422044A8BF1A462B
:1039F0005DF8044B06F036BB5DF8044B704700BF22
:103A000043688B4210B400F108041846A8BF08466A
:103A100032EA220128BF19461B1A99422044A8BF46
:103A200019465DF8044B00F0E3BE00BF002BBCBF9D
:103A300043689B1A002A70B50E4620DB446899182B
:103A4000A1421CDC8A421ADCCBB136F0004116D010
:103A500059428E4214DDB34212DD0830002E00EBD5
:103A6000020515DB9C1B2246A919284615F0EBFA26
:103A7000324628190021BDE8704006F0F3BA70BD47
:103A8000002211464FF0FF33BDE87040FFF7A0BFA2
:103A900074429A192946281915F0D5FA2246284663
:103AA0000021BDE8704006F0DDBA00BF03460830D3
:103AB000596800F01DBE00BF70B504460020616863
:103AC000490000F097FD6668002E11DD094D04F1F4
