:020000040800F2
:10E0000000800220450B0208FD6B0208FD6B020830
:10E01000FD6B0208FD6B0208FD6B020800000000AA
:10E0200000000000000000000000000085C701089B
:10E03000FD6B0208000000002BC801088BC8010816
:10E04000FD6B0208FD6B0208FD6B0208FD6B020808
:10E05000FD6B0208FD6B0208FD6B0208FD6B0208F8
:10E06000FD6B0208FD6B0208FD6B0208FD6B0208E8
:10E07000FD6B0208FD6B0208FD6B0208FD6B0208D8
:10E08000FD6B0208FD6B0208FD6B020859D8010800
:10E0900045D70108FD6B02085DD80108FD6B020839
:10E0A000FD6B0208FD6B0208FD6B0208FD6B0208A8
:10E0B000FD6B0208FD6B020800000000FD6B02080A
:10E0C000FD6B0208FD6B0208FD6B0208FD6B020888
:10E0D000FD6B0208FD6B0208FD6B0208FD6B020878
:10E0E000FD6B0208FD6B020800000000000000004C
:10E0F0000000000000000000000000000000000020
:10E1000000000000FD6B020800000000FD6B02082B
:10E11000FD6B020800000000FD6B0208000000001B
:10E12000FD6B0208FD6B0208FD6B0208FD6B020827
:10E13000FD6B0208FD6B0208FD6B02080000000089
:10E14000FD6B0208FD6B0208FD6B0208FD6B020807
:10E15000FD6B0208FD6B0208FD6B0208FD6B0208F7
:10E16000FD6B0208FD6B0208FD6B02080000000059
:10E1700000000000FD6B020800000000000000002D
:10E18000FD6B0208FD6B0208FD6B0208FD6B0208C7
:10E19000FD6B0208000000002DE9F04F0378202BF2
:10E1A00083B00446894603D114F8013F202BFBD0ED
:10E1B0002B2B08BF013494F800C0BCF12D0F67D0A1
:10E1C0009FED517B8DED007BBCF1300F4DD0BCF14C
:10E1D000000F00F09680002600274FF0000ADFF8BD
:10E1E00038B14FF000081CE015F068FF06460F46F6
:10E1F000284615F0F9FE32463B4615F0A9FD524679
:10E2000006460F465B46DDE90001B8F1000F03D07A
:10E2100016F07EF8CDE9000114F801CFBCF1000F33
:10E2200014D0ACF13005092D52465B4630463946D4
:10E23000DAD9B8F1000F33D1BCF12E0F30D114F878
:10E2400001CF4FF00108BCF1000FEAD1304639464A
:10E25000DDE9002315F032FF06460F46C9F80040FD
:10E260003046394603B0BDE8F08F637843F02003B1
:10E27000782BB0D110224946204618F0DDFB15F06E
:10E28000B3FEDDE9002315F019FF06460F46E7E768
:10E290009FED1F7B94F801C08DED007B013493E767
:10E2A0000CF0DF0CBCF1450F257822D13046394601
:10E2B000DDE9002315F002FF06460F46002DCDD004
:10E2C0004946601C0A2218F0B7FB13490246002099
:10E2D00016F054FA02460B463046394615F0EEFE6B
:10E2E00006460F463046394603B0BDE8F08F14F8B5
:10E2F000015F202DFBD00DB92578D7E70026074F09
:10E30000AEE700260027A1E7000000000000F03F74
:10E31000000000000000F0BF000024400000F87F73
:10E320002DE9F04F002383B01446002206460F4625
:10E3300016F036F928B12D2107F1004304F8011B2E
:10E340001F46002200233046394616F01FF930B12F
:10E35000302200232270637003B0BDE8F08F304696
:10E36000394616F0F5FE16F059F946A3D3E9002315
:10E37000054601903946304616F026F940B143A3D0
:10E38000D3E900233046394616F00AF900285BD15C
:10E39000019A3B49002016F0F1F902460B4630463F
:10E3A000394615F0B5FF4FF0010A06460F46DFF873
:10E3B000D09000254FF000083946304616F02EF96F
:10E3C00000F130032370834615F00EFE02460B4623
:10E3D0003046394615F0BAFC4B46424615F06EFE03
:10E3E000BAF1010A04BF2E23637006460F4614BF1C
:10E3F0000134023425B9BBF1000F18BF0125DBE75A
:10E400000135102DD8DDBAF1000FD5DC14F8013C30
:10E41000302B04F1FF3403D114F8013D302BFBD035
:10E4200001982E2B08BF04F1FF34012807D0652383
:10E43000A11C637003B0BDE8F04F0AF001BD0023DA
:10E44000637003B0BDE8F08F002D11DD2A46002077
:10E450000B4916F093F90B4602463946304615F043
:10E4600057FF012305F1010A06460F4601939EE777
:10E470004FF0010ACDF804A099E700BFAFF3008088
:10E48000000024408DEDB5A0F7C6B03E50EFE2D6B7
:10E49000E41A4B440000000070B54FF0FF3005F067
:10E4A0002FFA04466FF07F4005F02AFA0646204610
:10E4B00015F08AFD00220C4B15F000FE0446304694
:10E4C0000D4615F081FD06A3D3E9002315F020FFCA
:10E4D00002460B462046294615F03AFC70BD00BFA7
:10E4E0000000E0DFFFFF6F430000F03D0000000090
:10E4F000294B1B68002B70B506460CBF1820052061
:10E500000D4607F0D3FC002E044638DD234B186877
:10E5100015F06AFD1EA3D3E9002315F0CFFD0022FC
:10E52000002315F015FC16F079F8236820EAE07155
:10E53000B1F5806FA8BF4FF48061DB682046984733
:10E5400023681749DB6E91FBF6F120469847002DB2
:10E5500014DDA5F11406012EB8BF012630460BF0DC
:10E56000AFF923682046DB6800219847A81B0128E3
:10E57000B8BF0120BDE870400BF0A2B970BD0368C0
:10E580000021DB68BDE87040184700BFAFF3008092
:10E5900010101010101010402C0400200802002051
:10E5A00040420F000000000038B5154B1B68002BDF
:10E5B00004460CBF1820052007F078FC05462046CD
:10E5C00015F012FD0CA3D3E9002315F077FD00220E
:10E5D000002315F0BDFB16F021F82B6820EAE0714E
:10E5E000B1F5007FDB68A8BF4FF40071284698475B
:10E5F000044B1C6038BD00BF1010101010100040FC
:10E600002C0400200802002030B52D4B8DB01A6874
:10E610000092009A120205D4009A42F4000200927D
:10E62000009A1A60274A284B126801921B680293CD
:10E630000CF098F815F0D8FCCDE90401019B9BB2D1
:10E640000193029B9BB20293DDE904011AA3D3E973
:10E65000002315F033FD1D4B0022CDE90401CDE967
:10E6600006230298019BC01A15F0AEFCCDE9080103
:10E67000DDE90445019815F0A7FC02460B4620464B
:10E68000294615F063FBCDE90A01DDE90601DDE964
:10E690000823DDE90A4515F03BFE22462B4615F01E
:10E6A0000DFD00220A4B15F053FB15F0DFFF039020
:10E6B00003980DB030BD00BF9A9999999999F13F8F
:10E6C00008030450A875FF1FCA75FF1F00005440BF
:10E6D00000003E400000000008B50BF04FFEDFEDEB
:10E6E0000C7A07EE100A67EE277A17EE900A15F0FB
:10E6F0008DFC05A3D3E9002315F00AFE15F08EFF6B
:10E7000008BD00BFAFF30080EA2E4454FB2119403E
:10E710000000B4430000000008B50BF045FEDFED3B
:10E720000C7A07EE100A67EE277A17EE900A15F0BA
:10E730006DFC05A3D3E9002315F0EAFD15F06EFF8B
:10E7400008BD00BFAFF30080EA2E4454FB211940FE
:10E750000000B44300000000494A21F00043934206
:10E760002DE9704304460D466CDC464A93420E4642
:10E7700037DC3FA3D3E9002315F0EAFA0022424B2D
:10E7800015F02CFF00286DD122462B462046294645
:10E7900015F094FC804689462046294616F0DAF9A1
:10E7A0000022394B04460D464046494615F0D0FA42
:10E7B00016F070FF0022344B15F0CAFA02460B46E1
:10E7C0004046494615F0A4FD22462B4615F0C0FAF6
:10E7D00000F0EAFA002E39DC01F100431946BDE8E9
:10E7E00070832A4A934233DCB3F1804FCCDD16F0BC
:10E7F000B1F92246804689462B462046294615F027
:10E800005DFC0022204B15F0A3FA16F043FF4246B0
:10E810004B4615F09DFA02460B4600201A4915F0AA
:10E8200077FD424604460D464B464046494615F0A4
:10E830008FFA02460B462046294615F089FA01F068
:10E840003FFEC7E702460B4615F082FABDE870832B
:10E8500016F080F901F034FE07A3D3E9002315F088
:10E8600077FAB7E720462946BDE87083AFF300800A
:10E870009C7500883CE4377EEF39FAFE422EE63F75
:10E88000FFFFEF7FFFFF2F3E0000F03F0000B04191
:10E890002DE9F84FBE4B21F000469E4204460D463E
:10E8A0008A4616DDBB4B9E420BDC08D0BAF1000F46
:10E8B00040F3C2809AA1D1E90001BDE8F88F002899
:10E8C000F4D022462B462046294615F041FABDE8F1
:10E8D000F88FB14B9E4200F3BA80A3F1DE739E42E3
:10E8E00040F39B804FF0FF3B22462B4620462946B3
:10E8F00015F0E4FB02460B468046894615F0DEFB28
:10E9000089A3D3E9002306460F4615F0D7FB88A359
:10E91000D3E9002315F01CFA32463B4615F0CEFB36
:10E9200085A3D3E9002315F013FA32463B4615F0D0
:10E93000C5FB83A3D3E9002315F00AFA32463B4610
:10E9400015F0BCFB80A3D3E9002315F001FA324691
:10E950003B4615F0B3FB7EA3D3E9002315F0F8F98D
:10E9600042464B4615F0AAFB7BA3D3E90023804621
:10E9700089463046394615F0A1FB79A3D3E9002337
:10E9800015F0E4F932463B4615F098FB76A3D3E93F
:10E99000002315F0DBF932463B4615F08FFB74A3DC
:10E9A000D3E9002315F0D2F932463B4615F086FB39
:10E9B00071A3D3E9002315F0C9F932463B4615F09F
:10E9C0007DFB02460B464046494615F0C1F92246FA
:10E9D0002B4615F073FBBBF1FF3F02460B4630D0D0
:10E9E0006E4B6F4E4FEACB0B5B44D3E9002315F01F
:10E9F000ADF922462B4615F0A9F9B34402460B4661
:10EA0000DBE9000115F0A2F9BAF1000FBFF65FAF24
:10EA100001F100431946BDE8F88F59A3D3E900235B
:10EA200015F096F900225F4B15F0D8FD00283FF451
:10EA300059AF204629464AE753A1D1E90001BDE874
:10EA4000F88F2046294615F081F9BDE8F88F16F0B9
:10EA500081F8554B9E4204460D461FDCA3F550231A
:10EA60009E4244DC02460B4615F072F900224D4BE3
:10EA700015F06CF9002206460F464FF08043204601
:10EA8000294615F065F902460B463046394615F021
:10EA90003FFC4FF0000B04460D4625E7434B9E42DA
:10EAA0001ADC0022424B15F051F9002206460F46AF
:10EAB0003F4B2046294615F001FB0022394B15F04B
:10EAC00047F902460B463046394615F021FC4FF017
:10EAD000020B04460D4607E702460B460020354967
:10EAE00015F016FC4FF0030B04460D46FCE6002221
:10EAF0002C4B15F02BF9002206460F46294B2046D9
:10EB0000294615F025F902460B463046394615F0E0
:10EB1000FFFB4FF0010B04460D46E5E6AFF3008026
:10EB2000182D4454FB21F93F11DA22E33AAD903F0E
:10EB3000EB0D76244B7BA93F513DD0A0660DB13F34
:10EB40006E204CC5CD45B73FFF8300922449C23F9C
:10EB50000D5555555555D53F2F6C6A2C44B4A2BF61
:10EB60009AFDDE522DDEAD3F6D9A74AFF2B0B33F29
:10EB7000711623FEC671BC3FC4EB98999999C93FA1
:10EB80009C7500883CE4377E182D4454FB21F9BF66
:10EB9000FFFF0F440000F07FFFFFDB3FB87102086A
:10EBA000987102080000F03FFFFFF23FFF7F034033
:10EBB0000000F83F0000F0BFF8B5C1F30A57A7F214
:10EBC000FF35132D02460B460C46064631DC002D60
:10EBD0001DDB354F2F4107EA010C5CEA000C2DD0FC
:10EBE0002FA3D3E9002315F0B3F80022002315F07A
:10EBF000F5FC48B1002C04DD4FF4801343FA05F511
:10EC00002C4424EA0704002621463046F8BD24A3FC
:10EC1000D3E9002315F09CF80022002315F0DEFC58
:10EC20000028F1D0002C35DB26432FD000261F4CC6
:10EC3000EAE7332D05DDB5F5806F24D0104619467F
:10EC4000F8BDA7F213474FF0FF3C2CFA07F7074235
:10EC5000F4D013A3D3E9002315F07AF8002200239F
:10EC600015F0BCFC0028CFD0002C09DD142D0FD0EE
:10EC70000123C5F1340503FA05F5AE1928BFE418E0
:10EC800026EA0706C0E715F063F8F8BD3446BBE78F
:10EC90000134F5E700264FF00044B5E7AFF30080FC
:10ECA0009C7500883CE4377EFFFF0F000000F03FBA
:10ECB000F8B5C1F30A57A7F2FF35132D02460B46EC
:10ECC0000C4606462FDC002D1DDB354F2F4107EA91
:10ECD000010C5CEA000C2BD02FA3D3E9002315F024
:10ECE00037F80022002315F079FC48B1002C04DA33
:10ECF0004FF4801343FA05F52C4424EA0704002658
:10ED000021463046F8BD24A3D3E9002315F020F8AE
:10ED10000022002315F062FC0028F1D0002C25DB36
:10ED200000263446ECE7332D05DDB5F5806F1AD0AB
:10ED300010461946F8BDA7F213474FF0FF3C2CFAD6
:10ED400007F70742F4D014A3D3E9002315F000F825
:10ED50000022002315F042FC0028D1D0002C0EDB4D
:10ED600026EA0706CCE714F0F3FFF8BD24F00043D1
:10ED70000C4A1E43002E18BF14460026C0E7142D6F
:10ED800008D00123C5F1340503FA05F5AE1928BFF3
:10ED9000E418E5E70134E3E79C7500883CE4377E3E
:10EDA000FFFF0F000000F0BF2DE9F04FD64B994256
:10EDB00087B08046894664DDD44B99420E4659DCC3
:10EDC000D34B994240F353819FEDBB7B8DED047B88
:10EDD0004FEA215A0446AAF2FF3ACE4BC6F3130675
:10EDE0009E4246F07F5500F3388145F44015204699
:10EDF00029460022C84B14F0A9FF002204460D4604
:10EE0000C64B15F05BF922462B4615F057F9A04684
:10EE1000CDE90201A946CDE90001002E5CD1002216
:10EE200000232046294615F0B1FB002800F086811A
:10EE3000BAF1000F00F09F81504615F0D5F8A0A35D
:10EE4000D3E9002306460F4615F038F9DDE904231F
:10EE500014F07EFF9CA3D3E9002304460D46304600
:10EE6000394615F02BF902460B462046294614F088
:10EE70006FFF03E002460B4614F06AFF07B0BDE8DF
:10EE8000F08FA74B21F000449C420A460FDD002280
:10EE9000A44B15F07BFB002800F08A8000220023A1
:10EEA0000020A14915F034FA07B0BDE8F08F9F4B60
:10EEB0009C4240F38A809E4B1A449A4240F2D7808B
:10EEC0000022964B15F0FAF842464B4615F0F6F83C
:10EED000CDE900014FF0000A00224FF08043404688
:10EEE000494614F035FF02460B464046494615F0A8
:10EEF0000FFA02460B4606460F4615F0DFF874A3DC
:10EF0000D3E9002304460D4615F0D8F872A3D3E9DF
:10EF1000002314F01DFF22462B4615F0CFF870A3F6
:10EF2000D3E9002314F014FF22462B4615F0C6F84F
:10EF30006DA3D3E9002314F00BFF22462B4615F0F6
:10EF4000BDF86BA3D3E9002314F002FF22462B4641
:10EF500015F0B4F868A3D3E9002314F0F9FE2246B3
:10EF60002B4615F0ABF866A3D3E9002314F0F0FEAE
:10EF700022462B4615F0A2F8DDE9002314F0E8FE46
:10EF800032463B4615F09AF804460D46BAF1000F9A
:10EF900035D102460B46DDE9000114F0D7FE0246EA
:10EFA0000B464046494614F0D1FE07B0BDE8F08F4D
:10EFB00042464B464046494614F0C8FE02460B46C0
:10EFC00015F0A6F907B0BDE8F08F0022594B14F0F8
:10EFD000BFFE0022002315F001FB28B1564B9C42D6
:10EFE00002DC4046494649E742464B4640464946D0
:10EFF00015F064F80022494B15F060F8CFE7504651
:10F0000014F0F2FF30A3D3E9002382468B4615F0BB
:10F0100055F82BA3D3E9002306460F465046594620
:10F0200015F04CF8DDE9042314F092FE22462B463D
:10F0300014F08EFE02460B46DDE9000114F086FE58
:10F0400042464B4614F082FE02460B463046394695
:10F0500014F07CFE07B0BDE8F08F45F40015C6F54E
:10F06000801620462946B6100AF1010AC1E60022A0
:10F07000294B4046494614F06BFE4FEA215AAAF24A
:10F08000FF3ABAF1000F04460D460E4640F3968053
:10F0900042464B4614F05AFE02460B4600201E49DB
:10F0A00014F054FE22462B4615F032F9CDE9040146
:10F0B00093E600BFAFF300800000000000000000F6
:10F0C000763C7935EF39EA3D0000E0FE422EE63F1E
:10F0D00044523EDF12F1C23F9FC678D0099AC33F27
:10F0E000DE03CB966446C73FAF788E1DC571CC3F1B
:10F0F000599322942449D23F04FA97999999D93F78
:10F10000935555555555E53F7982DA3FFFFFEF7F1F
:10F11000FFFF3F439DA006000000F03F0000E03FDE
:10F12000FFFFEF3F0000F0BF000050C3FFFF1F3E96
:10F130003C412D4000005043FFFF8F3C2BA3D3E9FF
:10F1400000232046294614F0B9FF02460B46002052
:10F15000254914F0FBFDDDE9022314F0AFFF06465C
:10F160000F46BAF1000F09D102460B462046294648
:10F1700014F0ECFD82E6002000217FE6504614F0FA
:10F1800033FF15A3D3E9002382468B4614F096FF84
:10F1900013A3D3E90023804689465046594614F00C
:10F1A0008DFFDDE9042314F0D3FD02460B46304603
:10F1B000394614F0CBFD22462B46EEE600220A4BE0
:10F1C00014F0C4FD02460B464046494614F0BEFD0D
:10F1D00068E700BFAFF300800000E0FE422EE63F8C
:10F1E000763C7935EF39EA3D0000F03F55555555ED
:10F1F0005555E53F0000000008B515F06FFF04A36A
:10F20000D3E9002315F084F808BD00BFAFF30080F8
:10F21000EF39FAFE422EE63FF8B504460D4600F0FF
:10F22000EFFE154B93F90030013306460F4610D020
:10F2300022462B462046294615F0DAF948B92046E1
:10F24000294615F087FC0AA3D3E9002315F0C6F977
:10F2500010B930463946F8BD17F0B8F9074F002607
:10F260002223036039463046F8BD00BFAFF300806B
:10F270007DF8B98FCE3386409A0200200000F07FDF
:10F28000F8B504460D4600F06BFF1B4B93F90030B8
:10F29000013306460F4614D02046294617F02AF8B7
:10F2A00078B111A3D3E900232046294615F096F939
:10F2B00088B9204629460EA3D3E9002315F070F93A
:10F2C00010B930463946F8BD17F080F922230026E0
:10F2D00000270360F5E717F079F922230360002681
:10F2E000064FEEE7AFF30080EF39FAFE422E86407C
:10F2F00051302DD5104987C09A0200200000F07FC0
:10F300002DE9F84FC44E21F00043B34204460D46A8
:10F310000DDD03F1404303F58013034340F0B98052
:10F32000002940F3C08000200021BDE8F88FBB4ECB
:10F33000B34208DCBA4A934200F3BA809CA1D1E9F7
:10F340000001BDE8F88F0029C0F2708102460B462B
:10F350000020B44914F0FAFC0022B34B14F0AEFEC6
:10F3600004460D4616F096F993A3D3E90023894687
:10F3700080462946204614F0A1FE91A3D3E900233C
:10F3800014F0E6FC22462B4614F098FE8EA3D3E937
:10F39000002314F0DBFC22462B4614F08FFE8CA3D6
:10F3A000D3E9002314F0D4FC22462B4614F086FE49
:10F3B00089A3D3E9002314F0C9FC22462B4614F09C
:10F3C0007DFE87A3D3E9002314F0C2FC22462B461E
:10F3D00014F074FE84A3D3E9002382468B462046B2
:10F3E000294614F06BFE82A3D3E9002314F0AEFC8F
:10F3F00022462B4614F062FE7FA3D3E9002314F0CB
:10F40000A7FC22462B4614F059FE7DA3D3E9002326
:10F4100014F09CFC22462B4614F050FE0022814B37
:10F4200014F096FC02460B465046594614F070FF05
:10F4300042464B4614F042FE002682468B46324638
:10F440004B463046494614F039FE02460B462046EC
:10F45000294614F07BFC324604460D464B46404696
:10F46000494614F075FC02460B462046294614F026
:10F470004FFF02460B465046594614F069FC32468F
:10F480004B4614F065FC02460B4614F061FCBDE8E7
:10F49000F88F02460B4614F059FC02460B4614F056
:10F4A00037FFBDE8F88F58A1D1E90001BDE8F88F1A
:10F4B00002460B4614F002FE3FA3D3E900230646A2
:10F4C0000F4614F0FBFD3EA3D3E9002314F040FCEB
:10F4D00032463B4614F0F2FD3BA3D3E9002314F07F
:10F4E00035FC32463B4614F0E9FD39A3D3E900234D
:10F4F00014F02EFC32463B4614F0E0FD36A3D3E96F
:10F50000002314F023FC32463B4614F0D7FD34A30D
:10F51000D3E9002314F01CFC32463B4614F0CEFD28
:10F5200031A3D3E90023804689463046394614F09A
:10F53000C5FD2FA3D3E9002314F008FC32463B4657
:10F5400014F0BCFD2CA3D3E9002314F001FC3246D7
:10F550003B4614F0B3FD2AA3D3E9002314F0F6FBD5
:10F5600032463B4614F0AAFD00222E4B14F0F0FB6D
:10F5700002460B464046494614F0CAFE22462B4638
:10F5800014F09CFD02460B4621A1D1E9000114F0C4
:10F59000DDFB02460B462046294614F0D7FB024607
:10F5A0000B4603A1D1E9000114F0D0FBBDE8F88FB0
:10F5B000182D4454FB21F93F09F7FD0DE13D023FB1
:10F5C00088B20175E0EF493F3B8F68B52882A43FC0
:10F5D0005544880E55C1C93F7D6FEB0312D6D43F09
:10F5E000555555555555C53F82922EB1C5B8B33FB7
:10F5F00059018D1B6C06E63FC88A599CE52A0040DC
:10F600004B2D8A1C273A0340182D4454FB210940F6
:10F61000075C143326A6913CFFFFEF3FFFFFDF3F5F
:10F620000000603C0000F03F0000E03F00225C4B27
:10F6300014F08EFB00225B4B14F040FD40A3D3E995
:10F64000002304460D4614F039FD3FA3D3E90023FF
:10F6500014F07EFB22462B4614F030FD3CA3D3E988
:10F66000002314F073FB22462B4614F027FD3AA327
:10F67000D3E9002314F06CFB22462B4614F01EFD48
:10F6800037A3D3E9002314F061FB22462B4614F084
:10F6900015FD35A3D3E9002314F05AFB22462B466F
:10F6A00014F00CFD804689462046294615F0F2FFED
:10F6B0002FA3D3E9002306460F462046294614F01F
:10F6C000FDFC2DA3D3E9002314F040FB22462B467A
:10F6D00014F0F4FC2AA3D3E9002314F039FB2246EA
:10F6E0002B4614F0EBFC28A3D3E9002314F02EFBE7
:10F6F00022462B4614F0E2FC0022294B14F028FB92
:10F7000002460B464046494614F002FE32463B464E
:10F7100014F0D4FC1EA3D3E9002314F017FB3246E7
:10F720003B4614F015FB02460B4614F011FB024653
:10F730000B4619A1D1E9000114F008FBBDE8F88FD0
:10F7400009F7FD0DE13D023F88B20175E0EF493F49
:10F750003B8F68B52882A43F5544880E55C1C93FE8
:10F760007D6FEB0312D6D43F555555555555C53FC2
:10F7700082922EB1C5B8B33F59018D1B6C06E63F8E
:10F78000C88A599CE52A00404B2D8A1C273A034021
:10F79000075C143326A6913C182D4454FB210940E4
:10F7A0000000F03F0000E03F414A91422DE9F8435C
:10F7B00004460D463EDD3F4A91420B4608DD02F10C
:10F7C0007952914266DD024614F0C2FABDE8F88330
:10F7D00001F1404202F58012024357D0B1F1804F4F
:10F7E00032DD024614F06AFC0022334B14F0AEFA0C
:10F7F00015F050FF2246804689462B462046294672
:10F8000014F0A6FA224606460F462B4640464946C5
:10F8100014F09EFA02460B460020274914F078FDAA
:10F820000B4602463946304614F090FABDE8F843DC
:10F8300000F046BE02460B4614F088FA02460B461C
:10F8400014F066FDBDE8F88300221B4B14F07EFA2D
:10F8500002460B4604460D4614F07AFA2246064646
:10F860000F462B462046294614F028FC02460B463C
:10F870003046394614F06CFA15F00CFF22462B4640
:10F8800014F066FABDE8F843FFF78EBA00200021B5
:10F89000BDE8F88300F014FE03A3D3E9002314F0BD
:10F8A00057FABDE8F88300BFEF39FAFE422EE63F73
:10F8B000FFFFEF3FFFFFAF410000F03F00000000FF
:10F8C0002DE9F04FBE4B21F000479F4287B0044620
:10F8D0000D4628DD07F1404707F5801703463B43F7
:10F8E0000AD002460B4614F031FA02460B4614F0D9
:10F8F0000FFD07B0BDE8F08F95A3D3E9002314F006
:10F90000DDFB95A3D3E9002306460F462046294692
:10F9100014F0D4FB02460B463046394614F018FA70
:10F9200007B0BDE8F08FA74B9F420E460FDCB7F142
:10F93000795F80F24F818AA3D3E9002314F008FA9B
:10F940000022A14B14F04AFE002840F0FC80204623
:10F95000294615F0FFF802460B4600209A4914F09C
:10F96000F5F90022994B14F0A9FB7FA3D3E90023FA
:10F9700004460D4614F0A2FB7DA3D3E9002314F046
:10F98000E7F922462B4614F099FB7BA3D3E9002329
:10F9900014F0DCF922462B4614F090FB78A3D3E94F
:10F9A000002314F0D5F922462B4614F087FB76A3EA
:10F9B000D3E9002314F0CAF922462B4614F07EFB4B
:10F9C00073A3D3E9002314F0C3F922462B4614F0A5
:10F9D00075FB71A3D3E90023CDE900012046294638
:10F9E00014F06CFB6EA3D3E9002314F0AFF92246A8
:10F9F0002B4614F063FB6CA3D3E9002314F0A8F9A1
:10FA000022462B4614F05AFB69A3D3E9002314F0D5
:10FA10009DF922462B4614F051FB6B4B002214F04B
:10FA200097F982468B4620462946CDE902AB15F070
:10FA300031FE674B9F428046894665DC02460B4695
:10FA400014F086F9DDE90223CDE90401DDE90001C6
:10FA500014F05EFC02460B46DDE9040114F02EFBB7
:10FA60004FF0000ACDE9000152464B465046494648
:10FA700014F024FB02460B462046294614F066F992
:10FA8000524604460D464B464046494614F060F93E
:10FA900002460B462046294614F03AFC02460B4625
:10FAA00014F056F902460B462BA1D1E9000114F0DF
:10FAB0004DF902460B46DDE9000114F047F95246C4
:10FAC00004460D464B465046494614F041F902465D
:10FAD0000B4639A1D1E9000114F038F902460B4672
:10FAE0002046294614F032F902460B4632A1D1E9EC
:10FAF000000114F02BF9002E3FF7FBAE01F100439B
:10FB0000194607B0BDE8F08F52465B46DDE90001BB
:10FB100014F0FEFB42464B4614F0D0FA42464B46E8
:10FB200014F016F902460B4614F012F90AA3D3E9B1
:10FB3000002314F00BF902460B4605A1D1E90001A0
:10FB400014F004F9D7E720462946D2E6AFF3008047
:10FB5000182D4454FB21F93F075C143326A6913C31
:10FB60009C7500883CE4377E09F7FD0DE13D023FBE
:10FB700088B20175E0EF493F3B8F68B52882A43F0A
:10FB80005544880E55C1C93F7D6FEB0312D6D43F53
:10FB9000555555555555C53F82922EB1C5B8B33F01
:10FBA00059018D1B6C06E63FC88A599CE52A004026
:10FBB0004B2D8A1C273A0340182D4454FB21E93F62
:10FBC000FFFFEF3FFFFFDF3F0000F03F0000E03F9F
:10FBD0003233EF3F02460B4614F070FA37A3D3E9F5
:10FBE000002306460F4614F069FA36A3D3E9002332
:10FBF00014F0AEF832463B4614F060FA33A3D3E972
:10FC0000002314F0A3F832463B4614F057FA31A310
:10FC1000D3E9002314F09CF832463B4614F04EFA28
:10FC20002EA3D3E9002314F091F832463B4614F09A
:10FC300045FA2CA3D3E9002314F08AF832463B4658
:10FC400014F03CFA29A3D3E90023804689463046C4
:10FC5000394614F033FA27A3D3E9002314F076F8D9
:10FC600032463B4614F02AFA24A3D3E9002314F0C9
:10FC70006FF832463B4614F021FA22A3D3E9002361
:10FC800014F064F832463B4614F018FA00220A4B8E
:10FC900014F05EF802460B464046494614F038FB25
:10FCA00022462B4614F00AFA22462B4614F050F84E
:10FCB00007B0BDE8F08F00BF0000F03F09F7FD0D71
:10FCC000E13D023F88B20175E0EF493F3B8F68B5E7
:10FCD0002882A43F5544880E55C1C93F7D6FEB0370
:10FCE00012D6D43F555555555555C53F82922EB124
:10FCF000C5B8B33F59018D1B6C06E63FC88A599CB5
:10FD0000E52A00404B2D8A1C273A034000000000E2
:10FD10002DE9F84F1D465342134325F00049DFF803
:10FD2000C8C149EAD3736345144606460F4626D830
:10FD3000C0F1000848EA000821F0004A4AEAD878F1
:10FD4000E04503468B461AD805F1404808F580186F
:10FD500058EA0208AE464AD04FEAA57808F00208F1
:10FD60005AEA030348EAD17811D1B8F1020F42D020
:10FD7000B8F1030F09D14AA1D1E9000105E03246EB
:10FD80003B462046294613F0E3FFBDE8F88F59EAC9
:10FD9000020325D0E14536D0E24521D0AAEB09097E
:10FDA0004FEA2959B9F13C0F29DC002D3EDA19F14F
:10FDB0003C0F3BDA00200021B8F1010F4ED0B8F122
:10FDC000020F3ED0B8F1000FDFD037A3D3E90023F4
:10FDD00013F0BCFF36A3D3E9002313F0B7FFD4E739
:10FDE000BBF1000F1EDB34A1D1E90001CDE7BDE876
:10FDF000F84FFEF74DBD2EA1D1E90001C5E72EA1B8
:10FE0000D1E90001D8E7CA452CD0B8F1020FF2D0F1
:10FE1000B8F1030FAFD0B8F1010F4FF000002ED0B2
:10FE20000021B2E726A1D1E90001AEE722462B4628
:10FE30003046394614F06CFA14F08CFEFEF728FDBB
:10FE4000BAE719A3D3E9002313F080FF02460B465B
:10FE500017A1D1E9000113F079FF96E701F1004302
:10FE6000194692E7B8F1020F14D0B8F1030F0DD084
:10FE7000B8F1010F06D014A1D1E9000185E74FF0D8
:10FE8000004182E712A1D1E900017EE712A1D1E988
:10FE900000017AE712A1D1E9000176E7AFF3008013
:10FEA000182D4454FB2109C0075C143326A6A13C3D
:10FEB000182D4454FB210940182D4454FB21F93FCF
:10FEC000182D4454FB21F9BF182D4454FB21E93F60
:10FED000182D4454FB21E9BFD221337F7CD902C0C5
:10FEE000D221337F7CD902400000F07F0000000067
:10FEF00043422DE9F047034321F000463C4A46EADD
:10FF0000D373934204460D465AD8964266D0394B75
:10FF10009E428A4624DD384B9E4235462BDD3346D1
:10FF20000246314613F014FF224606460F462B4682
:10FF300000202F4913F00AFF02460B46304639468F
:10FF400014F0E6F9FEF730FF00222C4B14F0B6F85F
:10FF5000BAF1000F02DA01F100431946BDE8F0875B
:10FF600021A3D3E9002313F0F3FE0022002314F0B1
:10FF700035FB78BB354622462B462046294613F0F2
:10FF8000E7FE22462B4606460F4614F097F8224617
:10FF9000804689462B460020154913F0D7FE0246BD
:10FFA0000B464046494614F0B3F932463B4613F03F
:10FFB000CFFEFEF7F9FE0022104B14F07FF8C7E7E2
:10FFC00002460B4613F0C2FE02460B4614F0A0F99F
:10FFD000BDE8F08720462946BDE8F08700220023CF
:10FFE00014F096F9BDE8F0879C7500883CE4377EF4
:10FFF0000000F03FFFFF2F3EFFFFDF3F0000E03F2C
:020000040801F1
:100000002DE9F8434E4B21F000449C4206460F4632
:1000100048DC4C4B9C4218DD4B4B9C4266DD4B4B05
:100020009C427EDD4A4B9C4249DD01339C4243D0D9
:1000300041A3D3E900231046194614F03FF80646C1
:100040000F4630463946BDE8F88314F083FD02F0D0
:100050008FFC00223F4B8046894613F079FEB4F1B5
:10006000725F06460F46ECDB42464B464046494629
:1000700014F024F8324604460D463B4630463946D5
:1000800013F066FE02460B462046294614F040F95E
:100090000022304B13F05CFE06460F4630463946D0
:1000A000BDE8F88302460B4614F008F806460F46F2
:1000B00030463946BDE8F883274B9842B8D83046D9
:1000C000394614F047FD0022244B13F0F7FF00F0EF
:1000D00047F8002204460D46204B13F0EFFF22465E
:1000E0002B4613F0EBFF06460F46AAE714F032FD4D
:1000F00000F036F80022194B06460F4613F0DEFFDB
:1001000032463B4604460D460020144914F000F9DF
:1001100002460B462046294613F01AFE06460F46B5
:100120008FE714F017FD00F01BF800220B4B13F0C3
:10013000C5FF06460F4684E79C7500883CE4377E81
:10014000FFFFEF7F422ED63FFFFF3540412E864016
:10015000CD3386400000F03F7DF8B98F0000E03FCE
:100160002DE9F04DCC4D21F00042AA4284B08246E8
:100170008B464FEAD17410D9C84DAA4227D9C1F392
:1001800013030343024640F04081002C00F0DF805F
:100190000020002104B0BDE8F08DC14B9A4253D835
:1001A000C04B9A4200F2D680A5A3D3E9002313F0F6
:1001B000CFFD0022BC4B14F011FA002800F0CA80D9
:1001C000504659460022B84B13F0C2FDBFE09EA333
:1001D000D3E9002314F002FA002840F01C819CA30C
:1001E000D3E900235046594614F0DAF90028CFD15C
:1001F000AE4999A3D3E9002301EBC4045046594604
:1002000013F05CFFD4E9002313F0A2FD14F006FA0A
:10021000804613F0E9FE92A3D3E9002304460D467D
:1002200013F04CFF02460B465046594613F08EFD24
:100230008DA3D3E9002306460F462046294613F036
:100240003DFFCDE9000115E0994B9A42D0D8994B7A
:10025000E5002B44D3E9002313F078FD964B2B44A3
:1002600093ED007B8DED007BC4F1010206460F4645
:10027000A2EB0408DDE900233046394613F066FDA1
:1002800002460B4682468B4613F018FF78A3D3E94B
:10029000002304460D4613F011FF77A3D3E9002392
:1002A00013F054FD22462B4613F008FF74A3D3E944
:1002B000002313F04DFD22462B4613F0FFFE72A3E0
:1002C000D3E9002313F042FD22462B4613F0F6FE3D
:1002D0006FA3D3E9002313F03BFD22462B4613F016
:1002E000EDFE02460B465046594613F02FFD0446DC
:1002F0000D4622462B465046594613F0DFFE224655
:10030000CDE902012B46B8F1000F5CD000204FF080
:10031000804113F01BFD02460B46DDE9020113F09C
:10032000F7FF02460B46DDE9000113F00FFD3246F0
:100330003B4613F00BFD0B4602465B49002013F0D1
:1003400005FD6FF47F7398456DDB01EB085104B038
:10035000BDE8F08D52465B465046594613F0AEFE5E
:1003600043A3D3E9002304460D4613F0A7FE42A39E
:10037000D3E9002313F0EAFC22462B4613F09EFE3D
:100380003FA3D3E9002313F0E3FC22462B4613F0EE
:1003900095FE3DA3D3E9002313F0D8FC22462B465B
:1003A00013F08CFE3AA3D3E9002313F0D1FC2246CC
:1003B0002B4613F083FE02460B465046594613F077
:1003C000C5FC02460B465046594616461F4613F0DA
:1003D00075FE002204460D464FF0804330463946F4
:1003E00013F0B4FC02460B462046294613F090FF5A
:1003F00052465B4613F0AAFC02460B4600202A49EF
:1004000013F0A4FC04B0BDE8F08D0B4613F0A0FC83
:1004100004B0BDE8F08D0AA3D3E9002310461946C5
:1004200013F04CFE93E708F57A7301EB03510022B9
:100430004FF0B87313F042FE04B0BDE8F08D00BF7A
:100440009C7500883CE4377EEF39FAFE422E8640E8
:1004500051302DD5104987C0FE822B654715F73FD7
:100460000000E0FE422EE63F763C7935EF39EA3D6A
:10047000D0A4BE726937663EF16BD2C541BDBB3EAA
:100480002CDE25AF6A56113F93BDBE166CC1663F88
:100490003E5555555555C53F412E8640FFFFEF7FD0
:1004A000422ED63FFFFF2F3E0000F03FD8710208DA
:1004B000B1A2F03FE8710208F871020800000000E4
:1004C0002DE9F04FB1F5801F85B006460F460B466B
:1004D00080F2838021F00042024300F02181002954
:1004E000C0F261810022D64B13F0E8FDD54A0B46DD
:1004F000934206460F466FF0350E73DCC3F31305C7
:1005000005F5152C0CF6647C0CF4801C8CF07F52E5
:1005100082F440121C1542EA0507A4F2FF34744429
:100520000022C94B3046394604EB1C5413F00EFC34
:10053000AB1CC3F31303022B82468B464FF0000221
:1005400059DC002314F022F8002840F0F280A8A320
:10055000D3E900235046594613F0B0FD02460B463E
:100560000020BA4913F0F2FB524606460F465B469E
:100570005046594613F0A2FD02460B463046394616
:1005800013F09CFD06460F46002C00F00381204628
:1005900013F02AFD98A3D3E900238046894613F07F
:1005A0008DFD97A3D3E9002304460D4640464946F6
:1005B00013F084FD02460B463046394613F0C6FB65
:1005C00052465B4613F0C2FB02460B4620462946C4
:1005D00013F0BCFB05B0BDE8F08F9A4A93424FF090
:1005E000000E8BDD32463B463046394613F0B0FBF9
:1005F00005B0BDE8F08F4FF0804313F0A9FB024631
:100600000B465046594613F083FE064620460F46D9
:1006100013F0EAFC3246CDE902013B46304639464A
:10062000CDE9006713F04AFD02460B468046894635
:1006300013F044FD74A3D3E9002306460F4613F0DC
:100640003DFD73A3D3E9002313F082FB32463B4602
:1006500013F034FD70A3D3E9002313F079FB324685
:100660003B4613F02BFD6EA3D3E9002313F070FB80
:1006700042464B4613F022FD6BA3D3E9002380468C
:1006800089463046394613F019FD69A3D3E90023A2
:1006900013F05EFB32463B4613F010FD66A3D3E930
:1006A000002313F055FB32463B4613F007FD0B4683
:1006B00002464946404613F04BFBA5F5C223C5F55B
:1006C000D725A3F27A4351351D43002D06460F4628
:1006D0004BDD00225D4B5046594613F0EFFC52466D
:1006E0005B4613F0EBFC02460B46804689463046DB
:1006F000394613F02DFBDDE9002313F0DFFC06463D
:100700000F46002C57D102460B464046494613F08F
:100710001DFB02460B465046594613F017FB67E790
:100720000022002300204A4913F0F2FD05B0BDE885
:10073000F08F002C58D0204613F056FC2EA3D3E99E
:10074000002306460F4613F0B9FC2DA3D3E900237E
:1007500004460D463046394613F0B0FC02460B46BF
:100760002046294613F0F4FA42E702460B4650466B
:10077000594613F0EBFADDE9002313F09FFC06461F
:100780000F463CB1DDE902891BA3D3E900234046B3
:10079000494604E732463B465046594613F0D6FADE
:1007A00005B0BDE8F08F024613F0D0FA0022002316
:1007B00013F0AEFD1CE710A3D3E90023DDE902012D
:1007C00013F07CFC0EA3D3E9002304460D46DDE9BB
:1007D000020113F073FC32463B4613F0B9FA0246AD
:1007E0000B4640464946E9E60020002100E700BFED
:1007F000555555555555D53F0000E0FE422EE63F74
:10080000763C7935EF39EA3D44523EDF12F1C23F82
:10081000DE03CB966446C73F599322942449D23FC6
:10082000935555555555E53F9FC678D0099AC33F16
:10083000AF788E1DC571CC3F04FA97999999D93F2D
:1008400000005043FFFFEF7F0000F03F0000E03F5B
:10085000000050C300000000B1F5801F2DE9F843EF
:1008600004460D460B4619DA21F00042024359D0E6
:1008700000295FDB00223A4B13F020FC394A0D4679
:100880002B46934204466FF035010CDD22462B4681
:100890002046294613F05CFABDE8F883314A9342BA
:1008A0004FF00001F2DC1815A0F2FF3008444FEAC7
:1008B000D0794844C3F3130813F096FBC9F57F734E
:1008C000033348EA035506460F4620462946FFF7FC
:1008D000F7FD1DA3D3E900238046894630463946FB
:1008E00013F0ECFB1AA3D3E9002304460D4640465F
:1008F000494613F0E3FB02460B462046294613F017
:1009000027FA15A3D3E9002304460D46304639469D
:1009100013F0D4FB02460B462046294613F018FA82
:10092000BDE8F8830022002300200F4913F0F0FCFB
:10093000BDE8F883024613F009FA0022002313F001
:10094000E7FCA9E7AFF30080362BF111F3FE593D28
:100950000EE526157BCBDB3F00609F501344D33F51
:1009600000005043FFFFEF7F000050C30000000075
:100970002DE9F04F23F0004959EA020493B03BD02F
:10098000694E21F00044B4420D4683462DDC9A4660
:10099000944636D0B14528DC634EB14522D0002DB7
:1009A00006460F46CDE9002334DB4FF00008BCF1CA
:1009B000000F4BD15C4B994500F091805B4B994502
:1009C00000F09F80BAF1804F00F0A184584B9A4507
:1009D0003CD1002D3ADB3046394613B0BDE8F04F2C
:1009E00014F058BEBCF1000FD9D004F1404404F516
:1009F000801454EA0B0307D14C49002013B0BDE822
:100A0000F08F08B9A145C7DD4A4813B0BDE8F04FE3
:100A100015F076BC484B99457ADCA3F1547399459F
:100A20000FDD4FEA2953A3F2FF33142B40F37784F1
:100A3000C3F134032CFA03F202FA03F3634500F026
:100A4000B5844FF00008BCF1000FB7D030463946EE
:100A500014F080F8BBF1000F23D124B1334B25F003
:100A600040429A421DD1BAF1000F05DA02460B4608
:100A700000202E4913F04CFC002DBFDA04F1404455
:100A800004F5801454EA080340F06B8402460B46D8
:100A90001046194613F05AF902460B4613F038FC7B
:100AA000ACE7EB0F013B079358EA030333D0234B2A
:100AB000994547DD03F10473994540F3B783204B13
:100AC0009C4240F33F83BAF1000F40F33F8314A3ED
:100AD000D3E900231046194613F0F0FA8EE704F12B
:100AE000404303F5801353EA0B0385D0144B9C421B
:100AF00040F35783BAF1000FC0F22883DDE900010B
:100B00007CE7BAF1000FC0F2FA833046394675E748
:100B10004FF002084BE732463B46B9E7AFF300809F
:100B20009C7500883CE4377E0000F07F0000F03FB9
:100B30000000E03FD0820208FFFF3F430000E04199
:100B4000FFFFEF3FD44B2B40002B40F0D683002219
:100B5000D24B13F0B3FA6FF034060C46D04D231588
:100B6000C4F31302A3F2FF3342F07F54AA4203EB13
:100B7000060944F4401440F3B483CA4B9A4240F34C
:100B8000F9839FEDAF7B8DED0A7B8DED107B9FEDA3
:100B9000AE7B8DED087B09F10109A4F580140025D9
:100BA000DDE908232146824613F0D0F8A346DDE9AB
:100BB000082306460F4650462146CDE90CAB13F0FC
:100BC000C7F802460B460020B74913F0A1FB0A46BE
:100BD0000146CDE90E12134639460246304613F05F
:100BE0006DFA631043F0005382468B4603F50023F1
:100BF0008C46CDE904AB5919D3460023CDE902BC9C
:100C00000293DDE902AB002004460D4602460B4686
:100C10005046594613F052FA02460B4630463946C2
:100C200013F094F8DDE9082306460F4620462946CE
:100C300013F08CF802460B46DDE90C0113F086F840
:100C400052465B4613F03AFA02460B4630463946A6
:100C500013F07CF8DDE90E2313F030FADDE90445EA
:100C6000CDE9080122462B462046294613F026FAF4
:100C700077A3D3E9002304460D4613F01FFA76A3A9
:100C8000D3E9002313F064F822462B4613F016FA3A
:100C900073A3D3E9002313F05BF822462B4613F02D
:100CA0000DFA71A3D3E9002313F052F822462B4624
:100CB00013F004FA6EA3D3E9002313F049F8224697
:100CC0002B4613F0FBF96CA3D3E9002313F040F893
:100CD000224606460F462B462046294613F0EEF9DB
:100CE00002460B463046394613F0E8F952460446B0
:100CF0000D465B46DDE9040113F02AF8DDE908231F
:100D000013F0DCF922462B4613F022F85246064631
:100D10000F465B465046594613F0D0F90022634B0C
:100D2000CDE90C0113F014F832463B4613F010F8ED
:100D300002980D46044622462B465046594613F06B
:100D4000BDF9002282468B46584B2046294612F0B8
:100D5000FDFFDDE90C2312F0F9FF02460B46304699
:100D6000394612F0F3FFDDE9042313F0A7F9224618
:100D700006460F462B46DDE9080113F09FF90246AF
:100D80000B463046394612F0E3FF06460F46024650
:100D90000B465046594612F0DBFF029838A3D3E9C0
:100DA000002304460D4613F089F95246CDE90401AB
:100DB0005B462046294612F0C9FF02460B463046E4
:100DC000394612F0C3FF30A3D3E9002313F076F9BC
:100DD0002FA3D3E9002306460F462046294613F0E9
:100DE0006DF902460B463046394612F0B1FFDDE997
:100DF000102312F0ADFF044648460D4613F0F4F8F8
:100E0000224606460F462B46DDE9040112F0A0FFFC
:100E1000DDE90A2312F09CFF32463B4612F098FFB0
:100E2000029832463B4682468B4612F08FFFDDE940
:100E30000A2312F08BFFDDE9042339E0AFF30080D1
:100E40000000000000000000000000000000F03F73
:100E5000EF4E454A287ECA3F65DBC9934A86CD3F9F
:100E600001411DA96074D13F4D268F515555D53F85
:100E7000FFAB6FDBB66DDB3F033333333333E33F1D
:100E8000000000E009C7EE3FFD033ADC09C7EE3F72
:100E9000F5015B14E02F3EBE0000F07F00004043F0
:100EA0008E98030079B60B000000F03F0000084068
:100EB00012F04CFF02460B462046294612F046FF30
:100EC000079A08F1FF331343CDE9020140F0648132
:100ED0009FEDB97B8DED047BDDE9002300261046F4
:100EE000194632461F4612F031FF5B46524613F058
:100EF000E5F8DDE9002380468946DDE9020113F0CB
:100F0000DDF802460B464046494612F021FF3246C4
:100F1000CDE900013B465946504613F0CFF80B4649
:100F2000024680468946DDE9000112F011FFBA4B06
:100F3000994204460D468B4640F30B8101F13F4335
:100F400003F5E003034340F0FE819DA3D3E90023B2
:100F5000DDE9000112F0FCFE424606460F464B4614
:100F60002046294612F0F2FE02460B46304639462C
:100F700013F034FB002840F0E681CBF30A534FF422
:100F80008012A3F2FE3342FA03F35B44C3F30A5226
:100F9000A24DA2F2FF321541C3F3130423EA050167
:100FA0000020C2F1140A44F48014BBF1000F024681
:100FB0000B4644FA0AFA40464946B8BFCAF1000A4D
:100FC00012F0C4FE804689464246DDE900014B46E8
:100FD00012F0BEFE4FEA0A5B0D4600247AA3D3E965
:100FE00000232046294613F069F8424606460F467C
:100FF0004B462046294612F0A9FE02460B46DDE983
:10100000000112F0A3FE72A3D3E9002313F056F8F7
:1010100071A3D3E90023804689462046294613F070
:101020004DF802460B464046494612F091FE804676
:10103000894602460B463046394612F089FE324652
:101040003B4604460D4612F081FE02460B464046E2
:10105000494612F07BFE2246804689462B462046B2
:10106000294613F02BF85EA3D3E9002306460F466A
:1010700013F024F85CA3D3E9002312F067FE324694
:101080003B4613F01BF85AA3D3E9002312F060FE8D
:1010900032463B4613F012F857A3D3E9002312F06F
:1010A00055FE32463B4613F009F855A3D3E9002319
:1010B00012F04EFE32463B4613F000F802460B4655
:1010C0002046294612F042FE06460F4602460B46CF
:1010D0002046294612F0F2FF0022CDE900014FF030
:1010E00080433046394612F031FE02460B46DDE9B8
:1010F000000113F00DF9424606460F464B462046C6
:10110000294612F0DBFF42464B4612F021FE024612
:101110000B463046394612F019FE22462B4612F095
:1011200015FE02460B4600203D4912F00FFE8B448F
:10113000BBF5801FC0F236815946DDE9042312F069
:10114000BDFF5BE4BAF1000FFFF6C1AC0020002147
:1011500054E4DFF8D4C021F00043634540F3ED8050
:10116000304B0B4403430AD142464B4612F0EEFD8E
:10117000DDE9002313F028FA00283FF4FEAEDDE994
:10118000040121A3D3E9002312F098FF1EA3D3E9A1
:10119000002312F093FF31E49FED1D7B8DED047B66
:1011A0009AE6BAF1000FD1DADDE90034184604F10D
:1011B000004123E4AFF30080000000000000F0BF16
:1011C000FE822B654715973C00000000432EE63F4A
:1011D000EF39FAFE422EE63F396CA80C615C20BE66
:1011E000D0A4BE726937663EF16BD2C541BDBB3E2D
:1011F0002CDE25AF6A56113F93BDBE166CC1663F0B
:101200003E5555555555C53F59F3F8C21F6EA501BA
:10121000000000000000F03FFFFF8F40FFFF0F00C5
:101220000000F03F00346F3FFFCB90407C4B9C426E
:1012300088DD7C4B9C423FF746AC0022794B12F094
:1012400085FD63A3D3E9002304460D4612F036FF63
:1012500061A3D3E9002306460F462046294612F033
:101260002DFF002282468B466F4B2046294612F006
:1012700025FF02460B465AA1D1E9000112F066FD96
:1012800022462B4612F01AFF02460B460020674901
:1012900012F05CFD2246CDE902012B46204629468C
:1012A00012F00CFF02460B46DDE9020112F006FFC8
:1012B0004DA3D3E9002312F001FF02460B4650462E
:1012C000594612F043FD02460B4604460D46304691
:1012D000394612F03DFD002082468B4632463B46A1
:1012E000E6E59FED437B8DED0A7B8DED107B9FED59
:1012F000427B00258DED087B52E400262EE4324629
:101300003B460020474913F003F8FFF777BB32460E
:101310003B463046394612F0D1FEFFF76FBBBCF1B9
:10132000000F36D1C3F1140349FA03F202FA03F3B2
:101330004B4545D0E046FFF741BB3C4A934245DC74
:10134000B346B24649E6DDE904012DA3D3E9002303
:1013500012F0B4FE2AA3D3E9002312F0AFFEFFF788
:101360004DBBB8F1010F7FF449AB01F100431946C1
:10137000FFF744BB9FED247B8DED0A7B9FED247B23
:101380008DED107B9FED247B4FF480258DED087B48
:1013900006E413F0DFFBBBF1000F7FF4BCABD846D3
:1013A000FFF75BBB524601F023FDC6E602F00102E7
:1013B000C2F10208BCF1000F3FF400ABFFF746BBDF
:1013C00002F00102C2F10208FFF7F8BA1B15D6E5D8
:1013D000000000604715F73F44DF5DF80BAE543E58
:1013E000555555555555D53FFE822B654715F73F49
:1013F0000000000000000000000000000000F03FBE
:101400009C7500883CE4377E0000004003B8E23F52
:1014100006D0CF43EBFD4C3E000000000000F83F3B
:10142000FEFFEF3F0000F03F0000D03F0000E03F34
:101430002DE9F04F944B21F000459D428FB080463E
:10144000894640F38180914B9D420E46144626DC2E
:10145000002983A3D3E9002340F3A58112F076FC91
:101460008B4B9D4206460F4600F083807EA3D3E956
:10147000002312F06BFC02460B46C4E900233946F8
:10148000304612F063FC78A3D3E9002312F05EFC2F
:10149000C4E90201012738460FB0BDE8F08F7D4B4B
:1014A0009D4240F386807C4B9D4258DC2F15A7F26D
:1014B0001647A5EB0751894613F0B0F812F094FDDA
:1014C00082468B464046494652465B46CDE908ABCC
:1014D00012F03CFC0022714B12F0F0FD8946804670
:1014E00013F09CF8054612F07FFD02460B4640467D
:1014F0004946CDE90A2312F029FC0022674B12F07D
:10150000DDFD00220023CDE90C0113F03FF8002897
:1015100000F04781002D0CBF01230223604A019295
:1015200002213A46009108A8214600F07DFB002EDA
:101530000746B0DA6268E36802F1004203F1004353
:1015400047426260E360A6E7002000210027C2E96D
:1015500002013846C2E900890FB0BDE8F08F0246AB
:101560000B4612F0F3FB0027C4E90201C4E90001B5
:1015700091E73FA3D3E9002312F0E8FB3EA3D3E9B0
:10158000002306460F4612F0E1FB02460B46C4E973
:1015900000233046394612F0D9FB37A3D3E90023A4
:1015A00012F0D4FB0127C4E9020138460FB0BDE8B0
:1015B000F08F13F0CFFA32A3D3E900238046894697
:1015C00012F07CFD0022374B12F0C2FB13F026F81C
:1015D000074612F009FD22A3D3E90023CDE9040157
:1015E00012F06CFD02460B464046494612F0AEFB37
:1015F0001DA3D3E9002382468B46DDE9040112F0E6
:101600005DFD1F2FCDE9020150DC02460B4650461E
:10161000594612F09BFB244B7A1E804653F8223029
:10162000AB4289464AD042464B46C4E900895046FF
:10163000594612F08BFBDDE9022312F087FB002EE6
:10164000C4E90201BFF627AF09F1004501F10043EB
:101650007F42C4E90085C4E902031CE7AFF30080C0
:1016600000004054FB21F93F3163621A61B4D03D60
:101670000000601A61B4D03D7370032E8A19A33B39
:1016800083C8C96D305FE43FFB21E93F7BD902404D
:10169000FB21F93FFB213941FFFFEF7F0000704143
:1016A000EC8402080000E03F6C840208DDE90223BC
:1016B0005046594612F04AFB804689462D15C9F31B
:1016C0000A53EB1A102BAEDD57A3D3E90023DDE953
:1016D000040112F0F3FC8046894602460B46504650
:1016E000594612F033FB02460B4650465946CDE9A7
:1016F000062312F02BFB42464B4612F027FB4CA36D
:10170000D3E9002380468946DDE9040112F0D6FCC6
:1017100042464B4612F01AFBDDE906ABCDE9020169
:101720000B4602465946504612F010FBC1F30A53CD
:10173000ED1A312D804689467FF775AF3FA3D3E977
:101740000023DDE9040112F0B9FC80468946024617
:101750000B46DDE9060112F0F9FA02460B46824615
:101760008B46DDE9060112F0F1FA42464B4612F0D3
:10177000EDFA34A3D3E9002380468946DDE904016C
:1017800012F09CFC42464B4612F0E0FA02460B4631
:1017900050465946CDE9022312F0D8FA80468946D0
:1017A00041E70323BAE612F0D3FA234B9D420646E3
:1017B0000F4616D01AA3D3E9002312F0C9FA024645
:1017C0000B46C4E900233946304612F0BFFA14A391
:1017D000D3E9002312F0BCFA4FF0FF37C4E902014D
:1017E00059E611A3D3E9002312F0B2FA10A3D3E90A
:1017F00000230F46064612F0ABFA02460B46C4E938
:1018000000233946304612F0A1FA09A3D3E9002398
:1018100012F09EFA4FF0FF37C4E902013BE600BF29
:101820003163621A61B4D03D0000601A61B4D03DEA
:101830007370032E8A19A33BFB21F93F0000002E91
:101840008A19A33BC14920259A837B3900000000F7
:10185000574A2DE9F84F21F00048904504460D46BF
:1018600058DC544B0029B4BF534F544F98454FF0A8
:10187000000612DD524B984540F38C80514B984541
:1018800054DD013398454ED02046294646A3D3E97E
:10189000002312F013FCBDE8F88F4B4B98455CDC3D
:1018A00041A3D3E9002312F053FA0022474B12F070
:1018B00095FEA8BB2046294613F04CF901F058F8D4
:1018C00004460D4622462B462046294612F040FA91
:1018D000224682468B462B462046294612F0EEFBD6
:1018E000002280468946394B2046294612F030FABC
:1018F00002460B464046494612F00AFD02460B4698
:101900005046594612F022FA32463B4612F0D6FBB8
:10191000BDE8F88F02460B4612F01AFABDE8F88FC0
:1019200020462946FAE72A4B9842ADD82046294658
:1019300013F010F90022214B12F0C0FBFEF710FC4F
:1019400004460D4602460B463046394612F0B6FBB9
:1019500022462B4612F0B2FBE0E713F0FBF801F051
:1019600007F81C4B984504460D46ABDD0022174B8B
:1019700012F0EEF902460B462046294612F0C8FC4A
:1019800022462B4612F0E4F932463B4612F096FB13
:10199000BDE8F88F13F0DEF8FEF7E2FB32463B4677
:1019A00012F08CFBBAE700BF3374AC3C1F7BAC7FFA
:1019B000FFFFEF7FFFFF35400000E0BF0000E03F8A
:1019C000412E8640CD338640FFFF2F3E0000F03F82
:1019D0007DF8B98FFFFFEF3F2DE9F04F21F0004870
:1019E000B8F1795F85B006460F4692469B466BDAA2
:1019F00012F014FE002800F0EA8032463B463046E2
:101A0000394612F05BFB74A3D3E9002304460D466C
:101A100012F054FB72A3D3E9002312F099F9224685
:101A20002B4612F04BFB70A3D3E9002312F08EF982
:101A300022462B4612F042FB6DA3D3E9002312F09D
:101A400087F922462B4612F039FB6BA3D3E900231A
:101A500012F07CF922462B4612F030FB68A3D3E942
:101A6000002312F075F922462B4612F027FBCDE930
:101A700000010022664B2046294612F01FFBDDE9DB
:101A80000023804689462046294612F017FB52461D
:101A900004460D465B463046394612F00FFB0246BF
:101AA0000B462046294612F051F902460B464046A5
:101AB000494612F04BF902460B460020554912F0F8
:101AC00045F905B0BDE8F08F02460B4612F0F6FA74
:101AD00041A3D3E9002304460D4612F0EFFA40A3D8
:101AE000D3E9002312F034F922462B4612F0E6FA2D
:101AF0003DA3D3E9002312F029F922462B4612F028
:101B0000DDFA3BA3D3E9002312F022F922462B464B
:101B100012F0D4FA38A3D3E9002312F017F92246C1
:101B20002B4612F0CBFA36A3D3E9002312F010F9BA
:101B30002B46224612F0C2FA374B9845CDE90001F8
:101B400097DD364B984539DCA8F5001300220020BC
:101B500030499046994612F0F9F8CDE90201002289
:101B60002B4B2046294612F0A9FA42464B4612F06A
:101B7000EDF8DDE90023804689462046294612F02B
:101B80009DFA524604460D465B463046394612F0F1
:101B900095FA02460B462046294612F0D7F802462F
:101BA0000B464046494612F0D1F802460B46DDE9A5
:101BB000020112F0CBF805B0BDE8F08F9FED127B6B
:101BC0004FF000088DED027BDFF85490C7E7114914
:101BD000002005B0BDE8F08FD43888BEE9FAA8BD72
:101BE000C4B1B4BD9EEE213EAD529C804F7E923E6C
:101BF0009015CB19A001FA3E7751C1166CC1563F22
:101C00004C5555555555A53F000000000000E73FD5
:101C10000000E03F0000F03F3233D33F0000E93FD7
:101C20000000D23F000000002DE9F04FADF5197D16
:101C3000B54CA29D089354F825400594013B12F140
:101C4000140F04900B910393C0F2AA82AF49D31EE4
:101C500081FB0301DB17C3EBA10307930133A3EB64
:101C60008303DB00D3180693079A039BD61A059AC1
:101C700012EB03081AD408F1010800240025B0442F
:101C800020AFDDF88C9208E059F8260012F0ACF98C
:101C900001364645E7E8020108D0002EF4DA0136A5
:101CA000204629464645E7E80201F6D1059B002B70
:101CB000089B4FEAC30301932ADB049A20A902EB95
:101CC000030801EB030A059B72AA02EBC30B0DF597
:101CD000E079039B002B4FF000064FF0000711DB6B
:101CE000049C554675E90223F4E8020112F0E6F976
:101CF00002460B463046394612F02AF8444506465D
:101D00000F46EFD1E9E80267D9450AF1080AE0D1A8
:101D10000198049C0599019120448B0083460BA8EF
:101D2000A3F10802C3180A930CAB13440993019A58
:101D300098A901EBC203002A53E9284529DD0DF5D6
:101D4000E07A0AEBC2080DF130090022704B204600
:101D5000294612F0B3F912F061FC12F045F90022A5
:101D60006C4B06460F4612F0A9F902460B46204678
:101D7000294611F0EBFF12F051FC78E9022349F8F3
:101D8000040B3946304611F0E3FFD04504460D46BA
:101D9000DBD1DDF81890204629464A4601F028F8A4
:101DA00000224FF07F5304460D4612F087F9FCF7EE
:101DB0007FFF0022584B12F081F902460B46204665
:101DC000294611F0C3FF0D46044612F027FC804659
:101DD00012F00AF90B4602462946204611F0B6FFDA
:101DE0004B46002B06460F4640F39880019A0CA9FB
:101DF000013AC9F1180351F8225045FA03F101FAEA
:101E000003F3EB1AC9F117050CA843FA05F5002DE9
:101E100040F82230884400F38B80002200233046B3
:101E2000394612F0B3FB002800F08D82019B059A21
:101E300003F1FF394A4510DC03F180430CAA013B52
:101E40000A9802EB8303002253F80419834242EA02
:101E50000102F9D1002A40F0DA80059B0CAA013B6F
:101E600052F82330002B40F0CD80099A012352F81C
:101E7000041901330029FAD001994A1CCB180293A6
:101E80009146079B089902EB030A019B0B441D46F0
:101E900020AB0AF1804A03EBC505A39B0AF1FF3A88
:101EA00003EB8A0A70AB03EBC20301935AF8040FE9
:101EB00012F09AF80B4603990246A8460029E8E872
:101EC00002234FF000064FF0000711DB049C01E0F5
:101ED00075E90223F4E8020112F0F0F802460B461D
:101EE0003046394611F034FF5C4506460F46EFD1C7
:101EF000019BE3E802670193029B09F101099945FF
:101F00004546D3DD019312E78C890208ABAAAA2AC1
:101F10000000703E000070410000204069D1019B2C
:101F20000CAA013B52F82350ED15002D7FF775AF39
:101F3000019B002B08F1010840F303820C9C002C4C
:101F40003AD1019B012B09D00CA9012251F8044F71
:101F5000531C9CBB1A46019B9342F7D1069B002B56
:101F60000EDD012B00F01181022B09D1019B5A1EBD
:101F70000CAB0CA953F82230C3F3150341F82230FF
:101F8000022D7FF44AAF32463B460020924911F0C1
:101F9000DDFE06460F46002C3FF43FAF069A8E4901
:101FA000002000F025FF02460B463046394611F06E
:101FB000CDFE06460F4630E7012300220CA9C4F1EE
:101FC000807441F822400199994210DD0CAA0CA8B6
:101FD00052F8232000EB830300EB81006FF07F4178
:101FE00000E01A688A1A43F8042B8342F9D10124CD
:101FF000B4E70022794B12F0E7FA002840F0D580D0
:1020000005460AE7019B5A1C9146029239E70CAB40
:10201000069A53F82930CDF81C80183A0495069298
:1020200073B9019B03F18043023B0CA901EB8303CD
:1020300053F8041909F1FF39183A0029F8D006922B
:10204000069A6549002000F0D3FEB9F1000F04465E
:102050000D46C0F2D5814FEAC90370AA02EB03080E
:10206000069309F101060CABDFF874B14FF0000ADA
:1020700008F1080703EB860656F8040D11F0B4FFCB
:1020800022462B4612F01AF85B4667E902015246D7
:102090002046294612F012F80CAB9E4204460D462B
:1020A000EAD1CDF80890DDF8149048ABB9F1000FF3
:1020B0000393C34601934FF0000A2BDBDFF8248122
:1020C0005D4643A3D3E9002300260027002403E054
:1020D000544510DCF8E80223F5E8020111F0EEFFA8
:1020E00002460B463046394611F032FE0134A14516
:1020F00006460F46ECDA019B029AE3E80267924536
:102100000193ABF1080B0AF1010306D0B9F1000FFE
:102110009A46D3DA00260027EDE7A29BDDF8089067
:10212000032B2BD8DFE813F0F200E100E10062009E
:1021300048AB00240025039303992B462246D1E99E
:10214000000111F003FE049B002B40F038810B9B33
:10215000B9F1000FC3E900450DDD4AAD012401349A
:10216000F5E8022311F0F4FDA145F8DA049B13B160
:1021700001F1004319460B9BC3E90201079B03F0E1
:1021800007000DF5197DBDE8F08F019B5A1E0CABC1
:102190000CA953F82230C3F3160341F82230EFE6BE
:1021A00000216FF0170307915CE5019B002B08F1FC
:1021B0000108C8BF02253FF7C1AE32463B460020AA
:1021C000054911F0C3FD022506460F4625E600BF6E
:1021D00000000040FB21F93F0000F03F0000E03F1D
:1021E0000000703E2072020848AB0393B9F1000F63
:1021F00040F31981039A4FEAC9030193D318D3E935
:1022000000AB984678E9026752465B46304639464D
:1022100011F09EFD04460D4602460B4630463946F7
:1022200011F094FD5B46524611F092FD039B43452D
:10223000A246AB46C8E90201C8E90045E2D1B9F1BE
:10224000010F40F3F080019B039A09F1005909F155
:10225000FF3913444FEAC901D3E9006701F1080AC5
:10226000019192440DF5947B7AE9028932463B460E
:102270004046494611F06CFD04460D4602460B46A9
:102280004046494611F062FD32463B4611F060FD82
:10229000D34526462F46CAE90201CAE90045E3D1E3
:1022A000019C039B1034002000211C4403F1100505
:1022B00074E9022311F04CFDA542F9D1039C049E60
:1022C000D4E90023D4E90245002E40F083800B9E20
:1022D000C6E90023079BC6E9040103F00700C6E92D
:1022E00002450DF5197DBDE8F08F069E039F083667
:1022F000002400253E4476E902232046294611F0B9
:1023000027FDB74204460D46F5D115E7069C039D0F
:102310000834002000212C4474E9022311F018FD38
:10232000A542F9D1049B13B101F1004319460B9B5F
:10233000C3E90001079B03F007000DF5197DBDE817
:10234000F08F00240AE63946069F04957A4230460B
:10235000CDF81C8000F04CFD0022344B04460D46A5
:1023600012F032F908B30022314B2046294611F011
:10237000A5FE12F053F9064611F036FE00222B4B53
:1023800011F09CFE02460B462046294611F0DEFC69
:1023900012F044F9019B0CAA03F10109183742F825
:1023A0002300069742F829604AE62046294612F0A3
:1023B00035F9019B0CAA994642F8230040E62246D3
:1023C0000B9C05F10043B9F1000FC4E900233FF76E
:1023D000C4AECDE603F1004701F100430B99C1E91A
:1023E0000403079B2646944605F1004403F00700CA
:1023F000C1E900C7C1E902640DF5197DBDE8F08FA0
:10240000A29B032B3FF6BAAE01A252F823F000BF05
:10241000212401083121010831210108E9210108A5
:10242000002000217EE70020002147E700007041E6
:102430000000703E000000002DE9F04F21F0004642
:10244000B6F1795F85B004460D469046994604DAA8
:1024500012F0E4F8002800F0858022462B46204642
:10246000294611F02BFE06460F4602460B46204633
:10247000294611F023FE41A3D3E9002382468B466F
:102480003046394611F01AFE3EA3D3E9002311F07D
:102490005DFC32463B4611F011FE3CA3D3E900231C
:1024A00011F056FC32463B4611F008FE39A3D3E941
:1024B000002311F04BFC32463B4611F0FFFD37A3E1
:1024C000D3E9002311F044FC0E9BCDE900019BB33E
:1024D0000022294B4046494611F0F0FDDDE900237A
:1024E000CDE902015046594611F0E8FD02460B467F
:1024F000DDE9020111F02AFC32463B4611F0DEFD17
:1025000042464B4611F022FC19A3D3E900230646AC
:102510000F465046594611F0D1FD02460B46304653
:10252000394611F015FC02460B462046294611F0AB
:102530000DFC05B0BDE8F08F02460B46304639462B
:1025400011F0BCFD0AA3D3E9002311F0FFFB5246B2
:102550005B4611F0B3FD22462B4611F0F9FB05B0A6
:10256000BDE8F08F2046294605B0BDE8F08F00BFDA
:10257000495555555555C53F0000E03F7CD5CF5ACC
:102580003AD9E53DEB9C2B8AE6E55A3E7DFEB157F4
:10259000E31DC73ED561C119A0012A3FA6F810115D
:1025A0001111813F000000002DE9F04FC04C21F0D7
:1025B000004687B0A64282468B460F46CDE90023EF
:1025C0001ADC12F02BF800283FD1109B5246013341
:1025D0001343334300F0B781109B012B00F0C081FF
:1025E0005B460020B34911F093FE04460D46204699
:1025F000294607B0BDE8F08FAF4B9E4225DD00298C
:1026000009DADDE90045224605F10043CDE9002362
:102610000BF100418B4652465B4685A1D1E9000192
:1026200011F094FBDDE9002304460D4682A1D1E9B7
:10263000000111F08BFB9FED827B22462B468DED36
:10264000007B11F085FB82468B4652465B46504626
:10265000594611F033FD02460B468046894611F07B
:102660002DFD424604460D464B465046594611F054
:1026700025FD75A3D3E90023CDE9020120462946B3
:1026800011F01CFD72A3D3E9002311F061FB224677
:102690002B4611F013FD70A3D3E9002311F058FB72
:1026A00022462B4611F00AFD6DA3D3E9002311F059
:1026B0004FFB22462B4611F001FD6BA3D3E900230B
:1026C00011F046FB22462B4611F0F8FC68A3D3E933
:1026D000002311F03DFB42464B4611F0EFFC66A390
:1026E000D3E90023CDE904012046294611F0E6FC98
:1026F00063A3D3E9002311F02BFB22462B4611F0F4
:10270000DDFC61A3D3E9002311F022FB22462B4616
:1027100011F0D4FC5EA3D3E9002311F019FB22468B
:102720002B4611F0CBFC5CA3D3E9002311F010FB86
:1027300022462B4611F0C2FC59A3D3E9002311F025
:1027400007FB02460B46DDE9040111F001FBDDE960
:10275000022311F0B3FCDDE9004522462B4611F0BF
:10276000F7FA42464B4611F0A9FC22462B4611F0DF
:10277000EFFA4DA3D3E9002304460D46DDE902013B
:1027800011F09CFC22462B4611F0E2FA0B46024661
:10279000804689465046594611F0DAFA464B9E4229
:1027A00004460D4600F38C80109B012B3BD0024663
:1027B0000B4600203F4911F0ABFD002406460F46B2
:1027C0002046294652465B46CDE90067CDE9020125
:1027D000009411F0BBFADDE900AB02460B4640461F
:1027E000494611F0B3FA52465B4611F067FC524677
:1027F00004460D465B46DDE9020111F05FFC002254
:102800002E4B11F0A5FA02460B462046294611F040
:102810009FFA32463B4611F051FC52465B4611F09E
:1028200097FA04460D462046294607B0BDE8F08FCA
:10283000182D4454FB21E93F075C143326A6813C44
:102840000000000000000000D47ABF74702AFB3E34
:10285000E9A7F0320FB8123F68108D1AF726303F03
:102860001583E0FEC8DB573F93846EE9E326823F81
:10287000FE41B31BBAA1AB3F735360DBCB75F3BE14
:10288000A69237A0887E143F0165F2F2D844433FF8
:10289000280356C9226D6D3F37D60684F464963FEF
:1028A0007AFE10111111C13F635555555555D53F4D
:1028B000FFFF2F3E0000F0BF2794E53F0000F03FF0
:1028C000109811F091FB2246CDE900012B462046DD
:1028D000294611F0F3FBDDE90023CDE90201204692
:1028E000294611F035FA02460B46DDE9020111F0E6
:1028F0000FFD42464B4611F029FA02460B46504660
:10290000594611F023FA02460B4611F021FA02460D
:102910000B46DDE9000111F019FA0446B81700F082
:102920000200C0F101000D4611F05EFB02460B46AD
:102930002046294611F0C2FB04460D462046294692
:1029400007B0BDE8F08F5046594612F003F9024631
:102950000B460020044911F0DBFC04460D4662E7FB
:1029600054465D465FE700BF0000F03F00000000F6
:102970002DE9F04FD04A21F00043934285B08246C2
:102980008B460C4659D9CD4A934214D9CC4A93422E
:1029900009D9C1F313030343024600F0EA810B4651
:1029A00011F0D6F912E1AEA3D3E9002311F016FE1F
:1029B000002840F0F381002CC0F20B81AAA3D3E9D8
:1029C00000235046594611F079FB0B46BD4902469B
:1029D000002011F0BDF911F021FE019011F004FB6F
:1029E000A3A3D3E9002306460F4611F067FB024676
:1029F0000B465046594611F0A9F99FA3D3E900238D
:102A0000804689463046394611F058FB06460F4647
:102A100032463B464046494611F098F902460B467D
:102A200082468B464046494611F090F932463B4675
:102A300011F08CF9CDE9020109E0A34A934200F2BA
:102A4000F380A24A934240F20281002301930022C4
:102A50009C4B5046594611F031FB06460F46024644
:102A60000B465046594611F029FB85A3D3E90023B4
:102A700004460D4611F022FB83A3D3E9002311F095
:102A800067F922462B4611F019FB81A3D3E90023F5
:102A900011F05CF922462B4611F010FB7EA3D3E91E
:102AA000002311F055F922462B4611F007FB7CA3B9
:102AB000D3E9002311F04AF922462B4611F0FEFA21
:102AC0000022834B11F044F98046894602460B46AA
:102AD0003046394611F0F2FA02460B4600207D4995
:102AE00011F034F9064602460B460F464046494669
:102AF00011F02CF93246804689463B4650465946ED
:102B000011F0DCFA02460B460020734911F01EF961
:102B100002460B464046494611F0FAFB22462B4638
:102B200011F0CCFA019E02460B46002E40D0DDE9A2
:102B3000026732463B4611F009F952465B4611F0F6
:102B4000BDFA32463B4611F001F92B46224611F000
:102B5000FDF8019B013306460F4600F0DD80019B26
:102B6000012B00F0BF80019A531C392B4FEA02550C
:102B700049D8019A132A00F3E9804FF4001343FA6D
:102B800002F452465B4611F0E1F8C4F17F5700268B
:102B900007F5401702460B463046394611F0D6F885
:102BA000824605EB010B5046594605B0BDE8F08F53
:102BB0005046594611F082FA22462B4611F0C6F8CB
:102BC00002460B465046594611F0C0F805B0BDE824
:102BD000F08F35A3D3E900235046594611F0B8F8D9
:102BE0000022002311F0DCFC002840F0C5801EA369
:102BF000D3E900235046594611F060FA02460B46CD
:102C000000203649E5E652465B4611F09FF8024641
:102C10000B4600202E4911F099F86B181946002236
:102C20002B4B11F093F8D1E72D4A934200F2BE806E
:102C300000290FA3D3E900237DDB11F087F80123DE
:102C40008046894601930CA7D7E90067E0E618A300
:102C5000D3E9002311F07CF802460B46AEE700BF33
:102C6000EF39FAFE422E8640FE822B654715F73F6C
:102C70000000E0FE422EE63F763C7935EF39EA3D32
:102C80002DC3096EB7FD8ABE3952E686CACFD03E43
:102C9000B7DBAA9E19CE143F8555FE19A0015A3FF5
:102CA000F41011111111A13F59F3F8C21F6EA501C3
:102CB0009C7500883CE4377E79684340412E86400D
:102CC000FFFFEF7F0000E03F422ED63FFFFF8F3C2B
:102CD0000000F03F00000840000018400000E0BF86
:102CE000B1A2F03F00223E4B5046594611F058FC2D
:102CF000002844D05046594600223A4B11F028F89B
:102D000002460B463046394611F020F800224FF0BB
:102D1000404311F0D3F959E702460B465046594655
:102D200011F014F800222F4B11F0C8F900222D4B9E
:102D300011F00CF84AE711F00BF84FF0FF33804622
:102D40008946019320A7D7E9006761E6019BC3F597
:102D50007F7403342305002210F0FAFF02460B466D
:102D60005046594610F0F2FF00221F4B10F0F0FFC2
:102D700016E70029BFF617AF00201C4926E73246A8
:102D80003B465046594610F0E1FF02460B4610F014
:102D9000DFFF0022144B10F0DBFF17E70CA3D3E991
:102DA00000231046194611F089F90FE70AA3D3E969
:102DB000002311F083F9002C02460B464FF000006F
:102DC000FFF61FAF074904E6763C7935EF39EABDD7
:102DD0009C7500883CE4377EFE822B654715F73FE3
:102DE0000000D0BF0000E03F0000F03F0000F0BF57
:102DF000F8B5C1F30A5304460D460E46174653BBB9
:102E000021F000460346334324D0374B002211F013
:102E100055F9364B9F4204460D4616DBC1F30A5363
:102E20000E46363B3B4440F2FE7293421CDC002BC4
:102E30003CDC13F1350F2BDA4CF250339F4213DC9C
:102E4000002D21A1D1E9000139DB1FA3D3E9002323
:102E500011F034F9F8BD40F2FF729342E2D102461C
:102E60000B4610F075FFF8BD002D19A1D1E9000146
:102E700005DB17A3D3E9002311F020F9F8BD14A353
:102E8000D3E9002314A1D1E9000111F017F9F5E706
:102E900026F0FF4626F4E006363346EA0355204680
:102EA00029460022124B11F009F9F8BD26F0FF4621
:102EB00026F4E00646EA035520462946F8BD08A157
:102EC000D1E90001C1E700BF59F3F8C21F6EA501A7
:102ED0009C7500883CE4377E9C7500883CE437FE96
:102EE00059F3F8C21F6EA58100005043B03CFFFFAC
:102EF0000000903C10B5054C237833B9044B13B156
:102F00000448AFF300800123237010BD300300207C
:102F100000000000448B020808B5034B1BB10349B5
:102F20000348AFF3008008BD000000003403002018
:102F3000448B0208154B002B08BF134B9D46A3F58D
:102F4000803A00218B460F461348144A121A05F0A6
:102F50008FF90F4B002B00D098470E4B002B00D061
:102F600098470020002104000D000D48002802D0E1
:102F70000C480BF03FFE13F0C3FC200029000BF0BF
:102F800019FE0BF033FE00BF000008000080022095
:102F900000000000A5EB0108B0020020042D002075
:102FA000F5EB010800000000F0B5214D2C6883B05E
:102FB00014B1204603B0F0BD4FF496700BF01CFE28
:102FC0004FF0FF310446032000F096FE00B202F0FD
:102FD0006DFF4FF0FF310646022000F08DFE00B27B
:102FE00002F064FF31460246204608F029FC04F155
:102FF000DC0600231A463046012108F0A5FA4FF0FE
:10300000FF31012000F078FE00B202F04FFF982758
:103010004FF0050C02463346214604F1E400CDE9A9
:10302000007C05F075FC20462C6003B0F0BD00BFAD
:103030004C0300202DE9F04104460F46FFF7B4FF92
:1030400000F1E4050646284605F080FC082C18D05F
:10305000A4F10903012B0CD8D6F8E43028461B6AEA
:103060009847052805DCD6F8E4302846DB690821B6
:1030700098473A46214610230D20BDE8F04102F062
:10308000F5BDD6F8E43028461B6A98470228F0DCE4
:10309000D6F8E4302846DB6904219847E9E700BF09
:1030A00010B52DED028BFFF77FFF00F1E404204601
:1030B00007F0DCF807EE900A2046F8EEE78A07F002
:1030C000E5F807EE900A2046B8EEE78A07F0EEF83A
:1030D00068EE087A07EE100AE8EEA87AB8EEC77A2A
:1030E000E7EE077AF5EE407AF1EE10FAB1EEE78AF4
:1030F00006D4FDEEC87ABDEC028B17EE900A10BD27
:1031000017EE900A12F078F9F3E700BF08B503282C
:103110001CD8DFE800F0140D0602BDE80840FFF7F8
:10312000BFBFFFF741FFBDE80840E43007F0BEB87D
:10313000FFF73AFFBDE80840E43007F0A7B8FFF713
:1031400033FFBDE80840E43007F090B8002008BD28
:1031500008B518B1012808D0002008BDFFF724FFEA
:10316000BDE80840E430FBF7B7BAFFF71DFFBDE844
:103170000840E430FBF7D0BA10B50446FFF714FF5F
:103180002146E430BDE8104006F078BE08B500F0F6
:10319000D9FFFCF731F8BDE8084000F0E7BC00BFFC
:1031A00008B500F0CFFFFCF76BF8BDE8084000F071
:1031B000DDBC00BF08B500F0C5FF11F047FDBDE85C
:1031C000084000F0D3BC00BF08B500F0BBFF12F010
:1031D000B7F8BDE8084000F0C9BC00BF08B500F072
:1031E000B1FFFCF719F8BDE8084000F0BFBC00BF14
:1031F00008B500F0A7FF11F0EDFEBDE8084000F0B3
:10320000B5BC00BF08B500F09DFFFBF7A5FABDE80F
:10321000084000F0ABBC00BF08B500F093FF11F010
:1032200079FEBDE8084000F0A1BC00BF70B5049E67
:1032300096420C4624DB154653B9042A19D0022ABB
:1032400010D110F001030DD102880A80184670BD1C
:1032500010448A1810F8013D01F8013B8A42F9D167
:10326000002070BD01462A46204604F047F80020A1
:1032700070BD10F00303F5D102680A60184670BDF6
:103280000846002104F0F4FF4FF0FF3070BD00BF8E
:103290000830704728B1002902DB43688B4201DC0B
:1032A000002070470844007A704700BF30B1002901
:1032B00004DB43688B42C4BF40180272704700BFF2
:1032C000002B22DB002920DB70B546688E4219DB1B
:1032D0005568761AEC1AB442A8BF3446002C11DBAC
:1032E000054602F108060830AA420844224606EBC9
:1032F000030103D004F002F8002070BD13F0C6FCF7
:10330000002070BD4FF0FF3070BD4FF0FF307047B0
:103310004068704710B4141E10DB4268A2420DDBF7
:1033200033EA230328BF1346121B08309A42204475
:10333000A8BF1A465DF8044B04F09ABF5DF8044B31
:10334000704700BF10B443688B4200F10804184670
:10335000A8BF084632EA220128BF19461B1A994223
:103360002044A8BF19465DF8044B00F0A3BA00BF83
:1033700070B5002BBCBF43689B1A002A0E4622DBA7
:1033800044689918A1421EDC91421CDBDBB136F087
:10339000004118D05942B14213DAB34211DD08306E
:1033A000002E00EB020516DB9C1B2246A9192846BD
:1033B00013F06CFC324628190021BDE8704004F07F
:1033C00057BF002C00DA70BD224608300021BDE84E
:1033D000704004F04DBF74429A192946281913F021
:1033E00055FC224628460021BDE8704004F040BF4D
:1033F00070B5054600206968490000F02BFA6B683B
:10340000002B14DD0A4EEB1D02465C782411991F37
:10341000345D94715C7804F00F04491B345DD47101
:103420006C688C4202F1020203F10103EDDC70BD15
:1034300068720208002BBCBF43689B1A002A30DB6D
:1034400030B444689D18A54229DC954227DB33B38C
:1034500031F0004423D00029B8BF01EB032191FBD8
:10346000F3F403FB1414002C00F10800B8BFE418B7
:1034700002441444A242134411D0204604E0A24264
:1034800008460FD082420AD001461578007802F82B
:10349000010B01F8015B8B42F1D12046F2E730BC11
:1034A000704770470C46EDE700B583B04FF0FF332F
:1034B00000930023FFF704FF03B05DF804FB00BF97
:1034C0000146002000F0F6B930B5013A83B0044659
:1034D0000D460F2A14D8DFE802F01E15606A5A1E46
:1034E00015532531424D74088C7A184600F02AFE97
:1034F000072DCDE9000103DD6B4603CB2060616041
:1035000003B030BD184600F08BFE002DC0B2F7DDD1
:10351000207003B030BD184600F082FE002DEFDDB4
:103520002070F6E7184600F07BFE012D83B2E7DD40
:10353000C3F307232370607003B030BD184600F05A
:103540006FFE032DDCDDC0F30721C0F30742C0F39B
:103550000763E070A1706270237003B030BD18463D
:1035600000F0F2FD032DCBDDA3070CBF206020602F
:1035700003B030BD184600F0E7FD032DE3DCBFE7E4
:10358000184600F04DFE012D03B2D1DCB8E7184615
:1035900000F046FE032DE7DCB2E7184600F040FEDF
:1035A000012DADDDE10780B209D42080A8E71846DF
:1035B00000F036FE012D80B2A2DDE207F5D52080B5
:1035C0009EE7184600F092FE032DCDDC98E71846E2
:1035D00000F0B8FD072DCDE9000191DD0DF1FF32BE
:1035E00004F1080312F8011F03F8011D9C42F9D1F0
:1035F00086E7184600F07AFE032DA4DC80E700BFC2
:1036000030B4141E07DB456808300A462044291BE5
:1036100030BCFFF759BF30BC704700BF00B5013A5E
:1036200085B00F2A00F28880DFE802F01623303DD3
:103630004A56595C5F62657174808308009101236A
:1036400008220DEB0201FFF7F1FDDDE9020100F0B8
:103650008DFA05B05DF804FB00910023012202A958
:10366000FFF7E4FD9DF9080000F0BEFA05B05DF833
:1036700004FB00910023012202A9FFF7D7FD9DF86A
:10368000080000F0B1FA05B05DF804FB00910023DA
:10369000022202A9FFF7CAFDBDF9080000F0A4FA52
:1036A00005B05DF804FB00910023022202A9FFF798
:1036B000BDFDBDF8080000F097FA05B05DF804FB09
:1036C00000910023042202A9FFF7B0FD029800F048
:1036D0008BFA05B05DF804FB01230091BEE70123DE
:1036E0000091C8E700910123D2E700910123DCE7B4
:1036F00000910123E6E700910023042202A9FFF7CD
:1037000095FD029800F09CFA05B05DF804FB00916D
:103710000123F2E700910023042202A9FFF786FDAE
:10372000029800F03BFA05B05DF804FB009100231D
:1037300086E700910123EFE700208AE7131E09DBEB
:1037400010B4446808300A461844E11A5DF8044B86
:10375000FFF764BF002000F047BA00BF02F054BA80
:1037600002F084BA05F09CB9C11702F0B5B900BFE8
:1037700002F0C6B902F0D6B902F044BA18B1818895
:10378000063002F00FBD7047704700BF38B50446E1
:103790000C200D460BF030FA032120224460856096
:1037A0000180428038BD00BFD0B5440010F00CFC51
:1037B000064660100F4610F017FC02460B463046D6
:1037C000394610F0E3FE10B144F00100D0BD3046A0
:1037D0003946BDE8D040FFF7D9BF00BF054B1B6895
:1037E0002BB15A688242FAD19A688A42F7D11846B8
:1037F000704700BF500300202DE9F041DFF85080F2
:10380000D8F8004005460E46174614B910E0246863
:1038100074B163689D42FAD1A3689E42F7D13846DD
:1038200001F0D2FBE06801F077FDE760BDE8F081D0
:10383000384601F0C9FB10200BF0DEF9D8F8003053
:10384000C760C0E901560360C8F80000BDE8F08118
:1038500050030020F8B50D1E074613DB02D1144CAF
:103860002046F8BDE81D0BF0C7F9032201230446EA
:103870008580028043802E469FB925440023AB718A
:103880002046F8BD13F069FA064605460028E6D042
:1038900007300BF0B1F90322012304468680028031
:1038A000438032463946A01D03F028FDE5E700BFFE
:1038B0004473020870B50D1E12DD064605F10800BE
:1038C0000BF09AF9032202230280044645604380EC
:1038D0002A463146083036B103F010FD204670BD4F
:1038E000034C204670BD04F0C3FC204670BD00BFF1
:1038F0003C730208014B1860704700BF04020020AF
:1039000030B40E4D2A68044621460020930983EA0C
:10391000D273534083EA121383EA9203520853404E
:1039200042EAC37202F00103490843EA4000EDD1C4
:103930008442E9D32A6030BC704700BF04020020F3
:1039400000210148FFF786BFD082020800B583B08E
:103950000023ADF8043001218DF8040001A8FFF721
:1039600079FF03B05DF804FB00B583B020B10029F6
:1039700002DB83888B4206DC00210A48FFF76AFFDE
:1039800003B05DF804FB084400228379ADF80420FD
:10399000012101A88DF80430FFF75CFF03B05DF84A
:1039A00004FB00BFD082020870B50D46F0B104469A
:1039B00081882DB1E9B92846BDE8704001F004BB0B
:1039C000F1B10431124D0020FFF744FF831D06467C
:1039D000A288A11D184603F091FC0346A088AA887E
:1039E0001844A91D03F08AFC304670BD61B1084C33
:1039F0000421AB8833B92046BDE8704001F0E4BA39
:103A0000034DD8E71944DEE7014C0821DAE700BF8F
:103A100024740208808870472DE9F041054682B081
:103A2000841D204601A9FAF7B7FBAA88019B14441C
:103A3000A34208D02B4F002630463946FFF7A6FE9A
:103A400002B0BDE8F0810022002306460F4610F0C8
:103A50009DFDA0B13946304610F0E0FD44006010F5
:103A600010F0C2FA02460B463046394610F08EFD81
:103A70000028E1D044F0010002B0BDE8F08127F059
:103A80000045304629464FF0FF32174B34464FF081
:103A9000010810F0ADFD38B94FF0FF32124B30463F
:103AA000294610F09BFDC0B118F0FF0FC2D10022D3
:103AB0004FF48013204629464FF0010810F098FD7E
:103AC00038B92046294600224FF4801310F068FDD3
