:020000040800F2
:10E0000000800220552E02087591020875910208C1
:10E0100075910208759102087591020800000000D0
:10E02000000000000000000000000000B1EA01084C
:10E03000759102080000000057EB0108B7EB0108DA
:10E040007591020875910208759102087591020890
:10E050007591020875910208759102087591020880
:10E060007591020875910208759102087591020870
:10E070007591020875910208759102087591020860
:10E0800075910208759102087591020885FB0108D7
:10E0900071FA01087591020889FB0108759102085F
:10E0A0007591020875910208759102087591020830
:10E0B0007591020875910208000000007591020830
:10E0C0007591020875910208759102087591020810
:10E0D0007591020875910208759102087591020800
:10E0E0007591020875910208000000000000000010
:10E0F0000000000000000000000000000000000020
:10E1000000000000759102080000000075910208EF
:10E1100075910208000000007591020800000000DF
:10E1200075910208759102087591020875910208AF
:10E1300075910208759102087591020800000000AF
:10E14000759102087591020875910208759102088F
:10E15000759102087591020875910208759102087F
:10E16000759102087591020875910208000000007F
:10E17000000000007591020800000000000000008F
:10E18000759102087591020875910208759102084F
:10E1900075910208000000002DE9F04F2DED028B73
:10E1A00085B003910478A4F10903042B054604F01B
:10E1B0007F0200F10100F5D9202AF3D02B2C04BFF7
:10E1C0006C7805462D2C00F081809FED497BB0EEE8
:10E1D000478AF0EE678A00260027D4B34FF0000C80
:10E1E000DFF81C914FF00008E246AB461DE018F046
:10E1F000EDF802460B462846CDE9002318F07CF8DE
:10E20000DDE9002317F02CFF424606460F464B4639
:10E2100051EC180BBAF1000F2CD018F001FA41ECB8
:10E22000180BD4461BF8014F94B1A4F13005092D09
:10E2300042464B4630463946D9D9BAF1000F1CD177
:10E240002E2C1AD11BF8014F4FF0010A002CECD1F3
:10E250005D4632463B4651EC180B18F0B7F80646BF
:10E260000F46039B304639461D6005B0BDEC028B5E
:10E27000BDE8F08F4FF0010CD4E75D46BCF1000F14
:10E280002DD032463B4651EC180B18F09FF804F0A5
:10E29000DF04452C06460F46E3D10399681C0A2289
:10E2A0001AF086FE16490246002018F0EFFB0246DF
:10E2B0000B463046394618F089F806460F46304678
:10E2C000394605B0BDEC028BBDE8F08F9FED0A7BAF
:10E2D0006C78B0EE478AF0EE678A01357BE7094F2C
:10E2E00000263046394605B0BDEC028BBDE8F08F04
:10E2F000000000000000F03F000000000000F0BF40
:10E30000000024400000F87F2DE9F0470023144668
:10E31000002206460F4618F0CBFA28B12D2107F14E
:10E32000004304F8011B1F460022002330463946F3
:10E3300018F0B4FA28B13022002322706370BDE8CF
:10E34000F0873046394619F09BF918F0EFFA85A3AB
:10E35000D3E9002380463946304618F0A9FA48B977
:10E3600082A3D3E900233046394618F0BFFA82462B
:10E37000002875D0B8F1000FC0F297804246764968
:10E38000002018F083FB02460B463046394618F051
:10E3900047F96FA3D3E9002318F018F86F4B002258
:10E3A00017F05EFE18F0ACFB012502460B464FF05D
:10E3B000FF3E4FF00009DFF8BCC16948012745F670
:10E3C000F3214FF02E0A8B4208BF82424FF03006F5
:10E3D00009D3121A63EB01038B4208BF824206F194
:10E3E0000106F6D2F6B2214652EA030001F8016BAB
:10E3F00008D1BD420FDD0137102F0CD00C467CE94F
:10E400000201E0E7BD4207F1010704BF84F801A063
:10E41000A11C102FF2D1B9F1000F0DD00A46302007
:10E4200002F8010BC2F1010373440B44002BF7DC2B
:10E430002EEAEE7301331944B8F1010F31D0B8F16F
:10E44000000F4FF065030B70C4BF2B234B70404689
:10E45000D8BF0131BDE8F047C8BF02310CF066BD3E
:10E46000B8F10E0F08F101053FDDA8F10E094A468B
:10E470003949002018F00AFB02460B46304639465F
:10E4800018F0CEF8354B002217F0EAFD18F038FBF3
:10E49000002D02460B4613DDA8F10F0E4FF00108C8
:10E4A00089E700230B70BDE8F087C8F100022A4914
:10E4B000002018F0EBFA32463B4617F087FF68E77A
:10E4C0002146302001F8020B2E266FEA0800667004
:10E4D0000138A8F10F0E01300C18302001F8010BA3
:10E4E000A142FBD14FF0010865E7C8F10E021A49BD
:10E4F000002018F0CBFA02460B463046394617F09A
:10E5000065FF164B002217F0ABFD18F0F9FA002D4D
:10E5100002460B4614DC214630206FEA08092E26FD
:10E5200001F8020B09F1FF306670B9F1000F03D05A
:10E53000D1464FF0FF3ECEE70C464FF0FF3ED1E70D
:10E54000D1464FF0FF3E4FF0010834E7AFF30080B3
:10E550000000901EC4BCD642000024400000E03FF2
:10E5600000407A108DEDB5A0F7C6B03E50EFE2D670
:10E57000E41A4B44E897020870B54FF0FF3006F0FC
:10E5800031FA04466FF07F4006F02CFA064620462A
:10E5900017F0A2FE0C4B002217F018FF044630467D
:10E5A0000D4617F099FE06A3D3E9002318F038F8BA
:10E5B00002460B462046294617F052FD70BD00BFAB
:10E5C0000000E0DFFFFF6F430000F03D00000000AF
:10E5D000294B1B68002B70B505460CBF1820052081
:10E5E0000E4609F05FF9002D044639DD234B18680B
:10E5F00017F082FE1EA3D3E9002317F0E7FE0022E6
:10E60000002317F02DFD18F091F9226820EAE0713F
:10E61000B1F5806FA8BF4FF48061D368204698475A
:10E6200023681749D3F8803091FBF5F120469847CD
:10E63000002E00DC70BDA6F11405012DB8BF012528
:10E6400028460DF03DFA23682046DB6800219847F4
:10E65000701B0128BDE87040B8BF01200DF030BA32
:10E660000368BDE87040DB6800211847AFF3008005
:10E670001010101010101040740400200802002028
:10E6800040420F000000000038B5154B1B68002BFE
:10E6900004460CBF1820052009F004F90546204661
:10E6A00017F02AFE0CA3D3E9002317F08FFE0022F7
:10E6B000002317F0D5FC18F039F92B6820EAE07137
:10E6C000B1F5007FDB68A8BF4FF40071284698477A
:10E6D000044B1C6038BD00BF10101010101000401B
:10E6E000740400200802002030B52D4B8DB01A684C
:10E6F0000092009A120205D4009A42F4000200929D
:10E70000009A1A60274A284B126801921B680293EC
:10E710000DF0ACFF17F0F0FDCDE90401019B9BB2B9
:10E720000193029B9BB20293DDE904011AA3D3E992
:10E73000002317F04BFE1D4B0022CDE90401CDE96B
:10E7400006230298019BC01A17F0C6FDCDE9080107
:10E75000DDE90445019817F0BFFD02460B4620464F
:10E76000294617F07BFCCDE90A01DDE90601DDE968
:10E770000823DDE90A4517F053FF22462B4617F020
:10E7800025FE0B4B002217F06BFC18F0F7F80390F6
:10E7900003980DB030BD00BF9A9999999999F13FAE
:10E7A00008030450A875FF1FCA75FF1F00005440DE
:10E7B00000003E40000000002DE9F04F044683B009
:10E7C000C06817F099FD064620690F4617F094FDC2
:10E7D0006369019380461846894617F08DFD02460D
:10E7E00001F1004382468B463046394618F0F2FD6F
:10E7F00018F0E4F8E062054618F0A4FC0346284649
:10E800001D4618F061FC034628461D4617F086FD9C
:10E8100032463B4617F0DAFD064628460F4617F00B
:10E820007DFD52465B4617F0D1FD02460B46304651
:10E83000394617F013FC0B4602464946404618F08D
:10E84000C9FD18F0BBF8019B002B07EE900A23DDF1
:10E85000F5EEC07AF1EE10FA1ADD11A7D7E90067DC
:10E8600017EE900A17F05AFD02460B46304639461D
:10E8700017F0F4FB32463B4617F0F2FB18F09EF817
:10E88000A062E38843F00203E38003B0BDE8F08FA9
:10E8900005A7D7E90067E3E7A062F2E7AFF30080DE
:10E8A000EA2E4454FB21F93FEA2E4454FB21F9BFE0
:10E8B00008B50DF009FEDFED0C7A07EE100A67EEE1
:10E8C000277A17EE900A17F029FD05A3D3E9002354
:10E8D00017F0A6FE18F02AF808BD00BFAFF30080BD
:10E8E000EA2E4454FB2119400000B443000000000C
:10E8F00008B50DF0FFFDDFED0C7A07EE100A67EEAC
:10E90000277A17EE900A17F009FD05A3D3E9002333
:10E9100017F086FE18F00AF808BD00BFAFF30080BC
:10E92000EA2E4454FB2119400000B44300000000CB
:10E93000494A21F0004393422DE9704304460D46B5
:10E940006EDC464A93420E4639DC3FA3D3E90023EE
:10E9500017F086FB424B002217F0C8FF00286FD14A
:10E9600022462B462046294617F030FD02460B462C
:10E970002046294614461D4618F08AFA384B0022D4
:10E98000804689462046294617F06AFB19F04AF965
:10E99000334B002217F064FB02460B462046294603
:10E9A00017F03EFE42464B4617F05AFB00F0F4FAD1
:10E9B000002E39DC01F100431946BDE87083294A75
:10E9C000934233DCB3F1804FCADD18F061FA22467E
:10E9D000804689462B462046294617F0F7FC204BF7
:10E9E000002217F03DFB19F01DF942464B4617F087
:10E9F00037FB02460B460020194917F011FE42462C
:10EA00004B4604460D464046494617F029FB024650
:10EA10000B462046294617F023FB02F089F8C7E78A
:10EA200002460B4617F01CFBBDE8708318F030FA65
:10EA300002F07EF806A3D3E9002317F011FBB7E735
:10EA400020462946BDE870839C7500883CE4377EEB
:10EA5000EF39FAFE422EE63FFFFFEF7FFFFF2F3E2A
:10EA60000000F03F0000B0412DE9F84FC44B21F009
:10EA700000469E4204460D468A460EDDC14B9E422C
:10EA800000F3B08000F0AB80BAF1000F40F3E880F3
:10EA90009FA1D1E90001BDE8F88FBB4B9E4200F376
:10EAA000B880A3F1DE739E4240F3A4804FF0FF3B99
:10EAB00022462B462046294617F088FC02460B4684
:10EAC0008046894617F082FC93A3D3E900230646CB
:10EAD0000F4617F07BFC92A3D3E9002317F0C0FA8E
:10EAE00032463B4617F072FC8FA3D3E9002317F0A0
:10EAF000B7FA32463B4617F069FC8DA3D3E90023F1
:10EB000017F0AEFA32463B4617F060FC8AA3D3E911
:10EB1000002317F0A5FA32463B4617F057FC88A3AE
:10EB2000D3E9002317F09CFA42464B4617F04EFCFF
:10EB300085A3D3E90023804689463046394617F03D
:10EB400045FC83A3D3E9002317F088FA32463B46FD
:10EB500017F03CFC80A3D3E9002317F07FFA32467C
:10EB60003B4617F033FC7EA3D3E9002317F076FA77
:10EB700032463B4617F02AFC7BA3D3E9002317F06B
:10EB80006DFA32463B4617F021FCBBF1FF3F0246CF
:10EB90000B466AD04046494617F062FA7B4E224641
:10EBA0002B4617F013FC7A4B06EBCB064FEACB0B48
:10EBB0009B44DBE9002317F051FA22462B4617F05D
:10EBC0004DFA02460B46D6E9000117F047FABAF1B2
:10EBD000000F0DDA01F100431946BDE8F88F002857
:10EBE0003FF452AF22462B462046294617F038FA0A
:10EBF000BDE8F88F5EA3D3E9002317F031FA654B27
:10EC0000002217F073FE00283FF450AF204629463B
:10EC1000EEE718F03DF9604B9E4204460D4634DCA9
:10EC2000A3F550239E4259DC02460B4617F018FA12
:10EC3000584B002217F012FA00224FF0804306468C
:10EC40000F462046294617F00BFA02460B4630467F
:10EC5000394617F0E5FC4FF0000B04460D4627E758
:10EC600045A1D1E90001BDE8F88F4046494617F0BB
:10EC7000F7F922462B4617F0A9FB02460B46204621
:10EC8000294617F0EBF9BDE8F88F444B9E421ADA9B
:10EC9000434B002217F0E2F9414B06460F46002293
:10ECA0002046294617F092FB3A4B002217F0D8F97C
:10ECB00002460B463046394617F0B2FC4FF0020BC5
:10ECC00004460D46F4E602460B460020354917F08F
:10ECD000A7FC4FF0030B04460D46E9E62D4B00223E
:10ECE00017F0BCF92B4B002206460F46204629465A
:10ECF00017F0B6F902460B463046394617F090FC3D
:10ED00004FF0010B04460D46D2E600BFAFF3008082
:10ED1000182D4454FB21F93F11DA22E33AAD903F1C
:10ED2000EB0D76244B7BA93F513DD0A0660DB13F42
:10ED30006E204CC5CD45B73FFF8300922449C23FAA
:10ED40000D5555555555D53F2F6C6A2C44B4A2BF6F
:10ED50009AFDDE522DDEAD3F6D9A74AFF2B0B33F37
:10ED6000711623FEC671BC3FC4EB98999999C93FAF
:10ED70009C7500883CE4377E182D4454FB21F9BF74
:10ED8000FFFF0F440000F07FFFFFDB3FF09702081A
:10ED9000109802080000F03FFFFFF23F00800340A0
:10EDA0000000F83F0000F0BFF8B5C1F30A57A7F222
:10EDB000FF35132D02460B460C46064631DC002D6E
:10EDC0001DDB354F2F4101EA070C5CEA000C2DD00A
:10EDD0002FA3D3E9002317F043F90022002317F0F3
:10EDE00085FD48B1002C04DD4FF4801343FA05F58E
:10EDF0002C4424EA0704002621463046F8BD24A30B
:10EE0000D3E9002317F02CF90022002317F06EFD40
:10EE10000028F1D0002C35DB26432FD01F4C0026D4
:10EE2000EAE7332D05DDB5F5806F24D0104619468D
:10EE3000F8BDA7F213474FF0FF3C2CFA07F7074243
:10EE4000F4D013A3D3E9002317F00AF9002200231A
:10EE500017F04CFD0028CFD0002C09DD142D0FD069
:10EE60000123C5F1340503FA05F5AE1928BFE418EE
:10EE700026EA0706C0E717F0F3F8F8BD3446BBE70B
:10EE80000134F5E700264FF00044B5E7AFF300800A
:10EE90009C7500883CE4377EFFFF0F000000F03FC8
:10EEA000F8B5C1F30A57A7F2FF35132D02460B46FA
:10EEB0000C4606461FDC002D3DDB354F2F4101EA95
:10EEC000070C5CEA000C1BD02FA3D3E9002317F03A
:10EED000C7F80022002317F009FD48B1002C04DA1E
:10EEE0004FF4801343FA05F52C4424EA0704002666
:10EEF00021463046F8BD332D05DDB5F5806F2AD0AB
:10EF000010461946F8BDA7F213474FF0FF3C2CFA04
:10EF100007F70742F4D01CA3D3E9002317F0A0F8A9
:10EF20000022002317F0E2FC0028E1D0002C1EDBB9
:10EF300026EA0706DCE714A3D3E9002317F090F8CC
:10EF40000022002317F0D2FC0028D1D0002C05DBD2
:10EF500000263446CCE717F083F8F8BD24F00043D0
:10EF60000C4A1E43002E18BF14460026C0E7142D7D
:10EF700008D00123C5F1340503FA05F5AE1928BF01
:10EF8000E418D5E70134D3E79C7500883CE4377E6C
:10EF9000FFFF0F000000F0BF2DE9F04FD44B2DED27
:10EFA000028B994285B082468B4666DDD14B9942F1
:10EFB0000E4659DCD04B994240F3B4819FEDB87BAB
:10EFC0008DED027B4FEA215A0446AAF2FF38CB4B63
:10EFD000C6F313069E4246F07F5500F3568145F472
:10EFE000401520462946C64B002217F037F8C54B7E
:10EFF00004460D46002217F0E9F922462B4617F089
:10F00000E5F9A246CDE9000141EC180BAB46002E14
:10F0100060D1002200232046294617F03FFC00283B
:10F0200000F0A081B8F1000F00F0B981404617F060
:10F0300063F99DA3D3E9002306460F4617F0C6F9EE
:10F04000DDE9022317F00CF899A3D3E90023044665
:10F050000D463046394617F0B9F902460B462046B0
:10F06000294616F0FDFF03E002460B4616F0F8FFB6
:10F0700005B0BDEC028BBDE8F08FA34B21F000443E
:10F080009C420A4611DDA14B002217F007FC002824
:10F0900000F09280002200239D49002017F0C0FA62
:10F0A00005B0BDEC028BBDE8F08F9A4B9C4240F35B
:10F0B0009280994B1A449A4240F23481914B00223B
:10F0C00017F084F952465B4617F080F941EC180BB3
:10F0D0004FF0000800224FF080435046594616F08A
:10F0E000BFFF02460B465046594617F099FA0246B2
:10F0F0000B4606460F4617F069F96FA3D3E90023C4
:10F1000004460D4617F062F96DA3D3E9002316F00B
:10F11000A7FF22462B4617F059F96BA3D3E900232A
:10F1200016F09EFF22462B4617F050F968A3D3E94C
:10F13000002316F095FF22462B4617F047F966A3E9
:10F14000D3E9002316F08CFF22462B4617F03EF938
:10F1500063A3D3E9002316F083FF22462B4617F062
:10F1600035F961A3D3E9002316F07AFF22462B4636
:10F1700017F02CF904460D46B8F1000F45D155ECB7
:10F18000184B18EE102A2B4616F06AFF32463B4603
:10F1900017F01CF9024618EE100A0B46294616F025
:10F1A0005DFF02460B465046594616F057FF05B024
:10F1B000BDEC028BBDE8F08F52465B465046594687
:10F1C00016F04CFF02460B4617F02AFA05B0BDECCC
:10F1D000028BBDE8F08F514B002216F041FF002258
:10F1E000002317F083FB28B14D4B9C4202DC5046B4
:10F1F00059463DE752465B465046594617F0E6F8F9
:10F20000404B002217F0E2F8CBE7404617F074F8C5
:10F2100027A3D3E900238046894617F0D7F841ECAD
:10F22000170B53EC182B2046294655EC174B16F0BC
:10F2300017FF32463B4617F0C9F81BA3D3E900235A
:10F2400006460F464046494617F0C0F8DDE902235E
:10F2500016F006FF02460B463046394616F000FF10
:10F2600002460B4651EC180B16F0F8FE52465B4670
:10F2700016F0F4FE02460B462046294616F0EEFE36
:10F2800005B0BDEC028BBDE8F08F45F40015C6F566
:10F29000801620462946B61008F10108A3E600BFF3
:10F2A0000000000000000000763C7935EF39EA3DAF
:10F2B0000000E0FE422EE63F44523EDF12F1C23F24
:10F2C0009FC678D0099AC33FDE03CB966446C73FFA
:10F2D000AF788E1DC571CC3F599322942449D23FFB
:10F2E00004FA97999999D93F935555555555E53F46
:10F2F0007982DA3FFFFFEF7FFFFF3F439DA00600CB
:10F300000000F03F0000E03FFFFFEF3F0000F0BFD4
:10F31000000050C3FFFF1F3E3C412D400000504302
:10F32000FFFF8F3C3C4B00225046594616F098FE9A
:10F330000B15A3F2FF38B8F1000F04460D460E4638
:10F3400050DD52465B4616F089FE02460B46002011
:10F35000314916F083FE22462B4617F061F9CDE9BC
:10F36000020134E626A3D3E900232046294617F0FC
:10F370002DF802460B460020274916F06FFEDDE906
:10F38000002317F023F806460F46B8F1000F09D105
:10F3900002460B462046294616F060FE68E600202D
:10F3A000002165E6404616F0A7FF17A3D3E9002326
:10F3B0008046894617F00AF815A3D3E90023824650
:10F3C0008B464046494617F001F8DDE9022316F066
:10F3D00047FE02460B463046394616F03FFE2246AF
:10F3E0002B46DCE60C4B002216F038FE02460B469C
:10F3F0005046594616F032FEADE700BFAFF300802D
:10F40000555555555555E53F0000E0FE422EE63F67
:10F41000763C7935EF39EA3D0000F03F000000000E
:10F4200008B518F0A7F804A3D3E9002317F0F8F8FB
:10F4300008BD00BFAFF30080EF39FAFE422EE63F71
:10F440002DE9F043DFF8B4908BB004460D4601F08F
:10F45000F3F899F90030013306460F462CD02246C6
:10F460002B462046294617F04BFA804620BB204603
:10F47000294617F00DFD1FA3D3E9002317F036FA34
:10F48000D0B1194A99F90030CDF820800321CDE997
:10F490000445CDE90245CDE9001293B1134900209E
:10F4A000022BCDE9060111D119F04AFB222303609A
:10F4B000089B9BB9DDE90667304639460BB0BDE8CD
:10F4C000F0830B4B4FF06042CDE90623684619F0FC
:10F4D000DFF90028E8D0089B002BEBD019F030FBB7
:10F4E000089B0360E6E700BF78AD02080000F07FEC
:10F4F000FFFFEF477DF8B98FCE3386409A02002098
:10F500002DE9F043DFF8F4808BB004460D4601F09E
:10F5100043F998F90030013306460F4616D02046CD
:10F52000294619F0AFF988B130A3D3E9002320466A
:10F53000294617F0DBF98146002836D12DA3D3E9FF
:10F5400000232046294617F0B3F920B93046394642
:10F550000BB0BDE8F08398F90030214ACDF8209037
:10F56000002000210426022BCDE90445CDE9024507
:10F57000CDE906010096019212D0684619F088F98B
:10F5800070B1089B2BBBDDE90667304639460BB0EE
:10F59000BDE8F08313490020022BCDE90601ECD130
:10F5A00019F0CEFA22230360EBE70D4A98F90030F8
:10F5B000019203210022CDE90445CDE902450091E5
:10F5C0000892002BE6D1084B4FF06042CDE90623AC
:10F5D000D3E719F0B5FA089B0360D4E7AFF30080D6
:10F5E00080AD02080000F07FFFFFEF47EF39FAFE21
:10F5F000422E864051302DD5104987C09A020020F6
:10F600002DE9F04F2DED028BDFF848B38FB00646A1
:10F610000F4614461D4601F013FD9BF900A0BAF1F8
:10F62000FF3F41EC180B3BD022462B462046294693
:10F6300017F066F98146002832D132463B46304603
:10F64000394617F05DF90090002840F0E1804FF056
:10F6500000084FF000093046394642464B4617F045
:10F660001DF920B342464B462046294617F016F9AD
:10F670000390002854D0009B0C930122B04B0492BD
:10F68000CDE90667CDE90845CDE90A890593BAF1C8
:10F69000000F6BD09FEDA47BB0EE478AF0EE678A37
:10F6A00051EC180B0FB0BDEC028BBDE8F08F51ECA4
:10F6B000180B19F0E7F8824600286FD04FF00008C9
:10F6C0004FF0000951EC180B42464B4617F0E6F894
:10F6D0000028E5D03046394619F0D4F80028DFD0AC
:10F6E0002046294619F0CEF80028D9D09BF90030E1
:10F6F000934A059204210022022BCDE90667CDE949
:10F700000845CDE90A8904910C9204D004A819F0A7
:10F71000BFF800282FD119F013FA222303602AE042
:10F720002046294619F0AEF80028B9D042464B468B
:10F730002046294617F0BCF80028B1D00399804A2A
:10F740009BF900300C910121CDE90667CDE9084510
:10F75000CDE90412002B78D1CDE90A8904A819F06B
:10F7600097F8002877D00C9B5BB106E004A819F04D
:10F770008FF8002874D00C9B1BB119F0E1F90C9B99
:10F7800003609DED0A7BB0EE478AF0EE678A51EC8C
:10F79000180B0FB0BDEC028BBDE8F08F3046394638
:10F7A00019F070F8002889D02046294619F06AF827
:10F7B000002883D053EC182B18EE100A194617F0C6
:10F7C0009FF8002840F0918003239BF900A0049348
:10F7D0005B4B0C90CDE90667CDE908450593BAF17E
:10F7E000000F42D19FED527B42464B463046394690
:10F7F0008DED0A7B17F05CF8002845D104A819F0BC
:10F8000047F80028AFD119F09BF922230360AAE73B
:10F81000002200232046294617F040F800283FF434
:10F820003FAF4849464BCDF8309000200122BAF155
:10F83000020FCDE90667CDE90845CDE90A0104923A
:10F84000059393D141EC180B2AE73F490020022B86
:10F85000CDE90A0182D119F073F92123036082E70F
:10F8600019F06EF92123036085E79FED337B424653
:10F870004B46304639468DED0A7B17F019F8E0B952
:10F88000BAF1020FBFD0B9E7304B0022204629461B
:10F8900016F09CFD02460B46CDE9002319F000F856
:10F8A000DDE9002316F0FAFFE0B9294B9BF900A02F
:10F8B0004FF06042CDE90A23E2E7244B00222046C4
:10F8C000294616F083FD02460B46CDE9002318F0C9
:10F8D000E7FFDDE9002316F0E1FF18B91A4B00221B
:10F8E000CDE90A239BF900A0CAE7154B9BF900B0AC
:10F8F000CDF830A00122CDE90667CDE90845CDE974
:10F900000423BBF1000F3FF427AF42464B4640466D
:10F91000494616F085FEBBF1020FCDE90A019AD0E7
:10F920001CE700BFAFF30080000000000000F03FC4
:10F93000000000E0FFFFEF47000000000000F07F44
:10F9400098AD02080000F03F0000F0FF0000E03F2B
:10F95000FFFFEFC79A0200202DE9F84FC44E21F0B7
:10F960000043B34204460D460DDD03F1404303F569
:10F970008013034340F0B980002940F3C080002089
:10F980000021BDE8F88FBB4EB34208DCBA4A93426F
:10F9900000F3BA809CA1D1E90001BDE8F88F0029ED
:10F9A000C0F2708102460B460020B44916F056FBA7
:10F9B000B34B002216F00AFD04460D4618F032F94A
:10F9C00093A3D3E90023894680462946204616F0B2
:10F9D000FDFC91A3D3E9002316F042FB22462B46FF
:10F9E00016F0F4FC8EA3D3E9002316F037FB224671
:10F9F0002B4616F0EBFC8CA3D3E9002316F030FB6A
:10FA000022462B4616F0E2FC89A3D3E9002316F028
:10FA100025FB22462B4616F0D9FC87A3D3E9002309
:10FA200016F01EFB22462B4616F0D0FC84A3D3E929
:10FA3000002382468B462046294616F0C7FC82A347
:10FA4000D3E9002316F00AFB22462B4616F0BEFC33
:10FA50007FA3D3E9002316F003FB22462B4616F0C2
:10FA6000B5FC7DA3D3E9002316F0F8FA22462B4615
:10FA700016F0ACFC814B002216F0F2FA02460B465F
:10FA80005046594616F0CCFD42464B4616F09EFCB9
:10FA9000002682468B4632464B463046494616F093
:10FAA00095FC02460B462046294616F0D7FA324608
:10FAB00004460D464B464046494616F0D1FA0246EA
:10FAC0000B462046294616F0ABFD02460B46504633
:10FAD000594616F0C5FA32464B4616F0C1FA0246B0
:10FAE0000B4616F0BDFABDE8F88F02460B4616F03D
:10FAF000B5FA02460B4616F093FDBDE8F88F58A103
:10FB0000D1E90001BDE8F88F02460B4616F05EFC15
:10FB10003FA3D3E9002306460F4616F057FC3EA349
:10FB2000D3E9002316F09CFA32463B4616F04EFC11
:10FB30003BA3D3E9002316F091FA32463B4616F078
:10FB400045FC39A3D3E9002316F08AFA32463B4636
:10FB500016F03CFC36A3D3E9002316F07FFA3246B8
:10FB60003B4616F033FC34A3D3E9002316F078FAB1
:10FB700032463B4616F02AFC31A3D3E900238046E7
:10FB800089463046394616F021FC2FA3D3E90023DD
:10FB900016F064FA32463B4616F018FC2CA3D3E963
:10FBA000002316F05DFA32463B4616F00FFC2AA3FE
:10FBB000D3E9002316F052FA32463B4616F006FC13
:10FBC0002E4B002216F04CFA02460B4640464946A0
:10FBD00016F026FD22462B4616F0F8FB02460B4691
:10FBE00021A1D1E9000116F039FA02460B46204660
:10FBF000294616F033FA02460B4603A1D1E900016B
:10FC000016F02CFABDE8F88F182D4454FB21F93F6B
:10FC100009F7FD0DE13D023F88B20175E0EF493F74
:10FC20003B8F68B52882A43F5544880E55C1C93F13
:10FC30007D6FEB0312D6D43F555555555555C53FED
:10FC400082922EB1C5B8B33F59018D1B6C06E63FB9
:10FC5000C88A599CE52A00404B2D8A1C273A03404C
:10FC6000182D4454FB210940075C143326A6913C0F
:10FC7000FFFFEF3FFFFFDF3F0000603C0000F03F71
:10FC80000000E03F5C4B002216F0EAF95B4B0022DB
:10FC900016F09CFB40A3D3E9002304460D4616F062
:10FCA00095FB3FA3D3E9002316F0DAF922462B4651
:10FCB00016F08CFB3CA3D3E9002316F0CFF92246C3
:10FCC0002B4616F083FB3AA3D3E9002316F0C8F9BC
:10FCD00022462B4616F07AFB37A3D3E9002316F011
:10FCE000BDF922462B4616F071FB35A3D3E900235C
:10FCF00016F0B6F922462B4616F068FB8046894678
:10FD00002046294617F08EFF2FA3D3E9002306468D
:10FD10000F462046294616F059FB2DA3D3E90023B0
:10FD200016F09CF922462B4616F050FB2AA3D3E985
:10FD3000002316F095F922462B4616F047FB28A320
:10FD4000D3E9002316F08AF922462B4616F03EFB33
:10FD5000294B002216F084F902460B4640464946DC
:10FD600016F05EFC32463B4616F030FB1EA3D3E98C
:10FD7000002316F073F932463B4616F071F902463D
:10FD80000B4616F06DF902460B4619A1D1E90001A8
:10FD900016F064F9BDE8F88F09F7FD0DE13D023F6B
:10FDA00088B20175E0EF493F3B8F68B52882A43FD8
:10FDB0005544880E55C1C93F7D6FEB0312D6D43F21
:10FDC000555555555555C53F82922EB1C5B8B33FCF
:10FDD00059018D1B6C06E63FC88A599CE52A0040F4
:10FDE0004B2D8A1C273A0340075C143326A6913C0E
:10FDF000182D4454FB2109400000F03F0000E03F73
:10FE0000414A91422DE9F84304460D463EDD3F4A02
:10FE100091420B4608DD02F17952914266DD0246BD
:10FE200016F01EF9BDE8F88301F1404202F5801298
:10FE3000024357D0B1F1804F32DD024616F0C6FAC8
:10FE4000334B002216F00AF917F0ECFE22462B463F
:10FE5000804689462046294616F002F92246064683
:10FE60000F462B464046494616F0FAF802460B4626
:10FE70000020274916F0D4FB0B460246394630468F
:10FE800016F0ECF8BDE8F84300F052BE02460B460F
:10FE900016F0E4F802460B4616F0C2FBBDE8F88304
:10FEA0001B4B002216F0DAF802460B4604460D46BC
:10FEB00016F0D6F822462B4606460F46204629461F
:10FEC00016F084FA02460B463046394616F0C8F85A
:10FED00017F0A8FE22462B4616F0C2F8BDE8F843FC
:10FEE000FFF75AB800200021BDE8F88300F020FE9B
:10FEF00003A3D3E9002316F0B3F8BDE8F88300BFED
:10FF0000EF39FAFE422EE63FFFFFEF3FFFFFAF4122
:10FF10000000F03F000000002DE9F04FC64B2DED32
:10FF2000028B21F00049994583B004460D4615DD4A
:10FF300009F1404909F58019034659EA030300F025
:10FF4000058102460B4616F089F802460B4616F06C
:10FF500067FB03B0BDEC028BBDE8F08FB74B994552
:10FF60000E460FDCB9F1795F80F2708196A3D3E978
:10FF7000002316F075F8B24B002216F0B7FC0028EB
:10FF800040F01C812046294616F082FF02460B46AF
:10FF90000020AB4916F062F8AA4B002216F016FAC0
:10FFA0008BA3D3E9002304460D4616F00FFA8AA36B
:10FFB000D3E9002316F054F822462B4616F006FA31
:10FFC00087A3D3E9002316F049F822462B4616F002
:10FFD000FDF985A3D3E9002316F042F822462B460B
:10FFE00016F0F4F982A3D3E9002316F037F822467D
:10FFF0002B4616F0EBF980A3D3E9002316F030F876
:020000040801F1
:1000000022462B4616F0E2F97DA3D3E9002382466F
:100010008B462046294616F0D9F97BA3D3E9002365
:1000200016F01CF822462B4616F0D0F978A3D3E937
:10003000002316F015F822462B4616F0C7F976A3D2
:10004000D3E9002316F00AF822462B4616F0BEF933
:100050007B4B002216F004F80746884620462946C6
:1000600017F0E0FDDFF8E0C14BEC18ABE14582464C
:100070008B46CDE900AB00F38280DDE900239B468F
:1000800015F0EEFF4346894680463A4651EC180B80
:1000900016F0C6FA02460B464046494616F096F957
:1000A0004FF0000A8046894652465B465046594604
:1000B00016F08CF902460B462046294615F0CEFF75
:1000C000524604460D465B46DDE9000115F0C8FFC7
:1000D00002460B462046294616F0A2FA02460B4677
:1000E00015F0BEFF02460B464DA1D1E9000115F007
:1000F000B5FF02460B464046494615F0AFFF524653
:1001000004460D465B465046594615F0A9FF024687
:100110000B4645A1D1E9000115F0A0FF02460B46B0
:100120002046294615F09AFF02460B463EA1D1E92A
:10013000000115F093FF002E3FF70BAF01F10043D4
:10014000194603B0BDEC028BBDE8F08F38A3D3E9AC
:10015000002316F03BF932A3D3E9002306460F46ED
:100160002046294616F032F902460B4630463946FB
:1001700015F076FF03B0BDEC028BBDE8F08F3A4678
:10018000434651EC180B16F04BFA52465B4616F0FC
:100190001DF952465B4615F063FF02460B4615F00B
:1001A0005FFF1FA3D3E9002315F058FF02460B465B
:1001B0001FA1D1E9000115F051FFBCE720462946F7
:1001C000C7E600BFAFF300809C7500883CE4377E33
:1001D00009F7FD0DE13D023F88B20175E0EF493FAF
:1001E0003B8F68B52882A43F5544880E55C1C93F4E
:1001F0007D6FEB0312D6D43F555555555555C53F28
:1002000082922EB1C5B8B33F59018D1B6C06E63FF3
:10021000C88A599CE52A00404B2D8A1C273A034086
:10022000075C143326A6913C182D4454FB21E93F6A
:10023000182D4454FB21F93FFFFFEF3FFFFFDF3F45
:100240000000F03F0000E03F3233EF3F02460B4634
:1002500016F0BCF839A3D3E9002306460F4616F082
:10026000B5F838A3D3E9002315F0FAFE32463B4631
:1002700016F0ACF835A3D3E9002315F0EFFE3246B3
:100280003B4616F0A3F833A3D3E9002315F0E8FEAC
:1002900032463B4616F09AF830A3D3E9002315F016
:1002A000DDFE32463B4616F091F82EA3D3E900233B
:1002B00015F0D6FE32463B4616F088F82BA3D3E95C
:1002C0000023804689463046394616F07FF829A338
:1002D000D3E9002315F0C2FE32463B4616F076F80D
:1002E00026A3D3E9002315F0BBFE32463B4616F0A9
:1002F0006DF824A3D3E9002315F0B0FE32463B4647
:1003000016F064F80C4B002215F0AAFE02460B46CC
:100310004046494616F084F922462B4616F056F818
:1003200022462B4615F09CFE03B0BDEC028BBDE8C7
:10033000F08F00BFAFF300800000F03F09F7FD0D24
:10034000E13D023F88B20175E0EF493F3B8F68B560
:100350002882A43F5544880E55C1C93F7D6FEB03E9
:1003600012D6D43F555555555555C53F82922EB19D
:10037000C5B8B33F59018D1B6C06E63FC88A599C2E
:10038000E52A00404B2D8A1C273A0340000000005C
:100390002DE9F84F994653425F4F134329F0004E21
:1003A0004EEAD373BB42904604460D463DD84642C2
:1003B000064321F0004A4AEAD676BE4203468B46FF
:1003C00033D809F1404606F5801616433DD04FEA72
:1003D000A97606F002065AEA030346EAD1762CD043
:1003E0005EEA020335D0BE4546D0BA4531D0AAEB0D
:1003F0000E0EBEF1747F4FEA2E5339DAB9F1000FB9
:1004000046DA3C3344DA00200021012E58D0022E77
:1004100049D086B134A3D3E9002315F01FFE34A3DD
:10042000D3E9002315F01AFE05E022462B4640468C
:10043000494615F015FEBDE8F88F022E10D0032EA8
:10044000F9D12DA1D1E90001F5E7BDE8F84FFEF79C
:100450000BBBBBF1000F07DB29A1D1E90001EAE7E3
:1004600023A1D1E90001E6E727A1D1E90001E2E7F4
:1004700023A1D1E90001C8E7F24506F1FF3623D0F8
:10048000022E29D8254B03EBC606D6E90001D2E798
:1004900042464B462046294616F0C2F816F0F8FCB4
:1004A000FEF7E2FAB1E710A3D3E9002315F0D6FD79
:1004B00002460B460EA1D1E9000115F0CFFDBAE7C7
:1004C00001F100431946B6E7022E08D8144B03EB9E
:1004D000C606D6E90001AEE700200021ABE70CA17B
:1004E000D1E90001A7E700BF075C143326A6A13CB1
:1004F000182D4454FB210940182D4454FB2109C0F8
:10050000182D4454FB21F93F182D4454FB21F9BF09
:10051000182D4454FB21E93F0000F07F4898020861
:1005200030980208000000002DE9F84343423E4A9B
:10053000034321F0004747EAD373934204460D4634
:1005400059D8974265D0394B9F420E4623DD384B30
:100550009F423D462ADD02463B46394615F080FD66
:1005600022463B4604460D4600202F4915F076FDF5
:1005700002460B462046294616F052F8FEF70CFDBF
:100580002C4B002215F022FF002E02DA01F100436D
:100590001946BDE8F88322A3D3E9002315F060FDD6
:1005A0000022002316F0A2F978BB3D4622462B46D6
:1005B0002046294615F054FD22462B4680468946A2
:1005C00015F004FF22462B4604460D46002016492E
:1005D00015F044FD02460B462046294616F020F849
:1005E00042464B4615F03CFDFEF7D6FC114B00226F
:1005F00015F0ECFEC8E702460B4615F02FFD02464B
:100600000B4616F00DF8BDE8F88320462946BDE8F4
:10061000F8830022002316F003F8BDE8F88300BF3A
:100620009C7500883CE4377E0000F03FFFFF2F3EC2
:10063000FFFFDF3F0000E03F2DE9F8434E4B21F084
:1006400000449C4206460F4648DC4C4B9C4218DD59
:100650004B4B9C4266DD4B4B9C427EDD4A4B9C42A1
:1006600049DD01339C4243D041A3D3E90023104626
:10067000194615F0ABFE06460F4630463946BDE832
:10068000F88316F005FC02F06FFD404B0022804617
:10069000894615F0E5FCB4F1725F06460F46ECDBC7
:1006A00042464B464046494615F090FE32463B4690
:1006B00004460D463046394615F0D2FC02460B463C
:1006C0002046294615F0ACFF304B002215F0C8FC3F
:1006D00006460F4630463946BDE8F88302460B46CB
:1006E00015F074FE06460F4630463946BDE8F883DD
:1006F000274B9842B8D83046394616F0C9FB254BEF
:10070000002215F063FE00F047F8224B04460D4628
:10071000002215F05BFE22462B4615F057FE0646DA
:100720000F46AAE716F0B4FB00F036F8194B00228A
:1007300004460D4615F04AFE22462B4604460D4659
:100740000020144915F06CFF02460B46204629464E
:1007500015F086FC06460F468FE716F099FB00F071
:100760001BF80C4B002215F031FE06460F4684E7BD
:100770009C7500883CE4377EFFFFEF7F422ED63F1A
:10078000FFFF3540412E8640CD3386400000F03FCC
:100790007DF8B98F0000E03F2DE9F04FDA4F2DEDE5
:1007A000028B21F00042BA4283B004460D464FEA64
:1007B000D17612D9D54FBA4229D9C1F313030343D5
:1007C000024640F05481002E00F0EB800020002112
:1007D00003B0BDEC028BBDE8F08FCD4B9A4253D8ED
:1007E000CC4B9A4200F2E480B1A3D3E9002315F088
:1007F00037FCC94B002216F079F8002800F0D880A9
:10080000C54B20462946002215F02AFCCBE0AAA3BE
:10081000D3E9002316F06AF8002840F03081A8A33D
:10082000D3E900232046294616F042F80028CDD10E
:10083000BA49A5A3D3E9002301EBC6062046294601
:1008400015F0C4FDD6E9002315F00AFC16F06EF889
:10085000019015F051FD9EA3D3E9002306460F46F3
:1008600015F0B4FD02460B462046294615F0F6FB6E
:1008700099A3D3E90023804689463046394615F0CE
:10088000A5FD41EC180B19E0A54B9A42D0D8A54B19
:1008900003EBC603D3E9002315F0E0FBA24BF20003
:1008A000134493ED007BC6F1010AAAEB06038046D0
:1008B00089460193B0EE478AF0EE678A53EC182B15
:1008C0004046494615F0CAFB02460B4682468B4617
:1008D00015F07CFD82A3D3E9002304460D4615F0F4
:1008E00075FD81A3D3E9002315F0B8FB22462B4602
:1008F00015F06CFD7EA3D3E9002315F0B1FB224671
:100900002B4615F063FD7CA3D3E9002315F0A6FB6D
:1009100022462B4615F05AFD79A3D3E9002315F0A2
:100920009FFB22462B4615F051FD02460B465046D2
:10093000594615F093FB019B0F46064654465D460B
:1009400001463A46002B6CD032463B46504659464B
:1009500015F03CFD32463B4604460D4600204FF064
:10096000804115F07BFB02460B462046294615F0D8
:1009700057FE02460B4651EC180B15F06FFB424632
:100980004B4615F06BFB02460B460020624915F002
:1009900065FB019A6FF47F739A4278DB044601EBA2
:1009A00002552046294603B0BDEC028BBDE8F08F0E
:1009B00022462B462046294615F008FD48A3D3E9D8
:1009C000002306460F4615F001FD47A3D3E9002397
:1009D00015F044FB32463B4615F0F8FC44A3D3E93E
:1009E000002315F03DFB32463B4615F0EFFC42A3D9
:1009F000D3E9002315F032FB32463B4615F0E6FC06
:100A00003FA3D3E9002315F02BFB32463B4615F0FC
:100A1000DDFC02460B462046294615F01FFB0A4620
:100A20000146914688460A464B462046294615F01F
:100A3000CDFC002206460F464FF080434046494613
:100A400015F00CFB02460B463046394615F0E8FD22
:100A500022462B4615F002FB02460B4600202E498B
:100A600015F0FCFA03B0BDEC028BBDE8F08F0B462D
:100A700015F0F6FA03B0BDEC028BBDE8F08F0CA3C5
:100A8000D3E900231046194615F0A0FC8BE7019B23
:100A900003F57A7A01EB0A53194600224FF0B87336
:100AA00015F094FC03B0BDEC028BBDE8F08F00BFE5
:100AB0009C7500883CE4377EEF39FAFE422E864072
:100AC00051302DD5104987C0FE822B654715F73F61
:100AD0000000E0FE422EE63F763C7935EF39EA3DF4
:100AE000D0A4BE726937663EF16BD2C541BDBB3E34
:100AF0002CDE25AF6A56113F93BDBE166CC1663F12
:100B00003E5555555555C53F412E8640FFFFEF7F59
:100B1000422ED63FFFFF2F3E0000F03F60980208B4
:100B2000B1A2F03F7098020880980208000000000F
:100B30002DE9F04F2DED028BB1F5801F83B00246F9
:100B40000B460E4658DA21F00044044300F0FB80C7
:100B50000029C0F23781DC4B002215F037FC0E462D
:100B60000B46DA498E4202466FF0350E49DCC6F379
:100B7000130505F5152707F6647707F4801787F046
:100B80007F5C8CF4401C3415D14B10464CEA0501B7
:100B90000022A4F2FF34744415F060FAAB1CC3F3D6
:100BA0001303022B04EB175482468B464FF00002CE
:100BB00030DC002315F072FE002800F0CF80002CFE
:100BC00000F05681204615F097FBABA3D3E9002334
:100BD00006460F4615F0FAFBA9A3D3E90023044605
:100BE0000D463046394615F0F1FB02460B462046CD
:100BF000294615F035FA08E0B4498E424FF0000E50
:100C0000B5DD1046194615F02BFA03B0BDEC028B8A
:100C1000BDE8F08F4FF0804315F022FA02460B46F4
:100C20005046594615F0FCFC02460B46204643EC64
:100C3000182B15F061FB53EC182B06460F4651ECB0
:100C4000180BCDE9006715F0C1FB02460B46804644
:100C5000894615F0BBFB8CA3D3E9002306460F465B
:100C600015F0B4FB8AA3D3E9002315F0F9F9324655
:100C70003B4615F0ABFB88A3D3E9002315F0F0F950
:100C800032463B4615F0A2FB85A3D3E9002315F0BD
:100C9000E7F942464B4615F099FB83A3D3E90023BD
:100CA000804689463046394615F090FB80A3D3E94B
:100CB000002315F0D5F932463B4615F087FB7EA39D
:100CC000D3E9002315F0CCF932463B4615F07EFB04
:100CD0000B4602464946404615F0C2F9A5F5C22327
:100CE000C5F5D725A3F27A4351351D43002D06469D
:100CF0000F4659DD774B00225046594615F066FBEA
:100D000052465B4615F062FB80468946002C60D156
:100D100042464B463046394615F0A2F953EC182BA3
:100D200015F054FB02460B464046494615F096F92D
:100D300002460B465046594615F090F903B0BDECFB
:100D4000028BBDE8F08F002200236349002015F0DC
:100D500067FC03B0BDEC028BBDE8F08F58A3D3E96C
:100D600000235046594615F031FB02460B46002041
:100D7000584915F073F9524606460F465B465046F1
:100D8000594615F023FB02460B463046394615F00E
:100D90001DFB06460F46002C52D102460B4650461C
:100DA000594615F05BF930E7002C40F09780024679
:100DB0000B465046594615F051F953EC182B15F0D7
:100DC00005FBB5E715F04AF90022002315F028FCD1
:100DD0001BE729A3D3E90023DDE9000115F0F6FAAA
:100DE00042464B4604460D463046394615F038F922
:100DF00053EC182B15F0EAFA21A3D3E90023064699
:100E00000F46DDE9000115F0E1FA02460B463046D7
:100E1000394615F025F902460B464046494615F07D
:100E20001DF952465B4615F019F902460B4620465D
:100E3000294615F013F903B0BDEC028BBDE8F08F25
:100E4000204615F059FA0CA3D3E9002380468946C1
:100E500015F0BCFA0AA3D3E9002304460D46404628
:100E6000494615F0B3FA02460B4630463946D6E7F6
:100E700000200021C9E600BF0000E0FE422EE63F50
:100E8000763C7935EF39EA3D44523EDF12F1C23FFC
:100E9000DE03CB966446C73F599322942449D23F40
:100EA000935555555555E53F9FC678D0099AC33F90
:100EB000AF788E1DC571CC3F04FA97999999D93FA7
:100EC000555555555555D53F00005043FFFFEF7F11
:100ED0000000F03F0000E03F000050C3DDE9008962
:100EE0000DA3D3E900234046494615F06FFA324678
:100EF0003B4604460D465046594615F0AFF853ECB4
:100F0000182B15F063FA06A3D3E9002306460F4613
:100F1000A5E700BFAFF300800000E0FE422EE63FF1
:100F2000763C7935EF39EA3DB1F5801F2DE9F8437C
:100F300004460D460B4619DA21F00042024359D00F
:100F400000295FDB3A4B002215F040FA394A0D4682
:100F50002B46934204466FF035010CDD22462B46AA
:100F60002046294615F07CF8BDE8F883314A9342C3
:100F70004FF00001F2DC1815A0F2FF300844C70F53
:100F800000EBD070C3F3130615F0B6F9C7F57F7305
:100F9000033346EA03550F46064629462046FFF727
:100FA000C7FD1DA3D3E90023804689463046394654
:100FB00015F00CFA1AA3D3E9002304460D46404667
:100FC000494615F003FA02460B462046294615F01D
:100FD00047F815A3D3E9002304460D4630463946A9
:100FE00015F0F4F902460B462046294615F038F86C
:100FF000BDE8F883002200230F49002015F010FB04
:10100000BDE8F883024615F029F80022002315F008
:1010100007FBA9E7AFF30080362BF111F3FE593D32
:101020000EE526157BCBDB3F00609F501344D33F7A
:1010300000005043FFFFEF7F000050C3000000009E
:101040002DE9F04F2DED0A8B23F0004B1F469A46F9
:101050005BEA020389B03DD0164694466E4A21F001
:101060000048904504460D46894603462BDC38D09F
:10107000934528DC684A934522D0B9F1000F3BDB49
:1010800000220092BCF1000F52D1634A934500F058
:101090009D80624A934500F0AB80BAF1804F00F02A
:1010A000D4845F4A924543D1B9F1000F40DB20461A
:1010B000294609B0BDEC0A8BBDE8F04F16F0B2BD71
:1010C000BCF1000FD9D008F1404808F5801858EA63
:1010D000030309D15149002009B0BDEC0A8BBDE8DA
:1010E000F08F08B9C345C5DD4E4809B0BDEC0A8B89
:1010F000BDE8F04F17F0CEBB4B4A93457FDCA2F121
:10110000547293450FDD4FEA2B52A2F2FF32142A9C
:1011100040F3A384C2F134022CFA02F000FA02F286
:10112000624500F0EC8400220092BCF1000FB0D0C8
:1011300020462946029315F0ABFE029B3BBBB8F15B
:10114000000F04D0354B29F040429A421FD1BAF12A
:10115000000F05DA02460B460020304915F060FA10
:10116000B9F1000FB8DA009B08F1404808F5801883
:1011700058EA030340F0968402460B46104619468F
:1011800014F06CFF02460B4615F04AFAA4E7009AE9
:101190004FEAD973013B0693134333D0234B9B454E
:1011A00048DD03F104739B45214B40F3CF83984501
:1011B00040F35D83BAF1000F40F35D8314A3D3E9DC
:1011C00000231046194615F001F985E708F1404261
:1011D00002F5801213433FF47DAF154B984540F361
:1011E0007783BAF1000FC0F246833046394673E781
:1011F000BAF1000FC0F22184204629466CE7022292
:1012000000923FE722462B46B8E700BFAFF30080CD
:101210009C7500883CE4377E0000F07F0000F03FC2
:101220000000E03FDCAB0208FFFF3F430000E0416D
:10123000FFFFEF3FE84B09EA0303002B40F0FB837D
:10124000E64B002215F0C2F86FF0340588464FEAED
:101250002853E34CC8F31302A3F2FF3342F07F5844
:101260005D19A242079548F4401840F3D383DD4B43
:101270009A4240F320849FEDC07BB0EE47BAF0EE77
:1012800067BAB0EE47CAF0EE67CA9FEDBD7B013585
:1012900054EC173B0795A8F580184FF0000944EC73
:1012A000183B1A4641462346824614F0D7FE53ECBB
:1012B000182B04460D465046414614F0D1FE024616
:1012C0000B460020C84915F0ABF945EC1A4B41EC30
:1012D000190B51EC1A0B53EC192B15F077F8C34688
:1012E0004FEA680848F0005808F5002303EB0905A9
:1012F0000A4600230146CDE902120293DDE9028984
:101300000024CDE904122B4622464046494615F0FA
:101310005DF802460B4651EC1A0B14F09FFE41ECAF
:10132000170B53EC182B2046294655EC174B14F09D
:1013300095FE02460B465046594614F08FFE424633
:101340004B4615F043F802460B462046294614F05A
:1013500085FE53EC192B15F039F8DDE904AB044692
:101360000D4652465B465046594615F02FF886A367
:10137000D3E9002345EC1A4B04460D4615F026F838
:1013800083A3D3E9002314F06BFE22462B4615F00D
:101390001DF881A3D3E9002314F062FE22462B46F8
:1013A00015F014F87EA3D3E9002314F059FE224669
:1013B0002B4615F00BF87CA3D3E9002314F050FE64
:1013C00022462B4615F002F879A3D3E9002314F046
:1013D00047FE22462B4604460D461046194614F099
:1013E000F5FF02460B462046294614F0EFFF424621
:1013F00004460D464B4650465946CDE904AB14F021
:101400002FFE53EC1A2B14F0E1FF22462B4614F06A
:1014100027FE424604460D464B464046494614F0D8
:10142000D5FF45EC194B714B002282468B4614F0D8
:1014300017FE53EC192B14F013FE029C0D462246A6
:101440002B464046494614F0C1FF684B804689460A
:1014500000222046294614F001FE52465B4614F055
:10146000FDFD02460B4651EC190B14F0F7FDDDE9CA
:10147000042314F0ABFF49EC188B224680468946C2
:101480002B4651EC1A0B14F0A1FF02460B464046C6
:10149000494614F0E5FD82468B4652465B4651ECC8
:1014A000180B14F0DDFD029C43A3D3E90023204672
:1014B0000D4614F08BFF53EC182B804689462046CE
:1014C000294614F0CBFD02460B465046594614F00F
:1014D000C5FD3BA3D3E9002314F078FF49EC198B39
:1014E00039A3D3E90023804689462046294614F0D3
:1014F0006DFF02460B464046494614F0B1FD53ECE1
:101500001C2B14F0ADFD824607988B4614F0F4FEB8
:101510005246804689465B4651EC190B14F0A0FDFB
:1015200053EC1B2B14F09CFD42464B4614F098FDE7
:10153000029C42464B4620460D4614F08FFD53EC6C
:101540001B2B14F08BFD53EC192B14F087FD024676
:101550000B465046594614F081FD82468B46009B4F
:10156000069A013B134340F0AC819FED197BB0EE2E
:10157000479AF0EE679A3BE0000000000000000090
:10158000000000000000F03FEF4E454A287ECA3FB1
:1015900065DBC9934A86CD3F01411DA96074D13FE7
:1015A0004D268F515555D53FFFAB6FDBB66DDB3FF9
:1015B000033333333333E33F000000E009C7EE3F2A
:1015C000FD033ADC09C7EE3FF5015B14E02F3EBE98
:1015D000000000000000F0BF0000F07F000040436A
:1015E0008E98030079B60B000000F03F0000084021
:1015F0000023CDE900670093DDE9008930464246CB
:1016000039464B4614F02AFD22462B4614F0DEFEE6
:1016100032463B4606460F465046594614F0D6FE23
:1016200002460B463046394614F01AFD42468246C1
:101630008B464B462046294614F0C8FE06460F4608
:101640003B4650465946324614F00AFDBA4B994281
:1016500004460D46884640F3118101F13F4303F5EE
:10166000E003034340F010829DA3D3E900235046DA
:10167000594614F0F5FC324641EC180B3B46204627
:10168000294614F0EBFC02460B4651EC180B15F002
:101690002DF9002840F0F881C8F30A534FF4801266
:1016A000A3F2FE3342FA03F34344A449C3F30A52BC
:1016B000A2F2FF3241FA02FCC3F3130523EA0C0144
:1016C000C2F1140445F48015B8F1000F0B4645FA39
:1016D00004F102914FF00000B8BF49420246B8BF82
:1016E00002913046394614F0B9FC06460F463B4697
:1016F00050465946324614F0B3FC029B1B0500933A
:101700000D46002478A3D3E900232046294614F08F
:101710005DFE3246804689463B462046294614F007
:101720009DFC02460B465046594614F097FC70A3A8
:10173000D3E9002314F04AFE6FA3D3E90023064641
:101740000F462046294614F041FE02460B4630461D
:10175000394614F085FC06460F4632463B46404665
:10176000494614F07DFC42464B460D46044614F0B3
:1017700075FC02460B463046394614F06FFC2B468A
:1017800082468B4622462946204614F01FFE5CA363
:10179000D3E9002306460F4614F018FE5AA3D3E9F6
:1017A000002314F05BFC32463B4614F00FFE58A3B6
:1017B000D3E9002314F054FC32463B4614F006FEF5
:1017C00055A3D3E9002314F049FC32463B4614F0FC
:1017D000FDFD53A3D3E9002314F042FC32463B46FF
:1017E00014F0F4FD02460B462046294614F036FC60
:1017F00006460F4632463B462946204614F0E6FD93
:101800000022804689464FF080433046394614F026
:1018100025FC02460B464046494614F001FF52465D
:1018200006460F465B462946204614F0CFFD524639
:101830005B4614F015FC02460B463046394614F060
:101840000DFC2B46224614F009FC02460B460020F4
:101850003B4914F003FC009D0D44B5F5801FC0F218
:101860004A81294653EC192B14F0B0FD34E4BAF147
:10187000000FFFF6A3AC002000212DE4DFF8C8C064
:1018800021F00043634540F3F7802E4B0B440343A4
:101890000AD132463B4614F0E1FB52465B4615F056
:1018A0001BF800283FF4F8AE1FA3D3E9002351EC46
:1018B000190B14F08BFD1CA3D3E9002314F086FD53
:1018C0000AE49FED1B7BB0EE479AF0EE679A8FE635
:1018D000BAF1000FCFDA304607F10041FFF7FCBB49
:1018E000FE822B654715973C00000000432EE63F23
:1018F000EF39FAFE422EE63F396CA80C615C20BE3F
:10190000D0A4BE726937663EF16BD2C541BDBB3E05
:101910002CDE25AF6A56113F93BDBE166CC1663FE3
:101920003E5555555555C53F59F3F8C21F6EA50193
:10193000000000000000F03FFFFF8F40FFFF0F009E
:101940000000F03F00346F3FFFCB904098458EDBA6
:10195000894B98453FF72EAC874B002214F07EFB55
:1019600071A3D3E9002304460D4614F02FFD70A3A4
:10197000D3E9002382468B462046294614F026FDF3
:101980007E4B8046894600222046294614F01EFDE3
:1019900002460B4668A1D1E9000114F05FFB224624
:1019A0002B4614F013FD02460B460020744914F038
:1019B00055FB22462B4604460D461046194614F0A8
:1019C00005FD02460B462046294614F0FFFC5CA3A9
:1019D000D3E9002314F0FAFC02460B464046494680
:1019E00014F03CFB804689465046594642464B46D9
:1019F00014F036FB002452465B4620460D4614F098
:101A00002DFB02460B464046494614F027FB824612
:101A10008B46A4E59FED4C7BB0EE47BAF0EE67BA7B
:101A2000B0EE47CAF0EE67CA9FED497B4FF0000960
:101A300054EC173B33E4002509E422462B464E497B
:101A4000002014F0EDFDFFF747BB22462B46204651
:101A5000294614F0BBFCFFF73FBBBCF1000F3ED1A1
:101A6000C2F114024BFA02F000FA02F25A4551D0C8
:101A7000CDF800C0FFF70DBB414A934251DCDDE9D0
:101A80000012009102913CE633A3D3E9002351EC0C
:101A9000190B14F09BFC30A3D3E9002314F096FC3F
:101AA000FFF71ABB009B012B7FF416AB01F100433B
:101AB0001946FFF711BB9FED2A7BB0EE47BAF0EE57
:101AC00067BA9FED297BB0EE47CAF0EE67CA9FED7B
:101AD000287B4FF4802954EC173BFFF7E0BB2046EE
:101AE0002946009315F0D4F9009B002B7FF48AABB4
:101AF0000093FFF724BB029A01F082FDB2E600F0EA
:101B00000100C0F102020092BCF1000F3FF4C1AA33
:101B1000FFF70EBB00F00100C0F102020092FFF7D8
:101B2000B8BA1B15BAE500BF000000604715F73FC3
:101B300044DF5DF80BAE543E555555555555D53FD0
:101B4000FE822B654715F73F0000000000000000F3
:101B5000000000000000F03F9C7500883CE4377EE8
:101B60000000004003B8E23F06D0CF43EBFD4C3EFF
:101B7000000000000000F83F0000F03F0000D03FF0
:101B80000000E03F000000002DE9F04FD84B2DEDA4
:101B9000048B21F000459D4289B006460F4614464D
:101BA00040F38880D34B9D428B4629DC0029C2A399
:101BB000D3E9002340F3CD8114F050FACE4B9D427F
:101BC00006460F4600F08F80BDA3D3E9002314F032
:101BD00045FA02460B46C4E900233046394614F064
:101BE0003DFAB7A3D3E9002314F038FAC4E902019F
:101BF0004FF0010A504609B0BDEC048BBDE8F08FF0
:101C0000BE4B9D4240F39280BD4B9D4260DC4FEA4B
:101C1000255AAAF2164AA5EB0A510F4614F086FE81
:101C200014F06AFB804689463046394642464B46A8
:101C3000CDE9028914F012FAB24B002214F0C6FB6F
:101C40000F46064614F072FE054614F055FB024698
:101C50000B4630463946CDE9042314F0FFF9A94B71
:101C6000002214F0B3FB02460B46CDE90623002206
:101C7000002314F013FE002800F06981002D0CBF32
:101C800001230223A04A019202215246009102A898
:101C9000214600F0A1FBBBF1000F8246AADA626880
:101CA000E36802F1004203F10043C0F1000A626000
:101CB000E3609FE74FF0000A002200235046C4E98A
:101CC0000067C4E9022309B0BDEC048BBDE8F08FC6
:101CD00002460B4614F0C2F94FF0000AC4E90201B3
:101CE000C4E9000186E778A3D3E9002314F0B6F92C
:101CF00077A3D3E9002306460F4614F0AFF9024656
:101D00000B46C4E900233046394614F0A7F970A306
:101D1000D3E9002314F0A2F94FF0010AC4E902014B
:101D2000504609B0BDEC048BBDE8F08F15F0B0F85B
:101D300069A3D3E9002306460F4614F047FB734B13
:101D4000002214F08DF914F0F1FD824614F0D4FA5B
:101D500059A3D3E900238046894614F037FB024695
:101D60000B463046394614F079F955A3D3E90023E0
:101D700006460F464046494614F028FBBAF11F0FAD
:101D800049EC198B47EC186B804689460BDC604B9D
:101D90000AF1FF3253F82230AB4204D002460B4620
:101DA000304639467FE042464B4651EC180B14F062
:101DB00055F90A46C2F30A53C3EB1553102B0146DB
:101DC000064617464FEA255540F3A4803EA3D3E9C3
:101DD000002351EC190B14F0F9FA59EC188B064654
:101DE0000F4632463B4618EE100A494614F036F9C3
:101DF00041EC180B404653EC182B494614F02EF9D1
:101E000032463B4614F02AF931A3D3E900230646B3
:101E10000F4651EC190B14F0D9FA32463B4614F038
:101E20001DF98046894642464B4651EC180B14F08A
:101E300015F90A46C2F30A53ED1A312D014606463A
:101E4000174667DD26A3D3E9002351EC190B14F0E4
:101E5000BDFA56EC185B8046894642464B4618EE62
:101E6000100A314614F0FAF841EC180B314653ECE5
:101E7000182B284614F0F2F842464B4614F0EEF8C0
:101E800019A3D3E9002306460F4651EC190B14F0B1
:101E90009DFA32463B4614F0E1F88046894651EC03
:101EA000180B42464B4614F0D9F8C4E90001064627
:101EB0000F4631E0AFF3008000004054FB21F93FB2
:101EC0003163621A61B4D03D0000601A61B4D03D44
:101ED0007370032E8A19A33B83C8C96D305FE43F3A
:101EE0000000002E8A19A33BC14920259A837B3923
:101EF000FB21E93F7BD90240FB21F93FFB2139411E
:101F0000FFFFEF7F0000704134AE02080000E03FA9
:101F1000B4AD0208C4E9001232463B4651EC180B3E
:101F200014F09CF842464B4614F098F8BBF1000FB1
:101F3000C4E90201BFF65EAE07F1004501F10043BE
:101F4000C4E90065C4E90203CAF1000A52E60323AA
:101F500098E614F085F8244B9D4206460F4616D0AD
:101F60001BA3D3E9002314F07BF802460B46C4E917
:101F700000233046394614F071F815A3D3E9002345
:101F800014F06EF84FF0FF3AC4E9020132E612A3F2
:101F9000D3E9002314F064F811A3D3E90023064623
:101FA0000F4614F05DF802460B46C4E900233046A4
:101FB000394614F053F80AA3D3E9002314F050F87B
:101FC0004FF0FF3AC4E9020114E600BFAFF300800E
:101FD0003163621A61B4D03D0000601A61B4D03D33
:101FE0007370032E8A19A33BFB21F93F0000000008
:101FF000574A2DE9F84F21F00048904504460D4618
:1020000058DC544B0029B4BF534F544F98454FF000
:10201000000612DD524B984540F38C80514B984599
:1020200054DD013398454ED047A3D3E90023204621
:10203000294614F0CBF9BDE8F88F4B4B98455CDC92
:1020400041A3D3E9002314F00BF8484B002214F00D
:102050004DFCA8BB2046294614F01AFF01F084F875
:1020600004460D4622462B462046294613F0F8FF2B
:10207000224682468B462B462046294614F0A6F976
:102080003A4B8046894600222046294613F0E8FF55
:1020900002460B464046494614F0C2FA02460B4639
:1020A0005046594613F0DAFF32463B4614F08EF99B
:1020B000BDE8F88F02460B4613F0D2FFBDE8F88F5B
:1020C00020462946FAE72A4B9842ADD820462946B1
:1020D00014F0DEFE214B002214F078F9FEF75CFBD1
:1020E00004460D4622462B463046394614F06EF91A
:1020F00022462B4614F06AF9E0E714F0C9FE01F01D
:1021000033F81C4B984504460D46ABDD174B0022B7
:1021100013F0A6FF02460B462046294614F080FA2B
:1021200022462B4613F09CFF32463B4614F04EF9F4
:10213000BDE8F88F14F0ACFEFEF72EFB32463B46AE
:1021400014F044F9BAE700BF3374AC3C1F7BAC7F9A
:10215000FFFFEF7FFFFF35400000E0BF0000E03FE2
:10216000412E8640CD338640FFFF2F3E0000F03FDA
:102170007DF8B98FFFFFEF3F2DE9F84F21F00049BF
:10218000B9F1795F2DED048B06460F4692469B46CA
:102190006CDA14F0CBFB002800F0EE8032463B46B0
:1021A0003046394614F012F977A3D3E900230446E8
:1021B0000D4614F00BF976A3D3E9002313F050FF7A
:1021C00022462B4614F002F973A3D3E9002313F03F
:1021D00045FF22462B4614F0F9F871A3D3E90023FA
:1021E00013F03EFF22462B4614F0F0F86EA3D3E91D
:1021F000002313F033FF22462B4614F0E7F86CA3BC
:10220000D3E9002313F02CFF22462B4614F0DEF80E
:1022100041EC180B6A4B00222046294614F0D6F8F0
:1022200053EC182B804689462046294614F0CEF8F8
:1022300052465B4604460D463046394614F0C6F811
:1022400002460B462046294613F008FF02460B467D
:102250004046494613F002FF02460B46002059490A
:1022600013F0FCFEBDEC048BBDE8F88F02460B4674
:1022700014F0ACF844A3D3E9002304460D4614F04F
:10228000A5F843A3D3E9002313F0EAFE22462B4628
:1022900014F09CF840A3D3E9002313F0DFFE22469C
:1022A0002B4614F093F83EA3D3E9002313F0D8FE95
:1022B00022462B4614F08AF83BA3D3E9002313F0FF
:1022C000CDFE22462B4614F081F839A3D3E9002332
:1022D00013F0C6FE2B46224614F078F83A4B994587
:1022E00041EC180B96DD394B99453ADC0022A9F5F3
:1022F0000013344900209046994613F0AFFE41EC9C
:10230000190B2F4B00222046294614F05FF8424655
:102310004B4613F0A3FE53EC182B8046894620460B
:10232000294614F053F852465B4604460D463046A3
:10233000394614F04BF802460B462046294613F066
:102340008DFE02460B464046494613F087FE024684
:102350000B4651EC190B13F081FEBDEC048BBDE86C
:10236000F88F9FED157BDFF86890B0EE479AF0EE9E
:10237000679A4FF00008C4E7BDEC048B11490020B8
:10238000BDE8F88FAFF30080D43888BEE9FAA8BD65
:10239000C4B1B4BD9EEE213EAD529C804F7E923EB4
:1023A0009015CB19A001FA3E7751C1166CC1563F6A
:1023B0004C5555555555A53F000000000000E73F1E
:1023C0000000E03F0000F03F3233D33F0000E93F20
:1023D0000000D23F000000002DE9F04FADF5197D5F
:1023E000B84CA29D089354F825400594013B12F186
:1023F000140F04900B910393C0F22083B249D31EB3
:1024000081FB0301DB17C3EBA10307930133A3EBAC
:102410008303DB00D3180693079A039BD41A059A0B
:10242000D6181AD40136A39F4FF000084FF00009C8
:10243000264420AD08E057F8240013F05DFF013476
:10244000B442E5E8020108D0002CF4DA0134404639
:102450004946B442E5E80201F6D1059B002BC0F2E3
:10246000B883089BDDF80C90DA000292059A1A44B2
:102470000192049A20A901EBC30A0DF5E07B02EB5F
:10248000C308039B002B4FF000044FF0000511DB45
:10249000049E574677E90223F6E8020113F096FFFF
:1024A00002460B462046294613F0DAFD464504460F
:1024B0000D46EFD1019B09F101099945EBE8024571
:1024C0000AF1080ADDD1059A04980CA901EB8203F0
:1024D00002990144083B8B460BA90993134601EB73
:1024E00082020A920193019A98A901EBC203002A81
:1024F00053E928452ADD0DF5E07909EBC2080DF115
:10250000300A724B00222046294613F05FFF14F078
:102510000DFA13F0F1FE6E4B002206460F4613F043
:1025200055FF02460B462046294613F097FD14F04E
:10253000FDF9044678E902234AF8044B304639464F
:1025400013F08EFDC84504460D46DAD1DDF818902B
:10255000204629464A4601F053F800224FF07F53A7
:1025600004460D4613F032FFFCF79AFC594B00224B
:1025700013F02CFF02460B462046294613F06EFD51
:102580000D46044614F0D2F9804613F0B5FE0B4612
:1025900002462946204613F061FD4B46002B0646B5
:1025A0000F4640F39980019A0CA9013AC9F118032A
:1025B00051F8225045FA03F101FA03F3EB1AC9F17D
:1025C00017050CA843FA05F5002D40F82230884481
:1025D00000F38C80002200233046394614F05EF967
:1025E000002800F05182019B059A03F1FF3A524501
:1025F00010DC03F180430CAA013B0A9802EB830331
:10260000002253F80419834242EA0102F9D1002A58
:1026100040F0DD80059B0CAA013B52F82330002BD3
:1026200040F0D080099A012352F80419013300299F
:10263000FAD001994A1CCB1802939146079B08993E
:1026400002EB030A019B0B44984620AB0AF1804A37
:1026500003EBC808A39B0AF1FF3A03EB8A0A70ABAD
:1026600003EBC20301935AF8040F13F045FE0B4627
:10267000039902460029C8E9002347464FF00004A9
:1026800008F108084FF0000511DB049E01E077E92E
:102690000223F6E8020113F099FE02460B4620469B
:1026A000294613F0DDFC5E4504460D46EFD1019B43
:1026B000E3E802450193029B09F101099945D2DD46
:1026C00010E700BFD4B20208ABAAAA2A0000703EED
:1026D00000007041000020406BD1019B0CAA013B1F
:1026E00052F82350ED15002D7FF774AF019B002B9E
:1026F00008F1010840F3C6810C9C002C51D1019BCC
:10270000012B20D00CAB012253F8044F002C4BD0EE
:10271000531C0CA9C4F1807441F8224001999942DC
:1027200010DD0CAA0CA852F8232000EB830300EB69
:1027300081006FF07F4100E01A688A1A43F8042B89
:102740008342F9D10124069B002B0EDD012B00F002
:102750006A81022B09D1019B5A1E0CAB0CA953F8BC
:102760002230C3F3150341F82230022D7FF432AF3B
:1027700032463B46B649002013F070FC06460F4631
:10278000002C3FF427AF069AB149002000F038FF33
:1027900002460B463046394613F060FC06460F46AB
:1027A00018E701230022B4E7019901328A42ABD134
:1027B000C9E7A84B002214F08FF8002840F05081A0
:1027C000054607E7019B5A1C9146029236E70CAB7F
:1027D000069A53F82A30CDF81C80183A03950692D1
:1027E00073B9019B03F18043023B0CA901EB830306
:1027F00053F804190AF1FF3A183A0029F8D0069262
:10280000069A9349002000F0FBFEBAF1000F04463F
:102810000D46C0F2D48170AB03EBCA0B0CAA0AF1CF
:102820000103069302EB83084FEACA030BF1080980
:10283000049358F8040D13F05FFD22462B4613F065
:10284000C5FD06460F46844B2046294669E90267C6
:10285000002213F0BBFD0CAB984504460D46E8D1B1
:1028600048ABCDE9013ADDF814A0BAF1000F4FF002
:1028700000092CDB74A3D3E90023DFF8E0815F4675
:1028800000240025002603E0B14510DBF8E8022310
:10289000F7E8020113F09AFD02460B46204629464E
:1028A00013F0DEFB0136B24504460D46ECDA019B1F
:1028B000029A03EBC9034A45C3E90045ABF1080B93
:1028C00009F1010306D0BAF1000F9946D2DA0024CB
:1028D0000025ECE7A29BDDF808A0022B1EDC002BF4
:1028E00000F3058113D1049C019D083400200021D0
:1028F0002C4474E9022313F0B3FBA542F9D1039BE6
:1029000013B101F1004319460B9BC3E90001079B7A
:1029100003F007000DF5197DBDE8F08FA29B032B96
:10292000F5D1BAF1000F00F06681019A049BD3182B
:10293000D3E9004502EBCA0B7BE902672046294632
:1029400032463B4613F08CFBA046A94604460D4692
:1029500022462B463046394613F080FB4B46424612
:1029600013F07EFB019B5B45CBE90045CBE90201FF
:10297000E2D1BAF1010F40F33E81019A049B0AF1C2
:10298000005A0AF1FF3A13444FEACA01D3E900455D
:1029900001F1080A029192440DF5947B7AE90267ED
:1029A0002046294632463B4613F05AFBA046A9462C
:1029B00004460D4622462B463046394613F04EFB60
:1029C00042464B4613F04CFBD345CAE90045CAE9E1
:1029D0000201E3D1029C019B0026002710341C4415
:1029E00003F110053046394674E9022313F038FB31
:1029F000A542F9D106460F46039B002B40F0B58057
:102A0000019A0B99D2E90045D2E90223C1E90223D8
:102A1000079B03F00700C1E90467C1E900450DF514
:102A2000197DBDE8F08F019B5A1E0CAB0CA953F821
:102A30002230C3F3160341F8223096E600216FF0EE
:102A400017030791E6E400BF00000040FB21F93FB7
:102A50000000F03F0000E03F0000703EA898020830
:102A6000019B002B08F10108C8BF02253FF744AEC7
:102A700032463B466149002013F0F0FA0225064633
:102A80000F46A7E500245EE63946069F03957A4285
:102A90003046CDF81C8000F0B3FD594B00220446AF
:102AA0000D4613F019FF002855D0564B0022204642
:102AB000294613F08BFC13F039FF064613F01CFC7B
:102AC0004F4B002213F082FC0B460246294620465B
:102AD00013F0C4FA019C13F029FF04F1010A0CABB6
:102AE000183743F82400069743F82A6088E6019DCA
:102AF000069A002005EBC204002174E9022313F0BA
:102B0000AFFAA542F9D1039B002B48D10B9BC3E937
:102B100000010B4601990246D1E9000113F09EFA2B
:102B2000BAF1000F0DDD4AAD0124F5E802230134AE
:102B300013F096FAA245F8DA039B13B101F10043B2
:102B400019460B9BC3E90201079B03F007000DF533
:102B5000197DBDE8F08F2046294613F0E7FE019B62
:102B60000CAA9A4642F823004AE6019B19465A6885
:102B7000DB680D688C680B9903F10043CB60079B01
:102B80000D6002F100424A6003F0070007F10042C5
:102B90008C600E614A610DF5197DBDE8F08F0B9CCC
:102BA00001F10043C4E900030B4601990246D1E953
:102BB000000113F053FABAF1000FB4DCBEE7A29B98
:102BC000022B0ADC002B11DC7FF4A1AE00200021D7
:102BD00095E6089BDB00029375E4A29B032B7FF430
:102BE00096AE48AB00260027019305E748AB0020CE
:102BF0000021019387E700260027FDE60000F03F53
:102C0000000070410000703E2DE9F04F1F4621F09A
:102C1000004383B01646B3F1795FCDE900670446FF
:102C20000D4604DA13F082FE002800F0858022466B
:102C30002B462046294613F0C9FB06460F4632466E
:102C40003B462046294613F0C1FB42A3D3E90023AB
:102C500082468B463046394613F0B8FB3FA3D3E992
:102C6000002313F0FBF932463B4613F0AFFB3DA3C4
:102C7000D3E9002313F0F4F932463B4613F0A6FBE8
:102C80003AA3D3E9002313F0E9F932463B4613F0A7
:102C90009DFB38A3D3E9002313F0E2F90C9B804697
:102CA00089469BB3DDE90001294B002213F08EFB1E
:102CB00042464B46804689465046594613F086FBAD
:102CC00002460B464046494613F0C8F932463B4699
:102CD00013F07CFBDDE9002313F0C0F91AA3D3E95C
:102CE000002306460F465046594613F06FFB024636
:102CF0000B463046394613F0B3F902460B462046E0
:102D0000294613F0ABF903B0BDE8F08F02460B463D
:102D10003046394613F05AFB0BA3D3E9002313F0D6
:102D20009DF952465B4613F051FB22462B4613F0A9
:102D300097F903B0BDE8F08F2046294603B0BDE8FF
:102D4000F08F00BFAFF30080495555555555C53F2D
:102D50000000E03F7CD5CF5A3AD9E53DEB9C2B8A69
:102D6000E6E55A3E7DFEB157E31DC73ED561C11968
:102D7000A0012A3FA6F810111111813F00000000A8
:102D80002DE9F04F2DED048BC74C85B021F00045A7
:102D9000A54243EC192B80468946039100951CDC23
:102DA00013F0C4FD002846D1129B42460133134361
:102DB0002B4300F0C781129B012B00F0D0814B46C2
:102DC000BA49002013F02CFC04460D462046294643
:102DD00005B0BDEC048BBDE8F08FB54B009A9A426C
:102DE00029DD039B002B0ADA55EC194B19EE102A4A
:102DF00005F1004309F1004143EC192B8946424695
:102E00004B4689A1D1E9000113F028F953EC192BA5
:102E100004460D4686A1D1E9000113F01FF92246B0
:102E20002B4613F01DF99FED847B80468946B0EE5A
:102E3000479AF0EE679A42464B464046494613F0A1
:102E4000C5FA02460B4682468B4613F0BFFA52463D
:102E500004460D465B464046494613F0B7FA78A350
:102E6000D3E9002306460F462046294613F0AEFA62
:102E700075A3D3E9002313F0F3F822462B4613F091
:102E8000A5FA73A3D3E9002313F0EAF822462B46F0
:102E900013F09CFA70A3D3E9002313F0E1F8224663
:102EA0002B4613F093FA6EA3D3E9002313F0D8F85E
:102EB00022462B4613F08AFA6BA3D3E9002313F0C2
:102EC000CFF852465B4613F081FA47EC186B68A3C3
:102ED000D3E9002306460F462046294613F076FA2A
:102EE00065A3D3E9002313F0BBF822462B4613F069
:102EF0006DFA63A3D3E9002313F0B2F822462B4600
:102F000013F064FA60A3D3E9002313F0A9F8224672
:102F10002B4613F05BFA5EA3D3E9002313F0A0F86D
:102F200022462B4613F052FA5BA3D3E9002313F099
:102F300097F855EC194B02460B463046394613F0CC
:102F40008FF853EC182B13F041FA2B4619EE102A88
:102F500013F086F852465B4613F038FA2B4619EE0A
:102F6000102A13F07DF84EA3D3E9002304460D4642
:102F700051EC180B13F02AFA22462B4613F070F886
:102F800006460F4632463B464046494613F068F82F
:102F9000474B009A9A4204460D4600F38D80129BDF
:102FA000012B39D002460B460020404913F038FB74
:102FB00082468B465C465346CDE9003429460020C4
:102FC00042464B46824613F049F802460B463046CD
:102FD000394613F043F82346524613F0F7F9AB464F
:102FE000234606460F4652465046594613F0EEF920
:102FF000304B002213F034F802460B463046394677
:1030000013F02EF8DDE9002313F0E0F923465246D1
:1030100013F026F804460D462046294605B0BDECBF
:10302000048BBDE8F08F00BF182D4454FB21E93F0D
:10303000075C143326A6813C00000000000000005D
:10304000D47ABF74702AFB3EE9A7F0320FB8123F62
:1030500068108D1AF726303F1583E0FEC8DB573F16
:1030600093846EE9E326823FFE41B31BBAA1AB3FD6
:10307000735360DBCB75F3BEA69237A0887E143FF6
:103080000165F2F2D844433F280356C9226D6D3FD3
:1030900037D60684F464963F7AFE10111111C13FB1
:1030A000635555555555D53FFFFF2F3E0000F0BFE6
:1030B0002794E53F0000F03F129813F01DF92246D7
:1030C00082468B462B462046294613F07FF952460E
:1030D00041EC180B5B462046294612F0C1FF024620
:1030E0000B4651EC180B13F09BFA32463B4612F09C
:1030F000B5FF02460B464046494612F0AFFF024676
:103100000B4612F0ADFF02460B465046594612F0F0
:10311000A5FF039B9B1703F002030446C3F10100C4
:103120000D4613F0E9F802460B462046294613F0F7
:103130004DF904460D462046294605B0BDEC048BEA
:10314000BDE8F08F4046494613F0A2FE02460B460A
:103150000020044913F064FA04460D465CE7444637
:103160004D4659E70000F03F2DE9F04FD24A2DEDD2
:10317000028B21F00043934283B004460D460E4675
:103180005BD9CE4A934214D9CD4A934209D9C1F3AF
:1031900013030343024600F0EF810B4612F060FF79
:1031A0000FE1AFA3D3E9002313F0A0FB002840F008
:1031B000F881002EC0F20A81ABA3D3E90023204698
:1031C000294613F003F9BF4F002602460B4630464E
:1031D000394612F045FF13F0A9FB019013F08CF86B
:1031E000A3A3D3E900238046894613F0EFF80246F3
:1031F0000B462046294612F031FF9FA3D3E9002356
:1032000006460F464046494613F0E0F88046894698
:1032100042464B463046394612F020FF04460D46E2
:1032200022462B463046394612F018FF42464B469E
:1032300012F014FF41EC180B09E0A34A934200F28C
:10324000F180A24A934240F20181002301939D4BF9
:1032500000222046294613F0B9F806460F463246AA
:103260003B462046294613F0B1F885A3D3E9002355
:1032700082468B4613F0AAF883A3D3E9002312F009
:10328000EFFE52465B4613F0A1F881A3D3E9002379
:1032900012F0E4FE52465B4613F098F87EA3D3E9A1
:1032A000002312F0DDFE52465B4613F08FF87CA33C
:1032B000D3E9002312F0D2FE52465B4613F086F8A3
:1032C000834B002212F0CCFE8046894642464B4694
:1032D0003046394613F07AF802460B4600207D4905
:1032E00012F0BCFE06460F463246404649463B4673
:1032F00012F0B4FE3246804689463B4620462946B7
:1033000013F064F802460B460020734912F0A6FE43
:1033100002460B464046494613F082F952465B4648
:1033200013F054F8019E02460B46002E3BD057EC9A
:10333000186B18EE102A3B4612F090FE22462B46E0
:1033400013F044F83B4618EE102A12F087FE5B4655
:10335000524612F083FE019B013306460F4600F0F1
:10336000DB80019B012B00F0BD80019B0133392BD9
:1033700046D8019A132A00F3EA804FF40013134150
:10338000C3F17F5722462B4612F068FE002607F550
:10339000401702460B463046394612F05FFE019A4E
:1033A00001EB02510DE02046294613F00FF852467A
:1033B0005B4612F053FE02460B462046294612F0A9
:1033C0004DFE03B0BDEC028BBDE8F08F36A3D3E910
:1033D00000232046294612F043FE0022002313F06A
:1033E00067FA002840F0CB801FA3D3E900232046D2
:1033F000294612F0EBFF394F002602460B46E6E65F
:1034000022462B4612F02AFE02460B460020304987
:1034100012F024FE019A2E4B01EB0251002212F011
:103420001DFECEE72E4A934200F2C380002910A36E
:10343000D3E900237FDB12F011FE01230FF23809DC
:10344000D9E90089019306460F46E1E618A3D3E9BE
:10345000002312F005FE02460B46AAE7AFF30080F8
:10346000EF39FAFE422E8640FE822B654715F73F64
:103470000000E0FE422EE63F763C7935EF39EA3D2A
:103480002DC3096EB7FD8ABE3952E686CACFD03E3B
:10349000B7DBAA9E19CE143F8555FE19A0015A3FED
:1034A000F41011111111A13F59F3F8C21F6EA501BB
:1034B0009C7500883CE4377E79684340412E864005
:1034C000FFFFEF7F0000E03F422ED63FFFFF8F3C23
:1034D0000000F03F00000840000018400000E0BF7E
:1034E000B1A2F03F404B00222046294613F0E0F9FC
:1034F000002847D03D4B20462946002212F0B0FD5F
:1035000002460B463046394612F0A8FD00224FF025
:10351000404312F05BFF54E702460B462046294623
:1035200012F09CFD314B002212F050FF2F4B002275
:1035300012F094FD45E712F093FD4FF0FF330FF2C8
:103540009009D9E90089019306460F4660E6019F7C
:10355000C7F57F7603360022330512F081FD02465F
:103560000B462046294612F079FD214B002212F02D
:1035700077FD01EB075124E70029BFF622AF1D4973
:1035800000201EE732463B462046294612F066FDE3
:1035900002460B4612F064FD154B002212F060FD4E
:1035A0000FE70DA3D3E900231046194612F00EFFD2
:1035B00007E70BA3D3E9002312F008FF002DB4BFE7
:1035C0000D4F0A4F02460B46002600E6AFF300807F
:1035D000763C7935EF39EABD9C7500883CE4377E4E
:1035E000FE822B654715F73F0000D0BF0000E03F8B
:1035F0000000F03F0000F0BF0000E0BF000000004E
:10360000F8B5C1F30A5304460D460E46174653BBA0
:1036100021F000460346334324D0374B002212F0FA
:10362000D5FE364B9F4204460D4616DBC1F30A53C6
:103630000E46363B3B4440F2FE7293421CDC002BAC
:103640003BDC13F1350F2BDA4CF250339F4213DC85
:10365000002D21A1D1E9000137DB1FA3D3E900230D
:1036600012F0B4FEF8BD40F2FF729342E2D102467E
:103670000B4612F0F5FCF8BD002D19A1D1E90001AF
:1036800005DB17A3D3E9002312F0A0FEF8BD14A3B5
:10369000D3E9002314A1D1E9000112F097FEF5E768
:1036A00026F0FF4626F4E006363346EA035120466C
:1036B000134B002212F08AFEF8BD26F0FF4626F4D6
:1036C000E006204646EA0351F8BD09A1D1E9000110
:1036D000C3E700BFAFF3008059F3F8C21F6EA50126
:1036E0009C7500883CE4377E9C7500883CE437FE7E
:1036F00059F3F8C21F6EA58100005043B03CFFFF94
:103700000000903C10B5054C237833B9044B13B13D
:103710000448AFF300800123237010BD380300205C
:10372000000000008CB4020808B5034B1BB103492C
:103730000348AFF3008008BD000000003C030020F8
:103740008CB40208154B002B08BF134B9D46A3F504
:10375000803A00218B460F461348144A121A06F08D
:10376000DDFC0F4B002B00D098470E4B002B00D0F8
:1037700098470020002104000D000D48002802D0C9
:103780000C480DF0CDFB15F075FB200029000DF065
:10379000A7FB0DF0C1FB00BF000008000080022065
:1037A00000000000D10E0208B002002054310020B9
:1037B000210F020800000000F0B5214D2C6883B0F5
:1037C00014B1204603B0F0BD4FF49C700DF0AAFB7D
:1037D0004FF0FF310446032001F04CFC00B204F02E
:1037E00061F84FF0FF310646022001F043FC00B2C1
:1037F00004F058F83146024620460AF027F904F151
:10380000DC0600231A463046012109F091FF4FF0F3
:10381000FF31012001F02EFC00B204F043F898279C
:103820004FF0050C0246CDE9007C3346214604F1F9
:10383000E40007F0B7F820462C6003B0F0BD00BFED
:10384000540300202DE9F04104460E46FFF7B4FF73
:1038500000F1E4070546384607F0C2F8082C18D0F6
:10386000A4F10903012B0CD8D5F8E43038469B6A43
:103870009847052805DCD5F8E43038465B6A08210E
:103880009847324621461023BDE8F0410D2003F051
:10389000E5BED5F8E43038469B6A98470228F0DC4C
:1038A000D5F8E43038465B6A04219847E9E700BF61
:1038B00010B52DED028BFFF77FFF00F1E4042046E9
:1038C00008F0D8FD08EE900A204608F0E1FD07EE6A
:1038D000900A2046B8EEE78A08F0E8FDF8EEE88A9C
:1038E00068EE087A07EE100AE8EEA87AB8EEC77A12
:1038F000E7EE077AF5EE407AF1EE10FAB1EEE78ADC
:1039000006D4FDEEC87ABDEC028B17EE900A10BD0E
:1039100017EE900A14F002F8F3E700BF08B5032889
:103920001CD8DFE800F0060D1402BDE80840FFF7E0
:10393000BFBFFFF741FFBDE80840E43008F09ABD83
:10394000FFF73AFFBDE80840E43008F0A1BDFFF7FB
:1039500033FFBDE80840E43008F0A8BD002008BDF2
:1039600008B518B1012808D0002008BDFFF724FFD2
:10397000BDE80840E430FAF79BBFFFF71DFFBDE844
:103980000840E430FAF7B4BF00B583B00190FFF708
:1039900013FF0199E43003B05DF804EB08F080BB3D
:1039A00008B501F091FCFBF73BFDBDE8084001F0D4
:1039B000EDB900BF08B501F087FCFBF7A1FDBDE83C
:1039C000084001F0E3B900BF08B501F07DFC13F039
:1039D000DBFABDE8084001F0D9B900BF08B501F035
:1039E00073FC13F0D3FEBDE8084001F0CFB900BF6F
:1039F00008B501F069FCFBF723FDBDE8084001F0C4
:103A0000C5B900BF08B501F05FFC13F0E5FCBDE8E7
:103A1000084001F0BBB900BF08B501F055FCFAF74A
:103A200087FFBDE8084001F0B1B900BF08B501F05B
:103A30004BFC13F01FFCBDE8084001F0A7B900BF24
:103A400070B5049D95420C4625DB164653B9042AF1
:103A50001AD0022A11D110F001030ED102880A8077
:103A6000184670BD10440B468A1810F8011D03F863
:103A7000011B9A42F9D1002070BD01463246204612
:103A800005F066F9002070BD10F00303F5D102685F
:103A90000A60184670BD0846002106F03FFB4FF053
:103AA000FF3070BD0830704728B1002902DB436841
:103AB0008B4201DC002070470844007A704700BF49
:103AC00030B1002904DB43688B42C4BF4018027246
