:020000040800F2
:10C000000080022005F90108C3870208C3870208DF
:10C01000C3870208C3870208C38702080000000024
:10C0200000000000000000000000000091AC0108CA
:10C03000C38702080000000037AD010897AD010872
:10C04000C3870208C3870208C3870208C3870208A0
:10C05000C3870208C3870208C3870208C387020890
:10C06000C3870208C3870208C3870208C387020880
:10C07000C3870208C3870208C3870208C387020870
:10C08000C3870208C3870208C387020841BB0108AF
:10C090002DBB0108C387020855BB0108C3870208EE
:10C0A000C3870208C3870208C3870208C387020840
:10C0B000C3870208C387020800000000C387020884
:10C0C000C3870208C3870208C3870208C387020820
:10C0D000C3870208C3870208C3870208C387020810
:10C0E000C3870208C38702080000000000000000A8
:10C0F0000000000000000000000000000000000040
:10C1000000000000C387020800000000C387020887
:10C11000C387020800000000C38702080000000077
:10C12000C3870208C3870208C3870208C3870208BF
:10C13000C3870208C3870208C38702080000000003
:10C14000C3870208C3870208C3870208C38702089F
:10C15000C3870208C3870208C3870208C38702088F
:10C16000C3870208C3870208C387020800000000D3
:10C1700000000000C387020800000000000000006B
:10C18000C3870208C3870208C3870208C38702085F
:10C19000C38702080000000000000000000000004B
:10C1A00001F0FF01102A2BDB10F0070F08D010F868
:10C1B000013B013A8B422DD010F0070F42B3F6D16C
:10C1C000F0B441EA012141EA014122F007047FF085
:10C1D00000070023F0E80256083C85EA010586EADC
:10C1E000010685FA47F5A3FA87F586FA47F6A5FA18
:10C1F00087F68EB9EED1F0BC01F0FF0102F0070224
:10C2000032B110F8013B013A83EA010313B1F8D1CE
:10C210000020704701387047002D06BF35460338AF
:10C22000073815F0010F07D1013015F4807F02BFE8
:10C23000013015F4C03F0130F0BC0138704700BF39
:10C240002DE9F04F2DED028B0378202B83B00446AF
:10C250008B4603D114F8013F202BFBD02B2B08BFBA
:10C26000013494F800C0BCF12D0F6DD09FED587BC8
:10C27000B0EE478AF0EE678ABCF1300F51D0BCF1C6
:10C28000000F00F09F80DFF85C91002600274FF040
:10C2900000084FF0000A1EE017F010F902460B46A6
:10C2A0002846CDE9002317F09FF8DDE9002316F0BA
:10C2B0004FFF424606460F464B4651EC180BBAF16B
:10C2C000000F03D017F024FA41EC180B14F801CF3B
:10C2D000BCF1000F14D0ACF13005092D42464B469D
:10C2E00030463946D8D9BAF1000F37D1BCF12E0FFC
:10C2F00034D114F801CF4FF0010ABCF1000FEAD19C
:10C300003046394653EC182B17F0D8F806460F463E
:10C31000CBF800403046394603B0BDEC028BBDE897
:10C32000F08F637843F02003782BACD1102259466C
:10C33000204619F0BDFF17F057F853EC182B17F0F3
:10C34000BDF806460F46E5E79FED237B94F801C054
:10C35000B0EE478AF0EE678A01348DE70CF0DF0C0F
:10C36000BCF1450F0AD02378202B03D114F8013FEC
:10C37000202BFBD013B11A4F0026CBE753EC182B20
:10C380003046394617F09AF8237806460F46002BB8
:10C39000BED05946601C0A2219F08AFF1149024694
:10C3A000002017F0EBFB02460B463046394617F0EB
:10C3B00085F806460F463046394603B0BDEC028B81
:10C3C000BDE8F08F002600279AE700BFAFF300809A
:10C3D000000000000000F03F000000000000F0BF7F
:10C3E0000000F87F000024402DE9F04F002383B0C7
:10C3F0001646002204460D4617F0D2FA28B12D2128
:10C4000005F1004306F8011B1D46002200232046CB
:10C41000294617F0BBFA30B1302200233270737016
:10C4200003B0BDE8F08F2046294618F083F917F0D5
:10C43000F5FA48A3D3E90023074629462046019789
:10C4400017F0C2FA40B145A3D3E90023204629469C
:10C4500017F0A6FA002860D1019A3D49002017F094
:10C460008DFB02460B462046294617F051F94FF046
:10C47000010B04460D46DFF8D8904FF0000A4FF04C
:10C4800000082946204617F0C9FA00F1300333703E
:10C49000074616F0A9FF02460B462046294616F02D
:10C4A00055FE4B46424617F009F8BBF1010B04BF9D
:10C4B0002E23737004460D4614BF01360236BAF1BE
:10C4C000000F04D1002F18BF4FF0010AD9E70AF17D
:10C4D000010ABAF1100FD4DDBBF1000FD1DC16F860
:10C4E000013C302B06F1FF3603D116F8013D302B0D
:10C4F000FBD001982E2B08BF06F1FF36012807D08C
:10C500006523B11C737003B0BDE8F04F0AF0D8BFCB
:10C510000023737003B0BDE8F08F002F11DD3A46A1
:10C520000B49002017F02AFB0B46024629462046FD
:10C5300017F0EEF8012307F1010B04460D460193B5
:10C5400099E74FF0010BCDF804B094E7AFF300800A
:10C55000000024408DEDB5A0F7C6B03E50EFE2D606
:10C56000E41A4B440000000070B54FF0FF3005F0B6
:10C5700053FC04466FF07F4005F04EFC0646204613
:10C5800016F022FF0C4B002216F098FF04463046AE
:10C590000D4616F019FF06A3D3E9002317F0B8F8EB
:10C5A00002460B462046294616F0D2FD70BD00BF5C
:10C5B0000000E0DFFFFF6F430000F03D00000000DF
:10C5C00008B50CF023FADFED0C7A07EE100A67EEDF
:10C5D000277A17EE900A16F019FF05A3D3E9002376
:10C5E00017F096F817F01AFA08BD00BFAFF30080F5
:10C5F000EA2E4454FB2119400000B443000000001F
:10C6000008B50CF019FADFED0C7A07EE100A67EEA8
:10C61000277A17EE900A16F0F9FE05A3D3E9002356
:10C6200017F076F817F0FAF908BD00BFAFF30080F5
:10C63000EA2E4454FB2119400000B44300000000DE
:10C64000494A21F0004393422DE9704304460D46C8
:10C650006EDC464A93420E4639DC3FA3D3E9002301
:10C6600016F076FD424B002217F0B8F900286FD182
:10C6700022462B462046294616F020FF02460B464E
:10C680002046294614461D4617F05CFC384B002214
:10C69000804689462046294616F05AFD18F01CFBB4
:10C6A000334B002216F054FD02460B462046294625
:10C6B00017F02EF842464B4616F04AFD00F0F4FA09
:10C6C000002E39DC01F100431946BDE87083294A88
:10C6D000934233DCB3F1804FCADD17F033FC2246BE
:10C6E000804689462B462046294616F0E7FE204B19
:10C6F000002216F02DFD18F0EFFA42464B4616F0D8
:10C7000027FD02460B460020194917F001F8424662
:10C710004B4604460D464046494616F019FD024672
:10C720000B462046294616F013FD02F089F8C7E7AC
:10C7300002460B4616F00CFDBDE8708317F002FCB4
:10C7400002F07EF806A3D3E9002316F001FDB7E757
:10C7500020462946BDE870839C7500883CE4377EFE
:10C76000EF39FAFE422EE63FFFFFEF7FFFFF2F3E3D
:10C770000000F03F0000B0412DE9F84FC44B21F01C
:10C7800000469E4204460D468A460EDDC14B9E423F
:10C7900000F3B08000F0AB80BAF1000F40F3E88006
:10C7A0009FA1D1E90001BDE8F88FBB4B9E4200F389
:10C7B000B880A3F1DE739E4240F3A4804FF0FF3BAC
:10C7C00022462B462046294616F078FE02460B46A6
:10C7D0008046894616F072FE93A3D3E900230646ED
:10C7E0000F4616F06BFE92A3D3E9002316F0B0FCBF
:10C7F00032463B4616F062FE8FA3D3E9002316F0C3
:10C80000A7FC32463B4616F059FE8DA3D3E9002320
:10C8100016F09EFC32463B4616F050FE8AA3D3E942
:10C82000002316F095FC32463B4616F047FE88A3DF
:10C83000D3E9002316F08CFC42464B4616F03EFE30
:10C8400085A3D3E90023804689463046394616F051
:10C8500035FE83A3D3E9002316F078FC32463B462D
:10C8600016F02CFE80A3D3E9002316F06FFC3246AD
:10C870003B4616F023FE7EA3D3E9002316F066FCA8
:10C8800032463B4616F01AFE7BA3D3E9002316F08E
:10C890005DFC32463B4616F011FEBBF1FF3F0246FF
:10C8A0000B466AD04046494616F052FC7B4E224663
:10C8B0002B4616F003FE7A4B06EBCB064FEACB0B6A
:10C8C0009B44DBE9002316F041FC22462B4616F080
:10C8D0003DFC02460B46D6E9000116F037FCBAF1E2
:10C8E000000F0DDA01F100431946BDE8F88F00286A
:10C8F0003FF452AF22462B462046294616F028FC2C
:10C90000BDE8F88F5EA3D3E9002316F021FC654B48
:10C91000002217F063F800283FF450AF2046294664
:10C92000EEE717F00FFB604B9E4204460D4634DCE9
:10C93000A3F550239E4259DC02460B4616F008FC34
:10C94000584B002216F002FC00224FF080430646AE
:10C950000F462046294616F0FBFB02460B463046A2
:10C96000394616F0D5FE4FF0000B04460D4627E77A
:10C9700045A1D1E90001BDE8F88F4046494616F0CF
:10C98000E7FB22462B4616F099FD02460B46204651
:10C99000294616F0DBFBBDE8F88F444B9E421ADABD
:10C9A000434B002216F0D2FB414B06460F460022B5
:10C9B0002046294616F082FD3A4B002216F0C8FBAD
:10C9C00002460B463046394616F0A2FE4FF0020BE7
:10C9D00004460D46F4E602460B460020354916F0A3
:10C9E00097FE4FF0030B04460D46E9E62D4B00225F
:10C9F00016F0ACFB2B4B002206460F46204629467C
:10CA000016F0A6FB02460B463046394616F080FE6D
:10CA10004FF0010B04460D46D2E600BFAFF3008095
:10CA2000182D4454FB21F93F11DA22E33AAD903F2F
:10CA3000EB0D76244B7BA93F513DD0A0660DB13F55
:10CA40006E204CC5CD45B73FFF8300922449C23FBD
:10CA50000D5555555555D53F2F6C6A2C44B4A2BF82
:10CA60009AFDDE522DDEAD3F6D9A74AFF2B0B33F4A
:10CA7000711623FEC671BC3FC4EB98999999C93FC2
:10CA80009C7500883CE4377E182D4454FB21F9BF87
:10CA9000FFFF0F440000F07FFFFFDB3F50B20208B2
:10CAA00070B202080000F03FFFFFF23F0080034039
:10CAB0000000F83F0000F0BFF8B5C1F30A57A7F235
:10CAC000FF35132D02460B460C46064631DC002D81
:10CAD0001DDB354F2F4101EA070C5CEA000C2DD01D
:10CAE0002FA3D3E9002316F033FB0022002316F016
:10CAF00075FF48B1002C04DD4FF4801343FA05F5AF
:10CB00002C4424EA0704002621463046F8BD24A31D
:10CB1000D3E9002316F01CFB0022002316F05EFF71
:10CB20000028F1D0002C35DB26432FD01F4C0026E7
:10CB3000EAE7332D05DDB5F5806F24D010461946A0
:10CB4000F8BDA7F213474FF0FF3C2CFA07F7074256
:10CB5000F4D013A3D3E9002316F0FAFA002200233D
:10CB600016F03CFF0028CFD0002C09DD142D0FD08B
:10CB70000123C5F1340503FA05F5AE1928BFE41801
:10CB800026EA0706C0E716F0E3FAF8BD3446BBE72D
:10CB90000134F5E700264FF00044B5E7AFF300801D
:10CBA0009C7500883CE4377EFFFF0F000000F03FDB
:10CBB000F8B5C1F30A57A7F2FF35132D02460B460D
:10CBC0000C4606461FDC002D3DDB354F2F4101EAA8
:10CBD000070C5CEA000C1BD02FA3D3E9002316F04E
:10CBE000B7FA0022002316F0F9FE48B1002C04DA4F
:10CBF0004FF4801343FA05F52C4424EA0704002679
:10CC000021463046F8BD332D05DDB5F5806F2AD0BD
:10CC100010461946F8BDA7F213474FF0FF3C2CFA17
:10CC200007F70742F4D01CA3D3E9002316F090FACB
:10CC30000022002316F0D2FE0028E1D0002C1EDBDB
:10CC400026EA0706DCE714A3D3E9002316F080FAEE
:10CC50000022002316F0C2FE0028D1D0002C05DBF4
:10CC600000263446CCE716F073FAF8BD24F00043F2
:10CC70000C4A1E43002E18BF14460026C0E7142D90
:10CC800008D00123C5F1340503FA05F5AE1928BF14
:10CC9000E418D5E70134D3E79C7500883CE4377E7F
:10CCA000FFFF0F000000F0BF2DE9F04FD44B2DED3A
:10CCB000028B994285B082468B4666DDD14B994204
:10CCC0000E4659DCD04B994240F3B4819FEDB87BBE
:10CCD0008DED027B4FEA215A0446AAF2FF38CB4B76
:10CCE000C6F313069E4246F07F5500F3568145F485
:10CCF000401520462946C64B002216F027FAC54BA0
:10CD000004460D46002216F0D9FB22462B4616F0AB
:10CD1000D5FBA246CDE9000141EC180BAB46002E35
:10CD200060D1002200232046294616F02FFE00285D
:10CD300000F0A081B8F1000F00F0B981404616F074
:10CD400053FB9DA3D3E9002306460F4616F0B6FB1E
:10CD5000DDE9022316F0FCF999A3D3E90023044688
:10CD60000D463046394616F0A9FB02460B462046D2
:10CD7000294616F0EDF903E002460B4616F0E8F9F5
:10CD800005B0BDEC028BBDE8F08FA34B21F0004451
:10CD90009C420A4611DDA14B002216F0F7FD002847
:10CDA00000F09280002200239D49002016F0B0FC84
:10CDB00005B0BDEC028BBDE8F08F9A4B9C4240F36E
:10CDC0009280994B1A449A4240F23481914B00224E
:10CDD00016F074FB52465B4616F070FB41EC180BE4
:10CDE0004FF0000800224FF080435046594616F09D
:10CDF000AFF902460B465046594616F089FC0246EA
:10CE00000B4606460F4616F059FB6FA3D3E90023E5
:10CE100004460D4616F052FB6DA3D3E9002316F02D
:10CE200097F922462B4616F049FB6BA3D3E9002362
:10CE300016F08EF922462B4616F040FB68A3D3E984
:10CE4000002316F085F922462B4616F037FB66A321
:10CE5000D3E9002316F07CF922462B4616F02EFB70
:10CE600063A3D3E9002316F073F922462B4616F08C
:10CE700025FB61A3D3E9002316F06AF922462B466D
:10CE800016F01CFB04460D46B8F1000F45D155ECD9
:10CE9000184B18EE102A2B4616F05AF932463B462C
:10CEA00016F00CFB024618EE100A0B46294616F047
:10CEB0004DF902460B465046594616F047F905B063
:10CEC000BDEC028BBDE8F08F52465B46504659469A
:10CED00016F03CF902460B4616F01AFC05B0BDEC04
:10CEE000028BBDE8F08F514B002216F031F9002281
:10CEF000002316F073FD28B14D4B9C4202DC5046D6
:10CF000059463DE752465B465046594616F0D6FA1A
:10CF1000404B002216F0D2FACBE7404616F064FAF6
:10CF200027A3D3E900238046894616F0C7FA41ECCF
:10CF3000170B53EC182B2046294655EC174B16F0CF
:10CF400007F932463B4616F0B9FA1BA3D3E9002392
:10CF500006460F464046494616F0B0FADDE9022380
:10CF600016F0F6F802460B463046394616F0F0F851
:10CF700002460B4651EC180B16F0E8F852465B4699
:10CF800016F0E4F802460B462046294616F0DEF875
:10CF900005B0BDEC028BBDE8F08F45F40015C6F579
:10CFA000801620462946B61008F10108A3E600BF06
:10CFB0000000000000000000763C7935EF39EA3DC2
:10CFC0000000E0FE422EE63F44523EDF12F1C23F37
:10CFD0009FC678D0099AC33FDE03CB966446C73F0D
:10CFE000AF788E1DC571CC3F599322942449D23F0E
:10CFF00004FA97999999D93F935555555555E53F59
:10D000007982DA3FFFFFEF7FFFFF3F439DA00600DD
:10D010000000F03F0000E03FFFFFEF3F0000F0BFE7
:10D02000000050C3FFFF1F3E3C412D400000504315
:10D03000FFFF8F3C3C4B00225046594616F088F8C3
:10D040000B15A3F2FF38B8F1000F04460D460E464B
:10D0500050DD52465B4616F079F802460B4600203A
:10D06000314916F073F822462B4616F051FBCDE9F4
:10D07000020134E626A3D3E900232046294616F010
:10D080001DFA02460B460020274916F05FF8DDE93D
:10D09000002316F013FA06460F46B8F1000F09D127
:10D0A00002460B462046294616F050F868E6002056
:10D0B000002165E6404616F097F917A3D3E900234F
:10D0C0008046894616F0FAF915A3D3E90023824673
:10D0D0008B464046494616F0F1F9DDE9022316F089
:10D0E00037F802460B463046394616F02FF82246EE
:10D0F0002B46DCE60C4B002216F028F802460B46C5
:10D100005046594616F022F8ADE700BFAFF3008055
:10D11000555555555555E53F0000E0FE422EE63F7A
:10D12000763C7935EF39EA3D0000F03F0000000021
:10D1300008B517F079FA04A3D3E9002316F0E8FA4A
:10D1400008BD00BFAFF30080EF39FAFE422EE63F84
:10D150002DE9F043DFF8B4908BB004460D4601F0A2
:10D16000F3F899F90030013306460F462CD02246D9
:10D170002B462046294616F03BFC804620BB204625
:10D18000294616F0DFFE1FA3D3E9002316F026FC84
:10D19000D0B1194A99F90030CDF820800321CDE9AA
:10D1A0000445CDE90245CDE9001293B113490020B1
:10D1B000022BCDE9060111D118F01CFD22230360DA
:10D1C000089B9BB9DDE90667304639460BB0BDE8E0
:10D1D000F0830B4B4FF06042CDE90623684618F010
:10D1E000B1FB0028E8D0089B002BEBD018F002FD23
:10D1F000089B0360E6E700BF70CB02080000F07FE9
:10D20000FFFFEF477DF8B98FCE33864096020020AE
:10D210002DE9F043DFF8F4808BB004460D4601F0B1
:10D2200043F998F90030013306460F4616D02046E0
:10D23000294618F081FB88B130A3D3E900232046AA
:10D24000294616F0CBFB8146002836D12DA3D3E921
:10D2500000232046294616F0A3FB20B93046394664
:10D260000BB0BDE8F08398F90030214ACDF820904A
:10D27000002000210426022BCDE90445CDE902451A
:10D28000CDE906010096019212D0684618F05AFBCB
:10D2900070B1089B2BBBDDE90667304639460BB001
:10D2A000BDE8F08313490020022BCDE90601ECD143
:10D2B00018F0A0FC22230360EBE70D4A98F9003038
:10D2C000019203210022CDE90445CDE902450091F8
:10D2D0000892002BE6D1084B4FF06042CDE90623BF
:10D2E000D3E718F087FC089B0360D4E7AFF3008016
:10D2F00078CB02080000F07FFFFFEF47EF39FAFE1E
:10D30000422E864051302DD5104987C0960200200C
:10D310002DE9F04F2DED028BDFF848B38FB00646B4
:10D320000F4614461D4601F013FD9BF900A0BAF10B
:10D33000FF3F41EC180B3BD022462B4620462946A6
:10D3400016F056FB8146002832D132463B46304625
:10D35000394616F04DFB0090002840F0E1804FF078
:10D3600000084FF000093046394642464B4616F059
:10D370000DFB20B342464B462046294616F006FBDD
:10D380000390002854D0009B0C930122B04B0492D0
:10D39000CDE90667CDE90845CDE90A890593BAF1DB
:10D3A000000F6BD09FEDA47BB0EE478AF0EE678A4A
:10D3B00051EC180B0FB0BDEC028BBDE8F08F51ECB7
:10D3C000180B18F0B9FA824600286FD04FF0000809
:10D3D0004FF0000951EC180B42464B4616F0D6FAB6
:10D3E0000028E5D03046394618F0A6FA0028DFD0EC
:10D3F0002046294618F0A0FA0028D9D09BF9003021
:10D40000934A059204210022022BCDE90667CDE95B
:10D410000845CDE90A8904910C9204D004A818F0BB
:10D4200091FA00282FD118F0E5FB222303602AE0AF
:10D430002046294618F080FA0028B9D042464B46CB
:10D440002046294616F0ACFA0028B1D00399804A4C
:10D450009BF900300C910121CDE90667CDE9084523
:10D46000CDE90412002B78D1CDE90A8904A818F07F
:10D4700069FA002877D00C9B5BB106E004A818F08D
:10D4800061FA002874D00C9B1BB118F0B3FB0C9B05
:10D4900003609DED0A7BB0EE478AF0EE678A51EC9F
:10D4A000180B0FB0BDEC028BBDE8F08F304639464B
:10D4B00018F042FA002889D02046294618F03CFA94
:10D4C000002883D053EC182B18EE100A194616F0DA
:10D4D0008FFA002840F0918003239BF900A0049369
:10D4E0005B4B0C90CDE90667CDE908450593BAF191
:10D4F000000F42D19FED527B42464B4630463946A3
:10D500008DED0A7B16F04CFA002845D104A818F0DE
:10D5100019FA0028AFD118F06DFB22230360AAE7A7
:10D52000002200232046294616F030FA00283FF456
:10D530003FAF4849464BCDF8309000200122BAF168
:10D54000020FCDE90667CDE90845CDE90A0104924D
:10D55000059393D141EC180B2AE73F490020022B99
:10D56000CDE90A0182D118F045FB2123036082E74F
:10D5700018F040FB2123036085E79FED337B424693
:10D580004B46304639468DED0A7B16F009FAE0B974
:10D59000BAF1020FBFD0B9E7304B0022204629462E
:10D5A00015F08CFF02460B46CDE9002318F0D2F9A6
:10D5B000DDE9002316F0EAF9E0B9294B9BF900A058
:10D5C0004FF06042CDE90A23E2E7244B00222046D7
:10D5D000294615F073FF02460B46CDE9002318F0EB
:10D5E000B9F9DDE9002316F0D1F918B91A4B002278
:10D5F000CDE90A239BF900A0CAE7154B9BF900B0BF
:10D60000CDF830A00122CDE90667CDE90845CDE986
:10D610000423BBF1000F3FF427AF42464B46404680
:10D62000494616F075F8BBF1020FCDE90A019AD010
:10D630001CE700BFAFF30080000000000000F03FD7
:10D64000000000E0FFFFEF47000000000000F07F57
:10D6500090CB02080000F03F0000F0FF0000E03F28
:10D66000FFFFEFC7960200202DE9F84FC44E21F0CE
:10D670000043B34204460D460DDD03F1404303F57C
:10D680008013034340F0B980002940F3C08000209C
:10D690000021BDE8F88FBB4EB34208DCBA4A934282
:10D6A00000F3BA809CA1D1E90001BDE8F88F002900
:10D6B000C0F2708102460B460020B44915F046FDC9
:10D6C000B34B002215F0FAFE04460D4617F004FB9A
:10D6D00093A3D3E90023894680462946204615F0C6
:10D6E000EDFE91A3D3E9002315F032FD22462B462F
:10D6F00015F0E4FE8EA3D3E9002315F027FD2246A2
:10D700002B4615F0DBFE8CA3D3E9002315F020FD9A
:10D7100022462B4615F0D2FE89A3D3E9002315F04B
:10D7200015FD22462B4615F0C9FE87A3D3E9002339
:10D7300015F00EFD22462B4615F0C0FE84A3D3E95A
:10D74000002382468B462046294615F0B7FE82A369
:10D75000D3E9002315F0FAFC22462B4615F0AEFE65
:10D760007FA3D3E9002315F0F3FC22462B4615F0E6
:10D77000A5FE7DA3D3E9002315F0E8FC22462B4645
:10D7800015F09CFE814B002215F0E2FC02460B4690
:10D790005046594615F0BCFF42464B4615F08EFEEA
:10D7A000002682468B4632464B463046494615F0A7
:10D7B00085FE02460B462046294615F0C7FC324638
:10D7C00004460D464B464046494615F0C1FC02460C
:10D7D0000B462046294615F09BFF02460B46504655
:10D7E000594615F0B5FC32464B4615F0B1FC0246E1
:10D7F0000B4615F0ADFCBDE8F88F02460B4615F060
:10D80000A5FC02460B4615F083FFBDE8F88F58A132
:10D81000D1E90001BDE8F88F02460B4615F04EFE37
:10D820003FA3D3E9002306460F4615F047FE3EA36B
:10D83000D3E9002315F08CFC32463B4615F03EFE42
:10D840003BA3D3E9002315F081FC32463B4615F09B
:10D8500035FE39A3D3E9002315F07AFC32463B4666
:10D8600015F02CFE36A3D3E9002315F06FFC3246E9
:10D870003B4615F023FE34A3D3E9002315F068FCE2
:10D8800032463B4615F01AFE31A3D3E90023804609
:10D8900089463046394615F011FE2FA3D3E90023FF
:10D8A00015F054FC32463B4615F008FE2CA3D3E994
:10D8B000002315F04DFC32463B4615F0FFFD2AA330
:10D8C000D3E9002315F042FC32463B4615F0F6FD45
:10D8D0002E4B002215F03CFC02460B4640464946C2
:10D8E00015F016FF22462B4615F0E8FD02460B46C2
:10D8F00021A1D1E9000115F029FC02460B46204682
:10D90000294615F023FC02460B4603A1D1E900018C
:10D9100015F01CFCBDE8F88F182D4454FB21F93F8D
:10D9200009F7FD0DE13D023F88B20175E0EF493F87
:10D930003B8F68B52882A43F5544880E55C1C93F26
:10D940007D6FEB0312D6D43F555555555555C53F00
:10D9500082922EB1C5B8B33F59018D1B6C06E63FCC
:10D96000C88A599CE52A00404B2D8A1C273A03405F
:10D97000182D4454FB210940075C143326A6913C22
:10D98000FFFFEF3FFFFFDF3F0000603C0000F03F84
:10D990000000E03F5C4B002215F0DAFB5B4B0022FD
:10D9A00015F08CFD40A3D3E9002304460D4615F085
:10D9B00085FD3FA3D3E9002315F0CAFB22462B4681
:10D9C00015F07CFD3CA3D3E9002315F0BFFB2246F4
:10D9D0002B4615F073FD3AA3D3E9002315F0B8FBED
:10D9E00022462B4615F06AFD37A3D3E9002315F034
:10D9F000ADFB22462B4615F061FD35A3D3E900238C
:10DA000015F0A6FB22462B4615F058FD80468946A8
:10DA10002046294617F060F92FA3D3E900230646D4
:10DA20000F462046294615F049FD2DA3D3E90023D2
:10DA300015F08CFB22462B4615F040FD2AA3D3E9B6
:10DA4000002315F085FB22462B4615F037FD28A351
:10DA5000D3E9002315F07AFB22462B4615F02EFD64
:10DA6000294B002215F074FB02460B4640464946FE
:10DA700015F04EFE32463B4615F020FD1EA3D3E9BD
:10DA8000002315F063FB32463B4615F061FB02466E
:10DA90000B4615F05DFB02460B4619A1D1E90001CA
:10DAA00015F054FBBDE8F88F09F7FD0DE13D023F8D
:10DAB00088B20175E0EF493F3B8F68B52882A43FEB
:10DAC0005544880E55C1C93F7D6FEB0312D6D43F34
:10DAD000555555555555C53F82922EB1C5B8B33FE2
:10DAE00059018D1B6C06E63FC88A599CE52A004007
:10DAF0004B2D8A1C273A0340075C143326A6913C21
:10DB0000182D4454FB2109400000F03F0000E03F85
:10DB1000414A91422DE9F84304460D463EDD3F4A15
:10DB200091420B4608DD02F17952914266DD0246D0
:10DB300015F00EFBBDE8F88301F1404202F58012BA
:10DB4000024357D0B1F1804F32DD024615F0B6FCEA
:10DB5000334B002215F0FAFA17F0BEF822462B4696
:10DB6000804689462046294615F0F2FA22460646A6
:10DB70000F462B464046494615F0EAFA02460B4648
:10DB80000020274915F0C4FD0B46024639463046B1
:10DB900015F0DCFABDE8F84300F052BE02460B4631
:10DBA00015F0D4FA02460B4615F0B2FDBDE8F88335
:10DBB0001B4B002215F0CAFA02460B4604460D46DE
:10DBC00015F0C6FA22462B4606460F462046294641
:10DBD00015F074FC02460B463046394615F0B8FA8B
:10DBE00017F07AF822462B4615F0B2FABDE8F84352
:10DBF000FFF75AB800200021BDE8F88300F020FEAE
:10DC000003A3D3E9002315F0A3FABDE8F88300BF0E
:10DC1000EF39FAFE422EE63FFFFFEF3FFFFFAF4135
:10DC20000000F03F000000002DE9F04FC64B2DED45
:10DC3000028B21F00049994583B004460D4615DD5D
:10DC400009F1404909F58019034659EA030300F038
:10DC5000058102460B4615F079FA02460B4615F08F
:10DC600057FD03B0BDEC028BBDE8F08FB74B994573
:10DC70000E460FDCB9F1795F80F2708196A3D3E98B
:10DC8000002315F065FAB24B002215F0A7FE00281C
:10DC900040F01C812046294616F054F902460B46F6
:10DCA0000020AB4915F052FAAA4B002215F006FCF1
:10DCB0008BA3D3E9002304460D4615F0FFFB8AA38E
:10DCC000D3E9002315F044FA22462B4615F0F6FB63
:10DCD00087A3D3E9002315F039FA22462B4615F025
:10DCE000EDFB85A3D3E9002315F032FA22462B463B
:10DCF00015F0E4FB82A3D3E9002315F027FA2246AE
:10DD00002B4615F0DBFB80A3D3E9002315F020FAA6
:10DD100022462B4615F0D2FB7DA3D3E90023824691
:10DD20008B462046294615F0C9FB7BA3D3E9002387
:10DD300015F00CFA22462B4615F0C0FB78A3D3E968
:10DD4000002315F005FA22462B4615F0B7FB76A303
:10DD5000D3E9002315F0FAF922462B4615F0AEFB65
:10DD60007B4B002215F0F4F90746884620462946E9
:10DD700016F0B2FFDFF8E0C14BEC18ABE14582468C
:10DD80008B46CDE900AB00F38280DDE900239B46A2
:10DD900015F0DEF94346894680463A4651EC180BA9
:10DDA00015F0B6FC02460B464046494615F086FB88
:10DDB0004FF0000A8046894652465B465046594617
:10DDC00015F07CFB02460B462046294615F0BEF9AD
:10DDD000524604460D465B46DDE9000115F0B8F9F0
:10DDE00002460B462046294615F092FC02460B4699
:10DDF00015F0AEF902460B464DA1D1E9000115F030
:10DE0000A5F902460B464046494615F09FF9524691
:10DE100004460D465B465046594615F099F90246B0
:10DE20000B4645A1D1E9000115F090F902460B46D9
:10DE30002046294615F08AF902460B463EA1D1E953
:10DE4000000115F083F9002E3FF70BAF01F10043FD
:10DE5000194603B0BDEC028BBDE8F08F38A3D3E9BF
:10DE6000002315F02BFB32A3D3E9002306460F460F
:10DE70002046294615F022FB02460B46304639461D
:10DE800015F066F903B0BDEC028BBDE8F08F3A46A1
:10DE9000434651EC180B15F03BFC52465B4615F01F
:10DEA0000DFB52465B4615F053F902460B4615F042
:10DEB0004FF91FA3D3E9002315F048F902460B469A
:10DEC0001FA1D1E9000115F041F9BCE72046294620
:10DED000C7E600BFAFF300809C7500883CE4377E46
:10DEE00009F7FD0DE13D023F88B20175E0EF493FC2
:10DEF0003B8F68B52882A43F5544880E55C1C93F61
:10DF00007D6FEB0312D6D43F555555555555C53F3A
:10DF100082922EB1C5B8B33F59018D1B6C06E63F06
:10DF2000C88A599CE52A00404B2D8A1C273A034099
:10DF3000075C143326A6913C182D4454FB21E93F7D
:10DF4000182D4454FB21F93FFFFFEF3FFFFFDF3F58
:10DF50000000F03F0000E03F3233EF3F02460B4647
:10DF600015F0ACFA39A3D3E9002306460F4615F0A5
:10DF7000A5FA38A3D3E9002315F0EAF832463B4668
:10DF800015F09CFA35A3D3E9002315F0DFF83246EB
:10DF90003B4615F093FA33A3D3E9002315F0D8F8E4
:10DFA00032463B4615F08AFA30A3D3E9002315F038
:10DFB000CDF832463B4615F081FA2EA3D3E9002373
:10DFC00015F0C6F832463B4615F078FA2BA3D3E994
:10DFD0000023804689463046394615F06FFA29A35A
:10DFE000D3E9002315F0B2F832463B4615F066FA45
:10DFF00026A3D3E9002315F0ABF832463B4615F0D3
:10E000005DFA24A3D3E9002315F0A0F832463B467D
:10E0100015F054FA0C4B002215F09AF802460B4604
:10E020004046494615F074FB22462B4615F046FA49
:10E0300022462B4615F08CF803B0BDEC028BBDE8F0
:10E04000F08F00BFAFF300800000F03F09F7FD0D37
:10E05000E13D023F88B20175E0EF493F3B8F68B573
:10E060002882A43F5544880E55C1C93F7D6FEB03FC
:10E0700012D6D43F555555555555C53F82922EB1B0
:10E08000C5B8B33F59018D1B6C06E63FC88A599C41
:10E09000E52A00404B2D8A1C273A0340000000006F
:10E0A0002DE9F84F994653425F4F134329F0004E34
:10E0B0004EEAD373BB42904604460D463DD84642D5
:10E0C000064321F0004A4AEAD676BE4203468B4612
:10E0D00033D809F1404606F5801616433DD04FEA85
:10E0E000A97606F002065AEA030346EAD1762CD056
:10E0F0005EEA020335D0BE4546D0BA4531D0AAEB20
:10E100000E0EBEF1747F4FEA2E5339DAB9F1000FCB
:10E1100046DA3C3344DA00200021012E58D0022E8A
:10E1200049D086B134A3D3E9002315F00FF834A306
:10E13000D3E9002315F00AF805E022462B464046B5
:10E14000494615F005F8BDE8F88F022E10D0032ED1
:10E15000F9D12DA1D1E90001F5E7BDE8F84FFEF7AF
:10E160000BBBBBF1000F07DB29A1D1E90001EAE7F6
:10E1700023A1D1E90001E6E727A1D1E90001E2E707
:10E1800023A1D1E90001C8E7F24506F1FF3623D00B
:10E19000022E29D8254B03EBC606D6E90001D2E7AB
:10E1A00042464B462046294615F0B2FA15F0CAFE03
:10E1B000FEF7E2FAB1E710A3D3E9002314F0C6FF9B
:10E1C00002460B460EA1D1E9000114F0BFFFBAE7E9
:10E1D00001F100431946B6E7022E08D8144B03EBB1
:10E1E000C606D6E90001AEE700200021ABE70CA18E
:10E1F000D1E90001A7E700BF075C143326A6A13CC4
:10E20000182D4454FB210940182D4454FB2109C00A
:10E21000182D4454FB21F93F182D4454FB21F9BF1C
:10E22000182D4454FB21E93F0000F07FA8B20208FA
:10E2300090B20208000000002DE9F84343423E4A34
:10E24000034321F0004747EAD373934204460D4647
:10E2500059D8974265D0394B9F420E4623DD384B43
:10E260009F423D462ADD02463B46394614F070FF88
:10E2700022463B4604460D4600202F4914F066FF17
:10E2800002460B462046294615F042FAFEF70CFDE1
:10E290002C4B002215F012F9002E02DA01F1004396
:10E2A0001946BDE8F88322A3D3E9002314F050FFF8
:10E2B0000022002315F092FB78BB3D4622462B46F8
:10E2C0002046294614F044FF22462B4680468946C4
:10E2D00015F0F4F822462B4604460D460020164958
:10E2E00014F034FF02460B462046294615F010FA7A
:10E2F00042464B4614F02CFFFEF7D6FC114B002291
:10E3000015F0DCF8C8E702460B4614F01FFF024682
:10E310000B4615F0FDF9BDE8F88320462946BDE817
:10E32000F8830022002315F0F3F9BDE8F88300BF5D
:10E330009C7500883CE4377E0000F03FFFFF2F3ED5
:10E34000FFFFDF3F0000E03F2DE9F8434E4B21F097
:10E3500000449C4206460F4648DC4C4B9C4218DD6C
:10E360004B4B9C4266DD4B4B9C427EDD4A4B9C42B4
:10E3700049DD01339C4243D041A3D3E90023104639
:10E38000194615F09BF806460F4630463946BDE85B
:10E39000F88315F0D7FD02F06FFD404B0022804658
:10E3A000894614F0D5FEB4F1725F06460F46ECDBE9
:10E3B00042464B464046494615F080F832463B46B9
:10E3C00004460D463046394614F0C2FE02460B465E
:10E3D0002046294615F09CF9304B002214F0B8FE77
:10E3E00006460F4630463946BDE8F88302460B46DE
:10E3F00015F064F806460F4630463946BDE8F88306
:10E40000274B9842B8D83046394615F09BFD254B2E
:10E41000002215F053F800F047F8224B04460D4651
:10E42000002215F04BF822462B4615F047F8064619
:10E430000F46AAE715F086FD00F036F8194B0022CA
:10E4400004460D4615F03AF822462B4604460D4682
:10E450000020144915F05CF902460B462046294677
:10E4600014F076FE06460F468FE715F06BFD00F0C0
:10E470001BF80C4B002215F021F806460F4684E7E6
:10E480009C7500883CE4377EFFFFEF7F422ED63F2D
:10E49000FFFF3540412E8640CD3386400000F03FDF
:10E4A0007DF8B98F0000E03F2DE9F04FDA4F2DEDF8
:10E4B000028B21F00042BA4283B004460D464FEA77
:10E4C000D17612D9D54FBA4229D9C1F313030343E8
:10E4D000024640F05481002E00F0EB800020002125
:10E4E00003B0BDEC028BBDE8F08FCD4B9A4253D800
:10E4F000CC4B9A4200F2E480B1A3D3E9002314F09C
:10E5000027FEC94B002215F069FA002800F0D880D8
:10E51000C54B20462946002214F01AFECBE0AAA3E0
:10E52000D3E9002315F05AFA002840F03081A8A35F
:10E53000D3E900232046294615F032FA0028CDD130
:10E54000BA49A5A3D3E9002301EBC6062046294614
:10E5500014F0B4FFD6E9002314F0FAFD15F05EFACA
:10E56000019014F041FF9EA3D3E9002306460F4615
:10E5700014F0A4FF02460B462046294614F0E6FD9F
:10E5800099A3D3E90023804689463046394614F0E2
:10E5900095FF41EC180B19E0A54B9A42D0D8A54B3A
:10E5A00003EBC603D3E9002314F0D0FDA24BF20025
:10E5B000134493ED007BC6F1010AAAEB06038046E3
:10E5C00089460193B0EE478AF0EE678A53EC182B28
:10E5D0004046494614F0BAFD02460B4682468B4639
:10E5E00014F06CFF82A3D3E9002304460D4614F017
:10E5F00065FF81A3D3E9002314F0A8FD22462B4632
:10E6000014F05CFF7EA3D3E9002314F0A1FD2246A1
:10E610002B4614F053FF7CA3D3E9002314F096FD9E
:10E6200022462B4614F04AFF79A3D3E9002314F0C5
:10E630008FFD22462B4614F041FF02460B46504602
:10E64000594614F083FD019B0F46064654465D462D
:10E6500001463A46002B6CD032463B46504659465E
:10E6600014F02CFF32463B4604460D4600204FF086
:10E67000804114F06BFD02460B462046294615F0FA
:10E6800047F802460B4651EC180B14F05FFD42466A
:10E690004B4614F05BFD02460B460020624914F025
:10E6A00055FD019A6FF47F739A4278DB044601EBC3
:10E6B00002552046294603B0BDEC028BBDE8F08F21
:10E6C00022462B462046294614F0F8FE48A3D3E9FB
:10E6D000002306460F4614F0F1FE47A3D3E90023BA
:10E6E00014F034FD32463B4614F0E8FE44A3D3E96F
:10E6F000002314F02DFD32463B4614F0DFFE42A30A
:10E70000D3E9002314F022FD32463B4614F0D6FE36
:10E710003FA3D3E9002314F01BFD32463B4614F01F
:10E72000CDFE02460B462046294614F00FFD0A4650
:10E730000146914688460A464B462046294614F033
:10E74000BDFE002206460F464FF080434046494634
:10E7500014F0FCFC02460B463046394614F0D8FF54
:10E7600022462B4614F0F2FC02460B4600202E49AE
:10E7700014F0ECFC03B0BDEC028BBDE8F08F0B464F
:10E7800014F0E6FC03B0BDEC028BBDE8F08F0CA3E7
:10E79000D3E900231046194614F090FE8BE7019B45
:10E7A00003F57A7A01EB0A53194600224FF0B87349
:10E7B00014F084FE03B0BDEC028BBDE8F08F00BF07
:10E7C0009C7500883CE4377EEF39FAFE422E864085
:10E7D00051302DD5104987C0FE822B654715F73F74
:10E7E0000000E0FE422EE63F763C7935EF39EA3D07
:10E7F000D0A4BE726937663EF16BD2C541BDBB3E47
:10E800002CDE25AF6A56113F93BDBE166CC1663F24
:10E810003E5555555555C53F412E8640FFFFEF7F6C
:10E82000422ED63FFFFF2F3E0000F03FC0B202084D
:10E83000B1A2F03FD0B20208E0B20208000000002E
:10E840002DE9F04F2DED028BB1F5801F83B002460C
:10E850000B460E4658DA21F00044044300F0FB80DA
:10E860000029C0F23781DC4B002214F027FE0E464F
:10E870000B46DA498E4202466FF0350E49DCC6F38C
:10E88000130505F5152707F6647707F4801787F059
:10E890007F5C8CF4401C3415D14B10464CEA0501CA
:10E8A0000022A4F2FF34744414F050FCAB1CC3F3F8
:10E8B0001303022B04EB175482468B464FF00002E1
:10E8C00030DC002315F062F8002800F0CF80002C27
:10E8D00000F05681204614F087FDABA3D3E9002356
:10E8E00006460F4614F0EAFDA9A3D3E90023044627
:10E8F0000D463046394614F0E1FD02460B462046EF
:10E90000294614F025FC08E0B4498E424FF0000E71
:10E91000B5DD1046194614F01BFC03B0BDEC028BAC
:10E92000BDE8F08F4FF0804314F012FC02460B4616
:10E930005046594614F0ECFE02460B46204643EC86
:10E94000182B14F051FD53EC182B06460F4651ECD2
:10E95000180BCDE9006714F0B1FD02460B46804666
:10E96000894614F0ABFD8CA3D3E9002306460F467D
:10E9700014F0A4FD8AA3D3E9002314F0E9FB324686
:10E980003B4614F09BFD88A3D3E9002314F0E0FB81
:10E9900032463B4614F092FD85A3D3E9002314F0E0
:10E9A000D7FB42464B4614F089FD83A3D3E90023ED
:10E9B000804689463046394614F080FD80A3D3E96D
:10E9C000002314F0C5FB32463B4614F077FD7EA3CE
:10E9D000D3E9002314F0BCFB32463B4614F06EFD35
:10E9E0000B4602464946404614F0B2FBA5F5C22349
:10E9F000C5F5D725A3F27A4351351D43002D0646B0
:10EA00000F4659DD774B00225046594614F056FD0B
:10EA100052465B4614F052FD80468946002C60D178
:10EA200042464B463046394614F092FB53EC182BC5
:10EA300014F044FD02460B464046494614F086FB5E
:10EA400002460B465046594614F080FB03B0BDEC1D
:10EA5000028BBDE8F08F002200236349002014F0F0
:10EA600057FE03B0BDEC028BBDE8F08F58A3D3E98D
:10EA700000235046594614F021FD02460B46002063
:10EA8000584914F063FB524606460F465B46504613
:10EA9000594614F013FD02460B463046394614F031
:10EAA0000DFD06460F46002C52D102460B4650463D
:10EAB000594614F04BFB30E7002C40F0978002469B
:10EAC0000B465046594614F041FB53EC182B14F0FA
:10EAD000F5FCB5E714F03AFB0022002314F018FE11
:10EAE0001BE729A3D3E90023DDE9000114F0E6FCCC
:10EAF00042464B4604460D463046394614F028FB44
:10EB000053EC182B14F0DAFC21A3D3E900230646BA
:10EB10000F46DDE9000114F0D1FC02460B463046F9
:10EB2000394614F015FB02460B464046494614F0A0
:10EB30000DFB52465B4614F009FB02460B4620468D
:10EB4000294614F003FB03B0BDEC028BBDE8F08F47
:10EB5000204614F049FC0CA3D3E9002380468946E3
:10EB600014F0ACFC0AA3D3E9002304460D4640464A
:10EB7000494614F0A3FC02460B4630463946D6E718
:10EB800000200021C9E600BF0000E0FE422EE63F63
:10EB9000763C7935EF39EA3D44523EDF12F1C23F0F
:10EBA000DE03CB966446C73F599322942449D23F53
:10EBB000935555555555E53F9FC678D0099AC33FA3
:10EBC000AF788E1DC571CC3F04FA97999999D93FBA
:10EBD000555555555555D53F00005043FFFFEF7F24
:10EBE0000000F03F0000E03F000050C3DDE9008975
:10EBF0000DA3D3E900234046494614F05FFC32469A
:10EC00003B4604460D465046594614F09FFA53ECD5
:10EC1000182B14F053FC06A3D3E9002306460F4635
:10EC2000A5E700BFAFF300800000E0FE422EE63F04
:10EC3000763C7935EF39EA3DB1F5801F2DE9F8438F
:10EC400004460D460B4619DA21F00042024359D022
:10EC500000295FDB3A4B002214F030FC394A0D46A4
:10EC60002B46934204466FF035010CDD22462B46BD
:10EC70002046294614F06CFABDE8F883314A9342E5
:10EC80004FF00001F2DC1815A0F2FF300844C70F66
:10EC900000EBD070C3F3130614F0A6FBC7F57F7327
:10ECA000033346EA03550F46064629462046FFF73A
:10ECB000C7FD1DA3D3E90023804689463046394667
:10ECC00014F0FCFB1AA3D3E9002304460D4640468A
:10ECD000494614F0F3FB02460B462046294614F041
:10ECE00037FA15A3D3E9002304460D4630463946CA
:10ECF00014F0E4FB02460B462046294614F028FA9D
:10ED0000BDE8F883002200230F49002014F000FD25
:10ED1000BDE8F883024614F019FA0022002314F02B
:10ED2000F7FCA9E7AFF30080362BF111F3FE593D54
:10ED30000EE526157BCBDB3F00609F501344D33F8D
:10ED400000005043FFFFEF7F000050C300000000B1
:10ED50002DE9F04F2DED0A8B23F0004B1F469A460C
:10ED60005BEA020389B03DD0164694466E4A21F014
:10ED70000048904504460D46894603462BDC38D0B2
:10ED8000934528DC684A934522D0B9F1000F3BDB5C
:10ED900000220092BCF1000F52D1634A934500F06B
:10EDA0009D80624A934500F0AB80BAF1804F00F03D
:10EDB000D4845F4A924543D1B9F1000F40DB20462D
:10EDC000294609B0BDEC0A8BBDE8F04F15F084BFB1
:10EDD000BCF1000FD9D008F1404808F5801858EA76
:10EDE000030309D15149002009B0BDEC0A8BBDE8ED
:10EDF000F08F08B9C345C5DD4E4809B0BDEC0A8B9C
:10EE0000BDE8F04F16F0A0BD4B4A93457FDCA2F160
:10EE1000547293450FDD4FEA2B52A2F2FF32142AAF
:10EE200040F3A384C2F134022CFA02F000FA02F299
:10EE3000624500F0EC8400220092BCF1000FB0D0DB
:10EE400020462946029315F07DF8029B3BBBB8F1A2
:10EE5000000F04D0354B29F040429A421FD1BAF13D
:10EE6000000F05DA02460B460020304914F050FC32
:10EE7000B9F1000FB8DA009B08F1404808F5801896
:10EE800058EA030340F0968402460B4610461946A2
:10EE900014F05CF902460B4614F03AFCA4E7009A21
:10EEA0004FEAD973013B0693134333D0234B9B4561
:10EEB00048DD03F104739B45214B40F3CF83984514
:10EEC00040F35D83BAF1000F40F35D8314A3D3E9EF
:10EED00000231046194614F0F1FA85E708F1404284
:10EEE00002F5801213433FF47DAF154B984540F374
:10EEF0007783BAF1000FC0F246833046394673E794
:10EF0000BAF1000FC0F22184204629466CE70222A4
:10EF100000923FE722462B46B8E700BFAFF30080E0
:10EF20009C7500883CE4377E0000F07F0000F03FD5
:10EF30000000E03F14B70208FFFF3F430000E0413C
:10EF4000FFFFEF3FE84B09EA0303002B40F0FB8390
:10EF5000E64B002214F0B2FA6FF0340588464FEA0F
:10EF60002853E34CC8F31302A3F2FF3342F07F5857
:10EF70005D19A242079548F4401840F3D383DD4B56
:10EF80009A4240F320849FEDC07BB0EE47BAF0EE8A
:10EF900067BAB0EE47CAF0EE67CA9FEDBD7B013598
:10EFA00054EC173B0795A8F580184FF0000944EC86
:10EFB000183B1A4641462346824614F0C7F853ECE4
:10EFC000182B04460D465046414614F0C1F802463F
:10EFD0000B460020C84914F09BFB45EC1A4B41EC52
:10EFE000190B51EC1A0B53EC192B14F067FAC346AA
:10EFF0004FEA680848F0005808F5002303EB0905BC
:10F000000A4600230146CDE902120293DDE9028996
:10F010000024CDE904122B4622464046494614F00E
:10F020004DFA02460B4651EC1A0B14F08FF841ECE6
:10F03000170B53EC182B2046294655EC174B14F0B0
:10F0400085F802460B465046594614F07FF8424672
:10F050004B4614F033FA02460B462046294614F07C
:10F0600075F853EC192B14F029FADDE904AB0446CA
:10F070000D4652465B465046594614F01FFA86A389
:10F08000D3E9002345EC1A4B04460D4614F016FA5A
:10F0900083A3D3E9002314F05BF822462B4614F037
:10F0A0000DFA81A3D3E9002314F052F822462B462F
:10F0B00014F004FA7EA3D3E9002314F049F82246A1
:10F0C0002B4614F0FBF97CA3D3E9002314F040F89D
:10F0D00022462B4614F0F2F979A3D3E9002314F069
:10F0E00037F822462B4604460D461046194614F0C2
:10F0F000E5F902460B462046294614F0DFF9424660
:10F1000004460D464B4650465946CDE904AB14F033
:10F110001FF853EC1A2B14F0D1F922462B4614F0A9
:10F1200017F8424604460D464B464046494614F001
:10F13000C5F945EC194B714B002282468B4614F001
:10F1400007F853EC192B14F003F8029C0D462246E5
:10F150002B464046494614F0B1F9684B8046894633
:10F1600000222046294613F0F1FF52465B4613F079
:10F17000EDFF02460B4651EC190B13F0E7FFDDE9FA
:10F18000042314F09BF949EC188B224680468946EB
:10F190002B4651EC1A0B14F091F902460B464046EF
:10F1A000494613F0D5FF82468B4652465B4651ECEA
:10F1B000180B13F0CDFF029C43A3D3E90023204694
:10F1C0000D4614F07BF953EC182B804689462046F7
:10F1D000294613F0BBFF02460B465046594613F032
:10F1E000B5FF3BA3D3E9002314F068F949EC198B70
:10F1F00039A3D3E90023804689462046294614F0E6
:10F200005DF902460B464046494613F0A1FF53EC18
:10F210001C2B13F09DFF824607988B4614F0E4F8F0
:10F220005246804689465B4651EC190B13F090FF1D
:10F2300053EC1B2B13F08CFF42464B4613F088FF18
:10F24000029C42464B4620460D4613F07FFF53EC8E
:10F250001B2B13F07BFF53EC192B13F077FF0246A7
:10F260000B465046594613F071FF82468B46009B71
:10F27000069A013B134340F0AC819FED197BB0EE41
:10F28000479AF0EE679A3BE00000000000000000A3
:10F29000000000000000F03FEF4E454A287ECA3FC4
:10F2A00065DBC9934A86CD3F01411DA96074D13FFA
:10F2B0004D268F515555D53FFFAB6FDBB66DDB3F0C
:10F2C000033333333333E33F000000E009C7EE3F3D
:10F2D000FD033ADC09C7EE3FF5015B14E02F3EBEAB
:10F2E000000000000000F0BF0000F07F000040437D
:10F2F0008E98030079B60B000000F03F0000084034
:10F300000023CDE900670093DDE9008930464246DD
:10F3100039464B4613F01AFF22462B4614F0CEF81E
:10F3200032463B4606460F465046594614F0C6F84C
:10F3300002460B463046394613F00AFF42468246E3
:10F340008B464B462046294614F0B8F806460F4631
:10F350003B4650465946324613F0FAFEBA4B9942A4
:10F3600004460D46884640F3118101F13F4303F501
:10F37000E003034340F010829DA3D3E900235046ED
:10F38000594613F0E5FE324641EC180B3B46204649
:10F39000294613F0DBFE02460B4651EC180B14F025
:10F3A0001DFB002840F0F881C8F30A534FF4801287
:10F3B000A3F2FE3342FA03F34344A449C3F30A52CF
:10F3C000A2F2FF3241FA02FCC3F3130523EA0C0157
:10F3D000C2F1140445F48015B8F1000F0B4645FA4C
:10F3E00004F102914FF00000B8BF49420246B8BF95
:10F3F00002913046394613F0A9FE06460F463B46B9
:10F4000050465946324613F0A3FE029B1B0500935B
:10F410000D46002478A3D3E900232046294614F0A2
:10F420004DF83246804689463B462046294613F031
:10F430008DFE02460B465046594613F087FE70A3D8
:10F44000D3E9002314F03AF86FA3D3E9002306466A
:10F450000F462046294614F031F802460B46304646
:10F46000394613F075FE06460F4632463B46404687
:10F47000494613F06DFE42464B460D46044613F0D6
:10F4800065FE02460B463046394613F05FFE2B46BA
:10F4900082468B4622462946204614F00FF85CA38C
:10F4A000D3E9002306460F4614F008F85AA3D3E91F
:10F4B000002313F04BFE32463B4613F0FFFF58A3E8
:10F4C000D3E9002313F044FE32463B4613F0F6FF27
:10F4D00055A3D3E9002313F039FE32463B4613F01F
:10F4E000EDFF53A3D3E9002313F032FE32463B462F
:10F4F00013F0E4FF02460B462046294613F026FE91
:10F5000006460F4632463B462946204613F0D6FFB4
:10F510000022804689464FF080433046394613F03A
:10F5200015FE02460B464046494614F0F1F8524695
:10F5300006460F465B462946204613F0BFFF52465B
:10F540005B4613F005FE02460B463046394613F083
:10F55000FDFD2B46224613F0F9FD02460B46002026
:10F560003B4913F0F3FD009D0D44B5F5801FC0F23B
:10F570004A81294653EC192B13F0A0FF34E4BAF169
:10F58000000FFFF6A3AC002000212DE4DFF8C8C077
:10F5900021F00043634540F3F7802E4B0B440343B7
:10F5A0000AD132463B4613F0D1FD52465B4614F079
:10F5B0000BFA00283FF4F8AE1FA3D3E9002351EC67
:10F5C000190B13F07BFF1CA3D3E9002313F076FF84
:10F5D0000AE49FED1B7BB0EE479AF0EE679A8FE648
:10F5E000BAF1000FCFDA304607F10041FFF7FCBB5C
:10F5F000FE822B654715973C00000000432EE63F36
:10F60000EF39FAFE422EE63F396CA80C615C20BE51
:10F61000D0A4BE726937663EF16BD2C541BDBB3E18
:10F620002CDE25AF6A56113F93BDBE166CC1663FF6
:10F630003E5555555555C53F59F3F8C21F6EA501A6
:10F64000000000000000F03FFFFF8F40FFFF0F00B1
:10F650000000F03F00346F3FFFCB904098458EDBB9
:10F66000894B98453FF72EAC874B002213F06EFD77
:10F6700071A3D3E9002304460D4613F01FFF70A3C6
:10F68000D3E9002382468B462046294613F016FF15
:10F690007E4B8046894600222046294613F00EFF05
:10F6A00002460B4668A1D1E9000113F04FFD224646
:10F6B0002B4613F003FF02460B460020744913F05B
:10F6C00045FD22462B4604460D461046194613F0CA
:10F6D000F5FE02460B462046294613F0EFFE5CA3DA
:10F6E000D3E9002313F0EAFE02460B4640464946A2
:10F6F00013F02CFD804689465046594642464B46FB
:10F7000013F026FD002452465B4620460D4613F0BA
:10F710001DFD02460B464046494613F017FD824642
:10F720008B46A4E59FED4C7BB0EE47BAF0EE67BA8E
:10F73000B0EE47CAF0EE67CA9FED497B4FF0000973
:10F7400054EC173B33E4002509E422462B464E498E
:10F75000002013F0DDFFFFF747BB22462B46204673
:10F76000294613F0ABFEFFF73FBBBCF1000F3ED1C3
:10F77000C2F114024BFA02F000FA02F25A4551D0DB
:10F78000CDF800C0FFF70DBB414A934251DCDDE9E3
:10F790000012009102913CE633A3D3E9002351EC1F
:10F7A000190B13F08BFE30A3D3E9002313F086FE70
:10F7B000FFF71ABB009B012B7FF416AB01F100434E
:10F7C0001946FFF711BB9FED2A7BB0EE47BAF0EE6A
:10F7D00067BA9FED297BB0EE47CAF0EE67CA9FED8E
:10F7E000287B4FF4802954EC173BFFF7E0BB204601
:10F7F0002946009314F0A6FB009B002B7FF48AABF4
:10F800000093FFF724BB029A01F082FDB2E600F0FC
:10F810000100C0F102020092BCF1000F3FF4C1AA46
:10F82000FFF70EBB00F00100C0F102020092FFF7EB
:10F83000B8BA1B15BAE500BF000000604715F73FD6
:10F8400044DF5DF80BAE543E555555555555D53FE3
:10F85000FE822B654715F73F000000000000000006
:10F86000000000000000F03F9C7500883CE4377EFB
:10F870000000004003B8E23F06D0CF43EBFD4C3E12
:10F88000000000000000F83F0000F03F0000D03F03
:10F890000000E03F000000002DE9F04FD84B2DEDB7
:10F8A000048B21F000459D4289B006460F46144660
:10F8B00040F38880D34B9D428B4629DC0029C2A3AC
:10F8C000D3E9002340F3CD8113F040FCCE4B9D42A1
:10F8D00006460F4600F08F80BDA3D3E9002313F046
:10F8E00035FC02460B46C4E900233046394613F086
:10F8F0002DFCB7A3D3E9002313F028FCC4E90201CF
:10F900004FF0010A504609B0BDEC048BBDE8F08F02
:10F91000BE4B9D4240F39280BD4B9D4260DC4FEA5E
:10F92000255AAAF2164AA5EB0A510F4614F076F8AA
:10F9300013F05AFD804689463046394642464B46CA
:10F94000CDE9028913F002FCB24B002213F0B6FDA0
:10F950000F46064614F062F8054613F045FD0246D0
:10F960000B4630463946CDE9042313F0EFFBA94B93
:10F97000002213F0A3FD02460B46CDE90623002228
:10F98000002314F003F8002800F06981002D0CBF5B
:10F9900001230223A04A019202215246009102A8AB
:10F9A000214600F0A1FBBBF1000F8246AADA626893
:10F9B000E36802F1004203F10043C0F1000A626013
:10F9C000E3609FE74FF0000A002200235046C4E99D
:10F9D0000067C4E9022309B0BDEC048BBDE8F08FD9
:10F9E00002460B4613F0B2FB4FF0000AC4E90201D5
:10F9F000C4E9000186E778A3D3E9002313F0A6FB4E
:10FA000077A3D3E9002306460F4613F09FFB024677
:10FA10000B46C4E900233046394613F097FB70A328
:10FA2000D3E9002313F092FB4FF0010AC4E902016D
:10FA3000504609B0BDEC048BBDE8F08F14F082FA9B
:10FA400069A3D3E9002306460F4613F037FD734B35
:10FA5000002213F07DFB13F0E1FF824613F0C4FC9B
:10FA600059A3D3E900238046894613F027FD0246B7
:10FA70000B463046394613F069FB55A3D3E9002302
:10FA800006460F464046494613F018FDBAF11F0FCF
:10FA900049EC198B47EC186B804689460BDC604BB0
:10FAA0000AF1FF3253F82230AB4204D002460B4633
:10FAB000304639467FE042464B4651EC180B13F076
:10FAC00045FB0A46C2F30A53C3EB1553102B0146FC
:10FAD000064617464FEA255540F3A4803EA3D3E9D6
:10FAE000002351EC190B13F0E9FC59EC188B064676
:10FAF0000F4632463B4618EE100A494613F026FBE5
:10FB000041EC180B404653EC182B494613F01EFBF2
:10FB100032463B4613F01AFB31A3D3E900230646D5
:10FB20000F4651EC190B13F0C9FC32463B4613F05B
:10FB30000DFB8046894642464B4651EC180B13F0AC
:10FB400005FB0A46C2F30A53ED1A312D014606465B
:10FB5000174667DD26A3D3E9002351EC190B13F0F8
:10FB6000ADFC56EC185B8046894642464B4618EE83
:10FB7000100A314613F0EAFA41EC180B314653EC07
:10FB8000182B284613F0E2FA42464B4613F0DEFAF1
:10FB900019A3D3E9002306460F4651EC190B13F0C5
:10FBA0008DFC32463B4613F0D1FA8046894651EC33
:10FBB000180B42464B4613F0C9FAC4E90001064649
:10FBC0000F4631E0AFF3008000004054FB21F93FC5
:10FBD0003163621A61B4D03D0000601A61B4D03D57
:10FBE0007370032E8A19A33B83C8C96D305FE43F4D
:10FBF0000000002E8A19A33BC14920259A837B3936
:10FC0000FB21E93F7BD90240FB21F93FFB21394130
:10FC1000FFFFEF7F000070412CCC02080000E03FA6
:10FC2000ACCB0208C4E9001232463B4651EC180B3B
:10FC300013F08CFA42464B4613F088FABBF1000FE2
:10FC4000C4E90201BFF65EAE07F1004501F10043D1
:10FC5000C4E90065C4E90203CAF1000A52E60323BD
:10FC600098E613F075FA244B9D4206460F4616D0CF
:10FC70001BA3D3E9002313F06BFA02460B46C4E939
:10FC800000233046394613F061FA15A3D3E9002367
:10FC900013F05EFA4FF0FF3AC4E9020132E612A314
:10FCA000D3E9002313F054FA11A3D3E90023064645
:10FCB0000F4613F04DFA02460B46C4E900233046C6
:10FCC000394613F043FA0AA3D3E9002313F040FAAC
:10FCD0004FF0FF3AC4E9020114E600BFAFF3008021
:10FCE0003163621A61B4D03D0000601A61B4D03D46
:10FCF0007370032E8A19A33BFB21F93F000000001B
:10FD0000574A2DE9F84F21F00048904504460D462A
:10FD100058DC544B0029B4BF534F544F98454FF013
:10FD2000000612DD524B984540F38C80514B9845AC
:10FD300054DD013398454ED047A3D3E90023204634
:10FD4000294613F0BBFBBDE8F88F4B4B98455CDCB4
:10FD500041A3D3E9002313F0FBF9484B002213F031
:10FD60003DFEA8BB2046294614F0ECF801F084F8CB
:10FD700004460D4622462B462046294613F0E8F954
:10FD8000224682468B462B462046294613F096FB98
:10FD90003A4B8046894600222046294613F0D8F97E
:10FDA00002460B464046494613F0B2FC02460B465B
:10FDB0005046594613F0CAF932463B4613F07EFBD3
:10FDC000BDE8F88F02460B4613F0C2F9BDE8F88F84
:10FDD00020462946FAE72A4B9842ADD820462946C4
:10FDE00014F0B0F8214B002213F068FBFEF75CFB27
:10FDF00004460D4622462B463046394613F05EFB3C
:10FE000022462B4613F05AFBE0E714F09BF801F072
:10FE100033F81C4B984504460D46ABDD174B0022CA
:10FE200013F096F902460B462046294613F070FC63
:10FE300022462B4613F08CF932463B4613F03EFB2C
:10FE4000BDE8F88F14F07EF8FEF72EFB32463B46F5
:10FE500013F034FBBAE700BF3374AC3C1F7BAC7FBC
:10FE6000FFFFEF7FFFFF35400000E0BF0000E03FF5
:10FE7000412E8640CD338640FFFF2F3E0000F03FED
:10FE80007DF8B98FFFFFEF3F2DE9F84F21F00049D2
:10FE9000B9F1795F2DED048B06460F4692469B46DD
:10FEA0006CDA13F0BBFD002800F0EE8032463B46D2
:10FEB0003046394613F002FB77A3D3E9002304460A
:10FEC0000D4613F0FBFA76A3D3E9002313F040F9B3
:10FED00022462B4613F0F2FA73A3D3E9002313F062
:10FEE00035F922462B4613F0E9FA71A3D3E9002332
:10FEF00013F02EF922462B4613F0E0FA6EA3D3E955
:10FF0000002313F023F922462B4613F0D7FA6CA3F3
:10FF1000D3E9002313F01CF922462B4613F0CEFA46
:10FF200041EC180B6A4B00222046294613F0C6FA12
:10FF300053EC182B804689462046294613F0BEFA1A
:10FF400052465B4604460D463046394613F0B6FA33
:10FF500002460B462046294613F0F8F802460B46A7
:10FF60004046494613F0F2F802460B460020594934
:10FF700013F0ECF8BDEC048BBDE8F88F02460B469D
:10FF800013F09CFA44A3D3E9002304460D4613F072
:10FF900095FA43A3D3E9002313F0DAF822462B465F
:10FFA00013F08CFA40A3D3E9002313F0CFF82246D4
:10FFB0002B4613F083FA3EA3D3E9002313F0C8F8CD
:10FFC00022462B4613F07AFA3BA3D3E9002313F021
:10FFD000BDF822462B4613F071FA39A3D3E900236A
:10FFE00013F0B6F82B46224613F068FA3A4B9945BF
:10FFF00041EC180B96DD394B99453ADC0022A9F506
:020000040801F1
:100000000013344900209046994613F09FF841ECC4
:10001000190B2F4B00222046294613F04FFA424677
:100020004B4613F093F853EC182B80468946204634
:10003000294613F043FA52465B4604460D463046C5
:10004000394613F03BFA02460B462046294613F088
:100050007DF802460B464046494613F077F80246C3
:100060000B4651EC190B13F071F8BDEC048BBDE895
:10007000F88F9FED157BDFF86890B0EE479AF0EEB1
:10008000679A4FF00008C4E7BDEC048B11490020CB
:10009000BDE8F88FAFF30080D43888BEE9FAA8BD78
:1000A000C4B1B4BD9EEE213EAD529C804F7E923EC7
:1000B0009015CB19A001FA3E7751C1166CC1563F7D
:1000C0004C5555555555A53F000000000000E73F31
:1000D0000000E03F0000F03F3233D33F0000E93F33
:1000E0000000D23F000000002DE9F04FADF5197D72
:1000F000B84CA29D089354F825400594013B12F199
:10010000140F04900B910393C0F22083B249D31EC5
:1001100081FB0301DB17C3EBA10307930133A3EBBF
:100120008303DB00D3180693079A039BD41A059A1E
:10013000D6181AD40136A39F4FF000084FF00009DB
:10014000264420AD08E057F8240013F04DF901349F
:10015000B442E5E8020108D0002CF4DA013440464C
:100160004946B442E5E80201F6D1059B002BC0F2F6
:10017000B883089BDDF80C90DA000292059A1A44C5
:100180000192049A20A901EBC30A0DF5E07B02EB72
:10019000C308039B002B4FF000044FF0000511DB58
:1001A000049E574677E90223F6E8020113F086F928
:1001B00002460B462046294612F0CAFF4645044631
:1001C0000D46EFD1019B09F101099945EBE8024584
:1001D0000AF1080ADDD1059A04980CA901EB820303
:1001E00002990144083B8B460BA90993134601EB86
:1001F00082020A920193019A98A901EBC203002A94
:1002000053E928452ADD0DF5E07909EBC2080DF127
:10021000300A724B00222046294613F04FF913F0A2
:10022000FDFB13F0E1F86E4B002206460F4613F07B
:1002300045F902460B462046294612F087FF13F087
:10024000EDFB044678E902234AF8044B3046394670
:1002500012F07EFFC84504460D46DAD1DDF818904D
:10026000204629464A4601F053F800224FF07F53BA
:1002700004460D4613F022F9FCF79AFC594B002274
:1002800013F01CF902460B462046294612F05EFF89
:100290000D46044613F0C2FB804613F0A5F80B464A
:1002A00002462946204612F051FF4B46002B0646D7
:1002B0000F4640F39980019A0CA9013AC9F118033D
:1002C00051F8225045FA03F101FA03F3EB1AC9F190
:1002D00017050CA843FA05F5002D40F82230884494
:1002E00000F38C80002200233046394613F04EFB89
:1002F000002800F05182019B059A03F1FF3A524514
:1003000010DC03F180430CAA013B0A9802EB830343
:10031000002253F80419834242EA0102F9D1002A6B
:1003200040F0DD80059B0CAA013B52F82330002BE6
:1003300040F0D080099A012352F8041901330029B2
:10034000FAD001994A1CCB1802939146079B089951
:1003500002EB030A019B0B44984620AB0AF1804A4A
:1003600003EBC808A39B0AF1FF3A03EB8A0A70ABC0
:1003700003EBC20301935AF8040F13F035F80B4650
:10038000039902460029C8E9002347464FF00004BC
:1003900008F108084FF0000511DB049E01E077E941
:1003A0000223F6E8020113F089F802460B462046C4
:1003B000294612F0CDFE5E4504460D46EFD1019B65
:1003C000E3E802450193029B09F101099945D2DD59
:1003D00010E700BFCCD00208ABAAAA2A0000703EEA
:1003E00000007041000020406BD1019B0CAA013B32
:1003F00052F82350ED15002D7FF774AF019B002BB1
:1004000008F1010840F3C6810C9C002C51D1019BDE
:10041000012B20D00CAB012253F8044F002C4BD001
:10042000531C0CA9C4F1807441F8224001999942EF
:1004300010DD0CAA0CA852F8232000EB830300EB7C
:1004400081006FF07F4100E01A688A1A43F8042B9C
:100450008342F9D10124069B002B0EDD012B00F015
:100460006A81022B09D1019B5A1E0CAB0CA953F8CF
:100470002230C3F3150341F82230022D7FF432AF4E
:1004800032463B46B649002012F060FE06460F4653
:10049000002C3FF427AF069AB149002000F038FF46
:1004A00002460B463046394612F050FE06460F46CD
:1004B00018E701230022B4E7019901328A42ABD147
:1004C000C9E7A84B002213F07FFA002840F05081C2
:1004D000054607E7019B5A1C9146029236E70CAB92
:1004E000069A53F82A30CDF81C80183A03950692E4
:1004F00073B9019B03F18043023B0CA901EB830319
:1005000053F804190AF1FF3A183A0029F8D0069274
:10051000069A9349002000F0FBFEBAF1000F044652
:100520000D46C0F2D48170AB03EBCA0B0CAA0AF1E2
:100530000103069302EB83084FEACA030BF1080993
:10054000049358F8040D12F04FFF22462B4612F088
:10055000B5FF06460F46844B2046294669E90267E7
:10056000002212F0ABFF0CAB984504460D46E8D1D3
:1005700048ABCDE9013ADDF814A0BAF1000F4FF015
:1005800000092CDB74A3D3E90023DFF8E0815F4688
:1005900000240025002603E0B14510DBF8E8022323
:1005A000F7E8020112F08AFF02460B462046294670
:1005B00012F0CEFD0136B24504460D46ECDA019B41
:1005C000029A03EBC9034A45C3E90045ABF1080BA6
:1005D00009F1010306D0BAF1000F9946D2DA0024DE
:1005E0000025ECE7A29BDDF808A0022B1EDC002B07
:1005F00000F3058113D1049C019D083400200021E3
:100600002C4474E9022312F0A3FDA542F9D1039B07
:1006100013B101F1004319460B9BC3E90001079B8D
:1006200003F007000DF5197DBDE8F08FA29B032BA9
:10063000F5D1BAF1000F00F06681019A049BD3183E
:10064000D3E9004502EBCA0B7BE902672046294645
:1006500032463B4612F07CFDA046A94604460D46B4
:1006600022462B463046394612F070FD4B46424634
:1006700012F06EFD019B5B45CBE90045CBE9020121
:10068000E2D1BAF1010F40F33E81019A049B0AF1D5
:10069000005A0AF1FF3A13444FEACA01D3E9004570
:1006A00001F1080A029192440DF5947B7AE9026700
:1006B0002046294632463B4612F04AFDA046A9464E
:1006C00004460D4622462B463046394612F03EFD82
:1006D00042464B4612F03CFDD345CAE90045CAE903
:1006E0000201E3D1029C019B0026002710341C4428
:1006F00003F110053046394674E9022312F028FD53
:10070000A542F9D106460F46039B002B40F0B58069
:10071000019A0B99D2E90045D2E90223C1E90223EB
:10072000079B03F00700C1E90467C1E900450DF527
:10073000197DBDE8F08F019B5A1E0CAB0CA953F834
:100740002230C3F3160341F8223096E600216FF001
:1007500017030791E6E400BF00000040FB21F93FCA
:100760000000F03F0000E03F0000703E08B30208C8
:10077000019B002B08F10108C8BF02253FF744AEDA
:1007800032463B466149002012F0E0FC0225064655
:100790000F46A7E500245EE63946069F03957A4298
:1007A0003046CDF81C8000F0B3FD594B00220446C2
:1007B0000D4613F009F9002855D0564B002220466B
:1007C000294612F07BFE13F029F9064612F00CFEC2
:1007D0004F4B002212F072FE0B460246294620467D
:1007E00012F0B4FC019C13F019F904F1010A0CABEE
:1007F000183743F82400069743F82A6088E6019DDD
:10080000069A002005EBC204002174E9022312F0CD
:100810009FFCA542F9D1039B002B48D10B9BC3E958
:1008200000010B4601990246D1E9000112F08EFC4D
:10083000BAF1000F0DDD4AAD0124F5E802230134C1
:1008400012F086FCA245F8DA039B13B101F10043D4
:1008500019460B9BC3E90201079B03F007000DF546
:10086000197DBDE8F08F2046294613F0D7F8019B8B
:100870000CAA9A4642F823004AE6019B19465A6898
:10088000DB680D688C680B9903F10043CB60079B14
:100890000D6002F100424A6003F0070007F10042D8
:1008A0008C600E614A610DF5197DBDE8F08F0B9CDF
:1008B00001F10043C4E900030B4601990246D1E966
:1008C000000112F043FCBAF1000FB4DCBEE7A29BBA
:1008D000022B0ADC002B11DC7FF4A1AE00200021EA
:1008E00095E6089BDB00029375E4A29B032B7FF443
:1008F00096AE48AB00260027019305E748AB0020E1
:100900000021019387E700260027FDE60000F03F65
:10091000000070410000703E2DE9F04F1F4621F0AD
:10092000004383B01646B3F1795FCDE90067044612
:100930000D4604DA13F072F8002800F08580224694
:100940002B462046294612F0B9FD06460F46324690
:100950003B462046294612F0B1FD42A3D3E90023CD
:1009600082468B463046394612F0A8FD3FA3D3E9B4
:10097000002312F0EBFB32463B4612F09FFD3DA3F5
:10098000D3E9002312F0E4FB32463B4612F096FD19
:100990003AA3D3E9002312F0D9FB32463B4612F0CA
:1009A0008DFD38A3D3E9002312F0D2FB0C9B8046C7
:1009B00089469BB3DDE90001294B002212F07EFD40
:1009C00042464B46804689465046594612F076FDCF
:1009D00002460B464046494612F0B8FB32463B46BB
:1009E00012F06CFDDDE9002312F0B0FB1AA3D3E98D
:1009F000002306460F465046594612F05FFD024658
:100A00000B463046394612F0A3FB02460B46204601
:100A1000294612F09BFB03B0BDE8F08F02460B465F
:100A20003046394612F04AFD0BA3D3E9002312F0F9
:100A30008DFB52465B4612F041FD22462B4612F0DA
:100A400087FB03B0BDE8F08F2046294603B0BDE820
:100A5000F08F00BFAFF30080495555555555C53F40
:100A60000000E03F7CD5CF5A3AD9E53DEB9C2B8A7C
:100A7000E6E55A3E7DFEB157E31DC73ED561C1197B
:100A8000A0012A3FA6F810111111813F00000000BB
:100A90002DE9F04F2DED048BC74C85B021F00045BA
:100AA000A54243EC192B80468946039100951CDC36
:100AB00012F0B4FF002846D1129B42460133134383
:100AC0002B4300F0C781129B012B00F0D0814B46D5
:100AD000BA49002012F01CFE04460D462046294665
:100AE00005B0BDEC048BBDE8F08FB54B009A9A427F
:100AF00029DD039B002B0ADA55EC194B19EE102A5D
:100B000005F1004309F1004143EC192B89464246A7
:100B10004B4689A1D1E9000112F018FB53EC192BC7
:100B200004460D4686A1D1E9000112F00FFB2246D2
:100B30002B4612F00DFB9FED847B80468946B0EE7C
:100B4000479AF0EE679A42464B464046494612F0B5
:100B5000B5FC02460B4682468B4612F0AFFC52466D
:100B600004460D465B464046494612F0A7FC78A372
:100B7000D3E9002306460F462046294612F09EFC84
:100B800075A3D3E9002312F0E3FA22462B4612F0B4
:100B900095FC73A3D3E9002312F0DAFA22462B4620
:100BA00012F08CFC70A3D3E9002312F0D1FA224694
:100BB0002B4612F083FC6EA3D3E9002312F0C8FA8F
:100BC00022462B4612F07AFC6BA3D3E9002312F0E5
:100BD000BFFA52465B4612F071FC47EC186B68A3F3
:100BE000D3E9002306460F462046294612F066FC4C
:100BF00065A3D3E9002312F0ABFA22462B4612F08C
:100C00005DFC63A3D3E9002312F0A2FA22462B462F
:100C100012F054FC60A3D3E9002312F099FA2246A3
:100C20002B4612F04BFC5EA3D3E9002312F090FA9E
:100C300022462B4612F042FC5BA3D3E9002312F0BC
:100C400087FA55EC194B02460B463046394612F0EE
:100C50007FFA53EC182B12F031FC2B4619EE102AB8
:100C600012F076FA52465B4612F028FC2B4619EE3B
:100C7000102A12F06DFA4EA3D3E9002304460D4664
:100C800051EC180B12F01AFC22462B4612F060FAB7
:100C900006460F4632463B464046494612F058FA51
:100CA000474B009A9A4204460D4600F38D80129BF2
:100CB000012B39D002460B460020404912F028FD96
:100CC00082468B465C465346CDE9003429460020D7
:100CD00042464B46824612F039FA02460B463046EF
:100CE000394612F033FA2346524612F0E7FBAB4680
:100CF000234606460F4652465046594612F0DEFB42
:100D0000304B002212F024FA02460B463046394698
:100D100012F01EFADDE9002312F0D0FB2346524602
:100D200012F016FA04460D462046294605B0BDECE1
:100D3000048BBDE8F08F00BF182D4454FB21E93F20
:100D4000075C143326A6813C000000000000000070
:100D5000D47ABF74702AFB3EE9A7F0320FB8123F75
:100D600068108D1AF726303F1583E0FEC8DB573F29
:100D700093846EE9E326823FFE41B31BBAA1AB3FE9
:100D8000735360DBCB75F3BEA69237A0887E143F09
:100D90000165F2F2D844433F280356C9226D6D3FE6
:100DA00037D60684F464963F7AFE10111111C13FC4
:100DB000635555555555D53FFFFF2F3E0000F0BFF9
:100DC0002794E53F0000F03F129812F00DFB2246F9
:100DD00082468B462B462046294612F06FFB524630
:100DE00041EC180B5B462046294612F0B1F9024649
:100DF0000B4651EC180B12F08BFC32463B4612F0BE
:100E0000A5F902460B464046494612F09FF90246B4
:100E10000B4612F09DF902460B465046594612F019
:100E200095F9039B9B1703F002030446C3F10100ED
:100E30000D4612F0D9FA02460B462046294612F01A
:100E40003DFB04460D462046294605B0BDEC048B0B
:100E5000BDE8F08F4046494613F074F802460B4651
:100E60000020044912F054FC04460D465CE7444659
:100E70004D4659E70000F03F2DE9F04FD24A2DEDE5
:100E8000028B21F00043934283B004460D460E4688
:100E90005BD9CE4A934214D9CD4A934209D9C1F3C2
:100EA00013030343024600F0EF810B4612F050F9A2
:100EB0000FE1AFA3D3E9002312F090FD002840F02A
:100EC000F881002EC0F20A81ABA3D3E900232046AB
:100ED000294612F0F3FABF4F002602460B46304671
:100EE000394612F035F912F099FD019012F07CFAB2
:100EF000A3A3D3E900238046894612F0DFFA024615
:100F00000B462046294612F021F99FA3D3E900237E
:100F100006460F464046494612F0D0FA80468946BA
:100F200042464B463046394612F010F904460D460B
:100F300022462B463046394612F008F942464B46C7
:100F400012F004F941EC180B09E0A34A934200F2B5
:100F5000F180A24A934240F20181002301939D4B0C
:100F600000222046294612F0A9FA06460F463246CC
:100F70003B462046294612F0A1FA85A3D3E9002377
:100F800082468B4612F09AFA83A3D3E9002312F02B
:100F9000DFF852465B4612F091FA81A3D3E90023B1
:100FA00012F0D4F852465B4612F088FA7EA3D3E9D9
:100FB000002312F0CDF852465B4612F07FFA7CA374
:100FC000D3E9002312F0C2F852465B4612F076FADB
:100FD000834B002212F0BCF88046894642464B46BD
:100FE0003046394612F06AFA02460B4600207D4927
:100FF00012F0ACF806460F463246404649463B469C
:1010000012F0A4F83246804689463B4620462946DF
:1010100012F054FA02460B460020734912F096F87B
:1010200002460B464046494612F072FB52465B466A
:1010300012F044FA019E02460B46002E3BD057ECBC
:10104000186B18EE102A3B4612F080F822462B4609
:1010500012F034FA3B4618EE102A12F077F85B468D
:10106000524612F073F8019B013306460F4600F01A
:10107000DB80019B012B00F0BD80019B0133392BEC
:1010800046D8019A132A00F3EA804FF40013134163
:10109000C3F17F5722462B4612F058F8002607F579
:1010A000401702460B463046394612F04FF8019A77
:1010B00001EB02510DE02046294612F0FFF952469D
:1010C0005B4612F043F802460B462046294612F0D2
:1010D0003DF803B0BDEC028BBDE8F08F36A3D3E939
:1010E00000232046294612F033F80022002312F094
:1010F00057FC002840F0CB801FA3D3E900232046F3
:10110000294612F0DBF9394F002602460B46E6E687
:1011100022462B4612F01AF802460B4600203049B0
:1011200012F014F8019A2E4B01EB0251002212F03A
:101130000DF8CEE72E4A934200F2C380002910A397
:10114000D3E900237FDB12F001F801230FF2380905
:10115000D9E90089019306460F46E1E618A3D3E9D1
:10116000002311F0F5FF02460B46AAE7AFF300801B
:10117000EF39FAFE422E8640FE822B654715F73F77
:101180000000E0FE422EE63F763C7935EF39EA3D3D
:101190002DC3096EB7FD8ABE3952E686CACFD03E4E
:1011A000B7DBAA9E19CE143F8555FE19A0015A3F00
:1011B000F41011111111A13F59F3F8C21F6EA501CE
:1011C0009C7500883CE4377E79684340412E864018
:1011D000FFFFEF7F0000E03F422ED63FFFFF8F3C36
:1011E0000000F03F00000840000018400000E0BF91
:1011F000B1A2F03F404B00222046294612F0D0FB1E
:10120000002847D03D4B20462946002211F0A0FF80
:1012100002460B463046394611F098FF00224FF047
:10122000404312F04BF954E702460B46204629464C
:1012300011F08CFF314B002212F040F92F4B0022AD
:1012400011F084FF45E711F083FF4FF0FF330FF2F9
:101250009009D9E90089019306460F4660E6019F8F
:10126000C7F57F7603360022330511F071FF024681
:101270000B462046294611F069FF214B002211F050
:1012800067FF01EB075124E70029BFF622AF1D4994
:1012900000201EE732463B462046294611F056FF05
:1012A00002460B4611F054FF154B002211F050FF7F
:1012B0000FE70DA3D3E900231046194612F0FEF8FC
:1012C00007E70BA3D3E9002312F0F8F8002DB4BF11
:1012D0000D4F0A4F02460B46002600E6AFF3008092
:1012E000763C7935EF39EABD9C7500883CE4377E61
:1012F000FE822B654715F73F0000D0BF0000E03F9E
:101300000000F03F0000F0BF0000E0BF0000000060
:10131000F8B5C1F30A5304460D460E46174653BBB3
:1013200021F000460346334324D0374B002212F00D
:10133000C5F8364B9F4204460D4616DBC1F30A53EF
:101340000E46363B3B4440F2FE7293421CDC002BBF
:101350003BDC13F1350F2BDA4CF250339F4213DC98
:10136000002D21A1D1E9000137DB1FA3D3E9002320
:1013700012F0A4F8F8BD40F2FF729342E2D10246A7
:101380000B4611F0E5FEF8BD002D19A1D1E90001D1
:1013900005DB17A3D3E9002312F090F8F8BD14A3DE
:1013A000D3E9002314A1D1E9000112F087F8F5E791
:1013B00026F0FF4626F4E006363346EA035120467F
:1013C000134B002212F07AF8F8BD26F0FF4626F4FF
:1013D000E006204646EA0351F8BD09A1D1E9000123
:1013E000C3E700BFAFF3008059F3F8C21F6EA50139
:1013F0009C7500883CE4377E9C7500883CE437FE91
:1014000059F3F8C21F6EA58100005043B03CFFFFA6
:101410000000903C10B5054C237833B9044B13B150
:101420000448AFF300800123237010BD2003002087
:1014300000000000B4D2020808B5034B1BB10349F9
:101440000348AFF3008008BD000000002403002023
:10145000B4D20208154B002B08BF134B9D46A3F5D1
:10146000803A00218B460F461348144A121A05F0A1
:1014700017FB0F4B002B00D098470E4B002B00D0D2
:1014800098470020002104000D000D48002802D0DC
:101490000C4816F010FB14F047FD2000290016F050
:1014A000F0FA16F0FEFA00BF0000080000800220EB
:1014B00000000000717A0208A8020020F42C00202D
:1014C000B77A020800000000F0B5214D2C6883B007
:1014D00014B1204603B0F0BD4FF496700BF0DAFE65
:1014E0004FF0FF310446032000F088FE00B202F006
:1014F000E7FF4FF0FF310646022000F07FFE00B20A
:1015000002F0DEFF31460246204608F06DFB04F192
:10151000DC0600231A463046012108F0E9F94FF0B5
:10152000FF31012000F06AFE00B202F0C9FF9827E7
:101530004FF0050C0246CDE9007C3346214604F10C
:10154000E40005F083FD20462C6003B0F0BD00BF31
:101550003C0300202DE9F04104460E46FFF7B4FF9E
:1015600000F1E4070546384605F08EFD082C18D03A
:10157000A4F10903012B0CD8D5F8E43038461B6AD6
:101580009847052805DCD5F8E4303846DB690821A2
:101590009847324621461023BDE8F0410D2002F065
:1015A00067BED5F8E43038461B6A98470228F0DC5D
:1015B000D5F8E4303846DB6904219847E9E700BFF5
:1015C00010B52DED028BFFF77FFF00F1E4042046FC
:1015D00007F090F908EE900A204607F09BF907EE15
:1015E000900A2046B8EEE78A07F0A4F9F8EEE88AF8
:1015F00068EE087A07EE100AE8EEA87AB8EEC77A25
:10160000E7EE077AF5EE407AF1EE10FAB1EEE78AEE
:1016100006D4FDEEC87ABDEC028B17EE900A10BD21
:1016200017EE900A13F0D4F9F3E700BF08B50328CA
:101630001CD8DFE800F0060D1402BDE80840FFF7F3
:10164000BFBFFFF741FFBDE80840E43007F052B9E3
:10165000FFF73AFFBDE80840E43007F05BB9FFF759
:1016600033FFBDE80840E43007F064B9002008BD4E
:1016700008B518B1012808D0002008BDFFF724FFE5
:10168000BDE80840E430FAF79BBFFFF71DFFBDE857
:101690000840E430FAF7B4BF00B583B00190FFF71B
:1016A00013FF0199E43003B05DF804EB06F028BFA6
:1016B00008B500F0A1FFFBF73BFDBDE8084000F0D6
:1016C000F3BC00BF08B500F097FFFBF7A1FDBDE834
:1016D000084000F0E9BC00BF08B500F08DFF12F033
:1016E000ADFCBDE8084000F0DFBC00BF08B500F06D
:1016F00083FF13F0A5F8BDE8084000F0D5BC00BF9B
:1017000008B500F079FFFBF723FDBDE8084000F0C5
:10171000CBBC00BF08B500F06FFF12F0B7FEBDE80C
:10172000084000F0C1BC00BF08B500F065FFFAF743
:1017300087FFBDE8084000F0B7BC00BF08B500F067
:101740005BFF12F0F1FDBDE8084000F0ADBC00BF4A
:1017500070B5049D95420C4625DB164653B9042A04
:101760001AD0022A11D110F001030ED102880A808A
:10177000184670BD10440B468A1810F8011D03F876
:10178000011B9A42F9D1002070BD01463246204625
:1017900004F026F9002070BD10F00303F5D10268B3
:1017A0000A60184670BD0846002105F079F94FF02F
:1017B000FF3070BD0830704728B1002902DB436854
:1017C0008B4201DC002070470844007A704700BF5C
:1017D00030B1002904DB43688B42C4BF4018027259
:1017E000704700BF002B23DB002970B50D461CDBC2
:1017F0004168A94219DB5668491B1446F21A8A420D
:10180000A8BF0A46002A10DB844207D008340830FB
:101810002844E11804F0E4F8002070BD0834E11811
:10182000601919F074F9002070BD4FF0FF3070BDE1
:101830004FF0FF30704700BF4068704710B4141E6F
:1018400010DB4268A2420DDB33EA230328BF1346B4
:10185000121B08309A422044A8BF1A465DF8044B78
:1018600005F01EB95DF8044B704700BF436899420C
:10187000A8BF194610B40C4632EA220128BF194607
:101880001B1B083099422044A8BF19465DF8044B41
:1018900000F09CBA002BBCBF43689B1A002A70B5AD
:1018A0000E4622DB44689918A1421EDC91421CDBE3
:1018B000DBB136F0004118D05942B14213DAB342DD
:1018C00011DD0830002E00EB020516DB9C1B2246C2
:1018D000A919284619F01BF9324628190021BDE83C
:1018E000704005F0DDB8002C00DA70BD22460830EB
:1018F000BDE87040002105F0D3B89A19294674421A
:10190000A81B19F004F9224628460021BDE87040C2
:1019100005F0C6B870B5054600206968490000F0BA
:1019200025FA6B68002B14DD0A4EE91D02460B46B2
:1019300011F8014F2411063B345D94710C7804F0CA
:101940000F045B1B345DD4716C689C4202F102028F
:10195000EDDC70BD50B30208002BBCBF43689B1A7E
:10196000002A30DB30B445689C18AC4229DC944234
:1019700027DB33B331F0004423D00029B8BF01EB9B
:10198000032191FBF3F403FB1411002900F108007B
:10199000B8BFC91802445418A242134411D02046BB
:1019A00004E0A24208460FD082420AD001461578D0
:1019B000007802F8010B01F8015B8B42F1D120465F
:1019C000F2E730BC704770470C46EDE700B583B0D6
:1019D0004FF0FF3300930023FFF704FF03B05DF8DF
:1019E00004FB00BF0146002000F0F0B930B5013A19
:1019F000044683B00D4618460F2A13D8DFE802F0DC
:101A00001C145761521C144C222D3D4767087D6CF5
:101A100000F0F2FD072DCDE9000103DD6B4603CB9D
:101A20002060616003B030BD00F07AFE002DC0B2CE
:101A3000F8DD207003B030BD00F072FE002DF1DD46
:101A40002070F7E700F06CFE012D83B2EADDC3F3EE
:101A500007232370607003B030BD00F061FE032DDA
:101A6000E0DDC0F30721C0F30742C0F30763E07075
:101A7000A1706270237003B030BD00F0E5FD032D4E
:101A8000D0DDA3070CBF2060206003B030BD00F0A4
:101A9000DBFD032DE5DCC5E700F042FE012D03B2BE
:101AA000D5DCBFE700F03CFE032DEADCBAE700F02E
:101AB00037FE012DB6DDE20754BF2080208003B041
:101AC00030BD00F02DFE012D80B2F4DCAAE700F05D
