:020000040800F2
:10E0000000800220652D020849900208499002080C
:10E010004990020849900208499002080000000057
:10E02000000000000000000000000000C1E901083D
:10E03000499002080000000067EA0108C7EA0108E9
:10E040004990020849900208499002084990020844
:10E050004990020849900208499002084990020834
:10E060004990020849900208499002084990020824
:10E070004990020849900208499002084990020814
:10E0800049900208499002084990020895FA01084F
:10E0900081F901084990020899FA0108499002089B
:10E0A00049900208499002084990020849900208E4
:10E0B00049900208499002080000000049900208B7
:10E0C00049900208499002084990020849900208C4
:10E0D00049900208499002084990020849900208B4
:10E0E000499002084990020800000000000000006A
:10E0F0000000000000000000000000000000000020
:10E100000000000049900208000000004990020849
:10E110004990020800000000499002080000000039
:10E120004990020849900208499002084990020863
:10E130004990020849900208499002080000000036
:10E140004990020849900208499002084990020843
:10E150004990020849900208499002084990020833
:10E160004990020849900208499002080000000006
:10E1700000000000499002080000000000000000BC
:10E180004990020849900208499002084990020803
:10E1900049900208000000002DE9F04F85B003917E
:10E1A0000778A7F10903042B044607F07F0200F16A
:10E1B0000100F5D9202AF3D02B2F04BF677804463D
:10E1C0002D2F72D09FED427B8DED007B4FF000082C
:10E1D0004FF000098FB34FF0000E4FF0000ADFF848
:10E1E00000B1754619E018F075F88046894630464A
:10E1F00018F00AF842464B4617F0BAFE52468046DF
:10E2000089465B46DDE9000135B318F08DF9CDE9AB
:10E210000001AE4614F8017F7FB1A7F13006092E48
:10E2200052465B4640464946DDD9C5B92E2F16D128
:10E2300014F8017F0125002FEFD142464B46DDE95E
:10E24000000118F047F880468946039B404649463E
:10E250001C6005B0BDE8F08F4FF0010EDAE7BEF1AB
:10E26000000F29D042464B46DDE9000118F032F894
:10E2700007F0DF07452F80468946E6D10399601CE9
:10E280000A221AF0F3FD16490246002018F082FB1C
:10E2900002460B464046494618F01CF8804689461F
:10E2A0004046494605B0BDE8F08F9FED0B7B67788F
:10E2B0008DED007B013489E7DFF828904FF00008EE
:10E2C0004046494605B0BDE8F08F00BFAFF300807F
:10E2D000000000000000F03F000000000000F0BF60
:10E2E000000024400000F87F2DE9F84F1646002377
:10E2F000002204460D4618F05FFA002840F09D8089
:10E30000002200232046294618F04CFA28B130227A
:10E31000002332707370BDE8F88F2046294619F04B
:10E3200057F918F087FA7BA3D3E9002381462946E1
:10E33000204618F041FA002800F08680B9F1000F5D
:10E34000C0F2BE804A4600206F4918F023FB024607
:10E350000B462046294618F0E7F804460D4666A10C
:10E36000D1E9000101274FF0000822462B4617F0A3
:10E37000B1FF0022654B17F0FBFD18F047FB002FA3
:10E38000CC464FF0FF3AC1464FF0000840F385807D
:10E39000DFF888E15E4C0122AEF1700945F6F32505
:10E3A0004FF02E0BA94208BFA0424FF0300309D313
:10E3B000001B61EB0501A94208BFA04203F1010364
:10E3C000F6D2DBB2337050EA010306F1010409D141
:10E3D000BA4210DACE4502F101020CD026467EE8A0
:10E3E0000245DFE7BA4204BF86F801B0B41CCE454F
:10E3F00002F10102F2D1B8F1000F0DD02246302116
:10E4000002F8011BC2F1010353442344002BF7DC43
:10E410002AEAEA7301331C44BCF1010F4CD0652396
:10E42000BCF1000F2370C5BF2B236370611CA11CBE
:10E430006046BDE8F84F0CF02FBD05F100431D46C6
:10E440002D23337001365BE72DA3D3E9002320464B
:10E45000294618F0CFF900287FF470AFB9F10E0FFC
:10E4600009F101073DDDA9F10E08424600202649C9
:10E4700018F090FA02460B462046294618F054F848
:10E480000022224B17F074FD18F0C0FA002FA9F1FA
:10E490000F0A4FF0010C3FF77BAF334630222E249A
:10E4A00003F8022B74707FEA090618D01E4403F8A3
:10E4B000012BB342FBD16BE700232370BDE8F88F3B
:10E4C000C9F100020020104918F064FA02460B4618
:10E4D0002046294617F0FEFE04460D463FE71E463D
:10E4E00056E7C9F10E0200200749C84618F052FA53
:10E4F0004FF0010939E700BF0000901EC4BCD642AE
:10E5000050EFE2D6E41A4B44000024400000E03F04
:10E5100000407A108DEDB5A0F7C6B03EE89702082E
:10E5200070B54FF0FF3006F095F904466FF07F406C
:10E5300006F090F90646204617F056FE00220C4BD6
:10E5400017F0C8FE044630460D4617F04DFE06A3F0
:10E55000D3E9002317F0E8FF02460B462046294680
:10E5600017F006FD70BD00BF0000E0DFFFFF6F4346
:10E570000000F03D00000000294B1B68002B70B527
:10E5800006460CBF182005200D4609F0CFF8002ED6
:10E59000044639DD234B186817F036FE1EA3D3E975
:10E5A000002317F097FE0022002317F0E1FC18F07B
:10E5B00041F9236820EAE071B1F5806FA8BF4FF4FC
:10E5C0008061DB682046984723681749D3F880307C
:10E5D00091FBF6F120469847002D14DDA5F11406B5
:10E5E000012EB8BF012630460DF030FA23682046D0
:10E5F000DB6800219847A81B0128B8BF0120BDE8AF
:10E6000070400DF023BA70BD03680021DB68BDE8DF
:10E6100070401847AFF30080101010101010104019
:10E62000E40500200802002040420F000000000026
:10E6300038B5154B1B68002B04460CBF182005206D
:10E6400009F074F80546204617F0DEFD0CA3D3E967
:10E65000002317F03FFE0022002317F089FC18F07A
:10E66000E9F82B6820EAE071B1F5007FDB68A8BF0C
:10E670004FF4007128469847044B1C6038BD00BF1A
:10E680001010101010100040E405002008020020B7
:10E6900030B52D4B8DB01A680092009A120205D445
:10E6A000009A42F400020092009A1A60274A284B0E
:10E6B000126801921B6802930DF07EFF17F0A4FD13
:10E6C000CDE90401019B9BB20193029B9BB2029393
:10E6D000DDE904011AA3D3E9002317F0FBFD1D4B6C
:10E6E0000022CDE90401CDE906230298019BC01A5E
:10E6F00017F07AFDCDE90801DDE90445019817F02E
:10E7000073FD02460B462046294617F02FFCCDE943
:10E710000A01DDE90601DDE90823DDE90A4517F014
:10E7200003FF22462B4617F0D5FD00220A4B17F0B7
:10E730001FFC18F0A7F8039003980DB030BD00BF80
:10E740009A9999999999F13F08030450A875FF1F68
:10E75000CA75FF1F0000544000003E40000000004A
:10E760002DE9F04F2DED028B044683B0C06817F001
:10E770004BFD80462069894617F046FD8246606958
:10E780008B4617F041FD024601F1004306460F4655
:10E790004046494618F0C8FD18F094F8E062054676
:10E7A00018F076FC0190284618F026FC019B0546DF
:10E7B000184617F03BFD42464B4617F08BFD80464E
:10E7C0002846894617F032FD32463B4617F082FD57
:10E7D00002460B464046494617F0C8FB02460B4628
:10E7E0005046594618F0A0FD18F06CF8002208EECB
:10E7F000100A00233046394617F0FCFF28B3B5EE67
:10E80000C08AF1EE10FA1CDD11A7D7E9006718EEF7
:10E81000100A17F00BFD02460B463046394617F03A
:10E82000A5FB32463B4617F0A3FB18F04BF8A0625D
:10E83000E38843F00203E38003B0BDEC028BBDE844
:10E84000F08F05A7D7E90067E1E784ED0A8AEFE7D3
:10E85000EA2E4454FB21F93FEA2E4454FB21F9BF30
:10E8600008B50DF0DBFDDFED0C7A07EE100A67EE60
:10E87000277A17EE900A17F0D9FC05A3D3E90023F5
:10E8800017F052FE17F0D6FF08BD00BFAFF30080AF
:10E89000EA2E4454FB2119400000B443000000005C
:10E8A00008B50DF0CFFDDFED0C7A07EE100A67EE2C
:10E8B000277A17EE900A17F0B9FC05A3D3E90023D5
:10E8C00017F032FE17F0B6FF08BD00BFAFF30080AF
:10E8D000EA2E4454FB2119400000B443000000001C
:10E8E000494A21F0004393422DE9704304460D4606
:10E8F0004BDC464A93420E460EDC3FA3D3E900238D
:10E9000017F036FB0022424B17F074FF00284CD062
:10E9100020462946BDE870833E4A93423BDCB3F172
:10E92000804F42DD18F04EFA2246804689462B463B
:10E930002046294617F0CEFC0022354B17F018FB75
:10E9400019F004F902460B464046494617F010FB01
:10E9500002460B4600202E4917F0E6FD42460446CB
:10E960000D464B464046494617F002FB02460B4611
:10E970002046294617F0FCFA02F06AF8002EC9DC9E
:10E9800001F100431946BDE8708302460B4617F0BB
:10E99000EFFABDE8708318F015FA02F059F818A3E1
:10E9A000D3E9002317F0E4FAE8E722462B46204695
:10E9B000294617F08FFC804689462046294618F0E4
:10E9C00001FA002204460D46114B4046494617F015
:10E9D000CFFA19F0BBF800220D4B17F0C9FA024626
:10E9E0000B464046494617F09FFD22462B4617F03E
:10E9F000BFFA00F0C5FAC1E79C7500883CE4377E99
:10EA0000EF39FAFE422EE63FFFFFEF7FFFFF2F3E7A
:10EA10000000F03F0000B0412DE9F84FC44B21F059
:10EA200000469E4204460D468A460EDDC14B9E427C
:10EA300000F3AC8000F0A780BAF1000F40F3EA8049
:10EA40009FA1D1E90001BDE8F88FBB4B9E4200F3C6
:10EA5000B580A3F1DE739E4240F3A0804FF0FF3BF0
:10EA600022462B462046294617F034FC02460B4628
:10EA70008046894617F02EFC93A3D3E9002306466F
:10EA80000F4617F027FC92A3D3E9002317F070FA82
:10EA900032463B4617F01EFC8FA3D3E9002317F044
:10EAA00067FA32463B4617F015FC8DA3D3E90023E5
:10EAB00017F05EFA32463B4617F00CFC8AA3D3E906
:10EAC000002317F055FA32463B4617F003FC88A3A3
:10EAD000D3E9002317F04CFA42464B4617F0FAFBF5
:10EAE00085A3D3E90023804689463046394617F08E
:10EAF000F1FB83A3D3E9002317F038FA32463B46F3
:10EB000017F0E8FB80A3D3E9002317F02FFA324671
:10EB10003B4617F0DFFB7EA3D3E9002317F026FA6C
:10EB200032463B4617F0D6FB7BA3D3E9002317F010
:10EB30001DFA32463B4617F0CDFBBBF1FF3F0246C4
:10EB40000B466CD04046494617F012FA22462B4637
:10EB500017F0C0FB794E7A4B4FEACB0B5E449B44D7
:10EB6000DBE9002317F002FA22462B4617F0FEF9E4
:10EB700002460B46D6E9000117F0F8F9BAF1000F8A
:10EB800043DBBDE8F88F00283FF456AF22462B4602
:10EB90002046294617F0ECF9BDE8F88F60A3D3E9C9
:10EBA000002317F0E5F90022664B17F023FE00283A
:10EBB0003FF454AF20462946BDE8F88F18F002F91B
:10EBC000614B9E4204460D4639DCA3F550239E421C
:10EBD0005EDC02460B4617F0CBF90022594B17F0CA
:10EBE000C5F9002206460F464FF0804320462946CD
:10EBF00017F0BEF902460B463046394617F094FC32
:10EC00004FF0000B04460D462AE701F10043194678
:10EC1000BDE8F88F44A1D1E90001BDE8F88F404676
:10EC2000494617F0A5F922462B4617F053FB02463A
:10EC30000B462046294617F099F9BDE8F88F434B5B
:10EC40009E421ADC0022424B17F090F90022064641
:10EC50000F463F4B2046294617F03CFB0022394B1C
:10EC600017F086F902460B463046394617F05CFC31
:10EC70004FF0020B04460D46F2E602460B4600201A
:10EC8000344917F051FC4FF0030B04460D46E7E6FC
:10EC900000222C4B17F06AF9002206460F46294B3A
:10ECA0002046294617F064F902460B46304639469D
:10ECB00017F03AFC4FF0010B04460D46D0E600BFBA
:10ECC000182D4454FB21F93F11DA22E33AAD903F6D
:10ECD000EB0D76244B7BA93F513DD0A0660DB13F93
:10ECE0006E204CC5CD45B73FFF8300922449C23FFB
:10ECF0000D5555555555D53F2F6C6A2C44B4A2BFC0
:10ED00009AFDDE522DDEAD3F6D9A74AFF2B0B33F87
:10ED1000711623FEC671BC3FC4EB98999999C93FFF
:10ED20009C7500883CE4377E182D4454FB21F9BFC4
:10ED3000FFFF0F440000F07FFFFFDB3FF897020862
:10ED4000189802080000F03FFFFFF23FFF7F0340EA
:10ED50000000F83F0000F0BF2DE9F843C1F30A5965
:10ED6000A9F2FF35132D02460B460C46064688468F
:10ED7000074622DC002D50DBDFF8F09049FA05F958
:10ED800001EA090E5EEA06061CD036A3D3E9002389
:10ED900017F0EEF80022002317F02CFD48B1002CEC
:10EDA00004DD4FF4801343FA05F5A84428EA09046A
:10EDB000002721463846BDE8F883332D06DDB5F53A
:10EDC000806F3DD010461946BDE8F883A9F213497B
:10EDD0004FF0FF3E2EFA09F910EA090FF2D021A3F5
:10EDE000D3E9002317F0C4F80022002317F002FD36
:10EDF0000028DED0002C09DD142D2BD00127C5F111
:10EE0000340507FA05F5AE1928BFB844444626EA8A
:10EE1000090721463846BDE8F88312A3D3E9002349
:10EE200017F0A6F80022002317F0E4FC0028C0D059
:10EE3000002C0BDB54EA060706D00027084CB8E785
:10EE400017F096F8BDE8F8833C46B2E700274FF08C
:10EE50000044AEE704F10108D8E700BFAFF300803B
:10EE60000000F03F9C7500883CE4377EFFFF0F00F8
:10EE70002DE9F041C1F30A57A7F2FF35132D0246E1
:10EE80000B460C46884606461CDC002D3FDB3A4FFD
:10EE90002F41864601EA070C5CEA0E0E17D034A318
:10EEA000D3E9002317F064F80022002317F0A2FC36
:10EEB00020B1002C3FDB28EA07040026214630461B
:10EEC000BDE8F081332D06DDB5F5806F2FD01046FB
:10EED0001946BDE8F081A7F213474FF0FF3E2EFA26
:10EEE00007F73842F3D022A3D3E9002317F040F804
:10EEF0000022002317F07EFC0028DFD0002C20DB4E
:10EF0000444626EA070621463046BDE8F08118A3AC
:10EF1000D3E9002317F02CF80022002317F06AFC35
:10EF20000028CBD0002C17DB00263446C6E717F0AC
:10EF30001FF8BDE8F0814FF4801343FA05F5A844AB
:10EF4000B9E7142D10D00123C5F1340503FA05F5F6
:10EF5000AE1928BF9844D3E724F00042074B324350
:10EF600018BF1C460026A9E704F10108C8E700BF46
:10EF70009C7500883CE4377EFFFF0F000000F0BF67
:10EF80002DE9F04FD84B994287B0804689460E460E
:10EF900013DCD64B21F000449C4218DD0022D44BF8
:10EFA00017F000FC002879D0002200230020D1496E
:10EFB00017F0BAFA07B0BDE8F08FCF4B99422FDDBA
:10EFC00042464B4616F0D4FF07B0BDE8F08FCB4B5E
:10EFD0009C4270DDCA4B1E449E427ED80022C94B23
:10EFE0004046494616F0C4FF4FEA215AAAF2FF3ABA
:10EFF000BAF1000F04460D460E4640F3DE8142464C
:10F000004B4616F0B3FF02460B460020BD4916F0F2
:10F01000ADFF22462B4617F087FACDE902010BE03F
:10F02000B94B9E42DADD9FED9A7B8DED027B4FEA74
:10F03000265A4446AAF2FF3AB44BC6F313069E4240
:10F0400046F07F5500F3E78045F4401520462946F9
:10F050000022AC4B16F08AFF002204460D46AC4B52
:10F0600017F038F922462B4617F034F9A046CDE9BF
:10F070000401A946CDE90001002E3AD10022002367
:10F080002046294617F08EFB002800F0CE80BAF10A
:10F09000000F40F074810020002195E742464B4666
:10F0A0004046314616F062FF02460B4617F03CFA26
:10F0B00007B0BDE8F08F0022964B16F059FF0022F2
:10F0C000002317F097FB002800F0CC80924B9C4265
:10F0D00000F3C8804046494676E700228C4B17F083
:10F0E000F9F842464B4617F0F5F8CDE900014FF02C
:10F0F000000A00224FF080434046494616F038FF90
:10F1000002460B464046494617F00EFA02460B46A9
:10F1100006460F4617F0DEF85FA3D3E90023044646
:10F120000D4617F0D7F85EA3D3E9002316F020FFB1
:10F1300022462B4617F0CEF85BA3D3E9002316F046
:10F1400017FF22462B4617F0C5F859A3D3E9002331
:10F1500016F00EFF22462B4617F0BCF856A3D3E953
:10F16000002316F005FF22462B4617F0B3F854A3F0
:10F17000D3E9002316F0FCFE22462B4617F0AAF82E
:10F1800051A3D3E9002316F0F3FE22462B4617F0D5
:10F19000A1F804460D46BAF1000F00F0BF805046BA
:10F1A00017F032F84AA3D3E9002382468B4617F0C2
:10F1B00091F8DDE90023CDE904012046294616F047
:10F1C000D7FE32463B4617F085F843A3D3E9002328
:10F1D00004460D465046594617F07CF8DDE90223F7
:10F1E00016F0C6FE02460B462046294616F0C0FE23
:10F1F00002460B46DDE9000116F0B8FE42464B46DA
:10F2000016F0B4FE02460B46DDE9040116F0AEFE30
:10F2100007B0BDE8F08F45F40015C6F5801620460E
:10F220002946B6100AF1010A12E72DA3D3E90023FB
:10F230002046294617F04EF802460B460020314979
:10F2400016F094FEDDE9042317F044F806460F4655
:10F25000BAF1000F73D102460B462046294616F03C
:10F2600085FEB1E642464B464046494617F032F825
:10F270000022274B17F02EF802460B46404649461F
:10F2800016F074FE07B0BDE8F08F00BFAFF300804A
:10F29000000000000000000044523EDF12F1C23FB7
:10F2A0009FC678D0099AC33FDE03CB966446C73F1A
:10F2B000AF788E1DC571CC3F599322942449D23F1B
:10F2C00004FA97999999D93F935555555555E53F66
:10F2D0000000E0FE422EE63F763C7935EF39EA3D0C
:10F2E000555555555555E53F7982DA3FFFFFEF3FBC
:10F2F0000000F0BF000050C3FFFFEF7FFFFF1F3E85
:10F300003C412D400000F03FFFFF3F439DA0060021
:10F310000000E03F00005043FFFF8F3CDDE9004567
:10F3200022462B4616F024FE32463B4616F0D2FF0C
:10F3300002460B462046294616F018FE9CE750462A
:10F3400016F062FF23A3D3E9002382468B4616F012
:10F35000C1FF22A3D3E9002380468946504659467F
:10F3600016F0B8FFDDE9022316F002FE02460B4656
:10F370003046394616F0FAFD22462B46DCE7504669
:10F3800016F042FF15A3D3E9002306460F4616F0F8
:10F39000A1FFDDE9022316F0EBFD0EA3D3E9002364
:10F3A00004460D463046394616F094FF02460B4699
:10F3B0002046294616F0DCFD06E60022044B16F036
:10F3C000D5FD02460B464046494616F0CFFD20E6E5
:10F3D0000000F03F0000E0FE422EE63F763C79352B
:10F3E000EF39EA3D0000000008B518F071F804A3F9
:10F3F000D3E9002317F098F808BD00BFAFF30080F1
:10F40000EF39FAFE422EE63F2DE9F043DFF8B480F3
:10F410008BB004460D4601F0F3F898F90030013343
:10F4200006460F462BD022462B462046294617F08B
:10F43000EBF9814618BB2046294617F0C3FC1FA3F1
:10F44000D3E9002317F0D6F9C8B1194A98F900306A
:10F45000CDF820900321CDE90445CDE902458DE8A2
:10F4600006008BB9134B4FF06042CDE90623684686
:10F4700019F0FAF970B1089B9BB9DDE906673046CF
:10F4800039460BB0BDE8F0830B490020022BCDE9D3
:10F490000601ECD119F066FB22230360089B002BC8
:10F4A000EBD019F05FFB089B0360E6E7AFF3008049
:10F4B00038AD0208FFFFEF470000F07F7DF8B98FFD
:10F4C000CE338640060400202DE9F043DFF8E480C7
:10F4D0008BB004460D4601F043F998F90030013332
:10F4E00006460F4633D02046294619F0B7F970B3C7
:10F4F0002CA3D3E900232046294617F07BF9814647
:10F5000050BB2AA3D3E900232046294617F054F91B
:10F51000E8B198F90030204ACDF820900026002765
:10F520000421022BCDE90445CDE90245CDE906676A
:10F530008DE8060029D0684619F096F928B3089B93
:10F540001BB119F00FFB089B0360DDE9066730462D
:10F5500039460BB0BDE8F0830F4A98F900300192AC
:10F5600003210022CDE90445CDE90245009108922E
:10F570002BB90A4B4FF06042CDE90623DBE708497F
:10F580000020022BCDE90601D5D119F0EBFA222398
:10F590000360D4E7AFF3008040AD0208FFFFEF4700
:10F5A0000000F07FEF39FAFE422E864051302DD513
:10F5B000104987C0060400202DE9F04FDFF80C93B6
:10F5C0008DB006460F4614461D4601F0C5FC99F95C
:10F5D0000080B8F1FF3FCDE9000136D022462B462E
:10F5E0002046294617F010F9834670BB32463B4649
:10F5F0003046394617F008F98246002840F0A280CC
:10F60000304639460022002317F0CCF810B3002210
:10F6100000232046294617F0C5F8834600286AD003
:10F620009FEDA17B0122A44BCDF828A00292CDE949
:10F630000467CDE906458DED087B0393B8F1000F13
:10F6400045D09FED9B7B8DED007BDDE900010DB08A
:10F65000BDE8F08FDDE9000119F000F980460028CF
:10F6600000F08D804FF0000A4FF0000BDDE9000143
:10F6700052465B4617F096F80028E6D030463946E9
:10F6800019F0ECF80028E0D02046294619F0E6F8F9
:10F690000028DAD099F90030874A03920421002229
:10F6A000022BCDE90467CDE90645CDE908AB02910F
:10F6B0000A9203D002A819F0D7F868B919F052FAE3
:10F6C0002223036008E09FED787B8DED087B02A884
:10F6D00019F0CAF8002830D00A9B1BB119F042FA81
:10F6E0000A9B03609DED087B8DED007BDDE9000149
:10F6F0000DB0BDE8F08F2046294619F0AFF800287C
:10F70000A3D0002200232046294617F055F80028F0
:10F710009BD099F90030684ACDF828B00121CDE995
:10F720000467CDE9064502910392002BCBD06349D3
:10F730000020022BCDE90801C9D119F013FA2123C9
:10F740000360C9E7002200232046294617F02AF863
:10F7500000283FF47AAF5A4B5749CDF828B0002221
:10F760000120B8F1020FCDE904670290CDE906450A
:10F77000CDE908230391AAD1CDE9002365E73046FE
:10F78000394619F06BF800283FF46CAF2046294643
:10F7900019F064F800283FF465AFDDE90023104656
:10F7A000194617F031F800285FD1032399F900803A
:10F7B0000293414B0A90CDE90467CDE906450393D6
:10F7C000B8F1000F2BD1DFF808B14FF0604A0022EA
:10F7D000002330463946CDE908AB16F0EDFF00288E
:10F7E0003FF468AF0022374B2046294616F072FDE1
:10F7F00004460D4619F040F802460B4620462946BD
:10F8000016F0D0FF70BB304B99F900804FF060428A
:10F81000CDE90823B8F1020F7FF44CAF4EE7DFF8D3
:10F82000B4B04FF0000A0022002330463946CDE93B
:10F8300008AB16F0C1FF0028ECD00022214B204677
:10F84000294616F047FD04460D4619F015F8024604
:10F850000B462046294616F0A5FF18B9174B002283
:10F86000CDE9082399F90080D4E799F90090124B6B
:10F87000CDF828800122CDE90467CDE90645029242
:10F880000393B9F1000F3FF41EAF0022002310468E
:10F89000194616F049FEB9F1020FCDE908013FF40F
:10F8A0004CAF14E7AFF30080000000000000000040
:10F8B000000000000000F03F58AD02080000F0FF1B
:10F8C0000000F03F0000E03FFFFFEFC7060400200C
:10F8D000FFFFEF470000F07F2DE9F84FC44E21F005
:10F8E0000043B34204460D460DDD03F1404303F5EA
:10F8F0008013034340F0B980002940F34081002089
:10F900000021BDE8F88FBB4EB34240F3A68000292A
:10F91000C0F2788102460B460020B74916F026FB5C
:10F920000022B64B16F0D6FC04460D4618F00EF930
:10F9300095A3D3E90023894680462946204616F040
:10F94000C9FC93A3D3E9002316F012FB22462B46F1
:10F9500016F0C0FC90A3D3E9002316F007FB224663
:10F960002B4616F0B7FC8EA3D3E9002316F000FB5C
:10F9700022462B4616F0AEFC8BA3D3E9002316F0EB
:10F98000F5FA22462B4616F0A5FC89A3D3E90023FD
:10F9900016F0EEFA22462B4616F09CFC86A3D3E91D
:10F9A000002382468B462046294616F093FC84A30A
:10F9B000D3E9002316F0DAFA22462B4616F08AFC29
:10F9C00081A3D3E9002316F0D3FA22462B4616F082
:10F9D00081FC7FA3D3E9002316F0C8FA22462B4608
:10F9E00016F078FC0022844B16F0C2FA02460B4651
:10F9F0005046594616F098FD42464B4616F06AFCB2
:10FA0000002682468B4632464B463046494616F023
:10FA100061FC02460B462046294616F0A7FA3246FC
:10FA200004460D464B464046494616F0A1FA0246AA
:10FA30000B462046294616F077FD02460B465046F7
:10FA4000594616F095FA32464B4616F091FA0246A0
:10FA50000B4616F08DFABDE8F88F694A93420EDC2A
:10FA60005DA1D1E90001BDE8F88F02460B4616F012
:10FA70007DFA02460B4616F057FDBDE8F88F0246A8
:10FA80000B4616F027FC40A3D3E9002306460F4699
:10FA900016F020FC3EA3D3E9002316F069FA3246A3
:10FAA0003B4616F017FC3CA3D3E9002316F05EFAA0
:10FAB00032463B4616F00EFC39A3D3E9002316F07C
:10FAC00057FA32463B4616F005FC37A3D3E900232C
:10FAD00016F04CFA32463B4616F0FCFB34A3D3E951
:10FAE000002316F045FA32463B4616F0F3FB32A3EC
:10FAF000D3E90023804689463046394616F0EAFBB2
:10FB00002FA3D3E9002316F031FA32463B4616F014
:10FB1000E1FB2DA3D3E9002316F02AFA32463B4637
:10FB200016F0D8FB2AA3D3E9002316F01FFA3246B9
:10FB30003B4616F0CFFB00222F4B16F019FA024677
:10FB40000B464046494616F0EFFC22462B4616F07F
:10FB5000C1FB02460B4622A1D1E9000116F006FACC
:10FB600002460B462046294616F000FA02460B468E
:10FB700019A1D1E9000116F0F9F9BDE8F88F1AA131
:10FB8000D1E90001BDE8F88F09F7FD0DE13D023F25
:10FB900088B20175E0EF493F3B8F68B52882A43FEA
:10FBA0005544880E55C1C93F7D6FEB0312D6D43F33
:10FBB000555555555555C53F82922EB1C5B8B33FE1
:10FBC00059018D1B6C06E63FC88A599CE52A004006
:10FBD0004B2D8A1C273A0340182D4454FB21F93F32
:10FBE000075C143326A6913C182D4454FB21094090
:10FBF000FFFFEF3FFFFFDF3F0000F03F0000E03F6F
:10FC00000000603C00225C4B16F0B2F900225B4B16
:10FC100016F060FB40A3D3E9002304460D4616F01E
:10FC200059FB3FA3D3E9002316F0A2F922462B4645
:10FC300016F050FB3CA3D3E9002316F097F92246B7
:10FC40002B4616F047FB3AA3D3E9002316F090F9B0
:10FC500022462B4616F03EFB37A3D3E9002316F0CD
:10FC600085F922462B4616F035FB35A3D3E9002350
:10FC700016F07EF922462B4616F02CFB804689466C
:10FC80002046294617F062FF2FA3D3E9002306463A
:10FC90000F462046294616F01DFB2DA3D3E900236D
:10FCA00016F064F922462B4616F014FB2AA3D3E97A
:10FCB000002316F05DF922462B4616F00BFB28A315
:10FCC000D3E9002316F052F922462B4616F002FB28
:10FCD0000022294B16F04CF902460B464046494695
:10FCE00016F022FC32463B4616F0F4FA1EA3D3E986
:10FCF000002316F03BF932463B4616F039F902462E
:10FD00000B4616F035F902460B4619A1D1E9000160
:10FD100016F02CF9BDE8F88F09F7FD0DE13D023F23
:10FD200088B20175E0EF493F3B8F68B52882A43F58
:10FD30005544880E55C1C93F7D6FEB0312D6D43FA1
:10FD4000555555555555C53F82922EB1C5B8B33F4F
:10FD500059018D1B6C06E63FC88A599CE52A004074
:10FD60004B2D8A1C273A0340075C143326A6913C8E
:10FD7000182D4454FB2109400000F03F0000E03FF3
:10FD8000434A91422DE9F84304460D4639DD414A84
:10FD9000914209DD02F17952914240DD02460B4663
:10FDA00016F0E6F8BDE8F88301F1404202F5801252
:10FDB000024330D0B1F1804F3ADC0022364B16F0CE
:10FDC000D5F802460B4604460D4616F0D1F82246F9
:10FDD00006460F462B462046294616F07BFA024679
:10FDE0000B463046394616F0C3F817F0AFFE0B4607
:10FDF00002462946204616F0BBF8BDE8F843FFF757
:10FE0000BFB802460B4616F0B1F802460B4616F094
:10FE10008BFBBDE8F88300200021BDE8F88300F0EB
:10FE200017FE19A3D3E9002316F0A2F8BDE8F88362
:10FE300002460B4616F04EFA0022174B16F096F8C3
:10FE400017F084FE2246804689462B4620462946E6
:10FE500016F08EF8424606460F464B462046294687
:10FE600016F086F802460B4600200B4916F05CFBA4
:10FE70000B4602463946304616F078F8BDE8F8439E
:10FE800000F0E6BDAFF30080EF39FAFE422EE63F08
:10FE9000FFFFEF3FFFFFAF410000F03F0000000019
:10FEA0002DE9F047BE4B21F00048984584B0044648
:10FEB0000D4612DD08F1404808F58018034658EA5F
:10FEC000030321D002460B4616F050F802460B46BB
:10FED00016F02AFB04B0BDE8F087B24B98458A467D
:10FEE00029DCB8F1795F80F2658191A3D3E9002321
:10FEF00016F03EF80022AC4B16F07CFCD8B1204640
:10FF0000294604B0BDE8F0878BA3D3E9002316F09F
:10FF1000E1F98BA3D3E9002306460F462046294684
:10FF200016F0D8F902460B463046394616F020F84E
:10FF300004B0BDE8F0872046294616F043FF02468C
:10FF40000B460020984916F011F80022974B16F046
:10FF5000C1F97DA3D3E9002304460D4616F0BAF992
:10FF60007BA3D3E9002316F003F822462B4616F0B4
:10FF7000B1F979A3D3E9002315F0F8FF22462B4607
:10FF800016F0A8F976A3D3E9002315F0F1FF224675
:10FF90002B4616F09FF974A3D3E9002315F0E6FF72
:10FFA00022462B4616F096F971A3D3E9002315F0EB
:10FFB000DFFF22462B4616F08DF96FA3D3E900230D
:10FFC000CDE900012046294616F084F96CA3D3E957
:10FFD000002315F0CBFF22462B4616F07BF96AA3CF
:10FFE000D3E9002315F0C4FF22462B4616F072F920
:10FFF00067A3D3E9002315F0B9FF22462B4616F07C
:020000040801F1
:1000000069F9694B002215F0B3FFCDE902012046E2
:10001000294617F09BFD664B984506460F4666DC61
:10002000DDE90223DDE9000116F07EFA3246CDE972
:1000300000013B463046394615F09AFF02460B4612
:10004000DDE9000116F046F94FF00008CDE90001A6
:1000500042463B464046394616F03CF902460B46BE
:100060002046294615F082FF424604460D463B468F
:100070003046394615F07CFF02460B46204629469D
:1000800016F052FA02460B4615F072FF02460B4676
:100090002BA1D1E9000115F069FF02460B46DDE90D
:1000A000000115F063FF424604460D463B464046BC
:1000B000394615F05DFF02460B4637A1D1E9000134
:1000C00015F054FF02460B462046294615F04EFF18
:1000D00002460B4630A1D1E9000115F047FFBAF105
:1000E000000F3FF7F7AE01F100431946F2E6DDE9F4
:1000F0000223DDE9000116F017FA32463B4616F0FE
:10010000E9F832463B4615F033FF02460B4615F040
:100110002FFF0BA3D3E9002315F028FF02460B465F
:1001200005A1D1E9000115F021FFD8E7AFF3008068
:100130009C7500883CE4377E182D4454FB21F93F20
:10014000075C143326A6913C09F7FD0DE13D023F03
:1001500088B20175E0EF493F3B8F68B52882A43F24
:100160005544880E55C1C93F7D6FEB0312D6D43F6D
:10017000555555555555C53F82922EB1C5B8B33F1B
:1001800059018D1B6C06E63FC88A599CE52A004040
:100190004B2D8A1C273A0340182D4454FB21E93F7C
:1001A000FFFFEF3FFFFFDF3F0000F03F0000E03FB9
:1001B0003233EF3F02460B4616F08CF837A3D3E9F3
:1001C000002306460F4616F085F836A3D3E9002330
:1001D00015F0CEFE32463B4616F07CF833A3D3E949
:1001E000002315F0C3FE32463B4616F073F831A3E8
:1001F000D3E9002315F0BCFE32463B4616F06AF800
:100200002EA3D3E9002315F0B1FE32463B4616F08B
:1002100061F82CA3D3E9002315F0AAFE32463B4631
:1002200016F058F829A3D3E90023804689463046C2
:10023000394616F04FF827A3D3E9002315F096FEB0
:1002400032463B4616F046F824A3D3E9002315F0C6
:100250008FFE32463B4616F03DF822A3D3E9002339
:1002600015F084FE32463B4616F034F800220A4B65
:1002700015F07EFE02460B464046494616F054F9FC
:1002800022462B4616F026F822462B4615F070FE25
:1002900004B0BDE8F08700BF0000F03F09F7FD0D96
:1002A000E13D023F88B20175E0EF493F3B8F68B501
:1002B0002882A43F5544880E55C1C93F7D6FEB038A
:1002C00012D6D43F555555555555C53F82922EB13E
:1002D000C5B8B33F59018D1B6C06E63FC88A599CCF
:1002E000E52A00404B2D8A1C273A034000000000FD
:1002F0002DE9F84F1D465342134325F0004ADFF81D
:10030000E0E14AEAD3737345144606460F4647D8E0
:10031000C0F1000848EA000821F0004343EAD87819
:10032000F0458B463CD805F1404808F5801858EA5E
:10033000020850D04FEAA57808F0020848EAD178C0
:1003400050EA030134D052EA0A023CD0F24557D0B9
:10035000734538D0A3EB0A031B153C2B42DC002D60
:1003600070DB22462B463046394616F0DDF816F093
:1003700029FDFEF751FBB8F1010F5FD0B8F1020F74
:100380004ED0B8F1000F62D043A3D3E9002315F09B
:10039000EDFD43A3D3E9002315F0E8FDBDE8F88F98
:1003A00032463B462046294615F0E2FDBDE8F88F6F
:1003B000B8F1020F1AD0B8F1030F10D13AA1D1E968
:1003C0000001BDE8F88FBBF1000F14DB38A1D1E9C3
:1003D0000001BDE8F88FBDE8F84FFEF71DBB3946B8
:1003E000BDE8F88F32A1D1E90001C4E72CA1D1E921
:1003F0000001BDE8F88F30A1D1E90001BDE8F88F18
:10040000534526D0B8F1020FF0D0B8F1030FD5D084
:10041000B8F1010F4FF0000029D00021BDE8F88F9E
:100420001DA3D3E9002315F0A1FD02460B461CA134
:10043000D1E9000115F09AFDBDE8F88F01F1004106
:10044000BDE8F88F3C338CDA0020002193E7BDE84B
:10045000F88FB8F1020F18D0B8F1030F10D0B8F12F
:10046000010F08D016A1D1E90001BDE8F88F4FF0C7
:100470000041BDE8F88F14A1D1E90001BDE8F88F73
:1004800013A1D1E90001BDE8F88F13A1D1E9000162
:10049000BDE8F88FAFF30080075C143326A6A13CBB
:1004A000182D4454FB210940182D4454FB2109C048
:1004B000182D4454FB21F93F182D4454FB21F9BF5A
:1004C000182D4454FB21E93F182D4454FB21E9BF6A
:1004D000D221337F7CD902C0D221337F7CD9024024
:1004E0000000F07F0000000043422DE9F047034385
:1004F00021F000463E4A46EAD373934204460D4635
:1005000013D896423DD03B4B9E428A4617DC36A319
:10051000D3E9002315F02CFD0022002316F06AF920
:10052000A8B320462946BDE8F08702460B4615F0E1
:100530001DFD02460B4615F0F7FFBDE8F0872E4B78
:100540009E42354624DD33460246314615F010FD05
:10055000224606460F462B460020254915F006FD8B
:1005600002460B463046394615F0DEFFFEF708FD21
:100570000022224B15F0AEFEBAF1000F2FDBBDE8D2
:10058000F0870022002315F0CFFFBDE8F087354645
:1005900022462B462046294615F0EAFC22462B46E9
:1005A00006460F4615F096FE2246804689462B46A3
:1005B00000200F4915F0DAFC02460B46404649463A
:1005C00015F0B2FF32463B4615F0D2FCFEF7D8FCE0
:1005D00000220A4B15F07EFEBAF1000FCFDA01F1CE
:1005E00000431946BDE8F0879C7500883CE4377EDF
:1005F0000000F03FFFFF2F3EFFFFDF3F0000E03F26
:100600002DE9F8434E4B21F000449C4206460F462C
:100610001BDC4C4B9C4222DD4B4B9C4263DD4B4B25
:100620009C427BDD4A4B9C4246DD01339C4240D0DC
:1006300041A3D3E900231046194615F04BFE0646A8
:100640000F4630463946BDE8F88302460B4615F0A2
:1006500041FE06460F4630463946BDE8F88316F09F
:10066000B1FB02F0B1FC00223A4B8046894615F0FE
:100670007FFCB4F1725F06460F46ECDB42464B4608
:100680004046494615F026FE32463B4604460D4696
:100690003046394615F06CFC02460B46204629468A
:1006A00015F042FF00222B4B15F062FC06460F4668
:1006B000D1E7294B9842BBD83046394616F082FB29
:1006C0000022264B15F006FE00F04AF800220446F0
:1006D0000D46224B15F0FEFD22462B4615F0FAFD85
:1006E00006460F46B7E716F06DFB00F039F800221A
:1006F0001A4B06460F4615F0EDFD32463B460446C2
:100700000D460020154915F00FFF02460B46204606
:10071000294615F02DFC06460F469CE716F052FBC5
:1007200000F01EF800220D4B15F0D4FD06460F46D2
:1007300091E700BFAFF300809C7500883CE4377EF2
:10074000FFFFEF7F422ED63FFFFF3540412E864010
:10075000CD3386400000F03F7DF8B98F0000E03FC8
:100760002DE9F04FB04E21F00042B24283B0044672
:100770000D464FEAD1770DD9AC4EB24225D9C1F31F
:100780001303034340F0EC800FB10020002103B0BD
:10079000BDE8F08FA64B9A4200F2CB80A54B9A425F
:1007A00000F2DC808AA3D3E9002315F0E1FB0022EC
:1007B000A14B16F01FF8002800F0068120462946BC
:1007C00000229D4B15F0D4FBE1E783A3D3E900237E
:1007D00016F010F8002840F0C88081A3D3E9002368
:1007E0002046294615F0E8FF0028CED1934E7EA37F
:1007F000D3E9002306EBC7062046294615F06AFD1B
:10080000D6E9002315F0B4FB16F014F8064615F0EF
:10081000FBFC77A3D3E900238046894615F05AFDF7
:1008200002460B462046294615F0A0FB72A3D3E9E9
:100830000023CDE900014046494615F04BFD8246B4
:100840008B4652465B46DDE9000115F08FFB0446FE
:100850000D4622462B462046294615F03BFD68A34F
:10086000D3E900238046894615F034FD66A3D3E919
:10087000002315F07BFB42464B4615F02BFD64A38D
:10088000D3E9002315F074FB42464B4615F022FDD8
:1008900061A3D3E9002315F069FB42464B4615F0EE
:1008A00019FD5FA3D3E9002315F062FB42464B46D6
:1008B00015F010FD02460B462046294615F056FB62
:1008C00080468946002E58D02046294642464B464F
:1008D00015F000FD424604460D464B4600204FF001
:1008E000804115F043FB02460B462046294615F091
:1008F0001BFE02460B465046594615F037FBDDE914
:10090000002315F033FB0B4602464B49002015F03F
:100910002DFB6FF47F739E4251DA06F57A7601EB78
:10092000065100224FF0B87315F0D4FC03B0BDE8B7
:10093000F08F434B9A423FF659AF424BFC002344A1
:10094000D3E9002315F012FB3F4BC7F10106234406
:10095000CDE90001D3E900ABF61B72E7002678E78A
:1009600002460B4615F004FB11E719A3D3E9002357
:100970001046194615F0AEFC09E702460B46204624
:10098000294615F0A7FC002206460F464FF080438B
:100990004046494615F0EAFA02460B4630463946CB
:1009A00015F0C2FD22462B4615F0E0FA02460B4632
:1009B0000020214915F0DAFA03B0BDE8F08F01EB11
:1009C000065103B0BDE8F08F064642E7AFF3008062
:1009D0009C7500883CE4377EEF39FAFE422E864053
:1009E00051302DD5104987C0FE822B654715F73F42
:1009F0000000E0FE422EE63F763C7935EF39EA3DD5
:100A0000D0A4BE726937663EF16BD2C541BDBB3E14
:100A10002CDE25AF6A56113F93BDBE166CC1663FF2
:100A20003E5555555555C53F412E8640FFFFEF7F3A
:100A3000422ED63FFFFF2F3E0000F03F38980208BD
:100A4000B1A2F03F48980208589802080000000040
:100A50002DE9F04FB1F5801F85B006460F460B46D5
:100A60005ADA024621F00044224300F0F8800029BF
:100A7000C0F27A810022D64B15F02CFCD54A0B46E9
:100A8000934206460F466FF0350C4ADCC3F313055C
:100A900005F5152E0EF6647E0EF4801E8EF07F5244
:100AA00082F440121C1542EA0507A4F2FF346444A4
:100AB0000022C94B3046394604EB1E5415F056FA55
:100AC000AB1CC3F31303022B82468B464FF000028C
:100AD00030DC002315F066FE002800F0C980002CF1
:100AE00000F04B81204615F08FFBA5A3D3E900232E
:100AF00006460F4615F0EEFBA3A3D3E900230446F8
:100B00000D463046394615F0E5FB02460B462046B9
:100B1000294615F02DFA0AE0AE4A93424FF0000C38
:100B2000B4DD32463B463046394615F021FA05B071
:100B3000BDE8F08F4FF0804315F01AFA02460B46DD
:100B40005046594615F0F0FC064620460F4615F073
:100B50005BFB3246CDE900013B4630463946CDE9E4
:100B6000026715F0B7FB02460B468046894615F032
:100B7000B1FB87A3D3E9002306460F4615F0AAFB75
:100B800085A3D3E9002315F0F3F932463B4615F06F
:100B9000A1FB83A3D3E9002315F0EAF932463B46D3
:100BA00015F098FB80A3D3E9002315F0E1F9424644
:100BB0004B4615F08FFB7EA3D3E900238046894680
:100BC0003046394615F086FB7BA3D3E9002315F0A8
:100BD000CFF932463B4615F07DFB79A3D3E90023DC
:100BE00015F0C6F932463B4615F074FB0B4602463B
:100BF0004946404615F0BCF9A5F5C223C5F5D725F1
:100C0000A3F27A4351351D43002D8046894656DDB7
:100C10000022724B5046594615F05CFB52465B462B
:100C200015F058FB06460F46002C68D132463B466D
:100C30004046494615F09CF9DDE9022315F04AFBD0
:100C400002460B463046394615F090F902460B46EF
:100C50005046594615F08AF905B0BDE8F08F0022DC
:100C6000002300205E4915F05FFC05B0BDE8F08F61
:100C700055A3D3E900235046594615F02BFB0246F5
:100C80000B460020554915F071F9524606460F46AD
:100C90005B465046594615F01DFB02460B46304652
:100CA000394615F017FB06460F46002C40F09A8097
:100CB00002460B465046594615F058F937E7002CC6
:100CC00000F0A4802EA3D3E90023DDE9000115F094
:100CD00001FB42464B4604460D465046594615F028
:100CE00045F9DDE9022315F0F5FA27A3D3E900233E
:100CF00006460F46DDE9000115F0ECFA21E020A3DD
:100D0000D3E90023DDE9000115F0E4FA32463B4661
:100D100004460D464046494615F02AF9DDE902230E
:100D200015F0D8FA18A3D3E9002380468946DDE9F7
:100D3000000115F0CFFA02460B464046494615F031
:100D400017F902460B463046394615F00FF9524660
:100D50005B4615F00BF902460B462046294615F076
:100D600005F905B0BDE8F08F02460B4615F0FEF818
:100D70000022002315F0D8FBD9E600200021D6E69A
:100D80000000E0FE422EE63F763C7935EF39EA3D41
:100D900044523EDF12F1C23FDE03CB966446C73FAA
:100DA000599322942449D23F935555555555E53FC3
:100DB0009FC678D0099AC33FAF788E1DC571CC3FCE
:100DC00004FA97999999D93F555555555555D53F99
:100DD00000005043FFFFEF7F0000F03F0000E03FC6
:100DE000000050C3204615F00FFA0FA3D3E90023EB
:100DF0008046894615F06EFA0DA3D3E90023044618
:100E00000D464046494615F065FA9AE702460B46FC
:100E10005046594615F0AAF8DDE9022315F05AFAB2
:100E200014E700BFAFF300800000E0FE422EE63F73
:100E3000763C7935EF39EA3DB1F5801F2DE9F8436D
:100E400004460D460B461ADA024621F000463243AC
:100E500059D000295FDB00223B4B15F03BFA3B4A9F
:100E60000D462B46934204466FF035010CDD2246B9
:100E70002B462046294615F07BF8BDE8F883334A17
:100E800093424FF00001F2DC1815A0F2FF30084445
:100E90004FEAD0794844C3F3130815F0B5F9C9F502
:100EA0007F73033348EA035506460F46204629461A
:100EB000FFF7CEFD1EA3D3E90023804689463046C6
:100EC000394615F007FA1CA3D3E9002304460D4662
:100ED0004046494615F0FEF902460B462046294693
:100EE00015F046F816A3D3E9002304460D46304614
:100EF000394615F0EFF902460B462046294615F013
:100F000037F8BDE8F883002200230020104915F0CF
:100F10000BFBBDE8F88302460B4615F027F80022CC
:100F2000002315F001FBBDE8F88300BFAFF300809C
:100F3000362BF111F3FE593D0EE526157BCBDB3F39
:100F400000609F501344D33F00005043FFFFEF7FEA
:100F5000000050C3000000002DE9F04F23F00047CF
:100F600057EA020493B037D0674C21F00046A642FE
:100F700083460D4629DC9A46964625D0A74224DCB6
:100F8000614CA74279D0002D80468946CDE90023E7
:100F900077DB0024BEF1000F2CD15B4B9F4200F0A9
:100FA0008B805A4B9F4261D0BAF1804F00F0C383CF
:100FB000574B9A451ED1002D1CDB4046494613B0C5
:100FC000BDE8F04F16F0C2BD58B106F1404606F537
:100FD000801656EA0B0306D14C49002013B0BDE839
:100FE000F08FB742CCDD4B4813B0BDE8F04F17F09F
:100FF0003DBC00244046494615F0E4FEBBF1000F1D
:1010000019D126B1414B25F040429A4213D1BAF191
:10101000000FC0F2CA83002DE0DA06F1404606F563
:10102000801656EA040300F0A584012CD6D101F104
:1010300000431946D2E7ED0F013D54EA05034ED0B7
:10104000354B9F426EDD03F104739F4240F3FE83F4
:10105000324B9E424EDDBAF1000F4EDD28A3D3E99C
:1010600000231046194615F035F9B7E7BAF1000F1D
:10107000C0F2528440464946B0E7BEF1000F82D02C
:10108000A3E7274B9F4228DCA3F154739F4280DDE6
:101090003B15A3F2FF33142B40F35484C3F1340304
:1010A0002EFA03F202FA03F39E457FF472AF02F0C8
:1010B0000102C2F102046DE706F1404303F580131B
:1010C00053EA0B0388D0154B9E4240F33B83BAF1A1
:1010D000000F12DBDDE9000180E702245AE74246F7
:1010E0004B461046194614F041FF02460B4615F0D8
:1010F0001BFA73E7BAF1000FB0DB002000216DE7A7
:101100009C7500883CE4377E0000F07F0000F03FD3
:101110000000E03F9CAB02080000E041FFFFEF3F12
:10112000FFFF3F43B6F5801F4FF0000205DAD84BB2
:1011300015F0D0F86FF034020E463315D54FC6F3D4
:101140001306A3F2FF33134446F07F5ABE421A46F9
:101150000D934AF4401A40F32F83CF4B9E4240F345
:101160000D849FEDB57B8DED087B8DED0E7B9FEDA6
:10117000B47B13468DED067B01330D93AAF5801ADF
:101180000027DDE906235146CDE90A0114F0EEFE01
:10119000DDE9062380468946DDE90A0114F0E8FE10
:1011A00002460B460020BD4915F0BEF90A4601462D
:1011B000CDE91012134649460246404615F08AF81A
:1011C0004FEA6A0343F000538C46834603F500233D
:1011D000CDE904BCDA468B46D9190023CDE902AB30
:1011E0000293DDE902AB002006460F4602460B469D
:1011F0005046594615F06EF802460B4640464946A1
:1012000014F0B4FEDDE906238046894630463946AF
:1012100014F0ACFE02460B46DDE90A0114F0A6FE0E
:1012200052465B4615F056F802460B464046494684
:1012300014F09CFEDDE9102315F04CF8DDE904679D
:10124000CDE9060132463B463046394615F042F8B4
:101250007DA3D3E9002306460F4615F03BF87CA397
:10126000D3E9002314F084FE32463B4615F032F8F1
:1012700079A3D3E9002314F07BFE32463B4615F0F8
:1012800029F877A3D3E9002314F072FE32463B46D7
:1012900015F020F874A3D3E9002314F069FE324658
:1012A0003B4615F017F872A3D3E9002314F060FE53
:1012B0003246804689463B463046394615F00AF8A4
:1012C00002460B464046494615F004F8524606468B
:1012D0000F465B46DDE9040114F04AFEDDE9062312
:1012E00014F0F8FF32463B4614F042FE5246804668
:1012F00089465B465046594614F0ECFF0022684B85
:10130000CDE90A0114F034FE42464B4614F030FE9B
:1013100002980F46064632463B465046594614F060
:10132000D9FF002282468B465D4B3046394614F089
:101330001DFEDDE90A2314F019FE02460B46404665
:10134000494614F013FEDDE9042314F0C3FF3246CE
:10135000804689463B46DDE9060114F0BBFF0246A4
:101360000B464046494614F003FE80468946024635
:101370000B4650465946CDE904AB14F0F9FDDDE9C2
:1013800002AB3DA3D3E9002350460F4614F0A2FF61
:10139000DDE90423CDE902013946504614F0E6FDAB
:1013A00002460B464046494614F0E0FD34A3D3E91B
:1013B000002314F08FFF34A3D3E90023804689462D
:1013C0005046394614F086FF02460B4640464946D1
:1013D00014F0CEFDDDE90E2314F0CAFD80460D9811
:1013E000894614F011FF424606460F464B46DDE99A
:1013F000020114F0BDFDDDE9082314F0B9FD324609
:101400003B4614F0B5FD32463B4650468B4614F041
:10141000ADFDDDE9082314F0A9FDDDE9022314F098
:10142000A5FD02460B464046494614F09FFD804606
:10143000894637E0AFF300800000000000000000A4
:10144000000000000000F03FEF4E454A287ECA3FF2
:1014500065DBC9934A86CD3F01411DA96074D13F28
:101460004D268F515555D53FFFAB6FDBB66DDB3F3A
:10147000033333333333E33F000000E009C7EE3F6B
:10148000FD033ADC09C7EE3FF5015B14E02F3EBED9
:10149000000040438E98030079B60B000000F03F37
:1014A00000000840013C54EA050300F079819FEDFB
:1014B000C87B8DED047BDDE900120B461446CDE9B7
:1014C000023400230293DDE9024508462B4611460B
:1014D000224614F04BFD52465B4614F0FBFEDDE95C
:1014E000002306460F464046494614F0F3FE0246E6
:1014F0000B463046394614F03BFD2246804689466D
:101500002B4650465946CDE9008914F0E3FE0B46C0
:10151000024606460F464046494614F029FDC64B92
:10152000994204460D468A4640F3168101F13F4335
:1015300003F5E003034340F0F781A7A3D3E90023B9
:10154000DDE9000114F014FD3246804689463B4631
:101550002046294614F00AFD02460B4640464946FD
:1015600015F048F9002840F0DF81A8464FEA2853DB
:101570004FF48012A3F2FE3342FA03F35344C3F351
:101580000A52AE4DA2F2FF321541C3F3130423EA0F
:1015900005010020C2F1140B44F48014BAF1000FCD
:1015A00002460B4644FA0BFB30463946B8BFCBF136
:1015B000000B14F0DBFC02460B4606460F46DDE945
:1015C000000114F0D5FC4FEA0B5A0D46002484A309
:1015D000D3E900232046294614F07CFE324680469B
:1015E00089463B462046294614F0C0FC02460B467D
:1015F000DDE9000114F0BAFC7BA3D3E9002314F069
:1016000069FE7BA3D3E9002306460F462046294600
:1016100014F060FE02460B463046394614F0A8FC32
:1016200006460F4602460B464046494614F0A0FCCB
:1016300042464B4604460D4614F098FC02460B46C3
:101640003046394614F092FC2246804689462B46A5
:101650002046294614F03EFE67A3D3E90023064640
:101660000F4614F037FE66A3D3E9002314F07EFC86
:1016700032463B4614F02EFE63A3D3E9002314F058
:1016800077FC32463B4614F025FE61A3D3E90023E4
:1016900014F06CFC32463B4614F01CFE5EA3D3E90A
:1016A000002314F065FC32463B4614F013FE02465C
:1016B0000B462046294614F059FC06460F460246C2
:1016C0000B462046294614F005FE0022CDE9000114
:1016D0004FF080433046394614F048FC02460B4632
:1016E000DDE9000114F020FF424606460F464B4656
:1016F0002046294614F0EEFD42464B4614F038FCD5
:1017000002460B463046394614F030FC22462B4642
:1017100014F02CFC02460B460020494914F026FC2C
:101720008A44BAF5801FC0F239815146DDE90423AD
:1017300014F0D0FD52E442464B464046494614F070
:10174000C9FD4BE4BAF1000FBFF6D7ACDDE90034B8
:10175000184604F1004141E43A4B21F00048984515
:1017600040F3FF80384B0B4403430CD132463B46D9
:1017700014F0FCFB02460B46DDE9000115F026F8EB
:1017800000283FF4F3AEDDE9040125A3D3E90023EB
:1017900014F0A0FD22A3D3E9002314F09BFD1DE467
:1017A0009FED217B8DED047B85E602460B460020F4
:1017B000234914F0B9FE2EE49FED1D7B8DED087BCF
:1017C0008DED0E7B9FED027B00278DED067BD8E42F
:1017D000000000000000F03FFE822B654715973C9B
:1017E00000000000432EE63FEF39FAFE422EE63FAE
:1017F000396CA80C615C20BED0A4BE726937663E0D
:10180000F16BD2C541BDBB3E2CDE25AF6A56113F00
:1018100093BDBE166CC1663F3E5555555555C53FE7
:1018200059F3F8C21F6EA501000000000000F0BFD0
:101830000000000000000000FFFF8F40FFFF0F00CE
:101840000000F03FFFCB904000346F3F684B9E425A
:101850007FF750AC674B9E423FF7FDAB0022654BD4
:1018600014F084FB52A3D3E9002306460F4614F07C
:1018700031FD51A3D3E900238046894630463946DD
:1018800014F028FD002282468B465B4B30463946D9
:1018900014F020FD02460B4649A1D1E9000114F0E5
:1018A00065FB32463B4614F015FD02460B46002010
:1018B000524914F05BFB3246CDE902013B4630460B
:1018C000394614F007FD02460B46DDE9020114F02B
:1018D00001FD3DA3D3E9002314F0FCFC02460B46B6
:1018E0005046594614F042FB02460B4606460F4648
:1018F0004046494614F03CFB42464B460020824697
:101900008B4614F033FB02460B463046394614F042
:101910002DFB80468946C5E542464B4600203549A9
:1019200014F002FEFFF75ABBDDE9040128A3D3E956
:10193000002314F0CFFC26A3D3E9002314F0CAFC43
:10194000FFF74CBBBEF1000F7FF453ABC3F11403A0
:1019500047FA03F202FA03F39F4223D07446FFF7DB
:1019600020BB264B98453FF701AEDDE902239246A6
:1019700093462BE602460B46FFF7B3BB9FED167B63
:101980008DED087B9FED167B8DED0E7B9FED167B1D
:101990004FF480278DED067BFFF7F3BB5A4601F02D
:1019A0004FFDC3E602F00102C2F10204FFF7F9BAEB
:1019B000000000604715F73F44DF5DF80BAE543E72
:1019C000555555555555D53FFE822B654715F73F63
:1019D0009C7500883CE4377E0000004003B8E23F7D
:1019E00006D0CF43EBFD4C3E000000000000F83F66
:1019F000FEFFEF3F0000F03F0000D03F0000E03F5F
:101A00002DE9F0479C4B21F000479F4290B0804663
:101A1000894640F38E80994B9F420C46924626DCC5
:101A200000298BA3D3E9002340F3B08114F09EFA80
:101A3000934B9F4204460D4600F0908086A3D3E965
:101A4000002314F093FA02460B46CAE9002320460D
:101A5000294614F08BFA80A3D3E9002314F086FA08
:101A60000125CAE90201284610B0BDE8F087854B80
:101A70009F4240F39080844B9F4265DC3D15A5F268
:101A80001645A7EB055319461F46064614F0D2FE2D
:101A900014F0BAFB8046894642464B4630463946EA
:101AA000CDE90A8914F062FA0022784B14F012FC96
:101AB0008946804614F0BEFE14F0A6FB06460F468B
:101AC00032463B4640464946CDE90C6714F04EFA93
:101AD00000226E4B14F0FEFB00220023CDE90E0124
:101AE00014F060FE002800F06F8100233046394674
:101AF000002214F057FE002814BF01230223644A79
:101B0000019202212A4600910AA8514600F08CFB5E
:101B1000002C054614DADAF80420DAF80C3002F169
:101B2000004203F100434542CAF80420CAF80C30D1
:101B300006E000200021C2E90089C2E90201002577
:101B4000284610B0BDE8F08702460B4614F00EFAA6
:101B50000025CAE90201CAE90001F1E740A3D3E97F
:101B6000002314F003FA40A3D3E900230D460446F2
:101B700014F0FCF902460B46CAE900232946204628
:101B800014F0F4F938A3D3E9002314F0EFF9012598
:101B9000CAE90201D4E715F015F935A3D3E900230A
:101BA0008046894614F096FB00223A4B14F0E0F987
:101BB00014F040FE054614F027FB25A3D3E90023CB
:101BC000CDE9060114F086FB02460B464046494625
:101BD00014F0CCF920A3D3E90023CDE90201DDE91B
:101BE000060114F077FB1F2D80468946CDE9048954
:101BF00054DC294B6A1E53F822309F424ED00246D5
:101C00000B46DDE9020114F0B1F980468946CAE9C4
:101C1000008942464B46DDE9020114F0A7F9DDE9EF
:101C2000042314F0A3F9002CCAE9020188DA09F1AF
:101C3000004401F100436D42CAF80080CAF8044034
:101C4000CAF80800CAF80C307AE700BFAFF300808A
:101C500000004054FB21F93F3163621A61B4D03D6A
:101C60000000601A61B4D03D7370032E8A19A33B43
:101C700083C8C96D305FE43FFB21E93F7BD9024057
:101C8000FB21F93FFB213941FFFFEF7F000070414D
:101C9000F4AD02080000E03F74AD0208DDE9042362
:101CA000DDE9020114F062F93F15C1F30A53FB1A92
:101CB00080468946102BCAE90089AADD58A3D3E9DA
:101CC0000023DDE9060114F005FB80468946024643
:101CD0000B46DDE9020114F049F902460B46DDE945
:101CE0000201CDE9082314F041F942464B4614F0B5
:101CF0003DF94DA3D3E9002380468946DDE906017D
:101D000014F0E8FA42464B4614F030F90B46CDE9A0
:101D100004010246DDE9080114F028F9C1F30A5371
:101D2000FF1A80468946312FCAE900896CDD41A33C
:101D3000D3E90023DDE9060114F0CCFADDE90889D6
:101D400006460F4602460B464046494614F00EF939
:101D500002460B4640464946CDE9022314F006F9F7
:101D600032463B4614F002F934A3D3E90023064679
:101D70000F46DDE9060114F0ADFA32463B4614F099
:101D8000F5F802460B46CDE904233AE714F0F0F8E3
:101D9000274B9F4204460D4618D01FA3D3E90023CA
:101DA00014F0E6F802460B46CAE90023294620460D
:101DB00014F0DCF818A3D3E9002314F0D9F84FF09D
:101DC000FF35CAE90201BBE6032398E614A3D3E971
:101DD000002314F0CDF814A3D3E900230D460446E4
:101DE00014F0C6F802460B46CAE9002329462046ED
:101DF00014F0BCF80CA3D3E9002314F0B9F84FF0A9
:101E0000FF35CAE902019BE69DED087B8DED027B63
:101E1000FFE600BFAFF300803163621A61B4D03DCA
:101E20000000601A61B4D03D7370032E8A19A33B81
:101E3000FB21F93F0000002E8A19A33BC149202550
:101E40009A837B3900000000594A2DE9F84F21F0B0
:101E50000048904506460F462BDC564B0029B4BF80
:101E6000554D564D98454FF0000410DC544B9845A5
:101E700070DC4DA3D3E9002314F07AF80022514B13
:101E800014F0B8FCD8B130463946BDE8F88F4E4B57
:101E900098457CDD4D4B984544DD013398453ED057
:101EA0003046394640A3D3E9002314F013FABDE8C5
:101EB000F88F02460B4614F05BF8BDE8F88F304609
:101EC000394614F07FFF01F07FF806460F46324690
:101ED0003B463046394614F04BF8324682468B4634
:101EE0003B463046394614F0F5F9002280468946D3
:101EF000344B3046394614F03BF802460B46404618
:101F0000494614F011FB02460B465046594614F060
:101F10002DF822462B4614F0DDF9BDE8F88F2C4B46
:101F20009842BDD83046394614F04CFF0022234B6E
:101F300014F0D0F9FEF714FC06460F4602460B4695
:101F40002046294614F0C6F932463B4614F0C2F941
:101F5000BDE8F88F14F036FF01F036F81D4B9845B8
:101F600006460F46B3DD0022164B14F001F8024678
:101F70000B463046394614F0D7FA32463B4613F04A
:101F8000F7FF22462B4614F0A5F9BDE8F88F14F0B0
:101F900019FFFEF7E5FB02460B462046294614F0E2
:101FA00099F9BDE8F88F00BF3374AC3C1F7BAC7F60
:101FB000FFFFEF7FFFFF35400000E0BF0000E03F84
:101FC000FFFF2F3E0000F03F412E8640CD3386407C
:101FD0007DF8B98FFFFFEF3F2DE9F04F21F000486A
:101FE000B8F1795F85B006460F4692469B466BDA9C
:101FF00014F020FC002800F0EA8032463B463046D0
:10200000394614F067F974A3D3E9002304460D465A
:1020100014F060F972A3D3E9002313F0A9FF22465C
:102020002B4614F057F970A3D3E9002313F09EFF59
:1020300022462B4614F04EF96DA3D3E9002313F08A
:1020400097FF22462B4614F045F96BA3D3E90023F2
:1020500013F08CFF22462B4614F03CF968A3D3E919
:10206000002313F085FF22462B4614F033F9CDE907
:1020700000010022664B2046294614F02BF9DDE9C9
:102080000023804689462046294614F023F952460B
:1020900004460D465B463046394614F01BF90246AD
:1020A0000B462046294613F061FF02460B46404688
:1020B000494613F05BFF02460B460020554913F0DA
:1020C00055FF05B0BDE8F08F02460B4614F002F94B
:1020D00041A3D3E9002304460D4614F0FBF840A3C6
:1020E000D3E9002313F044FF22462B4614F0F2F804
:1020F0003DA3D3E9002313F039FF22462B4614F009
:10210000E9F83BA3D3E9002313F032FF22462B4624
:1021100014F0E0F838A3D3E9002313F027FF224698
:102120002B4614F0D7F836A3D3E9002313F020FF91
:102130002B46224614F0CEF8374B9845CDE90001E6
:1021400097DD364B984539DCA8F5001300220020B6
:1021500030499046994613F009FFCDE9020100226B
:102160002B4B2046294614F0B5F842464B4613F057
:10217000FDFEDDE90023804689462046294614F00D
:10218000A9F8524604460D465B463046394614F0DF
:10219000A1F802460B462046294613F0E7FE024608
:1021A0000B464046494613F0E1FE02460B46DDE988
:1021B000020113F0DBFE05B0BDE8F08F9FED127B4E
:1021C0004FF000088DED027BDFF85490C7E711490E
:1021D000002005B0BDE8F08FD43888BEE9FAA8BD6C
:1021E000C4B1B4BD9EEE213EAD529C804F7E923E66
:1021F0009015CB19A001FA3E7751C1166CC1563F1C
:102200004C5555555555A53F000000000000E73FCF
:102210000000E03F0000F03F3233D33F0000E93FD1
:102220000000D23F000000002DE9F04FADF51B7D0E
:102230009F4CA49E9F4D54F8264007942646D41EDA
:1022400085FB0475E417C4EBA50424EAE4741D4679
:102250000A93631CA3EB8303013D02EBC3030693C4
:102260002B460B940395651BF418049008911AD41F
:102270002C440026002701340DF18808DDF89492E3
:1022800008E059F8250013F0BFFF0135A542E8E842
:10229000020108D0002DF4DA013530463946A54256
:1022A000E8E80201F6D1079B002BC0F2DF83079B11
:1022B00003F1010B0A9B22A9DB001A4601EB03097B
:1022C0000093049B0DF5E47A19460AEBCB0B01EB66
:1022D0000208039B002BC0F2F582049C4D460026A9
:1022E000002775E90223F4E8020113F0F3FF024628
:1022F0000B463046394613F03BFE444506460F4632
:10230000EFD1EAE80267DA4509F10809E1D1079956
:102310000098049C009101F18043013B9B00204404
:102320001A1F83460EA8024403440C920D93009A90
:102330009AA901EBC203002A53E9284529DD0DF5CE
:10234000E47A0AEBC2080DF1340900225A4B204608
:10235000294613F0BFFF14F06DFA13F055FF002269
:10236000564B06460F4613F0B5FF02460B46204675
:10237000294613F0FBFD14F05DFA78E9022349F8D1
:10238000040F3946304613F0F3FDD04504460D46A0
:10239000DBD1DDF81890204629464A4601F050F876
:1023A00000224FF07F5304460D4613F093FFFCF7D5
:1023B0005FFD0022424B13F08DFF02460B46204684
:1023C000294613F0D3FD0D46044614F033FA804637
:1023D00013F01AFF0B4602462946204613F0C6FDAD
:1023E0004B46002B06460F4640F3F980009A0EA993
:1023F000013AC9F1180351F8225045FA03F101FAE4
:1024000003F30EA8EB1A40F82230C9F117058844EF
:1024100043FA05F5002D6DDD009B002B08F1010846
:1024200040F36F820E9C002C40F01683009B012B22
:1024300040F38F820EAA012352F8044F002C00F0C3
:102440008382581C0EAAC4F1807442F82340009A7B
:10245000824219DD0EAA0EAC52F820106FF07F42B6
:10246000511A44F820100099023399420CDD1046AD
:10247000009A0EA901EB830301EB82011A68821A0C
:1024800043F8042B8B42F9D1069B002B1ADD069BE7
:10249000012B4FF0010440F03C82009B5A1E0EAB12
:1024A0000EA953F82230C3F3160341F822303CE260
:1024B00094B20208ABAAAA2A0000703E0000704144
:1024C00000002040022D15D132463B4600209249A3
:1024D00013F04CFD06460F46069A8F49002000F087
:1024E000AFFF02460B463046394613F03FFD02254A
:1024F00006460F46002200233046394614F052F9B2
:10250000002800F03782009A079B501E83420FDCA0
:1025100002F18043013B0EAA0D9C02EB83030022D3
:1025200053F80419A34242EA0102F9D1002A67D103
:10253000079B0EAA013B52F82330002B40F0188273
:102540000C9A012352F8041901330029FAD0009A99
:10255000D31802F1010A9A4509933DDC009B0A99C0
:102560000B9A0B4409990AEB0208994622AB08F131
:10257000804803EBC9098B18A59A08F1FF3802EBD4
:10258000880872AA02EBCA0AA59A02EB8303009399
:1025900058F8040F13F038FE039B002BE9E8020102
:1025A0004FF000064FF0000711DB049C4D4675E923
:1025B0000223F4E8020113F08DFE02460B4630467A
:1025C000394613F0D5FC5C4506460F46EFD1009B1B
:1025D0009845EAE80267DBD1099B0093A7E606D19C
:1025E000009B0EAA013B52F82350ED1512E7002282
:1025F0004A4B14F0F5F8002840F06E81054679E763
:102600000EA9039551F820300699CDF82480183989
:102610000246009006916BB900F18043013B0EA881
:1026200000EB830353F80409013A18390028F9D064
:1026300000920691069A3849002000F001FF009BA5
:10264000002B04460D46C0F2F781DA0072A901EBB7
:10265000020B06920EAA02EB8306DFF8C4904FF03D
:1026600000080BF10807043656F8040D13F0CCFDF2
:1026700022462B4613F02EFE4B4667E902014246E6
:102680002046294613F026FE0EAB9E4204460D4618
:10269000EAD14AACDDF81C9004944FF0000AB9F17D
:1026A000000FC0F22B81DFF87C805D4618A1D1E9D4
:1026B000000100260027002403E0544510DCF8E860
:1026C0000201F5E8022313F005FE02460B463046F0
:1026D000394613F04DFC0134A14506460F46ECDAAD
:1026E000049B03EBCA03ABF1080BC3E9006770ABB3
:1026F0009B450AF1010AD2D1A49B049C032B00F252
:102700008980DFE803F0C58E8E1100BFAFF3008033
:1027100000000040FB21F93F0000F03F0000E03FD7
:102720000000703E80980208009B002B40F38181DE
:10273000069A04EB020ADAE9008902F10805254449
:102740000DF5987B1AED027B42464B4651EC170B78
:102750008DED047B13F00CFC06460F4602460B463B
:10276000DDE9040113F002FC42464B4613F000FC85
:1027700065E902015D45B046B9466AE90267E1D103
:10278000009B012B40F35581069BE518D5E9008994
:1027900003F1080B04EB0B0A15ED027B42464B4696
:1027A00051EC170B8DED007B13F0E2FB06460F4654
:1027B00002460B46DDE9000113F0D8FB4B464246CA
:1027C00013F0D6FB6AE902014EAB5345B046B94659
:1027D00065E90267E0D10020002104EB0B0575E9F3
:1027E000022313F0C5FBAA45F9D1039B002B00F08F
:1027F0000A816268E368089F2568A4683D6002F169
:10280000004203F1004301F100417A60FB60BC60CB
:1028100038617961099B03F007000DF51B7DBDE868
:10282000F08F069D083525440020002175E902231C
:1028300013F09EFBA542F9D1039B002B00F0D28040
:10284000089E024601F1004386E80C000B46024652
:10285000D4E9000113F08AFB009B002B0BDD4CAD8B
:102860000124F5E8022313F083FB009B0134A3420B
:10287000F7DA039B13B101F100431946089BC3E942
:102880000201099B03F007000DF51B7DBDE8F08FE9
:10289000069D083500200021254475E9022313F028
:1028A00067FBAC42F9D1039B13B101F10043194618
:1028B000089BC3E90001099B03F007000DF51B7D90
:1028C000BDE8F08F00260027EAE80267DA4509F143
:1028D00008097FF4FEAC1AE5009B002B08F1010803
:1028E000C8BF02253FF79EAD32463B4600206149F6
:1028F00013F03CFB022506460F46FBE500260027A9
:10290000EEE6069B002B27DD0024069B012B3FF4FF
:10291000C4AD022B09D1009B5A1E0EAB0EA953F871
:102920002230C3F3150341F82230022D7FF4E2ADCB
:1029300032463B4600204F4913F018FB06460F462F
:10294000002C3FF4D7ADC7E50099013399427FF4DD
:1029500073AD069B002BD8DC022D7FF4CBAD324645
:102960003B460020434913F001FB06460F46C1E5F4
:102970000123ECE53946069F03957A423046CDF8AF
:10298000248000F05DFD00223B4B04460D4613F011
:1029900027FF002843D00022384B2046294613F059
:1029A00099FC13F047FF064613F02EFC0022324B31
:1029B00013F090FC02460B462046294613F0D6FA47
:1029C00013F038FF00990B4601331A4600933B463B
:1029D000183306930B460EA941F82300134641F81D
:1029E000236027E6089B0246C3E900010B46D4E9B1
:1029F000000113F0BBFA009B002B3FF730AF089BA0
:102A0000C3E902013DE7D4E90067D4E90223089D48
:102A1000C5E90401C5E90067C5E90223FAE62946CC
:102A2000204613F007FF009A0EA941F8220001E6A4
:102A30004AAC00200021D8E6A49B032B3FF6EAAE67
:102A400001A252F823F000BF672A01085F2A01089B
:102A50005F2A0108312A010801200023F2E4002046
:102A600000214AACE8E6002000211CE70A9BDB00BD
:102A700000934CE40000F03F000070410000703E05
:102A80002DE9F04F21F00046B6F1795F85B004469C
:102A90000D469046994604DA13F0CCFE002800F06B
:102AA000858022462B462046294613F013FC064615
:102AB0000F4602460B462046294613F00BFC41A365
:102AC000D3E9002382468B463046394613F002FC98
:102AD0003EA3D3E9002313F049FA32463B4613F0F4
:102AE000F9FB3CA3D3E9002313F042FA32463B46FC
:102AF00013F0F0FB39A3D3E9002313F037FA324681
:102B00003B4613F0E7FB37A3D3E9002313F030FA79
:102B10000E9BCDE900019BB30022294B404649465C
:102B200013F0D8FBDDE90023CDE9020150465946F8
:102B300013F0D0FB02460B46DDE9020113F016FA52
:102B400032463B4613F0C6FB42464B4613F00EFAA4
:102B500019A3D3E9002306460F465046594613F001
:102B6000B9FB02460B463046394613F001FA0246DD
:102B70000B462046294613F0F9F905B0BDE8F08F61
:102B800002460B463046394613F0A4FB0AA3D3E9AC
:102B9000002313F0EBF952465B4613F09BFB2246F1
:102BA0002B4613F0E5F905B0BDE8F08F2046294625
:102BB00005B0BDE8F08F00BF495555555555C53F87
:102BC0000000E03F7CD5CF5A3AD9E53DEB9C2B8AFB
:102BD000E6E55A3E7DFEB157E31DC73ED561C119FA
:102BE000A0012A3FA6F810111111813F000000003A
:102BF0002DE9F04FBE4C21F0004687B0A642824638
:102C00008B460F46CDE900231BDC13F013FE002892
:102C100037D153461E43109B0133334300F0B38139
:102C2000109B012B00F0C88152465B460020B14941
:102C300013F07AFC04460D462046294607B0BDE84D
:102C4000F08FAD4B9E421CDD0029C0F2A981524697
:102C50005B4687A1D1E9000113F088F9DDE9002383
:102C600004460D4684A1D1E9000113F07FF99FEDE0
:102C7000847B22462B468DED007B13F079F982464A
:102C80008B4652465B465046594613F023FB02469C
:102C90000B468046894613F01DFB424604460D460E
:102CA0004B465046594613F015FB77A3D3E9002352
:102CB000CDE902012046294613F00CFB74A3D3E9A9
:102CC000002313F055F922462B4613F003FB72A3A1
:102CD000D3E9002313F04CF922462B4613F0FAFAFD
:102CE0006FA3D3E9002313F043F922462B4613F0D8
:102CF000F1FA6DA3D3E9002313F03AF922462B46EB
:102D000013F0E8FA6AA3D3E9002313F031F942463D
:102D10004B4613F0DFFA68A3D3E90023CDE90401A1
:102D20002046294613F0D6FA65A3D3E9002313F011
:102D30001FF922462B4613F0CDFA63A3D3E90023F3
:102D400013F016F922462B4613F0C4FA60A3D3E918
:102D5000002313F00DF922462B4613F0BBFA5EA3B5
:102D6000D3E9002313F004F922462B4613F0B2FAFC
:102D70005BA3D3E9002313F0FBF802460B46DDE921
:102D8000040113F0F5F8DDE9022313F0A3FADDE9FD
:102D9000004522462B4613F0EBF842464B4613F013
:102DA00099FA02460B462046294613F0E1F84EA355
:102DB000D3E9002304460D46DDE9020113F08AFA47
:102DC00022462B4613F0D4F80B460246804689462D
:102DD0005046594613F0CCF8474B9E4204460D46E8
:102DE00000F38E80109B012B3BD002460B46002047
:102DF000404913F099FB002406460F462046294619
:102E000052465B46CDE90067CDE90201009413F01C
:102E1000ADF8DDE900AB02460B464046494613F0EB
:102E2000A5F852465B4613F055FA524604460D4645
:102E30005B46DDE9020113F04DFA00222F4B13F03F
:102E400097F802460B462046294613F091F8324681
:102E50003B4613F03FFA52465B4613F089F80446AE
:102E60000D462046294607B0BDE8F08FAFF300803D
:102E7000182D4454FB21E93F075C143326A6813CFE
:102E80000000000000000000D47ABF74702AFB3EEE
:102E9000E9A7F0320FB8123F68108D1AF726303FBD
:102EA0001583E0FEC8DB573F93846EE9E326823F3B
:102EB000FE41B31BBAA1AB3F735360DBCB75F3BECE
:102EC000A69237A0887E143F0165F2F2D844433FB2
:102ED000280356C9226D6D3F37D60684F464963FA9
:102EE0007AFE10111111C13F635555555555D53F07
:102EF000FFFF2F3E0000F0BF2794E53F0000F03FAA
:102F0000109813F081F92246CDE900012B462046A6
:102F1000294613F0DFF9DDE90023CDE9020120465F
:102F2000294613F025F802460B46DDE9020113F0AD
:102F3000FBFA42464B4613F019F802460B46504640
:102F4000594613F013F802460B4613F011F80246E7
:102F50000B46DDE9000113F009F80446B81700F04C
:102F60000200C0F101000D4613F04EF902460B4677
:102F70002046294613F0AEF904460D462046294660
:102F800007B0BDE8F08F5046594613F01BFF0246CC
:102F90000B4600200A4913F0C7FA04460D4660E7C5
:102FA000DDE9004501F10041224605F1004382467A
:102FB0008B46CDE900234AE654465D4651E700BF03
:102FC0000000F03F000000002DE9F04FD24A21F050
:102FD0000043934285B082468B460C462DD9CF4A9A
:102FE00093421AD8002C80F21681B5A3D3E90023AE
:102FF0005046594612F0BCFF0022002313F0DCFBC0
:10300000C0B9B1A3D3E900235046594613F062F981
:1030100002460B460020C24908E1C24A934240F2F0
:10302000D0800346C1F31302134340F0F48100291A
:1030300080F2C4800020BC49C0E0BC4A934200F248
:103040002981BB4A934240F2DE8000230193002293
:10305000B84B5046594613F03DF906460F46024616
:103060000B465046594613F035F999A3D3E900238E
:1030700004460D4613F02EF997A3D3E9002312F06E
:1030800077FF22462B4613F025F995A3D3E90023B9
:1030900012F06CFF22462B4613F01CF992A3D3E9E1
:1030A000002312F065FF22462B4613F013F990A37C
:1030B000D3E9002312F05AFF22462B4613F00AF9F7
:1030C00000229D4B12F054FF8046894602460B4673
:1030D0003046394613F0FEF802460B460020974969
:1030E00012F044FF064602460B460F46404649464C
:1030F00012F03CFF3246804689463B4650465946D0
:1031000013F0E8F802460B4600208D4912F02EFF1E
:1031100002460B464046494613F006FA22462B4625
:1031200013F0D8F8019E02460B46002E38D0DDE998
:10313000026732463B4612F019FF52465B4613F0D7
:10314000C9F832463B4612F011FF2B46224612F0D8
:103150000DFF019B013306460F4600F00F81019BD6
:10316000012B00F0F180019B0133392B39D8019BF1
:10317000132B40F31281019CC4F57F7503350022A7
:103180002B0512F0F5FE02460B465046594612F04A
:10319000EDFE0022684B12F0EBFE01EB04510DE056
:1031A0005046594613F096F822462B4612F0DEFEA2
:1031B00002460B465046594612F0D8FE05B0BDE80F
:1031C000F08F4DA3D3E9002313F014FB00283FF444
:1031D00009AF4BA3D3E900231046194613F07AF840
:1031E000ECE752465B4612F0C1FE02460B46002059
:1031F000514912F0BBFE019A4F4B01EB02510022E4
:1032000012F0B4FEDAE73EA3D3E9002312F0B0FED9
:1032100002460B46CAE72CA3D3E900235046594681
:1032200013F058F80B4643490246002012F0A0FE66
:1032300013F000FB019012F0E7FF33A3D3E9002362
:1032400006460F4613F046F802460B4650465946CE
:1032500012F08CFE2EA3D3E9002380468946304627
:10326000394613F037F806460F4632463B4640468D
:10327000494612F07BFE02460B4682468B4640468C
:10328000494612F073FE32463B4612F06FFECDE91E
:103290000201DCE62B4A934200F2958000291AA332
:1032A000D3E90023C0F2AC8012F060FE0123804617
:1032B0008946019316A7D7E90067D6E7AFF30080E8
:1032C00059F3F8C21F6EA501FE822B654715F73F23
:1032D0002DC3096EB7FD8ABE3952E686CACFD03EED
:1032E000B7DBAA9E19CE143F8555FE19A0015A3F9F
:1032F000F41011111111A13FEF39FAFE422E864050
:103300009C7500883CE4377E0000E0FE422EE63FDC
:10331000763C7935EF39EA3D79684340412E864065
:103320000000E0BFFFFFEF7F0000F0BF422ED63F5E
:10333000FFFF8F3C0000E03F0000F03F000008402E
:1033400000001840B1A2F03F0022394B50465946C8
:1033500013F032FA002844D0504659460022354B2B
:1033600012F006FE02460B463046394612F0FEFDCC
:1033700000224FF0404312F0ADFF1FE702460B461C
:103380005046594612F0F2FD00222A4B12F0A2FFDD
:103390000022284B12F0EAFD10E7019C4FF40013C5
:1033A0002341C3F17F5752465B4612F0DFFD0026F2
:1033B00007F5401702460B463046394612F0D6FD57
:1033C00001EB0451FAE616A3D3E9002312F082FFC1
:1033D000002C02460B464FF00000FFF61CAE1549CC
:1033E00024E732463B465046594612F0BFFD02469E
:1033F0000B4612F0BDFD00220F4B12F0B9FDDDE6C9
:1034000012F0B6FD4FF0FF3380468946019306A7C0
:10341000D7E9006729E702460B4612F0A9FDCDE681
:10342000FE822B654715F73F763C7935EF39EABDCB
:103430000000D0BF0000E03F0000F03F00000000AF
:10344000F8B5C1F30A5604460D460B4617460EBBA7
:1034500021F000430343864625D00022344B12F06E
:1034600039FF344A974204460D460B462ADBC1F326
:103470000A56363E3E4440F2FE72964228DC002E4A
:1034800012DD23F0FF4323F4E00343EA0655204610
:103490002946F8BD40F2FF729642EBD102460B4638
:1034A00012F066FDF8BDF8BD16F1350F1DDA4CF2CD
:1034B00050339F4222462B4625DC19A1D1E9000159
:1034C00015F042FB16A3D3E9002312F003FFF8BD69
:1034D00022462B4614A1D1E9000115F035FB12A3B9
:1034E000D3E9002312F0F6FEF8BD23F0FF4323F4E6
:1034F000E003363643EA06552046294600220E4BA5
:1035000012F0E8FEF8BD08A1D1E9000115F01CFB9E
:1035100005A3D3E9002312F0DDFEF8BDAFF3008070
:1035200059F3F8C21F6EA5019C7500883CE4377EF4
:1035300000005043B03CFFFF0000903C10B5054C2C
:10354000237833B9044B13B10448AFF3008001234F
:10355000237010BDA80400200000000054B402082D
:103560000C4B43B10C480D4910B5AFF300800C482B
:10357000036823B910BD0A48036833B97047094B83
:10358000002BF7D0BDE810401847064B002BF5D0B4
:10359000184700BF0000000054B40208AC0400202B
:1035A0001C04002000000000154B002B08BF134B2B
:1035B0009D46A3F5803A00218B460F461348144AD6
:1035C000121A06F067FD0F4B002B00D098470E4BE8
:1035D000002B00D098470020002104000D000D486A
:1035E000002802D00C480DF023FC15F01BFC200035
:1035F00029000DF0FDFB0DF017FC00BF00000800D6
:103600000080022000000000E10D020820040020DC
:10361000B8320020310E020800000000F0B5214D44
:103620002C6883B014B1204603B0F0BD4FF49C70F9
:103630000DF000FC4FF0FF310646032001F042FC84
:1036400000B204F073F84FF0FF310746022001F09A
:1036500039FC00B204F06AF83946024606F1DC078C
:1036600030460AF099F923462246384601210AF0ED
:103670002FF84FF0FF31012001F024FC00B204F0DC
:1036800055F898244FF0050E02468DE810403B4651
:10369000314606F1E40007F037F9344620462E6043
:1036A00003B0F0BDC40400202DE9F04104460F46EC
:1036B000FFF7B4FF00F1E4050646284607F042F99B
:1036C000082C0BD0A4F10903012B15D93A46214649
:1036D00010230D20BDE8F04103F00CBFD6F8E43014
:1036E00028469B6A98470228F0DCD6F8E430284642
:1036F0005B6A04219847E9E7D6F8E43028469B6ADC
:1037000098470528E2DCD6F8E43028465B6A0821B1
:103710009847DBE710B52DED028BFFF77FFF00F137
:10372000E404204608F050FE07EE900A2046F8EE2A
:10373000E78A08F057FE07EE900A2046B8EEE78ABF
:1037400008F05EFE68EE087A07EE100AE8EEA87A46
:10375000B8EEC77AE7EE077AF5EE407AF1EE10FAA6
:10376000B1EEE78A03D517EE900A14F077F8FDEE74
:10377000C87ABDEC028B17EE900A10BD08B503287D
:103780001CD8DFE800F0140D0602BDE80840FFF782
:10379000C1BFFFF743FFBDE80840E43008F030BE8A
:1037A000FFF73CFFBDE80840E43008F01BBEFFF720
:1037B00035FFBDE80840E43008F006BE002008BD33
:1037C00008B550B1012806D1FFF728FFBDE8084031
:1037D000E430FBF765B8002008BDFFF71FFFBDE828
:1037E0000840E430FBF73CB810B50446FFF716FF7D
:1037F0002146E430BDE8104008F0FEBB08B501F0FA
:1038000089FCFBF7F1FDBDE8084001F0EDB900BF10
:1038100008B501F07FFCFBF757FEBDE8084001F05A
:10382000E3B900BF08B501F075FC13F041FBBDE83A
:10383000084001F0D9B900BF08B501F06BFC13F0E6
:1038400049FFBDE8084001F0CFB900BF08B501F05D
:1038500061FCFBF7D9FDBDE8084001F0C5B900BF28
:1038600008B501F057FC13F061FDBDE8084001F018
:10387000BBB900BF08B501F04DFCFBF731F8BDE85E
:10388000084001F0B1B900BF08B501F043FC13F0E6
:10389000A1FCBDE8084001F0A7B900BF70B5049EC7
:1038A00096420C4628DB15466BB1002A00EB02015C
:1038B00007DD2046A21811F8013D00F8013B9042B7
:1038C000F9D1002070BD042A0FD0022A02D110F0D5
:1038D000010306D001462A46204605F0F7F90020EC
:1038E00070BD02880A80184670BD10F00303F1D144
:1038F00002680A60184670BD0846002106F0CAFB3F
:103900004FF0FF3070BD00BF0830704740B1002954
:1039100005DB4368994202DA0844007A70470020C8
:10392000704700BF30B1002904DB43689942BCBF37
:1039300040180272704700BF40B1002905DB4368A0
:10394000994202DA0844007A70470020704700BFAD
:10395000830705D120B1030F0CBF01200020704761
:103960000120704730B1002904DB43689942BCBF95
:1039700040180272704700BF002B23DB002921DBB7
:1039800070B54668B1421ADC5568761A1446EA1AD0
:10399000B242A8BF3246002A11DB84420D4607D04E
:1039A000083408300844E11805F090F9002070BD93
:1039B0000834E118601915F0A2FB002070BD4FF02B
:1039C000FF3070BD4FF0FF30704700BF4068704758
:1039D00010B4141E10DB426894420DDC33EA23035A
:1039E00028BF1346121B08309A422044A8BF1A462B
:1039F0005DF8044B06F04EBB5DF8044B704700BF0A
:103A000043688B4210B400F108041846A8BF08466A
:103A100032EA220128BF19461B1A99422044A8BF46
:103A200019465DF8044B00F0E3BE00BF002BBCBF9D
:103A300043689B1A002A70B50E4620DB446899182B
:103A4000A1421CDC8A421ADCCBB136F0004116D010
:103A500059428E4214DDB34212DD0830002E00EBD5
:103A6000020515DB9C1B2246A919284615F047FBC9
:103A7000324628190021BDE8704006F00BBB70BD2E
:103A8000002211464FF0FF33BDE87040FFF7A0BFA2
:103A900074429A192946281915F031FB2246284606
:103AA0000021BDE8704006F0F5BA00BF03460830BB
:103AB000596800F01DBE00BF70B504460020616863
:103AC000490000F097FD6668002E11DD094D04F1F4
