:020000040800F2
:10E0000000800220C52F0208E5920208E59202086E
:10E01000E5920208E5920208E5920208000000007D
:10E0200000000000000000000000000021EC0108DA
:10E03000E592020800000000C7EC010827ED010886
:10E04000E5920208E5920208E5920208E5920208CC
:10E05000E5920208E5920208E5920208E5920208BC
:10E06000E5920208E5920208E5920208E5920208AC
:10E07000E5920208E5920208E5920208E59202089C
:10E08000E5920208E5920208E5920208F5FC010813
:10E09000E1FB0108E5920208F9FC0108E59202089B
:10E0A000E5920208E5920208E5920208E59202086C
:10E0B000E5920208E592020800000000E5920208DD
:10E0C000E5920208E5920208E5920208E59202084C
:10E0D000E5920208E5920208E5920208E59202083C
:10E0E000E5920208E592020800000000000000002E
:10E0F0000000000000000000000000000000000020
:10E1000000000000E592020800000000E59202080D
:10E11000E592020800000000E592020800000000FD
:10E12000E5920208E5920208E5920208E5920208EB
:10E13000E5920208E5920208E5920208000000005C
:10E14000E5920208E5920208E5920208E5920208CB
:10E15000E5920208E5920208E5920208E5920208BB
:10E16000E5920208E5920208E5920208000000002C
:10E1700000000000E592020800000000000000001E
:10E18000E5920208E5920208E5920208E59202088B
:10E19000E5920208000000002DE9F04F2DED028B02
:10E1A00085B003910478A4F10903042B054604F01B
:10E1B0007F0200F10100F5D9202AF3D02B2C04BFF7
:10E1C0006C7805462D2C00F081809FED497BB0EEE8
:10E1D000478AF0EE678A00260027D4B34FF0000C80
:10E1E000DFF81C914FF00008E246AB461DE018F046
:10E1F000A5F902460B462846CDE9002318F034F96C
:10E20000DDE9002317F0E4FF424606460F464B4681
:10E2100051EC180BBAF1000F2CD018F0B9FA41EC00
:10E22000180BD4461BF8014F94B1A4F13005092D09
:10E2300042464B4630463946D9D9BAF1000F1CD177
:10E240002E2C1AD11BF8014F4FF0010A002CECD1F3
:10E250005D4632463B4651EC180B18F06FF9064606
:10E260000F46039B304639461D6005B0BDEC028B5E
:10E27000BDE8F08F4FF0010CD4E75D46BCF1000F14
:10E280002DD032463B4651EC180B18F057F904F0EC
:10E29000DF04452C06460F46E3D10399681C0A2289
:10E2A0001AF03EFF16490246002018F0A7FC02466D
:10E2B0000B463046394618F041F906460F463046BF
:10E2C000394605B0BDEC028BBDE8F08F9FED0A7BAF
:10E2D0006C78B0EE478AF0EE678A01357BE7094F2C
:10E2E00000263046394605B0BDEC028BBDE8F08F04
:10E2F000000000000000F03F000000000000F0BF40
:10E30000000024400000F87F2DE9F0470023144668
:10E31000002206460F4618F083FB28B12D2107F195
:10E32000004304F8011B1F460022002330463946F3
:10E3300018F06CFB28B13022002322706370BDE816
:10E34000F0873046394619F053FA18F0A7FB85A339
:10E35000D3E9002380463946304618F061FB48B9BE
:10E3600082A3D3E900233046394618F077FB824672
:10E37000002875D0B8F1000FC0F297804246764968
:10E38000002018F03BFC02460B463046394618F098
:10E39000FFF96FA3D3E9002318F0D0F86F4B0022E8
:10E3A00017F016FF18F064FC012502460B464FF0EB
:10E3B000FF3E4FF00009DFF8BCC16948012745F670
:10E3C000F3214FF02E0A8B4208BF82424FF03006F5
:10E3D00009D3121A63EB01038B4208BF824206F194
:10E3E0000106F6D2F6B2214652EA030001F8016BAB
:10E3F00008D1BD420FDD0137102F0CD00C467CE94F
:10E400000201E0E7BD4207F1010704BF84F801A063
:10E41000A11C102FF2D1B9F1000F0DD00A46302007
:10E4200002F8010BC2F1010373440B44002BF7DC2B
:10E430002EEAEE7301331944B8F1010F31D0B8F16F
:10E44000000F4FF065030B70C4BF2B234B70404689
:10E45000D8BF0131BDE8F047C8BF02310CF01EBE85
:10E46000B8F10E0F08F101053FDDA8F10E094A468B
:10E470003949002018F0C2FB02460B4630463946A7
:10E4800018F086F9354B002217F0A2FE18F0F0FBC9
:10E49000002D02460B4613DDA8F10F0E4FF00108C8
:10E4A00089E700230B70BDE8F087C8F100022A4914
:10E4B000002018F0A3FB32463B4618F03FF868E70F
:10E4C0002146302001F8020B2E266FEA0800667004
:10E4D0000138A8F10F0E01300C18302001F8010BA3
:10E4E000A142FBD14FF0010865E7C8F10E021A49BD
:10E4F000002018F083FB02460B463046394618F0E0
:10E500001DF8164B002217F063FE18F0B1FB002D2A
:10E5100002460B4614DC214630206FEA08092E26FD
:10E5200001F8020B09F1FF306670B9F1000F03D05A
:10E53000D1464FF0FF3ECEE70C464FF0FF3ED1E70D
:10E54000D1464FF0FF3E4FF0010834E7AFF30080B3
:10E550000000901EC4BCD642000024400000E03FF2
:10E5600000407A108DEDB5A0F7C6B03E50EFE2D670
:10E57000E41A4B445099020870B54FF0FF3006F092
:10E5800031FA04466FF07F4006F02CFA064620462A
:10E5900017F05AFF0C4B002217F0D0FF044630460C
:10E5A0000D4617F051FF06A3D3E9002318F0F0F849
:10E5B00002460B462046294617F00AFE70BD00BFF2
:10E5C0000000E0DFFFFF6F430000F03D00000000AF
:10E5D000294A70B5064610680D4609F0D9FB002897
:10E5E00028DB09F05FF9002E044624DD234B186870
:10E5F00017F03AFF1EA3D3E9002317F09FFF002274
:10E60000002317F0E5FD18F049FA236820EAE071CD
:10E61000B1F5806FA8BF4FF48061DB682046984752
:10E6200023681749D3F8803091FBF6F120469847CC
:10E63000002D06DC70BD0368BDE87040DB6800217A
:10E640001847A5F11406012EB8BF012630460DF07B
:10E65000EFFA23682046DB6800219847A81B0128B1
:10E66000BDE87040B8BF01200DF0E2BAAFF3008002
:10E670001010101010101040740400200802002028
:10E6800040420F000000000038B5154B1B68002BFE
:10E6900004460CBF1820052009F004F90546204661
:10E6A00017F0E2FE0CA3D3E9002317F047FF002286
:10E6B000002317F08DFD18F0F1F92B6820EAE071C6
:10E6C000B1F5007FDB68A8BF4FF40071284698477A
:10E6D000044B1C6038BD00BF10101010101000401B
:10E6E000740400200802002030B52D4B8DB01A684C
:10E6F0000092009A120205D4009A42F4000200929D
:10E70000009A1A60274A284B126801921B680293EC
:10E710000EF064F817F0A8FECDE90401019B9BB24E
:10E720000193029B9BB20293DDE904011AA3D3E992
:10E73000002317F003FF1D4B0022CDE90401CDE9B2
:10E7400006230298019BC01A17F07EFECDE908014E
:10E75000DDE90445019817F077FE02460B46204696
:10E76000294617F033FDCDE90A01DDE90601DDE9AF
:10E770000823DDE90A4518F00BF822462B4617F06E
:10E78000DDFE0B4B002217F023FD18F0AFF90390CC
:10E7900003980DB030BD00BF9A9999999999F13FAE
:10E7A00008030450A875FF1FCA75FF1F00005440DE
:10E7B00000003E40000000002DE9F04F044683B009
:10E7C000C06817F051FE064620690F4617F04CFE50
:10E7D0006369019380461846894617F045FE024654
:10E7E00001F1004382468B463046394618F0AAFEB6
:10E7F00018F09CF9E062054618F05CFD03462846D7
:10E800001D4618F019FD034628461D4617F03EFE2A
:10E8100032463B4617F092FE064628460F4617F052
:10E8200035FE52465B4617F089FE02460B463046DF
:10E83000394617F0CBFC0B4602464946404618F0D5
:10E8400081FE18F073F9019B002B07EE900A23DD7F
:10E85000F5EEC07AF1EE10FA1ADD11A7D7E90067DC
:10E8600017EE900A17F012FE02460B463046394664
:10E8700017F0ACFC32463B4617F0AAFC18F056F9EC
:10E88000A062E38843F00203E38003B0BDE8F08FA9
:10E8900005A7D7E90067E3E7A062F2E7AFF30080DE
:10E8A000EA2E4454FB21F93FEA2E4454FB21F9BFE0
:10E8B00008B50DF0C1FEDFED0C7A07EE100A67EE29
:10E8C000277A17EE900A17F0E1FD05A3D3E900239C
:10E8D00017F05EFF18F0E2F808BD00BFAFF300804C
:10E8E000EA2E4454FB2119400000B443000000000C
:10E8F00008B50DF0B7FEDFED0C7A07EE100A67EEF3
:10E90000277A17EE900A17F0C1FD05A3D3E900237B
:10E9100017F03EFF18F0C2F808BD00BFAFF300804B
:10E92000EA2E4454FB2119400000B44300000000CB
:10E93000494A21F0004393422DE9704304460D46B5
:10E940006EDC464A93420E4639DC3FA3D3E90023EE
:10E9500017F03EFC424B002218F080F800286FD1DF
:10E9600022462B462046294617F0E8FD02460B4674
:10E970002046294614461D4618F042FB384B00221B
:10E98000804689462046294617F022FC19F002FAF3
:10E99000334B002217F01CFC02460B46204629464A
:10E9A00017F0F6FE42464B4617F012FC00F0F4FA60
:10E9B000002E39DC01F100431946BDE87083294A75
:10E9C000934233DCB3F1804FCADD18F019FB2246C5
:10E9D000804689462B462046294617F0AFFD204B3E
:10E9E000002217F0F5FB19F0D5F942464B4617F017
:10E9F000EFFB02460B460020194917F0C9FE4246BC
:10EA00004B4604460D464046494617F0E1FB024698
:10EA10000B462046294617F0DBFB02F089F8C7E7D2
:10EA200002460B4617F0D4FBBDE8708318F0E8FAF5
:10EA300002F07EF806A3D3E9002317F0C9FBB7E77D
:10EA400020462946BDE870839C7500883CE4377EEB
:10EA5000EF39FAFE422EE63FFFFFEF7FFFFF2F3E2A
:10EA60000000F03F0000B0412DE9F84FC44B21F009
:10EA700000469E4204460D468A460EDDC14B9E422C
:10EA800000F3B08000F0AB80BAF1000F40F3E880F3
:10EA90009FA1D1E90001BDE8F88FBB4B9E4200F376
:10EAA000B880A3F1DE739E4240F3A4804FF0FF3B99
:10EAB00022462B462046294617F040FD02460B46CB
:10EAC0008046894617F03AFD93A3D3E90023064612
:10EAD0000F4617F033FD92A3D3E9002317F078FB1C
:10EAE00032463B4617F02AFD8FA3D3E9002317F0E7
:10EAF0006FFB32463B4617F021FD8DA3D3E900237F
:10EB000017F066FB32463B4617F018FD8AA3D3E99F
:10EB1000002317F05DFB32463B4617F00FFD88A33C
:10EB2000D3E9002317F054FB42464B4617F006FD8D
:10EB300085A3D3E90023804689463046394617F03D
:10EB4000FDFC83A3D3E9002317F040FB32463B468C
:10EB500017F0F4FC80A3D3E9002317F037FB32460B
:10EB60003B4617F0EBFC7EA3D3E9002317F02EFB06
:10EB700032463B4617F0E2FC7BA3D3E9002317F0B3
:10EB800025FB32463B4617F0D9FCBBF1FF3F02465E
:10EB90000B466AD04046494617F01AFB7B4E224688
:10EBA0002B4617F0CBFC7A4B06EBCB064FEACB0B90
:10EBB0009B44DBE9002317F009FB22462B4617F0A4
:10EBC00005FB02460B46D6E9000117F0FFFABAF141
:10EBD000000F0DDA01F100431946BDE8F88F002857
:10EBE0003FF452AF22462B462046294617F0F0FA52
:10EBF000BDE8F88F5EA3D3E9002317F0E9FA654B6F
:10EC0000002217F02BFF00283FF450AF2046294682
:10EC1000EEE718F0F5F9604B9E4204460D4634DCF1
:10EC2000A3F550239E4259DC02460B4617F0D0FA5A
:10EC3000584B002217F0CAFA00224FF080430646D4
:10EC40000F462046294617F0C3FA02460B463046C7
:10EC5000394617F09DFD4FF0000B04460D4627E79F
:10EC600045A1D1E90001BDE8F88F4046494617F0BB
:10EC7000AFFA22462B4617F061FC02460B462046AF
:10EC8000294617F0A3FABDE8F88F444B9E421ADAE2
:10EC9000434B002217F09AFA414B06460F460022DA
:10ECA0002046294617F04AFC3A4B002217F090FA0A
:10ECB00002460B463046394617F06AFD4FF0020B0C
:10ECC00004460D46F4E602460B460020354917F08F
:10ECD0005FFD4FF0030B04460D46E9E62D4B002285
:10ECE00017F074FA2B4B002206460F4620462946A1
:10ECF00017F06EFA02460B463046394617F048FDCB
:10ED00004FF0010B04460D46D2E600BFAFF3008082
:10ED1000182D4454FB21F93F11DA22E33AAD903F1C
:10ED2000EB0D76244B7BA93F513DD0A0660DB13F42
:10ED30006E204CC5CD45B73FFF8300922449C23FAA
:10ED40000D5555555555D53F2F6C6A2C44B4A2BF6F
:10ED50009AFDDE522DDEAD3F6D9A74AFF2B0B33F37
:10ED6000711623FEC671BC3FC4EB98999999C93FAF
:10ED70009C7500883CE4377E182D4454FB21F9BF74
:10ED8000FFFF0F440000F07FFFFFDB3F58990208B0
:10ED9000789902080000F03FFFFFF23F0080034037
:10EDA0000000F83F0000F0BFF8B5C1F30A57A7F222
:10EDB000FF35132D02460B460C46064631DC002D6E
:10EDC0001DDB354F2F4101EA070C5CEA000C2DD00A
:10EDD0002FA3D3E9002317F0FBF90022002317F03B
:10EDE0003DFE48B1002C04DD4FF4801343FA05F5D5
:10EDF0002C4424EA0704002621463046F8BD24A30B
:10EE0000D3E9002317F0E4F90022002317F026FECF
:10EE10000028F1D0002C35DB26432FD01F4C0026D4
:10EE2000EAE7332D05DDB5F5806F24D0104619468D
:10EE3000F8BDA7F213474FF0FF3C2CFA07F7074243
:10EE4000F4D013A3D3E9002317F0C2F90022002362
:10EE500017F004FE0028CFD0002C09DD142D0FD0B0
:10EE60000123C5F1340503FA05F5AE1928BFE418EE
:10EE700026EA0706C0E717F0ABF9F8BD3446BBE752
:10EE80000134F5E700264FF00044B5E7AFF300800A
:10EE90009C7500883CE4377EFFFF0F000000F03FC8
:10EEA000F8B5C1F30A57A7F2FF35132D02460B46FA
:10EEB0000C4606461FDC002D3DDB354F2F4101EA95
:10EEC000070C5CEA000C1BD02FA3D3E9002317F03A
:10EED0007FF90022002317F0C1FD48B1002C04DAAD
:10EEE0004FF4801343FA05F52C4424EA0704002666
:10EEF00021463046F8BD332D05DDB5F5806F2AD0AB
:10EF000010461946F8BDA7F213474FF0FF3C2CFA04
:10EF100007F70742F4D01CA3D3E9002317F058F9F0
:10EF20000022002317F09AFD0028E1D0002C1EDB00
:10EF300026EA0706DCE714A3D3E9002317F048F913
:10EF40000022002317F08AFD0028D1D0002C05DB19
:10EF500000263446CCE717F03BF9F8BD24F0004317
:10EF60000C4A1E43002E18BF14460026C0E7142D7D
:10EF700008D00123C5F1340503FA05F5AE1928BF01
:10EF8000E418D5E70134D3E79C7500883CE4377E6C
:10EF9000FFFF0F000000F0BF2DE9F04FD44B2DED27
:10EFA000028B994285B082468B4666DDD14B9942F1
:10EFB0000E4659DCD04B994240F3B4819FEDB87BAB
:10EFC0008DED027B4FEA215A0446AAF2FF38CB4B63
:10EFD000C6F313069E4246F07F5500F3568145F472
:10EFE000401520462946C64B002217F0EFF8C54BC6
:10EFF00004460D46002217F0A1FA22462B4617F0D0
:10F000009DFAA246CDE9000141EC180BAB46002E5B
:10F0100060D1002200232046294617F0F7FC002883
:10F0200000F0A081B8F1000F00F0B981404617F060
:10F030001BFA9DA3D3E9002306460F4617F07EFA7C
:10F04000DDE9022317F0C4F899A3D3E900230446AD
:10F050000D463046394617F071FA02460B462046F7
:10F06000294617F0B5F803E002460B4617F0B0F852
:10F0700005B0BDEC028BBDE8F08FA34B21F000443E
:10F080009C420A4611DDA14B002217F0BFFC00286C
:10F0900000F09280002200239D49002017F078FBA9
:10F0A00005B0BDEC028BBDE8F08F9A4B9C4240F35B
:10F0B0009280994B1A449A4240F23481914B00223B
:10F0C00017F03CFA52465B4617F038FA41EC180B41
:10F0D0004FF0000800224FF080435046594617F089
:10F0E00077F802460B465046594617F051FB024648
:10F0F0000B4606460F4617F021FA6FA3D3E900230B
:10F1000004460D4617F01AFA6DA3D3E9002317F051
:10F110005FF822462B4617F011FA6BA3D3E90023C0
:10F1200017F056F822462B4617F008FA68A3D3E9E1
:10F13000002317F04DF822462B4617F0FFF966A37F
:10F14000D3E9002317F044F822462B4617F0F6F9CE
:10F1500063A3D3E9002317F03BF822462B4617F0B0
:10F16000EDF961A3D3E9002317F032F822462B46CC
:10F1700017F0E4F904460D46B8F1000F45D155ECFF
:10F18000184B18EE102A2B4617F022F832463B4651
:10F1900017F0D4F9024618EE100A0B46294617F06C
:10F1A00015F802460B465046594617F00FF805B0C1
:10F1B000BDEC028BBDE8F08F52465B465046594687
:10F1C00017F004F802460B4617F0E2FA05B0BDEC62
:10F1D000028BBDE8F08F514B002216F0F9FF0022A0
:10F1E000002317F03BFC28B14D4B9C4202DC5046FB
:10F1F00059463DE752465B465046594617F09EF940
:10F20000404B002217F09AF9CBE7404617F02CF953
:10F2100027A3D3E900238046894617F08FF941ECF4
:10F22000170B53EC182B2046294655EC174B16F0BC
:10F23000CFFF32463B4617F081F91BA3D3E90023E9
:10F2400006460F464046494617F078F9DDE90223A5
:10F2500016F0BEFF02460B463046394616F0B8FFA0
:10F2600002460B4651EC180B16F0B0FF52465B46B7
:10F2700016F0ACFF02460B462046294616F0A6FFC4
:10F2800005B0BDEC028BBDE8F08F45F40015C6F566
:10F29000801620462946B61008F10108A3E600BFF3
:10F2A0000000000000000000763C7935EF39EA3DAF
:10F2B0000000E0FE422EE63F44523EDF12F1C23F24
:10F2C0009FC678D0099AC33FDE03CB966446C73FFA
:10F2D000AF788E1DC571CC3F599322942449D23FFB
:10F2E00004FA97999999D93F935555555555E53F46
:10F2F0007982DA3FFFFFEF7FFFFF3F439DA00600CB
:10F300000000F03F0000E03FFFFFEF3F0000F0BFD4
:10F31000000050C3FFFF1F3E3C412D400000504302
:10F32000FFFF8F3C3C4B00225046594616F050FFE1
:10F330000B15A3F2FF38B8F1000F04460D460E4638
:10F3400050DD52465B4616F041FF02460B46002058
:10F35000314916F03BFF22462B4617F019FACDE94A
:10F36000020134E626A3D3E900232046294617F0FC
:10F37000E5F802460B460020274916F027FFDDE995
:10F38000002317F0DBF806460F46B8F1000F09D14D
:10F3900002460B462046294616F018FF68E6002074
:10F3A000002165E6404617F05FF817A3D3E9002374
:10F3B0008046894617F0C2F815A3D3E90023824698
:10F3C0008B464046494617F0B9F8DDE9022316F0AE
:10F3D000FFFE02460B463046394616F0F7FE22463F
:10F3E0002B46DCE60C4B002216F0F0FE02460B46E4
:10F3F0005046594616F0EAFEADE700BFAFF3008075
:10F40000555555555555E53F0000E0FE422EE63F67
:10F41000763C7935EF39EA3D0000F03F000000000E
:10F4200008B518F05FF904A3D3E9002317F0B0F989
:10F4300008BD00BFAFF30080EF39FAFE422EE63F71
:10F440002DE9F043DFF8B4908BB004460D4601F08F
:10F45000F3F899F90030013306460F462CD02246C6
:10F460002B462046294617F003FB804620BB20464A
:10F47000294617F0C5FD1FA3D3E9002317F0EEFAC4
:10F48000D0B1194A99F90030CDF820800321CDE997
:10F490000445CDE90245CDE9001293B1134900209E
:10F4A000022BCDE9060111D119F002FC22230360E1
:10F4B000089B9BB9DDE90667304639460BB0BDE8CD
:10F4C000F0830B4B4FF06042CDE90623684619F0FC
:10F4D00097FA0028E8D0089B002BEBD019F0E8FB46
:10F4E000089B0360E6E700BFE0AE02080000F07F83
:10F4F000FFFFEF477DF8B98FCE3386409A02002098
:10F500002DE9F043DFF8F4808BB004460D4601F09E
:10F5100043F998F90030013306460F4616D02046CD
:10F52000294619F067FA88B130A3D3E900232046B1
:10F53000294617F093FA8146002836D12DA3D3E946
:10F5400000232046294617F06BFA20B93046394689
:10F550000BB0BDE8F08398F90030214ACDF8209037
:10F56000002000210426022BCDE90445CDE9024507
:10F57000CDE906010096019212D0684619F040FAD2
:10F5800070B1089B2BBBDDE90667304639460BB0EE
:10F59000BDE8F08313490020022BCDE90601ECD130
:10F5A00019F086FB22230360EBE70D4A98F900303F
:10F5B000019203210022CDE90445CDE902450091E5
:10F5C0000892002BE6D1084B4FF06042CDE90623AC
:10F5D000D3E719F06DFB089B0360D4E7AFF300801D
:10F5E000E8AE02080000F07FFFFFEF47EF39FAFEB8
:10F5F000422E864051302DD5104987C09A020020F6
:10F600002DE9F04F2DED028BDFF848B38FB00646A1
:10F610000F4614461D4601F013FD9BF900A0BAF1F8
:10F62000FF3F41EC180B3BD022462B462046294693
:10F6300017F01EFA8146002832D132463B4630464A
:10F64000394617F015FA0090002840F0E1804FF09D
:10F6500000084FF000093046394642464B4617F045
:10F66000D5F920B342464B462046294617F0CEF93D
:10F670000390002854D0009B0C930122B04B0492BD
:10F68000CDE90667CDE90845CDE90A890593BAF1C8
:10F69000000F6BD09FEDA47BB0EE478AF0EE678A37
:10F6A00051EC180B0FB0BDEC028BBDE8F08F51ECA4
:10F6B000180B19F09FF9824600286FD04FF0000810
:10F6C0004FF0000951EC180B42464B4617F09EF9DB
:10F6D0000028E5D03046394619F08CF90028DFD0F3
:10F6E0002046294619F086F90028D9D09BF9003028
:10F6F000934A059204210022022BCDE90667CDE949
:10F700000845CDE90A8904910C9204D004A819F0A7
:10F7100077F900282FD119F0CBFA222303602AE0D1
:10F720002046294619F066F90028B9D042464B46D2
:10F730002046294617F074F90028B1D00399804A71
:10F740009BF900300C910121CDE90667CDE9084510
:10F75000CDE90412002B78D1CDE90A8904A819F06B
:10F760004FF9002877D00C9B5BB106E004A819F094
:10F7700047F9002874D00C9B1BB119F099FA0C9B27
:10F7800003609DED0A7BB0EE478AF0EE678A51EC8C
:10F79000180B0FB0BDEC028BBDE8F08F3046394638
:10F7A00019F028F9002889D02046294619F022F9B5
:10F7B000002883D053EC182B18EE100A194617F0C6
:10F7C00057F9002840F0918003239BF900A004938F
:10F7D0005B4B0C90CDE90667CDE908450593BAF17E
:10F7E000000F42D19FED527B42464B463046394690
:10F7F0008DED0A7B17F014F9002845D104A819F003
:10F80000FFF80028AFD119F053FA22230360AAE7CA
:10F81000002200232046294617F0F8F800283FF47C
:10F820003FAF4849464BCDF8309000200122BAF155
:10F83000020FCDE90667CDE90845CDE90A0104923A
:10F84000059393D141EC180B2AE73F490020022B86
:10F85000CDE90A0182D119F02BFA2123036082E756
:10F8600019F026FA2123036085E79FED337B42469A
:10F870004B46304639468DED0A7B17F0D1F8E0B99A
:10F88000BAF1020FBFD0B9E7304B0022204629461B
:10F8900016F054FE02460B46CDE9002319F0B8F8E5
:10F8A000DDE9002317F0B2F8E0B9294B9BF900A07D
:10F8B0004FF06042CDE90A23E2E7244B00222046C4
:10F8C000294616F03BFE02460B46CDE9002319F00F
:10F8D0009FF8DDE9002317F099F818B91A4B0022B8
:10F8E000CDE90A239BF900A0CAE7154B9BF900B0AC
:10F8F000CDF830A00122CDE90667CDE90845CDE974
:10F900000423BBF1000F3FF427AF42464B4640466D
:10F91000494616F03DFFBBF1020FCDE90A019AD02E
:10F920001CE700BFAFF30080000000000000F03FC4
:10F93000000000E0FFFFEF47000000000000F07F44
:10F9400000AF02080000F03F0000F0FF0000E03FC1
:10F95000FFFFEFC79A0200202DE9F84FC44E21F0B7
:10F960000043B34204460D460DDD03F1404303F569
:10F970008013034340F0B980002940F3C080002089
:10F980000021BDE8F88FBB4EB34208DCBA4A93426F
:10F9900000F3BA809CA1D1E90001BDE8F88F0029ED
:10F9A000C0F2708102460B460020B44916F00EFCEE
:10F9B000B34B002216F0C2FD04460D4618F0EAF9DA
:10F9C00093A3D3E90023894680462946204616F0B2
:10F9D000B5FD91A3D3E9002316F0FAFB22462B468E
:10F9E00016F0ACFD8EA3D3E9002316F0EFFB224600
:10F9F0002B4616F0A3FD8CA3D3E9002316F0E8FBF9
:10FA000022462B4616F09AFD89A3D3E9002316F06F
:10FA1000DDFB22462B4616F091FD87A3D3E9002398
:10FA200016F0D6FB22462B4616F088FD84A3D3E9B8
:10FA3000002382468B462046294616F07FFD82A38E
:10FA4000D3E9002316F0C2FB22462B4616F076FDC2
:10FA50007FA3D3E9002316F0BBFB22462B4616F00A
:10FA60006DFD7DA3D3E9002316F0B0FB22462B46A3
:10FA700016F064FD814B002216F0AAFB02460B46ED
:10FA80005046594616F084FE42464B4616F056FD47
:10FA9000002682468B4632464B463046494616F093
:10FAA0004DFD02460B462046294616F08FFB324696
:10FAB00004460D464B464046494616F089FB024631
:10FAC0000B462046294616F063FE02460B4650467A
:10FAD000594616F07DFB32464B4616F079FB02463E
:10FAE0000B4616F075FBBDE8F88F02460B4616F084
:10FAF0006DFB02460B4616F04BFEBDE8F88F58A191
:10FB0000D1E90001BDE8F88F02460B4616F016FD5C
:10FB10003FA3D3E9002306460F4616F00FFD3EA390
:10FB2000D3E9002316F054FB32463B4616F006FD9F
:10FB30003BA3D3E9002316F049FB32463B4616F0BF
:10FB4000FDFC39A3D3E9002316F042FB32463B46C5
:10FB500016F0F4FC36A3D3E9002316F037FB324647
:10FB60003B4616F0EBFC34A3D3E9002316F030FB40
:10FB700032463B4616F0E2FC31A3D3E9002380462F
:10FB800089463046394616F0D9FC2FA3D3E9002325
:10FB900016F01CFB32463B4616F0D0FC2CA3D3E9F2
:10FBA000002316F015FB32463B4616F0C7FC2AA38D
:10FBB000D3E9002316F00AFB32463B4616F0BEFCA2
:10FBC0002E4B002216F004FB02460B4640464946E7
:10FBD00016F0DEFD22462B4616F0B0FC02460B4620
:10FBE00021A1D1E9000116F0F1FA02460B462046A8
:10FBF000294616F0EBFA02460B4603A1D1E90001B3
:10FC000016F0E4FABDE8F88F182D4454FB21F93FB3
:10FC100009F7FD0DE13D023F88B20175E0EF493F74
:10FC20003B8F68B52882A43F5544880E55C1C93F13
:10FC30007D6FEB0312D6D43F555555555555C53FED
:10FC400082922EB1C5B8B33F59018D1B6C06E63FB9
:10FC5000C88A599CE52A00404B2D8A1C273A03404C
:10FC6000182D4454FB210940075C143326A6913C0F
:10FC7000FFFFEF3FFFFFDF3F0000603C0000F03F71
:10FC80000000E03F5C4B002216F0A2FA5B4B002222
:10FC900016F054FC40A3D3E9002304460D4616F0A9
:10FCA0004DFC3FA3D3E9002316F092FA22462B46DF
:10FCB00016F044FC3CA3D3E9002316F087FA224651
:10FCC0002B4616F03BFC3AA3D3E9002316F080FA4A
:10FCD00022462B4616F032FC37A3D3E9002316F058
:10FCE00075FA22462B4616F029FC35A3D3E90023EA
:10FCF00016F06EFA22462B4616F020FC8046894606
:10FD00002046294618F046F82FA3D3E900230646DB
:10FD10000F462046294616F011FC2DA3D3E90023F7
:10FD200016F054FA22462B4616F008FC2AA3D3E913
:10FD3000002316F04DFA22462B4616F0FFFB28A3AF
:10FD4000D3E9002316F042FA22462B4616F0F6FBC2
:10FD5000294B002216F03CFA02460B464046494623
:10FD600016F016FD32463B4616F0E8FB1EA3D3E91B
:10FD7000002316F02BFA32463B4616F029FA0246CB
:10FD80000B4616F025FA02460B4619A1D1E90001EF
:10FD900016F01CFABDE8F88F09F7FD0DE13D023FB2
:10FDA00088B20175E0EF493F3B8F68B52882A43FD8
:10FDB0005544880E55C1C93F7D6FEB0312D6D43F21
:10FDC000555555555555C53F82922EB1C5B8B33FCF
:10FDD00059018D1B6C06E63FC88A599CE52A0040F4
:10FDE0004B2D8A1C273A0340075C143326A6913C0E
:10FDF000182D4454FB2109400000F03F0000E03F73
:10FE0000414A91422DE9F84304460D463EDD3F4A02
:10FE100091420B4608DD02F17952914266DD0246BD
:10FE200016F0D6F9BDE8F88301F1404202F58012E0
:10FE3000024357D0B1F1804F32DD024616F07EFB0F
:10FE4000334B002216F0C2F917F0A4FF22462B46CE
:10FE5000804689462046294616F0BAF922460646CB
:10FE60000F462B464046494616F0B2F902460B466D
:10FE70000020274916F08CFC0B46024639463046D6
:10FE800016F0A4F9BDE8F84300F052BE02460B4656
:10FE900016F09CF902460B4616F07AFCBDE8F88392
:10FEA0001B4B002216F092F902460B4604460D4603
:10FEB00016F08EF922462B4606460F462046294666
:10FEC00016F03CFB02460B463046394616F080F9E8
:10FED00017F060FF22462B4616F07AF9BDE8F8438A
:10FEE000FFF75AB800200021BDE8F88300F020FE9B
:10FEF00003A3D3E9002316F06BF9BDE8F88300BF34
:10FF0000EF39FAFE422EE63FFFFFEF3FFFFFAF4122
:10FF10000000F03F000000002DE9F04FC64B2DED32
:10FF2000028B21F00049994583B004460D4615DD4A
:10FF300009F1404909F58019034659EA030300F025
:10FF4000058102460B4616F041F902460B4616F0B3
:10FF50001FFC03B0BDEC028BBDE8F08FB74B994599
:10FF60000E460FDCB9F1795F80F2708196A3D3E978
:10FF7000002316F02DF9B24B002216F06FFD002879
:10FF800040F01C812046294617F03AF802460B46FD
:10FF90000020AB4916F01AF9AA4B002216F0CEFA4F
:10FFA0008BA3D3E9002304460D4616F0C7FA8AA3B3
:10FFB000D3E9002316F00CF922462B4616F0BEFAC0
:10FFC00087A3D3E9002316F001F922462B4616F049
:10FFD000B5FA85A3D3E9002316F0FAF822462B469A
:10FFE00016F0ACFA82A3D3E9002316F0EFF822460C
:10FFF0002B4616F0A3FA80A3D3E9002316F0E8F805
:020000040801F1
:1000000022462B4616F09AFA7DA3D3E900238246B6
:100010008B462046294616F091FA7BA3D3E90023AC
:1000200016F0D4F822462B4616F088FA78A3D3E9C6
:10003000002316F0CDF822462B4616F07FFA76A361
:10004000D3E9002316F0C2F822462B4616F076FAC2
:100050007B4B002216F0BCF807468846204629460E
:1000600017F098FEDFF8E0C14BEC18ABE145824693
:100070008B46CDE900AB00F38280DDE900239B468F
:1000800016F0A6F84346894680463A4651EC180BCE
:1000900016F07EFB02460B464046494616F04EFAE5
:1000A0004FF0000A8046894652465B465046594604
:1000B00016F044FA02460B462046294616F086F80A
:1000C000524604460D465B46DDE9000116F080F815
:1000D00002460B462046294616F05AFB02460B46BE
:1000E00016F076F802460B464DA1D1E9000116F054
:1000F0006DF802460B464046494616F067F85246F0
:1001000004460D465B465046594616F061F80246D5
:100110000B4645A1D1E9000116F058F802460B46FE
:100120002046294616F052F802460B463EA1D1E978
:10013000000116F04BF8002E3FF70BAF01F1004322
:10014000194603B0BDEC028BBDE8F08F38A3D3E9AC
:10015000002316F0F3F932A3D3E9002306460F4635
:100160002046294616F0EAF902460B463046394643
:1001700016F02EF803B0BDEC028BBDE8F08F3A46C6
:10018000434651EC180B16F003FB52465B4616F043
:10019000D5F952465B4616F01BF802460B4616F0A0
:1001A00017F81FA3D3E9002316F010F802460B46F8
:1001B0001FA1D1E9000116F009F8BCE72046294645
:1001C000C7E600BFAFF300809C7500883CE4377E33
:1001D00009F7FD0DE13D023F88B20175E0EF493FAF
:1001E0003B8F68B52882A43F5544880E55C1C93F4E
:1001F0007D6FEB0312D6D43F555555555555C53F28
:1002000082922EB1C5B8B33F59018D1B6C06E63FF3
:10021000C88A599CE52A00404B2D8A1C273A034086
:10022000075C143326A6913C182D4454FB21E93F6A
:10023000182D4454FB21F93FFFFFEF3FFFFFDF3F45
:100240000000F03F0000E03F3233EF3F02460B4634
:1002500016F074F939A3D3E9002306460F4616F0C9
:100260006DF938A3D3E9002315F0B2FF32463B46BF
:1002700016F064F935A3D3E9002315F0A7FF324641
:100280003B4616F05BF933A3D3E9002315F0A0FF3A
:1002900032463B4616F052F930A3D3E9002315F05D
:1002A00095FF32463B4616F049F92EA3D3E90023C9
:1002B00015F08EFF32463B4616F040F92BA3D3E9EA
:1002C0000023804689463046394616F037F929A37F
:1002D000D3E9002315F07AFF32463B4616F02EF99B
:1002E00026A3D3E9002315F073FF32463B4616F0F0
:1002F00025F924A3D3E9002315F068FF32463B46D5
:1003000016F01CF90C4B002215F062FF02460B465A
:100310004046494616F03CFA22462B4616F00EF9A6
:1003200022462B4615F054FF03B0BDEC028BBDE80E
:10033000F08F00BFAFF300800000F03F09F7FD0D24
:10034000E13D023F88B20175E0EF493F3B8F68B560
:100350002882A43F5544880E55C1C93F7D6FEB03E9
:1003600012D6D43F555555555555C53F82922EB19D
:10037000C5B8B33F59018D1B6C06E63FC88A599C2E
:10038000E52A00404B2D8A1C273A0340000000005C
:100390002DE9F84F994653425F4F134329F0004E21
:1003A0004EEAD373BB42904604460D463DD84642C2
:1003B000064321F0004A4AEAD676BE4203468B46FF
:1003C00033D809F1404606F5801616433DD04FEA72
:1003D000A97606F002065AEA030346EAD1762CD043
:1003E0005EEA020335D0BE4546D0BA4531D0AAEB0D
:1003F0000E0EBEF1747F4FEA2E5339DAB9F1000FB9
:1004000046DA3C3344DA00200021012E58D0022E77
:1004100049D086B134A3D3E9002315F0D7FE34A325
:10042000D3E9002315F0D2FE05E022462B464046D4
:10043000494615F0CDFEBDE8F88F022E10D0032EF0
:10044000F9D12DA1D1E90001F5E7BDE8F84FFEF79C
:100450000BBBBBF1000F07DB29A1D1E90001EAE7E3
:1004600023A1D1E90001E6E727A1D1E90001E2E7F4
:1004700023A1D1E90001C8E7F24506F1FF3623D0F8
:10048000022E29D8254B03EBC606D6E90001D2E798
:1004900042464B462046294616F07AF916F0B0FD42
:1004A000FEF7E2FAB1E710A3D3E9002315F08EFEC0
:1004B00002460B460EA1D1E9000115F087FEBAE70E
:1004C00001F100431946B6E7022E08D8144B03EB9E
:1004D000C606D6E90001AEE700200021ABE70CA17B
:1004E000D1E90001A7E700BF075C143326A6A13CB1
:1004F000182D4454FB210940182D4454FB2109C0F8
:10050000182D4454FB21F93F182D4454FB21F9BF09
:10051000182D4454FB21E93F0000F07FB0990208F8
:1005200098990208000000002DE9F84343423E4A32
:10053000034321F0004747EAD373934204460D4634
:1005400059D8974265D0394B9F420E4623DD384B30
:100550009F423D462ADD02463B46394615F038FEAD
:1005600022463B4604460D4600202F4915F02EFE3C
:1005700002460B462046294616F00AF9FEF70CFD06
:100580002C4B002215F0DAFF002E02DA01F10043B5
:100590001946BDE8F88322A3D3E9002315F018FE1D
:1005A0000022002316F05AFA78BB3D4622462B461D
:1005B0002046294615F00CFE22462B4680468946E9
:1005C00015F0BCFF22462B4604460D460020164976
:1005D00015F0FCFD02460B462046294616F0D8F8D9
:1005E00042464B4615F0F4FDFEF7D6FC114B0022B7
:1005F00015F0A4FFC8E702460B4615F0E7FD0246DA
:100600000B4616F0C5F8BDE8F88320462946BDE83C
:10061000F8830022002316F0BBF8BDE8F88300BF82
:100620009C7500883CE4377E0000F03FFFFF2F3EC2
:10063000FFFFDF3F0000E03F2DE9F8434E4B21F084
:1006400000449C4206460F4648DC4C4B9C4218DD59
:100650004B4B9C4266DD4B4B9C427EDD4A4B9C42A1
:1006600049DD01339C4243D041A3D3E90023104626
:10067000194615F063FF06460F4630463946BDE879
:10068000F88316F0BDFC02F06FFD404B002280465F
:10069000894615F09DFDB4F1725F06460F46ECDB0E
:1006A00042464B464046494615F048FF32463B46D7
:1006B00004460D463046394615F08AFD02460B4683
:1006C0002046294616F064F8304B002215F080FDD4
:1006D00006460F4630463946BDE8F88302460B46CB
:1006E00015F02CFF06460F4630463946BDE8F88324
:1006F000274B9842B8D83046394616F081FC254B36
:10070000002215F01BFF00F047F8224B04460D466F
:10071000002215F013FF22462B4615F00FFF064668
:100720000F46AAE716F06CFC00F036F8194B0022D1
:1007300004460D4615F002FF22462B4604460D46A0
:100740000020144916F024F802460B46204629469C
:1007500015F03EFD06460F468FE716F051FC00F0FF
:100760001BF80C4B002215F0E9FE06460F4684E705
:100770009C7500883CE4377EFFFFEF7F422ED63F1A
:10078000FFFF3540412E8640CD3386400000F03FCC
:100790007DF8B98F0000E03F2DE9F04FDA4F2DEDE5
:1007A000028B21F00042BA4283B004460D464FEA64
:1007B000D17612D9D54FBA4229D9C1F313030343D5
:1007C000024640F05481002E00F0EB800020002112
:1007D00003B0BDEC028BBDE8F08FCD4B9A4253D8ED
:1007E000CC4B9A4200F2E480B1A3D3E9002315F088
:1007F000EFFCC94B002216F031F9002800F0D88038
:10080000C54B20462946002215F0E2FCCBE0AAA306
:10081000D3E9002316F022F9002840F03081A8A384
:10082000D3E900232046294616F0FAF80028CDD156
:10083000BA49A5A3D3E9002301EBC6062046294601
:1008400015F07CFED6E9002315F0C2FC16F026F95F
:10085000019015F009FE9EA3D3E9002306460F463A
:1008600015F06CFE02460B462046294615F0AEFCFC
:1008700099A3D3E90023804689463046394615F0CE
:100880005DFE41EC180B19E0A54B9A42D0D8A54B60
:1008900003EBC603D3E9002315F098FCA24BF2004A
:1008A000134493ED007BC6F1010AAAEB06038046D0
:1008B00089460193B0EE478AF0EE678A53EC182B15
:1008C0004046494615F082FC02460B4682468B465E
:1008D00015F034FE82A3D3E9002304460D4615F03B
:1008E0002DFE81A3D3E9002315F070FC22462B4690
:1008F00015F024FE7EA3D3E9002315F069FC2246FF
:100900002B4615F01BFE7CA3D3E9002315F05EFCFB
:1009100022462B4615F012FE79A3D3E9002315F0E9
:1009200057FC22462B4615F009FE02460B46504660
:10093000594615F04BFC019B0F46064654465D4652
:1009400001463A46002B6CD032463B46504659464B
:1009500015F0F4FD32463B4604460D4600204FF0AC
:10096000804115F033FC02460B462046294615F01F
:100970000FFF02460B4651EC180B15F027FC4246C0
:100980004B4615F023FC02460B460020624915F049
:100990001DFC019A6FF47F739A4278DB044601EBE9
:1009A00002552046294603B0BDEC028BBDE8F08F0E
:1009B00022462B462046294615F0C0FD48A3D3E920
:1009C000002306460F4615F0B9FD47A3D3E90023DF
:1009D00015F0FCFB32463B4615F0B0FD44A3D3E9CD
:1009E000002315F0F5FB32463B4615F0A7FD42A368
:1009F000D3E9002315F0EAFB32463B4615F09EFD95
:100A00003FA3D3E9002315F0E3FB32463B4615F044
:100A100095FD02460B462046294615F0D7FB0A46AF
:100A20000146914688460A464B462046294615F01F
:100A300085FD002206460F464FF08043404649465A
:100A400015F0C4FB02460B463046394615F0A0FEB1
:100A500022462B4615F0BAFB02460B4600202E49D3
:100A600015F0B4FB03B0BDEC028BBDE8F08F0B4674
:100A700015F0AEFB03B0BDEC028BBDE8F08F0CA30C
:100A8000D3E900231046194615F058FD8BE7019B6A
:100A900003F57A7A01EB0A53194600224FF0B87336
:100AA00015F04CFD03B0BDEC028BBDE8F08F00BF2C
:100AB0009C7500883CE4377EEF39FAFE422E864072
:100AC00051302DD5104987C0FE822B654715F73F61
:100AD0000000E0FE422EE63F763C7935EF39EA3DF4
:100AE000D0A4BE726937663EF16BD2C541BDBB3E34
:100AF0002CDE25AF6A56113F93BDBE166CC1663F12
:100B00003E5555555555C53F412E8640FFFFEF7F59
:100B1000422ED63FFFFF2F3E0000F03FC89902084B
:100B2000B1A2F03FD8990208E8990208000000003D
:100B30002DE9F04F2DED028BB1F5801F83B00246F9
:100B40000B460E4658DA21F00044044300F0FB80C7
:100B50000029C0F23781DC4B002215F0EFFC0E4675
:100B60000B46DA498E4202466FF0350E49DCC6F379
:100B7000130505F5152707F6647707F4801787F046
:100B80007F5C8CF4401C3415D14B10464CEA0501B7
:100B90000022A4F2FF34744415F018FBAB1CC3F31D
:100BA0001303022B04EB175482468B464FF00002CE
:100BB00030DC002315F02AFF002800F0CF80002C45
:100BC00000F05681204615F04FFCABA3D3E900237B
:100BD00006460F4615F0B2FCA9A3D3E9002304464C
:100BE0000D463046394615F0A9FC02460B46204614
:100BF000294615F0EDFA08E0B4498E424FF0000E98
:100C0000B5DD1046194615F0E3FA03B0BDEC028BD2
:100C1000BDE8F08F4FF0804315F0DAFA02460B463C
:100C20005046594615F0B4FD02460B46204643ECAB
:100C3000182B15F019FC53EC182B06460F4651ECF7
:100C4000180BCDE9006715F079FC02460B4680468B
:100C5000894615F073FC8CA3D3E9002306460F46A2
:100C600015F06CFC8AA3D3E9002315F0B1FA3246E3
:100C70003B4615F063FC88A3D3E9002315F0A8FADE
:100C800032463B4615F05AFC85A3D3E9002315F004
:100C90009FFA42464B4615F051FC83A3D3E900234B
:100CA000804689463046394615F048FC80A3D3E992
:100CB000002315F08DFA32463B4615F03FFC7EA32B
:100CC000D3E9002315F084FA32463B4615F036FC92
:100CD0000B4602464946404615F07AFAA5F5C2236E
:100CE000C5F5D725A3F27A4351351D43002D06469D
:100CF0000F4659DD774B00225046594615F01EFC31
:100D000052465B4615F01AFC80468946002C60D19D
:100D100042464B463046394615F05AFA53EC182BEA
:100D200015F00CFC02460B464046494615F04EFABB
:100D300002460B465046594615F048FA03B0BDEC42
:100D4000028BBDE8F08F002200236349002015F0DC
:100D50001FFD03B0BDEC028BBDE8F08F58A3D3E9B3
:100D600000235046594615F0E9FB02460B46002089
:100D7000584915F02BFA524606460F465B46504638
:100D8000594615F0DBFB02460B463046394615F056
:100D9000D5FB06460F46002C52D102460B46504664
:100DA000594615F013FA30E7002C40F097800246C0
:100DB0000B465046594615F009FA53EC182B15F01E
:100DC000BDFBB5E715F002FA0022002315F0E0FCA8
:100DD0001BE729A3D3E90023DDE9000115F0AEFBF1
:100DE00042464B4604460D463046394615F0F0F96A
:100DF00053EC182B15F0A2FB21A3D3E900230646E0
:100E00000F46DDE9000115F099FB02460B4630461E
:100E1000394615F0DDF902460B464046494615F0C5
:100E2000D5F952465B4615F0D1F902460B462046ED
:100E3000294615F0CBF903B0BDEC028BBDE8F08F6D
:100E4000204615F011FB0CA3D3E900238046894608
:100E500015F074FB0AA3D3E9002304460D4640466F
:100E6000494615F06BFB02460B4630463946D6E73D
:100E700000200021C9E600BF0000E0FE422EE63F50
:100E8000763C7935EF39EA3D44523EDF12F1C23FFC
:100E9000DE03CB966446C73F599322942449D23F40
:100EA000935555555555E53F9FC678D0099AC33F90
:100EB000AF788E1DC571CC3F04FA97999999D93FA7
:100EC000555555555555D53F00005043FFFFEF7F11
:100ED0000000F03F0000E03F000050C3DDE9008962
:100EE0000DA3D3E900234046494615F027FB3246BF
:100EF0003B4604460D465046594615F067F953ECFB
:100F0000182B15F01BFB06A3D3E9002306460F465A
:100F1000A5E700BFAFF300800000E0FE422EE63FF1
:100F2000763C7935EF39EA3DB1F5801F2DE9F8437C
:100F300004460D460B4619DA21F00042024359D00F
:100F400000295FDB3A4B002215F0F8FA394A0D46CA
:100F50002B46934204466FF035010CDD22462B46AA
:100F60002046294615F034F9BDE8F883314A93420A
:100F70004FF00001F2DC1815A0F2FF300844C70F53
:100F800000EBD070C3F3130615F06EFAC7F57F734C
:100F9000033346EA03550F46064629462046FFF727
:100FA000C7FD1DA3D3E90023804689463046394654
:100FB00015F0C4FA1AA3D3E9002304460D464046AF
:100FC000494615F0BBFA02460B462046294615F065
:100FD000FFF815A3D3E9002304460D4630463946F1
:100FE00015F0ACFA02460B462046294615F0F0F8FB
:100FF000BDE8F883002200230F49002015F0C8FB4C
:10100000BDE8F883024615F0E1F80022002315F050
:10101000BFFBA9E7AFF30080362BF111F3FE593D7A
:101020000EE526157BCBDB3F00609F501344D33F7A
:1010300000005043FFFFEF7F000050C3000000009E
:101040002DE9F04F2DED0A8B23F0004B1F469A46F9
:101050005BEA020389B03DD0164694466E4A21F001
:101060000048904504460D46894603462BDC38D09F
:10107000934528DC684A934522D0B9F1000F3BDB49
:1010800000220092BCF1000F52D1634A934500F058
:101090009D80624A934500F0AB80BAF1804F00F02A
:1010A000D4845F4A924543D1B9F1000F40DB20461A
:1010B000294609B0BDEC0A8BBDE8F04F16F06ABEB8
:1010C000BCF1000FD9D008F1404808F5801858EA63
:1010D000030309D15149002009B0BDEC0A8BBDE8DA
:1010E000F08F08B9C345C5DD4E4809B0BDEC0A8B89
:1010F000BDE8F04F17F086BC4B4A93457FDCA2F168
:10110000547293450FDD4FEA2B52A2F2FF32142A9C
:1011100040F3A384C2F134022CFA02F000FA02F286
:10112000624500F0EC8400220092BCF1000FB0D0C8
:1011300020462946029315F063FF029B3BBBB8F1A2
:10114000000F04D0354B29F040429A421FD1BAF12A
:10115000000F05DA02460B460020304915F018FB57
:10116000B9F1000FB8DA009B08F1404808F5801883
:1011700058EA030340F0968402460B46104619468F
:1011800015F024F802460B4615F002FBA4E7009A7E
:101190004FEAD973013B0693134333D0234B9B454E
:1011A00048DD03F104739B45214B40F3CF83984501
:1011B00040F35D83BAF1000F40F35D8314A3D3E9DC
:1011C00000231046194615F0B9F985E708F14042A9
:1011D00002F5801213433FF47DAF154B984540F361
:1011E0007783BAF1000FC0F246833046394673E781
:1011F000BAF1000FC0F22184204629466CE7022292
:1012000000923FE722462B46B8E700BFAFF30080CD
:101210009C7500883CE4377E0000F07F0000F03FC2
:101220000000E03F44AD0208FFFF3F430000E04103
:10123000FFFFEF3FE84B09EA0303002B40F0FB837D
:10124000E64B002215F07AF96FF0340588464FEA34
:101250002853E34CC8F31302A3F2FF3342F07F5844
:101260005D19A242079548F4401840F3D383DD4B43
:101270009A4240F320849FEDC07BB0EE47BAF0EE77
:1012800067BAB0EE47CAF0EE67CA9FEDBD7B013585
:1012900054EC173B0795A8F580184FF0000944EC73
:1012A000183B1A4641462346824614F08FFF53EC02
:1012B000182B04460D465046414614F089FF02465D
:1012C0000B460020C84915F063FA45EC1A4B41EC77
:1012D000190B51EC1A0B53EC192B15F02FF9C346CF
:1012E0004FEA680848F0005808F5002303EB0905A9
:1012F0000A4600230146CDE902120293DDE9028984
:101300000024CDE904122B4622464046494615F0FA
:1013100015F902460B4651EC1A0B14F057FF41EC3D
:10132000170B53EC182B2046294655EC174B14F09D
:101330004DFF02460B465046594614F047FF4246C1
:101340004B4615F0FBF802460B462046294614F0A2
:101350003DFF53EC192B15F0F1F8DDE904AB044621
:101360000D4652465B465046594615F0E7F886A3AF
:10137000D3E9002345EC1A4B04460D4615F0DEF880
:1013800083A3D3E9002314F023FF22462B4615F054
:10139000D5F881A3D3E9002314F01AFF22462B4687
:1013A00015F0CCF87EA3D3E9002314F011FF2246F8
:1013B0002B4615F0C3F87CA3D3E9002314F008FFF3
:1013C00022462B4615F0BAF879A3D3E9002314F08E
:1013D000FFFE22462B4604460D461046194615F0E0
:1013E000ADF802460B462046294615F0A7F84246BE
:1013F00004460D464B4650465946CDE904AB14F021
:10140000E7FE53EC1A2B15F099F822462B4614F000
:10141000DFFE424604460D464B464046494615F01F
:101420008DF845EC194B714B002282468B4614F027
:10143000CFFE53EC192B14F0CBFE029C0D46224636
:101440002B464046494615F079F8684B8046894658
:1014500000222046294614F0B9FE52465B4614F09D
:10146000B5FE02460B4651EC190B14F0AFFEDDE958
:10147000042315F063F849EC188B22468046894610
:101480002B4651EC1A0B15F059F802460B46404614
:10149000494614F09DFE82468B4652465B4651EC0F
:1014A000180B14F095FE029C43A3D3E900232046B9
:1014B0000D4615F043F853EC182B8046894620461C
:1014C000294614F083FE02460B465046594614F056
:1014D0007DFE3BA3D3E9002315F030F849EC198BCE
:1014E00039A3D3E90023804689462046294615F0D2
:1014F00025F802460B464046494614F069FE53EC77
:101500001C2B14F065FE824607988B4614F0ACFF46
:101510005246804689465B4651EC190B14F058FE42
:1015200053EC1B2B14F054FE42464B4614F050FE75
:10153000029C42464B4620460D4614F047FE53ECB3
:101540001B2B14F043FE53EC192B14F03FFE024604
:101550000B465046594614F039FE82468B46009B96
:10156000069A013B134340F0AC819FED197BB0EE2E
:10157000479AF0EE679A3BE0000000000000000090
:10158000000000000000F03FEF4E454A287ECA3FB1
:1015900065DBC9934A86CD3F01411DA96074D13FE7
:1015A0004D268F515555D53FFFAB6FDBB66DDB3FF9
:1015B000033333333333E33F000000E009C7EE3F2A
:1015C000FD033ADC09C7EE3FF5015B14E02F3EBE98
:1015D000000000000000F0BF0000F07F000040436A
:1015E0008E98030079B60B000000F03F0000084021
:1015F0000023CDE900670093DDE9008930464246CB
:1016000039464B4614F0E2FD22462B4614F096FF75
:1016100032463B4606460F465046594614F08EFF6A
:1016200002460B463046394614F0D2FD4246824609
:101630008B464B462046294614F080FF06460F464F
:101640003B4650465946324614F0C2FDBA4B9942C9
:1016500004460D46884640F3118101F13F4303F5EE
:10166000E003034340F010829DA3D3E900235046DA
:10167000594614F0ADFD324641EC180B3B4620466E
:10168000294614F0A3FD02460B4651EC180B15F049
:10169000E5F9002840F0F881C8F30A534FF48012AE
:1016A000A3F2FE3342FA03F34344A449C3F30A52BC
:1016B000A2F2FF3241FA02FCC3F3130523EA0C0144
:1016C000C2F1140445F48015B8F1000F0B4645FA39
:1016D00004F102914FF00000B8BF49420246B8BF82
:1016E00002913046394614F071FD06460F463B46DE
:1016F00050465946324614F06BFD029B1B05009381
:101700000D46002478A3D3E900232046294614F08F
:1017100015FF3246804689463B462046294614F04E
:1017200055FD02460B465046594614F04FFD70A336
:10173000D3E9002314F002FF6FA3D3E90023064688
:101740000F462046294614F0F9FE02460B46304665
:10175000394614F03DFD06460F4632463B464046AC
:10176000494614F035FD42464B460D46044614F0FA
:101770002DFD02460B463046394614F027FD2B4618
:1017800082468B4622462946204614F0D7FE5CA3AB
:10179000D3E9002306460F4614F0D0FE5AA3D3E93E
:1017A000002314F013FD32463B4614F0C7FE58A345
:1017B000D3E9002314F00CFD32463B4614F0BEFE84
:1017C00055A3D3E9002314F001FD32463B4614F043
:1017D000B5FE53A3D3E9002314F0FAFC32463B468E
:1017E00014F0ACFE02460B462046294614F0EEFCEF
:1017F00006460F4632463B462946204614F09EFEDA
:101800000022804689464FF080433046394614F026
:10181000DDFC02460B464046494614F0B9FF5246ED
:1018200006460F465B462946204614F087FE524680
:101830005B4614F0CDFC02460B463046394614F0A8
:10184000C5FC2B46224614F0C1FC02460B46002084
:101850003B4914F0BBFC009D0D44B5F5801FC0F260
:101860004A81294653EC192B14F068FE34E4BAF18E
:10187000000FFFF6A3AC002000212DE4DFF8C8C064
:1018800021F00043634540F3F7802E4B0B440343A4
:101890000AD132463B4614F099FC52465B4615F09D
:1018A000D3F800283FF4F8AE1FA3D3E9002351EC8E
:1018B000190B14F043FE1CA3D3E9002314F03EFEE1
:1018C0000AE49FED1B7BB0EE479AF0EE679A8FE635
:1018D000BAF1000FCFDA304607F10041FFF7FCBB49
:1018E000FE822B654715973C00000000432EE63F23
:1018F000EF39FAFE422EE63F396CA80C615C20BE3F
:10190000D0A4BE726937663EF16BD2C541BDBB3E05
:101910002CDE25AF6A56113F93BDBE166CC1663FE3
:101920003E5555555555C53F59F3F8C21F6EA50193
:10193000000000000000F03FFFFF8F40FFFF0F009E
:101940000000F03F00346F3FFFCB904098458EDBA6
:10195000894B98453FF72EAC874B002214F036FC9C
:1019600071A3D3E9002304460D4614F0E7FD70A3EC
:10197000D3E9002382468B462046294614F0DEFD3B
:101980007E4B8046894600222046294614F0D6FD2B
:1019900002460B4668A1D1E9000114F017FC22466B
:1019A0002B4614F0CBFD02460B460020744914F080
:1019B0000DFC22462B4604460D461046194614F0EF
:1019C000BDFD02460B462046294614F0B7FD5CA338
:1019D000D3E9002314F0B2FD02460B4640464946C7
:1019E00014F0F4FB804689465046594642464B4621
:1019F00014F0EEFB002452465B4620460D4614F0E0
:101A0000E5FB02460B464046494614F0DFFB8246A2
:101A10008B46A4E59FED4C7BB0EE47BAF0EE67BA7B
:101A2000B0EE47CAF0EE67CA9FED497B4FF0000960
:101A300054EC173B33E4002509E422462B464E497B
:101A4000002014F0A5FEFFF747BB22462B46204698
:101A5000294614F073FDFFF73FBBBCF1000F3ED1E8
:101A6000C2F114024BFA02F000FA02F25A4551D0C8
:101A7000CDF800C0FFF70DBB414A934251DCDDE9D0
:101A80000012009102913CE633A3D3E9002351EC0C
:101A9000190B14F053FD30A3D3E9002314F04EFDCD
:101AA000FFF71ABB009B012B7FF416AB01F100433B
:101AB0001946FFF711BB9FED2A7BB0EE47BAF0EE57
:101AC00067BA9FED297BB0EE47CAF0EE67CA9FED7B
:101AD000287B4FF4802954EC173BFFF7E0BB2046EE
:101AE0002946009315F08CFA009B002B7FF48AABFB
:101AF0000093FFF724BB029A01F082FDB2E600F0EA
:101B00000100C0F102020092BCF1000F3FF4C1AA33
:101B1000FFF70EBB00F00100C0F102020092FFF7D8
:101B2000B8BA1B15BAE500BF000000604715F73FC3
:101B300044DF5DF80BAE543E555555555555D53FD0
:101B4000FE822B654715F73F0000000000000000F3
:101B5000000000000000F03F9C7500883CE4377EE8
:101B60000000004003B8E23F06D0CF43EBFD4C3EFF
:101B7000000000000000F83F0000F03F0000D03FF0
:101B80000000E03F000000002DE9F04FD84B2DEDA4
:101B9000048B21F000459D4289B006460F4614464D
:101BA00040F38880D34B9D428B4629DC0029C2A399
:101BB000D3E9002340F3CD8114F008FBCE4B9D42C6
:101BC00006460F4600F08F80BDA3D3E9002314F032
:101BD000FDFA02460B46C4E900233046394614F0AC
:101BE000F5FAB7A3D3E9002314F0F0FAC4E902012F
:101BF0004FF0010A504609B0BDEC048BBDE8F08FF0
:101C0000BE4B9D4240F39280BD4B9D4260DC4FEA4B
:101C1000255AAAF2164AA5EB0A510F4614F03EFFC8
:101C200014F022FC804689463046394642464B46EF
:101C3000CDE9028914F0CAFAB24B002214F07EFCFE
:101C40000F46064614F02AFF054614F00DFC024626
:101C50000B4630463946CDE9042314F0B7FAA94BB8
:101C6000002214F06BFC02460B46CDE9062300224D
:101C7000002314F0CBFE002800F06981002D0CBF7A
:101C800001230223A04A019202215246009102A898
:101C9000214600F0A1FBBBF1000F8246AADA626880
:101CA000E36802F1004203F10043C0F1000A626000
:101CB000E3609FE74FF0000A002200235046C4E98A
:101CC0000067C4E9022309B0BDEC048BBDE8F08FC6
:101CD00002460B4614F07AFA4FF0000AC4E90201FA
:101CE000C4E9000186E778A3D3E9002314F06EFA73
:101CF00077A3D3E9002306460F4614F067FA02469D
:101D00000B46C4E900233046394614F05FFA70A34D
:101D1000D3E9002314F05AFA4FF0010AC4E9020192
:101D2000504609B0BDEC048BBDE8F08F15F068F9A2
:101D300069A3D3E9002306460F4614F0FFFB734B5B
:101D4000002214F045FA14F0A9FE824614F08CFB30
:101D500059A3D3E900238046894614F0EFFB0246DD
:101D60000B463046394614F031FA55A3D3E9002327
:101D700006460F464046494614F0E0FBBAF11F0FF5
:101D800049EC198B47EC186B804689460BDC604B9D
:101D90000AF1FF3253F82230AB4204D002460B4620
:101DA000304639467FE042464B4651EC180B14F062
:101DB0000DFA0A46C2F30A53C3EB1553102B014622
:101DC000064617464FEA255540F3A4803EA3D3E9C3
:101DD000002351EC190B14F0B1FB59EC188B06469B
:101DE0000F4632463B4618EE100A494614F0EEF90B
:101DF00041EC180B404653EC182B494614F0E6F919
:101E000032463B4614F0E2F931A3D3E900230646FB
:101E10000F4651EC190B14F091FB32463B4614F07F
:101E2000D5F98046894642464B4651EC180B14F0D2
:101E3000CDF90A46C2F30A53ED1A312D0146064682
:101E4000174667DD26A3D3E9002351EC190B14F0E4
:101E500075FB56EC185B8046894642464B4618EEA9
:101E6000100A314614F0B2F941EC180B314653EC2C
:101E7000182B284614F0AAF942464B4614F0A6F94E
:101E800019A3D3E9002306460F4651EC190B14F0B1
:101E900055FB32463B4614F099F98046894651EC91
:101EA000180B42464B4614F091F9C4E9000106466E
:101EB0000F4631E0AFF3008000004054FB21F93FB2
:101EC0003163621A61B4D03D0000601A61B4D03D44
:101ED0007370032E8A19A33B83C8C96D305FE43F3A
:101EE0000000002E8A19A33BC14920259A837B3923
:101EF000FB21E93F7BD90240FB21F93FFB2139411E
:101F0000FFFFEF7F000070419CAF02080000E03F40
:101F10001CAF0208C4E9001232463B4651EC180BD4
:101F200014F054F942464B4614F050F9BBF1000F3F
:101F3000C4E90201BFF65EAE07F1004501F10043BE
:101F4000C4E90065C4E90203CAF1000A52E60323AA
:101F500098E614F03DF9244B9D4206460F4616D0F4
:101F60001BA3D3E9002314F033F902460B46C4E95E
:101F700000233046394614F029F915A3D3E900238C
:101F800014F026F94FF0FF3AC4E9020132E612A339
:101F9000D3E9002314F01CF911A3D3E9002306466A
:101FA0000F4614F015F902460B46C4E900233046EB
:101FB000394614F00BF90AA3D3E9002314F008F909
:101FC0004FF0FF3AC4E9020114E600BFAFF300800E
:101FD0003163621A61B4D03D0000601A61B4D03D33
:101FE0007370032E8A19A33BFB21F93F0000000008
:101FF000574A2DE9F84F21F00048904504460D4618
:1020000058DC544B0029B4BF534F544F98454FF000
:10201000000612DD524B984540F38C80514B984599
:1020200054DD013398454ED047A3D3E90023204621
:10203000294614F083FABDE8F88F4B4B98455CDCD9
:1020400041A3D3E9002314F0C3F8484B002214F055
:1020500005FDA8BB2046294614F0D2FF01F084F804
:1020600004460D4622462B462046294614F0B0F879
:10207000224682468B462B462046294614F05EFABD
:102080003A4B8046894600222046294614F0A0F8A3
:1020900002460B464046494614F07AFB02460B4680
:1020A0005046594614F092F832463B4614F046FA30
:1020B000BDE8F88F02460B4614F08AF8BDE8F88FA9
:1020C00020462946FAE72A4B9842ADD820462946B1
:1020D00014F096FF214B002214F030FAFEF75CFB5F
:1020E00004460D4622462B463046394614F026FA61
:1020F00022462B4614F022FAE0E714F081FF01F0AB
:1021000033F81C4B984504460D46ABDD174B0022B7
:1021100014F05EF802460B462046294614F038FBC0
:1021200022462B4614F054F832463B4614F006FA89
:10213000BDE8F88F14F064FFFEF72EFB32463B46F5
:1021400014F0FCF9BAE700BF3374AC3C1F7BAC7FE2
:10215000FFFFEF7FFFFF35400000E0BF0000E03FE2
:10216000412E8640CD338640FFFF2F3E0000F03FDA
:102170007DF8B98FFFFFEF3F2DE9F84F21F00049BF
:10218000B9F1795F2DED048B06460F4692469B46CA
:102190006CDA14F083FC002800F0EE8032463B46F7
:1021A0003046394614F0CAF977A3D3E90023044630
:1021B0000D4614F0C3F976A3D3E9002314F008F810
:1021C00022462B4614F0BAF973A3D3E9002313F087
:1021D000FDFF22462B4614F0B1F971A3D3E9002389
:1021E00013F0F6FF22462B4614F0A8F96EA3D3E9AC
:1021F000002313F0EBFF22462B4614F09FF96CA34B
:10220000D3E9002313F0E4FF22462B4614F096F99D
:1022100041EC180B6A4B00222046294614F08EF937
:1022200053EC182B804689462046294614F086F93F
:1022300052465B4604460D463046394614F07EF958
:1022400002460B462046294613F0C0FF02460B46C5
:102250004046494613F0BAFF02460B460020594952
:1022600013F0B4FFBDEC048BBDE8F88F02460B46BB
:1022700014F064F944A3D3E9002304460D4614F096
:102280005DF943A3D3E9002313F0A2FF22462B46B6
:1022900014F054F940A3D3E9002313F097FF22462A
:1022A0002B4614F04BF93EA3D3E9002313F090FF23
:1022B00022462B4614F042F93BA3D3E9002313F046
:1022C00085FF22462B4614F039F939A3D3E90023C0
:1022D00013F07EFF2B46224614F030F93A4B994515
:1022E00041EC180B96DD394B99453ADC0022A9F5F3
:1022F0000013344900209046994613F067FF41ECE3
:10230000190B2F4B00222046294614F017F942469C
:102310004B4613F05BFF53EC182B80468946204652
:10232000294614F00BF952465B4604460D463046EA
:10233000394614F003F902460B462046294613F0AD
:1023400045FF02460B464046494613F03FFF024612
:102350000B4651EC190B13F039FFBDEC048BBDE8B3
:10236000F88F9FED157BDFF86890B0EE479AF0EE9E
:10237000679A4FF00008C4E7BDEC048B11490020B8
:10238000BDE8F88FAFF30080D43888BEE9FAA8BD65
:10239000C4B1B4BD9EEE213EAD529C804F7E923EB4
:1023A0009015CB19A001FA3E7751C1166CC1563F6A
:1023B0004C5555555555A53F000000000000E73F1E
:1023C0000000E03F0000F03F3233D33F0000E93F20
:1023D0000000D23F000000002DE9F04FADF5197D5F
:1023E000B84CA29D089354F825400594013B12F186
:1023F000140F04900B910393C0F22083B249D31EB3
:1024000081FB0301DB17C3EBA10307930133A3EBAC
:102410008303DB00D3180693079A039BD41A059A0B
:10242000D6181AD40136A39F4FF000084FF00009C8
:10243000264420AD08E057F8240014F015F80134C4
:10244000B442E5E8020108D0002CF4DA0134404639
:102450004946B442E5E80201F6D1059B002BC0F2E3
:10246000B883089BDDF80C90DA000292059A1A44B2
:102470000192049A20A901EBC30A0DF5E07B02EB5F
:10248000C308039B002B4FF000044FF0000511DB45
:10249000049E574677E90223F6E8020114F04EF84D
:1024A00002460B462046294613F092FE4645044656
:1024B0000D46EFD1019B09F101099945EBE8024571
:1024C0000AF1080ADDD1059A04980CA901EB8203F0
:1024D00002990144083B8B460BA90993134601EB73
:1024E00082020A920193019A98A901EBC203002A81
:1024F00053E928452ADD0DF5E07909EBC2080DF115
:10250000300A724B00222046294614F017F814F0C6
:10251000C5FA13F0A9FF6E4B002206460F4614F0D1
:102520000DF802460B462046294613F04FFE14F0E4
:10253000B5FA044678E902234AF8044B3046394696
:1025400013F046FEC84504460D46DAD1DDF8189072
:10255000204629464A4601F053F800224FF07F53A7
:1025600004460D4613F0EAFFFCF79AFC594B002293
:1025700013F0E4FF02460B462046294613F026FEE0
:102580000D46044614F08AFA804613F06DFF0B46A0
:1025900002462946204613F019FE4B46002B0646FC
:1025A0000F4640F39980019A0CA9013AC9F118032A
:1025B00051F8225045FA03F101FA03F3EB1AC9F17D
:1025C00017050CA843FA05F5002D40F82230884481
:1025D00000F38C80002200233046394614F016FAAE
:1025E000002800F05182019B059A03F1FF3A524501
:1025F00010DC03F180430CAA013B0A9802EB830331
:10260000002253F80419834242EA0102F9D1002A58
:1026100040F0DD80059B0CAA013B52F82330002BD3
:1026200040F0D080099A012352F80419013300299F
:10263000FAD001994A1CCB1802939146079B08993E
:1026400002EB030A019B0B44984620AB0AF1804A37
:1026500003EBC808A39B0AF1FF3A03EB8A0A70ABAD
:1026600003EBC20301935AF8040F13F0FDFE0B466F
:10267000039902460029C8E9002347464FF00004A9
:1026800008F108084FF0000511DB049E01E077E92E
:102690000223F6E8020113F051FF02460B462046E2
:1026A000294613F095FD5E4504460D46EFD1019B8A
:1026B000E3E802450193029B09F101099945D2DD46
:1026C00010E700BF3CB40208ABAAAA2A0000703E83
:1026D00000007041000020406BD1019B0CAA013B1F
:1026E00052F82350ED15002D7FF774AF019B002B9E
:1026F00008F1010840F3C6810C9C002C51D1019BCC
:10270000012B20D00CAB012253F8044F002C4BD0EE
:10271000531C0CA9C4F1807441F8224001999942DC
:1027200010DD0CAA0CA852F8232000EB830300EB69
:1027300081006FF07F4100E01A688A1A43F8042B89
:102740008342F9D10124069B002B0EDD012B00F002
:102750006A81022B09D1019B5A1E0CAB0CA953F8BC
:102760002230C3F3150341F82230022D7FF432AF3B
:1027700032463B46B649002013F028FD06460F4678
:10278000002C3FF427AF069AB149002000F038FF33
:1027900002460B463046394613F018FD06460F46F2
:1027A00018E701230022B4E7019901328A42ABD134
:1027B000C9E7A84B002214F047F9002840F05081E7
:1027C000054607E7019B5A1C9146029236E70CAB7F
:1027D000069A53F82A30CDF81C80183A03950692D1
:1027E00073B9019B03F18043023B0CA901EB830306
:1027F00053F804190AF1FF3A183A0029F8D0069262
:10280000069A9349002000F0FBFEBAF1000F04463F
:102810000D46C0F2D48170AB03EBCA0B0CAA0AF1CF
:102820000103069302EB83084FEACA030BF1080980
:10283000049358F8040D13F017FE22462B4613F0AC
:102840007DFE06460F46844B2046294669E902670D
:10285000002213F073FE0CAB984504460D46E8D1F8
:1028600048ABCDE9013ADDF814A0BAF1000F4FF002
:1028700000092CDB74A3D3E90023DFF8E0815F4675
:1028800000240025002603E0B14510DBF8E8022310
:10289000F7E8020113F052FE02460B462046294695
:1028A00013F096FC0136B24504460D46ECDA019B66
:1028B000029A03EBC9034A45C3E90045ABF1080B93
:1028C00009F1010306D0BAF1000F9946D2DA0024CB
:1028D0000025ECE7A29BDDF808A0022B1EDC002BF4
:1028E00000F3058113D1049C019D083400200021D0
:1028F0002C4474E9022313F06BFCA542F9D1039B2D
:1029000013B101F1004319460B9BC3E90001079B7A
:1029100003F007000DF5197DBDE8F08FA29B032B96
:10292000F5D1BAF1000F00F06681019A049BD3182B
:10293000D3E9004502EBCA0B7BE902672046294632
:1029400032463B4613F044FCA046A94604460D46D9
:1029500022462B463046394613F038FC4B46424659
:1029600013F036FC019B5B45CBE90045CBE9020146
:10297000E2D1BAF1010F40F33E81019A049B0AF1C2
:10298000005A0AF1FF3A13444FEACA01D3E900455D
:1029900001F1080A029192440DF5947B7AE90267ED
:1029A0002046294632463B4613F012FCA046A94673
:1029B00004460D4622462B463046394613F006FCA7
:1029C00042464B4613F004FCD345CAE90045CAE928
:1029D0000201E3D1029C019B0026002710341C4415
:1029E00003F110053046394674E9022313F0F0FB79
:1029F000A542F9D106460F46039B002B40F0B58057
:102A0000019A0B99D2E90045D2E90223C1E90223D8
:102A1000079B03F00700C1E90467C1E900450DF514
:102A2000197DBDE8F08F019B5A1E0CAB0CA953F821
:102A30002230C3F3160341F8223096E600216FF0EE
:102A400017030791E6E400BF00000040FB21F93FB7
:102A50000000F03F0000E03F0000703E109A0208C6
:102A6000019B002B08F10108C8BF02253FF744AEC7
:102A700032463B466149002013F0A8FB022506467A
:102A80000F46A7E500245EE63946069F03957A4285
:102A90003046CDF81C8000F0B3FD594B00220446AF
:102AA0000D4613F0D1FF002855D0564B002220468A
:102AB000294613F043FD13F0F1FF064613F0D4FC52
:102AC0004F4B002213F03AFD0B46024629462046A2
:102AD00013F07CFB019C13F0E1FF04F1010A0CAB45
:102AE000183743F82400069743F82A6088E6019DCA
:102AF000069A002005EBC204002174E9022313F0BA
:102B000067FBA542F9D1039B002B48D10B9BC3E97E
:102B100000010B4601990246D1E9000113F056FB72
:102B2000BAF1000F0DDD4AAD0124F5E802230134AE
:102B300013F04EFBA245F8DA039B13B101F10043F9
:102B400019460B9BC3E90201079B03F007000DF533
:102B5000197DBDE8F08F2046294613F09FFF019BA9
:102B60000CAA9A4642F823004AE6019B19465A6885
:102B7000DB680D688C680B9903F10043CB60079B01
:102B80000D6002F100424A6003F0070007F10042C5
:102B90008C600E614A610DF5197DBDE8F08F0B9CCC
:102BA00001F10043C4E900030B4601990246D1E953
:102BB000000113F00BFBBAF1000FB4DCBEE7A29BDF
:102BC000022B0ADC002B11DC7FF4A1AE00200021D7
:102BD00095E6089BDB00029375E4A29B032B7FF430
:102BE00096AE48AB00260027019305E748AB0020CE
:102BF0000021019387E700260027FDE60000F03F53
:102C0000000070410000703E2DE9F04F1F4621F09A
:102C1000004383B01646B3F1795FCDE900670446FF
:102C20000D4604DA13F03AFF002800F085802246B2
:102C30002B462046294613F081FC06460F463246B5
:102C40003B462046294613F079FC42A3D3E90023F2
:102C500082468B463046394613F070FC3FA3D3E9D9
:102C6000002313F0B3FA32463B4613F067FC3DA352
:102C7000D3E9002313F0ACFA32463B4613F05EFC76
:102C80003AA3D3E9002313F0A1FA32463B4613F0EE
:102C900055FC38A3D3E9002313F09AFA0C9B804625
:102CA00089469BB3DDE90001294B002213F046FC65
:102CB00042464B46804689465046594613F03EFCF4
:102CC00002460B464046494613F080FA32463B46E0
:102CD00013F034FCDDE9002313F078FA1AA3D3E9EA
:102CE000002306460F465046594613F027FC02467D
:102CF0000B463046394613F06BFA02460B46204627
:102D0000294613F063FA03B0BDE8F08F02460B4684
:102D10003046394613F012FC0BA3D3E9002313F01D
:102D200055FA52465B4613F009FC22462B4613F037
:102D30004FFA03B0BDE8F08F2046294603B0BDE846
:102D4000F08F00BFAFF30080495555555555C53F2D
:102D50000000E03F7CD5CF5A3AD9E53DEB9C2B8A69
:102D6000E6E55A3E7DFEB157E31DC73ED561C11968
:102D7000A0012A3FA6F810111111813F00000000A8
:102D80002DE9F04F2DED048BC74C85B021F00045A7
:102D9000A54243EC192B80468946039100951CDC23
:102DA00013F07CFE002846D1129B424601331343A8
:102DB0002B4300F0C781129B012B00F0D0814B46C2
:102DC000BA49002013F0E4FC04460D46204629468B
:102DD00005B0BDEC048BBDE8F08FB54B009A9A426C
:102DE00029DD039B002B0ADA55EC194B19EE102A4A
:102DF00005F1004309F1004143EC192B8946424695
:102E00004B4689A1D1E9000113F0E0F953EC192BED
:102E100004460D4686A1D1E9000113F0D7F92246F8
:102E20002B4613F0D5F99FED847B80468946B0EEA2
:102E3000479AF0EE679A42464B464046494613F0A1
:102E40007DFB02460B4682468B4613F077FB5246CB
:102E500004460D465B464046494613F06FFB78A397
:102E6000D3E9002306460F462046294613F066FBA9
:102E700075A3D3E9002313F0ABF922462B4613F0D8
:102E80005DFB73A3D3E9002313F0A2F922462B467E
:102E900013F054FB70A3D3E9002313F099F92246F1
:102EA0002B4613F04BFB6EA3D3E9002313F090F9EC
:102EB00022462B4613F042FB6BA3D3E9002313F009
:102EC00087F952465B4613F039FB47EC186B68A351
:102ED000D3E9002306460F462046294613F02EFB71
:102EE00065A3D3E9002313F073F922462B4613F0B0
:102EF00025FB63A3D3E9002313F06AF922462B468E
:102F000013F01CFB60A3D3E9002313F061F9224600
:102F10002B4613F013FB5EA3D3E9002313F058F9FB
:102F200022462B4613F00AFB5BA3D3E9002313F0E0
:102F30004FF955EC194B02460B463046394613F013
:102F400047F953EC182B13F0F9FA2B4619EE102A17
:102F500013F03EF952465B4613F0F0FA2B4619EE99
:102F6000102A13F035F94EA3D3E9002304460D4689
:102F700051EC180B13F0E2FA22462B4613F028F915
:102F800006460F4632463B464046494613F020F976
:102F9000474B009A9A4204460D4600F38D80129BDF
:102FA000012B39D002460B460020404913F0F0FBBC
:102FB00082468B465C465346CDE9003429460020C4
:102FC00042464B46824613F001F902460B46304614
:102FD000394613F0FBF82346524613F0AFFAAB46DE
:102FE000234606460F4652465046594613F0A6FA67
:102FF000304B002213F0ECF802460B4630463946BF
:1030000013F0E6F8DDE9002313F098FA2346524660
:1030100013F0DEF804460D462046294605B0BDEC07
:10302000048BBDE8F08F00BF182D4454FB21E93F0D
:10303000075C143326A6813C00000000000000005D
:10304000D47ABF74702AFB3EE9A7F0320FB8123F62
:1030500068108D1AF726303F1583E0FEC8DB573F16
:1030600093846EE9E326823FFE41B31BBAA1AB3FD6
:10307000735360DBCB75F3BEA69237A0887E143FF6
:103080000165F2F2D844433F280356C9226D6D3FD3
:1030900037D60684F464963F7AFE10111111C13FB1
:1030A000635555555555D53FFFFF2F3E0000F0BFE6
:1030B0002794E53F0000F03F129813F0D5F922461F
:1030C00082468B462B462046294613F037FA524655
:1030D00041EC180B5B462046294613F079F802466E
:1030E0000B4651EC180B13F053FB32463B4613F0E2
:1030F0006DF802460B464046494613F067F8024613
:103100000B4613F065F802460B465046594613F03D
:103110005DF8039B9B1703F002030446C3F1010013
:103120000D4613F0A1F902460B462046294613F03E
:1031300005FA04460D462046294605B0BDEC048B31
:10314000BDE8F08F4046494613F05AFF02460B4651
:103150000020044913F01CFB04460D465CE744467E
:103160004D4659E70000F03F2DE9F04FD24A2DEDD2
:10317000028B21F00043934283B004460D460E4675
:103180005BD9CE4A934214D9CD4A934209D9C1F3AF
:1031900013030343024600F0EF810B4613F018F8C7
:1031A0000FE1AFA3D3E9002313F058FC002840F04F
:1031B000F881002EC0F20A81ABA3D3E90023204698
:1031C000294613F0BBF9BF4F002602460B46304696
:1031D000394612F0FDFF13F061FC019013F044F941
:1031E000A3A3D3E900238046894613F0A7F902463A
:1031F0000B462046294612F0E9FF9FA3D3E900239E
:1032000006460F464046494613F098F980468946DF
:1032100042464B463046394612F0D8FF04460D462A
:1032200022462B463046394612F0D0FF42464B46E6
:1032300012F0CCFF41EC180B09E0A34A934200F2D4
:10324000F180A24A934240F20181002301939D4BF9
:1032500000222046294613F071F906460F463246F1
:103260003B462046294613F069F985A3D3E900239C
:1032700082468B4613F062F983A3D3E9002312F050
:10328000A7FF52465B4613F059F981A3D3E9002307
:1032900012F09CFF52465B4613F050F97EA3D3E92F
:1032A000002312F095FF52465B4613F047F97CA3CA
:1032B000D3E9002312F08AFF52465B4613F03EF931
:1032C000834B002212F084FF8046894642464B46DB
:1032D0003046394613F032F902460B4600207D494C
:1032E00012F074FF06460F463246404649463B46BA
:1032F00012F06CFF3246804689463B4620462946FE
:1033000013F01CF902460B460020734912F05EFFD1
:1033100002460B464046494613F03AFA52465B468F
:1033200013F00CF9019E02460B46002E3BD057ECE1
:10333000186B18EE102A3B4612F048FF22462B4627
:1033400013F0FCF83B4618EE102A12F03FFF5B46E4
:10335000524612F03BFF019B013306460F4600F038
:10336000DB80019B012B00F0BD80019B0133392BD9
:1033700046D8019A132A00F3EA804FF40013134150
:10338000C3F17F5722462B4612F020FF002607F597
:10339000401702460B463046394612F017FF019A95
:1033A00001EB02510DE02046294613F0C7F85246C2
:1033B0005B4612F00BFF02460B462046294612F0F0
:1033C00005FF03B0BDEC028BBDE8F08F36A3D3E957
:1033D00000232046294612F0FBFE0022002313F0B2
:1033E0001FFB002840F0CB801FA3D3E90023204619
:1033F000294613F0A3F8394F002602460B46E6E6AD
:1034000022462B4612F0E2FE02460B4600203049CF
:1034100012F0DCFE019A2E4B01EB0251002212F059
:10342000D5FECEE72E4A934200F2C380002910A3B6
:10343000D3E900237FDB12F0C9FE01230FF2380924
:10344000D9E90089019306460F46E1E618A3D3E9BE
:10345000002312F0BDFE02460B46AAE7AFF3008040
:10346000EF39FAFE422E8640FE822B654715F73F64
:103470000000E0FE422EE63F763C7935EF39EA3D2A
:103480002DC3096EB7FD8ABE3952E686CACFD03E3B
:10349000B7DBAA9E19CE143F8555FE19A0015A3FED
:1034A000F41011111111A13F59F3F8C21F6EA501BB
:1034B0009C7500883CE4377E79684340412E864005
:1034C000FFFFEF7F0000E03F422ED63FFFFF8F3C23
:1034D0000000F03F00000840000018400000E0BF7E
:1034E000B1A2F03F404B00222046294613F098FA43
:1034F000002847D03D4B20462946002212F068FEA6
:1035000002460B463046394612F060FE00224FF06C
:10351000404313F013F854E702460B462046294671
:1035200012F054FE314B002213F008F82F4B00220A
:1035300012F04CFE45E712F04BFE4FF0FF330FF256
:103540009009D9E90089019306460F4660E6019F7C
:10355000C7F57F7603360022330512F039FE0246A6
:103560000B462046294612F031FE214B002212F074
:103570002FFE01EB075124E70029BFF622AF1D49BA
:1035800000201EE732463B462046294612F01EFE2A
:1035900002460B4612F01CFE154B002212F018FEDC
:1035A0000FE70DA3D3E900231046194612F0C6FF1A
:1035B00007E70BA3D3E9002312F0C0FF002DB4BF2F
:1035C0000D4F0A4F02460B46002600E6AFF300807F
:1035D000763C7935EF39EABD9C7500883CE4377E4E
:1035E000FE822B654715F73F0000D0BF0000E03F8B
:1035F0000000F03F0000F0BF0000E0BF000000004E
:10360000F8B5C1F30A5304460D460E46174653BBA0
:1036100021F000460346334324D0374B002212F0FA
:103620008DFF364B9F4204460D4616DBC1F30A530D
:103630000E46363B3B4440F2FE7293421CDC002BAC
:103640003BDC13F1350F2BDA4CF250339F4213DC85
:10365000002D21A1D1E9000137DB1FA3D3E900230D
:1036600012F06CFFF8BD40F2FF729342E2D10246C5
:103670000B4612F0ADFDF8BD002D19A1D1E90001F6
:1036800005DB17A3D3E9002312F058FFF8BD14A3FC
:10369000D3E9002314A1D1E9000112F04FFFF5E7AF
:1036A00026F0FF4626F4E006363346EA035120466C
:1036B000134B002212F042FFF8BD26F0FF4626F41D
:1036C000E006204646EA0351F8BD09A1D1E9000110
:1036D000C3E700BFAFF3008059F3F8C21F6EA50126
:1036E0009C7500883CE4377E9C7500883CE437FE7E
:1036F00059F3F8C21F6EA58100005043B03CFFFF94
:103700000000903C10B5054C237833B9044B13B13D
:103710000448AFF300800123237010BD380300205C
:1037200000000000F4B5020808B5034B1BB10349C3
:103730000348AFF3008008BD000000003C030020F8
:10374000F4B50208154B002B08BF134B9D46A3F59B
:10375000803A00218B460F461348144A121A06F08D
:1037600061FD0F4B002B00D098470E4B002B00D073
:1037700098470020002104000D000D48002802D0C9
:103780000C480DF085FC15F02DFC200029000DF0F3
:103790005FFC0DF079FC00BF0000080000800220F3
:1037A0000000000041100208B00200205431002047
:1037B0009110020800000000F0B5214D2C6883B084
:1037C00014B1204603B0F0BD4FF49C700DF062FCC4
:1037D0004FF0FF310446032001F04CFC00B204F02E
:1037E00061F84FF0FF310646022001F043FC00B2C1
:1037F00004F058F83146024620460AF0DFF904F199
:10380000DC0600231A46304601210AF049F84FF041
:10381000FF31012001F02EFC00B204F043F898279C
:103820004FF0050C0246CDE9007C3346214604F1F9
:10383000E40007F06FF920462C6003B0F0BD00BF34
:10384000540300202DE9F04104460E46FFF7B4FF73
:1038500000F1E4070546384607F07AF9082C18D03D
:10386000A4F10903012B0CD8D5F8E43038469B6A43
:103870009847052805DCD5F8E43038465B6A08210E
:103880009847324621461023BDE8F0410D2003F051
:10389000E5BED5F8E43038469B6A98470228F0DC4C
:1038A000D5F8E43038465B6A04219847E9E700BF61
:1038B00010B52DED028BFFF77FFF00F1E4042046E9
:1038C00008F090FE08EE900A204608F099FE07EEF8
:1038D000900A2046B8EEE78A08F0A0FEF8EEE88AE3
:1038E00068EE087A07EE100AE8EEA87AB8EEC77A12
:1038F000E7EE077AF5EE407AF1EE10FAB1EEE78ADC
:1039000006D4FDEEC87ABDEC028B17EE900A10BD0E
:1039100017EE900A14F0BAF8F3E700BF08B50328D1
:103920001CD8DFE800F0060D1402BDE80840FFF7E0
:10393000BFBFFFF741FFBDE80840E43008F052BECA
:10394000FFF73AFFBDE80840E43008F059BEFFF742
:1039500033FFBDE80840E43008F060BE002008BD39
:1039600008B518B1012808D0002008BDFFF724FFD2
:10397000BDE80840E430FAF79BBFFFF71DFFBDE844
:103980000840E430FAF7B4BF00B583B00190FFF708
:1039900013FF0199E43003B05DF804EB08F038BC84
:1039A00008B501F091FCFBF73BFDBDE8084001F0D4
:1039B000EDB900BF08B501F087FCFBF7A1FDBDE83C
:1039C000084001F0E3B900BF08B501F07DFC13F039
:1039D00093FBBDE8084001F0D9B900BF08B501F07C
:1039E00073FC13F08BFFBDE8084001F0CFB900BFB6
:1039F00008B501F069FCFBF723FDBDE8084001F0C4
:103A0000C5B900BF08B501F05FFC13F09DFDBDE82E
:103A1000084001F0BBB900BF08B501F055FCFAF74A
:103A200087FFBDE8084001F0B1B900BF08B501F05B
:103A30004BFC13F0D7FCBDE8084001F0A7B900BF6C
:103A400070B5049D95420C4625DB164653B9042AF1
:103A50001AD0022A11D110F001030ED102880A8077
:103A6000184670BD10440B468A1810F8011D03F863
:103A7000011B9A42F9D1002070BD01463246204612
:103A800005F0EAF9002070BD10F00303F5D10268DB
:103A90000A60184670BD0846002106F0C3FB4FF0CF
:103AA000FF3070BD0830704728B1002902DB436841
:103AB0008B4201DC002070470844007A704700BF49
:103AC00030B1002904DB43688B42C4BF4018027246
