:020000040800F2
:10E00000008002204D190208F9790208F979020806
:10E01000F9790208F9790208F9790208000000008C
:10E020000000000000000000000000005DD50108B5
:10E03000F97902080000000003D6010863D6010840
:10E04000F9790208F9790208F9790208F9790208E0
:10E05000F9790208F9790208F9790208F9790208D0
:10E06000F9790208F9790208F9790208F9790208C0
:10E07000F9790208F9790208F9790208F9790208B0
:10E08000F9790208F9790208F979020861E60108CC
:10E090004DE50108F979020865E60108F9790208F9
:10E0A000F9790208F9790208F9790208F979020880
:10E0B000F9790208F979020800000000F9790208EC
:10E0C000F9790208F9790208F9790208F979020860
:10E0D000F9790208F9790208F9790208F979020850
:10E0E000F9790208F9790208000000000000000038
:10E0F0000000000000000000000000000000000020
:10E1000000000000F979020800000000F979020817
:10E11000F979020800000000F97902080000000007
:10E12000F9790208F9790208F9790208F9790208FF
:10E13000F9790208F9790208F9790208000000006B
:10E14000F9790208F9790208F9790208F9790208DF
:10E15000F9790208F9790208F9790208F9790208CF
:10E16000F9790208F9790208F9790208000000003B
:10E1700000000000F9790208000000000000000023
:10E18000F9790208F9790208F9790208F97902089F
:10E19000F9790208000000002DE9F04F2DED028B07
:10E1A0000378202B83B004468B4603D114F8013F3B
:10E1B000202BFBD02B2B08BF013494F800C0BCF1FE
:10E1C0002D0F6DD09FED587BB0EE478AF0EE678A39
:10E1D000BCF1300F51D0BCF1000F00F09F80DFF890
:10E1E0005C91002600274FF000084FF0000A1EE067
:10E1F00016F0E8FD02460B462846CDE9002316F04E
:10E2000077FDDDE9002316F027FC424606460F465F
:10E210004B4651EC180BBAF1000F03D016F0FCFE80
:10E2200041EC180B14F801CFBCF1000F14D0ACF185
:10E230003005092D42464B4630463946D8D9BAF109
:10E24000000F37D1BCF12E0F34D114F801CF4FF0AD
:10E25000010ABCF1000FEAD13046394653EC182BC5
:10E2600016F0B0FD06460F46CBF800403046394662
:10E2700003B0BDEC028BBDE8F08F637843F0200360
:10E28000782BACD110225946204619F0C3FA16F06B
:10E290002FFD53EC182B16F095FD06460F46E5E7CB
:10E2A0009FED237B94F801C0B0EE478AF0EE678AB9
:10E2B00001348DE70CF0DF0CBCF1450F0AD0237858
:10E2C000202B03D114F8013F202BFBD013B11A4FA0
:10E2D0000026CBE753EC182B3046394616F072FD7A
:10E2E000237806460F46002BBED05946601C0A22F2
:10E2F00019F090FA11490246002017F0C3F80246BF
:10E300000B463046394616F05DFD06460F46304650
:10E31000394603B0BDEC028BBDE8F08F0026002724
:10E320009AE700BFAFF30080000000000000F03F5C
:10E33000000000000000F0BF0000F87F0000244053
:10E340002DE9F04F002383B01646002204460D4607
:10E3500016F0AAFF28B12D2105F1004306F8011B94
:10E360001D46002200232046294616F093FF30B1B7
:10E37000302200233270737003B0BDE8F08F204666
:10E38000294617F04BFD16F0CDFF48A3D3E9002333
:10E39000074629462046019716F09AFF40B145A34B
:10E3A000D3E900232046294616F07EFF002860D1DD
:10E3B000019A3D49002017F065F802460B462046B9
:10E3C000294616F029FE4FF0010B04460D46DFF8F2
:10E3D000D8904FF0000A4FF000082946204616F06A
:10E3E000A1FF00F130033370074616F081FC0246AE
:10E3F0000B462046294616F02DFB4B46424616F0AA
:10E40000E1FCBBF1010B04BF2E23737004460D46E3
:10E4100014BF01360236BAF1000F04D1002F18BF25
:10E420004FF0010AD9E70AF1010ABAF1100FD4DD61
:10E43000BBF1000FD1DC16F8013C302B06F1FF36A2
:10E4400003D116F8013D302BFBD001982E2B08BFCD
:10E4500006F1FF36012807D06523B11C737003B0A5
:10E46000BDE8F04F0BF0AEBB0023737003B0BDE806
:10E47000F08F002F11DD3A460B49002017F002F80B
:10E480000B4602462946204616F0C6FD012307F139
:10E49000010B04460D46019399E74FF0010BCDF8AF
:10E4A00004B094E7AFF30080000024408DEDB5A0E8
:10E4B000F7C6B03E50EFE2D6E41A4B44000000002D
:10E4C00070B54FF0FF3005F097FA04466FF07F40CB
:10E4D00005F092FA0646204616F0FAFB0C4B002295
:10E4E00016F070FC044630460D4616F0F1FB06A30C
:10E4F000D3E9002316F090FD02460B46204629463C
:10E5000016F0AAFA70BD00BF0000E0DFFFFF6F4306
:10E510000000F03D0000000030B52D4B8DB01A68B2
:10E520000092009A120205D4009A42F4000200926E
:10E53000009A1A60274A284B126801921B680293BE
:10E540000CF0E2FF16F0D4FBCDE90401019B9BB275
:10E550000193029B9BB20293DDE904011AA3D3E964
:10E56000002316F02FFC1D4B0022CDE90401CDE95C
:10E5700006230298019BC01A16F0AAFBCDE90801F8
:10E58000DDE90445019816F0A3FB02460B46204640
:10E59000294616F05FFACDE90A01DDE90601DDE959
:10E5A0000823DDE90A4516F037FD22462B4616F012
:10E5B00009FC0B4B002216F04FFA16F0DBFE03901D
:10E5C00003980DB030BD00BF9A9999999999F13F80
:10E5D00008030450A875FF1FCA75FF1F00005440B0
:10E5E00000003E400000000008B50CF09BFDDFED90
:10E5F0000C7A07EE100A67EE277A17EE900A16F0EB
:10E6000089FB05A3D3E9002316F006FD16F08AFE68
:10E6100008BD00BFAFF30080EA2E4454FB2119402F
:10E620000000B4430000000008B50CF091FDDFEDE0
:10E630000C7A07EE100A67EE277A17EE900A16F0AA
:10E6400069FB05A3D3E9002316F0E6FC16F06AFE89
:10E6500008BD00BFAFF30080EA2E4454FB211940EF
:10E660000000B44300000000494A21F000439342F7
:10E670002DE9704304460D466EDC464A93420E4631
:10E6800039DC3FA3D3E9002316F0E6F9424B002220
:10E6900016F028FE00286FD122462B462046294638
:10E6A00016F090FB02460B462046294614461D46AE
:10E6B00017F0CCF8384B0022804689462046294680
:10E6C00016F0CAF917F05CFE334B002216F0C4F9BD
:10E6D00002460B462046294616F09EFC42464B4613
:10E6E00016F0BAF900F0F4FA002E39DC01F100431B
:10E6F0001946BDE87083294A934233DCB3F1804F59
:10E70000CADD17F0A3F82246804689462B462046EC
:10E71000294616F057FB204B002216F09DF917F002
:10E720002FFE42464B4616F097F902460B46002054
:10E73000194916F071FC42464B4604460D464046C8
:10E74000494616F089F902460B462046294616F03E
:10E7500083F901F065FEC7E702460B4616F07CF927
:10E76000BDE8708317F072F801F05AFE06A3D3E9F2
:10E77000002316F071F9B7E720462946BDE87083FB
:10E780009C7500883CE4377EEF39FAFE422EE63F66
:10E79000FFFFEF7FFFFF2F3E0000F03F0000B04182
:10E7A0002DE9F84FC44B21F000469E4204460D4629
:10E7B0008A460EDDC14B9E4200F3B08000F0AB8074
:10E7C000BAF1000F40F3E8809FA1D1E90001BDE854
:10E7D000F88FBB4B9E4200F3B880A3F1DE739E42DC
:10E7E00040F3A4804FF0FF3B22462B4620462946AB
:10E7F00016F0E8FA02460B468046894616F0E2FA21
:10E8000093A3D3E9002306460F4616F0DBFA92A342
:10E81000D3E9002316F020F932463B4616F0D2FA2F
:10E820008FA3D3E9002316F017F932463B4616F0C2
:10E83000C9FA8DA3D3E9002316F00EF932463B4600
:10E8400016F0C0FA8AA3D3E9002316F005F9324680
:10E850003B4616F0B7FA88A3D3E9002316F0FCF87C
:10E8600042464B4616F0AEFA85A3D3E90023804614
:10E8700089463046394616F0A5FA83A3D3E900232A
:10E8800016F0E8F832463B4616F09CFA80A3D3E92E
:10E89000002316F0DFF832463B4616F093FA7EA3CB
:10E8A000D3E9002316F0D6F832463B4616F08AFA32
:10E8B0007BA3D3E9002316F0CDF832463B4616F091
:10E8C00081FABBF1FF3F02460B466AD040464946FB
:10E8D00016F0C2F87B4E22462B4616F073FA7A4B9E
:10E8E00006EBCB064FEACB0B9B44DBE9002316F08B
:10E8F000B1F822462B4616F0ADF802460B46D6E993
:10E90000000116F0A7F8BAF1000F0DDA01F100438B
:10E910001946BDE8F88F00283FF452AF22462B4637
:10E920002046294616F098F8BDE8F88F5EA3D3E993
:10E93000002316F091F8654B002216F0D3FC002856
:10E940003FF450AF20462946EEE716F07FFF604BBC
:10E950009E4204460D4634DCA3F550239E4259DC0A
:10E9600002460B4616F078F8584B002216F072F863
:10E9700000224FF0804306460F462046294616F0F7
:10E980006BF802460B463046394616F045FB4FF011
:10E99000000B04460D4627E745A1D1E90001BDE87B
:10E9A000F88F4046494616F057F822462B4616F097
:10E9B00009FA02460B462046294616F04BF8BDE8F8
:10E9C000F88F444B9E421ADA434B002216F042F86D
:10E9D000414B06460F4600222046294616F0F2F922
:10E9E0003A4B002216F038F802460B4630463946BC
:10E9F00016F012FB4FF0020B04460D46F4E60246F9
:10EA00000B460020354916F007FB4FF0030B044678
:10EA10000D46E9E62D4B002216F01CF82B4B002288
:10EA200006460F462046294616F016F802460B46C3
:10EA30003046394616F0F0FA4FF0010B04460D4609
:10EA4000D2E600BFAFF30080182D4454FB21F93FFC
:10EA500011DA22E33AAD903FEB0D76244B7BA93FD0
:10EA6000513DD0A0660DB13F6E204CC5CD45B73F9E
:10EA7000FF8300922449C23F0D5555555555D53F4A
:10EA80002F6C6A2C44B4A2BF9AFDDE522DDEAD3F3E
:10EA90006D9A74AFF2B0B33F711623FEC671BC3FDE
:10EAA000C4EB98999999C93F9C7500883CE4377EDE
:10EAB000182D4454FB21F9BFFFFF0F440000F07FE5
:10EAC000FFFFDB3F60810208808102080000F03F09
:10EAD000FFFFF23F008003400000F83F0000F0BF5E
:10EAE000F8B5C1F30A57A7F2FF35132D02460B46BE
:10EAF0000C46064631DC002D1DDB354F2F4101EA67
:10EB0000070C5CEA000C2DD02FA3D3E9002315F0ED
:10EB1000A3FF0022002316F0E5FB48B1002C04DD22
:10EB20004FF4801343FA05F52C4424EA0704002629
:10EB300021463046F8BD24A3D3E9002315F08CFF0D
:10EB40000022002316F0CEFB0028F1D0002C35DB8C
:10EB500026432FD01F4C0026EAE7332D05DDB5F5FF
:10EB6000806F24D010461946F8BDA7F213474FF026
:10EB7000FF3C2CFA07F70742F4D013A3D3E9002394
:10EB800015F06AFF0022002316F0ACFB0028CFD05E
:10EB9000002C09DD142D0FD00123C5F1340503FA33
:10EBA00005F5AE1928BFE41826EA0706C0E715F0F8
:10EBB00053FFF8BD3446BBE70134F5E700264FF0BC
:10EBC0000044B5E7AFF300809C7500883CE4377ED5
:10EBD000FFFF0F000000F03FF8B5C1F30A57A7F29E
:10EBE000FF35132D02460B460C4606461FDC002D52
:10EBF0003DDB354F2F4101EA070C5CEA000C1BD0CE
:10EC00002FA3D3E9002315F027FF0022002316F0DD
:10EC100069FB48B1002C04DA4FF4801343FA05F580
:10EC20002C4424EA0704002621463046F8BD332D43
:10EC300005DDB5F5806F2AD010461946F8BDA7F25C
:10EC400013474FF0FF3C2CFA07F70742F4D01CA300
:10EC5000D3E9002315F000FF0022002316F042FB49
:10EC60000028E1D0002C1EDB26EA0706DCE714A30F
:10EC7000D3E9002315F0F0FE0022002316F032FB4A
:10EC80000028D1D0002C05DB00263446CCE715F057
:10EC9000E3FEF8BD24F000430C4A1E43002E18BFCB
:10ECA00014460026C0E7142D08D00123C5F1340511
:10ECB00003FA05F5AE1928BFE418D5E70134D3E708
:10ECC0009C7500883CE4377EFFFF0F000000F0BF1A
:10ECD0002DE9F04FD04B2DED028B994285B0824645
:10ECE0008B4666DDCD4B99420E4659DCCC4B9942A2
:10ECF00040F3AA819FEDB47B8DED027B4FEA215A50
:10ED00000446AAF2FF38C74BC6F313069E4246F0EC
:10ED10007F5500F34D8145F4401520462946C24BEE
:10ED2000002215F097FEC14B04460D46002216F056
:10ED300049F822462B4616F045F8A246CDE90001D7
:10ED400041EC180BAB46002E5DD10022002320467B
:10ED5000294616F09FFA002800F09681B8F1000FBE
:10ED600000F0AF81404615F0C3FF99A3D3E900231B
:10ED700006460F4616F026F8DDE9022315F06CFE74
:10ED800095A3D3E9002304460D463046394616F0D4
:10ED900019F802460B462046294615F05DFE03E0B1
:10EDA00002460B4615F058FE05B0BDEC028BBDE8DF
:10EDB000F08F9F4B21F000449C420A460EDD9D4B94
:10EDC000002216F067FA002800F08F80012005B0BD
:10EDD000BDEC028BBDE8F04F18F02CB9964B9C426D
:10EDE00040F38C80954B1A449A4240F22D818F4B10
:10EDF000002215F0E7FF52465B4615F0E3FF41ECB9
:10EE0000180B4FF0000800224FF08043504659463F
:10EE100015F022FE02460B465046594616F0FCF805
:10EE200002460B4606460F4615F0CCFF6CA3D3E90D
:10EE3000002304460D4615F0C5FF6BA3D3E900235C
:10EE400015F00AFE22462B4615F0BCFF68A3D3E955
:10EE5000002315F001FE22462B4615F0B3FF66A3F2
:10EE6000D3E9002315F0F8FD22462B4615F0AAFF42
:10EE700063A3D3E9002315F0EFFD22462B4615F0DE
:10EE8000A1FF61A3D3E9002315F0E6FD22462B463E
:10EE900015F098FF5EA3D3E9002315F0DDFD2246AF
:10EEA0002B4615F08FFF04460D46B8F1000F3FD1F9
:10EEB00055EC184B18EE102A2B4615F0CDFD3246B6
:10EEC0003B4615F07FFF024618EE100A0B46294616
:10EED00015F0C0FD02460B465046594615F0BAFDE6
:10EEE00005B0BDEC028BBDE8F08F5046594605B029
:10EEF000BDEC028BBDE8F04F18F0B6B8504B0022C5
:10EF000015F0AAFD0022002316F0ECF928B14D4BB4
:10EF10009C4202DC5046594646E752465B46504604
:10EF2000594615F04FFF414B002215F04BFFD1E73A
:10EF3000404615F0DDFE28A3D3E90023804689462C
:10EF400015F040FF41EC170B53EC182B20462946D7
:10EF500055EC174B15F080FD32463B4615F032FF5D
:10EF60001BA3D3E9002306460F464046494615F049
:10EF700029FFDDE9022315F06FFD02460B463046FE
:10EF8000394615F069FD02460B4651EC180B15F099
:10EF900061FD52465B4615F05DFD02460B4620467C
:10EFA000294615F057FD05B0BDEC028BBDE8F08F8A
:10EFB00045F40015C6F5801620462946B61008F11E
:10EFC0000108ACE6AFF30080000000000000000084
:10EFD000763C7935EF39EA3D0000E0FE422EE63F0F
:10EFE00044523EDF12F1C23F9FC678D0099AC33F18
:10EFF000DE03CB966446C73FAF788E1DC571CC3F0C
:10F00000599322942449D23F04FA97999999D93F68
:10F01000935555555555E53F7982DA3FFFFFEF7F10
:10F02000FFFF3F439DA006000000F03F0000E03FCF
:10F03000FFFFEF3F0000F0BFFFFF1F3E3C412D40B0
:10F0400000005043FFFF8F3C3B4B00225046594687
:10F0500015F002FD0B15A3F2FF38B8F1000F0446BE
:10F060000D460E4650DD52465B4615F0F3FC024657
:10F070000B460020304915F0EDFC22462B4615F0DA
:10F08000CBFFCDE902013EE625A3D3E900232046CC
:10F09000294615F097FE02460B460020264915F03A
:10F0A000D9FCDDE9002315F08DFE06460F46B8F1C8
:10F0B000000F09D102460B462046294615F0CAFC2E
:10F0C00072E6002000216FE6404615F011FE16A3FF
:10F0D000D3E900238046894615F074FE14A3D3E9D2
:10F0E000002382468B464046494615F06BFEDDE91B
:10F0F000022315F0B1FC02460B463046394615F0A6
:10F10000A9FC22462B46E3E60B4B002215F0A2FC9D
:10F1100002460B465046594615F09CFCADE700BF31
:10F12000555555555555E53F0000E0FE422EE63F4A
:10F13000763C7935EF39EA3D0000F03F00000000F1
:10F1400008B516F031FE04A3D3E9002315F064FFDF
:10F1500008BD00BFAFF30080EF39FAFE422EE63F54
:10F16000F8B504460D4600F0DFFE154B93F900306C
:10F17000013306460F4610D022462B46204629462C
:10F1800016F0BAF848B92046294616F05FFB0AA3E4
:10F19000D3E9002316F0A6F810B930463946F8BD79
:10F1A00018F0DCF8074F002622230360394630466A
:10F1B000F8BD00BFAFF300807DF8B98FCE33864035
:10F1C000960200200000F07FF8B504460D4600F0DE
:10F1D0005BFF1B4B93F90030013306460F4614D0FA
:10F1E0002046294617F05EFF78B111A3D3E900232A
:10F1F0002046294616F076F888B90FA3D3E90023F4
:10F200002046294616F050F810B930463946F8BD68
:10F2100018F0A4F82223002600270360F5E718F071
:10F220009DF82223074F03600026EEE7AFF300802E
:10F23000EF39FAFE422E864051302DD5104987C055
:10F24000960200200000F07F2DE9F84FC44E21F017
:10F250000043B34204460D460DDD03F1404303F580
:10F260008013034340F0B980002940F3C0800020A0
:10F270000021BDE8F88FBB4EB34208DCBA4A934286
:10F2800000F3BA809CA1D1E90001BDE8F88F002904
:10F29000C0F2708102460B460020B44915F0DAFB3B
:10F2A000B34B002215F08EFD04460D4617F068F8AA
:10F2B00093A3D3E90023894680462946204615F0CA
:10F2C00081FD91A3D3E9002315F0C6FB22462B460E
:10F2D00015F078FD8EA3D3E9002315F0BBFB224681
:10F2E0002B4615F06FFD8CA3D3E9002315F0B4FB7A
:10F2F00022462B4615F066FD89A3D3E9002315F0BD
:10F30000A9FB22462B4615F05DFD87A3D3E9002318
:10F3100015F0A2FB22462B4615F054FD84A3D3E939
:10F32000002382468B462046294615F04BFD82A3DA
:10F33000D3E9002315F08EFB22462B4615F042FD43
:10F340007FA3D3E9002315F087FB22462B4615F057
:10F3500039FD7DA3D3E9002315F07CFB22462B4623
:10F3600015F030FD814B002215F076FB02460B466E
:10F370005046594615F050FE42464B4615F022FDC8
:10F38000002682468B4632464B463046494615F0AB
:10F3900019FD02460B462046294615F05BFB324616
:10F3A00004460D464B464046494615F055FB02467D
:10F3B0000B462046294615F02FFE02460B465046C6
:10F3C000594615F049FB32464B4615F045FB0246BF
:10F3D0000B4615F041FBBDE8F88F02460B4615F0D1
:10F3E00039FB02460B4615F017FEBDE8F88F58A111
:10F3F000D1E90001BDE8F88F02460B4615F0E2FCAA
:10F400003FA3D3E9002306460F4615F0DBFC3EA3DD
:10F41000D3E9002315F020FB32463B4615F0D2FC21
:10F420003BA3D3E9002315F015FB32463B4615F00C
:10F43000C9FC39A3D3E9002315F00EFB32463B4645
:10F4400015F0C0FC36A3D3E9002315F003FB3246C8
:10F450003B4615F0B7FC34A3D3E9002315F0FCFAC2
:10F4600032463B4615F0AEFC31A3D3E9002380467B
:10F4700089463046394615F0A5FC2FA3D3E9002371
:10F4800015F0E8FA32463B4615F09CFC2CA3D3E974
:10F49000002315F0E1FA32463B4615F093FC2AA30F
:10F4A000D3E9002315F0D6FA32463B4615F08AFC24
:10F4B0002E4B002215F0D0FA02460B464046494634
:10F4C00015F0AAFD22462B4615F07CFC02460B46A1
:10F4D00021A1D1E9000115F0BDFA02460B462046F4
:10F4E000294615F0B7FA02460B4603A1D1E90001FF
:10F4F00015F0B0FABDE8F88F182D4454FB21F93F00
:10F5000009F7FD0DE13D023F88B20175E0EF493F8B
:10F510003B8F68B52882A43F5544880E55C1C93F2A
:10F520007D6FEB0312D6D43F555555555555C53F04
:10F5300082922EB1C5B8B33F59018D1B6C06E63FD0
:10F54000C88A599CE52A00404B2D8A1C273A034063
:10F55000182D4454FB210940075C143326A6913C26
:10F56000FFFFEF3FFFFFDF3F0000603C0000F03F88
:10F570000000E03F5C4B002215F06EFA5B4B00226E
:10F5800015F020FC40A3D3E9002304460D4615F0F6
:10F5900019FC3FA3D3E9002315F05EFA22462B465F
:10F5A00015F010FC3CA3D3E9002315F053FA2246D2
:10F5B0002B4615F007FC3AA3D3E9002315F04CFACB
:10F5C00022462B4615F0FEFB37A3D3E9002315F0A6
:10F5D00041FA22462B4615F0F5FB35A3D3E900236B
:10F5E00015F03AFA22462B4615F0ECFB8046894688
:10F5F0002046294616F0C4FE2FA3D3E90023064671
:10F600000F462046294615F0DDFB2DA3D3E9002344
:10F6100015F020FA22462B4615F0D4FB2AA3D3E995
:10F62000002315F019FA22462B4615F0CBFB28A330
:10F63000D3E9002315F00EFA22462B4615F0C2FB43
:10F64000294B002215F008FA02460B46404649466F
:10F6500015F0E2FC32463B4615F0B4FB1EA3D3E99D
:10F66000002315F0F7F932463B4615F0F5F902464E
:10F670000B4615F0F1F902460B4619A1D1E900013C
:10F6800015F0E8F9BDE8F88F09F7FD0DE13D023FFF
:10F6900088B20175E0EF493F3B8F68B52882A43FEF
:10F6A0005544880E55C1C93F7D6FEB0312D6D43F38
:10F6B000555555555555C53F82922EB1C5B8B33FE6
:10F6C00059018D1B6C06E63FC88A599CE52A00400B
:10F6D0004B2D8A1C273A0340075C143326A6913C25
:10F6E000182D4454FB2109400000F03F0000E03F8A
:10F6F000414A91422DE9F84304460D463EDD3F4A1A
:10F7000091420B4608DD02F17952914266DD0246D4
:10F7100015F0A2F9BDE8F88301F1404202F580122C
:10F72000024357D0B1F1804F32DD024615F04AFB5B
:10F73000334B002215F08EF916F022FE22462B469E
:10F74000804689462046294615F086F92246064617
:10F750000F462B464046494615F07EF902460B46B9
:10F760000020274915F058FC0B4602463946304622
:10F7700015F070F9BDE8F84300F052BE02460B46A2
:10F7800015F068F902460B4615F046FCBDE8F88313
:10F790001B4B002215F05EF902460B4604460D464F
:10F7A00015F05AF922462B4606460F4620462946B2
:10F7B00015F008FB02460B463046394615F04CF969
:10F7C00016F0DEFD22462B4615F046F9BDE8F8435B
:10F7D000FFF77EBA00200021BDE8F88300F020FE8C
:10F7E00003A3D3E9002315F037F9BDE8F88300BF80
:10F7F000EF39FAFE422EE63FFFFFEF3FFFFFAF413A
:10F800000000F03F000000002DE9F04FC64B2DED49
:10F81000028B21F00049994583B004460D4615DD61
:10F8200009F1404909F58019034659EA030300F03C
:10F83000058102460B4615F00DF902460B4615F000
:10F84000EBFB03B0BDEC028BBDE8F08FB74B9945E5
:10F850000E460FDCB9F1795F80F2708196A3D3E98F
:10F86000002315F0F9F8B24B002215F03BFD0028FB
:10F8700040F01C812046294615F0E8FF02460B4661
:10F880000020AB4915F0E6F8AA4B002215F09AFAD1
:10F890008BA3D3E9002304460D4615F093FA8AA3FF
:10F8A000D3E9002315F0D8F822462B4615F08AFA42
:10F8B00087A3D3E9002315F0CDF822462B4615F097
:10F8C00081FA85A3D3E9002315F0C6F822462B461A
:10F8D00015F078FA82A3D3E9002315F0BBF822468D
:10F8E0002B4615F06FFA80A3D3E9002315F0B4F886
:10F8F00022462B4615F066FA7DA3D3E90023824603
:10F900008B462046294615F05DFA7BA3D3E90023F8
:10F9100015F0A0F822462B4615F054FA78A3D3E947
:10F92000002315F099F822462B4615F04BFA76A3E2
:10F93000D3E9002315F08EF822462B4615F042FA43
:10F940007B4B002215F088F807468846204629465A
:10F9500016F016FDDFF8E0C14BEC18ABE14582462E
:10F960008B46CDE900AB00F38280DDE900239B46A6
:10F9700015F072F84346894680463A4651EC180B1A
:10F9800015F04AFB02460B464046494615F01AFA66
:10F990004FF0000A8046894652465B46504659461B
:10F9A00015F010FA02460B462046294615F052F88B
:10F9B000524604460D465B46DDE9000115F04CF861
:10F9C00002460B462046294615F026FB02460B460A
:10F9D00015F042F802460B464DA1D1E9000115F0A1
:10F9E00039F802460B464046494615F033F8524670
:10F9F00004460D465B465046594615F02DF8024622
:10FA00000B4645A1D1E9000115F024F802460B464A
:10FA10002046294615F01EF802460B463EA1D1E9C4
:10FA2000000115F017F8002E3FF70BAF01F100436E
:10FA3000194603B0BDEC028BBDE8F08F38A3D3E9C3
:10FA4000002315F0BFF932A3D3E9002306460F4681
:10FA50002046294615F0B6F902460B46304639468F
:10FA600014F0FAFF03B0BDEC028BBDE8F08F3A460C
:10FA7000434651EC180B15F0CFFA52465B4615F091
:10FA8000A1F952465B4614F0E7FF02460B4614F01C
:10FA9000E3FF1FA3D3E9002314F0DCFF02460B466B
:10FAA0001FA1D1E9000114F0D5FFBCE7204629468B
:10FAB000C7E600BFAFF300809C7500883CE4377E4A
:10FAC00009F7FD0DE13D023F88B20175E0EF493FC6
:10FAD0003B8F68B52882A43F5544880E55C1C93F65
:10FAE0007D6FEB0312D6D43F555555555555C53F3F
:10FAF00082922EB1C5B8B33F59018D1B6C06E63F0B
:10FB0000C88A599CE52A00404B2D8A1C273A03409D
:10FB1000075C143326A6913C182D4454FB21E93F81
:10FB2000182D4454FB21F93FFFFFEF3FFFFFDF3F5C
:10FB30000000F03F0000E03F3233EF3F02460B464B
:10FB400015F040F939A3D3E9002306460F4615F016
:10FB500039F938A3D3E9002314F07EFF32463B463F
:10FB600015F030F935A3D3E9002314F073FF3246C2
:10FB70003B4615F027F933A3D3E9002314F06CFFBB
:10FB800032463B4615F01EF930A3D3E9002314F0AA
:10FB900061FF32463B4615F015F92EA3D3E9002349
:10FBA00014F05AFF32463B4615F00CF92BA3D3E96B
:10FBB0000023804689463046394615F003F929A3CB
:10FBC000D3E9002314F046FF32463B4615F0FAF81D
:10FBD00026A3D3E9002314F03FFF32463B4615F03D
:10FBE000F1F824A3D3E9002314F034FF32463B4656
:10FBF00015F0E8F80C4B002214F02EFF02460B46DD
:10FC00004046494615F008FA22462B4615F0DAF828
:10FC100022462B4614F020FF03B0BDEC028BBDE85A
:10FC2000F08F00BFAFF300800000F03F09F7FD0D3B
:10FC3000E13D023F88B20175E0EF493F3B8F68B577
:10FC40002882A43F5544880E55C1C93F7D6FEB0300
:10FC500012D6D43F555555555555C53F82922EB1B4
:10FC6000C5B8B33F59018D1B6C06E63FC88A599C45
:10FC7000E52A00404B2D8A1C273A03400000000073
:10FC80002DE9F84F994653425F4F134329F0004E38
:10FC90004EEAD373BB42904604460D463DD84642D9
:10FCA000064321F0004A4AEAD676BE4203468B4616
:10FCB00033D809F1404606F5801616433DD04FEA89
:10FCC000A97606F002065AEA030346EAD1762CD05A
:10FCD0005EEA020335D0BE4546D0BA4531D0AAEB24
:10FCE0000E0EBEF1747F4FEA2E5339DAB9F1000FD0
:10FCF00046DA3C3344DA00200021012E58D0022E8F
:10FD000049D086B134A3D3E9002314F0A3FE34A371
:10FD1000D3E9002314F09EFE05E022462B46404620
:10FD2000494614F099FEBDE8F88F022E10D0032E3C
:10FD3000F9D12DA1D1E90001F5E7BDE8F84FFEF7B3
:10FD40002FBDBBF1000F07DB29A1D1E90001EAE7D4
:10FD500023A1D1E90001E6E727A1D1E90001E2E70B
:10FD600023A1D1E90001C8E7F24506F1FF3623D00F
:10FD7000022E29D8254B03EBC606D6E90001D2E7AF
:10FD800042464B462046294615F046F915F05EFDE1
:10FD9000FEF706FDB1E710A3D3E9002314F05AFEE5
:10FDA00002460B460EA1D1E9000114F053FEBAE75A
:10FDB00001F100431946B6E7022E08D8144B03EBB5
:10FDC000C606D6E90001AEE700200021ABE70CA192
:10FDD000D1E90001A7E700BF075C143326A6A13CC8
:10FDE000182D4454FB210940182D4454FB2109C00F
:10FDF000182D4454FB21F93F182D4454FB21F9BF21
:10FE0000182D4454FB21E93F0000F07FB88102081F
:10FE1000A0810208000000002DE9F84343423E4A59
:10FE2000034321F0004747EAD373934204460D464B
:10FE300059D8974265D0394B9F420E4623DD384B47
:10FE40009F423D462ADD02463B46394614F004FEF9
:10FE500022463B4604460D4600202F4914F0FAFD89
:10FE600002460B462046294615F0D6F8FEF730FF2D
:10FE70002C4B002214F0A6FF002E02DA01F1004301
:10FE80001946BDE8F88322A3D3E9002314F0E4FD6A
:10FE90000022002315F026FA78BB3D4622462B4669
:10FEA0002046294614F0D8FD22462B468046894636
:10FEB00014F088FF22462B4604460D4600201649C2
:10FEC00014F0C8FD02460B462046294615F0A4F85A
:10FED00042464B4614F0C0FDFEF7FAFE114B0022DD
:10FEE00014F070FFC8E702460B4614F0B3FD02465B
:10FEF0000B4615F091F8BDE8F88320462946BDE889
:10FF0000F8830022002315F087F8BDE8F88300BFCE
:10FF10009C7500883CE4377E0000F03FFFFF2F3ED9
:10FF2000FFFFDF3F0000E03F2DE9F8434E4B21F09B
:10FF300000449C4206460F4648DC4C4B9C4218DD70
:10FF40004B4B9C4266DD4B4B9C427EDD4A4B9C42B8
:10FF500049DD01339C4243D041A3D3E9002310463D
:10FF6000194614F02FFF06460F4630463946BDE8C5
:10FF7000F88315F06BFC02F06FFD404B00228046C9
:10FF8000894614F069FDB4F1725F06460F46ECDB5A
:10FF900042464B464046494614F014FF32463B4623
:10FFA00004460D463046394614F056FD02460B46CF
:10FFB0002046294615F030F8304B002214F04CFD55
:10FFC00006460F4630463946BDE8F88302460B46E2
:10FFD00014F0F8FE06460F4630463946BDE8F88371
:10FFE000274B9842B8D83046394615F02FFC254BA0
:10FFF000002214F0E7FE00F047F8224B04460D46BD
:020000040801F1
:10000000002214F0DFFE22462B4614F0DBFE0646EB
:100010000F46AAE715F01AFC00F036F8194B00223B
:1000200004460D4614F0CEFE22462B4604460D46ED
:100030000020144914F0F0FF02460B4620462946E2
:1000400014F00AFD06460F468FE715F0FFFB00F09F
:100050001BF80C4B002214F0B5FE06460F4684E751
:100060009C7500883CE4377EFFFFEF7F422ED63F31
:10007000FFFF3540412E8640CD3386400000F03FE3
:100080007DF8B98F0000E03F2DE9F04FDA4F2DEDFC
:10009000028B21F00042BA4283B004460D464FEA7B
:1000A000D17612D9D54FBA4229D9C1F313030343EC
:1000B000024640F05481002E00F0EB800020002129
:1000C00003B0BDEC028BBDE8F08FCD4B9A4253D804
:1000D000CC4B9A4200F2E480B1A3D3E9002314F0A0
:1000E000BBFCC94B002215F0FDF8002800F0D880B9
:1000F000C54B20462946002214F0AEFCCBE0AAA353
:10010000D3E9002315F0EEF8002840F03081A8A3D1
:10011000D3E900232046294615F0C6F80028CDD1A2
:10012000BA49A5A3D3E9002301EBC6062046294618
:1001300014F048FED6E9002314F08EFC15F0F2F816
:10014000019014F0D5FD9EA3D3E9002306460F4687
:1001500014F038FE02460B462046294614F07AFC7D
:1001600099A3D3E90023804689463046394614F0E6
:1001700029FE41EC180B19E0A54B9A42D0D8A54BAB
:1001800003EBC603D3E9002314F064FCA24BF20096
:10019000134493ED007BC6F1010AAAEB06038046E7
:1001A00089460193B0EE478AF0EE678A53EC182B2C
:1001B0004046494614F04EFC02460B4682468B46AA
:1001C00014F000FE82A3D3E9002304460D4614F088
:1001D000F9FD81A3D3E9002314F03CFC22462B4611
:1001E00014F0F0FD7EA3D3E9002314F035FC224681
:1001F0002B4614F0E7FD7CA3D3E9002314F02AFC7E
:1002000022462B4614F0DEFD79A3D3E9002314F037
:1002100023FC22462B4614F0D5FD02460B465046E1
:10022000594614F017FC019B0F46064654465D469E
:1002300001463A46002B6CD032463B465046594662
:1002400014F0C0FD32463B4604460D4600204FF0F8
:10025000804114F0FFFB02460B462046294614F06D
:10026000DBFE02460B4651EC180B14F0F3FB424642
:100270004B4614F0EFFB02460B460020624914F097
:10028000E9FB019A6FF47F739A4278DB044601EB35
:1002900002552046294603B0BDEC028BBDE8F08F25
:1002A00022462B462046294614F08CFD48A3D3E96C
:1002B000002306460F4614F085FD47A3D3E900232B
:1002C00014F0C8FB32463B4614F07CFD44A3D3E94E
:1002D000002314F0C1FB32463B4614F073FD42A3E9
:1002E000D3E9002314F0B6FB32463B4614F06AFD16
:1002F0003FA3D3E9002314F0AFFB32463B4614F092
:1003000061FD02460B462046294614F0A3FB0A462F
:100310000146914688460A464B462046294614F037
:1003200051FD002206460F464FF0804340464946A5
:1003300014F090FB02460B463046394614F06CFE32
:1003400022462B4614F086FB02460B4600202E491F
:1003500014F080FB03B0BDEC028BBDE8F08F0B46C0
:1003600014F07AFB03B0BDEC028BBDE8F08F0CA358
:10037000D3E900231046194614F024FD8BE7019BB6
:1003800003F57A7A01EB0A53194600224FF0B8734D
:1003900014F018FD03B0BDEC028BBDE8F08F00BF78
:1003A0009C7500883CE4377EEF39FAFE422E864089
:1003B00051302DD5104987C0FE822B654715F73F78
:1003C0000000E0FE422EE63F763C7935EF39EA3D0B
:1003D000D0A4BE726937663EF16BD2C541BDBB3E4B
:1003E0002CDE25AF6A56113F93BDBE166CC1663F29
:1003F0003E5555555555C53F412E8640FFFFEF7F71
:10040000422ED63FFFFF2F3E0000F03FD081020872
:10041000B1A2F03FE0810208F08102080000000074
:100420002DE9F04F2DED028BB1F5801F83B0024610
:100430000B460E4658DA21F00044044300F0FB80DE
:100440000029C0F23781DC4B002214F0BBFC0E46C1
:100450000B46DA498E4202466FF0350E49DCC6F390
:10046000130505F5152707F6647707F4801787F05D
:100470007F5C8CF4401C3415D14B10464CEA0501CE
:100480000022A4F2FF34744414F0E4FAAB1CC3F36A
:100490001303022B04EB175482468B464FF00002E5
:1004A00030DC002314F0F6FE002800F0CF80002C92
:1004B00000F05681204614F01BFCABA3D3E90023C7
:1004C00006460F4614F07EFCA9A3D3E90023044698
:1004D0000D463046394614F075FC02460B46204660
:1004E000294614F0B9FA08E0B4498E424FF0000EE4
:1004F000B5DD1046194614F0AFFA03B0BDEC028B1F
:10050000BDE8F08F4FF0804314F0A6FA02460B4688
:100510005046594614F080FD02460B46204643ECF7
:10052000182B14F0E5FB53EC182B06460F4651EC44
:10053000180BCDE9006714F045FC02460B468046D7
:10054000894614F03FFC8CA3D3E9002306460F46EE
:1005500014F038FC8AA3D3E9002314F07DFA324664
:100560003B4614F02FFC88A3D3E9002314F074FA5F
:1005700032463B4614F026FC85A3D3E9002314F051
:100580006BFA42464B4614F01DFC83A3D3E90023CB
:10059000804689463046394614F014FC80A3D3E9DE
:1005A000002314F059FA32463B4614F00BFC7EA3AC
:1005B000D3E9002314F050FA32463B4614F002FC13
:1005C0000B4602464946404614F046FAA5F5C223BA
:1005D000C5F5D725A3F27A4351351D43002D0646B4
:1005E0000F4659DD774B00225046594614F0EAFB7E
:1005F00052465B4614F0E6FB80468946002C60D1EB
:1006000042464B463046394614F026FA53EC182B36
:1006100014F0D8FB02460B464046494614F01AFA3D
:1006200002460B465046594614F014FA03B0BDEC8E
:10063000028BBDE8F08F002200236349002014F0F4
:10064000EBFC03B0BDEC028BBDE8F08F58A3D3E9FF
:1006500000235046594614F0B5FB02460B460020D5
:10066000584914F0F7F9524606460F465B46504685
:10067000594614F0A7FB02460B463046394614F0A3
:10068000A1FB06460F46002C52D102460B465046AF
:10069000594614F0DFF930E7002C40F0978002460D
:1006A0000B465046594614F0D5F953EC182B14F06C
:1006B00089FBB5E714F0CEF90022002314F0ACFC5E
:1006C0001BE729A3D3E90023DDE9000114F07AFB3D
:1006D00042464B4604460D463046394614F0BCF9B6
:1006E00053EC182B14F06EFB21A3D3E9002306462C
:1006F0000F46DDE9000114F065FB02460B4630466B
:10070000394614F0A9F902460B464046494614F012
:10071000A1F952465B4614F09DF902460B4620466D
:10072000294614F097F903B0BDEC028BBDE8F08FB9
:10073000204614F0DDFA0CA3D3E900238046894655
:1007400014F040FB0AA3D3E9002304460D464046BB
:10075000494614F037FB02460B4630463946D6E789
:1007600000200021C9E600BF0000E0FE422EE63F67
:10077000763C7935EF39EA3D44523EDF12F1C23F13
:10078000DE03CB966446C73F599322942449D23F57
:10079000935555555555E53F9FC678D0099AC33FA7
:1007A000AF788E1DC571CC3F04FA97999999D93FBE
:1007B000555555555555D53F00005043FFFFEF7F28
:1007C0000000F03F0000E03F000050C3DDE9008979
:1007D0000DA3D3E900234046494614F0F3FA32460C
:1007E0003B4604460D465046594614F033F953EC47
:1007F000182B14F0E7FA06A3D3E9002306460F46A8
:10080000A5E700BFAFF300800000E0FE422EE63F08
:10081000763C7935EF39EA3DB1F5801F2DE9F84393
:1008200004460D460B4619DA21F00042024359D026
:1008300000295FDB3A4B002214F0C4FA394A0D4616
:100840002B46934204466FF035010CDD22462B46C1
:100850002046294614F000F9BDE8F883314A934256
:100860004FF00001F2DC1815A0F2FF300844C70F6A
:1008700000EBD070C3F3130614F03AFAC7F57F7398
:10088000033346EA03550F46064629462046FFF73E
:10089000C7FD1DA3D3E9002380468946304639466B
:1008A00014F090FA1AA3D3E9002304460D464046FB
:1008B000494614F087FA02460B462046294614F0B2
:1008C000CBF815A3D3E9002304460D46304639463C
:1008D00014F078FA02460B462046294614F0BCF87C
:1008E000BDE8F883002200230F49002014F094FB98
:1008F000BDE8F883024614F0ADF80022002314F09E
:100900008BFBA9E7AFF30080362BF111F3FE593DC5
:100910000EE526157BCBDB3F00609F501344D33F91
:1009200000005043FFFFEF7F000050C300000000B5
:100930002DE9F04F2DED0A8B23F0004B1F469A4610
:100940005BEA020389B03DD0164694466E4A21F018
:100950000048904504460D46894603462BDC38D0B6
:10096000934528DC684A934522D0B9F1000F3BDB60
:1009700000220092BCF1000F52D1634A934500F06F
:100980009D80624A934500F0AB80BAF1804F00F041
:10099000D4845F4A924543D1B9F1000F40DB204631
:1009A000294609B0BDEC0A8BBDE8F04F15F0E8BC54
:1009B000BCF1000FD9D008F1404808F5801858EA7A
:1009C000030309D15149002009B0BDEC0A8BBDE8F1
:1009D000F08F08B9C345C5DD4E4809B0BDEC0A8BA0
:1009E000BDE8F04F16F064BB4B4A93457FDCA2F1A3
:1009F000547293450FDD4FEA2B52A2F2FF32142AB4
:100A000040F3A384C2F134022CFA02F000FA02F29D
:100A1000624500F0EC8400220092BCF1000FB0D0DF
:100A200020462946029314F011FF029B3BBBB8F10C
:100A3000000F04D0354B29F040429A421FD1BAF141
:100A4000000F05DA02460B460020304914F0E4FAA4
:100A5000B9F1000FB8DA009B08F1404808F580189A
:100A600058EA030340F0968402460B4610461946A6
:100A700013F0F0FF02460B4614F0CEFAA4E7009AFA
:100A80004FEAD973013B0693134333D0234B9B4565
:100A900048DD03F104739B45214B40F3CF83984518
:100AA00040F35D83BAF1000F40F35D8314A3D3E9F3
:100AB00000231046194614F085F985E708F14042F5
:100AC00002F5801213433FF47DAF154B984540F378
:100AD0007783BAF1000FC0F246833046394673E798
:100AE000BAF1000FC0F22184204629466CE70222A9
:100AF00000923FE722462B46B8E700BFAFF30080E5
:100B00009C7500883CE4377E0000F07F0000F03FD9
:100B10000000E03FF4920208FFFF3F430000E04185
:100B2000FFFFEF3FE84B09EA0303002B40F0FB8394
:100B3000E64B002214F046F96FF0340588464FEA80
:100B40002853E34CC8F31302A3F2FF3342F07F585B
:100B50005D19A242079548F4401840F3D383DD4B5A
:100B60009A4240F320849FEDC07BB0EE47BAF0EE8E
:100B700067BAB0EE47CAF0EE67CA9FEDBD7B01359C
:100B800054EC173B0795A8F580184FF0000944EC8A
:100B9000183B1A4641462346824613F05BFF53EC4E
:100BA000182B04460D465046414613F055FF0246A9
:100BB0000B460020C84914F02FFA45EC1A4B41ECC3
:100BC000190B51EC1A0B53EC192B14F0FBF8C3461C
:100BD0004FEA680848F0005808F5002303EB0905C0
:100BE0000A4600230146CDE902120293DDE902899B
:100BF0000024CDE904122B4622464046494614F013
:100C0000E1F802460B4651EC1A0B13F023FF41ECBE
:100C1000170B53EC182B2046294655EC174B13F0B5
:100C200019FF02460B465046594613F013FF424641
:100C30004B4614F0C7F802460B462046294613F0EF
:100C400009FF53EC192B14F0BDF8DDE904AB0446A1
:100C50000D4652465B465046594614F0B3F886A3FB
:100C6000D3E9002345EC1A4B04460D4614F0AAF8CC
:100C700083A3D3E9002313F0EFFE22462B4614F0A2
:100C8000A1F881A3D3E9002313F0E6FE22462B4608
:100C900014F098F87EA3D3E9002313F0DDFE22467A
:100CA0002B4614F08FF87CA3D3E9002313F0D4FE75
:100CB00022462B4614F086F879A3D3E9002313F0DB
:100CC000CBFE22462B4604460D461046194614F02C
:100CD00079F802460B462046294614F073F842463E
:100CE00004460D464B4650465946CDE904AB13F039
:100CF000B3FE53EC1A2B14F065F822462B4613F082
:100D0000ABFE424604460D464B464046494614F06B
:100D100059F845EC194B714B002282468B4613F073
:100D20009BFE53EC192B13F097FE029C0D462246B6
:100D30002B464046494614F045F8684B80468946A4
:100D400000222046294613F085FE52465B4613F0EA
:100D500081FE02460B4651EC190B13F07BFEDDE9D8
:100D6000042314F02FF849EC188B2246804689465C
:100D70002B4651EC1A0B14F025F802460B46404660
:100D8000494613F069FE82468B4652465B4651EC5B
:100D9000180B13F061FE029C43A3D3E90023204605
:100DA0000D4614F00FF853EC182B80468946204668
:100DB000294613F04FFE02460B465046594613F0A3
:100DC00049FE3BA3D3E9002313F0FCFF49EC198B48
:100DD00039A3D3E90023804689462046294613F0EB
:100DE000F1FF02460B464046494613F035FE53ECF0
:100DF0001C2B13F031FE824607988B4613F078FFC8
:100E00005246804689465B4651EC190B13F024FE8E
:100E100053EC1B2B13F020FE42464B4613F01CFEF6
:100E2000029C42464B4620460D4613F013FE53ECFF
:100E30001B2B13F00FFE53EC192B13F00BFE024685
:100E40000B465046594613F005FE82468B46009BE2
:100E5000069A013B134340F0AC819FED197BB0EE45
:100E6000479AF0EE679A3BE00000000000000000A7
:100E7000000000000000F03FEF4E454A287ECA3FC8
:100E800065DBC9934A86CD3F01411DA96074D13FFE
:100E90004D268F515555D53FFFAB6FDBB66DDB3F10
:100EA000033333333333E33F000000E009C7EE3F41
:100EB000FD033ADC09C7EE3FF5015B14E02F3EBEAF
:100EC000000000000000F0BF0000F07F0000404381
:100ED0008E98030079B60B000000F03F0000084038
:100EE0000023CDE900670093DDE9008930464246E2
:100EF00039464B4613F0AEFD22462B4613F062FFF7
:100F000032463B4606460F465046594613F05AFFB6
:100F100002460B463046394613F09EFD4246824655
:100F20008B464B462046294613F04CFF06460F469B
:100F30003B4650465946324613F08EFDBA4B994215
:100F400004460D46884640F3118101F13F4303F505
:100F5000E003034340F010829DA3D3E900235046F1
:100F6000594613F079FD324641EC180B3B462046BA
:100F7000294613F06FFD02460B4651EC180B14F096
:100F8000B1F9002840F0F881C8F30A534FF48012F9
:100F9000A3F2FE3342FA03F34344A449C3F30A52D3
:100FA000A2F2FF3241FA02FCC3F3130523EA0C015B
:100FB000C2F1140445F48015B8F1000F0B4645FA50
:100FC00004F102914FF00000B8BF49420246B8BF99
:100FD00002913046394613F03DFD06460F463B462A
:100FE00050465946324613F037FD029B1B050093CD
:100FF0000D46002478A3D3E900232046294613F0A8
:10100000E1FE3246804689463B462046294613F09B
:1010100021FD02460B465046594613F01BFD70A3B6
:10102000D3E9002313F0CEFE6FA3D3E900230646D5
:101030000F462046294613F0C5FE02460B463046B1
:10104000394613F009FD06460F4632463B464046F8
:10105000494613F001FD42464B460D46044613F047
:10106000F9FC02460B463046394613F0F3FC2B469A
:1010700082468B4622462946204613F0A3FE5CA3F7
:10108000D3E9002306460F4613F09CFE5AA3D3E98A
:10109000002313F0DFFC32463B4613F093FE58A3C7
:1010A000D3E9002313F0D8FC32463B4613F08AFE06
:1010B00055A3D3E9002313F0CDFC32463B4613F091
:1010C00081FE53A3D3E9002313F0C6FC32463B460E
:1010D00013F078FE02460B462046294613F0BAFC70
:1010E00006460F4632463B462946204613F06AFE26
:1010F0000022804689464FF080433046394613F03F
:10110000A9FC02460B464046494613F085FF52466D
:1011100006460F465B462946204613F053FE5246CC
:101120005B4613F099FC02460B463046394613F0F5
:1011300091FC2B46224613F08DFC02460B46002004
:101140003B4913F087FC009D0D44B5F5801FC0F2AC
:101150004A81294653EC192B13F034FE34E4BAF1DA
:10116000000FFFF6A3AC002000212DE4DFF8C8C07B
:1011700021F00043634540F3F7802E4B0B440343BB
:101180000AD132463B4613F065FC52465B4614F0EA
:101190009FF800283FF4F8AE1FA3D3E9002351ECD9
:1011A000190B13F00FFE1CA3D3E9002313F00AFE62
:1011B0000AE49FED1B7BB0EE479AF0EE679A8FE64C
:1011C000BAF1000FCFDA304607F10041FFF7FCBB60
:1011D000FE822B654715973C00000000432EE63F3A
:1011E000EF39FAFE422EE63F396CA80C615C20BE56
:1011F000D0A4BE726937663EF16BD2C541BDBB3E1D
:101200002CDE25AF6A56113F93BDBE166CC1663FFA
:101210003E5555555555C53F59F3F8C21F6EA501AA
:10122000000000000000F03FFFFF8F40FFFF0F00B5
:101230000000F03F00346F3FFFCB904098458EDBBD
:10124000894B98453FF72EAC874B002213F002FCE8
:1012500071A3D3E9002304460D4613F0B3FD70A338
:10126000D3E9002382468B462046294613F0AAFD87
:101270007E4B8046894600222046294613F0A2FD77
:1012800002460B4668A1D1E9000113F0E3FB2246B8
:101290002B4613F097FD02460B460020744913F0CD
:1012A000D9FB22462B4604460D461046194613F03C
:1012B00089FD02460B462046294613F083FD5CA3B8
:1012C000D3E9002313F07EFD02460B464046494613
:1012D00013F0C0FB804689465046594642464B466D
:1012E00013F0BAFB002452465B4620460D4613F02D
:1012F000B1FB02460B464046494613F0ABFB824623
:101300008B46A4E59FED4C7BB0EE47BAF0EE67BA92
:10131000B0EE47CAF0EE67CA9FED497B4FF0000977
:1013200054EC173B33E4002509E422462B464E4992
:10133000002013F071FEFFF747BB22462B462046E4
:10134000294613F03FFDFFF73FBBBCF1000F3ED134
:10135000C2F114024BFA02F000FA02F25A4551D0DF
:10136000CDF800C0FFF70DBB414A934251DCDDE9E7
:101370000012009102913CE633A3D3E9002351EC23
:10138000190B13F01FFD30A3D3E9002313F01AFD4E
:10139000FFF71ABB009B012B7FF416AB01F1004352
:1013A0001946FFF711BB9FED2A7BB0EE47BAF0EE6E
:1013B00067BA9FED297BB0EE47CAF0EE67CA9FED92
:1013C000287B4FF4802954EC173BFFF7E0BB204605
:1013D0002946009314F03AFA009B002B7FF48AAB65
:1013E0000093FFF724BB029A01F07EFDB2E600F005
:1013F0000100C0F102020092BCF1000F3FF4C1AA4B
:10140000FFF70EBB00F00100C0F102020092FFF7EF
:10141000B8BA1B15BAE500BF000000604715F73FDA
:1014200044DF5DF80BAE543E555555555555D53FE7
:10143000FE822B654715F73F00000000000000000A
:10144000000000000000F03F9C7500883CE4377EFF
:101450000000004003B8E23F06D0CF43EBFD4C3E16
:10146000000000000000F83F0000F03F0000D03F07
:101470000000E03F000000002DE9F04FD84B2DEDBB
:10148000048B21F000459D4289B006460F46144664
:1014900040F38880D34B9D428B4629DC0029C2A3B0
:1014A000D3E9002340F3CD8113F0D4FACE4B9D4213
:1014B00006460F4600F08F80BDA3D3E9002313F04A
:1014C000C9FA02460B46C4E900233046394613F0F8
:1014D000C1FAB7A3D3E9002313F0BCFAC4E90201AF
:1014E0004FF0010A504609B0BDEC048BBDE8F08F07
:1014F000BE4B9D4240F39280BD4B9D4260DC4FEA63
:10150000255AAAF2164AA5EB0A510F4613F00AFF14
:1015100013F0EEFB804689463046394642464B463C
:10152000CDE9028913F096FAB24B002213F04AFC7F
:101530000F46064613F0F6FE054613F0D9FB0246A9
:101540000B4630463946CDE9042313F083FAA94B04
:10155000002213F037FC02460B46CDE90623002299
:10156000002313F097FE002800F06981002D0CBFC6
:1015700001230223A04A019202215246009102A8AF
:10158000214600F0A1FBBBF1000F8246AADA626897
:10159000E36802F1004203F10043C0F1000A626017
:1015A000E3609FE74FF0000A002200235046C4E9A1
:1015B0000067C4E9022309B0BDEC048BBDE8F08FDD
:1015C00002460B4613F046FA4FF0000AC4E9020146
:1015D000C4E9000186E778A3D3E9002313F03AFABF
:1015E00077A3D3E9002306460F4613F033FA0246E9
:1015F0000B46C4E900233046394613F02BFA70A39A
:10160000D3E9002313F026FA4FF0010AC4E90201DE
:10161000504609B0BDEC048BBDE8F08F14F016F90C
:1016200069A3D3E9002306460F4613F0CBFB734BA7
:10163000002213F011FA13F075FE824613F058FBE6
:1016400059A3D3E900238046894613F0BBFB024629
:101650000B463046394613F0FDF955A3D3E9002374
:1016600006460F464046494613F0ACFBBAF11F0F41
:1016700049EC198B47EC186B804689460BDC604BB4
:101680000AF1FF3253F82230AB4204D002460B4637
:10169000304639467FE042464B4651EC180B13F07A
:1016A000D9F90A46C2F30A53C3EB1553102B01466E
:1016B000064617464FEA255540F3A4803EA3D3E9DA
:1016C000002351EC190B13F07DFB59EC188B0646E7
:1016D0000F4632463B4618EE100A494613F0BAF957
:1016E00041EC180B404653EC182B494613F0B2F965
:1016F00032463B4613F0AEF931A3D3E90023064648
:101700000F4651EC190B13F05DFB32463B4613F0CC
:10171000A1F98046894642464B4651EC180B13F01E
:1017200099F90A46C2F30A53ED1A312D01460646CD
:10173000174667DD26A3D3E9002351EC190B13F0FC
:1017400041FB56EC185B8046894642464B4618EEF4
:10175000100A314613F07EF941EC180B314653EC78
:10176000182B284613F076F942464B4613F072F9CF
:1017700019A3D3E9002306460F4651EC190B13F0C9
:1017800021FB32463B4613F065F98046894651EC11
:10179000180B42464B4613F05DF9C4E900010646BA
:1017A0000F4631E0AFF3008000004054FB21F93FC9
:1017B0003163621A61B4D03D0000601A61B4D03D5B
:1017C0007370032E8A19A33B83C8C96D305FE43F51
:1017D0000000002E8A19A33BC14920259A837B393A
:1017E000FB21E93F7BD90240FB21F93FFB21394135
:1017F000FFFFEF7F00007041109502080000E03FFE
:1018000090940208C4E9001232463B4651EC180B92
:1018100013F020F942464B4613F01CF9BBF1000FC0
:10182000C4E90201BFF65EAE07F1004501F10043D5
:10183000C4E90065C4E90203CAF1000A52E60323C1
:1018400098E613F009F9244B9D4206460F4616D040
:101850001BA3D3E9002313F0FFF802460B46C4E9AB
:1018600000233046394613F0F5F815A3D3E90023D9
:1018700013F0F2F84FF0FF3AC4E9020132E612A386
:10188000D3E9002313F0E8F811A3D3E900230646B7
:101890000F4613F0E1F802460B46C4E90023304638
:1018A000394613F0D7F80AA3D3E9002313F0D4F88C
:1018B0004FF0FF3AC4E9020114E600BFAFF3008025
:1018C0003163621A61B4D03D0000601A61B4D03D4A
:1018D0007370032E8A19A33BFB21F93F000000001F
:1018E000574A2DE9F84F21F00048904504460D462F
:1018F00058DC544B0029B4BF534F544F98454FF018
:10190000000612DD524B984540F38C80514B9845B0
:1019100054DD013398454ED047A3D3E90023204638
:10192000294613F04FFABDE8F88F4B4B98455CDC25
:1019300041A3D3E9002313F08FF8484B002213F0A2
:10194000D1FCA8BB2046294613F080FF01F084F8A3
:1019500004460D4622462B462046294613F07CF8C5
:10196000224682468B462B462046294613F02AFA09
:101970003A4B8046894600222046294613F06CF8EF
:1019800002460B464046494613F046FB02460B46CC
:101990005046594613F05EF832463B4613F012FAB1
:1019A000BDE8F88F02460B4613F056F8BDE8F88FF5
:1019B00020462946FAE72A4B9842ADD820462946C8
:1019C00013F044FF214B002213F0FCF9FEF75CFBFF
:1019D00004460D4622462B463046394613F0F2F9AE
:1019E00022462B4613F0EEF9E0E713F02FFF01F04B
:1019F00033F81C4B984504460D46ABDD174B0022CF
:101A000013F02AF802460B462046294613F004FB41
:101A100022462B4613F020F832463B4613F0D2F90B
:101A2000BDE8F88F13F012FFFEF72EFB32463B465F
:101A300013F0C8F9BAE700BF3374AC3C1F7BAC7F2E
:101A4000FFFFEF7FFFFF35400000E0BF0000E03FF9
:101A5000412E8640CD338640FFFF2F3E0000F03FF1
:101A60007DF8B98FFFFFEF3F2DE9F84F21F00049D6
:101A7000B9F1795F2DED048B06460F4692469B46E1
:101A80006CDA13F04FFC002800F0EE8032463B4643
:101A90003046394613F096F977A3D3E9002304467C
:101AA0000D4613F08FF976A3D3E9002312F0D4FF8B
:101AB00022462B4613F086F973A3D3E9002312F0D4
:101AC000C9FF22462B4613F07DF971A3D3E9002309
:101AD00012F0C2FF22462B4613F074F96EA3D3E92D
:101AE000002312F0B7FF22462B4613F06BF96CA3CC
:101AF000D3E9002312F0B0FF22462B4613F062F91F
:101B000041EC180B6A4B00222046294613F05AF983
:101B100053EC182B804689462046294613F052F98B
:101B200052465B4604460D463046394613F04AF9A4
:101B300002460B462046294612F08CFF02460B4611
:101B40004046494612F086FF02460B46002059499E
:101B500012F080FFBDEC048BBDE8F88F02460B4607
:101B600013F030F944A3D3E9002304460D4613F0E3
:101B700029F943A3D3E9002312F06EFF22462B4636
:101B800013F020F940A3D3E9002312F063FF2246AB
:101B90002B4613F017F93EA3D3E9002312F05CFFA4
:101BA00022462B4613F00EF93BA3D3E9002312F093
:101BB00051FF22462B4613F005F939A3D3E9002340
:101BC00012F04AFF2B46224613F0FCF83A4B994597
:101BD00041EC180B96DD394B99453ADC0022A9F50A
:101BE0000013344900209046994612F033FF41EC2F
:101BF000190B2F4B00222046294613F0E3F84246EA
:101C00004B4612F027FF53EC182B8046894620469E
:101C1000294613F0D7F852465B4604460D46304637
:101C2000394613F0CFF802460B462046294612F0FB
:101C300011FF02460B464046494612F00BFF024692
:101C40000B4651EC190B12F005FFBDEC048BBDE8FF
:101C5000F88F9FED157BDFF86890B0EE479AF0EEB5
:101C6000679A4FF00008C4E7BDEC048B11490020CF
:101C7000BDE8F88FAFF30080D43888BEE9FAA8BD7C
:101C8000C4B1B4BD9EEE213EAD529C804F7E923ECB
:101C90009015CB19A001FA3E7751C1166CC1563F81
:101CA0004C5555555555A53F000000000000E73F35
:101CB0000000E03F0000F03F3233D33F0000E93F37
:101CC0000000D23F000000002DE9F04FADF5197D76
:101CD000B84CA29D089354F825400594013B12F19D
:101CE000140F04900B910393C0F22083B249D31ECA
:101CF00081FB0301DB17C3EBA10307930133A3EBC4
:101D00008303DB00D3180693079A039BD41A059A22
:101D1000D6181AD40136A39F4FF000084FF00009DF
:101D2000264420AD08E057F8240012F0E1FF01340A
:101D3000B442E5E8020108D0002CF4DA0134404650
:101D40004946B442E5E80201F6D1059B002BC0F2FA
:101D5000B883089BDDF80C90DA000292059A1A44C9
:101D60000192049A20A901EBC30A0DF5E07B02EB76
:101D7000C308039B002B4FF000044FF0000511DB5C
:101D8000049E574677E90223F6E8020113F01AF899
:101D900002460B462046294612F05EFE46450446A2
:101DA0000D46EFD1019B09F101099945EBE8024588
:101DB0000AF1080ADDD1059A04980CA901EB820307
:101DC00002990144083B8B460BA90993134601EB8A
:101DD00082020A920193019A98A901EBC203002A98
:101DE00053E928452ADD0DF5E07909EBC2080DF12C
:101DF000300A724B00222046294612F0E3FF13F00E
:101E000091FA12F075FF6E4B002206460F4612F053
:101E1000D9FF02460B462046294612F01BFE13F05E
:101E200081FA044678E902234AF8044B30463946E1
:101E300012F012FEC84504460D46DAD1DDF81890BE
:101E4000204629464A4601F04FF800224FF07F53C2
:101E500004460D4612F0B6FFFCF7BEFE594B0022B9
:101E600012F0B0FF02460B462046294612F0F2FD62
:101E70000D46044613F056FA804612F039FF0B4621
:101E800002462946204612F0E5FD4B46002B064649
:101E90000F4640F39980019A0CA9013AC9F1180341
:101EA00051F8225045FA03F101FA03F3EB1AC9F194
:101EB00017050CA843FA05F5002D40F82230884498
:101EC00000F38C80002200233046394613F0E2F9FB
:101ED000002800F05182019B059A03F1FF3A524518
:101EE00010DC03F180430CAA013B0A9802EB830348
:101EF000002253F80419834242EA0102F9D1002A70
:101F000040F0DD80059B0CAA013B52F82330002BEA
:101F100040F0D080099A012352F8041901330029B6
:101F2000FAD001994A1CCB1802939146079B089955
:101F300002EB030A019B0B44984620AB0AF1804A4E
:101F400003EBC808A39B0AF1FF3A03EB8A0A70ABC4
:101F500003EBC20301935AF8040F12F0C9FE0B46BB
:101F6000039902460029C8E9002347464FF00004C0
:101F700008F108084FF0000511DB049E01E077E945
:101F80000223F6E8020112F01DFF02460B4620462E
:101F9000294612F061FD5E4504460D46EFD1019BD6
:101FA000E3E802450193029B09F101099945D2DD5D
:101FB00010E700BFB0990208ABAAAA2A0000703E41
:101FC00000007041000020406BD1019B0CAA013B36
:101FD00052F82350ED15002D7FF774AF019B002BB5
:101FE00008F1010840F3C6810C9C002C51D1019BE3
:101FF000012B20D00CAB012253F8044F002C4BD006
:10200000531C0CA9C4F1807441F8224001999942F3
:1020100010DD0CAA0CA852F8232000EB830300EB80
:1020200081006FF07F4100E01A688A1A43F8042BA0
:102030008342F9D10124069B002B0EDD012B00F019
:102040006A81022B09D1019B5A1E0CAB0CA953F8D3
:102050002230C3F3150341F82230022D7FF432AF52
:1020600032463B46B649002012F0F4FC06460F46C5
:10207000002C3FF427AF069AB149002000F034FF4E
:1020800002460B463046394612F0E4FC06460F463F
:1020900018E701230022B4E7019901328A42ABD14B
:1020A000C9E7A84B002213F013F9002840F0508133
:1020B000054607E7019B5A1C9146029236E70CAB96
:1020C000069A53F82A30CDF81C80183A03950692E8
:1020D00073B9019B03F18043023B0CA901EB83031D
:1020E00053F804190AF1FF3A183A0029F8D0069279
:1020F000069A9349002000F0F7FEBAF1000F04465B
:102100000D46C0F2D48170AB03EBCA0B0CAA0AF1E6
:102110000103069302EB83084FEACA030BF1080997
:10212000049358F8040D12F0E3FD22462B4612F0FA
:1021300049FE06460F46844B2046294669E9026758
:10214000002212F03FFE0CAB984504460D46E8D144
:1021500048ABCDE9013ADDF814A0BAF1000F4FF019
:1021600000092CDB74A3D3E90023DFF8E0815F468C
:1021700000240025002603E0B14510DBF8E8022327
:10218000F7E8020112F01EFE02460B4620462946E1
:1021900012F062FC0136B24504460D46ECDA019BB2
:1021A000029A03EBC9034A45C3E90045ABF1080BAA
:1021B00009F1010306D0BAF1000F9946D2DA0024E2
:1021C0000025ECE7A29BDDF808A0022B1EDC002B0B
:1021D00000F3058113D1049C019D083400200021E7
:1021E0002C4474E9022312F037FCA542F9D1039B79
:1021F00013B101F1004319460B9BC3E90001079B92
:1022000003F007000DF5197DBDE8F08FA29B032BAD
:10221000F5D1BAF1000F00F06681019A049BD31842
:10222000D3E9004502EBCA0B7BE902672046294649
:1022300032463B4612F010FCA046A94604460D4625
:1022400022462B463046394612F004FC4B464246A5
:1022500012F002FC019B5B45CBE90045CBE9020192
:10226000E2D1BAF1010F40F33E81019A049B0AF1D9
:10227000005A0AF1FF3A13444FEACA01D3E9004574
:1022800001F1080A029192440DF5947B7AE9026704
:102290002046294632463B4612F0DEFBA046A946C0
:1022A00004460D4622462B463046394612F0D2FBF4
:1022B00042464B4612F0D0FBD345CAE90045CAE975
:1022C0000201E3D1029C019B0026002710341C442C
:1022D00003F110053046394674E9022312F0BCFBC5
:1022E000A542F9D106460F46039B002B40F0B5806E
:1022F000019A0B99D2E90045D2E90223C1E90223F0
:10230000079B03F00700C1E90467C1E900450DF52B
:10231000197DBDE8F08F019B5A1E0CAB0CA953F838
:102320002230C3F3160341F8223096E600216FF005
:1023300017030791E6E400BF00000040FB21F93FCE
:102340000000F03F0000E03F0000703E18820208ED
:10235000019B002B08F10108C8BF02253FF744AEDE
:1023600032463B466149002012F074FB02250646C6
:102370000F46A7E500245EE63946069F03957A429C
:102380003046CDF81C8000F0AFFD594B00220446CA
:102390000D4612F09DFF002855D0564B00222046D6
:1023A000294612F00FFD12F0BDFF064612F0A0FC08
:1023B0004F4B002212F006FD0B46024629462046EE
:1023C00012F048FB019C12F0ADFF04F1010A0CABC6
:1023D000183743F82400069743F82A6088E6019DE1
:1023E000069A002005EBC204002174E9022312F0D2
:1023F00033FBA542F9D1039B002B48D10B9BC3E9CA
:1024000000010B4601990246D1E9000112F022FBBE
:10241000BAF1000F0DDD4AAD0124F5E802230134C5
:1024200012F01AFBA245F8DA039B13B101F1004345
:1024300019460B9BC3E90201079B03F007000DF54A
:10244000197DBDE8F08F2046294612F06BFF019BF5
:102450000CAA9A4642F823004AE6019B19465A689C
:10246000DB680D688C680B9903F10043CB60079B18
:102470000D6002F100424A6003F0070007F10042DC
:102480008C600E614A610DF5197DBDE8F08F0B9CE3
:1024900001F10043C4E900030B4601990246D1E96A
:1024A000000112F0D7FABAF1000FB4DCBEE7A29B2C
:1024B000022B0ADC002B11DC7FF4A1AE00200021EE
:1024C00095E6089BDB00029375E4A29B032B7FF447
:1024D00096AE48AB00260027019305E748AB0020E5
:1024E0000021019387E700260027FDE60000F03F6A
:1024F000000070410000703E2DE9F04F1F4621F0B2
:10250000004383B01646B3F1795FCDE90067044616
:102510000D4604DA12F006FF002800F085802246FE
:102520002B462046294612F04DFC06460F46324601
:102530003B462046294612F045FC42A3D3E900233E
:1025400082468B463046394612F03CFC3FA3D3E925
:10255000002312F07FFA32463B4612F033FC3DA3D3
:10256000D3E9002312F078FA32463B4612F02AFCF7
:102570003AA3D3E9002312F06DFA32463B4612F03B
:1025800021FC38A3D3E9002312F066FA0C9B8046A5
:1025900089469BB3DDE90001294B002212F012FCB1
:1025A00042464B46804689465046594612F00AFC40
:1025B00002460B464046494612F04CFA32463B462C
:1025C00012F000FCDDE9002312F044FA1AA3D3E96B
:1025D000002306460F465046594612F0F3FB0246CA
:1025E0000B463046394612F037FA02460B46204673
:1025F000294612F02FFA03B0BDE8F08F02460B46D1
:102600003046394612F0DEFB0BA3D3E9002312F06B
:1026100021FA52465B4612F0D5FB22462B4612F0B9
:102620001BFA03B0BDE8F08F2046294603B0BDE891
:10263000F08F00BFAFF30080495555555555C53F44
:102640000000E03F7CD5CF5A3AD9E53DEB9C2B8A80
:10265000E6E55A3E7DFEB157E31DC73ED561C1197F
:10266000A0012A3FA6F810111111813F00000000BF
:102670002DE9F04F2DED048BC74C85B021F00045BE
:10268000A54243EC192B80468946039100951CDC3A
:1026900012F048FE002846D1129B424601331343F4
:1026A0002B4300F0C781129B012B00F0D0814B46D9
:1026B000BA49002012F0B0FC04460D4620462946D7
:1026C00005B0BDEC048BBDE8F08FB54B009A9A4283
:1026D00029DD039B002B0ADA55EC194B19EE102A61
:1026E00005F1004309F1004143EC192B89464246AC
:1026F0004B4689A1D1E9000112F0ACF953EC192B3A
:1027000004460D4686A1D1E9000112F0A3F9224644
:102710002B4612F0A1F99FED847B80468946B0EEEE
:10272000479AF0EE679A42464B464046494612F0B9
:1027300049FB02460B4682468B4612F043FB52464B
:1027400004460D465B464046494612F03BFB78A3E3
:10275000D3E9002306460F462046294612F032FBF5
:1027600075A3D3E9002312F077F922462B4612F025
:1027700029FB73A3D3E9002312F06EF922462B46FE
:1027800012F020FB70A3D3E9002312F065F9224672
:102790002B4612F017FB6EA3D3E9002312F05CF96D
:1027A00022462B4612F00EFB6BA3D3E9002312F056
:1027B00053F952465B4612F005FB47EC186B68A3D1
:1027C000D3E9002306460F462046294612F0FAFABE
:1027D00065A3D3E9002312F03FF922462B4612F0FD
:1027E000F1FA63A3D3E9002312F036F922462B460F
:1027F00012F0E8FA60A3D3E9002312F02DF9224683
:102800002B4612F0DFFA5EA3D3E9002312F024F97D
:1028100022462B4612F0D6FA5BA3D3E9002312F02E
:102820001BF955EC194B02460B463046394612F05F
:1028300013F953EC182B12F0C5FA2B4619EE102A97
:1028400012F00AF952465B4612F0BCFA2B4619EE1A
:10285000102A12F001F94EA3D3E9002304460D46D5
:1028600051EC180B12F0AEFA22462B4612F0F4F897
:1028700006460F4632463B464046494612F0ECF8C3
:10288000474B009A9A4204460D4600F38D80129BF6
:10289000012B39D002460B460020404912F0BCFB08
:1028A00082468B465C465346CDE9003429460020DB
:1028B00042464B46824612F0CDF802460B46304661
:1028C000394612F0C7F82346524612F07BFAAB465F
:1028D000234606460F4652465046594612F072FAB3
:1028E000304B002212F0B8F802460B46304639460B
:1028F00012F0B2F8DDE9002312F064FA23465246E2
:1029000012F0AAF804460D462046294605B0BDEC53
:10291000048BBDE8F08F00BF182D4454FB21E93F24
:10292000075C143326A6813C000000000000000074
:10293000D47ABF74702AFB3EE9A7F0320FB8123F79
:1029400068108D1AF726303F1583E0FEC8DB573F2D
:1029500093846EE9E326823FFE41B31BBAA1AB3FED
:10296000735360DBCB75F3BEA69237A0887E143F0D
:102970000165F2F2D844433F280356C9226D6D3FEA
:1029800037D60684F464963F7AFE10111111C13FC8
:10299000635555555555D53FFFFF2F3E0000F0BFFD
:1029A0002794E53F0000F03F129812F0A1F922466B
:1029B00082468B462B462046294612F003FA5246A1
:1029C00041EC180B5B462046294612F045F80246BA
:1029D0000B4651EC180B12F01FFB32463B4612F02F
:1029E00039F802460B464046494612F033F8024693
:1029F0000B4612F031F802460B465046594612F08B
:102A000029F8039B9B1703F002030446C3F101005E
:102A10000D4612F06DF902460B462046294612F08B
:102A2000D1F904460D462046294605B0BDEC048B7D
:102A3000BDE8F08F4046494612F008FF02460B46BB
:102A40000020044912F0E8FA04460D465CE74446CB
:102A50004D4659E70000F03F2DE9F04FDE4A2DEDDD
:102A6000028B21F00043934283B004460D460E468C
:102A700040F20081D94A934200F2EF80002EC0F26A
:102A80005781BDA3D3E900232046294612F09AF9C5
:102A9000D34F002602460B463046394611F0DCFF84
:102AA00012F040FC019012F023F9B5A3D3E9002302
:102AB0008046894612F086F902460B462046294692
:102AC00011F0C8FFB0A3D3E9002306460F464046E5
:102AD000494612F077F98046894642464B463046D1
:102AE000394611F0B7FF04460D4622462B463046C4
:102AF000394611F0AFFF42464B4611F0ABFF41ECB7
:102B0000180BB74B00222046294612F05BF9064607
:102B10000F4632463B462046294612F053F99CA305
:102B2000D3E9002382468B4612F04CF99AA3D3E9ED
:102B3000002311F091FF52465B4612F043F998A32F
:102B4000D3E9002311F086FF52465B4612F03AF9B2
:102B500095A3D3E9002311F07FFF52465B4612F0A4
:102B600031F993A3D3E9002311F074FF52465B4679
:102B700012F028F99B4B002211F06EFF8046894627
:102B800042464B463046394612F01CF902460B4687
:102B90000020954911F05EFF06460F46324640463A
:102BA00049463B4611F056FF3246804689463B4631
:102BB0002046294612F006F902460B4600208B49B2
:102BC00011F048FF02460B464046494612F024FAEF
:102BD00052465B4612F0F6F8019E02460B46002E66
:102BE00051D057EC186B18EE102A3B4611F032FF0B
:102BF00022462B4612F0E6F83B4618EE102A11F05A
:102C000029FF5B46524611F025FF019B0133064622
:102C10000F4600F01181019B012B00F0F380019B16
:102C20000133392B72D8019A132A00F314814FF41F
:102C300000131341C3F17F5722462B4611F00AFFC0
:102C4000002607F5401702460B463046394611F07C
:102C500001FF019A01EB025123E0654A934239D901
:102C6000C1F313030343024600F00A810B4611F03F
:102C7000F3FE16E05F4A934218D85F4A934271D937
:102C8000002301933DE72046294612F09BF8524667
:102C90005B4611F0DFFE02460B462046294611F046
:102CA000D9FE03B0BDEC028BBDE8F08F534A9342CE
:102CB00000F2FB80002932A3D3E900231ADB11F0D4
:102CC000C9FE01230FF2C009D9E900890193064624
:102CD0000F4602E738A3D3E9002312F003FB0028D4
:102CE0003FF4CCAE002003B0BDEC028BBDE8F04F4A
:102CF00014F09AB911F0B0FE4FF0FF330FF2C00993
:102D0000D9E90089019306460F46E6E622462B469E
:102D100011F0A0FE02460B460020324911F09AFE47
:102D2000019A304B01EB0251002211F093FEB8E7FB
:102D300025A3D3E900232046294611F08DFE002269
:102D4000002312F0B1FA002840F09D800AA3D3E9D5
:102D500000232046294612F035F8294F0026024666
:102D60000B4699E61AA3D3E9002311F075FE02463B
:102D70000B468EE7AFF30080FE822B654715F73FC9
:102D80000000E0FE422EE63F763C7935EF39EA3D21
:102D90002DC3096EB7FD8ABE3952E686CACFD03E32
:102DA000B7DBAA9E19CE143F8555FE19A0015A3FE4
:102DB000F41011111111A13FEF39FAFE422E864095
:102DC000763C7935EF39EABD59F3F8C21F6EA5019B
:102DD0009C7500883CE4377E79684340412E8640EC
:102DE0000000E03F0000F03F0000084000001840F5
:102DF000FFFFEF7F422ED63FFFFF8F3CB1A2F03F97
:102E00000000E0BF324B00222046294612F04CFA67
:102E100000283BD02F4B20462946002211F01CFEF3
:102E200002460B463046394611F014FE00224FF0A0
:102E3000404311F0C7FF34E702460B4620462946BF
:102E400011F008FE234B002211F0BCFF214B0022A1
:102E500011F000FE25E7019FC7F57F7603360022BB
:102E6000330511F0F9FD02460B462046294611F0C4
:102E7000F1FD194B002211F0EFFD01EB075110E7B6
:102E80000029BFF60EAF154900200AE732463B463F
:102E90002046294611F0DEFD02460B4611F0DCFD0E
:102EA0000D4B002211F0D8FDFBE607A3D3E9002368
:102EB00011F088FF002DB4BF094F064F02460B46A4
:102EC0000026E9E5AFF30080FE822B654715F73F4A
:102ED0000000D0BF0000E03F0000F03F0000F0BF66
:102EE0000000E0BF00000000F8B5C1F30A5304463B
:102EF0000D460E46174653BB21F0004603463343AA
:102F000024D0374B002211F05DFF364B9F42044620
:102F10000D4616DBC1F30A530E46363B3B4440F2E6
:102F2000FE7293421CDC002B3BDC13F1350F2BDAD5
:102F30004CF250339F4213DC002D21A1D1E9000156
:102F400037DB1FA3D3E9002311F03CFFF8BD40F2AB
:102F5000FF729342E2D102460B4611F07DFDF8BDAF
:102F6000002D19A1D1E9000105DB17A3D3E9002346
:102F700011F028FFF8BD14A3D3E9002314A1D1E96F
:102F8000000111F01FFFF5E726F0FF4626F4E006EA
:102F9000363346EA03512046134B002211F012FF4C
:102FA000F8BD26F0FF4626F4E006204646EA035127
:102FB000F8BD09A1D1E90001C3E700BFAFF300806C
:102FC00059F3F8C21F6EA5019C7500883CE4377E5A
:102FD0009C7500883CE437FE59F3F8C21F6EA5814A
:102FE00000005043B03CFFFF0000903C10B5054C82
:102FF000237833B9044B13B10448AFF300800123A5
:10300000237010BD3003002000000000689B020800
:1030100008B5034B1BB103490348AFF3008008BD5B
:103020000000000034030020689B0208A3F5803AEA
:10303000704700BF174B002B08BF134B9D46FFF78F
:10304000F5FF00218B460F461348144A121A05F06B
:10305000C7FF0E4B002B00D098470D4B002B00D024
:1030600098470020002104000D000D48002802D0E0
:103070000C480CF0C3FC14F00BFB200029000CF0F2
:103080009DFC0CF0B7FC00BF000008000000000031
:10309000ADF9010800800220B0020020542D00206C
:1030A000FDF9010800000000F0B5214D2C6883B047
:1030B00014B1204603B0F0BD4FF496700CF0A0FCA4
:1030C0004FF0FF310446032000F088FE00B202F00A
:1030D000E7FF4FF0FF310646022000F07FFE00B20E
:1030E00002F0DEFF31460246204609F077FA04F18D
:1030F000DC0600231A463046012109F0F3F84FF0B0
:10310000FF31012000F06AFE00B202F0C9FF9827EB
:103110004FF0050C0246CDE9007C3346214604F110
:10312000E40006F0B3FA20462C6003B0F0BD00BF07
:103130004C0300202DE9F04104460E46FFF7B4FF92
:1031400000F1E4070546384606F0BEFA082C18D010
:10315000A4F10903012B0CD8D5F8E43038461B6ADA
:103160009847052805DCD5F8E4303846DB690821A6
:103170009847324621461023BDE8F0410D2002F069
:1031800067BED5F8E43038461B6A98470228F0DC61
:10319000D5F8E4303846DB6904219847E9E700BFF9
:1031A00010B52DED028BFFF77FFF00F1E404204600
:1031B00007F02CFF08EE900A204607F037FF07EED5
:1031C000900A2046B8EEE78A07F040FFF8EEE88A5A
:1031D00068EE087A07EE100AE8EEA87AB8EEC77A29
:1031E000E7EE077AF5EE407AF1EE10FAB1EEE78AF3
:1031F00006D4FDEEC87ABDEC028B17EE900A10BD26
:1032000017EE900A12F062FFF3E700BF08B503283B
:103210001CD8DFE800F0060D1402BDE80840FFF7F7
:10322000BFBFFFF741FFBDE80840E43007F0EEBE46
:10323000FFF73AFFBDE80840E43007F0F7BEFFF7BC
:1032400033FFBDE80840E43007F000BF002008BDB0
:1032500008B518B1012808D0002008BDFFF724FFE9
:10326000BDE80840E430FBF7BFB9FFF71DFFBDE83C
:103270000840E430FBF7D8B900B583B00190FFF700
:1032800013FF0199E43003B05DF804EB07F0C4BC10
:1032900008B500F0A1FFFBF753FFBDE8084000F0C0
:1032A000F3BC00BF08B500F097FFFBF78DFFBDE84A
:1032B000084000F0E9BC00BF08B500F08DFF12F037
:1032C00041FBBDE8084000F0DFBC00BF08B500F0DE
:1032D00083FF12F09DFEBDE8084000F0D5BC00BFA2
:1032E00008B500F079FFFBF73BFFBDE8084000F0B0
:1032F000CBBC00BF08B500F06FFF12F0CFFCBDE8FB
:10330000084000F0C1BC00BF08B500F065FFFBF746
:10331000ABF9BDE8084000F0B7BC00BF08B500F04D
:103320005BFF12F05BFCBDE8084000F0ADBC00BFE5
:1033300070B5049D95420C4625DB164653B9042A08
:103340001AD0022A11D110F001030ED102880A808E
:10335000184670BD10440B468A1810F8011D03F87A
:10336000011B9A42F9D1002070BD01463246204629
:1033700004F0D6FD002070BD10F00303F5D1026803
:103380000A60184670BD0846002105F029FE4FF07E
:10339000FF3070BD0830704728B1002902DB436858
:1033A0008B4201DC002070470844007A704700BF60
:1033B00030B1002904DB43688B42C4BF401802725D
:1033C000704700BF002B23DB002970B50D461CDBC6
:1033D0004168A94219DB5668491B1446F21A8A4211
:1033E000A8BF0A46002A10DB844207D00834083000
:1033F0002844E11804F094FD002070BD0834E11861
:10340000601914F001FC002070BD4FF0FF3070BD5A
:103410004FF0FF30704700BF4068704710B4141E73
:1034200010DB4268A2420DDB33EA230328BF1346B8
:10343000121B08309A422044A8BF1A465DF8044B7C
:1034400005F0CEBD5DF8044B704700BF436899425C
:10345000A8BF194610B40C4632EA220128BF19460B
:103460001B1B083099422044A8BF19465DF8044B45
:1034700000F09CBA002BBCBF43689B1A002A70B5B1
:103480000E4622DB44689918A1421EDC91421CDBE7
:10349000DBB136F0004118D05942B14213DAB342E1
:1034A00011DD0830002E00EB020516DB9C1B2246C6
:1034B000A919284614F0A8FB324628190021BDE8B6
:1034C000704005F08DBD002C00DA70BD224608303A
:1034D000BDE87040002105F083BD9A192946744269
:1034E000A81B14F091FB224628460021BDE870403D
:1034F00005F076BD70B5054600206968490000F00A
:1035000025FA6B68002B14DD0A4EE91D02460B46B6
:1035100011F8014F2411063B345D94710C7804F0CE
:103520000F045B1B345DD4716C689C4202F1020293
:10353000EDDC70BD60820208002BBCBF43689B1AA3
:10354000002A30DB30B445689C18AC4229DC944238
:1035500027DB33B331F0004423D00029B8BF01EB9F
:10356000032191FBF3F403FB1411002900F108007F
:10357000B8BFC91802445418A242134411D02046BF
:1035800004E0A24208460FD082420AD001461578D4
:10359000007802F8010B01F8015B8B42F1D1204663
:1035A000F2E730BC704770470C46EDE700B583B0DA
:1035B0004FF0FF3300930023FFF704FF03B05DF8E3
:1035C00004FB00BF0146002000F0F0B930B5013A1D
:1035D000044683B00D4618460F2A13D8DFE802F0E0
:1035E0001C145761521C144C222D3D4767087D6CFA
:1035F00000F0F2FD072DCDE9000103DD6B4603CBA2
:103600002060616003B030BD00F07AFE002DC0B2D2
:10361000F8DD207003B030BD00F072FE002DF1DD4A
:103620002070F7E700F06CFE012D83B2EADDC3F3F2
:1036300007232370607003B030BD00F061FE032DDE
:10364000E0DDC0F30721C0F30742C0F30763E07079
:10365000A1706270237003B030BD00F0E5FD032D52
:10366000D0DDA3070CBF2060206003B030BD00F0A8
:10367000DBFD032DE5DCC5E700F042FE012D03B2C2
:10368000D5DCBFE700F03CFE032DEADCBAE700F032
:1036900037FE012DB6DDE20754BF2080208003B045
:1036A00030BD00F02DFE012D80B2F4DCAAE700F061
:1036B000BDFE032DD5DCA5E700F08EFD072DCDE97D
:1036C00000019FDD0DF1FF3204F1080312F8011F24
:1036D00003F8011DA342F9D194E700F0A7FE032DE2
:1036E000AFDC8FE730B4141E07DB456808300A46AC
:1036F0002044291B30BCFFF769BF30BC704700BFB6
:1037000000B5013A85B00F2A00F28880DFE802F0A8
:103710001623303D4A56595C5F6265717480830898
:103720000091012308220DEB0201FFF701FEDDE904
:10373000020100F0A9FA05B05DF804FB0091002336
:10374000012202A9FFF7F4FD9DF9080000F0DCFA60
:1037500005B05DF804FB00910023012202A9FFF7E8
:10376000E7FD9DF8080000F0CFFA05B05DF804FB16
:1037700000910023022202A9FFF7DAFDBDF908003B
:1037800000F0C2FA05B05DF804FB009100230222AC
:1037900002A9FFF7CDFDBDF8080000F0B5FA05B0AD
:1037A0005DF804FB00910023042202A9FFF7C0FD8D
:1037B000029800F0A9FA05B05DF804FB012300911E
:1037C000BEE701230091C8E700910123D2E70091F1
:1037D0000123DCE700910123E6E7009100230422A6
:1037E00002A9FFF7A5FD029800F09AFA05B05DF86E
:1037F00004FB00910123F2E700910023042202A9B7
:10380000FFF796FD029800F059FA05B05DF804FB49
:103810000091002386E700910123EFE700208AE76B
:10382000131E09DB10B4446808300A461844E11A34
:103830005DF8044BFFF764BF002000F065BA00BFDD
:1038400002F0D4BA02F004BB05F0ECBFC11702F0DD
:1038500037BA00BF02F048BA02F058BA02F0C4BA50
:1038600018B18188063002F0A5BD7047704700BFCF
:1038700038B504460C200D460CF0C2F80321202276
:10388000446085600180428038BD00BF08B511F0FA
:103890002FFABDE80840FFF7EBBF00BFD0B50446E4
:1038A00011F016FA064644F31E000F4611F020FAF6
:1038B00002460B463046394611F0ECFC18B1640064
:1038C00044F00100D0BD30463946BDE8D040FFF796
:1038D000CFBF00BF054B1B682BB15A688242FAD19B
:1038E0009A688A42F7D11846704700BF50030020FB
:1038F0002DE9F041DFF85080D8F8004005460E462B
:10390000174614B910E0246874B163689D42FAD177
:10391000A3689E42F7D1384601F046FCE06801F00A
:10392000EFFDE760BDE8F081384601F03DFC102076
:103930000CF066F8D8F80030C760C0E901560360A3
:10394000C8F80000BDE8F08150030020F8B50C1E57
:10395000074613DB02D1144E3046F8BDE01D0CF0D3
:103960004FF80322012306468480028043802546C7
:103970009FB9311900238B713046F8BD14F0D5F989
:10398000054604460028E6D007300CF039F803223B
:10399000012306468580028043802A463946B01DB1
:1039A00004F0BEFAE5E700BF3C83020870B50C1EC8
:1039B00012DD064604F108000CF022F8032202236F
:1039C000028005464460438022463146083036B1C5
:1039D00004F0A6FA284670BD034D284670BD05F0D8
:1039E000FFFA284670BD00BF34830208014B1860FF
:1039F000704700BF0402002030B40E4D2A68044610
:103A000021460020930983EAD273534083EA1213BC
:103A100083EA920383EA5203DB0743EA520202F08D
:103A20000103490843EA4000ECD18442E8D32A600C
:103A300030BC70470402002001480021FFF786BF18
:103A4000F492020800B583B002460023012101A8C8
:103A50008DF804208DF80530FFF778FF03B05DF88E
:103A600004FB00BF00B583B020B1002902DB8388CE
:103A70008B4206DC00210A48FFF768FF03B05DF8BF
:103A800004FB0844002382798DF80420012101A859
:103A90008DF80530FFF75AFF03B05DF804FB00BF57
:103AA000F492020850B1002908DB83888B4205DDBF
:103AB00008448079400040F001007047014900202F
:103AC000FFF7D6BE0000F87F70B50D46F0B18188D3
