:020000040800F2
:10E0000000800220552F02087592020875920208BE
:10E0100075920208759202087592020800000000CD
:10E02000000000000000000000000000B1EB01084B
:10E03000759202080000000057EC0108B7EC0108D7
:10E04000759202087592020875920208759202088C
:10E05000759202087592020875920208759202087C
:10E06000759202087592020875920208759202086C
:10E07000759202087592020875920208759202085C
:10E0800075920208759202087592020885FC0108D3
:10E0900071FB01087592020889FC0108759202085B
:10E0A000759202087592020875920208759202082C
:10E0B000759202087592020800000000759202082D
:10E0C000759202087592020875920208759202080C
:10E0D00075920208759202087592020875920208FC
:10E0E000759202087592020800000000000000000E
:10E0F0000000000000000000000000000000000020
:10E1000000000000759202080000000075920208ED
:10E1100075920208000000007592020800000000DD
:10E1200075920208759202087592020875920208AB
:10E1300075920208759202087592020800000000AC
:10E14000759202087592020875920208759202088B
:10E15000759202087592020875920208759202087B
:10E16000759202087592020875920208000000007C
:10E17000000000007592020800000000000000008E
:10E18000759202087592020875920208759202084B
:10E1900075920208000000002DE9F04F2DED028B72
:10E1A00085B003910478A4F10903042B054604F01B
:10E1B0007F0200F10100F5D9202AF3D02B2C04BFF7
:10E1C0006C7805462D2C00F081809FED497BB0EEE8
:10E1D000478AF0EE678A00260027D4B34FF0000C80
:10E1E000DFF81C914FF00008E246AB461DE018F046
:10E1F0006DF902460B462846CDE9002318F0FCF8DD
:10E20000DDE9002317F0ACFF424606460F464B46B9
:10E2100051EC180BBAF1000F2CD018F081FA41EC38
:10E22000180BD4461BF8014F94B1A4F13005092D09
:10E2300042464B4630463946D9D9BAF1000F1CD177
:10E240002E2C1AD11BF8014F4FF0010A002CECD1F3
:10E250005D4632463B4651EC180B18F037F906463E
:10E260000F46039B304639461D6005B0BDEC028B5E
:10E27000BDE8F08F4FF0010CD4E75D46BCF1000F14
:10E280002DD032463B4651EC180B18F01FF904F024
:10E29000DF04452C06460F46E3D10399681C0A2289
:10E2A0001AF006FF16490246002018F06FFC0246DD
:10E2B0000B463046394618F009F906460F463046F7
:10E2C000394605B0BDEC028BBDE8F08F9FED0A7BAF
:10E2D0006C78B0EE478AF0EE678A01357BE7094F2C
:10E2E00000263046394605B0BDEC028BBDE8F08F04
:10E2F000000000000000F03F000000000000F0BF40
:10E30000000024400000F87F2DE9F0470023144668
:10E31000002206460F4618F04BFB28B12D2107F1CD
:10E32000004304F8011B1F460022002330463946F3
:10E3300018F034FB28B13022002322706370BDE84E
:10E34000F0873046394619F01BFA18F06FFB85A3A9
:10E35000D3E9002380463946304618F029FB48B9F6
:10E3600082A3D3E900233046394618F03FFB8246AA
:10E37000002875D0B8F1000FC0F297804246764968
:10E38000002018F003FC02460B463046394618F0D0
:10E39000C7F96FA3D3E9002318F098F86F4B002258
:10E3A00017F0DEFE18F02CFC012502460B464FF05C
:10E3B000FF3E4FF00009DFF8BCC16948012745F670
:10E3C000F3214FF02E0A8B4208BF82424FF03006F5
:10E3D00009D3121A63EB01038B4208BF824206F194
:10E3E0000106F6D2F6B2214652EA030001F8016BAB
:10E3F00008D1BD420FDD0137102F0CD00C467CE94F
:10E400000201E0E7BD4207F1010704BF84F801A063
:10E41000A11C102FF2D1B9F1000F0DD00A46302007
:10E4200002F8010BC2F1010373440B44002BF7DC2B
:10E430002EEAEE7301331944B8F1010F31D0B8F16F
:10E44000000F4FF065030B70C4BF2B234B70404689
:10E45000D8BF0131BDE8F047C8BF02310CF0E6BDBE
:10E46000B8F10E0F08F101053FDDA8F10E094A468B
:10E470003949002018F08AFB02460B4630463946DF
:10E4800018F04EF9354B002217F06AFE18F0B8FB71
:10E49000002D02460B4613DDA8F10F0E4FF00108C8
:10E4A00089E700230B70BDE8F087C8F100022A4914
:10E4B000002018F06BFB32463B4618F007F868E77F
:10E4C0002146302001F8020B2E266FEA0800667004
:10E4D0000138A8F10F0E01300C18302001F8010BA3
:10E4E000A142FBD14FF0010865E7C8F10E021A49BD
:10E4F000002018F04BFB02460B463046394617F019
:10E50000E5FF164B002217F02BFE18F079FB002DCB
:10E5100002460B4614DC214630206FEA08092E26FD
:10E5200001F8020B09F1FF306670B9F1000F03D05A
:10E53000D1464FF0FF3ECEE70C464FF0FF3ED1E70D
:10E54000D1464FF0FF3E4FF0010834E7AFF30080B3
:10E550000000901EC4BCD642000024400000E03FF2
:10E5600000407A108DEDB5A0F7C6B03E50EFE2D670
:10E57000E41A4B44E898020870B54FF0FF3006F0FB
:10E5800031FA04466FF07F4006F02CFA064620462A
:10E5900017F022FF0C4B002217F098FF044630467C
:10E5A0000D4617F019FF06A3D3E9002318F0B8F8B9
:10E5B00002460B462046294617F0D2FD70BD00BF2B
:10E5C0000000E0DFFFFF6F430000F03D00000000AF
:10E5D000294B1B68002B70B505460CBF1820052081
:10E5E0000E4609F05FF9002D044639DD234B18680B
:10E5F00017F002FF1EA3D3E9002317F067FF0022E4
:10E60000002317F0ADFD18F011FA226820EAE0713E
:10E61000B1F5806FA8BF4FF48061D368204698475A
:10E6200023681749D3F8803091FBF5F120469847CD
:10E63000002E00DC70BDA6F11405012DB8BF012528
:10E6400028460DF0BDFA23682046DB680021984774
:10E65000701B0128BDE87040B8BF01200DF0B0BAB2
:10E660000368BDE87040DB6800211847AFF3008005
:10E670001010101010101040740400200802002028
:10E6800040420F000000000038B5154B1B68002BFE
:10E6900004460CBF1820052009F004F90546204661
:10E6A00017F0AAFE0CA3D3E9002317F00FFF0022F6
:10E6B000002317F055FD18F0B9F92B6820EAE07136
:10E6C000B1F5007FDB68A8BF4FF40071284698477A
:10E6D000044B1C6038BD00BF10101010101000401B
:10E6E000740400200802002030B52D4B8DB01A684C
:10E6F0000092009A120205D4009A42F4000200929D
:10E70000009A1A60274A284B126801921B680293EC
:10E710000EF02CF817F070FECDE90401019B9BB2BE
:10E720000193029B9BB20293DDE904011AA3D3E992
:10E73000002317F0CBFE1D4B0022CDE90401CDE9EB
:10E7400006230298019BC01A17F046FECDE9080186
:10E75000DDE90445019817F03FFE02460B462046CE
:10E76000294617F0FBFCCDE90A01DDE90601DDE9E8
:10E770000823DDE90A4517F0D3FF22462B4617F0A0
:10E78000A5FE0B4B002217F0EBFC18F077F9039075
:10E7900003980DB030BD00BF9A9999999999F13FAE
:10E7A00008030450A875FF1FCA75FF1F00005440DE
:10E7B00000003E40000000002DE9F04F044683B009
:10E7C000C06817F019FE064620690F4617F014FEC0
:10E7D0006369019380461846894617F00DFE02468C
:10E7E00001F1004382468B463046394618F072FEEE
:10E7F00018F064F9E062054618F024FD0346284647
:10E800001D4618F0E1FC034628461D4617F006FE9B
:10E8100032463B4617F05AFE064628460F4617F08A
:10E82000FDFD52465B4617F051FE02460B46304650
:10E83000394617F093FC0B4602464946404618F00D
:10E8400049FE18F03BF9019B002B07EE900A23DDEF
:10E85000F5EEC07AF1EE10FA1ADD11A7D7E90067DC
:10E8600017EE900A17F0DAFD02460B46304639469D
:10E8700017F074FC32463B4617F072FC18F01EF994
:10E88000A062E38843F00203E38003B0BDE8F08FA9
:10E8900005A7D7E90067E3E7A062F2E7AFF30080DE
:10E8A000EA2E4454FB21F93FEA2E4454FB21F9BFE0
:10E8B00008B50DF089FEDFED0C7A07EE100A67EE61
:10E8C000277A17EE900A17F0A9FD05A3D3E90023D4
:10E8D00017F026FF18F0AAF808BD00BFAFF30080BC
:10E8E000EA2E4454FB2119400000B443000000000C
:10E8F00008B50DF07FFEDFED0C7A07EE100A67EE2B
:10E90000277A17EE900A17F089FD05A3D3E90023B3
:10E9100017F006FF18F08AF808BD00BFAFF30080BB
:10E92000EA2E4454FB2119400000B44300000000CB
:10E93000494A21F0004393422DE9704304460D46B5
:10E940006EDC464A93420E4639DC3FA3D3E90023EE
:10E9500017F006FC424B002218F048F800286FD14F
:10E9600022462B462046294617F0B0FD02460B46AC
:10E970002046294614461D4618F00AFB384B002253
:10E98000804689462046294617F0EAFB19F0CAF965
:10E99000334B002217F0E4FB02460B462046294683
:10E9A00017F0BEFE42464B4617F0DAFB00F0F4FAD1
:10E9B000002E39DC01F100431946BDE87083294A75
:10E9C000934233DCB3F1804FCADD18F0E1FA2246FE
:10E9D000804689462B462046294617F077FD204B76
:10E9E000002217F0BDFB19F09DF942464B4617F087
:10E9F000B7FB02460B460020194917F091FE42462C
:10EA00004B4604460D464046494617F0A9FB0246D0
:10EA10000B462046294617F0A3FB02F089F8C7E70A
:10EA200002460B4617F09CFBBDE8708318F0B0FA65
:10EA300002F07EF806A3D3E9002317F091FBB7E7B5
:10EA400020462946BDE870839C7500883CE4377EEB
:10EA5000EF39FAFE422EE63FFFFFEF7FFFFF2F3E2A
:10EA60000000F03F0000B0412DE9F84FC44B21F009
:10EA700000469E4204460D468A460EDDC14B9E422C
:10EA800000F3B08000F0AB80BAF1000F40F3E880F3
:10EA90009FA1D1E90001BDE8F88FBB4B9E4200F376
:10EAA000B880A3F1DE739E4240F3A4804FF0FF3B99
:10EAB00022462B462046294617F008FD02460B4603
:10EAC0008046894617F002FD93A3D3E9002306464A
:10EAD0000F4617F0FBFC92A3D3E9002317F040FB8D
:10EAE00032463B4617F0F2FC8FA3D3E9002317F020
:10EAF00037FB32463B4617F0E9FC8DA3D3E90023F0
:10EB000017F02EFB32463B4617F0E0FC8AA3D3E910
:10EB1000002317F025FB32463B4617F0D7FC88A3AD
:10EB2000D3E9002317F01CFB42464B4617F0CEFCFE
:10EB300085A3D3E90023804689463046394617F03D
:10EB4000C5FC83A3D3E9002317F008FB32463B46FC
:10EB500017F0BCFC80A3D3E9002317F0FFFA32467C
:10EB60003B4617F0B3FC7EA3D3E9002317F0F6FA77
:10EB700032463B4617F0AAFC7BA3D3E9002317F0EB
:10EB8000EDFA32463B4617F0A1FCBBF1FF3F0246CF
:10EB90000B466AD04046494617F0E2FA7B4E2246C1
:10EBA0002B4617F093FC7A4B06EBCB064FEACB0BC8
:10EBB0009B44DBE9002317F0D1FA22462B4617F0DD
:10EBC000CDFA02460B46D6E9000117F0C7FABAF1B2
:10EBD000000F0DDA01F100431946BDE8F88F002857
:10EBE0003FF452AF22462B462046294617F0B8FA8A
:10EBF000BDE8F88F5EA3D3E9002317F0B1FA654BA7
:10EC0000002217F0F3FE00283FF450AF20462946BB
:10EC1000EEE718F0BDF9604B9E4204460D4634DC29
:10EC2000A3F550239E4259DC02460B4617F098FA92
:10EC3000584B002217F092FA00224FF0804306460C
:10EC40000F462046294617F08BFA02460B463046FF
:10EC5000394617F065FD4FF0000B04460D4627E7D7
:10EC600045A1D1E90001BDE8F88F4046494617F0BB
:10EC700077FA22462B4617F029FC02460B4620461F
:10EC8000294617F06BFABDE8F88F444B9E421ADA1A
:10EC9000434B002217F062FA414B06460F46002212
:10ECA0002046294617F012FC3A4B002217F058FA7A
:10ECB00002460B463046394617F032FD4FF0020B44
:10ECC00004460D46F4E602460B460020354917F08F
:10ECD00027FD4FF0030B04460D46E9E62D4B0022BD
:10ECE00017F03CFA2B4B002206460F4620462946D9
:10ECF00017F036FA02460B463046394617F010FD3B
:10ED00004FF0010B04460D46D2E600BFAFF3008082
:10ED1000182D4454FB21F93F11DA22E33AAD903F1C
:10ED2000EB0D76244B7BA93F513DD0A0660DB13F42
:10ED30006E204CC5CD45B73FFF8300922449C23FAA
:10ED40000D5555555555D53F2F6C6A2C44B4A2BF6F
:10ED50009AFDDE522DDEAD3F6D9A74AFF2B0B33F37
:10ED6000711623FEC671BC3FC4EB98999999C93FAF
:10ED70009C7500883CE4377E182D4454FB21F9BF74
:10ED8000FFFF0F440000F07FFFFFDB3FF098020819
:10ED9000109902080000F03FFFFFF23F008003409F
:10EDA0000000F83F0000F0BFF8B5C1F30A57A7F222
:10EDB000FF35132D02460B460C46064631DC002D6E
:10EDC0001DDB354F2F4101EA070C5CEA000C2DD00A
:10EDD0002FA3D3E9002317F0C3F90022002317F073
:10EDE00005FE48B1002C04DD4FF4801343FA05F50D
:10EDF0002C4424EA0704002621463046F8BD24A30B
:10EE0000D3E9002317F0ACF90022002317F0EEFD40
:10EE10000028F1D0002C35DB26432FD01F4C0026D4
:10EE2000EAE7332D05DDB5F5806F24D0104619468D
:10EE3000F8BDA7F213474FF0FF3C2CFA07F7074243
:10EE4000F4D013A3D3E9002317F08AF9002200239A
:10EE500017F0CCFD0028CFD0002C09DD142D0FD0E9
:10EE60000123C5F1340503FA05F5AE1928BFE418EE
:10EE700026EA0706C0E717F073F9F8BD3446BBE78A
:10EE80000134F5E700264FF00044B5E7AFF300800A
:10EE90009C7500883CE4377EFFFF0F000000F03FC8
:10EEA000F8B5C1F30A57A7F2FF35132D02460B46FA
:10EEB0000C4606461FDC002D3DDB354F2F4101EA95
:10EEC000070C5CEA000C1BD02FA3D3E9002317F03A
:10EED00047F90022002317F089FD48B1002C04DA1D
:10EEE0004FF4801343FA05F52C4424EA0704002666
:10EEF00021463046F8BD332D05DDB5F5806F2AD0AB
:10EF000010461946F8BDA7F213474FF0FF3C2CFA04
:10EF100007F70742F4D01CA3D3E9002317F020F928
:10EF20000022002317F062FD0028E1D0002C1EDB38
:10EF300026EA0706DCE714A3D3E9002317F010F94B
:10EF40000022002317F052FD0028D1D0002C05DB51
:10EF500000263446CCE717F003F9F8BD24F000434F
:10EF60000C4A1E43002E18BF14460026C0E7142D7D
:10EF700008D00123C5F1340503FA05F5AE1928BF01
:10EF8000E418D5E70134D3E79C7500883CE4377E6C
:10EF9000FFFF0F000000F0BF2DE9F04FD44B2DED27
:10EFA000028B994285B082468B4666DDD14B9942F1
:10EFB0000E4659DCD04B994240F3B4819FEDB87BAB
:10EFC0008DED027B4FEA215A0446AAF2FF38CB4B63
:10EFD000C6F313069E4246F07F5500F3568145F472
:10EFE000401520462946C64B002217F0B7F8C54BFE
:10EFF00004460D46002217F069FA22462B4617F008
:10F0000065FAA246CDE9000141EC180BAB46002E93
:10F0100060D1002200232046294617F0BFFC0028BB
:10F0200000F0A081B8F1000F00F0B981404617F060
:10F03000E3F99DA3D3E9002306460F4617F046FAED
:10F04000DDE9022317F08CF899A3D3E900230446E5
:10F050000D463046394617F039FA02460B4620462F
:10F06000294617F07DF803E002460B4617F078F8C2
:10F0700005B0BDEC028BBDE8F08FA34B21F000443E
:10F080009C420A4611DDA14B002217F087FC0028A4
:10F0900000F09280002200239D49002017F040FBE1
:10F0A00005B0BDEC028BBDE8F08F9A4B9C4240F35B
:10F0B0009280994B1A449A4240F23481914B00223B
:10F0C00017F004FA52465B4617F000FA41EC180BB1
:10F0D0004FF0000800224FF080435046594617F089
:10F0E0003FF802460B465046594617F019FB0246B8
:10F0F0000B4606460F4617F0E9F96FA3D3E9002344
:10F1000004460D4617F0E2F96DA3D3E9002317F08A
:10F1100027F822462B4617F0D9F96BA3D3E9002331
:10F1200017F01EF822462B4617F0D0F968A3D3E952
:10F13000002317F015F822462B4617F0C7F966A3EF
:10F14000D3E9002317F00CF822462B4617F0BEF93E
:10F1500063A3D3E9002317F003F822462B4617F0E8
:10F16000B5F961A3D3E9002316F0FAFF22462B4636
:10F1700017F0ACF904460D46B8F1000F45D155EC37
:10F18000184B18EE102A2B4616F0EAFF32463B4683
:10F1900017F09CF9024618EE100A0B46294616F0A5
:10F1A000DDFF02460B465046594616F0D7FF05B024
:10F1B000BDEC028BBDE8F08F52465B465046594687
:10F1C00016F0CCFF02460B4617F0AAFA05B0BDECCC
:10F1D000028BBDE8F08F514B002216F0C1FF0022D8
:10F1E000002317F003FC28B14D4B9C4202DC504633
:10F1F00059463DE752465B465046594617F066F978
:10F20000404B002217F062F9CBE7404617F0F4F8C4
:10F2100027A3D3E900238046894617F057F941EC2C
:10F22000170B53EC182B2046294655EC174B16F0BC
:10F2300097FF32463B4617F049F91BA3D3E9002359
:10F2400006460F464046494617F040F9DDE90223DD
:10F2500016F086FF02460B463046394616F080FF10
:10F2600002460B4651EC180B16F078FF52465B46EF
:10F2700016F074FF02460B462046294616F06EFF34
:10F2800005B0BDEC028BBDE8F08F45F40015C6F566
:10F29000801620462946B61008F10108A3E600BFF3
:10F2A0000000000000000000763C7935EF39EA3DAF
:10F2B0000000E0FE422EE63F44523EDF12F1C23F24
:10F2C0009FC678D0099AC33FDE03CB966446C73FFA
:10F2D000AF788E1DC571CC3F599322942449D23FFB
:10F2E00004FA97999999D93F935555555555E53F46
:10F2F0007982DA3FFFFFEF7FFFFF3F439DA00600CB
:10F300000000F03F0000E03FFFFFEF3F0000F0BFD4
:10F31000000050C3FFFF1F3E3C412D400000504302
:10F32000FFFF8F3C3C4B00225046594616F018FF19
:10F330000B15A3F2FF38B8F1000F04460D460E4638
:10F3400050DD52465B4616F009FF02460B46002090
:10F35000314916F003FF22462B4617F0E1F9CDE9BB
:10F36000020134E626A3D3E900232046294617F0FC
:10F37000ADF802460B460020274916F0EFFEDDE906
:10F38000002317F0A3F806460F46B8F1000F09D185
:10F3900002460B462046294616F0E0FE68E60020AD
:10F3A000002165E6404617F027F817A3D3E90023AC
:10F3B0008046894617F08AF815A3D3E900238246D0
:10F3C0008B464046494617F081F8DDE9022316F0E6
:10F3D000C7FE02460B463046394616F0BFFE2246AF
:10F3E0002B46DCE60C4B002216F0B8FE02460B461C
:10F3F0005046594616F0B2FEADE700BFAFF30080AD
:10F40000555555555555E53F0000E0FE422EE63F67
:10F41000763C7935EF39EA3D0000F03F000000000E
:10F4200008B518F027F904A3D3E9002317F078F9F9
:10F4300008BD00BFAFF30080EF39FAFE422EE63F71
:10F440002DE9F043DFF8B4908BB004460D4601F08F
:10F45000F3F899F90030013306460F462CD02246C6
:10F460002B462046294617F0CBFA804620BB204683
:10F47000294617F08DFD1FA3D3E9002317F0B6FA34
:10F48000D0B1194A99F90030CDF820800321CDE997
:10F490000445CDE90245CDE9001293B1134900209E
:10F4A000022BCDE9060111D119F0CAFB222303601A
:10F4B000089B9BB9DDE90667304639460BB0BDE8CD
:10F4C000F0830B4B4FF06042CDE90623684619F0FC
:10F4D0005FFA0028E8D0089B002BEBD019F0B0FBB6
:10F4E000089B0360E6E700BF78AE02080000F07FEB
:10F4F000FFFFEF477DF8B98FCE3386409A02002098
:10F500002DE9F043DFF8F4808BB004460D4601F09E
:10F5100043F998F90030013306460F4616D02046CD
:10F52000294619F02FFA88B130A3D3E900232046E9
:10F53000294617F05BFA8146002836D12DA3D3E97E
:10F5400000232046294617F033FA20B930463946C1
:10F550000BB0BDE8F08398F90030214ACDF8209037
:10F56000002000210426022BCDE90445CDE9024507
:10F57000CDE906010096019212D0684619F008FA0A
:10F5800070B1089B2BBBDDE90667304639460BB0EE
:10F59000BDE8F08313490020022BCDE90601ECD130
:10F5A00019F04EFB22230360EBE70D4A98F9003077
:10F5B000019203210022CDE90445CDE902450091E5
:10F5C0000892002BE6D1084B4FF06042CDE90623AC
:10F5D000D3E719F035FB089B0360D4E7AFF3008055
:10F5E00080AE02080000F07FFFFFEF47EF39FAFE20
:10F5F000422E864051302DD5104987C09A020020F6
:10F600002DE9F04F2DED028BDFF848B38FB00646A1
:10F610000F4614461D4601F013FD9BF900A0BAF1F8
:10F62000FF3F41EC180B3BD022462B462046294693
:10F6300017F0E6F98146002832D132463B46304683
:10F64000394617F0DDF90090002840F0E1804FF0D6
:10F6500000084FF000093046394642464B4617F045
:10F660009DF920B342464B462046294617F096F9AD
:10F670000390002854D0009B0C930122B04B0492BD
:10F68000CDE90667CDE90845CDE90A890593BAF1C8
:10F69000000F6BD09FEDA47BB0EE478AF0EE678A37
:10F6A00051EC180B0FB0BDEC028BBDE8F08F51ECA4
:10F6B000180B19F067F9824600286FD04FF0000848
:10F6C0004FF0000951EC180B42464B4617F066F913
:10F6D0000028E5D03046394619F054F90028DFD02B
:10F6E0002046294619F04EF90028D9D09BF9003060
:10F6F000934A059204210022022BCDE90667CDE949
:10F700000845CDE90A8904910C9204D004A819F0A7
:10F710003FF900282FD119F093FA222303602AE041
:10F720002046294619F02EF90028B9D042464B460A
:10F730002046294617F03CF90028B1D00399804AA9
:10F740009BF900300C910121CDE90667CDE9084510
:10F75000CDE90412002B78D1CDE90A8904A819F06B
:10F7600017F9002877D00C9B5BB106E004A819F0CC
:10F770000FF9002874D00C9B1BB119F061FA0C9B97
:10F7800003609DED0A7BB0EE478AF0EE678A51EC8C
:10F79000180B0FB0BDEC028BBDE8F08F3046394638
:10F7A00019F0F0F8002889D02046294619F0EAF827
:10F7B000002883D053EC182B18EE100A194617F0C6
:10F7C0001FF9002840F0918003239BF900A00493C7
:10F7D0005B4B0C90CDE90667CDE908450593BAF17E
:10F7E000000F42D19FED527B42464B463046394690
:10F7F0008DED0A7B17F0DCF8002845D104A819F03C
:10F80000C7F80028AFD119F01BFA22230360AAE73A
:10F81000002200232046294617F0C0F800283FF4B4
:10F820003FAF4849464BCDF8309000200122BAF155
:10F83000020FCDE90667CDE90845CDE90A0104923A
:10F84000059393D141EC180B2AE73F490020022B86
:10F85000CDE90A0182D119F0F3F92123036082E78F
:10F8600019F0EEF92123036085E79FED337B4246D3
:10F870004B46304639468DED0A7B17F099F8E0B9D2
:10F88000BAF1020FBFD0B9E7304B0022204629461B
:10F8900016F01CFE02460B46CDE9002319F080F855
:10F8A000DDE9002317F07AF8E0B9294B9BF900A0B5
:10F8B0004FF06042CDE90A23E2E7244B00222046C4
:10F8C000294616F003FE02460B46CDE9002319F047
:10F8D00067F8DDE9002317F061F818B91A4B002228
:10F8E000CDE90A239BF900A0CAE7154B9BF900B0AC
:10F8F000CDF830A00122CDE90667CDE90845CDE974
:10F900000423BBF1000F3FF427AF42464B4640466D
:10F91000494616F005FFBBF1020FCDE90A019AD066
:10F920001CE700BFAFF30080000000000000F03FC4
:10F93000000000E0FFFFEF47000000000000F07F44
:10F9400098AE02080000F03F0000F0FF0000E03F2A
:10F95000FFFFEFC79A0200202DE9F84FC44E21F0B7
:10F960000043B34204460D460DDD03F1404303F569
:10F970008013034340F0B980002940F3C080002089
:10F980000021BDE8F88FBB4EB34208DCBA4A93426F
:10F9900000F3BA809CA1D1E90001BDE8F88F0029ED
:10F9A000C0F2708102460B460020B44916F0D6FB27
:10F9B000B34B002216F08AFD04460D4618F0B2F94A
:10F9C00093A3D3E90023894680462946204616F0B2
:10F9D0007DFD91A3D3E9002316F0C2FB22462B46FE
:10F9E00016F074FD8EA3D3E9002316F0B7FB224670
:10F9F0002B4616F06BFD8CA3D3E9002316F0B0FB69
:10FA000022462B4616F062FD89A3D3E9002316F0A7
:10FA1000A5FB22462B4616F059FD87A3D3E9002308
:10FA200016F09EFB22462B4616F050FD84A3D3E928
:10FA3000002382468B462046294616F047FD82A3C6
:10FA4000D3E9002316F08AFB22462B4616F03EFD32
:10FA50007FA3D3E9002316F083FB22462B4616F042
:10FA600035FD7DA3D3E9002316F078FB22462B4613
:10FA700016F02CFD814B002216F072FB02460B465D
:10FA80005046594616F04CFE42464B4616F01EFDB7
:10FA9000002682468B4632464B463046494616F093
:10FAA00015FD02460B462046294616F057FB324606
:10FAB00004460D464B464046494616F051FB024669
:10FAC0000B462046294616F02BFE02460B465046B2
:10FAD000594616F045FB32464B4616F041FB0246AE
:10FAE0000B4616F03DFBBDE8F88F02460B4616F0BC
:10FAF00035FB02460B4616F013FEBDE8F88F58A101
:10FB0000D1E90001BDE8F88F02460B4616F0DEFC95
:10FB10003FA3D3E9002306460F4616F0D7FC3EA3C9
:10FB2000D3E9002316F01CFB32463B4616F0CEFC10
:10FB30003BA3D3E9002316F011FB32463B4616F0F7
:10FB4000C5FC39A3D3E9002316F00AFB32463B4635
:10FB500016F0BCFC36A3D3E9002316F0FFFA3246B8
:10FB60003B4616F0B3FC34A3D3E9002316F0F8FAB1
:10FB700032463B4616F0AAFC31A3D3E90023804667
:10FB800089463046394616F0A1FC2FA3D3E900235D
:10FB900016F0E4FA32463B4616F098FC2CA3D3E963
:10FBA000002316F0DDFA32463B4616F08FFC2AA3FE
:10FBB000D3E9002316F0D2FA32463B4616F086FC13
:10FBC0002E4B002216F0CCFA02460B464046494620
:10FBD00016F0A6FD22462B4616F078FC02460B4690
:10FBE00021A1D1E9000116F0B9FA02460B462046E0
:10FBF000294616F0B3FA02460B4603A1D1E90001EB
:10FC000016F0ACFABDE8F88F182D4454FB21F93FEB
:10FC100009F7FD0DE13D023F88B20175E0EF493F74
:10FC20003B8F68B52882A43F5544880E55C1C93F13
:10FC30007D6FEB0312D6D43F555555555555C53FED
:10FC400082922EB1C5B8B33F59018D1B6C06E63FB9
:10FC5000C88A599CE52A00404B2D8A1C273A03404C
:10FC6000182D4454FB210940075C143326A6913C0F
:10FC7000FFFFEF3FFFFFDF3F0000603C0000F03F71
:10FC80000000E03F5C4B002216F06AFA5B4B00225A
:10FC900016F01CFC40A3D3E9002304460D4616F0E1
:10FCA00015FC3FA3D3E9002316F05AFA22462B464F
:10FCB00016F00CFC3CA3D3E9002316F04FFA2246C1
:10FCC0002B4616F003FC3AA3D3E9002316F048FABA
:10FCD00022462B4616F0FAFB37A3D3E9002316F091
:10FCE0003DFA22462B4616F0F1FB35A3D3E900235B
:10FCF00016F036FA22462B4616F0E8FB8046894677
:10FD00002046294618F00EF82FA3D3E90023064613
:10FD10000F462046294616F0D9FB2DA3D3E9002330
:10FD200016F01CFA22462B4616F0D0FB2AA3D3E984
:10FD3000002316F015FA22462B4616F0C7FB28A31F
:10FD4000D3E9002316F00AFA22462B4616F0BEFB32
:10FD5000294B002216F004FA02460B46404649465B
:10FD600016F0DEFC32463B4616F0B0FB1EA3D3E98C
:10FD7000002316F0F3F932463B4616F0F1F902463D
:10FD80000B4616F0EDF902460B4619A1D1E9000128
:10FD900016F0E4F9BDE8F88F09F7FD0DE13D023FEB
:10FDA00088B20175E0EF493F3B8F68B52882A43FD8
:10FDB0005544880E55C1C93F7D6FEB0312D6D43F21
:10FDC000555555555555C53F82922EB1C5B8B33FCF
:10FDD00059018D1B6C06E63FC88A599CE52A0040F4
:10FDE0004B2D8A1C273A0340075C143326A6913C0E
:10FDF000182D4454FB2109400000F03F0000E03F73
:10FE0000414A91422DE9F84304460D463EDD3F4A02
:10FE100091420B4608DD02F17952914266DD0246BD
:10FE200016F09EF9BDE8F88301F1404202F5801218
:10FE3000024357D0B1F1804F32DD024616F046FB47
:10FE4000334B002216F08AF917F06CFF22462B463E
:10FE5000804689462046294616F082F92246064603
:10FE60000F462B464046494616F07AF902460B46A5
:10FE70000020274916F054FC0B460246394630460E
:10FE800016F06CF9BDE8F84300F052BE02460B468E
:10FE900016F064F902460B4616F042FCBDE8F88302
:10FEA0001B4B002216F05AF902460B4604460D463B
:10FEB00016F056F922462B4606460F46204629469E
:10FEC00016F004FB02460B463046394616F048F958
:10FED00017F028FF22462B4616F042F9BDE8F843FA
:10FEE000FFF75AB800200021BDE8F88300F020FE9B
:10FEF00003A3D3E9002316F033F9BDE8F88300BF6C
:10FF0000EF39FAFE422EE63FFFFFEF3FFFFFAF4122
:10FF10000000F03F000000002DE9F04FC64B2DED32
:10FF2000028B21F00049994583B004460D4615DD4A
:10FF300009F1404909F58019034659EA030300F025
:10FF4000058102460B4616F009F902460B4616F0EB
:10FF5000E7FB03B0BDEC028BBDE8F08FB74B9945D2
:10FF60000E460FDCB9F1795F80F2708196A3D3E978
:10FF7000002316F0F5F8B24B002216F037FD0028EA
:10FF800040F01C812046294617F002F802460B4635
:10FF90000020AB4916F0E2F8AA4B002216F096FAC0
:10FFA0008BA3D3E9002304460D4616F08FFA8AA3EB
:10FFB000D3E9002316F0D4F822462B4616F086FA31
:10FFC00087A3D3E9002316F0C9F822462B4616F082
:10FFD0007DFA85A3D3E9002316F0C2F822462B460A
:10FFE00016F074FA82A3D3E9002316F0B7F822467C
:10FFF0002B4616F06BFA80A3D3E9002316F0B0F875
:020000040801F1
:1000000022462B4616F062FA7DA3D3E900238246EE
:100010008B462046294616F059FA7BA3D3E90023E4
:1000200016F09CF822462B4616F050FA78A3D3E936
:10003000002316F095F822462B4616F047FA76A3D1
:10004000D3E9002316F08AF822462B4616F03EFA32
:100050007B4B002216F084F8074688462046294646
:1000600017F060FEDFF8E0C14BEC18ABE1458246CB
:100070008B46CDE900AB00F38280DDE900239B468F
:1000800016F06EF84346894680463A4651EC180B06
:1000900016F046FB02460B464046494616F016FA55
:1000A0004FF0000A8046894652465B465046594604
:1000B00016F00CFA02460B462046294616F04EF87A
:1000C000524604460D465B46DDE9000116F048F84D
:1000D00002460B462046294616F022FB02460B46F6
:1000E00016F03EF802460B464DA1D1E9000116F08C
:1000F00035F802460B464046494616F02FF8524660
:1001000004460D465B465046594616F029F802460D
:100110000B4645A1D1E9000116F020F802460B4636
:100120002046294616F01AF802460B463EA1D1E9B0
:10013000000116F013F8002E3FF70BAF01F100435A
:10014000194603B0BDEC028BBDE8F08F38A3D3E9AC
:10015000002316F0BBF932A3D3E9002306460F466D
:100160002046294616F0B2F902460B46304639467B
:1001700015F0F6FF03B0BDEC028BBDE8F08F3A46F8
:10018000434651EC180B16F0CBFA52465B4616F07C
:100190009DF952465B4615F0E3FF02460B4615F00B
:1001A000DFFF1FA3D3E9002315F0D8FF02460B465B
:1001B0001FA1D1E9000115F0D1FFBCE72046294677
:1001C000C7E600BFAFF300809C7500883CE4377E33
:1001D00009F7FD0DE13D023F88B20175E0EF493FAF
:1001E0003B8F68B52882A43F5544880E55C1C93F4E
:1001F0007D6FEB0312D6D43F555555555555C53F28
:1002000082922EB1C5B8B33F59018D1B6C06E63FF3
:10021000C88A599CE52A00404B2D8A1C273A034086
:10022000075C143326A6913C182D4454FB21E93F6A
:10023000182D4454FB21F93FFFFFEF3FFFFFDF3F45
:100240000000F03F0000E03F3233EF3F02460B4634
:1002500016F03CF939A3D3E9002306460F4616F001
:1002600035F938A3D3E9002315F07AFF32463B462F
:1002700016F02CF935A3D3E9002315F06FFF3246B1
:100280003B4616F023F933A3D3E9002315F068FFAA
:1002900032463B4616F01AF930A3D3E9002315F095
:1002A0005DFF32463B4616F011F92EA3D3E9002339
:1002B00015F056FF32463B4616F008F92BA3D3E95A
:1002C0000023804689463046394616F0FFF829A3B8
:1002D000D3E9002315F042FF32463B4616F0F6F80C
:1002E00026A3D3E9002315F03BFF32463B4616F028
:1002F000EDF824A3D3E9002315F030FF32463B4646
:1003000016F0E4F80C4B002215F02AFF02460B46CB
:100310004046494616F004FA22462B4616F0D6F817
:1003200022462B4615F01CFF03B0BDEC028BBDE846
:10033000F08F00BFAFF300800000F03F09F7FD0D24
:10034000E13D023F88B20175E0EF493F3B8F68B560
:100350002882A43F5544880E55C1C93F7D6FEB03E9
:1003600012D6D43F555555555555C53F82922EB19D
:10037000C5B8B33F59018D1B6C06E63FC88A599C2E
:10038000E52A00404B2D8A1C273A0340000000005C
:100390002DE9F84F994653425F4F134329F0004E21
:1003A0004EEAD373BB42904604460D463DD84642C2
:1003B000064321F0004A4AEAD676BE4203468B46FF
:1003C00033D809F1404606F5801616433DD04FEA72
:1003D000A97606F002065AEA030346EAD1762CD043
:1003E0005EEA020335D0BE4546D0BA4531D0AAEB0D
:1003F0000E0EBEF1747F4FEA2E5339DAB9F1000FB9
:1004000046DA3C3344DA00200021012E58D0022E77
:1004100049D086B134A3D3E9002315F09FFE34A35D
:10042000D3E9002315F09AFE05E022462B4640460C
:10043000494615F095FEBDE8F88F022E10D0032E28
:10044000F9D12DA1D1E90001F5E7BDE8F84FFEF79C
:100450000BBBBBF1000F07DB29A1D1E90001EAE7E3
:1004600023A1D1E90001E6E727A1D1E90001E2E7F4
:1004700023A1D1E90001C8E7F24506F1FF3623D0F8
:10048000022E29D8254B03EBC606D6E90001D2E798
:1004900042464B462046294616F042F916F078FDB2
:1004A000FEF7E2FAB1E710A3D3E9002315F056FEF8
:1004B00002460B460EA1D1E9000115F04FFEBAE746
:1004C00001F100431946B6E7022E08D8144B03EB9E
:1004D000C606D6E90001AEE700200021ABE70CA17B
:1004E000D1E90001A7E700BF075C143326A6A13CB1
:1004F000182D4454FB210940182D4454FB2109C0F8
:10050000182D4454FB21F93F182D4454FB21F9BF09
:10051000182D4454FB21E93F0000F07F4899020860
:1005200030990208000000002DE9F84343423E4A9A
:10053000034321F0004747EAD373934204460D4634
:1005400059D8974265D0394B9F420E4623DD384B30
:100550009F423D462ADD02463B46394615F000FEE5
:1005600022463B4604460D4600202F4915F0F6FD75
:1005700002460B462046294616F0D2F8FEF70CFD3F
:100580002C4B002215F0A2FF002E02DA01F10043ED
:100590001946BDE8F88322A3D3E9002315F0E0FD56
:1005A0000022002316F022FA78BB3D4622462B4655
:1005B0002046294615F0D4FD22462B468046894622
:1005C00015F084FF22462B4604460D4600201649AE
:1005D00015F0C4FD02460B462046294616F0A0F849
:1005E00042464B4615F0BCFDFEF7D6FC114B0022EF
:1005F00015F06CFFC8E702460B4615F0AFFD02464A
:100600000B4616F08DF8BDE8F88320462946BDE874
:10061000F8830022002316F083F8BDE8F88300BFBA
:100620009C7500883CE4377E0000F03FFFFF2F3EC2
:10063000FFFFDF3F0000E03F2DE9F8434E4B21F084
:1006400000449C4206460F4648DC4C4B9C4218DD59
:100650004B4B9C4266DD4B4B9C427EDD4A4B9C42A1
:1006600049DD01339C4243D041A3D3E90023104626
:10067000194615F02BFF06460F4630463946BDE8B1
:10068000F88316F085FC02F06FFD404B0022804697
:10069000894615F065FDB4F1725F06460F46ECDB46
:1006A00042464B464046494615F010FF32463B460F
:1006B00004460D463046394615F052FD02460B46BB
:1006C0002046294616F02CF8304B002215F048FD44
:1006D00006460F4630463946BDE8F88302460B46CB
:1006E00015F0F4FE06460F4630463946BDE8F8835D
:1006F000274B9842B8D83046394616F049FC254B6E
:10070000002215F0E3FE00F047F8224B04460D46A8
:10071000002215F0DBFE22462B4615F0D7FE0646DA
:100720000F46AAE716F034FC00F036F8194B002209
:1007300004460D4615F0CAFE22462B4604460D46D9
:100740000020144915F0ECFF02460B4620462946CE
:1007500015F006FD06460F468FE716F019FC00F06F
:100760001BF80C4B002215F0B1FE06460F4684E73D
:100770009C7500883CE4377EFFFFEF7F422ED63F1A
:10078000FFFF3540412E8640CD3386400000F03FCC
:100790007DF8B98F0000E03F2DE9F04FDA4F2DEDE5
:1007A000028B21F00042BA4283B004460D464FEA64
:1007B000D17612D9D54FBA4229D9C1F313030343D5
:1007C000024640F05481002E00F0EB800020002112
:1007D00003B0BDEC028BBDE8F08FCD4B9A4253D8ED
:1007E000CC4B9A4200F2E480B1A3D3E9002315F088
:1007F000B7FCC94B002216F0F9F8002800F0D880A9
:10080000C54B20462946002215F0AAFCCBE0AAA33E
:10081000D3E9002316F0EAF8002840F03081A8A3BD
:10082000D3E900232046294616F0C2F80028CDD18E
:10083000BA49A5A3D3E9002301EBC6062046294601
:1008400015F044FED6E9002315F08AFC16F0EEF808
:10085000019015F0D1FD9EA3D3E9002306460F4673
:1008600015F034FE02460B462046294615F076FC6C
:1008700099A3D3E90023804689463046394615F0CE
:1008800025FE41EC180B19E0A54B9A42D0D8A54B98
:1008900003EBC603D3E9002315F060FCA24BF20082
:1008A000134493ED007BC6F1010AAAEB06038046D0
:1008B00089460193B0EE478AF0EE678A53EC182B15
:1008C0004046494615F04AFC02460B4682468B4696
:1008D00015F0FCFD82A3D3E9002304460D4615F074
:1008E000F5FD81A3D3E9002315F038FC22462B4601
:1008F00015F0ECFD7EA3D3E9002315F031FC224670
:100900002B4615F0E3FD7CA3D3E9002315F026FC6C
:1009100022462B4615F0DAFD79A3D3E9002315F022
:100920001FFC22462B4615F0D1FD02460B465046D1
:10093000594615F013FC019B0F46064654465D468A
:1009400001463A46002B6CD032463B46504659464B
:1009500015F0BCFD32463B4604460D4600204FF0E4
:10096000804115F0FBFB02460B462046294615F058
:10097000D7FE02460B4651EC180B15F0EFFB424632
:100980004B4615F0EBFB02460B460020624915F082
:10099000E5FB019A6FF47F739A4278DB044601EB22
:1009A00002552046294603B0BDEC028BBDE8F08F0E
:1009B00022462B462046294615F088FD48A3D3E958
:1009C000002306460F4615F081FD47A3D3E9002317
:1009D00015F0C4FB32463B4615F078FD44A3D3E93D
:1009E000002315F0BDFB32463B4615F06FFD42A3D8
:1009F000D3E9002315F0B2FB32463B4615F066FD05
:100A00003FA3D3E9002315F0ABFB32463B4615F07C
:100A10005DFD02460B462046294615F09FFB0A461F
:100A20000146914688460A464B462046294615F01F
:100A30004DFD002206460F464FF080434046494692
:100A400015F08CFB02460B463046394615F068FE21
:100A500022462B4615F082FB02460B4600202E490B
:100A600015F07CFB03B0BDEC028BBDE8F08F0B46AC
:100A700015F076FB03B0BDEC028BBDE8F08F0CA344
:100A8000D3E900231046194615F020FD8BE7019BA2
:100A900003F57A7A01EB0A53194600224FF0B87336
:100AA00015F014FD03B0BDEC028BBDE8F08F00BF64
:100AB0009C7500883CE4377EEF39FAFE422E864072
:100AC00051302DD5104987C0FE822B654715F73F61
:100AD0000000E0FE422EE63F763C7935EF39EA3DF4
:100AE000D0A4BE726937663EF16BD2C541BDBB3E34
:100AF0002CDE25AF6A56113F93BDBE166CC1663F12
:100B00003E5555555555C53F412E8640FFFFEF7F59
:100B1000422ED63FFFFF2F3E0000F03F60990208B3
:100B2000B1A2F03F7099020880990208000000000D
:100B30002DE9F04F2DED028BB1F5801F83B00246F9
:100B40000B460E4658DA21F00044044300F0FB80C7
:100B50000029C0F23781DC4B002215F0B7FC0E46AD
:100B60000B46DA498E4202466FF0350E49DCC6F379
:100B7000130505F5152707F6647707F4801787F046
:100B80007F5C8CF4401C3415D14B10464CEA0501B7
:100B90000022A4F2FF34744415F0E0FAAB1CC3F356
:100BA0001303022B04EB175482468B464FF00002CE
:100BB00030DC002315F0F2FE002800F0CF80002C7E
:100BC00000F05681204615F017FCABA3D3E90023B3
:100BD00006460F4615F07AFCA9A3D3E90023044684
:100BE0000D463046394615F071FC02460B4620464C
:100BF000294615F0B5FA08E0B4498E424FF0000ED0
:100C0000B5DD1046194615F0ABFA03B0BDEC028B0A
:100C1000BDE8F08F4FF0804315F0A2FA02460B4674
:100C20005046594615F07CFD02460B46204643ECE3
:100C3000182B15F0E1FB53EC182B06460F4651EC30
:100C4000180BCDE9006715F041FC02460B468046C3
:100C5000894615F03BFC8CA3D3E9002306460F46DA
:100C600015F034FC8AA3D3E9002315F079FA324653
:100C70003B4615F02BFC88A3D3E9002315F070FA4E
:100C800032463B4615F022FC85A3D3E9002315F03C
:100C900067FA42464B4615F019FC83A3D3E90023BB
:100CA000804689463046394615F010FC80A3D3E9CA
:100CB000002315F055FA32463B4615F007FC7EA39B
:100CC000D3E9002315F04CFA32463B4615F0FEFB03
:100CD0000B4602464946404615F042FAA5F5C223A6
:100CE000C5F5D725A3F27A4351351D43002D06469D
:100CF0000F4659DD774B00225046594615F0E6FB6A
:100D000052465B4615F0E2FB80468946002C60D1D6
:100D100042464B463046394615F022FA53EC182B22
:100D200015F0D4FB02460B464046494615F016FA2C
:100D300002460B465046594615F010FA03B0BDEC7A
:100D4000028BBDE8F08F002200236349002015F0DC
:100D5000E7FC03B0BDEC028BBDE8F08F58A3D3E9EC
:100D600000235046594615F0B1FB02460B460020C1
:100D7000584915F0F3F9524606460F465B46504671
:100D8000594615F0A3FB02460B463046394615F08E
:100D90009DFB06460F46002C52D102460B4650469C
:100DA000594615F0DBF930E7002C40F097800246F9
:100DB0000B465046594615F0D1F953EC182B15F057
:100DC00085FBB5E715F0CAF90022002315F0A8FC51
:100DD0001BE729A3D3E90023DDE9000115F076FB29
:100DE00042464B4604460D463046394615F0B8F9A2
:100DF00053EC182B15F06AFB21A3D3E90023064618
:100E00000F46DDE9000115F061FB02460B46304656
:100E1000394615F0A5F902460B464046494615F0FD
:100E20009DF952465B4615F099F902460B4620465D
:100E3000294615F093F903B0BDEC028BBDE8F08FA5
:100E4000204615F0D9FA0CA3D3E900238046894641
:100E500015F03CFB0AA3D3E9002304460D464046A7
:100E6000494615F033FB02460B4630463946D6E775
:100E700000200021C9E600BF0000E0FE422EE63F50
:100E8000763C7935EF39EA3D44523EDF12F1C23FFC
:100E9000DE03CB966446C73F599322942449D23F40
:100EA000935555555555E53F9FC678D0099AC33F90
:100EB000AF788E1DC571CC3F04FA97999999D93FA7
:100EC000555555555555D53F00005043FFFFEF7F11
:100ED0000000F03F0000E03F000050C3DDE9008962
:100EE0000DA3D3E900234046494615F0EFFA3246F8
:100EF0003B4604460D465046594615F02FF953EC33
:100F0000182B15F0E3FA06A3D3E9002306460F4693
:100F1000A5E700BFAFF300800000E0FE422EE63FF1
:100F2000763C7935EF39EA3DB1F5801F2DE9F8437C
:100F300004460D460B4619DA21F00042024359D00F
:100F400000295FDB3A4B002215F0C0FA394A0D4602
:100F50002B46934204466FF035010CDD22462B46AA
:100F60002046294615F0FCF8BDE8F883314A934243
:100F70004FF00001F2DC1815A0F2FF300844C70F53
:100F800000EBD070C3F3130615F036FAC7F57F7384
:100F9000033346EA03550F46064629462046FFF727
:100FA000C7FD1DA3D3E90023804689463046394654
:100FB00015F08CFA1AA3D3E9002304460D464046E7
:100FC000494615F083FA02460B462046294615F09D
:100FD000C7F815A3D3E9002304460D463046394629
:100FE00015F074FA02460B462046294615F0B8F86B
:100FF000BDE8F883002200230F49002015F090FB84
:10100000BDE8F883024615F0A9F80022002315F088
:1010100087FBA9E7AFF30080362BF111F3FE593DB2
:101020000EE526157BCBDB3F00609F501344D33F7A
:1010300000005043FFFFEF7F000050C3000000009E
:101040002DE9F04F2DED0A8B23F0004B1F469A46F9
:101050005BEA020389B03DD0164694466E4A21F001
:101060000048904504460D46894603462BDC38D09F
:10107000934528DC684A934522D0B9F1000F3BDB49
:1010800000220092BCF1000F52D1634A934500F058
:101090009D80624A934500F0AB80BAF1804F00F02A
:1010A000D4845F4A924543D1B9F1000F40DB20461A
:1010B000294609B0BDEC0A8BBDE8F04F16F032BEF0
:1010C000BCF1000FD9D008F1404808F5801858EA63
:1010D000030309D15149002009B0BDEC0A8BBDE8DA
:1010E000F08F08B9C345C5DD4E4809B0BDEC0A8B89
:1010F000BDE8F04F17F04EBC4B4A93457FDCA2F1A0
:10110000547293450FDD4FEA2B52A2F2FF32142A9C
:1011100040F3A384C2F134022CFA02F000FA02F286
:10112000624500F0EC8400220092BCF1000FB0D0C8
:1011300020462946029315F02BFF029B3BBBB8F1DA
:10114000000F04D0354B29F040429A421FD1BAF12A
:10115000000F05DA02460B460020304915F0E0FA90
:10116000B9F1000FB8DA009B08F1404808F5801883
:1011700058EA030340F0968402460B46104619468F
:1011800014F0ECFF02460B4615F0CAFAA4E7009AE9
:101190004FEAD973013B0693134333D0234B9B454E
:1011A00048DD03F104739B45214B40F3CF83984501
:1011B00040F35D83BAF1000F40F35D8314A3D3E9DC
:1011C00000231046194615F081F985E708F14042E1
:1011D00002F5801213433FF47DAF154B984540F361
:1011E0007783BAF1000FC0F246833046394673E781
:1011F000BAF1000FC0F22184204629466CE7022292
:1012000000923FE722462B46B8E700BFAFF30080CD
:101210009C7500883CE4377E0000F07F0000F03FC2
:101220000000E03FDCAC0208FFFF3F430000E0416C
:10123000FFFFEF3FE84B09EA0303002B40F0FB837D
:10124000E64B002215F042F96FF0340588464FEA6C
:101250002853E34CC8F31302A3F2FF3342F07F5844
:101260005D19A242079548F4401840F3D383DD4B43
:101270009A4240F320849FEDC07BB0EE47BAF0EE77
:1012800067BAB0EE47CAF0EE67CA9FEDBD7B013585
:1012900054EC173B0795A8F580184FF0000944EC73
:1012A000183B1A4641462346824614F057FF53EC3A
:1012B000182B04460D465046414614F051FF024695
:1012C0000B460020C84915F02BFA45EC1A4B41ECAF
:1012D000190B51EC1A0B53EC192B15F0F7F8C34608
:1012E0004FEA680848F0005808F5002303EB0905A9
:1012F0000A4600230146CDE902120293DDE9028984
:101300000024CDE904122B4622464046494615F0FA
:10131000DDF802460B4651EC1A0B14F01FFF41ECAE
:10132000170B53EC182B2046294655EC174B14F09D
:1013300015FF02460B465046594614F00FFF424631
:101340004B4615F0C3F802460B462046294614F0DA
:1013500005FF53EC192B15F0B9F8DDE904AB044691
:101360000D4652465B465046594615F0AFF886A3E7
:10137000D3E9002345EC1A4B04460D4615F0A6F8B8
:1013800083A3D3E9002314F0EBFE22462B4615F08D
:101390009DF881A3D3E9002314F0E2FE22462B46F8
:1013A00015F094F87EA3D3E9002314F0D9FE224669
:1013B0002B4615F08BF87CA3D3E9002314F0D0FE64
:1013C00022462B4615F082F879A3D3E9002314F0C6
:1013D000C7FE22462B4604460D461046194615F018
:1013E00075F802460B462046294615F06FF842462E
:1013F00004460D464B4650465946CDE904AB14F021
:10140000AFFE53EC1A2B15F061F822462B4614F070
:10141000A7FE424604460D464B464046494615F057
:1014200055F845EC194B714B002282468B4614F05F
:1014300097FE53EC192B14F093FE029C0D462246A6
:101440002B464046494615F041F8684B8046894690
:1014500000222046294614F081FE52465B4614F0D5
:101460007DFE02460B4651EC190B14F077FEDDE9C8
:10147000042315F02BF849EC188B22468046894648
:101480002B4651EC1A0B15F021F802460B4640464C
:10149000494614F065FE82468B4652465B4651EC47
:1014A000180B14F05DFE029C43A3D3E900232046F1
:1014B0000D4615F00BF853EC182B80468946204654
:1014C000294614F04BFE02460B465046594614F08E
:1014D00045FE3BA3D3E9002314F0F8FF49EC198B38
:1014E00039A3D3E90023804689462046294614F0D3
:1014F000EDFF02460B464046494614F031FE53ECE0
:101500001C2B14F02DFE824607988B4614F074FFB6
:101510005246804689465B4651EC190B14F020FE7A
:1015200053EC1B2B14F01CFE42464B4614F018FEE5
:10153000029C42464B4620460D4614F00FFE53ECEB
:101540001B2B14F00BFE53EC192B14F007FE024674
:101550000B465046594614F001FE82468B46009BCE
:10156000069A013B134340F0AC819FED197BB0EE2E
:10157000479AF0EE679A3BE0000000000000000090
:10158000000000000000F03FEF4E454A287ECA3FB1
:1015900065DBC9934A86CD3F01411DA96074D13FE7
:1015A0004D268F515555D53FFFAB6FDBB66DDB3FF9
:1015B000033333333333E33F000000E009C7EE3F2A
:1015C000FD033ADC09C7EE3FF5015B14E02F3EBE98
:1015D000000000000000F0BF0000F07F000040436A
:1015E0008E98030079B60B000000F03F0000084021
:1015F0000023CDE900670093DDE9008930464246CB
:1016000039464B4614F0AAFD22462B4614F05EFFE5
:1016100032463B4606460F465046594614F056FFA2
:1016200002460B463046394614F09AFD4246824641
:101630008B464B462046294614F048FF06460F4687
:101640003B4650465946324614F08AFDBA4B994201
:1016500004460D46884640F3118101F13F4303F5EE
:10166000E003034340F010829DA3D3E900235046DA
:10167000594614F075FD324641EC180B3B462046A6
:10168000294614F06BFD02460B4651EC180B15F081
:10169000ADF9002840F0F881C8F30A534FF48012E6
:1016A000A3F2FE3342FA03F34344A449C3F30A52BC
:1016B000A2F2FF3241FA02FCC3F3130523EA0C0144
:1016C000C2F1140445F48015B8F1000F0B4645FA39
:1016D00004F102914FF00000B8BF49420246B8BF82
:1016E00002913046394614F039FD06460F463B4616
:1016F00050465946324614F033FD029B1B050093B9
:101700000D46002478A3D3E900232046294614F08F
:10171000DDFE3246804689463B462046294614F087
:101720001DFD02460B465046594614F017FD70A3A6
:10173000D3E9002314F0CAFE6FA3D3E900230646C1
:101740000F462046294614F0C1FE02460B4630469D
:10175000394614F005FD06460F4632463B464046E4
:10176000494614F0FDFC42464B460D46044614F033
:10177000F5FC02460B463046394614F0EFFC2B468A
:1017800082468B4622462946204614F09FFE5CA3E3
:10179000D3E9002306460F4614F098FE5AA3D3E976
:1017A000002314F0DBFC32463B4614F08FFE58A3B6
:1017B000D3E9002314F0D4FC32463B4614F086FEF5
:1017C00055A3D3E9002314F0C9FC32463B4614F07C
:1017D0007DFE53A3D3E9002314F0C2FC32463B46FE
:1017E00014F074FE02460B462046294614F0B6FC5F
:1017F00006460F4632463B462946204614F066FE12
:101800000022804689464FF080433046394614F026
:10181000A5FC02460B464046494614F081FF52465D
:1018200006460F465B462946204614F04FFE5246B8
:101830005B4614F095FC02460B463046394614F0E0
:101840008DFC2B46224614F089FC02460B460020F4
:101850003B4914F083FC009D0D44B5F5801FC0F298
:101860004A81294653EC192B14F030FE34E4BAF1C6
:10187000000FFFF6A3AC002000212DE4DFF8C8C064
:1018800021F00043634540F3F7802E4B0B440343A4
:101890000AD132463B4614F061FC52465B4615F0D5
:1018A0009BF800283FF4F8AE1FA3D3E9002351ECC6
:1018B000190B14F00BFE1CA3D3E9002314F006FE51
:1018C0000AE49FED1B7BB0EE479AF0EE679A8FE635
:1018D000BAF1000FCFDA304607F10041FFF7FCBB49
:1018E000FE822B654715973C00000000432EE63F23
:1018F000EF39FAFE422EE63F396CA80C615C20BE3F
:10190000D0A4BE726937663EF16BD2C541BDBB3E05
:101910002CDE25AF6A56113F93BDBE166CC1663FE3
:101920003E5555555555C53F59F3F8C21F6EA50193
:10193000000000000000F03FFFFF8F40FFFF0F009E
:101940000000F03F00346F3FFFCB904098458EDBA6
:10195000894B98453FF72EAC874B002214F0FEFBD5
:1019600071A3D3E9002304460D4614F0AFFD70A324
:10197000D3E9002382468B462046294614F0A6FD73
:101980007E4B8046894600222046294614F09EFD63
:1019900002460B4668A1D1E9000114F0DFFB2246A4
:1019A0002B4614F093FD02460B460020744914F0B8
:1019B000D5FB22462B4604460D461046194614F028
:1019C00085FD02460B462046294614F07FFD5CA3A8
:1019D000D3E9002314F07AFD02460B4640464946FF
:1019E00014F0BCFB804689465046594642464B4659
:1019F00014F0B6FB002452465B4620460D4614F018
:101A0000ADFB02460B464046494614F0A7FB824612
:101A10008B46A4E59FED4C7BB0EE47BAF0EE67BA7B
:101A2000B0EE47CAF0EE67CA9FED497B4FF0000960
:101A300054EC173B33E4002509E422462B464E497B
:101A4000002014F06DFEFFF747BB22462B462046D0
:101A5000294614F03BFDFFF73FBBBCF1000F3ED120
:101A6000C2F114024BFA02F000FA02F25A4551D0C8
:101A7000CDF800C0FFF70DBB414A934251DCDDE9D0
:101A80000012009102913CE633A3D3E9002351EC0C
:101A9000190B14F01BFD30A3D3E9002314F016FD3D
:101AA000FFF71ABB009B012B7FF416AB01F100433B
:101AB0001946FFF711BB9FED2A7BB0EE47BAF0EE57
:101AC00067BA9FED297BB0EE47CAF0EE67CA9FED7B
:101AD000287B4FF4802954EC173BFFF7E0BB2046EE
:101AE0002946009315F054FA009B002B7FF48AAB33
:101AF0000093FFF724BB029A01F082FDB2E600F0EA
:101B00000100C0F102020092BCF1000F3FF4C1AA33
:101B1000FFF70EBB00F00100C0F102020092FFF7D8
:101B2000B8BA1B15BAE500BF000000604715F73FC3
:101B300044DF5DF80BAE543E555555555555D53FD0
:101B4000FE822B654715F73F0000000000000000F3
:101B5000000000000000F03F9C7500883CE4377EE8
:101B60000000004003B8E23F06D0CF43EBFD4C3EFF
:101B7000000000000000F83F0000F03F0000D03FF0
:101B80000000E03F000000002DE9F04FD84B2DEDA4
:101B9000048B21F000459D4289B006460F4614464D
:101BA00040F38880D34B9D428B4629DC0029C2A399
:101BB000D3E9002340F3CD8114F0D0FACE4B9D42FF
:101BC00006460F4600F08F80BDA3D3E9002314F032
:101BD000C5FA02460B46C4E900233046394614F0E4
:101BE000BDFAB7A3D3E9002314F0B8FAC4E902019F
:101BF0004FF0010A504609B0BDEC048BBDE8F08FF0
:101C0000BE4B9D4240F39280BD4B9D4260DC4FEA4B
:101C1000255AAAF2164AA5EB0A510F4614F006FF00
:101C200014F0EAFB804689463046394642464B4628
:101C3000CDE9028914F092FAB24B002214F046FC6E
:101C40000F46064614F0F2FE054614F0D5FB024698
:101C50000B4630463946CDE9042314F07FFAA94BF0
:101C6000002214F033FC02460B46CDE90623002285
:101C7000002314F093FE002800F06981002D0CBFB2
:101C800001230223A04A019202215246009102A898
:101C9000214600F0A1FBBBF1000F8246AADA626880
:101CA000E36802F1004203F10043C0F1000A626000
:101CB000E3609FE74FF0000A002200235046C4E98A
:101CC0000067C4E9022309B0BDEC048BBDE8F08FC6
:101CD00002460B4614F042FA4FF0000AC4E9020132
:101CE000C4E9000186E778A3D3E9002314F036FAAB
:101CF00077A3D3E9002306460F4614F02FFA0246D5
:101D00000B46C4E900233046394614F027FA70A385
:101D1000D3E9002314F022FA4FF0010AC4E90201CA
:101D2000504609B0BDEC048BBDE8F08F15F030F9DA
:101D300069A3D3E9002306460F4614F0C7FB734B93
:101D4000002214F00DFA14F071FE824614F054FBD8
:101D500059A3D3E900238046894614F0B7FB024615
:101D60000B463046394614F0F9F955A3D3E9002360
:101D700006460F464046494614F0A8FBBAF11F0F2D
:101D800049EC198B47EC186B804689460BDC604B9D
:101D90000AF1FF3253F82230AB4204D002460B4620
:101DA000304639467FE042464B4651EC180B14F062
:101DB000D5F90A46C2F30A53C3EB1553102B01465B
:101DC000064617464FEA255540F3A4803EA3D3E9C3
:101DD000002351EC190B14F079FB59EC188B0646D3
:101DE0000F4632463B4618EE100A494614F0B6F943
:101DF00041EC180B404653EC182B494614F0AEF951
:101E000032463B4614F0AAF931A3D3E90023064633
:101E10000F4651EC190B14F059FB32463B4614F0B7
:101E20009DF98046894642464B4651EC180B14F00A
:101E300095F90A46C2F30A53ED1A312D01460646BA
:101E4000174667DD26A3D3E9002351EC190B14F0E4
:101E50003DFB56EC185B8046894642464B4618EEE1
:101E6000100A314614F07AF941EC180B314653EC64
:101E7000182B284614F072F942464B4614F06EF9BE
:101E800019A3D3E9002306460F4651EC190B14F0B1
:101E90001DFB32463B4614F061F98046894651EC01
:101EA000180B42464B4614F059F9C4E900010646A6
:101EB0000F4631E0AFF3008000004054FB21F93FB2
:101EC0003163621A61B4D03D0000601A61B4D03D44
:101ED0007370032E8A19A33B83C8C96D305FE43F3A
:101EE0000000002E8A19A33BC14920259A837B3923
:101EF000FB21E93F7BD90240FB21F93FFB2139411E
:101F0000FFFFEF7F0000704134AF02080000E03FA8
:101F1000B4AE0208C4E9001232463B4651EC180B3D
:101F200014F01CF942464B4614F018F9BBF1000FAF
:101F3000C4E90201BFF65EAE07F1004501F10043BE
:101F4000C4E90065C4E90203CAF1000A52E60323AA
:101F500098E614F005F9244B9D4206460F4616D02C
:101F60001BA3D3E9002314F0FBF802460B46C4E997
:101F700000233046394614F0F1F815A3D3E90023C5
:101F800014F0EEF84FF0FF3AC4E9020132E612A372
:101F9000D3E9002314F0E4F811A3D3E900230646A3
:101FA0000F4614F0DDF802460B46C4E90023304624
:101FB000394614F0D3F80AA3D3E9002314F0D0F87B
:101FC0004FF0FF3AC4E9020114E600BFAFF300800E
:101FD0003163621A61B4D03D0000601A61B4D03D33
:101FE0007370032E8A19A33BFB21F93F0000000008
:101FF000574A2DE9F84F21F00048904504460D4618
:1020000058DC544B0029B4BF534F544F98454FF000
:10201000000612DD524B984540F38C80514B984599
:1020200054DD013398454ED047A3D3E90023204621
:10203000294614F04BFABDE8F88F4B4B98455CDC11
:1020400041A3D3E9002314F08BF8484B002214F08D
:10205000CDFCA8BB2046294614F09AFF01F084F875
:1020600004460D4622462B462046294614F078F8B1
:10207000224682468B462B462046294614F026FAF5
:102080003A4B8046894600222046294614F068F8DB
:1020900002460B464046494614F042FB02460B46B8
:1020A0005046594614F05AF832463B4614F00EFAA0
:1020B000BDE8F88F02460B4614F052F8BDE8F88FE1
:1020C00020462946FAE72A4B9842ADD820462946B1
:1020D00014F05EFF214B002214F0F8F9FEF75CFBD0
:1020E00004460D4622462B463046394614F0EEF99A
:1020F00022462B4614F0EAF9E0E714F049FF01F01C
:1021000033F81C4B984504460D46ABDD174B0022B7
:1021100014F026F802460B462046294614F000FB30
:1021200022462B4614F01CF832463B4614F0CEF9FA
:10213000BDE8F88F14F02CFFFEF72EFB32463B462D
:1021400014F0C4F9BAE700BF3374AC3C1F7BAC7F1A
:10215000FFFFEF7FFFFF35400000E0BF0000E03FE2
:10216000412E8640CD338640FFFF2F3E0000F03FDA
:102170007DF8B98FFFFFEF3F2DE9F84F21F00049BF
:10218000B9F1795F2DED048B06460F4692469B46CA
:102190006CDA14F04BFC002800F0EE8032463B462F
:1021A0003046394614F092F977A3D3E90023044668
:1021B0000D4614F08BF976A3D3E9002313F0D0FF7A
:1021C00022462B4614F082F973A3D3E9002313F0BF
:1021D000C5FF22462B4614F079F971A3D3E90023F9
:1021E00013F0BEFF22462B4614F070F96EA3D3E91C
:1021F000002313F0B3FF22462B4614F067F96CA3BB
:10220000D3E9002313F0ACFF22462B4614F05EF90D
:1022100041EC180B6A4B00222046294614F056F96F
:1022200053EC182B804689462046294614F04EF977
:1022300052465B4604460D463046394614F046F990
:1022400002460B462046294613F088FF02460B46FD
:102250004046494613F082FF02460B46002059498A
:1022600013F07CFFBDEC048BBDE8F88F02460B46F3
:1022700014F02CF944A3D3E9002304460D4614F0CE
:1022800025F943A3D3E9002313F06AFF22462B4626
:1022900014F01CF940A3D3E9002313F05FFF22469A
:1022A0002B4614F013F93EA3D3E9002313F058FF93
:1022B00022462B4614F00AF93BA3D3E9002313F07E
:1022C0004DFF22462B4614F001F939A3D3E9002330
:1022D00013F046FF2B46224614F0F8F83A4B994586
:1022E00041EC180B96DD394B99453ADC0022A9F5F3
:1022F0000013344900209046994613F02FFF41EC1B
:10230000190B2F4B00222046294614F0DFF84246D5
:102310004B4613F023FF53EC182B8046894620468A
:10232000294614F0D3F852465B4604460D46304623
:10233000394614F0CBF802460B462046294613F0E6
:102340000DFF02460B464046494613F007FF024682
:102350000B4651EC190B13F001FFBDEC048BBDE8EB
:10236000F88F9FED157BDFF86890B0EE479AF0EE9E
:10237000679A4FF00008C4E7BDEC048B11490020B8
:10238000BDE8F88FAFF30080D43888BEE9FAA8BD65
:10239000C4B1B4BD9EEE213EAD529C804F7E923EB4
:1023A0009015CB19A001FA3E7751C1166CC1563F6A
:1023B0004C5555555555A53F000000000000E73F1E
:1023C0000000E03F0000F03F3233D33F0000E93F20
:1023D0000000D23F000000002DE9F04FADF5197D5F
:1023E000B84CA29D089354F825400594013B12F186
:1023F000140F04900B910393C0F22083B249D31EB3
:1024000081FB0301DB17C3EBA10307930133A3EBAC
:102410008303DB00D3180693079A039BD41A059A0B
:10242000D6181AD40136A39F4FF000084FF00009C8
:10243000264420AD08E057F8240013F0DDFF0134F6
:10244000B442E5E8020108D0002CF4DA0134404639
:102450004946B442E5E80201F6D1059B002BC0F2E3
:10246000B883089BDDF80C90DA000292059A1A44B2
:102470000192049A20A901EBC30A0DF5E07B02EB5F
:10248000C308039B002B4FF000044FF0000511DB45
:10249000049E574677E90223F6E8020114F016F885
:1024A00002460B462046294613F05AFE464504468E
:1024B0000D46EFD1019B09F101099945EBE8024571
:1024C0000AF1080ADDD1059A04980CA901EB8203F0
:1024D00002990144083B8B460BA90993134601EB73
:1024E00082020A920193019A98A901EBC203002A81
:1024F00053E928452ADD0DF5E07909EBC2080DF115
:10250000300A724B00222046294613F0DFFF14F0F8
:102510008DFA13F071FF6E4B002206460F4613F042
:10252000D5FF02460B462046294613F017FE14F04D
:102530007DFA044678E902234AF8044B30463946CE
:1025400013F00EFEC84504460D46DAD1DDF81890AA
:10255000204629464A4601F053F800224FF07F53A7
:1025600004460D4613F0B2FFFCF79AFC594B0022CB
:1025700013F0ACFF02460B462046294613F0EEFD51
:102580000D46044614F052FA804613F035FF0B4610
:1025900002462946204613F0E1FD4B46002B064635
:1025A0000F4640F39980019A0CA9013AC9F118032A
:1025B00051F8225045FA03F101FA03F3EB1AC9F17D
:1025C00017050CA843FA05F5002D40F82230884481
:1025D00000F38C80002200233046394614F0DEF9E7
:1025E000002800F05182019B059A03F1FF3A524501
:1025F00010DC03F180430CAA013B0A9802EB830331
:10260000002253F80419834242EA0102F9D1002A58
:1026100040F0DD80059B0CAA013B52F82330002BD3
:1026200040F0D080099A012352F80419013300299F
:10263000FAD001994A1CCB1802939146079B08993E
:1026400002EB030A019B0B44984620AB0AF1804A37
:1026500003EBC808A39B0AF1FF3A03EB8A0A70ABAD
:1026600003EBC20301935AF8040F13F0C5FE0B46A7
:10267000039902460029C8E9002347464FF00004A9
:1026800008F108084FF0000511DB049E01E077E92E
:102690000223F6E8020113F019FF02460B4620461A
:1026A000294613F05DFD5E4504460D46EFD1019BC2
:1026B000E3E802450193029B09F101099945D2DD46
:1026C00010E700BFD4B30208ABAAAA2A0000703EEC
:1026D00000007041000020406BD1019B0CAA013B1F
:1026E00052F82350ED15002D7FF774AF019B002B9E
:1026F00008F1010840F3C6810C9C002C51D1019BCC
:10270000012B20D00CAB012253F8044F002C4BD0EE
:10271000531C0CA9C4F1807441F8224001999942DC
:1027200010DD0CAA0CA852F8232000EB830300EB69
:1027300081006FF07F4100E01A688A1A43F8042B89
:102740008342F9D10124069B002B0EDD012B00F002
:102750006A81022B09D1019B5A1E0CAB0CA953F8BC
:102760002230C3F3150341F82230022D7FF432AF3B
:1027700032463B46B649002013F0F0FC06460F46B1
:10278000002C3FF427AF069AB149002000F038FF33
:1027900002460B463046394613F0E0FC06460F462B
:1027A00018E701230022B4E7019901328A42ABD134
:1027B000C9E7A84B002214F00FF9002840F050811F
:1027C000054607E7019B5A1C9146029236E70CAB7F
:1027D000069A53F82A30CDF81C80183A03950692D1
:1027E00073B9019B03F18043023B0CA901EB830306
:1027F00053F804190AF1FF3A183A0029F8D0069262
:10280000069A9349002000F0FBFEBAF1000F04463F
:102810000D46C0F2D48170AB03EBCA0B0CAA0AF1CF
:102820000103069302EB83084FEACA030BF1080980
:10283000049358F8040D13F0DFFD22462B4613F0E5
:1028400045FE06460F46844B2046294669E9026745
:10285000002213F03BFE0CAB984504460D46E8D130
:1028600048ABCDE9013ADDF814A0BAF1000F4FF002
:1028700000092CDB74A3D3E90023DFF8E0815F4675
:1028800000240025002603E0B14510DBF8E8022310
:10289000F7E8020113F01AFE02460B4620462946CD
:1028A00013F05EFC0136B24504460D46ECDA019B9E
:1028B000029A03EBC9034A45C3E90045ABF1080B93
:1028C00009F1010306D0BAF1000F9946D2DA0024CB
:1028D0000025ECE7A29BDDF808A0022B1EDC002BF4
:1028E00000F3058113D1049C019D083400200021D0
:1028F0002C4474E9022313F033FCA542F9D1039B65
:1029000013B101F1004319460B9BC3E90001079B7A
:1029100003F007000DF5197DBDE8F08FA29B032B96
:10292000F5D1BAF1000F00F06681019A049BD3182B
:10293000D3E9004502EBCA0B7BE902672046294632
:1029400032463B4613F00CFCA046A94604460D4611
:1029500022462B463046394613F000FC4B46424691
:1029600013F0FEFB019B5B45CBE90045CBE902017F
:10297000E2D1BAF1010F40F33E81019A049B0AF1C2
:10298000005A0AF1FF3A13444FEACA01D3E900455D
:1029900001F1080A029192440DF5947B7AE90267ED
:1029A0002046294632463B4613F0DAFBA046A946AC
:1029B00004460D4622462B463046394613F0CEFBE0
:1029C00042464B4613F0CCFBD345CAE90045CAE961
:1029D0000201E3D1029C019B0026002710341C4415
:1029E00003F110053046394674E9022313F0B8FBB1
:1029F000A542F9D106460F46039B002B40F0B58057
:102A0000019A0B99D2E90045D2E90223C1E90223D8
:102A1000079B03F00700C1E90467C1E900450DF514
:102A2000197DBDE8F08F019B5A1E0CAB0CA953F821
:102A30002230C3F3160341F8223096E600216FF0EE
:102A400017030791E6E400BF00000040FB21F93FB7
:102A50000000F03F0000E03F0000703EA89902082F
:102A6000019B002B08F10108C8BF02253FF744AEC7
:102A700032463B466149002013F070FB02250646B2
:102A80000F46A7E500245EE63946069F03957A4285
:102A90003046CDF81C8000F0B3FD594B00220446AF
:102AA0000D4613F099FF002855D0564B00222046C2
:102AB000294613F00BFD13F0B9FF064613F09CFCFA
:102AC0004F4B002213F002FD0B46024629462046DA
:102AD00013F044FB019C13F0A9FF04F1010A0CABB5
:102AE000183743F82400069743F82A6088E6019DCA
:102AF000069A002005EBC204002174E9022313F0BA
:102B00002FFBA542F9D1039B002B48D10B9BC3E9B6
:102B100000010B4601990246D1E9000113F01EFBAA
:102B2000BAF1000F0DDD4AAD0124F5E802230134AE
:102B300013F016FBA245F8DA039B13B101F1004331
:102B400019460B9BC3E90201079B03F007000DF533
:102B5000197DBDE8F08F2046294613F067FF019BE1
:102B60000CAA9A4642F823004AE6019B19465A6885
:102B7000DB680D688C680B9903F10043CB60079B01
:102B80000D6002F100424A6003F0070007F10042C5
:102B90008C600E614A610DF5197DBDE8F08F0B9CCC
:102BA00001F10043C4E900030B4601990246D1E953
:102BB000000113F0D3FABAF1000FB4DCBEE7A29B18
:102BC000022B0ADC002B11DC7FF4A1AE00200021D7
:102BD00095E6089BDB00029375E4A29B032B7FF430
:102BE00096AE48AB00260027019305E748AB0020CE
:102BF0000021019387E700260027FDE60000F03F53
:102C0000000070410000703E2DE9F04F1F4621F09A
:102C1000004383B01646B3F1795FCDE900670446FF
:102C20000D4604DA13F002FF002800F085802246EA
:102C30002B462046294613F049FC06460F463246ED
:102C40003B462046294613F041FC42A3D3E900232A
:102C500082468B463046394613F038FC3FA3D3E911
:102C6000002313F07BFA32463B4613F02FFC3DA3C2
:102C7000D3E9002313F074FA32463B4613F026FCE6
:102C80003AA3D3E9002313F069FA32463B4613F026
:102C90001DFC38A3D3E9002313F062FA0C9B804695
:102CA00089469BB3DDE90001294B002213F00EFC9D
:102CB00042464B46804689465046594613F006FC2C
:102CC00002460B464046494613F048FA32463B4618
:102CD00013F0FCFBDDE9002313F040FA1AA3D3E95B
:102CE000002306460F465046594613F0EFFB0246B6
:102CF0000B463046394613F033FA02460B4620465F
:102D0000294613F02BFA03B0BDE8F08F02460B46BC
:102D10003046394613F0DAFB0BA3D3E9002313F056
:102D20001DFA52465B4613F0D1FB22462B4613F0A8
:102D300017FA03B0BDE8F08F2046294603B0BDE87E
:102D4000F08F00BFAFF30080495555555555C53F2D
:102D50000000E03F7CD5CF5A3AD9E53DEB9C2B8A69
:102D6000E6E55A3E7DFEB157E31DC73ED561C11968
:102D7000A0012A3FA6F810111111813F00000000A8
:102D80002DE9F04F2DED048BC74C85B021F00045A7
:102D9000A54243EC192B80468946039100951CDC23
:102DA00013F044FE002846D1129B424601331343E0
:102DB0002B4300F0C781129B012B00F0D0814B46C2
:102DC000BA49002013F0ACFC04460D4620462946C3
:102DD00005B0BDEC048BBDE8F08FB54B009A9A426C
:102DE00029DD039B002B0ADA55EC194B19EE102A4A
:102DF00005F1004309F1004143EC192B8946424695
:102E00004B4689A1D1E9000113F0A8F953EC192B25
:102E100004460D4686A1D1E9000113F09FF9224630
:102E20002B4613F09DF99FED847B80468946B0EEDA
:102E3000479AF0EE679A42464B464046494613F0A1
:102E400045FB02460B4682468B4613F03FFB52463B
:102E500004460D465B464046494613F037FB78A3CF
:102E6000D3E9002306460F462046294613F02EFBE1
:102E700075A3D3E9002313F073F922462B4613F010
:102E800025FB73A3D3E9002313F06AF922462B46EE
:102E900013F01CFB70A3D3E9002313F061F9224661
:102EA0002B4613F013FB6EA3D3E9002313F058F95C
:102EB00022462B4613F00AFB6BA3D3E9002313F041
:102EC0004FF952465B4613F001FB47EC186B68A3C1
:102ED000D3E9002306460F462046294613F0F6FAAA
:102EE00065A3D3E9002313F03BF922462B4613F0E8
:102EF000EDFA63A3D3E9002313F032F922462B46FF
:102F000013F0E4FA60A3D3E9002313F029F9224671
:102F10002B4613F0DBFA5EA3D3E9002313F020F96C
:102F200022462B4613F0D2FA5BA3D3E9002313F019
:102F300017F955EC194B02460B463046394613F04B
:102F40000FF953EC182B13F0C1FA2B4619EE102A87
:102F500013F006F952465B4613F0B8FA2B4619EE09
:102F6000102A13F0FDF84EA3D3E9002304460D46C2
:102F700051EC180B13F0AAFA22462B4613F0F0F886
:102F800006460F4632463B464046494613F0E8F8AF
:102F9000474B009A9A4204460D4600F38D80129BDF
:102FA000012B39D002460B460020404913F0B8FBF4
:102FB00082468B465C465346CDE9003429460020C4
:102FC00042464B46824613F0C9F802460B4630464D
:102FD000394613F0C3F82346524613F077FAAB464E
:102FE000234606460F4652465046594613F06EFA9F
:102FF000304B002213F0B4F802460B4630463946F7
:1030000013F0AEF8DDE9002313F060FA23465246D0
:1030100013F0A6F804460D462046294605B0BDEC3F
:10302000048BBDE8F08F00BF182D4454FB21E93F0D
:10303000075C143326A6813C00000000000000005D
:10304000D47ABF74702AFB3EE9A7F0320FB8123F62
:1030500068108D1AF726303F1583E0FEC8DB573F16
:1030600093846EE9E326823FFE41B31BBAA1AB3FD6
:10307000735360DBCB75F3BEA69237A0887E143FF6
:103080000165F2F2D844433F280356C9226D6D3FD3
:1030900037D60684F464963F7AFE10111111C13FB1
:1030A000635555555555D53FFFFF2F3E0000F0BFE6
:1030B0002794E53F0000F03F129813F09DF9224657
:1030C00082468B462B462046294613F0FFF952468E
:1030D00041EC180B5B462046294613F041F80246A6
:1030E0000B4651EC180B13F01BFB32463B4613F01A
:1030F00035F802460B464046494613F02FF8024683
:103100000B4613F02DF802460B465046594613F075
:1031100025F8039B9B1703F002030446C3F101004B
:103120000D4613F069F902460B462046294613F076
:10313000CDF904460D462046294605B0BDEC048B6A
:10314000BDE8F08F4046494613F022FF02460B4689
:103150000020044913F0E4FA04460D465CE74446B7
:103160004D4659E70000F03F2DE9F04FD24A2DEDD2
:10317000028B21F00043934283B004460D460E4675
:103180005BD9CE4A934214D9CD4A934209D9C1F3AF
:1031900013030343024600F0EF810B4612F0E0FFF9
:1031A0000FE1AFA3D3E9002313F020FC002840F087
:1031B000F881002EC0F20A81ABA3D3E90023204698
:1031C000294613F083F9BF4F002602460B463046CE
:1031D000394612F0C5FF13F029FC019013F00CF9E9
:1031E000A3A3D3E900238046894613F06FF9024672
:1031F0000B462046294612F0B1FF9FA3D3E90023D6
:1032000006460F464046494613F060F98046894617
:1032100042464B463046394612F0A0FF04460D4662
:1032200022462B463046394612F098FF42464B461E
:1032300012F094FF41EC180B09E0A34A934200F20C
:10324000F180A24A934240F20181002301939D4BF9
:1032500000222046294613F039F906460F46324629
:103260003B462046294613F031F985A3D3E90023D4
:1032700082468B4613F02AF983A3D3E9002312F088
:103280006FFF52465B4613F021F981A3D3E9002377
:1032900012F064FF52465B4613F018F97EA3D3E99F
:1032A000002312F05DFF52465B4613F00FF97CA33A
:1032B000D3E9002312F052FF52465B4613F006F9A1
:1032C000834B002212F04CFF8046894642464B4613
:1032D0003046394613F0FAF802460B4600207D4985
:1032E00012F03CFF06460F463246404649463B46F2
:1032F00012F034FF3246804689463B462046294636
:1033000013F0E4F802460B460020734912F026FF42
:1033100002460B464046494613F002FA52465B46C7
:1033200013F0D4F8019E02460B46002E3BD057EC1A
:10333000186B18EE102A3B4612F010FF22462B465F
:1033400013F0C4F83B4618EE102A12F007FF5B4654
:10335000524612F003FF019B013306460F4600F070
:10336000DB80019B012B00F0BD80019B0133392BD9
:1033700046D8019A132A00F3EA804FF40013134150
:10338000C3F17F5722462B4612F0E8FE002607F5D0
:10339000401702460B463046394612F0DFFE019ACE
:1033A00001EB02510DE02046294613F08FF85246FA
:1033B0005B4612F0D3FE02460B462046294612F029
:1033C000CDFE03B0BDEC028BBDE8F08F36A3D3E990
:1033D00000232046294612F0C3FE0022002313F0EA
:1033E000E7FA002840F0CB801FA3D3E90023204652
:1033F000294613F06BF8394F002602460B46E6E6E5
:1034000022462B4612F0AAFE02460B460020304907
:1034100012F0A4FE019A2E4B01EB0251002212F091
:103420009DFECEE72E4A934200F2C380002910A3EE
:10343000D3E900237FDB12F091FE01230FF238095C
:10344000D9E90089019306460F46E1E618A3D3E9BE
:10345000002312F085FE02460B46AAE7AFF3008078
:10346000EF39FAFE422E8640FE822B654715F73F64
:103470000000E0FE422EE63F763C7935EF39EA3D2A
:103480002DC3096EB7FD8ABE3952E686CACFD03E3B
:10349000B7DBAA9E19CE143F8555FE19A0015A3FED
:1034A000F41011111111A13F59F3F8C21F6EA501BB
:1034B0009C7500883CE4377E79684340412E864005
:1034C000FFFFEF7F0000E03F422ED63FFFFF8F3C23
:1034D0000000F03F00000840000018400000E0BF7E
:1034E000B1A2F03F404B00222046294613F060FA7B
:1034F000002847D03D4B20462946002212F030FEDE
:1035000002460B463046394612F028FE00224FF0A4
:10351000404312F0DBFF54E702460B4620462946A3
:1035200012F01CFE314B002212F0D0FF2F4B002274
:1035300012F014FE45E712F013FE4FF0FF330FF2C6
:103540009009D9E90089019306460F4660E6019F7C
:10355000C7F57F7603360022330512F001FE0246DE
:103560000B462046294612F0F9FD214B002212F0AD
:10357000F7FD01EB075124E70029BFF622AF1D49F3
:1035800000201EE732463B462046294612F0E6FD63
:1035900002460B4612F0E4FD154B002212F0E0FD4E
:1035A0000FE70DA3D3E900231046194612F08EFF52
:1035B00007E70BA3D3E9002312F088FF002DB4BF67
:1035C0000D4F0A4F02460B46002600E6AFF300807F
:1035D000763C7935EF39EABD9C7500883CE4377E4E
:1035E000FE822B654715F73F0000D0BF0000E03F8B
:1035F0000000F03F0000F0BF0000E0BF000000004E
:10360000F8B5C1F30A5304460D460E46174653BBA0
:1036100021F000460346334324D0374B002212F0FA
:1036200055FF364B9F4204460D4616DBC1F30A5345
:103630000E46363B3B4440F2FE7293421CDC002BAC
:103640003BDC13F1350F2BDA4CF250339F4213DC85
:10365000002D21A1D1E9000137DB1FA3D3E900230D
:1036600012F034FFF8BD40F2FF729342E2D10246FD
:103670000B4612F075FDF8BD002D19A1D1E900012E
:1036800005DB17A3D3E9002312F020FFF8BD14A334
:10369000D3E9002314A1D1E9000112F017FFF5E7E7
:1036A00026F0FF4626F4E006363346EA035120466C
:1036B000134B002212F00AFFF8BD26F0FF4626F455
:1036C000E006204646EA0351F8BD09A1D1E9000110
:1036D000C3E700BFAFF3008059F3F8C21F6EA50126
:1036E0009C7500883CE4377E9C7500883CE437FE7E
:1036F00059F3F8C21F6EA58100005043B03CFFFF94
:103700000000903C10B5054C237833B9044B13B13D
:103710000448AFF300800123237010BD380300205C
:10372000000000008CB5020808B5034B1BB103492B
:103730000348AFF3008008BD000000003C030020F8
:103740008CB50208154B002B08BF134B9D46A3F503
:10375000803A00218B460F461348144A121A06F08D
:1037600029FD0F4B002B00D098470E4B002B00D0AB
:1037700098470020002104000D000D48002802D0C9
:103780000C480DF04DFC15F0F5FB200029000DF064
:1037900027FC0DF041FC00BF000008000080022063
:1037A00000000000D10F0208B002002054310020B8
:1037B0002110020800000000F0B5214D2C6883B0F4
:1037C00014B1204603B0F0BD4FF49C700DF02AFCFC
:1037D0004FF0FF310446032001F04CFC00B204F02E
:1037E00061F84FF0FF310646022001F043FC00B2C1
:1037F00004F058F83146024620460AF0A7F904F1D1
:10380000DC0600231A46304601210AF011F84FF079
:10381000FF31012001F02EFC00B204F043F898279C
:103820004FF0050C0246CDE9007C3346214604F1F9
:10383000E40007F037F920462C6003B0F0BD00BF6C
:10384000540300202DE9F04104460E46FFF7B4FF73
:1038500000F1E4070546384607F042F9082C18D075
:10386000A4F10903012B0CD8D5F8E43038469B6A43
:103870009847052805DCD5F8E43038465B6A08210E
:103880009847324621461023BDE8F0410D2003F051
:10389000E5BED5F8E43038469B6A98470228F0DC4C
:1038A000D5F8E43038465B6A04219847E9E700BF61
:1038B00010B52DED028BFFF77FFF00F1E4042046E9
:1038C00008F058FE08EE900A204608F061FE07EE68
:1038D000900A2046B8EEE78A08F068FEF8EEE88A1B
:1038E00068EE087A07EE100AE8EEA87AB8EEC77A12
:1038F000E7EE077AF5EE407AF1EE10FAB1EEE78ADC
:1039000006D4FDEEC87ABDEC028B17EE900A10BD0E
:1039100017EE900A14F082F8F3E700BF08B5032809
:103920001CD8DFE800F0060D1402BDE80840FFF7E0
:10393000BFBFFFF741FFBDE80840E43008F01ABE02
:10394000FFF73AFFBDE80840E43008F021BEFFF77A
:1039500033FFBDE80840E43008F028BE002008BD71
:1039600008B518B1012808D0002008BDFFF724FFD2
:10397000BDE80840E430FAF79BBFFFF71DFFBDE844
:103980000840E430FAF7B4BF00B583B00190FFF708
:1039900013FF0199E43003B05DF804EB08F000BCBC
:1039A00008B501F091FCFBF73BFDBDE8084001F0D4
:1039B000EDB900BF08B501F087FCFBF7A1FDBDE83C
:1039C000084001F0E3B900BF08B501F07DFC13F039
:1039D0005BFBBDE8084001F0D9B900BF08B501F0B4
:1039E00073FC13F053FFBDE8084001F0CFB900BFEE
:1039F00008B501F069FCFBF723FDBDE8084001F0C4
:103A0000C5B900BF08B501F05FFC13F065FDBDE866
:103A1000084001F0BBB900BF08B501F055FCFAF74A
:103A200087FFBDE8084001F0B1B900BF08B501F05B
:103A30004BFC13F09FFCBDE8084001F0A7B900BFA4
:103A400070B5049D95420C4625DB164653B9042AF1
:103A50001AD0022A11D110F001030ED102880A8077
:103A6000184670BD10440B468A1810F8011D03F863
:103A7000011B9A42F9D1002070BD01463246204612
:103A800005F0B2F9002070BD10F00303F5D1026813
:103A90000A60184670BD0846002106F08BFB4FF007
:103AA000FF3070BD0830704728B1002902DB436841
:103AB0008B4201DC002070470844007A704700BF49
:103AC00030B1002904DB43688B42C4BF4018027246
