:020000040800F2
:10E0000000800220B93802089D9B02089D9B0208EF
:10E010009D9B02089D9B02089D9B0208000000003A
:10E0200000000000000000000000000015F50108DD
:10E030009D9B020800000000BBF501081BF60108CB
:10E040009D9B02089D9B02089D9B02089D9B0208C8
:10E050009D9B02089D9B02089D9B02089D9B0208B8
:10E060009D9B02089D9B02089D9B02089D9B0208A8
:10E070009D9B02089D9B02089D9B02089D9B020898
:10E080009D9B02089D9B02089D9B0208E9050208D2
:10E09000D50402089D9B0208ED0502089D9B02081D
:10E0A0009D9B02089D9B02089D9B02089D9B020868
:10E0B0009D9B02089D9B0208000000009D9B02089A
:10E0C0009D9B02089D9B02089D9B02089D9B020848
:10E0D0009D9B02089D9B02089D9B02089D9B020838
:10E0E0009D9B02089D9B02080000000000000000AC
:10E0F0000000000000000000000000000000000020
:10E10000000000009D9B0208000000009D9B02088B
:10E110009D9B0208000000009D9B0208000000007B
:10E120009D9B02089D9B02089D9B02089D9B0208E7
:10E130009D9B02089D9B02089D9B02080000000019
:10E140009D9B02089D9B02089D9B02089D9B0208C7
:10E150009D9B02089D9B02089D9B02089D9B0208B7
:10E160009D9B02089D9B02089D9B020800000000E9
:10E17000000000009D9B020800000000000000005D
:10E180009D9B02089D9B02089D9B02089D9B020887
:10E190009D9B0208000000002DE9F04F85B003911F
:10E1A0000778A7F10903042B044607F07F0200F16A
:10E1B0000100F5D9202AF3D02B2F04BF677804463D
:10E1C0002D2F72D09FED427B8DED007B4FF000082C
:10E1D0004FF000098FB34FF0000E4FF0000ADFF848
:10E1E00000B1754619E018F01FFE8046894630469A
:10E1F00018F0B4FD42464B4618F064FC5246804687
:10E2000089465B46DDE9000135B318F037FFCDE9FB
:10E210000001AE4614F8017F7FB1A7F13006092E48
:10E2200052465B4640464946DDD9C5B92E2F16D128
:10E2300014F8017F0125002FEFD142464B46DDE95E
:10E24000000118F0F1FD80468946039B404649468F
:10E250001C6005B0BDE8F08F4FF0010EDAE7BEF1AB
:10E26000000F29D042464B46DDE9000118F0DCFDE5
:10E2700007F0DF07452F80468946E6D10399601CE9
:10E280000A221BF09DFB16490246002019F02CF9CA
:10E2900002460B464046494618F0C6FD8046894670
:10E2A0004046494605B0BDE8F08F9FED0B7B67788F
:10E2B0008DED007B013489E7DFF828904FF00008EE
:10E2C0004046494605B0BDE8F08F00BFAFF300807F
:10E2D000000000000000F03F000000000000F0BF60
:10E2E000000024400000F87F2DE9F84F1646002377
:10E2F000002204460D4619F009F8002840F09D80E0
:10E30000002200232046294618F0F6FF28B13022CB
:10E31000002332707370BDE8F88F2046294619F04B
:10E3200001FF19F031F87BA3D3E900238146294688
:10E33000204618F0EBFF002800F08680B9F1000FAE
:10E34000C0F2BE804A4600206F4919F0CDF802465F
:10E350000B462046294618F091FE04460D4666A15C
:10E36000D1E9000101274FF0000822462B4618F0A2
:10E370005BFD0022654B18F0A5FB19F0F1F8002FAA
:10E38000CC464FF0FF3AC1464FF0000840F385807D
:10E39000DFF888E15E4C0122AEF1700945F6F32505
:10E3A0004FF02E0BA94208BFA0424FF0300309D313
:10E3B000001B61EB0501A94208BFA04203F1010364
:10E3C000F6D2DBB2337050EA010306F1010409D141
:10E3D000BA4210DACE4502F101020CD026467EE8A0
:10E3E0000245DFE7BA4204BF86F801B0B41CCE454F
:10E3F00002F10102F2D1B8F1000F0DD02246302116
:10E4000002F8011BC2F1010353442344002BF7DC43
:10E410002AEAEA7301331C44BCF1010F4CD0652396
:10E42000BCF1000F2370C5BF2B236370611CA11CBE
:10E430006046BDE8F84F0DF0D9BA05F100431D461E
:10E440002D23337001365BE72DA3D3E9002320464B
:10E45000294618F079FF00287FF470AFB9F10E0F4C
:10E4600009F101073DDDA9F10E08424600202649C9
:10E4700019F03AF802460B462046294618F0FEFDF0
:10E480000022224B18F01EFB19F06AF8002FA9F1A8
:10E490000F0A4FF0010C3FF77BAF334630222E249A
:10E4A00003F8022B74707FEA090618D01E4403F8A3
:10E4B000012BB342FBD16BE700232370BDE8F88F3B
:10E4C000C9F100020020104919F00EF802460B466F
:10E4D0002046294618F0A8FC04460D463FE71E4694
:10E4E00056E7C9F10E0200200749C84618F0FCFFA4
:10E4F0004FF0010939E700BF0000901EC4BCD642AE
:10E5000050EFE2D6E41A4B44000024400000E03F04
:10E5100000407A108DEDB5A0F7C6B03E58A30208B2
:10E5200070B54FF0FF3006F095F904466FF07F406C
:10E5300006F090F90646204618F000FC00220C4B2D
:10E5400018F072FC044630460D4618F0F7FB06A39F
:10E55000D3E9002318F092FD02460B4620462946D7
:10E5600018F0B0FA70BD00BF0000E0DFFFFF6F439E
:10E570000000F03D00000000294B1B68002B70B527
:10E5800006460CBF182005200D4609F0D5F8002ED0
:10E59000044639DD234B186818F0E0FB1EA3D3E9CD
:10E5A000002318F041FC0022002318F08BFA18F029
:10E5B000EBFE236820EAE071B1F5806FA8BF4FF44D
:10E5C0008061DB682046984723681749D3F880307C
:10E5D00091FBF6F120469847002D14DDA5F11406B5
:10E5E000012EB8BF012630460DF0DAFF2368204621
:10E5F000DB6800219847A81B0128B8BF0120BDE8AF
:10E6000070400DF0CDBF70BD03680021DB68BDE830
:10E6100070401847AFF30080101010101010104019
:10E62000E40500200802002040420F000000000026
:10E6300038B5154B1B68002B04460CBF182005206D
:10E6400009F07AF80546204618F088FB0CA3D3E9B8
:10E65000002318F0E9FB0022002318F033FA18F029
:10E6600093FE2B6820EAE071B1F5007FDB68A8BF5C
:10E670004FF4007128469847044B1C6038BD00BF1A
:10E680001010101010100040E405002008020020B7
:10E6900030B52D4B8DB01A680092009A120205D445
:10E6A000009A42F400020092009A1A60274A284B0E
:10E6B000126801921B6802930EF028FD18F04EFBC1
:10E6C000CDE90401019B9BB20193029B9BB2029393
:10E6D000DDE904011AA3D3E9002318F0A5FB1D4BC3
:10E6E0000022CDE90401CDE906230298019BC01A5E
:10E6F00018F024FBCDE90801DDE90445019818F084
:10E700001DFB02460B462046294618F0D9F9CDE9F3
:10E710000A01DDE90601DDE90823DDE90A4518F013
:10E72000ADFC22462B4618F07FFB00220A4B18F066
:10E73000C9F918F051FE039003980DB030BD00BF29
:10E740009A9999999999F13F08030450A875FF1F68
:10E75000CA75FF1F0000544000003E40000000004A
:10E760002DE9F04F2DED028B044683B0C06818F000
:10E77000F5FA80462069894618F0F0FA8246606909
:10E780008B4618F0EBFA024601F1004306460F46AD
:10E790004046494619F072FB18F03EFEE06205461D
:10E7A00019F020FA0190284619F0D0F9019B05468E
:10E7B000184618F0E5FA42464B4618F035FB8046FD
:10E7C0002846894618F0DCFA32463B4618F02CFB06
:10E7D00002460B464046494618F072F902460B467F
:10E7E0005046594619F04AFB18F016FE002208EE72
:10E7F000100A00233046394618F0A6FD28B3B5EEBE
:10E80000C08AF1EE10FA1CDD11A7D7E9006718EEF7
:10E81000100A18F0B5FA02460B463046394618F091
:10E820004FF932463B4618F04DF918F0F5FDA0625D
:10E83000E38843F00203E38003B0BDEC028BBDE844
:10E84000F08F05A7D7E90067E1E784ED0A8AEFE7D3
:10E85000EA2E4454FB21F93FEA2E4454FB21F9BF30
:10E8600008B50EF085FBDFED0C7A07EE100A67EEB7
:10E87000277A17EE900A18F083FA05A3D3E900234C
:10E8800018F0FCFB18F080FD08BD00BFAFF300805E
:10E89000EA2E4454FB2119400000B443000000005C
:10E8A00008B50EF079FBDFED0C7A07EE100A67EE83
:10E8B000277A17EE900A18F063FA05A3D3E900232C
:10E8C00018F0DCFB18F060FD08BD00BFAFF300805E
:10E8D000EA2E4454FB2119400000B443000000001C
:10E8E000494A21F0004393422DE9704304460D4606
:10E8F0004BDC464A93420E460EDC3FA3D3E900238D
:10E9000018F0E0F80022424B18F01EFD00284CD011
:10E9100020462946BDE870833E4A93423BDCB3F172
:10E92000804F42DD18F0F8FF2246804689462B468C
:10E930002046294618F078FA0022354B18F0C2F824
:10E9400019F0AEFE02460B464046494618F0BAF8AA
:10E9500002460B4600202E4918F090FB4246044622
:10E960000D464B464046494618F0ACF802460B4669
:10E970002046294618F0A6F802F06AF8002EC9DCF5
:10E9800001F100431946BDE8708302460B4618F0BA
:10E9900099F8BDE8708318F0BFFF02F059F818A38A
:10E9A000D3E9002318F08EF8E8E722462B462046EC
:10E9B000294618F039FA804689462046294618F03B
:10E9C000ABFF002204460D46114B4046494618F065
:10E9D00079F819F065FE00220D4B18F073F8024625
:10E9E0000B464046494618F049FB22462B4618F094
:10E9F00069F800F0C5FAC1E79C7500883CE4377EF1
:10EA0000EF39FAFE422EE63FFFFFEF7FFFFF2F3E7A
:10EA10000000F03F0000B0412DE9F84FC44B21F059
:10EA200000469E4204460D468A460EDDC14B9E427C
:10EA300000F3AC8000F0A780BAF1000F40F3EA8049
:10EA40009FA1D1E90001BDE8F88FBB4B9E4200F3C6
:10EA5000B580A3F1DE739E4240F3A0804FF0FF3BF0
:10EA600022462B462046294618F0DEF902460B4680
:10EA70008046894618F0D8F993A3D3E900230646C7
:10EA80000F4618F0D1F992A3D3E9002318F01AF831
:10EA900032463B4618F0C8F98FA3D3E9002318F09B
:10EAA00011F832463B4618F0BFF98DA3D3E9002395
:10EAB00018F008F832463B4618F0B6F98AA3D3E9B5
:10EAC000002317F0FFFF32463B4618F0ADF988A34C
:10EAD000D3E9002317F0F6FF42464B4618F0A4F99D
:10EAE00085A3D3E90023804689463046394618F08D
:10EAF0009BF983A3D3E9002317F0E2FF32463B469C
:10EB000018F092F980A3D3E9002317F0D9FF324619
:10EB10003B4618F089F97EA3D3E9002317F0D0FF14
:10EB200032463B4618F080F97BA3D3E9002317F067
:10EB3000C7FF32463B4618F077F9BBF1FF3F02466C
:10EB40000B466CD04046494617F0BCFF22462B4688
:10EB500018F06AF9794E7A4B4FEACB0B5E449B442E
:10EB6000DBE9002317F0ACFF22462B4617F0A8FF85
:10EB700002460B46D6E9000117F0A2FFBAF1000FDA
:10EB800043DBBDE8F88F00283FF456AF22462B4602
:10EB90002046294617F096FFBDE8F88F60A3D3E919
:10EBA000002317F08FFF0022664B18F0CDFB0028E2
:10EBB0003FF454AF20462946BDE8F88F18F0ACFE6C
:10EBC000614B9E4204460D4639DCA3F550239E421C
:10EBD0005EDC02460B4617F075FF0022594B17F01A
:10EBE0006FFF002206460F464FF08043204629461D
:10EBF00017F068FF02460B463046394618F03EFAD9
:10EC00004FF0000B04460D462AE701F10043194678
:10EC1000BDE8F88F44A1D1E90001BDE8F88F404676
:10EC2000494617F04FFF22462B4618F0FDF80246E2
:10EC30000B462046294617F043FFBDE8F88F434BAB
:10EC40009E421ADC0022424B17F03AFF0022064691
:10EC50000F463F4B2046294618F0E6F80022394B74
:10EC600017F030FF02460B463046394618F006FAD8
:10EC70004FF0020B04460D46F2E602460B4600201A
:10EC8000344918F0FBF94FF0030B04460D46E7E654
:10EC900000222C4B17F014FF002206460F46294B8A
:10ECA0002046294617F00EFF02460B4630463946ED
:10ECB00018F0E4F94FF0010B04460D46D0E600BF12
:10ECC000182D4454FB21F93F11DA22E33AAD903F6D
:10ECD000EB0D76244B7BA93F513DD0A0660DB13F93
:10ECE0006E204CC5CD45B73FFF8300922449C23FFB
:10ECF0000D5555555555D53F2F6C6A2C44B4A2BFC0
:10ED00009AFDDE522DDEAD3F6D9A74AFF2B0B33F87
:10ED1000711623FEC671BC3FC4EB98999999C93FFF
:10ED20009C7500883CE4377E182D4454FB21F9BFC4
:10ED3000FFFF0F440000F07FFFFFDB3F68A30208E6
:10ED400088A302080000F03FFFFFF23FFF7F03406F
:10ED50000000F83F0000F0BF2DE9F843C1F30A5965
:10ED6000A9F2FF35132D02460B460C46064688468F
:10ED7000074622DC002D50DBDFF8F09049FA05F958
:10ED800001EA090E5EEA06061CD036A3D3E9002389
:10ED900017F098FE0022002318F0D6FA48B1002C94
:10EDA00004DD4FF4801343FA05F5A84428EA09046A
:10EDB000002721463846BDE8F883332D06DDB5F53A
:10EDC000806F3DD010461946BDE8F883A9F213497B
:10EDD0004FF0FF3E2EFA09F910EA090FF2D021A3F5
:10EDE000D3E9002317F06EFE0022002318F0ACFADE
:10EDF0000028DED0002C09DD142D2BD00127C5F111
:10EE0000340507FA05F5AE1928BFB844444626EA8A
:10EE1000090721463846BDE8F88312A3D3E9002349
:10EE200017F050FE0022002318F08EFA0028C0D000
:10EE3000002C0BDB54EA060706D00027084CB8E785
:10EE400017F040FEBDE8F8833C46B2E700274FF0DC
:10EE50000044AEE704F10108D8E700BFAFF300803B
:10EE60000000F03F9C7500883CE4377EFFFF0F00F8
:10EE70002DE9F041C1F30A57A7F2FF35132D0246E1
:10EE80000B460C46884606461CDC002D3FDB3A4FFD
:10EE90002F41864601EA070C5CEA0E0E17D034A318
:10EEA000D3E9002317F00EFE0022002318F04CFADD
:10EEB00020B1002C3FDB28EA07040026214630461B
:10EEC000BDE8F081332D06DDB5F5806F2FD01046FB
:10EED0001946BDE8F081A7F213474FF0FF3E2EFA26
:10EEE00007F73842F3D022A3D3E9002317F0EAFD55
:10EEF0000022002318F028FA0028DFD0002C20DBA5
:10EF0000444626EA070621463046BDE8F08118A3AC
:10EF1000D3E9002317F0D6FD0022002318F014FADD
:10EF20000028CBD0002C17DB00263446C6E717F0AC
:10EF3000C9FDBDE8F0814FF4801343FA05F5A844FC
:10EF4000B9E7142D10D00123C5F1340503FA05F5F6
:10EF5000AE1928BF9844D3E724F00042074B324350
:10EF600018BF1C460026A9E704F10108C8E700BF46
:10EF70009C7500883CE4377EFFFF0F000000F0BF67
:10EF80002DE9F04FD84B994287B0804689460E460E
:10EF900013DCD64B21F000449C4218DD0022D44BF8
:10EFA00018F0AAF9002879D0002200230020D149C6
:10EFB00018F064F807B0BDE8F08FCF4B99422FDD11
:10EFC00042464B4617F07EFD07B0BDE8F08FCB4BB5
:10EFD0009C4270DDCA4B1E449E427ED80022C94B23
:10EFE0004046494617F06EFD4FEA215AAAF2FF3A11
:10EFF000BAF1000F04460D460E4640F3DE8142464C
:10F000004B4617F05DFD02460B460020BD4917F048
:10F0100057FD22462B4618F031F8CDE902010BE0EE
:10F02000B94B9E42DADD9FED9A7B8DED027B4FEA74
:10F03000265A4446AAF2FF3AB44BC6F313069E4240
:10F0400046F07F5500F3E78045F4401520462946F9
:10F050000022AC4B17F034FD002204460D46AC4BA9
:10F0600017F0E2FE22462B4617F0DEFEA046CDE961
:10F070000401A946CDE90001002E3AD10022002367
:10F080002046294618F038F9002800F0CE80BAF161
:10F09000000F40F074810020002195E742464B4666
:10F0A0004046314617F00CFD02460B4617F0E6FFCE
:10F0B00007B0BDE8F08F0022964B17F003FD002249
:10F0C000002318F041F9002800F0CC80924B9C42BC
:10F0D00000F3C8804046494676E700228C4B17F083
:10F0E000A3FE42464B4617F09FFECDE900014FF0CC
:10F0F000000A00224FF080434046494617F0E2FCE8
:10F1000002460B464046494617F0B8FF02460B46FA
:10F1100006460F4617F088FE5FA3D3E90023044696
:10F120000D4617F081FE5EA3D3E9002317F0CAFC59
:10F1300022462B4617F078FE5BA3D3E9002317F095
:10F14000C1FC22462B4617F06FFE59A3D3E90023DA
:10F1500017F0B8FC22462B4617F066FE56A3D3E9FB
:10F16000002317F0AFFC22462B4617F05DFE54A398
:10F17000D3E9002317F0A6FC22462B4617F054FED5
:10F1800051A3D3E9002317F09DFC22462B4617F02C
:10F190004BFE04460D46BAF1000F00F0BF8050460A
:10F1A00017F0DCFD4AA3D3E9002382468B4617F013
:10F1B0003BFEDDE90023CDE904012046294617F096
:10F1C00081FC32463B4617F02FFE43A3D3E90023D0
:10F1D00004460D465046594617F026FEDDE9022347
:10F1E00017F070FC02460B462046294617F06AFCD1
:10F1F00002460B46DDE9000117F062FC42464B4631
:10F2000017F05EFC02460B46DDE9040117F058FCDE
:10F2100007B0BDE8F08F45F40015C6F5801620460E
:10F220002946B6100AF1010A12E72DA3D3E90023FB
:10F230002046294617F0F8FD02460B4600203149CA
:10F2400017F03EFCDDE9042317F0EEFD06460F46FD
:10F25000BAF1000F73D102460B462046294617F03B
:10F260002FFCB1E642464B464046494617F0DCFDCE
:10F270000022274B17F0D8FD02460B464046494670
:10F2800017F01EFC07B0BDE8F08F00BFAFF30080A1
:10F29000000000000000000044523EDF12F1C23FB7
:10F2A0009FC678D0099AC33FDE03CB966446C73F1A
:10F2B000AF788E1DC571CC3F599322942449D23F1B
:10F2C00004FA97999999D93F935555555555E53F66
:10F2D0000000E0FE422EE63F763C7935EF39EA3D0C
:10F2E000555555555555E53F7982DA3FFFFFEF3FBC
:10F2F0000000F0BF000050C3FFFFEF7FFFFF1F3E85
:10F300003C412D400000F03FFFFF3F439DA0060021
:10F310000000E03F00005043FFFF8F3CDDE9004567
:10F3200022462B4617F0CEFB32463B4617F07CFDBB
:10F3300002460B462046294617F0C2FB9CE7504682
:10F3400017F00CFD23A3D3E9002382468B4617F068
:10F350006BFD22A3D3E900238046894650465946D7
:10F3600017F062FDDDE9022317F0ACFB02460B4605
:10F370003046394617F0A4FB22462B46DCE75046C0
:10F3800017F0ECFC15A3D3E9002306460F4617F04F
:10F390004BFDDDE9022317F095FB0EA3D3E9002313
:10F3A00004460D463046394617F03EFD02460B46F0
:10F3B0002046294617F086FB06E60022044B17F08C
:10F3C0007FFB02460B464046494617F079FB20E694
:10F3D0000000F03F0000E0FE422EE63F763C79352B
:10F3E000EF39EA3D0000000008B518F01BFE04A349
:10F3F000D3E9002317F042FE08BD00BFAFF3008041
:10F40000EF39FAFE422EE63F2DE9F043DFF8B480F3
:10F410008BB004460D4601F0F3F898F90030013343
:10F4200006460F462BD022462B462046294617F08B
:10F4300095FF814618BB2046294618F06DFA1FA398
:10F44000D3E9002317F080FFC8B1194A98F90030BA
:10F45000CDF820900321CDE90445CDE902458DE8A2
:10F4600006008BB9134B4FF06042CDE90623684686
:10F4700019F0A4FF70B1089B9BB9DDE9066730461F
:10F4800039460BB0BDE8F0830B490020022BCDE9D3
:10F490000601ECD11AF010F922230360089B002B1F
:10F4A000EBD01AF009F9089B0360E6E7AFF30080A0
:10F4B00060B90208FFFFEF470000F07F7DF8B98FC9
:10F4C000CE338640060400202DE9F043DFF8E480C7
:10F4D0008BB004460D4601F043F998F90030013332
:10F4E00006460F4633D02046294619F061FF70B317
:10F4F0002CA3D3E900232046294617F025FF814697
:10F5000050BB2AA3D3E900232046294617F0FEFE6C
:10F51000E8B198F90030204ACDF820900026002765
:10F520000421022BCDE90445CDE90245CDE906676A
:10F530008DE8060029D0684619F040FF28B3089BE3
:10F540001BB11AF0B9F8089B0360DDE90667304685
:10F5500039460BB0BDE8F0830F4A98F900300192AC
:10F5600003210022CDE90445CDE90245009108922E
:10F570002BB90A4B4FF06042CDE90623DBE708497F
:10F580000020022BCDE90601D5D11AF095F82223EF
:10F590000360D4E7AFF3008068B90208FFFFEF47CC
:10F5A0000000F07FEF39FAFE422E864051302DD513
:10F5B000104987C0060400202DE9F04FDFF80C93B6
:10F5C0008DB006460F4614461D4601F0C5FC99F95C
:10F5D0000080B8F1FF3FCDE9000136D022462B462E
:10F5E0002046294617F0BAFE834670BB32463B469A
:10F5F0003046394617F0B2FE8246002840F0A2801D
:10F60000304639460022002317F076FE10B3002260
:10F6100000232046294617F06FFE834600286AD053
:10F620009FEDA17B0122A44BCDF828A00292CDE949
:10F630000467CDE906458DED087B0393B8F1000F13
:10F6400045D09FED9B7B8DED007BDDE900010DB08A
:10F65000BDE8F08FDDE9000119F0AAFE8046002820
:10F6600000F08D804FF0000A4FF0000BDDE9000143
:10F6700052465B4617F040FE0028E6D03046394639
:10F6800019F096FE0028E0D02046294619F090FE99
:10F690000028DAD099F90030874A03920421002229
:10F6A000022BCDE90467CDE90645CDE908AB02910F
:10F6B0000A9203D002A819F081FE68B919F0FCFF84
:10F6C0002223036008E09FED787B8DED087B02A884
:10F6D00019F074FE002830D00A9B1BB119F0ECFF22
:10F6E0000A9B03609DED087B8DED007BDDE9000149
:10F6F0000DB0BDE8F08F2046294619F059FE0028CC
:10F70000A3D0002200232046294617F0FFFD002841
:10F710009BD099F90030684ACDF828B00121CDE995
:10F720000467CDE9064502910392002BCBD06349D3
:10F730000020022BCDE90801C9D119F0BDFF21231A
:10F740000360C9E7002200232046294617F0D4FDB4
:10F7500000283FF47AAF5A4B5749CDF828B0002221
:10F760000120B8F1020FCDE904670290CDE906450A
:10F77000CDE908230391AAD1CDE9002365E73046FE
:10F78000394619F015FE00283FF46CAF2046294693
:10F7900019F00EFE00283FF465AFDDE900231046A6
:10F7A000194617F0DBFD00285FD1032399F900808B
:10F7B0000293414B0A90CDE90467CDE906450393D6
:10F7C000B8F1000F2BD1DFF808B14FF0604A0022EA
:10F7D000002330463946CDE908AB17F097FD0028E5
:10F7E0003FF468AF0022374B2046294617F01CFB38
:10F7F00004460D4619F0EAFD02460B46204629460E
:10F8000017F07AFD70BB304B99F900804FF06042E1
:10F81000CDE90823B8F1020F7FF44CAF4EE7DFF8D3
:10F82000B4B04FF0000A0022002330463946CDE93B
:10F8300008AB17F06BFD0028ECD00022214B2046CE
:10F84000294617F0F1FA04460D4619F0BFFD0246AD
:10F850000B462046294617F04FFD18B9174B0022DA
:10F86000CDE9082399F90080D4E799F90090124B6B
:10F87000CDF828800122CDE90467CDE90645029242
:10F880000393B9F1000F3FF41EAF0022002310468E
:10F89000194617F0F3FBB9F1020FCDE908013FF467
:10F8A0004CAF14E7AFF30080000000000000000040
:10F8B000000000000000F03F80B902080000F0FFE7
:10F8C0000000F03F0000E03FFFFFEFC7060400200C
:10F8D000FFFFEF470000F07F2DE9F84FC44E21F005
:10F8E0000043B34204460D460DDD03F1404303F5EA
:10F8F0008013034340F0B980002940F34081002089
:10F900000021BDE8F88FBB4EB34240F3A68000292A
:10F91000C0F2788102460B460020B74917F0D0F8B4
:10F920000022B64B17F080FA04460D4618F0B8FED8
:10F9300095A3D3E90023894680462946204617F03F
:10F9400073FA93A3D3E9002317F0BCF822462B46A1
:10F9500017F06AFA90A3D3E9002317F0B1F8224612
:10F960002B4617F061FA8EA3D3E9002317F0AAF80B
:10F9700022462B4617F058FA8BA3D3E9002317F041
:10F980009FF822462B4617F04FFA89A3D3E90023AC
:10F9900017F098F822462B4617F046FA86A3D3E9CB
:10F9A000002382468B462046294617F03DFA84A361
:10F9B000D3E9002317F084F822462B4617F034FAD7
:10F9C00081A3D3E9002317F07DF822462B4617F0D8
:10F9D0002BFA7FA3D3E9002317F072F822462B46B7
:10F9E00017F022FA0022844B17F06CF802460B46FF
:10F9F0005046594617F042FB42464B4617F014FA60
:10FA0000002682468B4632464B463046494617F022
:10FA10000BFA02460B462046294617F051F83246AB
:10FA200004460D464B464046494617F04BF8024601
:10FA30000B462046294617F021FB02460B4650464E
:10FA4000594617F03FF832464B4617F03BF802464E
:10FA50000B4617F037F8BDE8F88F694A93420EDC81
:10FA60005DA1D1E90001BDE8F88F02460B4617F011
:10FA700027F802460B4617F001FBBDE8F88F024657
:10FA80000B4617F0D1F940A3D3E9002306460F46F1
:10FA900017F0CAF93EA3D3E9002317F013F8324652
:10FAA0003B4617F0C1F93CA3D3E9002317F008F84F
:10FAB00032463B4617F0B8F939A3D3E9002317F0D3
:10FAC00001F832463B4617F0AFF937A3D3E90023DC
:10FAD00016F0F6FF32463B4617F0A6F934A3D3E9F9
:10FAE000002316F0EFFF32463B4617F09DF932A394
:10FAF000D3E90023804689463046394617F094F909
:10FB00002FA3D3E9002316F0DBFF32463B4617F064
:10FB10008BF92DA3D3E9002316F0D4FF32463B46E0
:10FB200017F082F92AA3D3E9002316F0C9FF324661
:10FB30003B4617F079F900222F4B16F0C3FF02461F
:10FB40000B464046494617F099FA22462B4617F0D5
:10FB50006BF902460B4622A1D1E9000116F0B0FF75
:10FB600002460B462046294616F0AAFF02460B46DF
:10FB700019A1D1E9000116F0A3FFBDE8F88F1AA181
:10FB8000D1E90001BDE8F88F09F7FD0DE13D023F25
:10FB900088B20175E0EF493F3B8F68B52882A43FEA
:10FBA0005544880E55C1C93F7D6FEB0312D6D43F33
:10FBB000555555555555C53F82922EB1C5B8B33FE1
:10FBC00059018D1B6C06E63FC88A599CE52A004006
:10FBD0004B2D8A1C273A0340182D4454FB21F93F32
:10FBE000075C143326A6913C182D4454FB21094090
:10FBF000FFFFEF3FFFFFDF3F0000F03F0000E03F6F
:10FC00000000603C00225C4B16F05CFF00225B4B66
:10FC100017F00AF940A3D3E9002304460D4617F074
:10FC200003F93FA3D3E9002316F04CFF22462B46ED
:10FC300017F0FAF83CA3D3E9002316F041FF22465F
:10FC40002B4617F0F1F83AA3D3E9002316F03AFF58
:10FC500022462B4617F0E8F837A3D3E9002316F025
:10FC60002FFF22462B4617F0DFF835A3D3E90023F8
:10FC700016F028FF22462B4617F0D6F88046894614
:10FC80002046294618F00CFD2FA3D3E90023064691
:10FC90000F462046294617F0C7F82DA3D3E90023C5
:10FCA00016F00EFF22462B4617F0BEF82AA3D3E922
:10FCB000002316F007FF22462B4617F0B5F828A3BD
:10FCC000D3E9002316F0FCFE22462B4617F0ACF8D1
:10FCD0000022294B16F0F6FE02460B4640464946E6
:10FCE00017F0CCF932463B4617F09EF81EA3D3E935
:10FCF000002316F0E5FE32463B4616F0E3FE0246D0
:10FD00000B4616F0DFFE02460B4619A1D1E90001B1
:10FD100016F0D6FEBDE8F88F09F7FD0DE13D023F74
:10FD200088B20175E0EF493F3B8F68B52882A43F58
:10FD30005544880E55C1C93F7D6FEB0312D6D43FA1
:10FD4000555555555555C53F82922EB1C5B8B33F4F
:10FD500059018D1B6C06E63FC88A599CE52A004074
:10FD60004B2D8A1C273A0340075C143326A6913C8E
:10FD7000182D4454FB2109400000F03F0000E03FF3
:10FD8000434A91422DE9F84304460D4639DD414A84
:10FD9000914209DD02F17952914240DD02460B4663
:10FDA00016F090FEBDE8F88301F1404202F58012A2
:10FDB000024330D0B1F1804F3ADC0022364B16F0CE
:10FDC0007FFE02460B4604460D4616F07BFE224699
:10FDD00006460F462B462046294617F025F80246D0
:10FDE0000B463046394616F06DFE18F059FC0B46AE
:10FDF00002462946204616F065FEBDE8F843FFF7A7
:10FE0000BFB802460B4616F05BFE02460B4617F0E3
:10FE100035F9BDE8F88300200021BDE8F88300F043
:10FE200017FE19A3D3E9002316F04CFEBDE8F883B2
:10FE300002460B4616F0F8FF0022174B16F040FE64
:10FE400018F02EFC2246804689462B46204629463D
:10FE500016F038FE424606460F464B4620462946D7
:10FE600016F030FE02460B4600200B4917F006F94B
:10FE70000B4602463946304616F022FEBDE8F843EE
:10FE800000F0E6BDAFF30080EF39FAFE422EE63F08
:10FE9000FFFFEF3FFFFFAF410000F03F0000000019
:10FEA0002DE9F047BE4B21F00048984584B0044648
:10FEB0000D4612DD08F1404808F58018034658EA5F
:10FEC000030321D002460B4616F0FAFD02460B460C
:10FED00017F0D4F804B0BDE8F087B24B98458A46D5
:10FEE00029DCB8F1795F80F2658191A3D3E9002321
:10FEF00016F0E8FD0022AC4B17F026FAD8B12046E8
:10FF0000294604B0BDE8F0878BA3D3E9002316F09F
:10FF10008BFF8BA3D3E9002306460F4620462946D4
:10FF200016F082FF02460B463046394616F0CAFDEF
:10FF300004B0BDE8F0872046294617F0EDFC0246E4
:10FF40000B460020984916F0BBFD0022974B16F097
:10FF50006BFF7DA3D3E9002304460D4616F064FF32
:10FF60007BA3D3E9002316F0ADFD22462B4616F005
:10FF70005BFF79A3D3E9002316F0A2FD22462B46AE
:10FF800016F052FF76A3D3E9002316F09BFD22461C
:10FF90002B4616F049FF74A3D3E9002316F090FD19
:10FFA00022462B4616F040FF71A3D3E9002316F03A
:10FFB00089FD22462B4616F037FF6FA3D3E90023B5
:10FFC000CDE900012046294616F02EFF6CA3D3E9A7
:10FFD000002316F075FD22462B4616F025FF6AA376
:10FFE000D3E9002316F06EFD22462B4616F01CFFC7
:10FFF00067A3D3E9002316F063FD22462B4616F0D3
:020000040801F1
:1000000013FF694B002216F05DFDCDE90201204689
:10001000294618F045FB664B984506460F4666DCB8
:10002000DDE90223DDE9000117F028F83246CDE9C9
:1000300000013B463046394616F044FD02460B4669
:10004000DDE9000116F0F0FE4FF00008CDE90001F7
:1000500042463B464046394616F0E6FE02460B460F
:100060002046294616F02CFD424604460D463B46E6
:100070003046394616F026FD02460B4620462946F4
:1000800016F0FCFF02460B4616F01CFD02460B461E
:100090002BA1D1E9000116F013FD02460B46DDE964
:1000A000000116F00DFD424604460D463B46404613
:1000B000394616F007FD02460B4637A1D1E900018B
:1000C00016F0FEFC02460B462046294616F0F8FCC8
:1000D00002460B4630A1D1E9000116F0F1FCBAF15D
:1000E000000F3FF7F7AE01F100431946F2E6DDE9F4
:1000F0000223DDE9000116F0C1FF32463B4616F04F
:1001000093FE32463B4616F0DDFC02460B4616F0E7
:10011000D9FC0BA3D3E9002316F0D2FC02460B4610
:1001200005A1D1E9000116F0CBFCD8E7AFF30080C0
:100130009C7500883CE4377E182D4454FB21F93F20
:10014000075C143326A6913C09F7FD0DE13D023F03
:1001500088B20175E0EF493F3B8F68B52882A43F24
:100160005544880E55C1C93F7D6FEB0312D6D43F6D
:10017000555555555555C53F82922EB1C5B8B33F1B
:1001800059018D1B6C06E63FC88A599CE52A004040
:100190004B2D8A1C273A0340182D4454FB21E93F7C
:1001A000FFFFEF3FFFFFDF3F0000F03F0000E03FB9
:1001B0003233EF3F02460B4616F036FE37A3D3E943
:1001C000002306460F4616F02FFE36A3D3E9002380
:1001D00016F078FC32463B4616F026FE33A3D3E9F0
:1001E000002316F06DFC32463B4616F01DFE31A38F
:1001F000D3E9002316F066FC32463B4616F014FEA7
:100200002EA3D3E9002316F05BFC32463B4616F0E2
:100210000BFE2CA3D3E9002316F054FC32463B46D8
:1002200016F002FE29A3D3E9002380468946304612
:10023000394616F0F9FD27A3D3E9002316F040FC58
:1002400032463B4616F0F0FD24A3D3E9002316F016
:1002500039FC32463B4616F0E7FD22A3D3E90023E2
:1002600016F02EFC32463B4616F0DEFD00220A4B0D
:1002700016F028FC02460B464046494616F0FEFEA4
:1002800022462B4616F0D0FD22462B4616F01AFCCD
:1002900004B0BDE8F08700BF0000F03F09F7FD0D96
:1002A000E13D023F88B20175E0EF493F3B8F68B501
:1002B0002882A43F5544880E55C1C93F7D6FEB038A
:1002C00012D6D43F555555555555C53F82922EB13E
:1002D000C5B8B33F59018D1B6C06E63FC88A599CCF
:1002E000E52A00404B2D8A1C273A034000000000FD
:1002F0002DE9F84F1D465342134325F0004ADFF81D
:10030000E0E14AEAD3737345144606460F4647D8E0
:10031000C0F1000848EA000821F0004343EAD87819
:10032000F0458B463CD805F1404808F5801858EA5E
:10033000020850D04FEAA57808F0020848EAD178C0
:1003400050EA030134D052EA0A023CD0F24557D0B9
:10035000734538D0A3EB0A031B153C2B42DC002D60
:1003600070DB22462B463046394616F087FE17F0E2
:10037000D3FAFEF751FBB8F1010F5FD0B8F1020FCD
:100380004ED0B8F1000F62D043A3D3E9002316F09A
:1003900097FB43A3D3E9002316F092FBBDE8F88F47
:1003A00032463B462046294616F08CFBBDE8F88FC6
:1003B000B8F1020F1AD0B8F1030F10D13AA1D1E968
:1003C0000001BDE8F88FBBF1000F14DB38A1D1E9C3
:1003D0000001BDE8F88FBDE8F84FFEF71DBB3946B8
:1003E000BDE8F88F32A1D1E90001C4E72CA1D1E921
:1003F0000001BDE8F88F30A1D1E90001BDE8F88F18
:10040000534526D0B8F1020FF0D0B8F1030FD5D084
:10041000B8F1010F4FF0000029D00021BDE8F88F9E
:100420001DA3D3E9002316F04BFB02460B461CA18B
:10043000D1E9000116F044FBBDE8F88F01F100415D
:10044000BDE8F88F3C338CDA0020002193E7BDE84B
:10045000F88FB8F1020F18D0B8F1030F10D0B8F12F
:10046000010F08D016A1D1E90001BDE8F88F4FF0C7
:100470000041BDE8F88F14A1D1E90001BDE8F88F73
:1004800013A1D1E90001BDE8F88F13A1D1E9000162
:10049000BDE8F88FAFF30080075C143326A6A13CBB
:1004A000182D4454FB210940182D4454FB2109C048
:1004B000182D4454FB21F93F182D4454FB21F9BF5A
:1004C000182D4454FB21E93F182D4454FB21E9BF6A
:1004D000D221337F7CD902C0D221337F7CD9024024
:1004E0000000F07F0000000043422DE9F047034385
:1004F00021F000463E4A46EAD373934204460D4635
:1005000013D896423DD03B4B9E428A4617DC36A319
:10051000D3E9002316F0D6FA0022002316F014FFC8
:10052000A8B320462946BDE8F08702460B4616F0E0
:10053000C7FA02460B4616F0A1FDBDE8F0872E4B28
:100540009E42354624DD33460246314616F0BAFA5D
:10055000224606460F462B460020254916F0B0FAE3
:1005600002460B463046394616F088FDFEF708FD78
:100570000022224B16F058FCBAF1000F2FDBBDE829
:10058000F0870022002316F079FDBDE8F08735469C
:1005900022462B462046294616F094FA22462B4640
:1005A00006460F4616F040FC2246804689462B46FA
:1005B00000200F4916F084FA02460B464046494691
:1005C00016F05CFD32463B4616F07CFAFEF7D8FC8E
:1005D00000220A4B16F028FCBAF1000FCFDA01F125
:1005E00000431946BDE8F0879C7500883CE4377EDF
:1005F0000000F03FFFFF2F3EFFFFDF3F0000E03F26
:100600002DE9F8434E4B21F000449C4206460F462C
:100610001BDC4C4B9C4222DD4B4B9C4263DD4B4B25
:100620009C427BDD4A4B9C4246DD01339C4240D0DC
:1006300041A3D3E900231046194616F0F5FB064600
:100640000F4630463946BDE8F88302460B4616F0A1
:10065000EBFB06460F4630463946BDE8F88317F0F7
:100660005BF902F0B1FC00223A4B8046894616F055
:1006700029FAB4F1725F06460F46ECDB42464B4660
:100680004046494616F0D0FB32463B4604460D46EE
:100690003046394616F016FA02460B4620462946E1
:1006A00016F0ECFC00222B4B16F00CFA06460F4617
:1006B000D1E7294B9842BBD83046394617F02CF980
:1006C0000022264B16F0B0FB00F04AF80022044648
:1006D0000D46224B16F0A8FB22462B4616F0A4FB33
:1006E00006460F46B7E717F017F900F039F8002271
:1006F0001A4B06460F4616F097FB32463B46044619
:100700000D460020154916F0B9FC02460B4620465E
:10071000294616F0D7F906460F469CE717F0FCF875
:1007200000F01EF800220D4B16F07EFB06460F4629
:1007300091E700BFAFF300809C7500883CE4377EF2
:10074000FFFFEF7F422ED63FFFFF3540412E864010
:10075000CD3386400000F03F7DF8B98F0000E03FC8
:100760002DE9F04FB04E21F00042B24283B0044672
:100770000D464FEAD1770DD9AC4EB24225D9C1F31F
:100780001303034340F0EC800FB10020002103B0BD
:10079000BDE8F08FA64B9A4200F2CB80A54B9A425F
:1007A00000F2DC808AA3D3E9002316F08BF9002243
:1007B000A14B16F0C9FD002800F00681204629460D
:1007C00000229D4B16F07EF9E1E783A3D3E90023D5
:1007D00016F0BAFD002840F0C88081A3D3E90023B9
:1007E0002046294616F092FD0028CED1934E7EA3D6
:1007F000D3E9002306EBC7062046294616F014FB72
:10080000D6E9002316F05EF916F0BEFD064616F096
:10081000A5FA77A3D3E900238046894616F004FBA6
:1008200002460B462046294616F04AF972A3D3E940
:100830000023CDE900014046494616F0F5FA82460C
:100840008B4652465B46DDE9000116F039F9044655
:100850000D4622462B462046294616F0E5FA68A3A7
:10086000D3E900238046894616F0DEFA66A3D3E971
:10087000002316F025F942464B4616F0D5FA64A33C
:10088000D3E9002316F01EF942464B4616F0CCFA87
:1008900061A3D3E9002316F013F942464B4616F044
:1008A000C3FA5FA3D3E9002316F00CF942464B4686
:1008B00016F0BAFA02460B462046294616F000F911
:1008C00080468946002E58D02046294642464B464F
:1008D00016F0AAFA424604460D464B4600204FF059
:1008E000804116F0EDF802460B462046294616F0E8
:1008F000C5FB02460B465046594616F0E1F8DDE9C5
:10090000002316F0DDF80B4602464B49002016F096
:10091000D7F86FF47F739E4251DA06F57A7601EBD1
:10092000065100224FF0B87316F07EFA03B0BDE80E
:10093000F08F434B9A423FF659AF424BFC002344A1
:10094000D3E9002316F0BCF83F4BC7F1010623445E
:10095000CDE90001D3E900ABF61B72E7002678E78A
:1009600002460B4616F0AEF811E719A3D3E90023AF
:100970001046194616F058FA09E702460B4620467B
:10098000294616F051FA002206460F464FF08043E2
:100990004046494616F094F802460B463046394622
:1009A00016F06CFB22462B4616F08AF802460B46E0
:1009B0000020214916F084F803B0BDE8F08F01EB68
:1009C000065103B0BDE8F08F064642E7AFF3008062
:1009D0009C7500883CE4377EEF39FAFE422E864053
:1009E00051302DD5104987C0FE822B654715F73F42
:1009F0000000E0FE422EE63F763C7935EF39EA3DD5
:100A0000D0A4BE726937663EF16BD2C541BDBB3E14
:100A10002CDE25AF6A56113F93BDBE166CC1663FF2
:100A20003E5555555555C53F412E8640FFFFEF7F3A
:100A3000422ED63FFFFF2F3E0000F03FA8A3020842
:100A4000B1A2F03FB8A30208C8A30208000000004A
:100A50002DE9F04FB1F5801F85B006460F460B46D5
:100A60005ADA024621F00044224300F0F8800029BF
:100A7000C0F27A810022D64B16F0D6F9D54A0B4641
:100A8000934206460F466FF0350C4ADCC3F313055C
:100A900005F5152E0EF6647E0EF4801E8EF07F5244
:100AA00082F440121C1542EA0507A4F2FF346444A4
:100AB0000022C94B3046394604EB1E5416F000F8AC
:100AC000AB1CC3F31303022B82468B464FF000028C
:100AD00030DC002316F010FC002800F0C980002C48
:100AE00000F04B81204616F039F9A5A3D3E9002385
:100AF00006460F4616F098F9A3A3D3E9002304464F
:100B00000D463046394616F08FF902460B46204610
:100B1000294615F0D7FF0AE0AE4A93424FF0000C89
:100B2000B4DD32463B463046394615F0CBFF05B0C2
:100B3000BDE8F08F4FF0804315F0C4FF02460B462E
:100B40005046594616F09AFA064620460F4616F0C9
:100B500005F93246CDE900013B4630463946CDE93C
:100B6000026716F061F902460B468046894616F088
:100B70005BF987A3D3E9002306460F4616F054F924
:100B800085A3D3E9002315F09DFF32463B4616F0BE
:100B90004BF983A3D3E9002315F094FF32463B467B
:100BA00016F042F980A3D3E9002315F08BFF4246EB
:100BB0004B4616F039F97EA3D3E9002380468946D7
:100BC0003046394616F030F97BA3D3E9002315F0FF
:100BD00079FF32463B4616F027F979A3D3E9002383
:100BE00015F070FF32463B4616F01EF90B460246E2
:100BF0004946404615F066FFA5F5C223C5F5D72541
:100C0000A3F27A4351351D43002D8046894656DDB7
:100C10000022724B5046594616F006F952465B4682
:100C200016F002F906460F46002C68D132463B46C4
:100C30004046494615F046FFDDE9022316F0F4F878
:100C400002460B463046394615F03AFF02460B463F
:100C50005046594615F034FF05B0BDE8F08F00222C
:100C6000002300205E4916F009FA05B0BDE8F08FB8
:100C700055A3D3E900235046594616F0D5F802464D
:100C80000B460020554915F01BFF524606460F46FD
:100C90005B465046594616F0C7F802460B463046AA
:100CA000394616F0C1F806460F46002C40F09A80EF
:100CB00002460B465046594615F002FF37E7002C16
:100CC00000F0A4802EA3D3E90023DDE9000116F093
:100CD000ABF842464B4604460D465046594615F081
:100CE000EFFEDDE9022316F09FF827A3D3E90023E6
:100CF00006460F46DDE9000116F096F821E020A334
:100D0000D3E90023DDE9000116F08EF832463B46B8
:100D100004460D464046494615F0D4FEDDE902235F
:100D200016F082F818A3D3E9002380468946DDE94E
:100D3000000116F079F802460B464046494615F088
:100D4000C1FE02460B463046394615F0B9FE524602
:100D50005B4615F0B5FE02460B462046294615F0C7
:100D6000AFFE05B0BDE8F08F02460B4615F0A8FEB9
:100D70000022002316F082F9D9E600200021D6E6F1
:100D80000000E0FE422EE63F763C7935EF39EA3D41
:100D900044523EDF12F1C23FDE03CB966446C73FAA
:100DA000599322942449D23F935555555555E53FC3
:100DB0009FC678D0099AC33FAF788E1DC571CC3FCE
:100DC00004FA97999999D93F555555555555D53F99
:100DD00000005043FFFFEF7F0000F03F0000E03FC6
:100DE000000050C3204615F0B9FF0FA3D3E900233C
:100DF0008046894616F018F80DA3D3E9002304466F
:100E00000D464046494616F00FF89AE702460B4653
:100E10005046594615F054FEDDE9022316F004F859
:100E200014E700BFAFF300800000E0FE422EE63F73
:100E3000763C7935EF39EA3DB1F5801F2DE9F8436D
:100E400004460D460B461ADA024621F000463243AC
:100E500059D000295FDB00223B4B15F0E5FF3B4AF0
:100E60000D462B46934204466FF035010CDD2246B9
:100E70002B462046294615F025FEBDE8F883334A67
:100E800093424FF00001F2DC1815A0F2FF30084445
:100E90004FEAD0794844C3F3130815F05FFFC9F552
:100EA0007F73033348EA035506460F46204629461A
:100EB000FFF7CEFD1EA3D3E90023804689463046C6
:100EC000394615F0B1FF1CA3D3E9002304460D46B3
:100ED0004046494615F0A8FF02460B4620462946E3
:100EE00015F0F0FD16A3D3E9002304460D46304665
:100EF000394615F099FF02460B462046294615F063
:100F0000E1FDBDE8F883002200230020104916F01F
:100F1000B5F8BDE8F88302460B4615F0D1FD002276
:100F2000002316F0ABF8BDE8F88300BFAFF30080F4
:100F3000362BF111F3FE593D0EE526157BCBDB3F39
:100F400000609F501344D33F00005043FFFFEF7FEA
:100F5000000050C3000000002DE9F04F23F00047CF
:100F600057EA020493B037D0674C21F00046A642FE
:100F700083460D4629DC9A46964625D0A74224DCB6
:100F8000614CA74279D0002D80468946CDE90023E7
:100F900077DB0024BEF1000F2CD15B4B9F4200F0A9
:100FA0008B805A4B9F4261D0BAF1804F00F0C383CF
:100FB000574B9A451ED1002D1CDB4046494613B0C5
:100FC000BDE8F04F17F06CBB58B106F1404606F58E
:100FD000801656EA0B0306D14C49002013B0BDE839
:100FE000F08FB742CCDD4B4813B0BDE8F04F18F09E
:100FF000E7B900244046494616F08EFCBBF1000FCD
:1010000019D126B1414B25F040429A4213D1BAF191
:10101000000FC0F2CA83002DE0DA06F1404606F563
:10102000801656EA040300F0A584012CD6D101F104
:1010300000431946D2E7ED0F013D54EA05034ED0B7
:10104000354B9F426EDD03F104739F4240F3FE83F4
:10105000324B9E424EDDBAF1000F4EDD28A3D3E99C
:1010600000231046194615F0DFFEB7E7BAF1000F6E
:10107000C0F2528440464946B0E7BEF1000F82D02C
:10108000A3E7274B9F4228DCA3F154739F4280DDE6
:101090003B15A3F2FF33142B40F35484C3F1340304
:1010A0002EFA03F202FA03F39E457FF472AF02F0C8
:1010B0000102C2F102046DE706F1404303F580131B
:1010C00053EA0B0388D0154B9E4240F33B83BAF1A1
:1010D000000F12DBDDE9000180E702245AE74246F7
:1010E0004B461046194615F0EBFC02460B4615F030
:1010F000C5FF73E7BAF1000FB0DB002000216DE7F8
:101100009C7500883CE4377E0000F07F0000F03FD3
:101110000000E03FC4B702080000E041FFFFEF3FDE
:10112000FFFF3F43B6F5801F4FF0000205DAD84BB2
:1011300015F07AFE6FF034020E463315D54FC6F324
:101140001306A3F2FF33134446F07F5ABE421A46F9
:101150000D934AF4401A40F32F83CF4B9E4240F345
:101160000D849FEDB57B8DED087B8DED0E7B9FEDA6
:10117000B47B13468DED067B01330D93AAF5801ADF
:101180000027DDE906235146CDE90A0115F098FC58
:10119000DDE9062380468946DDE90A0115F092FC67
:1011A00002460B460020BD4915F068FF0A4601467D
:1011B000CDE91012134649460246404615F034FE6A
:1011C0004FEA6A0343F000538C46834603F500233D
:1011D000CDE904BCDA468B46D9190023CDE902AB30
:1011E0000293DDE902AB002006460F4602460B469D
:1011F0005046594615F018FE02460B4640464946F1
:1012000015F05EFCDDE90623804689463046394606
:1012100015F056FC02460B46DDE90A0115F050FCBC
:1012200052465B4615F000FE02460B4640464946D4
:1012300015F046FCDDE9102315F0F6FDDDE9046745
:10124000CDE9060132463B463046394615F0ECFD05
:101250007DA3D3E9002306460F4615F0E5FD7CA3E8
:10126000D3E9002315F02EFC32463B4615F0DCFD99
:1012700079A3D3E9002315F025FC32463B4615F04F
:10128000D3FD77A3D3E9002315F01CFC32463B467F
:1012900015F0CAFD74A3D3E9002315F013FC324600
:1012A0003B4615F0C1FD72A3D3E9002315F00AFCFB
:1012B0003246804689463B463046394615F0B4FDF5
:1012C00002460B464046494615F0AEFD52460646DC
:1012D0000F465B46DDE9040115F0F4FBDDE906236A
:1012E00015F0A2FD32463B4615F0ECFB5246804617
:1012F00089465B465046594615F096FD0022684BDC
:10130000CDE90A0115F0DEFB42464B4615F0DAFB4B
:1013100002980F46064632463B465046594615F05F
:1013200083FD002282468B465D4B3046394615F0E0
:10133000C7FBDDE90A2315F0C3FB02460B46404616
:10134000494615F0BDFBDDE9042315F06DFD32467D
:10135000804689463B46DDE9060115F065FD0246FB
:101360000B464046494615F0ADFB8046894602468D
:101370000B4650465946CDE904AB15F0A3FBDDE919
:1013800002AB3DA3D3E9002350460F4615F04CFDB8
:10139000DDE90423CDE902013946504615F090FB02
:1013A00002460B464046494615F08AFB34A3D3E972
:1013B000002315F039FD34A3D3E900238046894684
:1013C0005046394615F030FD02460B464046494628
:1013D00015F078FBDDE90E2315F074FB80460D98BF
:1013E000894615F0BBFC424606460F464B46DDE9F2
:1013F000020115F067FBDDE9082315F063FB3246B7
:101400003B4615F05FFB32463B4650468B4615F097
:1014100057FBDDE9082315F053FBDDE9022315F046
:101420004FFB02460B464046494615F049FB8046B5
:10143000894637E0AFF300800000000000000000A4
:10144000000000000000F03FEF4E454A287ECA3FF2
:1014500065DBC9934A86CD3F01411DA96074D13F28
:101460004D268F515555D53FFFAB6FDBB66DDB3F3A
:10147000033333333333E33F000000E009C7EE3F6B
:10148000FD033ADC09C7EE3FF5015B14E02F3EBED9
:10149000000040438E98030079B60B000000F03F37
:1014A00000000840013C54EA050300F079819FEDFB
:1014B000C87B8DED047BDDE900120B461446CDE9B7
:1014C000023400230293DDE9024508462B4611460B
:1014D000224615F0F5FA52465B4615F0A5FCDDE90B
:1014E000002306460F464046494615F09DFC02463D
:1014F0000B463046394615F0E5FA224680468946C5
:101500002B4650465946CDE9008915F08DFC0B4617
:10151000024606460F464046494615F0D3FAC64BEA
:10152000994204460D468A4640F3168101F13F4335
:1015300003F5E003034340F0F781A7A3D3E90023B9
:10154000DDE9000115F0BEFA3246804689463B4689
:101550002046294615F0B4FA02460B464046494655
:1015600015F0F2FE002840F0DF81A8464FEA28532C
:101570004FF48012A3F2FE3342FA03F35344C3F351
:101580000A52AE4DA2F2FF321541C3F3130423EA0F
:1015900005010020C2F1140B44F48014BAF1000FCD
:1015A00002460B4644FA0BFB30463946B8BFCBF136
:1015B000000B15F085FA02460B4606460F46DDE99C
:1015C000000115F07FFA4FEA0B5A0D46002484A360
:1015D000D3E900232046294615F026FC32468046F2
:1015E00089463B462046294615F06AFA02460B46D4
:1015F000DDE9000115F064FA7BA3D3E9002315F0BF
:1016000013FC7BA3D3E9002306460F462046294658
:1016100015F00AFC02460B463046394615F052FAE0
:1016200006460F4602460B464046494615F04AFA22
:1016300042464B4604460D4615F042FA02460B461A
:101640003046394615F03CFA2246804689462B46FC
:101650002046294615F0E8FB67A3D3E90023064698
:101660000F4615F0E1FB66A3D3E9002315F028FA35
:1016700032463B4615F0D8FB63A3D3E9002315F0AF
:1016800021FA32463B4615F0CFFB61A3D3E9002394
:1016900015F016FA32463B4615F0C6FB5EA3D3E9B9
:1016A000002315F00FFA32463B4615F0BDFB02460B
:1016B0000B462046294615F003FA06460F46024619
:1016C0000B462046294615F0AFFB0022CDE900016C
:1016D0004FF080433046394615F0F2F902460B468A
:1016E000DDE9000115F0CAFC424606460F464B46AE
:1016F0002046294615F098FB42464B4615F0E2F984
:1017000002460B463046394615F0DAF922462B469A
:1017100015F0D6F902460B460020494915F0D0F9DC
:101720008A44BAF5801FC0F239815146DDE90423AD
:1017300015F07AFB52E442464B464046494615F0C6
:1017400073FB4BE4BAF1000FBFF6D7ACDDE9003410
:10175000184604F1004141E43A4B21F00048984515
:1017600040F3FF80384B0B4403430CD132463B46D9
:1017700015F0A6F902460B46DDE9000115F0D0FD93
:1017800000283FF4F3AEDDE9040125A3D3E90023EB
:1017900015F04AFB22A3D3E9002315F045FB1DE415
:1017A0009FED217B8DED047B85E602460B460020F4
:1017B000234915F063FC2EE49FED1D7B8DED087B26
:1017C0008DED0E7B9FED027B00278DED067BD8E42F
:1017D000000000000000F03FFE822B654715973C9B
:1017E00000000000432EE63FEF39FAFE422EE63FAE
:1017F000396CA80C615C20BED0A4BE726937663E0D
:10180000F16BD2C541BDBB3E2CDE25AF6A56113F00
:1018100093BDBE166CC1663F3E5555555555C53FE7
:1018200059F3F8C21F6EA501000000000000F0BFD0
:101830000000000000000000FFFF8F40FFFF0F00CE
:101840000000F03FFFCB904000346F3F684B9E425A
:101850007FF750AC674B9E423FF7FDAB0022654BD4
:1018600015F02EF952A3D3E9002306460F4615F0D2
:10187000DBFA51A3D3E90023804689463046394636
:1018800015F0D2FA002282468B465B4B3046394631
:1018900015F0CAFA02460B4649A1D1E9000115F03C
:1018A0000FF932463B4615F0BFFA02460B460020C0
:1018B000524915F005F93246CDE902013B46304662
:1018C000394615F0B1FA02460B46DDE9020115F082
:1018D000ABFA3DA3D3E9002315F0A6FA02460B4666
:1018E0005046594615F0ECF802460B4606460F46A0
:1018F0004046494615F0E6F842464B4600208246EF
:101900008B4615F0DDF802460B463046394615F099
:10191000D7F880468946C5E542464B460020354902
:1019200015F0ACFBFFF75ABBDDE9040128A3D3E9AE
:10193000002315F079FA26A3D3E9002315F074FAF1
:10194000FFF74CBBBEF1000F7FF453ABC3F11403A0
:1019500047FA03F202FA03F39F4223D07446FFF7DB
:1019600020BB264B98453FF701AEDDE902239246A6
:1019700093462BE602460B46FFF7B3BB9FED167B63
:101980008DED087B9FED167B8DED0E7B9FED167B1D
:101990004FF480278DED067BFFF7F3BB5A4601F02D
:1019A0004FFDC3E602F00102C2F10204FFF7F9BAEB
:1019B000000000604715F73F44DF5DF80BAE543E72
:1019C000555555555555D53FFE822B654715F73F63
:1019D0009C7500883CE4377E0000004003B8E23F7D
:1019E00006D0CF43EBFD4C3E000000000000F83F66
:1019F000FEFFEF3F0000F03F0000D03F0000E03F5F
:101A00002DE9F0479C4B21F000479F4290B0804663
:101A1000894640F38E80994B9F420C46924626DCC5
:101A200000298BA3D3E9002340F3B08115F048F8D7
:101A3000934B9F4204460D4600F0908086A3D3E965
:101A4000002315F03DF802460B46CAE90023204664
:101A5000294615F035F880A3D3E9002315F030F8B6
:101A60000125CAE90201284610B0BDE8F087854B80
:101A70009F4240F39080844B9F4265DC3D15A5F268
:101A80001645A7EB055319461F46064615F07CFC84
:101A900015F064F98046894642464B463046394641
:101AA000CDE90A8915F00CF80022784B15F0BCF945
:101AB0008946804615F068FC15F050F906460F4639
:101AC00032463B4640464946CDE90C6714F0F8FFE4
:101AD00000226E4B15F0A8F900220023CDE90E017B
:101AE00015F00AFC002800F06F81002330463946CB
:101AF000002215F001FC002814BF01230223644AD0
:101B0000019202212A4600910AA8514600F08CFB5E
:101B1000002C054614DADAF80420DAF80C3002F169
:101B2000004203F100434542CAF80420CAF80C30D1
:101B300006E000200021C2E90089C2E90201002577
:101B4000284610B0BDE8F08702460B4614F0B8FFF7
:101B50000025CAE90201CAE90001F1E740A3D3E97F
:101B6000002314F0ADFF40A3D3E900230D46044643
:101B700014F0A6FF02460B46CAE900232946204678
:101B800014F09EFF38A3D3E9002314F099FF012538
:101B9000CAE90201D4E715F0BFFE35A3D3E900235B
:101BA0008046894615F040F900223A4B14F08AFF2E
:101BB00015F0EAFB054615F0D1F825A3D3E900237B
:101BC000CDE9060115F030F902460B46404649467C
:101BD00014F076FF20A3D3E90023CDE90201DDE96B
:101BE000060115F021F91F2D80468946CDE90489AB
:101BF00054DC294B6A1E53F822309F424ED00246D5
:101C00000B46DDE9020114F05BFF80468946CAE914
:101C1000008942464B46DDE9020114F051FFDDE93F
:101C2000042314F04DFF002CCAE9020188DA09F1FF
:101C3000004401F100436D42CAF80080CAF8044034
:101C4000CAF80800CAF80C307AE700BFAFF300808A
:101C500000004054FB21F93F3163621A61B4D03D6A
:101C60000000601A61B4D03D7370032E8A19A33B43
:101C700083C8C96D305FE43FFB21E93F7BD9024057
:101C8000FB21F93FFB213941FFFFEF7F000070414D
:101C90001CBA02080000E03F9CB90208DDE90423F9
:101CA000DDE9020114F00CFF3F15C1F30A53FB1AE2
:101CB00080468946102BCAE90089AADD58A3D3E9DA
:101CC0000023DDE9060115F0AFF88046894602469B
:101CD0000B46DDE9020114F0F3FE02460B46DDE996
:101CE0000201CDE9082314F0EBFE42464B4614F006
:101CF000E7FE4DA3D3E9002380468946DDE90601CE
:101D000015F092F842464B4614F0DAFE0B46CDE948
:101D100004010246DDE9080114F0D2FEC1F30A53C2
:101D2000FF1A80468946312FCAE900896CDD41A33C
:101D3000D3E90023DDE9060115F076F8DDE908892D
:101D400006460F4602460B464046494614F0B8FE8A
:101D500002460B4640464946CDE9022314F0B0FE48
:101D600032463B4614F0ACFE34A3D3E900230646CA
:101D70000F46DDE9060115F057F832463B4614F0F0
:101D80009FFE02460B46CDE904233AE714F09AFE83
:101D9000274B9F4204460D4618D01FA3D3E90023CA
:101DA00014F090FE02460B46CAE90023294620465D
:101DB00014F086FE18A3D3E9002314F083FE4FF03D
:101DC000FF35CAE90201BBE6032398E614A3D3E971
:101DD000002314F077FE14A3D3E900230D46044634
:101DE00014F070FE02460B46CAE90023294620463D
:101DF00014F066FE0CA3D3E9002314F063FE4FF049
:101E0000FF35CAE902019BE69DED087B8DED027B63
:101E1000FFE600BFAFF300803163621A61B4D03DCA
:101E20000000601A61B4D03D7370032E8A19A33B81
:101E3000FB21F93F0000002E8A19A33BC149202550
:101E40009A837B3900000000594A2DE9F84F21F0B0
:101E50000048904506460F462BDC564B0029B4BF80
:101E6000554D564D98454FF0000410DC544B9845A5
:101E700070DC4DA3D3E9002314F024FE0022514B63
:101E800015F062FAD8B130463946BDE8F88F4E4BAE
:101E900098457CDD4D4B984544DD013398453ED057
:101EA0003046394640A3D3E9002314F0BDFFBDE816
:101EB000F88F02460B4614F005FEBDE8F88F304659
:101EC000394615F029FD01F07FF806460F463246E7
:101ED0003B463046394614F0F5FD324682468B4685
:101EE0003B463046394614F09FFF00228046894623
:101EF000344B3046394614F0E5FD02460B46404669
:101F0000494615F0BBF802460B465046594614F0B8
:101F1000D7FD22462B4614F087FFBDE8F88F2C4BE7
:101F20009842BDD83046394615F0F6FC0022234BC6
:101F300014F07AFFFEF714FC06460F4602460B46E5
:101F40002046294614F070FF32463B4614F06CFFE1
:101F5000BDE8F88F15F0E0FC01F036F81D4B984510
:101F600006460F46B3DD0022164B14F0ABFD0246C9
:101F70000B463046394615F081F832463B4614F0A0
:101F8000A1FD22462B4614F04FFFBDE8F88F15F057
:101F9000C3FCFEF7E5FB02460B462046294614F03B
:101FA00043FFBDE8F88F00BF3374AC3C1F7BAC7FB0
:101FB000FFFFEF7FFFFF35400000E0BF0000E03F84
:101FC000FFFF2F3E0000F03F412E8640CD3386407C
:101FD0007DF8B98FFFFFEF3F2DE9F04F21F000486A
:101FE000B8F1795F85B006460F4692469B466BDA9C
:101FF00015F0CAF9002800F0EA8032463B46304628
:10200000394614F011FF74A3D3E9002304460D46AA
:1020100014F00AFF72A3D3E9002314F053FD224603
:102020002B4614F001FF70A3D3E9002314F048FD00
:1020300022462B4614F0F8FE6DA3D3E9002314F0DA
:1020400041FD22462B4614F0EFFE6BA3D3E900239B
:1020500014F036FD22462B4614F0E6FE68A3D3E9C1
:10206000002314F02FFD22462B4614F0DDFECDE9AF
:1020700000010022664B2046294614F0D5FEDDE91A
:102080000023804689462046294614F0CDFE52465C
:1020900004460D465B463046394614F0C5FE0246FE
:1020A0000B462046294614F00BFD02460B464046DF
:1020B000494614F005FD02460B460020554914F030
:1020C000FFFC05B0BDE8F08F02460B4614F0ACFEF5
:1020D00041A3D3E9002304460D4614F0A5FE40A316
:1020E000D3E9002314F0EEFC22462B4614F09CFEAC
:1020F0003DA3D3E9002314F0E3FC22462B4614F061
:1021000093FE3BA3D3E9002314F0DCFC22462B46CC
:1021100014F08AFE38A3D3E9002314F0D1FC224640
:102120002B4614F081FE36A3D3E9002314F0CAFC39
:102130002B46224614F078FE374B9845CDE9000136
:1021400097DD364B984539DCA8F5001300220020B6
:1021500030499046994614F0B3FCCDE902010022C3
:102160002B4B2046294614F05FFE42464B4614F0A6
:10217000A7FCDDE90023804689462046294614F065
:1021800053FE524604460D465B463046394614F02F
:102190004BFE02460B462046294614F091FC0246AF
:1021A0000B464046494614F08BFC02460B46DDE9DF
:1021B000020114F085FC05B0BDE8F08F9FED127BA5
:1021C0004FF000088DED027BDFF85490C7E711490E
:1021D000002005B0BDE8F08FD43888BEE9FAA8BD6C
:1021E000C4B1B4BD9EEE213EAD529C804F7E923E66
:1021F0009015CB19A001FA3E7751C1166CC1563F1C
:102200004C5555555555A53F000000000000E73FCF
:102210000000E03F0000F03F3233D33F0000E93FD1
:102220000000D23F000000002DE9F04FADF51B7D0E
:102230009F4CA49E9F4D54F8264007942646D41EDA
:1022400085FB0475E417C4EBA50424EAE4741D4679
:102250000A93631CA3EB8303013D02EBC3030693C4
:102260002B460B940395651BF418049008911AD41F
:102270002C440026002701340DF18808DDF89492E3
:1022800008E059F8250014F069FD0135A542E8E899
:10229000020108D0002DF4DA013530463946A54256
:1022A000E8E80201F6D1079B002BC0F2DF83079B11
:1022B00003F1010B0A9B22A9DB001A4601EB03097B
:1022C0000093049B0DF5E47A19460AEBCB0B01EB66
:1022D0000208039B002BC0F2F582049C4D460026A9
:1022E000002775E90223F4E8020114F09DFD02467F
:1022F0000B463046394614F0E5FB444506460F468A
:10230000EFD1EAE80267DA4509F10809E1D1079956
:102310000098049C009101F18043013B9B00204404
:102320001A1F83460EA8024403440C920D93009A90
:102330009AA901EBC203002A53E9284529DD0DF5CE
:10234000E47A0AEBC2080DF1340900225A4B204608
:10235000294614F069FD15F017F814F0FFFC00226F
:10236000564B06460F4614F05FFD02460B462046CC
:10237000294614F0A5FB15F007F878E9022349F87F
:10238000040F3946304614F09DFBD04504460D46F7
:10239000DBD1DDF81890204629464A4601F050F876
:1023A00000224FF07F5304460D4614F03DFDFCF72C
:1023B0005FFD0022424B14F037FD02460B462046DB
:1023C000294614F07DFB0D46044614F0DDFF8046DF
:1023D00014F0C4FC0B4602462946204614F070FB5C
:1023E0004B46002B06460F4640F3F980009A0EA993
:1023F000013AC9F1180351F8225045FA03F101FAE4
:1024000003F30EA8EB1A40F82230C9F117058844EF
:1024100043FA05F5002D6DDD009B002B08F1010846
:1024200040F36F820E9C002C40F01683009B012B22
:1024300040F38F820EAA012352F8044F002C00F0C3
:102440008382581C0EAAC4F1807442F82340009A7B
:10245000824219DD0EAA0EAC52F820106FF07F42B6
:10246000511A44F820100099023399420CDD1046AD
:10247000009A0EA901EB830301EB82011A68821A0C
:1024800043F8042B8B42F9D1069B002B1ADD069BE7
:10249000012B4FF0010440F03C82009B5A1E0EAB12
:1024A0000EA953F82230C3F3160341F822303CE260
:1024B000BCBE0208ABAAAA2A0000703E0000704110
:1024C00000002040022D15D132463B4600209249A3
:1024D00014F0F6FA06460F46069A8F49002000F0DF
:1024E000AFFF02460B463046394614F0E9FA0225A2
:1024F00006460F46002200233046394614F0FCFE03
:10250000002800F03782009A079B501E83420FDCA0
:1025100002F18043013B0EAA0D9C02EB83030022D3
:1025200053F80419A34242EA0102F9D1002A67D103
:10253000079B0EAA013B52F82330002B40F0188273
:102540000C9A012352F8041901330029FAD0009A99
:10255000D31802F1010A9A4509933DDC009B0A99C0
:102560000B9A0B4409990AEB0208994622AB08F131
:10257000804803EBC9098B18A59A08F1FF3802EBD4
:10258000880872AA02EBCA0AA59A02EB8303009399
:1025900058F8040F14F0E2FB039B002BE9E802015A
:1025A0004FF000064FF0000711DB049C4D4675E923
:1025B0000223F4E8020114F037FC02460B463046D1
:1025C000394614F07FFA5C4506460F46EFD1009B72
:1025D0009845EAE80267DBD1099B0093A7E606D19C
:1025E000009B0EAA013B52F82350ED1512E7002282
:1025F0004A4B14F09FFE002840F06E81054679E7B3
:102600000EA9039551F820300699CDF82480183989
:102610000246009006916BB900F18043013B0EA881
:1026200000EB830353F80409013A18390028F9D064
:1026300000920691069A3849002000F001FF009BA5
:10264000002B04460D46C0F2F781DA0072A901EBB7
:10265000020B06920EAA02EB8306DFF8C4904FF03D
:1026600000080BF10807043656F8040D14F076FB49
:1026700022462B4614F0D8FB4B4667E9020142463E
:102680002046294614F0D0FB0EAB9E4204460D4670
:10269000EAD14AACDDF81C9004944FF0000AB9F17D
:1026A000000FC0F22B81DFF87C805D4618A1D1E9D4
:1026B000000100260027002403E0544510DCF8E860
:1026C0000201F5E8022314F0AFFB02460B46304648
:1026D000394614F0F7F90134A14506460F46ECDA05
:1026E000049B03EBCA03ABF1080BC3E9006770ABB3
:1026F0009B450AF1010AD2D1A49B049C032B00F252
:102700008980DFE803F0C58E8E1100BFAFF3008033
:1027100000000040FB21F93F0000F03F0000E03FD7
:102720000000703EF0A30208009B002B40F3818163
:10273000069A04EB020ADAE9008902F10805254449
:102740000DF5987B1AED027B42464B4651EC170B78
:102750008DED047B14F0B6F906460F4602460B4693
:10276000DDE9040114F0ACF942464B4614F0AAF935
:1027700065E902015D45B046B9466AE90267E1D103
:10278000009B012B40F35581069BE518D5E9008994
:1027900003F1080B04EB0B0A15ED027B42464B4696
:1027A00051EC170B8DED007B14F08CF906460F46AB
:1027B00002460B46DDE9000114F082F94B46424621
:1027C00014F080F96AE902014EAB5345B046B946B0
:1027D00065E90267E0D10020002104EB0B0575E9F3
:1027E000022314F06FF9AA45F9D1039B002B00F0E6
:1027F0000A816268E368089F2568A4683D6002F169
:10280000004203F1004301F100417A60FB60BC60CB
:1028100038617961099B03F007000DF51B7DBDE868
:10282000F08F069D083525440020002175E902231C
:1028300014F048F9A542F9D1039B002B00F0D28097
:10284000089E024601F1004386E80C000B46024652
:10285000D4E9000114F034F9009B002B0BDD4CADE2
:102860000124F5E8022314F02DF9009B0134A34262
:10287000F7DA039B13B101F100431946089BC3E942
:102880000201099B03F007000DF51B7DBDE8F08FE9
:10289000069D083500200021254475E9022314F027
:1028A00011F9AC42F9D1039B13B101F10043194670
:1028B000089BC3E90001099B03F007000DF51B7D90
:1028C000BDE8F08F00260027EAE80267DA4509F143
:1028D00008097FF4FEAC1AE5009B002B08F1010803
:1028E000C8BF02253FF79EAD32463B4600206149F6
:1028F00014F0E6F8022506460F46FBE50026002701
:10290000EEE6069B002B27DD0024069B012B3FF4FF
:10291000C4AD022B09D1009B5A1E0EAB0EA953F871
:102920002230C3F3150341F82230022D7FF4E2ADCB
:1029300032463B4600204F4914F0C2F806460F4687
:10294000002C3FF4D7ADC7E50099013399427FF4DD
:1029500073AD069B002BD8DC022D7FF4CBAD324645
:102960003B460020434914F0ABF806460F46C1E54C
:102970000123ECE53946069F03957A423046CDF8AF
:10298000248000F05DFD00223B4B04460D4614F010
:10299000D1FC002843D00022384B2046294614F0B1
:1029A00043FA14F0F1FC064614F0D8F90022324B39
:1029B00014F03AFA02460B462046294614F080F8F5
:1029C00014F0E2FC00990B4601331A4600933B4693
:1029D000183306930B460EA941F82300134641F81D
:1029E000236027E6089B0246C3E900010B46D4E9B1
:1029F000000114F065F8009B002B3FF730AF089BF7
:102A0000C3E902013DE7D4E90067D4E90223089D48
:102A1000C5E90401C5E90067C5E90223FAE62946CC
:102A2000204614F0B1FC009A0EA941F8220001E6FC
:102A30004AAC00200021D8E6A49B032B3FF6EAAE67
:102A400001A252F823F000BF672A01085F2A01089B
:102A50005F2A0108312A010801200023F2E4002046
:102A600000214AACE8E6002000211CE70A9BDB00BD
:102A700000934CE40000F03F000070410000703E05
:102A80002DE9F04F21F00046B6F1795F85B004469C
:102A90000D469046994604DA14F076FC002800F0C2
:102AA000858022462B462046294614F0BDF906466D
:102AB0000F4602460B462046294614F0B5F941A3BD
:102AC000D3E9002382468B463046394614F0ACF9F0
:102AD0003EA3D3E9002313F0F3FF32463B4614F044
:102AE000A3F93CA3D3E9002313F0ECFF32463B46A5
:102AF00014F09AF939A3D3E9002313F0E1FF324629
:102B00003B4614F091F937A3D3E9002313F0DAFF21
:102B10000E9BCDE900019BB30022294B404649465C
:102B200014F082F9DDE90023CDE90201504659464F
:102B300014F07AF902460B46DDE9020113F0C0FFFA
:102B400032463B4614F070F942464B4613F0B8FF4C
:102B500019A3D3E9002306460F465046594614F000
:102B600063F902460B463046394613F0ABFF024686
:102B70000B462046294613F0A3FF05B0BDE8F08FB1
:102B800002460B463046394614F04EF90AA3D3E903
:102B9000002313F095FF52465B4614F045F9224698
:102BA0002B4613F08FFF05B0BDE8F08F2046294675
:102BB00005B0BDE8F08F00BF495555555555C53F87
:102BC0000000E03F7CD5CF5A3AD9E53DEB9C2B8AFB
:102BD000E6E55A3E7DFEB157E31DC73ED561C119FA
:102BE000A0012A3FA6F810111111813F000000003A
:102BF0002DE9F04FBE4C21F0004687B0A642824638
:102C00008B460F46CDE900231BDC14F0BDFB0028EA
:102C100037D153461E43109B0133334300F0B38139
:102C2000109B012B00F0C88152465B460020B14941
:102C300014F024FA04460D462046294607B0BDE8A4
:102C4000F08FAD4B9E421CDD0029C0F2A981524697
:102C50005B4687A1D1E9000113F032FFDDE90023D3
:102C600004460D4684A1D1E9000113F029FF9FED30
:102C7000847B22462B468DED007B13F023FF82469A
:102C80008B4652465B465046594614F0CDF80246F4
:102C90000B468046894614F0C7F8424604460D4666
:102CA0004B465046594614F0BFF877A3D3E90023AA
:102CB000CDE902012046294614F0B6F874A3D3E901
:102CC000002313F0FFFE22462B4614F0ADF872A34A
:102CD000D3E9002313F0F6FE22462B4614F0A4F8A5
:102CE0006FA3D3E9002313F0EDFE22462B4614F028
:102CF0009BF86DA3D3E9002313F0E4FE22462B4694
:102D000014F092F86AA3D3E9002313F0DBFE4246E5
:102D10004B4614F089F868A3D3E90023CDE90401F8
:102D20002046294614F080F865A3D3E9002313F068
:102D3000C9FE22462B4614F077F863A3D3E900239B
:102D400013F0C0FE22462B4614F06EF860A3D3E9C0
:102D5000002313F0B7FE22462B4614F065F85EA35D
:102D6000D3E9002313F0AEFE22462B4614F05CF8A4
:102D70005BA3D3E9002313F0A5FE02460B46DDE971
:102D8000040113F09FFEDDE9022314F04DF8DDE9A4
:102D9000004522462B4613F095FE42464B4614F062
:102DA00043F802460B462046294613F08BFE4EA3FD
:102DB000D3E9002304460D46DDE9020114F034F89E
:102DC00022462B4613F07EFE0B460246804689467D
:102DD0005046594613F076FE474B9E4204460D4638
:102DE00000F38E80109B012B3BD002460B46002047
:102DF000404914F043F9002406460F462046294670
:102E000052465B46CDE90067CDE90201009413F01C
:102E100057FEDDE900AB02460B464046494613F03B
:102E20004FFE52465B4613F0FFFF524604460D46E6
:102E30005B46DDE9020113F0F7FF00222F4B13F090
:102E400041FE02460B462046294613F03BFE324621
:102E50003B4613F0E9FF52465B4613F033FE04464F
:102E60000D462046294607B0BDE8F08FAFF300803D
:102E7000182D4454FB21E93F075C143326A6813CFE
:102E80000000000000000000D47ABF74702AFB3EEE
:102E9000E9A7F0320FB8123F68108D1AF726303FBD
:102EA0001583E0FEC8DB573F93846EE9E326823F3B
:102EB000FE41B31BBAA1AB3F735360DBCB75F3BECE
:102EC000A69237A0887E143F0165F2F2D844433FB2
:102ED000280356C9226D6D3F37D60684F464963FA9
:102EE0007AFE10111111C13F635555555555D53F07
:102EF000FFFF2F3E0000F0BF2794E53F0000F03FAA
:102F0000109813F02BFF2246CDE900012B462046F6
:102F1000294613F089FFDDE90023CDE902012046AF
:102F2000294613F0CFFD02460B46DDE9020114F0FD
:102F3000A5F842464B4613F0C3FD02460B465046E9
:102F4000594613F0BDFD02460B4613F0BBFD024689
:102F50000B46DDE9000113F0B3FD0446B81700F09D
:102F60000200C0F101000D4613F0F8FE02460B46C8
:102F70002046294613F058FF04460D4620462946B0
:102F800007B0BDE8F08F5046594614F0C5FC024624
:102F90000B4600200A4914F071F804460D4660E71C
:102FA000DDE9004501F10041224605F1004382467A
:102FB0008B46CDE900234AE654465D4651E700BF03
:102FC0000000F03F000000002DE9F04FD24A21F050
:102FD0000043934285B082468B460C462DD9CF4A9A
:102FE00093421AD8002C80F21681B5A3D3E90023AE
:102FF0005046594613F066FD0022002314F086F96E
:10300000C0B9B1A3D3E900235046594613F00CFFD1
:1030100002460B460020C24908E1C24A934240F2F0
:10302000D0800346C1F31302134340F0F48100291A
:1030300080F2C4800020BC49C0E0BC4A934200F248
:103040002981BB4A934240F2DE8000230193002293
:10305000B84B5046594613F0E7FE06460F46024667
:103060000B465046594613F0DFFE99A3D3E90023DF
:1030700004460D4613F0D8FE97A3D3E9002313F0BE
:1030800021FD22462B4613F0CFFE95A3D3E9002362
:1030900013F016FD22462B4613F0C6FE92A3D3E989
:1030A000002313F00FFD22462B4613F0BDFE90A324
:1030B000D3E9002313F004FD22462B4613F0B4FE9F
:1030C00000229D4B13F0FEFC8046894602460B46CB
:1030D0003046394613F0A8FE02460B4600209749B9
:1030E00013F0EEFC064602460B460F4640464946A4
:1030F00013F0E6FC3246804689463B465046594628
:1031000013F092FE02460B4600208D4913F0D8FCC6
:1031100002460B464046494613F0B0FF22462B4676
:1031200013F082FE019E02460B46002E38D0DDE9E8
:10313000026732463B4613F0C3FC52465B4613F02F
:1031400073FE32463B4613F0BBFC2B46224613F07F
:10315000B7FC019B013306460F4600F00F81019B2F
:10316000012B00F0F180019B0133392B39D8019BF1
:10317000132B40F31281019CC4F57F7503350022A7
:103180002B0513F09FFC02460B465046594613F0A0
:1031900097FC0022684B13F095FC01EB04510DE005
:1031A0005046594613F040FE22462B4613F088FC49
:1031B00002460B465046594613F082FC05B0BDE866
:1031C000F08F4DA3D3E9002314F0BEF800283FF49C
:1031D00009AF4BA3D3E900231046194613F024FE90
:1031E000ECE752465B4613F06BFC02460B460020B0
:1031F000514913F065FC019A4F4B01EB025100223B
:1032000013F05EFCDAE73EA3D3E9002313F05AFC87
:1032100002460B46CAE72CA3D3E900235046594681
:1032200013F002FE0B4643490246002013F04AFC0D
:1032300014F0AAF8019013F091FD33A3D3E9002311
:1032400006460F4613F0F0FD02460B46504659461F
:1032500013F036FC2EA3D3E900238046894630467E
:10326000394613F0E1FD06460F4632463B464046DE
:10327000494613F025FC02460B4682468B464046E3
:10328000494613F01DFC32463B4613F019FCCDE9CC
:103290000201DCE62B4A934200F2958000291AA332
:1032A000D3E90023C0F2AC8013F00AFC012380466E
:1032B0008946019316A7D7E90067D6E7AFF30080E8
:1032C00059F3F8C21F6EA501FE822B654715F73F23
:1032D0002DC3096EB7FD8ABE3952E686CACFD03EED
:1032E000B7DBAA9E19CE143F8555FE19A0015A3F9F
:1032F000F41011111111A13FEF39FAFE422E864050
:103300009C7500883CE4377E0000E0FE422EE63FDC
:10331000763C7935EF39EA3D79684340412E864065
:103320000000E0BFFFFFEF7F0000F0BF422ED63F5E
:10333000FFFF8F3C0000E03F0000F03F000008402E
:1033400000001840B1A2F03F0022394B50465946C8
:1033500013F0DCFF002844D0504659460022354B7C
:1033600013F0B0FB02460B463046394613F0A8FB7B
:1033700000224FF0404313F057FD1FE702460B4673
:103380005046594613F09CFB00222A4B13F04CFD8B
:103390000022284B13F094FB10E7019C4FF400131C
:1033A0002341C3F17F5752465B4613F089FB002649
:1033B00007F5401702460B463046394613F080FBAE
:1033C00001EB0451FAE616A3D3E9002313F02CFD18
:1033D000002C02460B464FF00000FFF61CAE1549CC
:1033E00024E732463B465046594613F069FB0246F5
:1033F0000B4613F067FB00220F4B13F063FBDDE677
:1034000013F060FB4FF0FF3380468946019306A717
:10341000D7E9006729E702460B4613F053FBCDE6D8
:10342000FE822B654715F73F763C7935EF39EABDCB
:103430000000D0BF0000E03F0000F03F00000000AF
:10344000F8B5C1F30A5604460D460B4617460EBBA7
:1034500021F000430343864625D00022344B13F06D
:10346000E3FC344A974204460D460B462ADBC1F37F
:103470000A56363E3E4440F2FE72964228DC002E4A
:1034800012DD23F0FF4323F4E00343EA0655204610
:103490002946F8BD40F2FF729642EBD102460B4638
:1034A00013F010FBF8BDF8BD16F1350F1DDA4CF224
:1034B00050339F4222462B4625DC19A1D1E9000159
:1034C00016F0ECF816A3D3E9002313F0ADFCF8BD19
:1034D00022462B4614A1D1E9000116F0DFF812A311
:1034E000D3E9002313F0A0FCF8BD23F0FF4323F43D
:1034F000E003363643EA06552046294600220E4BA5
:1035000013F092FCF8BD08A1D1E9000116F0C6F84D
:1035100005A3D3E9002313F087FCF8BDAFF30080C7
:1035200059F3F8C21F6EA5019C7500883CE4377EF4
:1035300000005043B03CFFFF0000903C10B5054C2C
:10354000237833B9044B13B10448AFF3008001234F
:10355000237010BDA8040020000000007CC00208F9
:103560000C4B43B10C480D4910B5AFF300800C482B
:10357000036823B910BD0A48036833B97047094B83
:10358000002BF7D0BDE810401847064B002BF5D0B4
:10359000184700BF000000007CC00208AC040020F7
:1035A0001C04002000000000154B002B08BF134B2B
:1035B0009D46A3F5803A00218B460F461348144AD6
:1035C000121A06F01BFD0F4B002B00D098470E4B34
:1035D000002B00D098470020002104000D000D486A
:1035E000002802D00C480EF0CDF916F0C5F92000E5
:1035F00029000EF0A7F90EF0C1F900BF0000080085
:10360000008002200000000035190208200400207C
:10361000C03200208519020800000000F0B5214DDD
:103620002C6883B014B1204603B0F0BD4FF49C70F9
:103630000EF0AAF94FF0FF310646032001F042FCDC
:1036400000B204F079F84FF0FF310746022001F094
:1036500039FC00B204F070F83946024606F1DC0786
:1036600030460AF043FF23462246384601210AF03D
:10367000D9FD4FF0FF31012001F024FC00B204F02D
:103680005BF898244FF0050E02468DE810403B464B
:10369000314606F1E40007F0E3FE344620462E6092
:1036A00003B0F0BDC40400202DE9F04104460F46EC
:1036B000FFF7B4FF00F1E4050646284607F0EEFEEA
:1036C000082C0BD0A4F10903012B15D93A46214649
:1036D00010230D20BDE8F04103F012BFD6F8E4300E
:1036E00028469B6A98470228F0DCD6F8E430284642
:1036F0005B6A04219847E9E7D6F8E43028469B6ADC
:1037000098470528E2DCD6F8E43028465B6A0821B1
:103710009847DBE710B52DED028BFFF77FFF00F137
:10372000E404204609F0FAFB07EE900A2046F8EE82
:10373000E78A09F001FC07EE900A2046B8EEE78A16
:1037400009F008FC68EE087A07EE100AE8EEA87A9D
:10375000B8EEC77AE7EE077AF5EE407AF1EE10FAA6
:10376000B1EEE78A03D517EE900A14F021FEFDEEC4
:10377000C87ABDEC028B17EE900A10BD08B503287D
:103780001CD8DFE800F0140D0602BDE80840FFF782
:10379000C1BFFFF743FFBDE80840E43009F0DABBE2
:1037A000FFF73CFFBDE80840E43009F0C5BBFFF778
:1037B00035FFBDE80840E43009F0B0BB002008BD8B
:1037C00008B550B1012806D1FFF728FFBDE8084031
:1037D000E430FBF765B8002008BDFFF71FFFBDE828
:1037E0000840E430FBF73CB810B50446FFF716FF7D
:1037F0002146E430BDE8104009F0A8B908B501F051
:1038000089FCFBF7F1FDBDE8084001F0EDB900BF10
:1038100008B501F07FFCFBF757FEBDE8084001F05A
:10382000E3B900BF08B501F075FC14F0EBF8BDE892
:10383000084001F0D9B900BF08B501F06BFC14F0E5
:10384000F3FCBDE8084001F0CFB900BF08B501F0B6
:1038500061FCFBF7D9FDBDE8084001F0C5B900BF28
:1038600008B501F057FC14F00BFBBDE8084001F06F
:10387000BBB900BF08B501F04DFCFBF731F8BDE85E
:10388000084001F0B1B900BF08B501F043FC14F0E5
:103890004BFABDE8084001F0A7B900BF70B5049E1F
:1038A00096420C4628DB15466BB1002A00EB02015C
:1038B00007DD2046A21811F8013D00F8013B9042B7
:1038C000F9D1002070BD042A0FD0022A02D110F0D5
:1038D000010306D001462A46204605F0ABF9002038
:1038E00070BD02880A80184670BD10F00303F1D144
:1038F00002680A60184670BD0846002106F07EFB8B
:103900004FF0FF3070BD00BF0830704740B1002954
:1039100005DB4368994202DA0844007A70470020C8
:10392000704700BF30B1002904DB43689942BCBF37
:1039300040180272704700BF40B1002905DB4368A0
:10394000994202DA0844007A70470020704700BFAD
:10395000830705D120B1030F0CBF01200020704761
:103960000120704730B1002904DB43689942BCBF95
:1039700040180272704700BF002B23DB002921DBB7
:1039800070B54668B1421ADC5568761A1446EA1AD0
:10399000B242A8BF3246002A11DB84420D4607D04E
:1039A000083408300844E11805F044F9002070BDDF
:1039B0000834E118601916F04CF9002070BD4FF082
:1039C000FF3070BD4FF0FF30704700BF4068704758
:1039D00010B4141E10DB426894420DDC33EA23035A
:1039E00028BF1346121B08309A422044A8BF1A462B
:1039F0005DF8044B06F002BB5DF8044B704700BF56
:103A000043688B4210B400F108041846A8BF08466A
:103A100032EA220128BF19461B1A99422044A8BF46
:103A200019465DF8044B00F0E3BE00BF002BBCBF9D
:103A300043689B1A002A70B50E4620DB446899182B
:103A4000A1421CDC8A421ADCCBB136F0004116D010
:103A500059428E4214DDB34212DD0830002E00EBD5
:103A6000020515DB9C1B2246A919284616F0F1F821
:103A7000324628190021BDE8704006F0BFBA70BD7B
:103A8000002211464FF0FF33BDE87040FFF7A0BFA2
:103A900074429A192946281916F0DBF8224628465E
:103AA0000021BDE8704006F0A9BA00BF0346083007
:103AB000596800F01DBE00BF70B504460020616863
:103AC000490000F097FD6668002E11DD094D04F1F4
