:020000040800F2
:10E0000000800220753502088D9702088D9702085E
:10E010008D9702088D9702088D9702080000000076
:10E0200000000000000000000000000099F101085D
:10E030008D970208000000003FF201089FF20108DE
:10E040008D9702088D9702088D9702088D97020818
:10E050008D9702088D9702088D9702088D97020808
:10E060008D9702088D9702088D9702088D970208F8
:10E070008D9702088D9702088D9702088D970208E8
:10E080008D9702088D9702088D970208A502020855
:10E09000910102088D970208A90202088D970208D3
:10E0A0008D9702088D9702088D9702088D970208B8
:10E0B0008D9702088D970208000000008D970208D6
:10E0C0008D9702088D9702088D9702088D97020898
:10E0D0008D9702088D9702088D9702088D97020888
:10E0E0008D9702088D9702080000000000000000D4
:10E0F0000000000000000000000000000000000020
:10E10000000000008D970208000000008D970208B3
:10E110008D970208000000008D97020800000000A3
:10E120008D9702088D9702088D9702088D97020837
:10E130008D9702088D9702088D9702080000000055
:10E140008D9702088D9702088D9702088D97020817
:10E150008D9702088D9702088D9702088D97020807
:10E160008D9702088D9702088D9702080000000025
:10E17000000000008D970208000000000000000071
:10E180008D9702088D9702088D9702088D970208D7
:10E190008D970208000000002DE9F04F85B0039133
:10E1A0000778A7F10903042B044607F07F0200F16A
:10E1B0000100F5D9202AF3D02B2F04BF677804463D
:10E1C0002D2F75D09FED427B8DED007B4FF0000829
:10E1D0004FF000099FB34FF0000C25464FF0000AA6
:10E1E000DFF8FCB0644619E018F080FC80468946F0
:10E1F000304618F011FC42464B4618F0C1FA524620
:10E20000804689465B46DDE900013CB318F098FD85
:10E21000CDE90001A44615F8017F7FB1A7F13006D2
:10E22000092E52465B4640464946DDD9CCB92E2FD1
:10E2300017D115F8017F0124002FEFD12C4642465B
:10E240004B46DDE9000118F051FC80468946039BEE
:10E25000404649461C6005B0BDE8F08F4FF0010C08
:10E26000D9E72C46BCF1000F29D042464B46DDE9E8
:10E27000000118F03BFC07F0DF07452F8046894678
:10E28000E5D10399681C0A221BF082F91449024661
:10E29000002018F08BFF02460B464046494618F016
:10E2A00025FC804689464046494605B0BDE8F08FCA
:10E2B0009FED097B67788DED007B013486E7DFF801
:10E2C00024904FF000084046494605B0BDE8F08F65
:10E2D000000000000000F03F000000000000F0BF60
:10E2E000000024400000F87F2DE9F0470023144689
:10E2F00000228046894618F06BFE28B109F10043E0
:10E3000099462D23237001340022002340464946BC
:10E3100018F054FE28B13022002322706370BDE84B
:10E32000F0874046494619F041FD18F08FFE73A36F
:10E33000D3E9002307464946404618F049FE002825
:10E340004ED170A3D3E900234046494618F05EFE43
:10E35000002845D10E2F07F1010540F3B980A7F140
:10E360000E0632460020624918F020FF02460B4696
:10E370004046494618F0E4FC00225E4B18F000FAD3
:10E3800018F050FF002DA7F10F0E4FF0010C4DDDDE
:10E39000594FDFF87881012245F6F3294FF02E0A14
:10E3A000494508BF40454FF030030AD3B0EB0800A1
:10E3B00061EB0901494508BF404503F10103F5D26E
:10E3C000DBB2237050EA010304F101084AD19542FF
:10E3D00052DD0132102A4FD0444677E90289DFE747
:10E3E000002F33DB3A460020414918F0DFFE024699
:10E3F0000B464046494618F0A3FC3BA3D3E9002353
:10E4000080468946012500264046494618F06EFBA5
:10E410000022384B18F0B4F918F004FF002DBC4668
:10E420004FF0FF3E37464FF00006B1DC2346302266
:10E430004FF02E0803F8022B84F80180FC4345D0EE
:10E440001C4403F8012BA342FBD1A1E77A42002030
:10E45000274918F0ABFE02460B464046494618F0E5
:10E4600045FBCAE7954202F1010204BF84F801A00E
:10E4700004F10208102AAFD16EB14246302102F8F1
:10E48000011BC2F1010373444344002BF7DC2EEA65
:10E49000EE7301339844BCF1010F12D0BCF1000FB0
:10E4A0004FF0650388F80030C5BF2B2388F8013092
:10E4B00008F1010108F102016046BDE8F0470DF0E6
:10E4C000CDB8002388F80030BDE8F0871C465FE730
:10E4D000C7F10E020020064918F068FE3E460246CB
:10E4E0000B46012790E700BF0000901EC4BCD64237
:10E4F000000024400000E03F20A102088DEDB5A0FF
:10E50000F7C6B03E50EFE2D6E41A4B4400407A1012
:10E5100070B54FF0FF3006F0D7F904466FF07F403A
:10E5200006F0D2F90646204618F066FA00220C4B97
:10E5300018F0DCFA044630460D4618F05DFA06A3E2
:10E54000D3E9002318F0FCFB02460B46204629467F
:10E5500018F016F970BD00BF0000E0DFFFFF6F4349
:10E560000000F03D000000002DE9F843044600F1F2
:10E570006C060CF069FE07460CF06CFE304611F09C
:10E580008FFC2368C51A304611F08AFC237DC11721
:10E59000C4E90001042B49D8DFE803F04F9C6A84EA
:10E5A000030003232846237518F036FA69A3D3E93C
:10E5B000002380468946E56818F028FD48B167A326
:10E5C000D3E900234046494618F002FD002840F0F8
:10E5D000AB8064A3D3E900234046494618F016FDFA
:10E5E00048B14046494661A3D3E9002318F0F0FC46
:10E5F000002840F0A08023690022013323612275A6
:10E60000202D15D1A3686FEA1322D2B2D9B291425C
:10E6100040F08D806FEA1362D2B2C3F30743934296
:10E6200040F0858084F8CC30A36998470023237597
:10E63000FB0700D462B6BDE8F883284618F0ECF971
:10E640004CA3D3E900238046894618F0DFFC00285C
:10E65000EED04046494649A3D3E9002318F0B8FC60
:10E660000028E5D0012200232275C4E90233DFE748
:10E67000284618F0D1F937A3D3E90023804689460C
:10E6800018F0C4FC40B14046494634A3D3E9002306
:10E6900018F09EFC0028CBD12369002201332361AE
:10E6A0002275C5E7284618F0B7F92AA3D3E9002355
:10E6B0008046894618F0AAFC0028EDD0404649461D
:10E6C00026A3D3E9002318F083FC0028E4D0042318
:10E6D0002375ADE7284618F09FF92AA3D3E9002354
:10E6E0008046894618F092FC38B128A3D3E900236C
:10E6F0004046494618F06CFC98B90022144B40463D
:10E70000494618F083FC0028C6D0404649460EA36F
:10E71000D3E9002318F05CFC0028BDD00223237548
:10E7200086E70323237583E70135E56068E72369FE
:10E73000013323617AE7A3680122AA40134301351C
:10E74000C4E902355CE700BF000000000018A540E6
:10E7500000209C409A99999999197C40333333331E
:10E76000331385409A99999999199540666666661A
:10E7700066A69F40000000000020BC400000000092
:10E780000018C540000000000020AC400000000060
:10E790000018B54000000000294B70B50646186807
:10E7A0000D4609F05DFE00283DDB08F0CFFF002E8E
:10E7B000044639DD234B186818F02EF91EA3D3E95F
:10E7C000002318F093F90022002317F0D9FF18F066
:10E7D0003DFC236820EAE071B1F5806FA8BF4FF4DB
:10E7E0008061DB682046984723681749D3F880305A
:10E7F00091FBF6F120469847002D14DDA5F1140693
:10E80000012EB8BF012630460DF00AFD23682046D0
:10E81000DB6800219847A81B0128B8BF0120BDE88C
:10E8200070400DF0FDBC70BD03680021DB68BDE8E1
:10E8300070401847AFF300801010101010101040F7
:10E84000300600200802002040420F0000000000B7
:10E8500038B5154B1B68002B04460CBF182005204B
:10E8600008F074FF0546204618F0D6F80CA3D3E94B
:10E87000002318F03BF90022002317F081FF18F065
:10E88000E5FB2B6820EAE071B1F5007FDB68A8BFEB
:10E890004FF4007128469847044B1C6038BD00BFF8
:10E8A0001010101010100040300600200802002048
:10E8B00030B52D4B8DB01A680092009A120205D423
:10E8C000009A42F400020092009A1A60274A284BEC
:10E8D000126801921B6802930EF068FA18F09CF817
:10E8E000CDE90401019B9BB20193029B9BB2029371
:10E8F000DDE904011AA3D3E9002318F0F7F81D4B52
:10E900000022CDE90401CDE906230298019BC01A3B
:10E9100018F072F8CDE90801DDE90445019818F016
:10E920006BF802460B462046294617F027FFCDE933
:10E930000A01DDE90601DDE90823DDE90A4518F0F1
:10E94000FFF922462B4618F0D1F800220A4B17F0A7
:10E9500017FF18F0A3FB039003980DB030BD00BF64
:10E960009A9999999999F13F08030450A875FF1F46
:10E97000CA75FF1F0000544000003E400000000028
:10E980002DE9F04F2DED028B044683B0C06818F0DE
:10E9900043F880462069894618F03EF8824660694F
:10E9A0008B4618F039F8024601F1004306460F463F
:10E9B0004046494619F0AEF818F090FBE062054673
:10E9C00018F060FF0190284618F010FF019B0546E3
:10E9D000184618F033F842464B4618F087F8804640
:10E9E0002846894618F02AF832463B4618F07EF849
:10E9F00002460B464046494617F0C0FE02460B460B
:10EA00005046594619F086F818F068FB002208EEC7
:10EA1000100A00233046394618F0F8FA28B3B5EE4C
:10EA2000C08AF1EE10FA1CDD11A7D7E9006718EED5
:10EA3000100A18F003F802460B463046394617F024
:10EA40009DFE32463B4617F09BFE18F047FBA06246
:10EA5000E38843F00203E38003B0BDEC028BBDE822
:10EA6000F08F05A7D7E90067E1E784ED0A8AEFE7B1
:10EA7000EA2E4454FB21F93FEA2E4454FB21F9BF0E
:10EA800008B50EF0C9F8DFED0C7A07EE100A67EE54
:10EA9000277A17EE900A17F0D1FF05A3D3E90023D8
:10EAA00018F04EF918F0D2FA08BD00BFAFF300809D
:10EAB000EA2E4454FB2119400000B443000000003A
:10EAC00008B50EF0BDF8DFED0C7A07EE100A67EE20
:10EAD000277A17EE900A17F0B1FF05A3D3E90023B8
:10EAE00018F02EF918F0B2FA08BD00BFAFF300809D
:10EAF000EA2E4454FB2119400000B44300000000FA
:10EB0000494A21F0004393422DE9704304460D46E3
:10EB100049DC464A93420E460EDC3FA3D3E900236C
:10EB200017F02EFE0022424B18F070FA00284AD04F
:10EB300020462946BDE870833E4A934239DCB3F152
:10EB4000804F40DD18F040FD2246804689462B4626
:10EB50002046294617F0CAFF0022354B17F010FE59
:10EB600019F0CEFB42464B4617F00AFE02460B4612
:10EB700000202F4918F0E4F8424604460D464B4663
:10EB80004046494617F0FCFD02460B462046294602
:10EB900017F0F6FD02F040F8002E08DC01F100430A
:10EBA0001946BDE8708302460B4617F0E9FDBDE843
:10EBB000708318F009FD02F02FF819A3D3E90023A0
:10EBC00017F0DEFDE8E722462B462046294617F0DF
:10EBD0008DFF804689462046294618F0F5FC002224
:10EBE00004460D46124B4046494617F0C9FD19F040
:10EBF00087FB00220E4B17F0C3FD02460B46404632
:10EC0000494618F09DF822462B4617F0B9FD00F052
:10EC1000A7FAC1E7AFF300809C7500883CE4377E1B
:10EC2000EF39FAFE422EE63FFFFFEF7FFFFF2F3E58
:10EC30000000F03F0000B0412DE9F84FBE4B21F03D
:10EC400000469E4204460D468A460EDDBB4B9E4260
:10EC500000F3B18000F0AC80BAF1000F40F3EA801D
:10EC600099A1D1E90001BDE8F88FB54B9E4200F3B0
:10EC7000BA80A3F1DE739E4240F3A5804FF0FF3BC4
:10EC800022462B462046294617F030FF02460B4607
:10EC90008046894617F02AFF8DA3D3E90023064654
:10ECA0000F4617F023FF8CA3D3E9002317F068FD6C
:10ECB00032463B4617F01AFF89A3D3E9002317F029
:10ECC0005FFD32463B4617F011FF87A3D3E90023CF
:10ECD00017F056FD32463B4617F008FF84A3D3E9F0
:10ECE000002317F04DFD32463B4617F0FFFE82A38E
:10ECF000D3E9002317F044FD42464B4617F0F6FED9
:10ED00007FA3D3E90023804689463046394617F071
:10ED1000EDFE7DA3D3E9002317F030FD32463B46DC
:10ED200017F0E4FE7AA3D3E9002317F027FD32465B
:10ED30003B4617F0DBFE78A3D3E9002317F01EFD56
:10ED400032463B4617F0D2FE75A3D3E9002317F0F5
:10ED500015FD32463B4617F0C9FE02460B464046BB
:10ED6000494617F00DFD22462B4617F0BFFEBBF1BA
:10ED7000FF3F02460B4661D0724B734E4FEACB0BFE
:10ED80005B44D3E9002317F0F9FC22462B4617F029
:10ED9000F5FCB34402460B46DBE9000117F0EEFC3C
:10EDA000BAF1000F0DDA01F100431946BDE8F88F02
:10EDB00000283FF451AF22462B462046294617F043
:10EDC000DFFCBDE8F88F58A3D3E9002317F0D8FC87
:10EDD00000225E4B18F01AF900283FF44FAF20468E
:10EDE0002946BDE8F88F18F0EFFB594B9E420446C8
:10EDF0000D4629DCA3F550239E424EDC02460B460D
:10EE000017F0BEFC0022514B17F0B8FC002206465A
:10EE10000F464FF080432046294617F0B1FC0246CA
:10EE20000B463046394617F08BFF4FF0000B044677
:10EE30000D4625E73EA1D1E90001C2E7204629465B
:10EE400017F09CFCBDE8F88F424B9E421ADC002272
:10EE5000414B17F093FC002206460F463E4B2046DE
:10EE6000294617F043FE0022384B17F089FC024672
:10EE70000B463046394617F063FF4FF0020B04464D
:10EE80000D46FDE602460B460020344917F058FFB8
:10EE90004FF0030B04460D46F2E600222B4B17F011
:10EEA0006DFC002206460F46284B2046294617F0E7
:10EEB00067FC02460B463046394617F041FF4FF0DB
:10EEC000010B04460D46DBE6182D4454FB21F93FA7
:10EED00011DA22E33AAD903FEB0D76244B7BA93F4C
:10EEE000513DD0A0660DB13F6E204CC5CD45B73F1A
:10EEF000FF8300922449C23F0D5555555555D53FC6
:10EF00002F6C6A2C44B4A2BF9AFDDE522DDEAD3FB9
:10EF10006D9A74AFF2B0B33F711623FEC671BC3F59
:10EF2000C4EB98999999C93F9C7500883CE4377E59
:10EF3000182D4454FB21F9BFFFFF0F440000F07F60
:10EF4000FFFFDB3F48A1020828A102080000F03FB4
:10EF5000FFFFF23FFF7F03400000F83F0000F0BFDB
:10EF60002DE9F041C1F30A57A7F2FF35132D0246F0
:10EF70000B460C468846064620DC002D4ADB364F01
:10EF80002F4101EA070C5CEA000C1CD030A3D3E946
:10EF9000002317F0F5FB0022002318F037F848B1E2
:10EFA000002C04DD4FF4801343FA05F5A84428EA49
:10EFB0000704002621463046BDE8F081332D06DDEA
:10EFC000B5F5806F38D010461946BDE8F081A7F23C
:10EFD00013474FF0FF3C2CFA07F70742F3D01CA36E
:10EFE000D3E9002317F0CCFB0022002318F00EF821
:10EFF0000028DFD0002C09DD142D22D00123C5F11B
:10F00000340503FA05F5AE1928BF984426EA070629
:10F010004446CFE70EA3D3E9002317F0B1FB00224B
:10F02000002317F0F3FF0028C4D0002C0CDB26438C
:10F0300005D00026094CBDE717F0A2FBC5E7344612
:10F04000B8E704F10108E1E700264FF00044B1E71A
:10F050009C7500883CE4377EFFFF0F000000F03F06
:10F060002DE9F041C1F30A57A7F2FF35132D0246EF
:10F070000B460C46884606461DDC002D3CDB364F11
:10F080002F4101EA070C5CEA000C19D030A3D3E948
:10F09000002317F075FB0022002317F0B7FFC8B359
:10F0A000002C04DA4FF4801343FA05F5A84428EA4B
:10F0B000070400262EE0332D06DDB5F5806F2DD038
:10F0C00010461946BDE8F081A7F213474FF0FF3C08
:10F0D0002CFA07F70742F3D01DA3D3E9002317F05A
:10F0E0004FFB0022002317F091FF98B1002C21DB89
:10F0F00026EA070644460DE015A3D3E9002317F0DE
:10F100003FFB0022002317F081FF18B1002C08DB21
:10F110000026344621463046BDE8F08117F030FB2A
:10F12000D0E724F000430D4A1E43002E18BF1446BA
:10F130000026EFE7142D08D00123C5F1340503FAAA
:10F1400005F5AE1928BF9844D2E704F10108CFE7CE
:10F150009C7500883CE4377EFFFF0F000000F0BF85
:10F160002DE9F04FD84B994287B08046894643DD60
:10F17000D64B99420E4600F3F480D54B994240F3AA
:10F180002D819FEDBB7B8DED047B4FEA215A044618
:10F19000AAF2FF3ACF4BC6F313069E4246F07F55C4
:10F1A00000F3128145F44015204629460022CA4B3F
:10F1B00017F0E4FA002204460D46C84B17F096FCFF
:10F1C00022462B4617F092FCA046CDE90201A94643
:10F1D000CDE90001002E3AD1002200232046294625
:10F1E00017F0ECFE002800F01B81BAF1000F40F090
:10F1F000858100200021B8E0B94B21F000449C42F9
:10F200000A460FDD0022B74B17F0D8FE002800F0A9
:10F21000AF80002200230020B34917F091FD07B012
:10F22000BDE8F08FB14B9C4240F3AF80B04B1A4425
:10F230009A4240F2D3800022A84B17F057FC424676
:10F240004B4617F053FCCDE900014FF0000A0022B5
:10F250004FF080434046494617F092FA02460B466B
:10F260004046494617F06CFD02460B4606460F46DF
:10F2700017F03CFC80A3D3E9002304460D4617F0A9
:10F2800035FC7FA3D3E9002317F07AFA22462B46F8
:10F2900017F02CFC7CA3D3E9002317F071FA224667
:10F2A0002B4617F023FC7AA3D3E9002317F068FA62
:10F2B00022462B4617F01AFC77A3D3E9002317F058
:10F2C0005FFA22462B4617F011FC75A3D3E9002301
:10F2D00017F056FA22462B4617F008FC72A3D3E922
:10F2E000002317F04DFA22462B4617F0FFFBDDE90D
:10F2F000002317F045FA32463B4617F0F7FB044669
:10F300000D46BAF1000F00F0A880504617F084FBBC
:10F3100067A3D3E9002382468B4617F0E7FB66A379
:10F32000D3E9002306460F465046594617F0DEFB48
:10F33000DDE9042317F024FA22462B4617F020FAC1
:10F3400002460B46DDE9000117F018FA42464B462B
:10F3500017F014FA02460B463046394617F00EFAFB
:10F3600003E002460B4617F00BFA07B0BDE8F08F3A
:10F3700042464B464046494617F000FA02460B46C5
:10F3800017F0DEFC07B0BDE8F08F0022594B17F0F4
:10F39000F7F90022002317F039FE10B1564B9C42BA
:10F3A00062DD42464B464046494617F09FFB00222D
:10F3B0004A4B17F09BFB02460B464046494617F066
:10F3C000DDF907B0BDE8F08F45F40015C6F58016ED
:10F3D00020462946B6100AF1010AE7E600223E4B14
:10F3E0004046494617F0CCF94FEA215AAAF2FF3AB3
:10F3F000BAF1000F04460D460E4640F3BD8042466A
:10F400004B4617F0BBF902460B460020324917F075
:10F41000B5F922462B4617F093FCCDE90401B9E675
:10F4200027A3D3E900232046294617F05FFB0246B5
:10F430000B460020284917F0A1F9DDE9022317F057
:10F4400055FB06460F46BAF1000F75D102460B4632
:10F450002046294617F092F987E702460B46DDE978
:10F46000000117F08BF9A6E7404649467DE700BF4B
:10F47000000000000000000044523EDF12F1C23FD5
:10F480009FC678D0099AC33FDE03CB966446C73F38
:10F49000AF788E1DC571CC3F599322942449D23F39
:10F4A00004FA97999999D93F935555555555E53F84
:10F4B0000000E0FE422EE63F763C7935EF39EA3D2A
:10F4C000555555555555E53F7982DA3FFFFFEF7F9A
:10F4D000FFFF3F439DA006000000F03F0000E03F1B
:10F4E000FFFFEF3F0000F0BF000050C3FFFF1F3ED3
:10F4F0003C412D4000005043FFFF8F3C504617F029
:10F500008BFA24A3D3E9002306460F4617F0EEFA40
:10F51000DDE9042317F034F920A3D3E900230446DE
:10F520000D463046394617F0E1FA02460B462046B2
:10F53000294617F025F918E7504617F06DFA17A37A
:10F54000D3E9002382468B4617F0D0FA11A3D3E902
:10F550000023804689465046594617F0C7FADDE930
:10F56000042317F00DF902460B463046394617F0D2
:10F5700005F922462B4674E70022054B17F0FEF8EA
:10F5800002460B464046494617F0F8F841E700BFEF
:10F590000000F03F763C7935EF39EA3D0000E0FEAF
:10F5A000422EE63F0000000008B518F081FB04A3DE
:10F5B000D3E9002317F0C4FB08BD00BFAFF3008000
:10F5C000EF39FAFE422EE63F2DE9F043DFF8B48032
:10F5D0008BB004460D4601F0F7F898F9003001337E
:10F5E00006460F462CD022462B462046294617F0C9
:10F5F00017FD814620BB2046294617F0E5FF1FA3D3
:10F60000D3E9002317F002FDD0B1194A98F9003070
:10F61000CDF820900321CDE90445CDE90245CDE99F
:10F62000001293B113490020022BCDE9060111D13C
:10F6300019F012FE22230360089B9BB9DDE90667DF
:10F64000304639460BB0BDE8F0830B4B4FF06042BB
:10F65000CDE90623684619F089FC0028E8D0089B0C
:10F66000002BEBD019F0F8FD089B0360E6E700BF24
:10F6700074B602080000F07FFFFFEF477DF8B98FF6
:10F68000CE338640060400202DE9F043DFF8E48005
:10F690008BB004460D4601F047F998F9003001336C
:10F6A00006460F4633D02046294619F059FC70B360
:10F6B0002CA3D3E900232046294617F0A7FC814656
:10F6C00050BB2AA3D3E900232046294617F080FC2B
:10F6D000E8B198F90030204ACDF8209000200021B0
:10F6E0000426022BCDE90445CDE902450096CDE97B
:10F6F0000601019229D0684619F038FC28B3089B0E
:10F700001BB119F0A9FD089B0360DDE906673046CF
:10F7100039460BB0BDE8F0830F4A98F900300192EA
:10F7200003210022CDE90445CDE90245009108926C
:10F730002BB90A4B4FF06042CDE90623DBE70849BD
:10F740000020022BCDE90601D5D119F085FD222339
:10F750000360D4E7AFF300807CB60208FFFFEF47F9
:10F760000000F07FEF39FAFE422E864051302DD551
:10F77000104987C0060400202DE9F04FDFF82C93D4
:10F780008DB006460F4614461D4601F09DFC99F9C2
:10F790000080B8F1FF3FCDE9000136D022462B466C
:10F7A0002046294617F03CFC834670BB32463B4658
:10F7B0003046394617F034FC8246002840F0A280DB
:10F7C000304639460022002317F0F8FB10B3002220
:10F7D00000232046294617F0F1FB8346002867D016
:10F7E0009FEDA77B0122AC4BCDF828A00292CDE97A
:10F7F0000467CDE906458DED087B0393B8F1000F52
:10F8000041D09FEDA17B8DED007BDDE900010DB0C6
:10F81000BDE8F08FDDE9000119F0A2FB8046002869
:10F8200000F08D804FF0000A4FF0000BDDE9000181
:10F8300052465B4617F0C2FB0028E6D030463946F8
:10F8400019F08EFB0028E0D02046294619F088FBED
:10F850000028DAD099F900308F4A0392042100225F
:10F86000022BCDE90467CDE90645CDE908AB02914D
:10F870000A9203D002A819F079FB50B919F0ECFCF8
:10F880002223036005E002A819F070FB002800F0B5
:10F890009B800A9B1BB119F0DFFC0A9B03609DED66
:10F8A000087B8DED007BDDE900010DB0BDE8F08F38
:10F8B0002046294619F054FB0028A6D00022002338
:10F8C0002046294617F084FB00289ED0724A99F9F9
:10F8D0000030CDF828B00121CDE90467CDE9064517
:10F8E000CDE90212002B74D06C490020022BCDE927
:10F8F000080172D119F0B0FC212303600A9B002B90
:10F90000CDD0C8E7002200232046294617F056FB39
:10F9100000283FF47AAF624B5F49CDF828B000224F
:10F920000120B8F1020FCDE904670290CDE9064548
:10F93000CDE908230391A6D1CDE9002365E7304640
:10F94000394619F00DFB00283FF46CAF20462946DC
:10F9500019F006FB00283FF465AFDDE900231046EF
:10F96000194617F05DFB99F900A000286BD103231D
:10F97000DFF824C10A902946204602930022494B11
:10F98000CDF80CC0CDE90645CDE9046717F0AEF817
:10F9900004460D46BAF1000F25D1DFF814B14FF03F
:10F9A000604A0022002330463946CDE908AB17F003
:10F9B0000FFB38BB02A819F0D9FA00289ED119F024
:10F9C0004BFC2223036099E719F046FC21230360D6
:10F9D0005FE79FED2B7B8DED087B02A819F0C6FA3F
:10F9E00000288BD186E79FED2A7B0022002330463A
:10F9F00039468DED087B17F0EBFAA0B9BAF1020F8A
:10FA0000DDD0D7E72046294619F0B8FA22462B4622
:10FA100017F0D4FAA0B9244B99F900A04FF0604236
:10FA2000CDE90823EAE72046294619F0A7FA22463D
:10FA30002B4617F0C3FA18B9184B0022CDE908235A
:10FA400099F900A0DAE70122134BCDF82880029241
:10FA5000CDE90467CDE906450393BAF1000FB8D0AC
:10FA6000002200231046194617F06AF9BAF1020F76
:10FA7000CDE908013FF43EAFAFE700BFAFF3008030
:10FA80000000000000000000000000000000F03F47
:10FA9000000000000000F07F94B602080000F0FFB4
:10FAA0000000F03F0000E03FFFFFEFC7060400202A
:10FAB000FFFFEF47000000002DE9F84FC44E21F092
:10FAC0000043B34204460D460DDD03F1404303F508
:10FAD0008013034340F0B980002940F340810020A7
:10FAE0000021BDE8F88FBB4EB34208DCBA4A93420E
:10FAF00000F3B5809CA1D1E90001BDE8F88F002991
:10FB0000C0F2708102460B460020B44916F036FE62
:10FB10000022B34B16F0EAFF04460D4618F0F0FB46
:10FB200093A3D3E90023894680462946204616F050
:10FB3000DDFF91A3D3E9002316F022FE22462B46D7
:10FB400016F0D4FF8EA3D3E9002316F017FE224649
:10FB50002B4616F0CBFF8CA3D3E9002316F010FE42
:10FB600022462B4616F0C2FF89A3D3E9002316F0E4
:10FB700005FE22462B4616F0B9FF87A3D3E90023E2
:10FB800016F0FEFD22462B4616F0B0FF84A3D3E903
:10FB9000002382468B462046294616F0A7FF82A303
:10FBA000D3E9002316F0EAFD22462B4616F09EFF0D
:10FBB0007FA3D3E9002316F0E3FD22462B4616F07F
:10FBC00095FF7DA3D3E9002316F0D8FD22462B46EE
:10FBD00016F08CFF0022814B16F0D2FD02460B4638
:10FBE0005046594617F0ACF842464B4616F07EFF99
:10FBF000002682468B4632464B463046494616F032
:10FC000075FF02460B462046294616F0B7FD3246E0
:10FC100004460D464B464046494616F0B1FD0246A5
:10FC20000B462046294617F08BF802460B465046F5
:10FC3000594616F0A5FD32464B4616F0A1FD024688
:10FC40000B4616F09DFDBDE8F88F02460B4616F0F8
:10FC500095FD02460B4617F073F8BDE8F88F024693
:10FC60000B4616F043FF42A3D3E9002306460F4696
:10FC700016F03CFF40A3D3E9002316F081FD324685
:10FC80003B4616F033FF3EA3D3E9002316F076FD82
:10FC900032463B4616F02AFF3BA3D3E9002316F079
:10FCA0006FFD32463B4616F021FF39A3D3E900230E
:10FCB00016F064FD32463B4616F018FF36A3D3E932
:10FCC000002316F05DFD32463B4616F00FFF34A3CD
:10FCD000D3E90023804689463046394616F006FFB0
:10FCE00031A3D3E9002316F049FD32463B4616F016
:10FCF000FDFE2FA3D3E9002316F042FD32463B461A
:10FD000016F0F4FE2CA3D3E9002316F037FD32469B
:10FD10003B4616F0EBFE0022304B16F031FD02465A
:10FD20000B464046494617F00BF822462B4616F084
:10FD3000DDFE02460B4622A1D1E9000116F01EFDB0
:10FD400002460B462046294616F018FD02460B4691
:10FD500005A1D1E9000116F011FDBDE8F88F1AA147
:10FD6000D1E9000179E700BF182D4454FB21F93F88
:10FD700009F7FD0DE13D023F88B20175E0EF493F13
:10FD80003B8F68B52882A43F5544880E55C1C93FB2
:10FD90007D6FEB0312D6D43F555555555555C53F8C
:10FDA00082922EB1C5B8B33F59018D1B6C06E63F58
:10FDB000C88A599CE52A00404B2D8A1C273A0340EB
:10FDC000075C143326A6913C182D4454FB210940AE
:10FDD000FFFFEF3FFFFFDF3F0000603C0000F03F10
:10FDE0000000E03F00225C4B16F0CAFC00225B4B97
:10FDF00016F07CFE40A3D3E9002304460D4616F01E
:10FE000075FE3FA3D3E9002316F0BAFC22462B4629
:10FE100016F06CFE3CA3D3E9002316F0AFFC22469B
:10FE20002B4616F063FE3AA3D3E9002316F0A8FC94
:10FE300022462B4616F05AFE37A3D3E9002316F0CC
:10FE40009DFC22462B4616F051FE35A3D3E9002334
:10FE500016F096FC22462B4616F048FE8046894650
:10FE60002046294618F04CFA2FA3D3E90023064672
:10FE70000F462046294616F039FE2DA3D3E900236C
:10FE800016F07CFC22462B4616F030FE2AA3D3E95E
:10FE9000002316F075FC22462B4616F027FE28A3F9
:10FEA000D3E9002316F06AFC22462B4616F01EFE0C
:10FEB0000022294B16F064FC02460B464046494698
:10FEC00016F03EFF32463B4616F010FE1EA3D3E965
:10FED000002316F053FC32463B4616F051FC024616
:10FEE0000B4616F04DFC02460B4619A1D1E9000164
:10FEF00016F044FCB1E600BF09F7FD0DE13D023FFD
:10FF000088B20175E0EF493F3B8F68B52882A43F76
:10FF10005544880E55C1C93F7D6FEB0312D6D43FBF
:10FF2000555555555555C53F82922EB1C5B8B33F6D
:10FF300059018D1B6C06E63FC88A599CE52A004092
:10FF40004B2D8A1C273A0340075C143326A6913CAC
:10FF5000182D4454FB2109400000F03F0000E03F11
:10FF6000414A91422DE9F84304460D4637DD3F4AA8
:10FF700091420B4608DD02F1795291423DDD024685
:10FF800016F0FEFBBDE8F88301F1404202F5801255
:10FF900002432ED0B1F1804F37DC0022344B16F0F3
:10FFA000EDFB02460B4604460D4616F0E9FB2246E1
:10FFB00006460F462B462046294616F097FD024678
:10FFC0000B463046394616F0DBFB18F099F922460D
:10FFD0002B4616F0D5FBBDE8F843FFF7C1B8024643
:10FFE0000B4616F0CBFB02460B4616F0A9FEBDE809
:10FFF000F88300200021BDE8F88300F00DFE18A36F
:020000040801F1
:10000000D3E9002316F0BCFBF1E7024616F06EFDC3
:100010000022174B16F0B2FB18F072F92246804608
:1000200089462B462046294616F0AAFB224606465C
:100030000F462B464046494616F0A2FB02460B46A9
:1000400000200B4916F07CFE0B460246394630462E
:1000500016F094FBBDE8F84300F0DEBDAFF300807E
:10006000EF39FAFE422EE63FFFFFEF3FFFFFAF41C1
:100070000000F03F000000002DE9F04FAE4B21F0F2
:1000800000479F4287B004460D4611DD07F1404707
:1000900007F5801703463B4321D002460B4616F076
:1000A0006DFB02460B4616F04BFE07B0BDE8F08F25
:1000B000A24B9F420E4629DCB7F1795F80F2468160
:1000C00081A3D3E9002316F05BFB00229C4B16F0C2
:1000D0009DFFD8B12046294607B0BDE8F08F7CA32C
:1000E000D3E9002316F002FD7BA3D3E900230646E3
:1000F0000F462046294616F0F9FC02460B463046CC
:10010000394616F03DFB07B0BDE8F08F2046294682
:1001100017F05AFA02460B460020894916F02EFBCA
:100120000022884B16F0E2FC6DA3D3E900230446BD
:100130000D4616F0DBFC6CA3D3E9002316F020FB80
:1001400022462B4616F0D2FC69A3D3E9002316F011
:1001500015FB22462B4616F0C9FC67A3D3E9002302
:1001600016F00EFB22462B4616F0C0FC64A3D3E922
:10017000002316F003FB22462B4616F0B7FC62A3C1
:10018000D3E9002316F0FCFA22462B4616F0AEFC0B
:100190005FA3D3E90023CDE900012046294616F0EC
:1001A000A5FC5DA3D3E9002316F0E8FA22462B460E
:1001B00016F09CFC5AA3D3E9002316F0E1FA22467C
:1001C0002B4616F093FC58A3D3E9002316F0D6FA79
:1001D00022462B4616F08AFC594B002216F0D0FA24
:1001E00082468B4620462946CDE902AB18F088F8B6
:1001F000554B9F428046894600F3198102460B46C3
:1002000016F0BEFADDE90223CDE90401DDE90001C3
:1002100016F096FD02460B46DDE9040116F066FC79
:100220004FF0000ACDE9000152464B465046494680
:1002300016F05CFC02460B462046294616F09EFA54
:10024000524604460D464B464046494616F098FA3B
:1002500002460B462046294616F072FD02460B4622
:1002600016F08EFA02460B461BA1D1E9000116F0EA
:1002700085FA02460B46DDE9000116F07FFA524688
:1002800004460D464B465046494616F079FA02465A
:100290000B4627A1D1E9000116F070FA02460B4681
:1002A0002046294616F06AFA02460B4620A1D1E9FB
:1002B000000116F063FA002E3FF7F7AE01F100439C
:1002C0001946F2E6AFF300809C7500883CE4377E67
:1002D000182D4454FB21F93F075C143326A6913CAA
:1002E00009F7FD0DE13D023F88B20175E0EF493F9E
:1002F0003B8F68B52882A43F5544880E55C1C93F3D
:100300007D6FEB0312D6D43F555555555555C53F16
:1003100082922EB1C5B8B33F59018D1B6C06E63FE2
:10032000C88A599CE52A00404B2D8A1C273A034075
:10033000182D4454FB21E93FFFFFEF3FFFFFDF3F54
:100340000000F03F0000E03F3233EF3F02460B4633
:1003500016F0CCFB4BA3D3E9002306460F4616F05C
:10036000C5FB4AA3D3E9002316F00AFA32463B46FE
:1003700016F0BCFB47A3D3E9002316F0FFF9324681
:100380003B4616F0B3FB45A3D3E9002316F0F8F97A
:1003900032463B4616F0AAFB42A3D3E9002316F0EF
:1003A000EDF932463B4616F0A1FB40A3D3E900230A
:1003B00016F0E6F932463B4616F098FB3DA3D3E92A
:1003C0000023804689463046394616F08FFB3BA312
:1003D000D3E9002316F0D2F932463B4616F086FBED
:1003E00038A3D3E9002316F0CBF932463B4616F08A
:1003F0007DFB36A3D3E9002316F0C0F932463B4615
:1004000016F074FB00221E4B16F0BAF902460B469A
:100410004046494616F094FC22462B4616F066FBF1
:1004200022462B4616F0ACF907B0BDE8F08F5246D5
:100430005B46DDE9000116F083FC42464B4616F0B0
:1004400055FB42464B4616F09BF902460B4616F00A
:1004500097F907A3D3E9002316F090F902460B465B
:1004600005A1D1E9000116F089F924E7AFF3008076
:10047000075C143326A6913C182D4454FB21F93F08
:100480000000F03F09F7FD0DE13D023F88B2017524
:10049000E0EF493F3B8F68B52882A43F5544880E62
:1004A00055C1C93F7D6FEB0312D6D43F5555555505
:1004B0005555C53F82922EB1C5B8B33F59018D1B2A
:1004C0006C06E63FC88A599CE52A00404B2D8A1CE1
:1004D000273A0340000000002DE9F84F1D46534223
:1004E000134325F00049DFF8C8C149EAD3736345D7
:1004F000144606460F4626D8C0F1000848EA000810
:1005000021F0004A4AEAD878E04503468B461AD8DB
:1005100005F1404808F5801858EA0208AE4643D075
:100520004FEAA57808F002085AEA030348EAD178AE
:1005300011D1B8F1020F55D0B8F1030F09D14AA17A
:10054000D1E9000105E032463B462046294616F037
:1005500017F9BDE8F88F59EA020329D0E1452ED0FA
:10056000E24525D0AAEB09094FEA2959B9F13C0F18
:100570003CDC002D3EDA19F13C0F3BDA0020002173
:10058000B8F1010F4ED0B8F1020F3ED0B8F1000F14
:10059000DFD037A3D3E9002316F0F0F836A3D3E970
:1005A000002316F0EBF8D4E7BDE8F84FFEF744BBA4
:1005B000BBF1000F12DB32A1D1E90001C9E7CA4546
:1005C00034D0B8F1020F0DD0B8F1030FB7D0B8F1A5
:1005D000010F4FF0000036D00021BAE72AA1D1E97F
:1005E0000001B6E724A1D1E90001B2E724A1D1E9D5
:1005F0000001C5E722462B463046394616F0A0FBDF
:1006000016F0E2FFFEF718FBBAE719A3D3E90023BF
:1006100016F0B4F802460B4617A1D1E9000116F016
:10062000ADF896E701F10043194692E7B8F1020FE1
:1006300014D0B8F1030F0DD0B8F1010F06D014A1FA
:10064000D1E9000185E74FF0004182E712A1D1E92D
:1006500000017EE712A1D1E900017AE712A1D1E9F8
:10066000000176E7AFF30080182D4454FB2109C048
:10067000075C143326A6A13C182D4454FB210940E5
:10068000182D4454FB21F93F182D4454FB21F9BF88
:10069000182D4454FB21E93F182D4454FB21E9BF98
:1006A000D221337F7CD902C0D221337F7CD9024052
:1006B0000000F07F0000000043422DE9F0470343B3
:1006C00021F000463C4A46EAD373934204460D4665
:1006D0002AD8964240D0394B9E428A462EDD384B6E
:1006E0009E4235463FDD33460246314616F048F815
:1006F000224606460F462B4600202F4916F03EF8AC
:1007000002460B463046394616F01AFBFEF728FD26
:1007100000222C4B16F0EAF9BAF1000F0CDA01F1C5
:1007200000431946BDE8F08702460B4616F026F84E
:1007300002460B4616F004FBBDE8F0871CA3D3E984
:10074000002316F01DF80022002316F05FFC48B1CC
:1007500020462946BDE8F0870022002316F0F0FA73
:10076000BDE8F087354622462B462046294616F03E
:1007700007F822462B4606460F4616F0B7F92246E2
:10078000804689462B4600200B4915F0F7FF0246AC
:100790000B464046494616F0D3FA32463B4615F022
:1007A000EFFFFEF7DDFC0022064B16F09FF9B3E7E2
:1007B0009C7500883CE4377E0000F03FFFFF2F3E31
:1007C000FFFFDF3F0000E03F2DE9F8434E4B21F0F3
:1007D00000449C4206460F461BDC4C4B9C4222DDEB
:1007E0004B4B9C4254DD4B4B9C4246DD4A4B9C425A
:1007F0006FDD01339C4269D041A3D3E90023104649
:10080000194616F073F906460F4630463946BDE8DC
:10081000F88302460B4616F069F906460F46304645
:100820003946BDE8F88316F0CFFE02F04DFC0022F9
:100830003A4B8046894615F0A3FFB4F1725F064635
:100840000F46ECDB42464B464046494616F04EF911
:1008500032463B4604460D463046394615F090FF79
:1008600002460B462046294616F06AFA00222B4B18
:1008700015F086FF06460F46D1E716F0A5FE00F0FC
:1008800053F80022264B16F031F906460F46C6E70C
:1008900016F09AFE00F048F80022214B06460F465B
:1008A00016F024F9324604460D463B4600201C490A
:1008B00016F046FA02460B462046294615F060FF20
:1008C00006460F4630463946BDE8F883154B984238
:1008D00092D83046394616F077FE0022104B16F0BB
:1008E00005F900F021F8002204460D460C4B16F0E5
:1008F000FDF822462B4616F0F9F806460F468EE71D
:100900009C7500883CE4377EFFFFEF7F422ED63F88
:10091000FFFF3540412E8640CD3386400000F03F3A
:100920000000E03F7DF8B98F2DE9F047B04F21F08E
:100930000042BA4284B004460D464FEAD17610D93F
:10094000AC4FBA4240F28A80C1F31303034302461C
:1009500040F0F180002E7ED00020002104B0BDE8E0
:10096000F087A54B9A4200F2B680A44B9A4240F21F
:10097000D1804FF0000A22462B462046294616F029
:10098000B5F885A3D3E9002306460F4616F0AEF866
:1009900083A3D3E9002315F0F1FE32463B4616F05F
:1009A000A5F881A3D3E9002315F0EAFE32463B46C1
:1009B00016F09CF87EA3D3E9002315F0DFFE324643
:1009C0003B4616F093F87CA3D3E9002315F0D8FE3C
:1009D00032463B4616F08AF802460B462046294628
:1009E00015F0CCFE02460B4606460F462046294629
:1009F00016F07CF880468946BAF1000F00F0AB8013
:100A000032463B4600204FF0804115F0B7FE0246CB
:100A10000B464046494616F093F902460B46DDE97F
:100A2000020115F0ABFEDDE9002315F0A7FE0B4631
:100A300002467349002015F0A1FE6FF47F739A45BA
:100A400080F2A3800AF57A7A01EB0A5100224FF076
:100A5000B87316F04BF804B0BDE8F08758A3D3E99B
:100A6000002316F0D3FA00286BD157A3D3E9002353
:100A70002046294616F0ACFA00287FF46DAF614994
:100A800053A3D3E9002301EBC6062046294616F0FE
:100A90002DF8D6E9002315F073FE16F0D7FA82463A
:100AA00015F0BAFF4CA3D3E9002306460F4616F013
:100AB0001DF802460B462046294615F05FFE48A366
:100AC000D3E90023CDE900013046394616F00EF88F
:100AD000CDE9020115E04C4B9A42D0D84B4BF400C3
:100AE0002344D3E9002315F049FE494B234493EDF9
:100AF000007BCDE900018DED027BC6F1010AAAEB76
:100B0000060ADDE90223DDE9000115F037FE04469F
:100B10000D4630E734A3D3E9002315F031FE00225F
:100B2000374B16F073FAA8B3204629460022344BFF
:100B300015F026FE8FE70B4615F022FE04B0BDE847
:100B4000F08729A3D3E900231046194615F0CEFFFC
:100B500004B0BDE8F0873046394600224FF08043AC
:100B600015F00CFE02460B464046494616F0E8F8E2
:100B700022462B4615F002FE02460B460020204975
:100B800015F0FCFD04B0BDE8F08701EB0A5104B09C
:100B9000BDE8F0878246EEE6D0A4BE726937663EB5
:100BA000F16BD2C541BDBB3E2CDE25AF6A56113F6D
:100BB00093BDBE166CC1663F3E5555555555C53F54
:100BC000EF39FAFE422E864051302DD5104987C0AC
:100BD000FE822B654715F73F0000E0FE422EE63F00
:100BE000763C7935EF39EA3D9C7500883CE4377EE8
:100BF000412E8640FFFFEF7F422ED63FFFFF2F3E64
:100C00000000F03F68A10208B1A2F03F78A10208FD
:100C100088A10208000000002DE9F04FB1F5801F07
:100C200085B006460F460B4680F2D08021F0004288
:100C3000024300F0DA800029C0F2E9800022D64B9E
:100C400015F054FFD54A0B46934206460F466FF007
:100C5000350E00F3C180C3F3130505F5152C0CF612
:100C6000647C0CF4801C8CF07F5282F440121C15C2
:100C700042EA0507A4F2FF3474440022C84B304610
:100C8000394604EB1C5415F079FDAB1CC3F3130378
:100C9000022B82468B464FF0000240F3AF804FF0AC
:100CA000804315F06DFD02460B465046594616F03E
:100CB00047F8064620460F4615F0AEFE3246CDE90F
:100CC00002013B4630463946CDE9006715F00EFF7C
:100CD00002460B468046894615F008FF9AA3D3E9E1
:100CE000002306460F4615F001FF99A3D3E9002320
:100CF00015F046FD32463B4615F0F8FE96A3D3E9C3
:100D0000002315F03DFD32463B4615F0EFFE94A35F
:100D1000D3E9002315F034FD42464B4615F0E6FEBC
:100D200091A3D3E90023804689463046394615F021
:100D3000DDFE8FA3D3E9002315F022FD32463B46AA
:100D400015F0D4FE8CA3D3E9002315F019FD32462B
:100D50003B4615F0CBFE0B4602464946404615F091
:100D60000FFDA5F5C223C5F5D725A3F27A4351356A
:100D70001D43002D06460F4640F387800022894B15
:100D80005046594615F0B2FE52465B4615F0AEFE8F
:100D900002460B46804689463046394615F0F0FC3F
:100DA000DDE9002315F0A2FE06460F46002C40F0B8
:100DB000818002460B464046494615F0DFFC02465C
:100DC0000B465046594615F0D9FC0BE0734A934246
:100DD0004FF0000E7FF73FAF32463B463046394674
:100DE00015F0CEFC05B0BDE8F08F002200230020F6
:100DF0006D4915F0A5FF05B0BDE8F08F002316F092
:100E0000DDF860B1002C7CD100200021EAE7024629
:100E100015F0B4FC0022002315F092FFE2E758A37E
:100E2000D3E900235046594615F060FE02460B46B2
:100E300000205C4915F0A2FC524606460F465B4670
:100E40005046594615F052FE02460B46304639468A
:100E500015F04CFE06460F462CB3204615F0DCFD7F
:100E600049A3D3E900238046894615F03FFE48A3F5
:100E7000D3E9002304460D464046494615F036FEA8
:100E800002460B46304639462CE002460B46504699
:100E9000594615F073FCDDE9002315F027FE0646E0
:100EA0000F46002C47D132463B465046594615F076
:100EB00065FC97E734A3D3E90023DDE9020115F0CF
:100EC00015FE33A3D3E9002304460D46DDE90201F4
:100ED00015F00CFE32463B4615F052FC02460B461E
:100EE0004046494615F04AFC52465B4615F046FC22
:100EF00002460B462046294615F040FC05B0BDE8E9
:100F0000F08F204615F088FD1FA3D3E90023064685
:100F10000F4615F0EBFD1EA3D3E9002304460D4652
:100F20003046394615F0E2FD02460B46204629467A
:100F300015F026FC56E7DDE9028913A3D3E9002367
:100F40004046494691E700BF44523EDF12F1C23F9E
:100F5000DE03CB966446C73F599322942449D23F7F
:100F6000935555555555E53F9FC678D0099AC33FCF
:100F7000AF788E1DC571CC3F04FA97999999D93FE6
:100F8000555555555555D53F0000E0FE422EE63FDC
:100F9000763C7935EF39EA3D00005043FFFFEF7FA3
:100FA0000000F03F0000E03F000050C300000000E0
:100FB000B1F5801F2DE9F84304460D460B4619DABA
:100FC00021F00042024359D000295FDB00223A4B56
:100FD00015F08CFD394A0D462B46934204466FF0BE
:100FE00035010CDD22462B462046294615F0C8FB6C
:100FF000BDE8F883314A93424FF00001F2DC181546
:10100000A0F2FF3008444FEAD0794844C3F31308F4
:1010100015F002FDC9F57F73033348EA0355064610
:101020000F4620462946FFF7F7FD1DA3D3E900230D
:10103000804689463046394615F058FD1AA3D3E953
:10104000002304460D464046494615F04FFD024632
:101050000B462046294615F093FB15A3D3E9002340
:1010600004460D463046394615F040FD02460B4613
:101070002046294615F084FBBDE8F88300220023B2
:1010800000200F4915F05CFEBDE8F883024615F01C
:1010900075FB0022002315F053FEA9E7AFF3008093
:1010A000362BF111F3FE593D0EE526157BCBDB3FC8
:1010B00000609F501344D33F00005043FFFFEF7F79
:1010C000000050C3000000002DE9F04F23F0004560
:1010D00055EA020493B00DD06B4E21F00044B442A7
:1010E0000F4682460BDD04F1404404F5801454EAB7
:1010F0000A0350D16549002013B0BDE8F08F9B462C
:10110000944647D0B542EEDC5F4EB5425DD0002F2D
:1011100080468946CDE900235BDB0026BCF1000F49
:101120000ED1594B9D423FD0584B9D4200F08880D4
:10113000BBF1804F00F09C80554B9B4500F0B8837D
:101140004046494616F040FABAF1000F06D1002C8D
:1011500059D04E4B27F040429A4254D0FF0F013FE6
:1011600056EA070373D04B4B9D4240F39B8003F13B
:1011700004739D4240F33E84474B9C4272DDBBF1B9
:10118000000F72DD3EA3D3E900231046194615F087
:10119000ADFCB1E728B1414813B0BDE8F04F17F0FE
:1011A000E7BEA542F7DCAFE704F1404303F5801347
:1011B00053EA0A039ED0384B9C4240F38383BBF131
:1011C000000F52DBDDE9000196E7BCF1000F9ED075
:1011D00089E7334B9D4231DCA3F154739D429CDD82
:1011E0002B15A3F2FF33142B40F3A583C3F1340373
:1011F0002CFA03F202FA03F363458ED102F00102E6
:10120000C2F102068AE7BBF1000F05DA02460B467F
:1012100000201E4915F094FD002FBFF66DAF04F1BC
:10122000404404F5801454EA060300F03F84012E84
:101230007FF462AF01F1004319465DE702266DE7D6
:10124000BBF1000FC0F248834046494654E742468E
:101250004B461046194615F091FA02460B4615F01A
:101260006FFD49E7BBF1000F8CDB0020002143E755
:1012700042464B464046494615F038FC3CE700BF25
:101280009C7500883CE4377E0000F07F0000F03F52
:101290000000E03F0000E041FFFFEF3FD8B402084C
:1012A000FFFF3F43B4F5801F80F261830022D24BE1
:1012B00015F01CFC6FF0340C0C462315CF4DC4F315
:1012C0001302A3F2FF3342F07F546344AA420B930C
:1012D00044F4401440F33F83C94B9A4240F30484E2
:1012E0009FEDAF7B8DED087B8DED107B9FEDAE7B91
:1012F0000B9B8DED067B01330B93A4F58014002529
:10130000DDE906232146824615F038FAA346DDE9D9
:1013100006238046894650462146CDE90CAB15F0A0
:101320002FFA02460B460020B64915F009FD0A4681
:101330000146CDE90E12134649460246404615F0D5
:10134000D5FB631043F0005382468B4603F5002320
:101350008C46CDE904AB5919D3460023CDE902BC34
:101360000293DDE902AB002004460D4602460B461F
:101370005046594615F0BAFB02460B4640464946D0
:1013800015F0FCF9DDE9062380468946204629460A
:1013900015F0F4F902460B46DDE90C0115F0EEF903
:1013A00052465B4615F0A2FB02460B4640464946B4
:1013B00015F0E4F9DDE90E2315F098FBDDE90445AD
:1013C000CDE9060122462B462046294615F08EFB24
:1013D00077A3D3E9002304460D4615F087FB76A3D7
:1013E000D3E9002315F0CCF922462B4615F07EFBFD
:1013F00073A3D3E9002315F0C3F922462B4615F059
:1014000075FB71A3D3E9002315F0BAF922462B46E8
:1014100015F06CFB6EA3D3E9002315F0B1F9224659
:101420002B4615F063FB6CA3D3E9002315F0A8F954
:101430002246804689462B462046294615F056FB13
:1014400002460B464046494615F050FB52460446BC
:101450000D465B46DDE9040115F092F9DDE906234E
:1014600015F044FB22462B4615F08AF95246804679
:1014700089465B465046594615F038FB0022624BC0
:10148000CDE90C0115F07CF942464B4615F078F990
:1014900002980D46044622462B465046594615F002
:1014A00025FB002282468B46574B2046294615F0E5
:1014B00065F9DDE90C2315F061F902460B4640465B
:1014C000494615F05BF9DDE9042315F00FFB2246D0
:1014D000804689462B46DDE9060115F007FB0246EA
:1014E0000B464046494615F04BF980468946024670
:1014F0000B465046594615F043F9029838A3D3E9F4
:10150000002304460D4615F0F1FA5246CDE90401D8
:101510005B462046294615F031F902460B46404607
:10152000494615F02BF930A3D3E9002315F0DEFA74
:101530002FA3D3E90023804689462046294615F08B
:10154000D5FA02460B464046494615F019F9DDE941
:10155000102315F015F980460B98894615F05CFAB2
:10156000424682468B464B46DDE9040115F008F9F8
:10157000DDE9082315F004F952465B4615F000F941
:10158000029852465B4604460D4615F0F7F8DDE931
:10159000082315F0F3F8DDE9042337E0AFF300800A
:1015A0000000000000000000000000000000F03F0C
:1015B000EF4E454A287ECA3F65DBC9934A86CD3F38
:1015C00001411DA96074D13F4D268F515555D53F1E
:1015D000FFAB6FDBB66DDB3F033333333333E33FB6
:1015E000000000E009C7EE3FFD033ADC09C7EE3F0B
:1015F000F5015B14E02F3EBE000040438E980300CF
:1016000079B60B000000F03F0000084015F0B6F876
:101610000B4602464946404615F0B0F8013E56EAF0
:10162000070382468B4600F05E819FEDD37B8DEDF4
:10163000047BDDE9001200230E461746CDE9026760
:101640000293DDE9026708463B461146324615F033
:1016500095F822462B4615F049FADDE9002380462D
:1016600089465046594615F041FA02460B46404617
:10167000494615F085F83246804689463B46204665
:101680002946CDE9008915F031FA0B460246064697
:101690000F464046494615F073F8D14B994204462F
:1016A0000D468A4640F3248101F13F4303F5E003F0
:1016B000034340F0FF81B2A3D3E90023DDE9000139
:1016C00015F05EF83246804689463B46204629465C
:1016D00015F054F802460B464046494615F096FC74
:1016E000002840F0E781A8464FEA2853A3F2FE32D3
:1016F0004FF4801313415344C3F30A52B94DA2F27D
:10170000FF321541C3F3130423EA05010020C2F19F
:10171000140B44F48014BAF1000F02460B4644FA4D
:101720000BFB30463946B8BFCBF1000B15F026F85D
:1017300006460F463246DDE900013B4615F020F82B
:101740004FEA0B5A0D4600248FA3D3E9002320460D
:10175000294615F0CBF93246804689463B4620465D
:10176000294615F00BF802460B46DDE9000115F09D
:1017700005F887A3D3E9002315F0B8F986A3D3E9C8
:10178000002306460F462046294615F0AFF90246CB
:101790000B463046394614F0F3FF06460F46024624
:1017A0000B464046494614F0EBFF42464B46044682
:1017B0000D4614F0E3FF02460B463046394614F05E
:1017C000DDFF2246804689462B462046294615F0F5
:1017D0008DF973A3D3E9002306460F4615F086F969
:1017E00071A3D3E9002314F0C9FF32463B4615F03C
:1017F0007DF96FA3D3E9002314F0C2FF32463B46C4
:1018000015F074F96CA3D3E9002314F0B7FF324646
:101810003B4615F06BF96AA3D3E9002314F0B0FF3F
:1018200032463B4615F062F902460B4620462946F1
:1018300014F0A4FF06460F4602460B4620462946F2
:1018400015F054F90022CDE900014FF080433046F5
:10185000394614F093FF02460B46DDE9000115F00E
:101860006FFA424606460F464B462046294615F07B
:101870003DF942464B4614F083FF02460B46304684
:10188000394614F07BFF22462B4614F077FF0246C0
:101890000B460020544914F071FF8A44BAF5801FAA
:1018A000C0F232815146DDE9042315F01FF923E42B
:1018B000002FFFF645AC4046494613B0BDE8F04F57
:1018C00016F01EBDBBF1000FBFF6CFACDDE9003452
:1018D000184604F100410FE442464B4600204249BD
:1018E00015F02EFA08E49FED387B8DED047BA0E621
:1018F0003E4B21F00048984540F3EA803C4B0B44B6
:1019000003430AD132463B4614F038FFDDE9002399
:1019100015F072FB00283FF4E7AEDDE904012CA3CB
:10192000D3E9002315F0E2F829A3D3E9002315F049
:10193000DDF8FFF7E1BBBCF1000F40F0D280C3F14E
:10194000140345FA03F202FA03F3AB4200F0E0801D
:101950006646FFF7E9BB9FED207B8DED087B8DEDA3
:10196000107B9FED057B00258DED067BC8E44FF0D5
:10197000000CA2E4AFF30080000000000000F03F84
:10198000FE822B654715973C00000000432EE63F82
:10199000EF39FAFE422EE63F396CA80C615C20BE9E
:1019A000D0A4BE726937663EF16BD2C541BDBB3E65
:1019B0002CDE25AF6A56113F93BDBE166CC1663F43
:1019C0003E5555555555C53F000000000000F0BF7D
:1019D00059F3F8C21F6EA5010000000000000000CE
:1019E000FFFF8F40FFFF0F000000F03FFFCB904054
:1019F00000346F3F5A4B9C427FF734AC594B9C42AA
:101A00003FF7BDAB0022574B14F0B8FE44A3D3E917
:101A1000002304460D4615F069F843A3D3E90023DB
:101A200082468B462046294615F060F80022CDE913
:101A300002014D4B2046294615F058F802460B4648
:101A40003BA1D1E9000114F099FE22462B4615F086
:101A50004DF802460B460020444914F08FFE224602
:101A6000804689462B462046294615F03FF8024617
:101A70000B464046494615F039F82FA3D3E9002319
:101A800015F034F802460B46DDE9020114F076FE4B
:101A900002460B46804689465046594614F070FE71
:101AA000002004460D4652465B46AFE502460B4613
:101AB000FFF7CFBBDDE9040121A3D3E9002315F033
:101AC00015F81FA3D3E9002315F010F8FFF714BB96
:101AD000264B98453FF708AEDDE902239246934630
:101AE00031E60026FFF72CBB9FED177B8DED087BC1
:101AF0009FED177B8DED107B9FED177B4FF48025BD
:101B00008DED067BFFF7FCBB5A4601F029FDCAE6C6
:101B100002F00102C2F10206FFF706BBAFF300803C
:101B2000000000604715F73F44DF5DF80BAE543E00
:101B3000555555555555D53FFE822B654715F73FF1
:101B40009C7500883CE4377E0000004003B8E23F0B
:101B500006D0CF43EBFD4C3E000000000000F83FF4
:101B6000FEFFEF3F0000F03F0000D03F0000E03FED
:101B70002DE9F047CA4B21F000479F4290B08046C4
:101B8000894640F38F80C74B9F420C46924626DC25
:101B90000029B9A3D3E9002340F38F8014F0EEFDB0
:101BA000C14B9F4204460D4600F04781B4A3D3E9E0
:101BB000002314F0E3FD02460B46CAE90023204649
:101BC000294614F0DBFDAEA3D3E9002314F0D6FDC3
:101BD0000125CAE90201284610B0BDE8F087B34BE1
:101BE0009F4240F38980B24B9F4200F31C813D1518
:101BF000A5F21645A7EB055319461F46064615F0F4
:101C000025FA14F009FF8046894642464B46304685
:101C10003946CDE90A8914F0B1FD0022A54B14F034
:101C200065FF8946804615F011FA14F0F5FE064668
:101C30000F4632463B4640464946CDE90C6714F014
:101C40009DFD00229B4B14F051FF00220023CDE9A3
:101C50000E0115F0B3F9002800F060810023304632
:101C60003946002215F0AAF9002814BF01230223E7
:101C7000914A019202212A4600910AA8514600F099
:101C800087FB002C054614DADAF80420DAF80C3069
:101C900002F1004203F100434542CAF80420CAF8A9
:101CA0000C3006E000200021C2E90089C2E90201EF
:101CB0000025284610B0BDE8F08714F061FD7A4B8E
:101CC0009F4204460D4600F00B816DA3D3E900232B
:101CD00014F056FD02460B46CAE900232946204669
:101CE00014F04CFD66A3D3E9002314F049FD4FF036
:101CF000FF35CAE90201DCE715F066FC62A3D3E90F
:101D000000238046894614F0F1FE00226B4B14F04C
:101D100037FD15F09BF9054614F07EFE56A3D3E976
:101D20000023CDE9060114F0E1FE02460B464046D1
:101D3000494614F023FD52A3D3E900238046894687
:101D4000DDE90601CDE9028914F0D0FE1F2D02461F
:101D50000B46CDE9042340F3B380DDE90423DDE93C
:101D6000020114F00BFD804689463F15C9F30A5362
:101D7000FB1A102B40F3B18045A3D3E90023DDE922
:101D8000060114F0B3FE8046894602460B46DDE9A3
:101D9000020114F0F3FC02460B46DDE90201CDE935
:101DA000082314F0EBFC42464B4614F0E7FC3AA340
:101DB000D3E9002380468946DDE9060114F096FE4A
:101DC00042464B4614F0DAFC0B46CDE904010246CC
:101DD000DDE9080114F0D2FCC1F30A53FF1A312FD8
:101DE0008046894600F39C809DED087BCAE9008906
:101DF0008DED027B42464B46DDE9020114F0BEFC4C
:101E0000DDE9042314F0BAFC002CCAE90201BFF694
:101E100050AF09F1004401F100436D42CAE900846A
:101E2000CAE9020345E702460B4614F0A7FC002569
:101E3000CAE90201CAE900013BE715A3D3E900237F
:101E400014F09CFC14A3D3E900230D46044614F0BF
:101E500095FC02460B46CAE900232946204614F0A9
:101E60008DFC0DA3D3E9002314F088FC0125CAE9F9
:101E700002011EE7AFF3008000004054FB21F93F50
:101E80003163621A61B4D03D83C8C96D305FE43FED
:101E90000000601A61B4D03D7370032E8A19A33B11
:101EA000FB21E93F7BD90240FB21F93FFB2139416E
:101EB000FFFFEF7F0000704130B702080000E03FF5
:101EC0004046494614F05AFC394B6A1E804653F886
:101ED0002230BB4289463FF448AFCAE9008989E70E
:101EE0002BA3D3E9002314F04BFC2BA3D3E900234D
:101EF0000D46044614F044FC02460B46CAE9002392
:101F00002946204614F03AFC23A3D3E9002314F019
:101F100037FC4FF0FF35CAE90201CAE60323A7E602
:101F20001FA3D3E90023DDE9060114F0DFFD064617
:101F30000F4602460B46DDE9080114F01FFC8046FF
:101F4000894602460B46DDE90801CDE9028914F015
:101F500015FC32463B4614F011FC13A3D3E90023D1
:101F600006460F46DDE9060114F0C0FD32463B4649
:101F700014F004FC02460B4640464946CDE90423D2
:101F800014F0FCFB80468946A7E700BFAFF3008052
:101F90000000601A61B4D03D7370032E8A19A33B10
:101FA0000000002E8A19A33BC14920259A837B3962
:101FB000B0B6020800000000574A2DE9F84F21F0A2
:101FC0000048904506460F462CDC544B0029B4BF10
:101FD000534D544D98454FF0000411DC524B984539
:101FE00026DC4BA3D3E9002314F0CAFB00224F4B9D
:101FF00015F00CF8002840D030463946BDE8F88F7F
:102000004B4B984530DD4B4B984568DD0133984587
:1020100062D0304639463EA3D3E9002314F066FD72
:10202000BDE8F88F02460B4614F0AAFBBDE8F88F16
:1020300015F0CAFA01F048F83F4B984506460F469E
:1020400023DD0022394B14F09BFB02460B46304641
:10205000394614F075FE32463B4614F091FB224699
:102060002B4614F043FDE1E715F0AEFAFEF75CFCF9
:1020700022462B4614F03AFDD8E73046394615F093
:10208000A3FA01F021F806460F4632463B46304699
:10209000394614F075FB324682468B463B46304645
:1020A000394614F023FD0022804689461F4B3046F6
:1020B000394614F065FB02460B464046494614F08B
:1020C0003FFE02460B465046594614F057FB224647
:1020D0002B4614F00BFDA9E7184B984299D83046CF
:1020E000394615F071FA00220E4B14F0FFFCFEF792
:1020F0001BFC06460F4602460B462046294614F0B6
:10210000F5FC32463B4614F0F1FC8FE7AFF300805C
:102110003374AC3C1F7BAC7FFFFFEF7FFFFF35408C
:102120000000E0BF0000E03FFFFF2F3E0000F03F57
:10213000412E8640CD338640FFFFEF3F7DF8B98FBB
:102140002DE9F04F21F00048B8F1795F85B00646DF
:102150000F4692469B466BDA14F078FF002800F099
:10216000E18032463B463046394614F0BFFC74A34A
:10217000D3E9002304460D4614F0B8FC72A3D3E95A
:10218000002314F0FDFA22462B4614F0AFFC70A396
:10219000D3E9002314F0F2FA22462B4614F0A6FCF1
:1021A0006DA3D3E9002314F0EBFA22462B4614F07A
:1021B0009DFC6BA3D3E9002314F0E0FA22462B46E2
:1021C00014F094FC68A3D3E9002314F0D9FA224652
:1021D0002B4614F08BFCCDE900010022664B204613
:1021E000294614F083FCDDE9002380468946204619
:1021F000294614F07BFC524604460D465B463046A9
:10220000394614F073FC02460B462046294614F06A
:10221000B5FA02460B464046494614F0AFFA02466C
:102220000B460020554914F0A9FA05B0BDE8F08F1F
:1022300002460B4614F05AFC41A3D3E9002304469E
:102240000D4614F053FC40A3D3E9002314F098FA90
:1022500022462B4614F04AFC3DA3D3E9002314F098
:102260008DFA22462B4614F041FC3BA3D3E9002310
:1022700014F086FA22462B4614F038FC38A3D3E932
:10228000002314F07BFA22462B4614F02FFC36A3D1
:10229000D3E9002314F074FA2B46224614F026FCEE
:1022A000374B9845CDE9000197DD364B98453EDC2C
:1022B000A8F500130022002030499046994614F0FA
:1022C0005DFACDE9020100222B4B2046294614F08D
:1022D0000DFC42464B4614F051FADDE900238046DE
:1022E00089462046294614F001FC524604460D4614
:1022F0005B463046394614F0F9FB02460B46204651
:10230000294614F03BFA02460B464046494614F073
:1023100035FA02460B46DDE9020114F02FFA05B04A
:10232000BDE8F08F1549002005B0BDE8F08F9FEDA6
:10233000107B4FF000088DED027BDFF84C90C2E778
:10234000D43888BEE9FAA8BDC4B1B4BD9EEE213E22
:10235000AD529C804F7E923E9015CB19A001FA3E63
:102360007751C1166CC1563F4C5555555555A53F33
:10237000000000000000E73F0000E03F0000F03FE9
:102380003233D33F0000E93F0000D23F000000009D
:102390002DE9F04FADF5197DBE4CA29EBE4D54F80F
:1023A00026600793D41E85FB0475E417C4EBA504CF
:1023B00024EAE4741D46631CA3EB8303013D02EB96
:1023C000C3030593731904960994019503900B9127
:1023D000A4EB05071AD43B44002400255E1C0DF134
:1023E0008008DDF88C9208E059F8270014F014FBFF
:1023F0000137B742E8E8020108D0002FF4DA0137CC
:1024000020462946B742E8E80201F6D1049B002B9A
:10241000079B4FEAC30302932ADB039A20A902EB2E
:10242000030801EB0309049B72AA02EBC30B0DF531
:10243000E07A019B002B4FF000064FF0000711DB04
:10244000039C4D4675E90223F4E8020114F04EFBAB
:1024500002460B463046394614F092F9444506468A
:102460000F46EFD1EAE80267DA4509F10809E0D141
:10247000DDE90204049920448B0082460BA8A3F1F5
:102480000802C31808930CAB13440A938B4698AB0D
:1024900003EBCB03BBF1000F53E9284529DD70ABFB
:1024A00003EBCB080DF1300900227C4B2046294676
:1024B00014F01CFB14F0CAFD14F0AEFA0022784BA5
:1024C00006460F4614F012FB02460B4620462946EC
:1024D00014F054F914F0BAFD78E9022349F8040B1A
:1024E0003946304614F04CF970AB984504460D4619
:1024F000DAD1DDF81490204629464A4601F030F83A
:1025000000224FF07F5304460D4614F0EFFAFCF71B
:10251000A7FD0022634B14F0E9FA02460B46204661
:10252000294614F02BF90D46044614F08FFD804621
:1025300014F072FA0B4602462946204614F01EF9A2
:102540004B46002B06460F4640F3E1800BF1FF326D
:102550000CA9C9F1180351F8225045FA03F101FA08
:1025600003F30CA8EB1A40F82230C9F11705884490
:1025700043FA05F5002D2CDDBBF1000F08F1010831
:1025800040F381820C9C002C40F0A780BBF1010F2E
:102590000AD00CA9012251F8044F531C002C40F022
:1025A0009E809B451A46F6D1059B002B0EDD012B24
:1025B00000F0D980022B09D10BF1FF320CAB0CA932
:1025C00053F82230C3F3150341F82230022D00F0F6
:1025D000AF80002200233046394614F0EFFC00287B
:1025E00000F05382049B0BF1FF394B4510DC0BF1DB
:1025F00080430CAA013B089802EB8303002253F8A6
:102600000419834242EA0102F9D1002A40F0B6805F
:10261000049B0CAA013B52F82330002B40F0A18010
:102620000A9A012352F8041901330029FAD05B44B5
:102630000BF10109994506934CDC099A079909EBBE
:10264000020801EB0B0508F1804802EB030BA39B8A
:1026500008F1FF3803EB880870AB03EBC909A39BB3
:1026600020A903EB8B0301EBC505029358F8040F77
:1026700014F0D2F90B4601990246002905F1080B26
:10268000C5E900234FF000064FF000071CDB039C58
:102690000CE000BFD0BB0208ABAAAA2A0000703E23
:1026A000000070410000204075E90223F4E80201B7
:1026B00014F01CFA02460B463046394614F060F816
:1026C000544506460F46EFD1029B9845E9E802675C
:1026D0005D46CBD1DDF818B0D9E6012300220CA964
:1026E000C4F180749B4541F822400EDD51F823204F
:1026F00001EB8B0001EB83036FF07F4100E01A6870
:102700008A1A43F8042B8342F9D101244CE706D1FD
:102710000BF1FF330CAA52F82350ED152AE70022E3
:102720007B4B14F069FC002840F0A381054650E77C
:1027300032463B460020774914F020F806460F4603
:10274000002C3FF446AF059A7249002000F008FFC4
:1027500002460B463046394614F010F806460F463E
:1027600037E7012363E70BF1FF320CAB0CA953F8F9
:102770002230C3F3160341F8223027E70CAB059A49
:1027800053F82930183ACDE9068505926BB909F15D
:102790008043013B0CA901EB830353F8041909F1B1
:1027A000FF39183A0029F8D00592059A59490020B6
:1027B00000F0D6FEB9F1000F04460D46C0F2C0810C
:1027C0004FEAC90370AA02EB030808930CAB03EBB2
:1027D0008906DFF844B14FF0000A08F10807043613
:1027E00056F8040D14F018F922462B4614F07EF921
:1027F0005B4667E9020152462046294614F076F905
:102800000CAB9E4204460D46EAD148AB03930193BC
:10281000CDF8149009F10103DDF810900293C3463E
:102820004FF0000AB9F1000FC0F22A81DFF8EC8006
:102830005D4635A3D3E9002300260027002403E0EA
:10284000544510DCF8E80223F5E8020114F04EF9D3
:1028500002460B463046394613F092FF0134A1453B
:1028600006460F46ECDA019BE3E802670193029B00
:102870000AF1010A9A45ABF1080BD3D1A29BDDF80E
:102880001490032B39D8DFE813F0D90006000600B6
:102890004D0048AB0393B9F1000F4FF000004FF02B
:1028A000000109DB039D05EBC904083474E9022328
:1028B00013F066FFA542F9D1079B002B40F01E8163
:1028C0000B9BC3E900010B4603990246D1E90001C5
:1028D00013F054FFB9F1000F0CDD4AAD01240134AF
:1028E000F5E8022313F04CFFA145F8DA079B002B13
:1028F00040F014810B9BC3E90201069B03F0070023
:102900000DF5197DBDE8F08F00000040FB21F93F77
:102910000000E03F0000F03F0000703EB0A1020860
:1029200048AB0393B9F1000F40F32781039ACDF828
:1029300010904FEAC9030193D318D3E900AB09F112
:102940000053013B02EBC9080293914678E9026704
:1029500052465B463046394613F012FF04460D4698
:1029600002460B463046394613F008FF52465B4696
:1029700013F006FFC145A246AB46C8E90201C8E90B
:102980000045E3D1DDF81090B9F1010F40F3F58077
:10299000019B039A02991344C900D3E9006701F12E
:1029A000080A019192440DF5947B7AE90289324636
:1029B0003B464046494613F0E3FE04460D460246B8
:1029C0000B464046494613F0D9FE32463B4613F0CB
:1029D000D7FED34526462F46CAE90201CAE900457B
:1029E000E3D1019C039B1034002000211C4403F11F
:1029F000100574E9022313F0C3FEA542F9D1039C2C
:102A0000079ED4E90023D4E90245002E00F08A8015
:102A100003F1004701F100430B99C1E90403069B50
:102A20002646944605F1004403F00700C1E900C7BB
:102A3000C1E902640DF5197DBDE8F08F089C039D86
:102A40000834002000212C4474E9022313F098FE7E
:102A5000A542F9D1079B13B101F1004319460B9B25
:102A6000C3E90001069B03F007000DF5197DBDE8E1
:102A7000F08FBBF1000F08F1010874DD022581E53C
:102A800000260027EFE600248EE5CDE90685059DAA
:102A9000304639466A4200F063FD0022384B064654
:102AA0000F4614F0A9FA00B30022364B30463946DF
:102AB00014F01CF814F0CAFA044613F0ADFF00221B
:102AC0002F4B14F013F80B4602463946304613F0EC
:102AD00055FE14F0BBFA0BF101090CAB183543F8A5
:102AE0002B00059543F829405FE63046394614F03F
:102AF000ADFA0CABD94643F82B0056E60B9C01F11E
:102B00000043C4E900030B4603990246D1E90001E2
:102B100013F034FEB9F1000F3FF7DFAE01F10043CF
:102B20001946E7E60B9EC6E90023069BC6E90401A9
:102B300003F00700C6E902450DF5197DBDE8F08FE9
:102B4000A29B032B3FF6D9AE01A252F823F000BF9F
:102B5000612B010893280108932801082129010805
:102B60000020002176E732463B460020064913F05C
:102B700005FE022506460F462BE5002000213EE714
:102B8000000070410000703E0000F03F00000000B7
:102B90002DE9F04F21F00046B6F1795F85B004468B
:102BA0000D469046994604DA14F050FA002800F0D9
:102BB000858022462B462046294613F097FF06467D
:102BC0000F4602460B462046294613F08FFF41A3CD
:102BD000D3E9002382468B463046394613F086FF00
:102BE0003EA3D3E9002313F0C9FD32463B4613F060
:102BF0007DFF3CA3D3E9002313F0C2FD32463B46E0
:102C000013F074FF39A3D3E9002313F0B7FD324664
:102C10003B4613F06BFF37A3D3E9002313F0B0FD5D
:102C20000E9BCDE900019BB30022294B404649464B
:102C300013F05CFFDDE90023CDE90201504659465F
:102C400013F054FF02460B46DDE9020113F096FD36
:102C500032463B4613F04AFF42464B4613F08EFD88
:102C600019A3D3E9002306460F465046594613F0F0
:102C70003DFF02460B463046394613F081FD0246C1
:102C80000B462046294613F079FD05B0BDE8F08FCC
:102C900002460B463046394613F028FF0AA3D3E913
:102CA000002313F06BFD52465B4613F01FFF2246D4
:102CB0002B4613F065FD05B0BDE8F08F2046294690
:102CC00005B0BDE8F08F00BF495555555555C53F76
:102CD0000000E03F7CD5CF5A3AD9E53DEB9C2B8AEA
:102CE000E6E55A3E7DFEB157E31DC73ED561C119E9
:102CF000A0012A3FA6F810111111813F0000000029
:102D00002DE9F04FC04C21F0004687B0A642824624
:102D10008B460F46CDE900231ADC14F097F9002802
:102D20003FD1109B524601331343334300F0B78128
:102D3000109B012B00F0C0815B460020B34913F0CB
:102D4000FFFF04460D462046294607B0BDE8F08F38
:102D5000AF4B9E4225DD002909DADDE90045224618
:102D600005F10043CDE900230BF100418B465246AB
:102D70005B4685A1D1E9000113F000FDDDE90023E8
:102D800004460D4682A1D1E9000113F0F7FC9FED46
:102D9000827B22462B468DED007B13F0F1FC8246B0
:102DA0008B4652465B465046594613F09FFE0246FC
:102DB0000B468046894613F099FE424604460D466E
:102DC0004B465046594613F091FE75A3D3E90023B4
:102DD000CDE902012046294613F088FE72A3D3E90B
:102DE000002313F0CDFC22462B4613F07FFE70A388
:102DF000D3E9002313F0C4FC22462B4613F076FEE1
:102E00006DA3D3E9002313F0BBFC22462B4613F03D
:102E10006DFE6BA3D3E9002313F0B2FC22462B46D0
:102E200013F064FE68A3D3E9002313F0A9FC424623
:102E30004B4613F05BFE66A3D3E90023CDE9040102
:102E40002046294613F052FE63A3D3E9002313F072
:102E500097FC22462B4613F049FE61A3D3E90023D9
:102E600013F08EFC22462B4613F040FE5EA3D3E9FE
:102E7000002313F085FC22462B4613F037FE5CA39B
:102E8000D3E9002313F07CFC22462B4613F02EFEE0
:102E900059A3D3E9002313F073FC02460B46DDE986
:102EA000040113F06DFCDDE9022313F01FFEDDE9E0
:102EB000004522462B4613F063FC42464B4613F076
:102EC00015FE22462B4613F05BFC4DA3D3E90023ED
:102ED00004460D46DDE9020113F008FE22462B46AA
:102EE00013F04EFC0B460246804689465046594632
:102EF00013F046FC464B9E4204460D4600F38C8080
:102F0000109B012B3BD002460B4600203F4913F09B
:102F100017FF002406460F462046294652465B46C8
:102F2000CDE90067CDE90201009413F027FCDDE94B
:102F300000AB02460B464046494613F01FFC524682
:102F40005B4613F0D3FD524604460D465B46DDE971
:102F5000020113F0CBFD00222E4B13F011FC0246B0
:102F60000B462046294613F00BFC32463B4613F035
:102F7000BDFD52465B4613F003FC04460D46204659
:102F8000294607B0BDE8F08F182D4454FB21E93FD6
:102F9000075C143326A6813C0000000000000000FE
:102FA000D47ABF74702AFB3EE9A7F0320FB8123F03
:102FB00068108D1AF726303F1583E0FEC8DB573FB7
:102FC00093846EE9E326823FFE41B31BBAA1AB3F77
:102FD000735360DBCB75F3BEA69237A0887E143F97
:102FE0000165F2F2D844433F280356C9226D6D3F74
:102FF00037D60684F464963F7AFE10111111C13F52
:10300000635555555555D53FFFFF2F3E0000F0BF86
:103010002794E53F0000F03F109813F0FDFC224696
:10302000CDE900012B462046294613F05FFDDDE97E
:103030000023CDE902012046294613F0A1FB0246F8
:103040000B46DDE9020113F07BFE42464B4613F0CE
:1030500095FB02460B465046594613F08FFB02463D
:103060000B4613F08DFB02460B46DDE9000113F021
:1030700085FB0446B81700F00200C0F101000D46C0
:1030800013F0CAFC02460B462046294613F02EFDDB
:1030900004460D462046294607B0BDE8F08F50464D
:1030A000594614F091FA02460B460020044913F0E9
:1030B00047FE04460D4662E754465D465FE700BFA3
:1030C0000000F03F000000002DE9F04FCC4A21F055
:1030D0000043934285B082468B460C4620D9C94AAC
:1030E000934200F2D780002C80F2A481ACA3D3E9F4
:1030F00000235046594613F043FB0022002313F0EF
:1031000067FF002840F0D180A7A3D3E900235046F1
:10311000594613F0EBFC02460B460020BA4994E1F5
:10312000BA4A934200F2E580B94A934240F22E81B6
:10313000002301930022B74B5046594613F0D6FCAA
:1031400006460F4602460B465046594613F0CEFC43
:1031500097A3D3E9002304460D4613F0C7FC96A3BA
:10316000D3E9002313F00CFB22462B4613F0BEFCE0
:1031700093A3D3E9002313F001FB22462B4613F05F
:10318000B5FC91A3D3E9002313F0FAFA22462B46AB
:1031900013F0ACFC8EA3D3E9002313F0EFFA224620
:1031A0002B4613F0A3FC00229B4B13F0E9FA804658
:1031B000894602460B463046394613F097FC0246D4
:1031C0000B460020954913F0D9FA064602460B46F5
:1031D0000F464046494613F0D1FA324680468946AA
:1031E0003B465046594613F081FC02460B460020F0
:1031F0008B4913F0C3FA02460B464046494613F08A
:103200009FFD22462B4613F071FC019E02460B46A1
:10321000002E4DD0DDE9026732463B4613F0AEFA90
:1032200052465B4613F062FC32463B4613F0A6FA68
:103230002B46224613F0A2FA019B013306460F46A5
:1032400000F02381019B012B7BD0019A531C392B69
:103250004FEA025500F22881019A132A40F3558162
:10326000019BC3F57F7403340022230513F088FA11
:1032700002460B465046594613F080FA0022664B30
:1032800013F07EFA824605EB010B5046594605B015
:10329000BDE8F08F634A93421BD9C1F31303034384
:1032A000024640F012810029EFDA00205E490DE06D
:1032B0005046594613F01AFC22462B4613F05EFA8C
:1032C00002460B465046594613F058FA05B0BDE881
:1032D000F08F41A3D3E9002313F098FE00283FF4B8
:1032E00002AF3FA3D3E900231046194613F0FEFBBB
:1032F000ECE74E4A934200F2EC8000293AA3D3E96E
:10330000002339DA13F03CFA39A7D7E900674FF008
:10331000FF3380468946019332463B464046494644
:1033200013F02CFA02460B4682468B46404649462D
:1033300013F024FA32463B4613F020FACDE902019D
:10334000F8E600223A4B5046594613F041FE002859
:1033500000F0CC805046594600222E4B13F010FA54
:1033600002460B463046394613F008FA00224FF069
:10337000404313F0BBFBA9E713F000FA012380469A
:10338000894601931CA7D7E90067C5E714A3D3E9D1
:10339000002313F0F5F902460B468FE7AFF30080E8
:1033A00059F3F8C21F6EA501FE822B654715F73F42
:1033B0002DC3096EB7FD8ABE3952E686CACFD03E0C
:1033C000B7DBAA9E19CE143F8555FE19A0015A3FBE
:1033D000F41011111111A13FEF39FAFE422E86406F
:1033E0009C7500883CE4377E0000E0FE422EE63FFC
:1033F000763C7935EF39EABD763C7935EF39EA3DEF
:1034000079684340412E86400000E0BF422ED63FFF
:10341000FFFF8F3C0000E03F0000F03F000008404D
:1034200000001840FFFFEF7F0000F0BFB1A2F03FA7
:103430000000D0BF44A3D3E900235046594613F0FF
:1034400055FB02460B460020414913F099F913F051
:10345000FDFD019013F0E0FA37A3D3E900230646FF
:103460000F4613F043FB02460B465046594613F0F5
:1034700085F933A3D3E9002380468946304639468F
:1034800013F034FB06460F4646E702460B4650460D
:10349000594613F073F900222D4B13F027FB00223D
:1034A0002B4B13F06BF911E752465B4613F066F9AC
:1034B00002460B460020274913F060F96B181946A5
:1034C0000022244B13F05AF900E70B4613F058F989
:1034D000FCE61DA3D3E9002313F008FB002C0246F1
:1034E0000B464FF00000AFDA1B49AEE732463B46D1
:1034F0005046594613F042F902460B4613F040F984
:103500000022144B13F03CF9E0E64FF4001343FAA9
:1035100002F452465B4613F031F9C4F17F5700269E
:1035200007F5401702460B463046394613F026F998
:10353000A8E600BFAFF300800000E0FE422EE63FA9
:10354000763C7935EF39EA3DFE822B654715F73F2A
:103550000000E03F0000F03F0000E0BF000000007E
:10356000F8B5C1F30A5304460D460E4617460BBB89
:1035700021F00046034633431BD0354B002213F0A5
:10358000B5FA344B9F4204460D4635DBC1F30A536E
:103590000E46363B3B4440F2FE72934232DC002B37
:1035A00011DD26F0FF4626F4E00646EA03552046E4
:1035B0002946F8BD40F2FF729342EBD102460B461A
:1035C00013F0DEF8F8BD13F1350F28DA4CF2503362
:1035D0009F4222462B460ADD19A1D1E9000115F0D0
:1035E0002DFE17A3D3E9002313F080FAF8BD16A12E
:1035F000D1E9000115F022FE13A3D3E9002313F053
:1036000075FAF8BD22462B460DA1D1E9000115F04F
:1036100015FE0BA3D3E9002313F068FAF8BD26F0DA
:10362000FF4626F4E006363346EA0355204629468F
:103630000022094B13F05AFAF8BD00BFAFF3008027
:103640009C7500883CE4377E59F3F8C21F6EA501D3
:1036500000005043B03CFFFF0000903C10B5054C0B
:10366000237833B9044B13B10448AFF3008001232E
:10367000237010BDA80400200000000090BD0208C7
:1036800008B5034B1BB103490348AFF3008008BDE5
:1036900000000000AC04002090BD0208154B002B78
:1036A00008BF134B9D46A3F5803A00218B460F4679
:1036B0001348144A121A07F0ABF80F4B002B00D036
:1036C00098470E4B002B00D09847002000210400A3
:1036D0000D000D48002802D00C480DF0B1FF15F088
:1036E00019FF200029000DF08BFF0DF0A5FF00BF92
:1036F000000008000080022000000000F115020810
:1037000020040020083300204116020800000000B9
:10371000F0B5214D2C6883B014B1204603B0F0BD44
:103720004FF49C700DF08EFF4FF0FF3104460320E4
:1037300001F010FC00B204F009F84FF0FF3106462A
:10374000022001F007FC00B204F000F83146024606
:1037500020460AF00BFD04F1DC0600231A46304631
:1037600001210AF07BFB4FF0FF31012001F0F2FB59
:1037700000B203F0EBFF98274FF0050C02463346EA
:10378000214604F1E400CDE9007C07F09FFC2046CF
:103790002C6003B0F0BD00BFC40400202DE9F0414F
:1037A00004460F46FFF7B4FF00F1E405064628463D
:1037B00007F0AAFC082C19D0A4F10903012B07D9A2
:1037C0003A46214610230D20BDE8F04103F0AABE81
:1037D000D6F8E43028469B6A98470528F0DCD6F8EE
:1037E000E43028465B6A08219847E9E7D6F8E430D8
:1037F00028469B6A98470228E2DCD6F8E43028463F
:103800005B6A04219847DBE710B52DED028BFFF7CB
:103810007FFF00F1E404204609F0D4F907EE900A96
:103820002046F8EEE78A09F0DBF907EE900A204619
:10383000B8EEE78A09F0E2F968EE087A07EE100AB6
:10384000E8EEA87AB8EEC77AE7EE077AF5EE407AA6
:10385000F1EE10FAB1EEE78A06D4FDEEC87ABDECBF
:10386000028B17EE900A10BD17EE900A14F0E2FBDF
:10387000F3E700BF08B503281CD8DFE800F0140DFB
:103880000602BDE80840FFF7BFBFFFF741FFBDE8F4
:103890000840E43009F0B2B9FFF73AFFBDE808404C
:1038A000E43009F09DB9FFF733FFBDE80840E4308C
:1038B00009F088B9002008BD08B550B1012806D12B
:1038C000FFF726FFBDE80840E430FBF7F9B8002019
:1038D00008BDFFF71DFFBDE80840E430FBF7D0B896
:1038E00010B50446FFF714FF2146E430BDE8104050
:1038F00008F080BF08B501F055FCFBF755FEBDE8A8
:10390000084001F0B5B900BF08B501F04BFCFBF76A
:10391000BBFEBDE8084001F0ABB900BF08B501F03F
:1039200041FC13F0C7FEBDE8084001F0A1B900BF9B
:1039300008B501F037FC14F0B9FABDE8084001F011
:1039400097B900BF08B501F02DFCFBF73DFEBDE8BF
:10395000084001F08DB900BF08B501F023FC14F058
:10396000DBF8BDE8084001F083B900BF08B501F0FD
:1039700019FCFBF7C5F8BDE8084001F079B900BFB4
:1039800008B501F00FFC14F01DF8BDE8084001F087
:103990006FB900BF70B5049E96420C4624DB1546F5
:1039A0006BB9042A19D0022A02D110F0010310D0F9
:1039B00001462A46204605F0A3FD002070BD1044B4
:1039C0000D4410F8013D01F8013B8D42F9D1002072
:1039D00070BD02880A80184670BD10F00303E7D15D
:1039E00002680A60184670BD0846002106F010FF04
:1039F0004FF0FF3070BD00BF0830704740B1002964
:103A000005DB43688B4202DD0844007A70470020E2
:103A1000704700BF30B1002904DB43688B42C4BF4C
:103A200040180272704700BF40B1002905DB4368AF
:103A3000994202DA0844007A70470020704700BFBC
:103A4000830704D1030F0CBF012000207047012021
:103A5000704700BF30B1002904DB43689942BCBF06
:103A600040180272704700BFF8B5002B20DB002918
:103A70001EDB46688E421BDB5468761AE51AB54297
:103A8000A8BF3546002D13DB824202F108070C4621
:103A900000F108062A4605D0F918301905F030FD66
:103AA0000020F8BDF118381915F08EFF0020F8BD80
:103AB0004FF0FF30F8BD00BF4068704710B4141ECF
:103AC00010DB4268A2420DDB33EA230328BF134612
